{"abi":[{"type":"function","name":"DEAD","inputs":[],"outputs":[{"name":"","type":"address","internalType":"address"}],"stateMutability":"view"},{"type":"function","name":"SIGN_TYPEHASH","inputs":[],"outputs":[{"name":"","type":"bytes32","internalType":"bytes32"}],"stateMutability":"view"},{"type":"function","name":"UPGRADE_INTERFACE_VERSION","inputs":[],"outputs":[{"name":"","type":"string","internalType":"string"}],"stateMutability":"view"},{"type":"function","name":"USDT","inputs":[],"outputs":[{"name":"","type":"address","internalType":"address"}],"stateMutability":"view"},{"type":"function","name":"addLiquidity","inputs":[{"name":"amountToken","type":"uint256","internalType":"uint256"}],"outputs":[{"name":"_amountToken","type":"uint256","internalType":"uint256"},{"name":"_amountUsdt","type":"uint256","internalType":"uint256"},{"name":"_liquidityAmount","type":"uint256","internalType":"uint256"}],"stateMutability":"nonpayable"},{"type":"function","name":"checkerSignMsgSignature","inputs":[{"name":"_msg","type":"tuple","internalType":"struct SignatureInfo.SignMessage","components":[{"name":"mark","type":"string","internalType":"string"},{"name":"recipient","type":"address","internalType":"address"},{"name":"amount","type":"uint256","internalType":"uint256"},{"name":"nonce","type":"uint256","internalType":"uint256"},{"name":"deadline","type":"uint256","internalType":"uint256"},{"name":"v","type":"uint8","internalType":"uint8"},{"name":"r","type":"bytes32","internalType":"bytes32"},{"name":"s","type":"bytes32","internalType":"bytes32"}]}],"outputs":[{"name":"","type":"bool","internalType":"bool"}],"stateMutability":"view"},{"type":"function","name":"claim","inputs":[{"name":"_msg","type":"tuple","internalType":"struct SignatureInfo.SignMessage","components":[{"name":"mark","type":"string","internalType":"string"},{"name":"recipient","type":"address","internalType":"address"},{"name":"amount","type":"uint256","internalType":"uint256"},{"name":"nonce","type":"uint256","internalType":"uint256"},{"name":"deadline","type":"uint256","internalType":"uint256"},{"name":"v","type":"uint8","internalType":"uint8"},{"name":"r","type":"bytes32","internalType":"bytes32"},{"name":"s","type":"bytes32","internalType":"bytes32"}]}],"outputs":[],"stateMutability":"nonpayable"},{"type":"function","name":"eip712Domain","inputs":[],"outputs":[{"name":"fields","type":"bytes1","internalType":"bytes1"},{"name":"name","type":"string","internalType":"string"},{"name":"version","type":"string","internalType":"string"},{"name":"chainId","type":"uint256","internalType":"uint256"},{"name":"verifyingContract","type":"address","internalType":"address"},{"name":"salt","type":"bytes32","internalType":"bytes32"},{"name":"extensions","type":"uint256[]","internalType":"uint256[]"}],"stateMutability":"view"},{"type":"function","name":"getAmountOut","inputs":[{"name":"token0","type":"address","internalType":"address"},{"name":"token1","type":"address","internalType":"address"},{"name":"token0Amount","type":"uint256","internalType":"uint256"}],"outputs":[{"name":"","type":"uint256","internalType":"uint256"}],"stateMutability":"view"},{"type":"function","name":"getQuoteAmount","inputs":[{"name":"amountToken","type":"uint256","internalType":"uint256"}],"outputs":[{"name":"amountUsdt","type":"uint256","internalType":"uint256"}],"stateMutability":"view"},{"type":"function","name":"getSignMsgHash","inputs":[{"name":"_msg","type":"tuple","internalType":"struct SignatureInfo.SignMessage","components":[{"name":"mark","type":"string","internalType":"string"},{"name":"recipient","type":"address","internalType":"address"},{"name":"amount","type":"uint256","internalType":"uint256"},{"name":"nonce","type":"uint256","internalType":"uint256"},{"name":"deadline","type":"uint256","internalType":"uint256"},{"name":"v","type":"uint8","internalType":"uint8"},{"name":"r","type":"bytes32","internalType":"bytes32"},{"name":"s","type":"bytes32","internalType":"bytes32"}]}],"outputs":[{"name":"","type":"bytes32","internalType":"bytes32"}],"stateMutability":"view"},{"type":"function","name":"initialize","inputs":[{"name":"_token","type":"address","internalType":"address"},{"name":"_lp","type":"address","internalType":"address"},{"name":"_permit","type":"address","internalType":"address"}],"outputs":[],"stateMutability":"nonpayable"},{"type":"function","name":"isExcuted","inputs":[{"name":"","type":"string","internalType":"string"}],"outputs":[{"name":"","type":"bool","internalType":"bool"}],"stateMutability":"view"},{"type":"function","name":"lp","inputs":[],"outputs":[{"name":"","type":"address","internalType":"address"}],"stateMutability":"view"},{"type":"function","name":"nonce","inputs":[],"outputs":[{"name":"","type":"uint256","internalType":"uint256"}],"stateMutability":"view"},{"type":"function","name":"owner","inputs":[],"outputs":[{"name":"","type":"address","internalType":"address"}],"stateMutability":"view"},{"type":"function","name":"permit","inputs":[],"outputs":[{"name":"","type":"address","internalType":"address"}],"stateMutability":"view"},{"type":"function","name":"proxiableUUID","inputs":[],"outputs":[{"name":"","type":"bytes32","internalType":"bytes32"}],"stateMutability":"view"},{"type":"function","name":"removeLiquidity","inputs":[{"name":"_liquidity","type":"uint256","internalType":"uint256"}],"outputs":[],"stateMutability":"nonpayable"},{"type":"function","name":"renounceOwnership","inputs":[],"outputs":[],"stateMutability":"nonpayable"},{"type":"function","name":"setConfig","inputs":[{"name":"_token","type":"address","internalType":"address"},{"name":"_lp","type":"address","internalType":"address"},{"name":"_permit","type":"address","internalType":"address"}],"outputs":[],"stateMutability":"nonpayable"},{"type":"function","name":"staking","inputs":[{"name":"amountToken","type":"uint256","internalType":"uint256"}],"outputs":[],"stateMutability":"nonpayable"},{"type":"function","name":"token","inputs":[],"outputs":[{"name":"","type":"address","internalType":"address"}],"stateMutability":"view"},{"type":"function","name":"transferOwnership","inputs":[{"name":"newOwner","type":"address","internalType":"address"}],"outputs":[],"stateMutability":"nonpayable"},{"type":"function","name":"uniswapV2Factory","inputs":[],"outputs":[{"name":"","type":"address","internalType":"address"}],"stateMutability":"view"},{"type":"function","name":"uniswapV2Router","inputs":[],"outputs":[{"name":"","type":"address","internalType":"address"}],"stateMutability":"view"},{"type":"function","name":"upgradeToAndCall","inputs":[{"name":"newImplementation","type":"address","internalType":"address"},{"name":"data","type":"bytes","internalType":"bytes"}],"outputs":[],"stateMutability":"payable"},{"type":"event","name":"Claimed","inputs":[{"name":"mark","type":"string","indexed":false,"internalType":"string"},{"name":"recipient","type":"address","indexed":false,"internalType":"address"},{"name":"amount","type":"uint256","indexed":false,"internalType":"uint256"},{"name":"time","type":"uint256","indexed":false,"internalType":"uint256"}],"anonymous":false},{"type":"event","name":"EIP712DomainChanged","inputs":[],"anonymous":false},{"type":"event","name":"Initialized","inputs":[{"name":"version","type":"uint64","indexed":false,"internalType":"uint64"}],"anonymous":false},{"type":"event","name":"OwnershipTransferred","inputs":[{"name":"previousOwner","type":"address","indexed":true,"internalType":"address"},{"name":"newOwner","type":"address","indexed":true,"internalType":"address"}],"anonymous":false},{"type":"event","name":"Staked","inputs":[{"name":"staker","type":"address","indexed":false,"internalType":"address"},{"name":"amount","type":"uint256","indexed":false,"internalType":"uint256"},{"name":"time","type":"uint256","indexed":false,"internalType":"uint256"}],"anonymous":false},{"type":"event","name":"Upgraded","inputs":[{"name":"implementation","type":"address","indexed":true,"internalType":"address"}],"anonymous":false},{"type":"error","name":"AddressEmptyCode","inputs":[{"name":"target","type":"address","internalType":"address"}]},{"type":"error","name":"ECDSAInvalidSignature","inputs":[]},{"type":"error","name":"ECDSAInvalidSignatureLength","inputs":[{"name":"length","type":"uint256","internalType":"uint256"}]},{"type":"error","name":"ECDSAInvalidSignatureS","inputs":[{"name":"s","type":"bytes32","internalType":"bytes32"}]},{"type":"error","name":"ERC1967InvalidImplementation","inputs":[{"name":"implementation","type":"address","internalType":"address"}]},{"type":"error","name":"ERC1967NonPayable","inputs":[]},{"type":"error","name":"FailedCall","inputs":[]},{"type":"error","name":"InvalidInitialization","inputs":[]},{"type":"error","name":"NotInitializing","inputs":[]},{"type":"error","name":"OwnableInvalidOwner","inputs":[{"name":"owner","type":"address","internalType":"address"}]},{"type":"error","name":"OwnableUnauthorizedAccount","inputs":[{"name":"account","type":"address","internalType":"address"}]},{"type":"error","name":"ReentrancyGuardReentrantCall","inputs":[]},{"type":"error","name":"UUPSUnauthorizedCallContext","inputs":[]},{"type":"error","name":"UUPSUnsupportedProxiableUUID","inputs":[{"name":"slot","type":"bytes32","internalType":"bytes32"}]}],"bytecode":{"object":"0x60a0604052306080523480156012575f5ffd5b5060015f55608051612ac761003d5f395f8181611184015281816111ad01526114080152612ac75ff3fe608060405260043610610195575f3560e01c80635777e93d116100e7578063affed0e011610087578063c54e44eb11610062578063c54e44eb14610506578063e32c03c71461052d578063f2fde38b1461054c578063fc0c546a1461056b575f5ffd5b8063affed0e0146104b3578063b1060225146104c8578063c0c53b8b146104e7575f5ffd5b806384b0196e116100c257806384b0196e146103f45780638da5cb5b1461041b5780639c8f9f2314610457578063ad3cb1cc14610476575f5ffd5b80635777e93d1461039a57806359d0f713146103b9578063715018a6146103e0575f5ffd5b8063313c06a0116101525780634f1ef2861161012d5780634f1ef286146102ff5780634fb7726f1461031257806351c6590a1461034c57806352d1902d14610386575f5ffd5b8063313c06a0146102a25780633141e25b146102c15780634aa06652146102e0575f5ffd5b806303fd2a45146101995780630cb9b96a146101cb5780631694505e146101fa5780631dbb2a22146102215780632a75d5f4146102425780632f1d14cb1461026f575b5f5ffd5b3480156101a4575f5ffd5b506101ae61dead81565b6040516001600160a01b0390911681526020015b60405180910390f35b3480156101d6575f5ffd5b506101ea6101e5366004612379565b61058a565b60405190151581526020016101c2565b348015610205575f5ffd5b506101ae7310ed43c718714eb63d5aa57b78b54704e256024e81565b34801561022c575f5ffd5b5061024061023b36600461243c565b6105c9565b005b34801561024d575f5ffd5b5061026161025c36600461243c565b6106c1565b6040519081526020016101c2565b34801561027a575f5ffd5b506102617f401e12293d17637080047390ba6da57cad06bbf1eb753b40b6cc8a62145ea2c281565b3480156102ad575f5ffd5b506003546101ae906001600160a01b031681565b3480156102cc575f5ffd5b506102406102db366004612453565b6106f4565b3480156102eb575f5ffd5b506102616102fa36600461249b565b610780565b61024061030d3660046124d9565b6108a8565b34801561031d575f5ffd5b506101ea61032c366004612539565b805160208183018101805160018252928201919093012091525460ff1681565b348015610357575f5ffd5b5061036b61036636600461243c565b6108c7565b604080519384526020840192909252908201526060016101c2565b348015610391575f5ffd5b5061026161093b565b3480156103a5575f5ffd5b506004546101ae906001600160a01b031681565b3480156103c4575f5ffd5b506101ae73ca143ce32fe78f1f7019d7d551a6402fc5350c7381565b3480156103eb575f5ffd5b50610240610956565b3480156103ff575f5ffd5b50610408610969565b6040516101c29796959493929190612599565b348015610426575f5ffd5b507f9016d09d72d40fdae2fd8ceac6b6234c7706214fd39c1cd1e609a0528c199300546001600160a01b03166101ae565b348015610462575f5ffd5b5061024061047136600461243c565b610a12565b348015610481575f5ffd5b506104a6604051806040016040528060058152602001640352e302e360dc1b81525081565b6040516101c2919061262f565b3480156104be575f5ffd5b5061026160055481565b3480156104d3575f5ffd5b506102616104e2366004612379565b610b12565b3480156104f2575f5ffd5b50610240610501366004612453565b610bd1565b348015610511575f5ffd5b506101ae7355d398326f99059ff775485246999027b319795581565b348015610538575f5ffd5b50610240610547366004612379565b610d54565b348015610557575f5ffd5b50610240610566366004612641565b610f8a565b348015610576575f5ffd5b506002546101ae906001600160a01b031681565b5f5f61059583610b12565b90505f6105b0828560a001518660c001518760e00151610fc7565b6004546001600160a01b03918216911614949350505050565b6002545f906105f6906001600160a01b03167355d398326f99059ff775485246999027b319795584610780565b905068056bc75e2d631000008110156106645760405162461bcd60e51b815260206004820152602560248201527f4174206c65617374203130305553445420746f6b656e7320617265207265717560448201526434b932b21760d91b60648201526084015b60405180910390fd5b60025461067e906001600160a01b03163361dead85610ff3565b6040805133815260208101849052428183015290517f1449c6dd7851abc30abf37f57715f492010519147cc2652fbc38202c18a6ee909181900360600190a15050565b6002545f906106ee906001600160a01b03167355d398326f99059ff775485246999027b319795584610780565b92915050565b6106fc61111e565b6001600160a01b0383166107415760405162461bcd60e51b815260206004820152600c60248201526b5a65726f206164647265737360a01b604482015260640161065b565b600280546001600160a01b039485166001600160a01b031991821617909155600380549385169382169390931790925560048054919093169116179055565b6040805160028082526060820183525f928392919060208301908036833701905050905084815f815181106107b7576107b761265c565b60200260200101906001600160a01b031690816001600160a01b03168152505083816001815181106107eb576107eb61265c565b6001600160a01b039092166020928302919091019091015260405163d06ca61f60e01b81525f907310ed43c718714eb63d5aa57b78b54704e256024e9063d06ca61f9061083e9087908690600401612670565b5f60405180830381865afa158015610858573d5f5f3e3d5ffd5b505050506040513d5f823e601f3d908101601f1916820160405261087f91908101906126ba565b9050806001815181106108945761089461265c565b6020026020010151925050505b9392505050565b6108b0611179565b6108b98261121d565b6108c38282611225565b5050565b6002545f908190819081906108fa906001600160a01b03167355d398326f99059ff775485246999027b319795587610780565b60025490915061092d906001600160a01b03167355d398326f99059ff775485246999027b319795587845f8033426112e1565b919790965090945092505050565b5f6109446113fd565b505f516020612a725f395f51905f5290565b61095e61111e565b6109675f611446565b565b5f60608082808083815f516020612a525f395f51905f52805490915015801561099457506001810154155b6109d85760405162461bcd60e51b81526020600482015260156024820152741152540dcc4c8e88155b9a5b9a5d1a585b1a5e9959605a1b604482015260640161065b565b6109e06114b6565b6109e8611576565b604080515f80825260208201909252600f60f81b9c939b5091995046985030975095509350915050565b600354610a2a906001600160a01b0316333084610ff3565b600354610a55906001600160a01b03167310ed43c718714eb63d5aa57b78b54704e256024e836115b4565b600254604051635d5155ef60e11b81527355d398326f99059ff775485246999027b319795560048201526001600160a01b039091166024820152604481018290525f6064820181905260848201523360a48201524260c48201527310ed43c718714eb63d5aa57b78b54704e256024e9063baa2abde9060e40160408051808303815f875af1158015610ae9573d5f5f3e3d5ffd5b505050506040513d601f19601f82011682018060405250810190610b0d9190612766565b505050565b5f6106ee7f401e12293d17637080047390ba6da57cad06bbf1eb753b40b6cc8a62145ea2c2835f0151604051602001610b4b919061279f565b604051602081830303815290604052805190602001208460200151856040015186606001518760800151604051602001610bb69695949392919095865260208601949094526001600160a01b039290921660408501526060840152608083015260a082015260c00190565b6040516020818303038152906040528051906020012061169a565b5f610bda6116c6565b805490915060ff600160401b820416159067ffffffffffffffff165f81158015610c015750825b90505f8267ffffffffffffffff166001148015610c1d5750303b155b905081158015610c2b575080155b15610c495760405163f92ee8a960e01b815260040160405180910390fd5b845467ffffffffffffffff191660011785558315610c7357845460ff60401b1916600160401b1785555b610cb66040518060400160405280600881526020016726b4b734b733ab1960c11b815250604051806040016040528060018152602001603160f81b8152506116ee565b610cbf3361174d565b610cc7611755565b600280546001600160a01b03808b166001600160a01b031992831617909255600380548a841690831617905560048054928916929091169190911790558315610d4a57845460ff60401b19168555604051600181527fc7f505b2f371ae2175ee4913f4499e1f2633a7b5936321eed1cdaeb6115181d29060200160405180910390a15b5050505050505050565b600554816060015114610d985760405162461bcd60e51b815260206004820152600c60248201526b2737b731b29032b93937b91760a11b604482015260640161065b565b4281608001511015610dde5760405162461bcd60e51b815260206004820152600f60248201526e2232b0b23634b7329032b93937b91760891b604482015260640161065b565b8051604051600191610def9161279f565b9081526040519081900360200190205460ff1615610e3e5760405162461bcd60e51b815260206004820152600c60248201526b13585c9ac8195e18dd5d195960a21b604482015260640161065b565b610e478161058a565b610e8c5760405162461bcd60e51b815260206004820152601660248201527521b432b1b59039b4b3b730ba3ab9329032b93937b91760511b604482015260640161065b565b600254602082015160408084015190516340c10f1960e01b81526001600160a01b03928316600482015260248101919091529116906340c10f19906044015f604051808303815f87803b158015610ee1575f5ffd5b505af1158015610ef3573d5f5f3e3d5ffd5b50505050600180825f0151604051610f0b919061279f565b908152604051908190036020019020805491151560ff1990921691909117905560058054905f610f3a836127be565b91905055507fb560b68b858b38da022e769a634986c1eced94a3867ed159888c34fe7510cbf4815f01518260200151836040015142604051610f7f94939291906127d6565b60405180910390a150565b610f9261111e565b6001600160a01b038116610fbb57604051631e4fbdf760e01b81525f600482015260240161065b565b610fc481611446565b50565b5f5f5f5f610fd78888888861175d565b925092509250610fe78282611825565b50909695505050505050565b604080516001600160a01b0385811660248301528481166044830152606480830185905283518084039091018152608490920183526020820180516001600160e01b03166323b872dd60e01b17905291515f92839290881691611056919061279f565b5f604051808303815f865af19150503d805f811461108f576040519150601f19603f3d011682016040523d82523d5f602084013e611094565b606091505b50915091508180156110be5750805115806110be5750808060200190518101906110be919061280d565b6111165760405162461bcd60e51b8152602060048201526024808201527f5472616e7366657248656c7065723a205452414e534645525f46524f4d5f46416044820152631253115160e21b606482015260840161065b565b505050505050565b336111507f9016d09d72d40fdae2fd8ceac6b6234c7706214fd39c1cd1e609a0528c199300546001600160a01b031690565b6001600160a01b0316146109675760405163118cdaa760e01b815233600482015260240161065b565b306001600160a01b037f00000000000000000000000000000000000000000000000000000000000000001614806111ff57507f00000000000000000000000000000000000000000000000000000000000000006001600160a01b03166111f35f516020612a725f395f51905f52546001600160a01b031690565b6001600160a01b031614155b156109675760405163703e46dd60e11b815260040160405180910390fd5b610fc461111e565b816001600160a01b03166352d1902d6040518163ffffffff1660e01b8152600401602060405180830381865afa92505050801561127f575060408051601f3d908101601f1916820190925261127c9181019061282c565b60015b6112a757604051634c9c8ce360e01b81526001600160a01b038316600482015260240161065b565b5f516020612a725f395f51905f5281146112d757604051632a87526960e21b81526004810182905260240161065b565b610b0d83836118dd565b5f5f5f83428110156113355760405162461bcd60e51b815260206004820152601860248201527f556e69737761705632526f757465723a20455850495245440000000000000000604482015260640161065b565b6113438c8c8c8c8c8c611932565b90945092505f61136873ca143ce32fe78f1f7019d7d551a6402fc5350c738e8e611ba0565b90506113768d338388610ff3565b6113828c338387610ff3565b6040516335313c2160e11b81526001600160a01b038881166004830152821690636a627842906024016020604051808303815f875af11580156113c7573d5f5f3e3d5ffd5b505050506040513d601f19601f820116820180604052508101906113eb919061282c565b92505050985098509895505050505050565b306001600160a01b037f000000000000000000000000000000000000000000000000000000000000000016146109675760405163703e46dd60e11b815260040160405180910390fd5b7f9016d09d72d40fdae2fd8ceac6b6234c7706214fd39c1cd1e609a0528c19930080546001600160a01b031981166001600160a01b03848116918217845560405192169182907f8be0079c531659141344cd1fd0a4f28419497f9722a3daafe3b4186f6b6457e0905f90a3505050565b7fa16a46d94261c7517cc8ff89f61c0ce93598e3c849801011dee649a6a557d10280546060915f516020612a525f395f51905f52916114f490612843565b80601f016020809104026020016040519081016040528092919081815260200182805461152090612843565b801561156b5780601f106115425761010080835404028352916020019161156b565b820191905f5260205f20905b81548152906001019060200180831161154e57829003601f168201915b505050505091505090565b7fa16a46d94261c7517cc8ff89f61c0ce93598e3c849801011dee649a6a557d10380546060915f516020612a525f395f51905f52916114f490612843565b60405163095ea7b360e01b81526001600160a01b0383811660048301525f602483015284169063095ea7b3906044016020604051808303815f875af11580156115ff573d5f5f3e3d5ffd5b505050506040513d601f19601f82011682018060405250810190611623919061280d565b5060405163095ea7b360e01b81526001600160a01b0383811660048301526024820183905284169063095ea7b3906044016020604051808303815f875af1158015611670573d5f5f3e3d5ffd5b505050506040513d601f19601f82011682018060405250810190611694919061280d565b50505050565b5f6106ee6116a6611c76565b8360405161190160f01b8152600281019290925260228201526042902090565b5f807ff0c57e16840df040f15088dc2f81fe391c3923bec73e23a9662efc9c229c6a006106ee565b6116f6611c84565b5f516020612a525f395f51905f527fa16a46d94261c7517cc8ff89f61c0ce93598e3c849801011dee649a6a557d10261172f84826128c6565b506003810161173e83826128c6565b505f8082556001909101555050565b610f92611c84565b610967611c84565b5f80807f7fffffffffffffffffffffffffffffff5d576e7357a4501ddfe92f46681b20a084111561179657505f9150600390508261181b565b604080515f808252602082018084528a905260ff891692820192909252606081018790526080810186905260019060a0016020604051602081039080840390855afa1580156117e7573d5f5f3e3d5ffd5b5050604051601f1901519150506001600160a01b03811661181257505f92506001915082905061181b565b92505f91508190505b9450945094915050565b5f82600381111561183857611838612981565b03611841575050565b600182600381111561185557611855612981565b036118735760405163f645eedf60e01b815260040160405180910390fd5b600282600381111561188757611887612981565b036118a85760405163fce698f760e01b81526004810182905260240161065b565b60038260038111156118bc576118bc612981565b036108c3576040516335e2f38360e21b81526004810182905260240161065b565b6118e682611ca9565b6040516001600160a01b038316907fbc7cd75a20ee27fd9adebab32041f755214dbc6bffa90cc0225b39da2e5c2d3b905f90a280511561192a57610b0d8282611d0c565b6108c3611d7e565b60405163e6a4390560e01b81526001600160a01b038088166004830152861660248201525f908190819073ca143ce32fe78f1f7019d7d551a6402fc5350c739063e6a4390590604401602060405180830381865afa158015611996573d5f5f3e3d5ffd5b505050506040513d601f19601f820116820180604052508101906119ba9190612995565b6001600160a01b031603611a4d576040516364e329cb60e11b81526001600160a01b03808a1660048301528816602482015273ca143ce32fe78f1f7019d7d551a6402fc5350c739063c9c65396906044016020604051808303815f875af1158015611a27573d5f5f3e3d5ffd5b505050506040513d601f19601f82011682018060405250810190611a4b9190612995565b505b5f5f611a6e73ca143ce32fe78f1f7019d7d551a6402fc5350c738b8b611d9d565b91509150815f148015611a7f575080155b15611a8f57879350869250611b93565b5f611a9b898484611e62565b9050878111611b0e5785811015611b035760405162461bcd60e51b815260206004820152602660248201527f556e69737761705632526f757465723a20494e53554646494349454e545f425f604482015265105353d5539560d21b606482015260840161065b565b889450925082611b91565b5f611b1a898486611e62565b905089811115611b2c57611b2c6129b0565b87811015611b8b5760405162461bcd60e51b815260206004820152602660248201527f556e69737761705632526f757465723a20494e53554646494349454e545f415f604482015265105353d5539560d21b606482015260840161065b565b94508793505b505b5050965096945050505050565b5f5f5f611bad8585611f48565b6040516bffffffffffffffffffffffff19606084811b8216602084015283901b1660348201529193509150869060480160405160208183030381529060405280519060200120604051602001611c549291906001600160f81b0319815260609290921b6bffffffffffffffffffffffff1916600183015260158201527efb7f630766e6a796048ea87d01acd3068e8ff67d078148a3fa3f4a84f69bd5603582015260550190565b60408051601f1981840301815291905280516020909101209695505050505050565b5f611c7f61203e565b905090565b611c8c6120b1565b61096757604051631afcd79f60e31b815260040160405180910390fd5b806001600160a01b03163b5f03611cde57604051634c9c8ce360e01b81526001600160a01b038216600482015260240161065b565b5f516020612a725f395f51905f5280546001600160a01b0319166001600160a01b0392909216919091179055565b60605f5f846001600160a01b031684604051611d28919061279f565b5f60405180830381855af49150503d805f8114611d60576040519150601f19603f3d011682016040523d82523d5f602084013e611d65565b606091505b5091509150611d758583836120ca565b95945050505050565b34156109675760405163b398979f60e01b815260040160405180910390fd5b5f5f5f611daa8585611f48565b5090505f5f611dba888888611ba0565b6001600160a01b0316630902f1ac6040518163ffffffff1660e01b8152600401606060405180830381865afa158015611df5573d5f5f3e3d5ffd5b505050506040513d601f19601f82011682018060405250810190611e1991906129da565b506001600160701b031691506001600160701b03169150826001600160a01b0316876001600160a01b031614611e50578082611e53565b81815b90999098509650505050505050565b5f5f8411611ec05760405162461bcd60e51b815260206004820152602560248201527f556e697377617056324c6962726172793a20494e53554646494349454e545f416044820152641353d5539560da1b606482015260840161065b565b5f83118015611ece57505f82115b611f2b5760405162461bcd60e51b815260206004820152602860248201527f556e697377617056324c6962726172793a20494e53554646494349454e545f4c604482015267495155494449545960c01b606482015260840161065b565b82611f368584612126565b611f409190612a1b565b949350505050565b5f5f826001600160a01b0316846001600160a01b031603611fb95760405162461bcd60e51b815260206004820152602560248201527f556e697377617056324c6962726172793a204944454e544943414c5f41444452604482015264455353455360d81b606482015260840161065b565b826001600160a01b0316846001600160a01b031610611fd9578284611fdc565b83835b90925090506001600160a01b0382166120375760405162461bcd60e51b815260206004820152601e60248201527f556e697377617056324c6962726172793a205a45524f5f414444524553530000604482015260640161065b565b9250929050565b5f7f8b73c3c69bb8fe3d512ecc4cf759cc79239f7b179b0ffacaa9a75d522b39400f61206861218c565b6120706121f4565b60408051602081019490945283019190915260608201524660808201523060a082015260c00160405160208183030381529060405280519060200120905090565b5f6120ba6116c6565b54600160401b900460ff16919050565b6060826120df576120da82612236565b6108a1565b81511580156120f657506001600160a01b0384163b155b1561211f57604051639996b31560e01b81526001600160a01b038516600482015260240161065b565b50806108a1565b5f8115806121495750828261213b8183612a3a565b92506121479083612a1b565b145b6106ee5760405162461bcd60e51b815260206004820152601460248201527364732d6d6174682d6d756c2d6f766572666c6f7760601b604482015260640161065b565b5f5f516020612a525f395f51905f52816121a46114b6565b8051909150156121bc57805160209091012092915050565b815480156121cb579392505050565b7fc5d2460186f7233c927e7db2dcc703c0e500b653ca82273b7bfad8045d85a470935050505090565b5f5f516020612a525f395f51905f528161220c611576565b80519091501561222457805160209091012092915050565b600182015480156121cb579392505050565b8051156122465780518082602001fd5b60405163d6bda27560e01b815260040160405180910390fd5b634e487b7160e01b5f52604160045260245ffd5b604051610100810167ffffffffffffffff811182821017156122975761229761225f565b60405290565b604051601f8201601f1916810167ffffffffffffffff811182821017156122c6576122c661225f565b604052919050565b5f5f67ffffffffffffffff8411156122e8576122e861225f565b50601f8301601f19166020016122fd8161229d565b915050828152838383011115612311575f5ffd5b828260208301375f602084830101529392505050565b5f82601f830112612336575f5ffd5b6108a1838335602085016122ce565b6001600160a01b0381168114610fc4575f5ffd5b803561236481612345565b919050565b803560ff81168114612364575f5ffd5b5f60208284031215612389575f5ffd5b813567ffffffffffffffff81111561239f575f5ffd5b820161010081850312156123b1575f5ffd5b6123b9612273565b813567ffffffffffffffff8111156123cf575f5ffd5b6123db86828501612327565b8252506123ea60208301612359565b602082015260408281013590820152606080830135908201526080808301359082015261241960a08301612369565b60a082015260c0828101359082015260e091820135918101919091529392505050565b5f6020828403121561244c575f5ffd5b5035919050565b5f5f5f60608486031215612465575f5ffd5b833561247081612345565b9250602084013561248081612345565b9150604084013561249081612345565b809150509250925092565b5f5f5f606084860312156124ad575f5ffd5b83356124b881612345565b925060208401356124c881612345565b929592945050506040919091013590565b5f5f604083850312156124ea575f5ffd5b82356124f581612345565b9150602083013567ffffffffffffffff811115612510575f5ffd5b8301601f81018513612520575f5ffd5b61252f858235602084016122ce565b9150509250929050565b5f60208284031215612549575f5ffd5b813567ffffffffffffffff81111561255f575f5ffd5b611f4084828501612327565b5f81518084528060208401602086015e5f602082860101526020601f19601f83011685010191505092915050565b60ff60f81b8816815260e060208201525f6125b760e083018961256b565b82810360408401526125c9818961256b565b606084018890526001600160a01b038716608085015260a0840186905283810360c0850152845180825260208087019350909101905f5b8181101561261e578351835260209384019390920191600101612600565b50909b9a5050505050505050505050565b602081525f6108a1602083018461256b565b5f60208284031215612651575f5ffd5b81356108a181612345565b634e487b7160e01b5f52603260045260245ffd5b5f60408201848352604060208401528084518083526060850191506020860192505f5b81811015610fe75783516001600160a01b0316835260209384019390920191600101612693565b5f602082840312156126ca575f5ffd5b815167ffffffffffffffff8111156126e0575f5ffd5b8201601f810184136126f0575f5ffd5b805167ffffffffffffffff81111561270a5761270a61225f565b8060051b61271a6020820161229d565b91825260208184018101929081019087841115612735575f5ffd5b6020850194505b8385101561275b5784518083526020958601959093509091019061273c565b979650505050505050565b5f5f60408385031215612777575f5ffd5b505080516020909101519092909150565b5f81518060208401855e5f93019283525090919050565b5f6108a18284612788565b634e487b7160e01b5f52601160045260245ffd5b5f600182016127cf576127cf6127aa565b5060010190565b608081525f6127e8608083018761256b565b6001600160a01b03959095166020830152506040810192909252606090910152919050565b5f6020828403121561281d575f5ffd5b815180151581146108a1575f5ffd5b5f6020828403121561283c575f5ffd5b5051919050565b600181811c9082168061285757607f821691505b60208210810361287557634e487b7160e01b5f52602260045260245ffd5b50919050565b601f821115610b0d57805f5260205f20601f840160051c810160208510156128a05750805b601f840160051c820191505b818110156128bf575f81556001016128ac565b5050505050565b815167ffffffffffffffff8111156128e0576128e061225f565b6128f4816128ee8454612843565b8461287b565b6020601f821160018114612926575f831561290f5750848201515b5f19600385901b1c1916600184901b1784556128bf565b5f84815260208120601f198516915b828110156129555787850151825560209485019460019092019101612935565b508482101561297257868401515f19600387901b60f8161c191681555b50505050600190811b01905550565b634e487b7160e01b5f52602160045260245ffd5b5f602082840312156129a5575f5ffd5b81516108a181612345565b634e487b7160e01b5f52600160045260245ffd5b80516001600160701b0381168114612364575f5ffd5b5f5f5f606084860312156129ec575f5ffd5b6129f5846129c4565b9250612a03602085016129c4565b9150604084015163ffffffff81168114612490575f5ffd5b5f82612a3557634e487b7160e01b5f52601260045260245ffd5b500490565b80820281158282048414176106ee576106ee6127aa56fea16a46d94261c7517cc8ff89f61c0ce93598e3c849801011dee649a6a557d100360894a13ba1a3210667c828492db98dca3e2076cc3735a920a3ca505d382bbca2646970667358221220604b869fd998267f103da3e5c280bb6eee72d538abe35cee54e0c6f6fe8f015264736f6c634300081c0033","linkReferences":{}},"methodIdentifiers":{"DEAD()":"03fd2a45","SIGN_TYPEHASH()":"2f1d14cb","UPGRADE_INTERFACE_VERSION()":"ad3cb1cc","USDT()":"c54e44eb","addLiquidity(uint256)":"51c6590a","checkerSignMsgSignature((string,address,uint256,uint256,uint256,uint8,bytes32,bytes32))":"0cb9b96a","claim((string,address,uint256,uint256,uint256,uint8,bytes32,bytes32))":"e32c03c7","eip712Domain()":"84b0196e","getAmountOut(address,address,uint256)":"4aa06652","getQuoteAmount(uint256)":"2a75d5f4","getSignMsgHash((string,address,uint256,uint256,uint256,uint8,bytes32,bytes32))":"b1060225","initialize(address,address,address)":"c0c53b8b","isExcuted(string)":"4fb7726f","lp()":"313c06a0","nonce()":"affed0e0","owner()":"8da5cb5b","permit()":"5777e93d","proxiableUUID()":"52d1902d","removeLiquidity(uint256)":"9c8f9f23","renounceOwnership()":"715018a6","setConfig(address,address,address)":"3141e25b","staking(uint256)":"1dbb2a22","token()":"fc0c546a","transferOwnership(address)":"f2fde38b","uniswapV2Factory()":"59d0f713","uniswapV2Router()":"1694505e","upgradeToAndCall(address,bytes)":"4f1ef286"},"id":40}