{"abi":[{"type":"function","name":"DEAD","inputs":[],"outputs":[{"name":"","type":"address","internalType":"address"}],"stateMutability":"view"},{"type":"function","name":"SIGN_TYPEHASH","inputs":[],"outputs":[{"name":"","type":"bytes32","internalType":"bytes32"}],"stateMutability":"view"},{"type":"function","name":"UPGRADE_INTERFACE_VERSION","inputs":[],"outputs":[{"name":"","type":"string","internalType":"string"}],"stateMutability":"view"},{"type":"function","name":"USDT","inputs":[],"outputs":[{"name":"","type":"address","internalType":"address"}],"stateMutability":"view"},{"type":"function","name":"addLiquidity","inputs":[{"name":"amountToken","type":"uint256","internalType":"uint256"}],"outputs":[{"name":"_amountToken","type":"uint256","internalType":"uint256"},{"name":"_amountUsdt","type":"uint256","internalType":"uint256"},{"name":"_liquidityAmount","type":"uint256","internalType":"uint256"}],"stateMutability":"nonpayable"},{"type":"function","name":"checkerSignMsgSignature","inputs":[{"name":"_msg","type":"tuple","internalType":"struct SignatureInfo.SignMessage","components":[{"name":"mark","type":"string","internalType":"string"},{"name":"recipient","type":"address","internalType":"address"},{"name":"amount","type":"uint256","internalType":"uint256"},{"name":"nonce","type":"uint256","internalType":"uint256"},{"name":"deadline","type":"uint256","internalType":"uint256"},{"name":"v","type":"uint8","internalType":"uint8"},{"name":"r","type":"bytes32","internalType":"bytes32"},{"name":"s","type":"bytes32","internalType":"bytes32"}]}],"outputs":[{"name":"","type":"bool","internalType":"bool"}],"stateMutability":"view"},{"type":"function","name":"claim","inputs":[{"name":"_msg","type":"tuple","internalType":"struct SignatureInfo.SignMessage","components":[{"name":"mark","type":"string","internalType":"string"},{"name":"recipient","type":"address","internalType":"address"},{"name":"amount","type":"uint256","internalType":"uint256"},{"name":"nonce","type":"uint256","internalType":"uint256"},{"name":"deadline","type":"uint256","internalType":"uint256"},{"name":"v","type":"uint8","internalType":"uint8"},{"name":"r","type":"bytes32","internalType":"bytes32"},{"name":"s","type":"bytes32","internalType":"bytes32"}]}],"outputs":[],"stateMutability":"nonpayable"},{"type":"function","name":"eip712Domain","inputs":[],"outputs":[{"name":"fields","type":"bytes1","internalType":"bytes1"},{"name":"name","type":"string","internalType":"string"},{"name":"version","type":"string","internalType":"string"},{"name":"chainId","type":"uint256","internalType":"uint256"},{"name":"verifyingContract","type":"address","internalType":"address"},{"name":"salt","type":"bytes32","internalType":"bytes32"},{"name":"extensions","type":"uint256[]","internalType":"uint256[]"}],"stateMutability":"view"},{"type":"function","name":"getAmountOut","inputs":[{"name":"token0","type":"address","internalType":"address"},{"name":"token1","type":"address","internalType":"address"},{"name":"token0Amount","type":"uint256","internalType":"uint256"}],"outputs":[{"name":"","type":"uint256","internalType":"uint256"}],"stateMutability":"view"},{"type":"function","name":"getQuoteAmount","inputs":[{"name":"amountToken","type":"uint256","internalType":"uint256"}],"outputs":[{"name":"amountUsdt","type":"uint256","internalType":"uint256"}],"stateMutability":"view"},{"type":"function","name":"getSignMsgHash","inputs":[{"name":"_msg","type":"tuple","internalType":"struct SignatureInfo.SignMessage","components":[{"name":"mark","type":"string","internalType":"string"},{"name":"recipient","type":"address","internalType":"address"},{"name":"amount","type":"uint256","internalType":"uint256"},{"name":"nonce","type":"uint256","internalType":"uint256"},{"name":"deadline","type":"uint256","internalType":"uint256"},{"name":"v","type":"uint8","internalType":"uint8"},{"name":"r","type":"bytes32","internalType":"bytes32"},{"name":"s","type":"bytes32","internalType":"bytes32"}]}],"outputs":[{"name":"","type":"bytes32","internalType":"bytes32"}],"stateMutability":"view"},{"type":"function","name":"initialize","inputs":[{"name":"_token","type":"address","internalType":"address"},{"name":"_lp","type":"address","internalType":"address"},{"name":"_permit","type":"address","internalType":"address"}],"outputs":[],"stateMutability":"nonpayable"},{"type":"function","name":"isExcuted","inputs":[{"name":"","type":"string","internalType":"string"}],"outputs":[{"name":"","type":"bool","internalType":"bool"}],"stateMutability":"view"},{"type":"function","name":"liquidityAmount","inputs":[{"name":"","type":"address","internalType":"address"}],"outputs":[{"name":"","type":"uint256","internalType":"uint256"}],"stateMutability":"view"},{"type":"function","name":"lp","inputs":[],"outputs":[{"name":"","type":"address","internalType":"address"}],"stateMutability":"view"},{"type":"function","name":"nonce","inputs":[],"outputs":[{"name":"","type":"uint256","internalType":"uint256"}],"stateMutability":"view"},{"type":"function","name":"owner","inputs":[],"outputs":[{"name":"","type":"address","internalType":"address"}],"stateMutability":"view"},{"type":"function","name":"permit","inputs":[],"outputs":[{"name":"","type":"address","internalType":"address"}],"stateMutability":"view"},{"type":"function","name":"proxiableUUID","inputs":[],"outputs":[{"name":"","type":"bytes32","internalType":"bytes32"}],"stateMutability":"view"},{"type":"function","name":"raisefunds","inputs":[{"name":"amountUsdt","type":"uint256","internalType":"uint256"}],"outputs":[],"stateMutability":"nonpayable"},{"type":"function","name":"removeLiquidity","inputs":[{"name":"_liquidity","type":"uint256","internalType":"uint256"}],"outputs":[],"stateMutability":"nonpayable"},{"type":"function","name":"renounceOwnership","inputs":[],"outputs":[],"stateMutability":"nonpayable"},{"type":"function","name":"setConfig","inputs":[{"name":"_token","type":"address","internalType":"address"},{"name":"_lp","type":"address","internalType":"address"}],"outputs":[],"stateMutability":"nonpayable"},{"type":"function","name":"staking","inputs":[{"name":"amountToken","type":"uint256","internalType":"uint256"}],"outputs":[],"stateMutability":"nonpayable"},{"type":"function","name":"token","inputs":[],"outputs":[{"name":"","type":"address","internalType":"address"}],"stateMutability":"view"},{"type":"function","name":"transferOwnership","inputs":[{"name":"newOwner","type":"address","internalType":"address"}],"outputs":[],"stateMutability":"nonpayable"},{"type":"function","name":"uniswapV2Factory","inputs":[],"outputs":[{"name":"","type":"address","internalType":"address"}],"stateMutability":"view"},{"type":"function","name":"uniswapV2Router","inputs":[],"outputs":[{"name":"","type":"address","internalType":"address"}],"stateMutability":"view"},{"type":"function","name":"upgradeToAndCall","inputs":[{"name":"newImplementation","type":"address","internalType":"address"},{"name":"data","type":"bytes","internalType":"bytes"}],"outputs":[],"stateMutability":"payable"},{"type":"event","name":"Claimed","inputs":[{"name":"mark","type":"string","indexed":false,"internalType":"string"},{"name":"recipient","type":"address","indexed":false,"internalType":"address"},{"name":"amount","type":"uint256","indexed":false,"internalType":"uint256"},{"name":"time","type":"uint256","indexed":false,"internalType":"uint256"}],"anonymous":false},{"type":"event","name":"EIP712DomainChanged","inputs":[],"anonymous":false},{"type":"event","name":"Initialized","inputs":[{"name":"version","type":"uint64","indexed":false,"internalType":"uint64"}],"anonymous":false},{"type":"event","name":"OwnershipTransferred","inputs":[{"name":"previousOwner","type":"address","indexed":true,"internalType":"address"},{"name":"newOwner","type":"address","indexed":true,"internalType":"address"}],"anonymous":false},{"type":"event","name":"Staked","inputs":[{"name":"staker","type":"address","indexed":false,"internalType":"address"},{"name":"amount","type":"uint256","indexed":false,"internalType":"uint256"},{"name":"time","type":"uint256","indexed":false,"internalType":"uint256"}],"anonymous":false},{"type":"event","name":"Upgraded","inputs":[{"name":"implementation","type":"address","indexed":true,"internalType":"address"}],"anonymous":false},{"type":"error","name":"AddressEmptyCode","inputs":[{"name":"target","type":"address","internalType":"address"}]},{"type":"error","name":"ECDSAInvalidSignature","inputs":[]},{"type":"error","name":"ECDSAInvalidSignatureLength","inputs":[{"name":"length","type":"uint256","internalType":"uint256"}]},{"type":"error","name":"ECDSAInvalidSignatureS","inputs":[{"name":"s","type":"bytes32","internalType":"bytes32"}]},{"type":"error","name":"ERC1967InvalidImplementation","inputs":[{"name":"implementation","type":"address","internalType":"address"}]},{"type":"error","name":"ERC1967NonPayable","inputs":[]},{"type":"error","name":"FailedCall","inputs":[]},{"type":"error","name":"InvalidInitialization","inputs":[]},{"type":"error","name":"NotInitializing","inputs":[]},{"type":"error","name":"OwnableInvalidOwner","inputs":[{"name":"owner","type":"address","internalType":"address"}]},{"type":"error","name":"OwnableUnauthorizedAccount","inputs":[{"name":"account","type":"address","internalType":"address"}]},{"type":"error","name":"ReentrancyGuardReentrantCall","inputs":[]},{"type":"error","name":"UUPSUnauthorizedCallContext","inputs":[]},{"type":"error","name":"UUPSUnsupportedProxiableUUID","inputs":[{"name":"slot","type":"bytes32","internalType":"bytes32"}]}],"bytecode":{"object":"0x60a0604052306080523480156012575f5ffd5b5060015f55608051612e4c61003d5f395f81816112fe0152818161132701526115820152612e4c5ff3fe6080604052600436106101ba575f3560e01c806359d0f713116100f2578063affed0e011610092578063c54e44eb11610062578063c54e44eb14610575578063e32c03c714610595578063f2fde38b146105b4578063fc0c546a146105d3575f5ffd5b8063affed0e014610503578063b106022514610518578063b602024b14610537578063c0c53b8b14610556575f5ffd5b806384b0196e116100cd57806384b0196e146104445780638da5cb5b1461046b5780639c8f9f23146104a7578063ad3cb1cc146104c6575f5ffd5b806359d0f713146103ea578063715018a6146104115780638056565514610425575f5ffd5b806335e344f21161015d5780634fb7726f116101385780634fb7726f1461034357806351c6590a1461037d57806352d1902d146103b75780635777e93d146103cb575f5ffd5b806335e344f2146102e65780634aa06652146103115780634f1ef28614610330575f5ffd5b80631dbb2a22116101985780631dbb2a22146102465780632a75d5f4146102675780632f1d14cb14610294578063313c06a0146102c7575f5ffd5b806303fd2a45146101be5780630cb9b96a146101f05780631694505e1461021f575b5f5ffd5b3480156101c9575f5ffd5b506101d361dead81565b6040516001600160a01b0390911681526020015b60405180910390f35b3480156101fb575f5ffd5b5061020f61020a36600461265d565b6105f2565b60405190151581526020016101e7565b34801561022a575f5ffd5b506101d37310ed43c718714eb63d5aa57b78b54704e256024e81565b348015610251575f5ffd5b50610265610260366004612720565b610631565b005b348015610272575f5ffd5b50610286610281366004612720565b610692565b6040519081526020016101e7565b34801561029f575f5ffd5b506102867f401e12293d17637080047390ba6da57cad06bbf1eb753b40b6cc8a62145ea2c281565b3480156102d2575f5ffd5b506004546101d3906001600160a01b031681565b3480156102f1575f5ffd5b50610286610300366004612737565b60026020525f908152604090205481565b34801561031c575f5ffd5b5061028661032b366004612752565b6106be565b61026561033e366004612790565b6107e6565b34801561034e575f5ffd5b5061020f61035d3660046127f0565b805160208183018101805160018252928201919093012091525460ff1681565b348015610388575f5ffd5b5061039c610397366004612720565b610805565b604080519384526020840192909252908201526060016101e7565b3480156103c2575f5ffd5b5061028661086b565b3480156103d6575f5ffd5b506005546101d3906001600160a01b031681565b3480156103f5575f5ffd5b506101d373ca143ce32fe78f1f7019d7d551a6402fc5350c7381565b34801561041c575f5ffd5b50610265610886565b348015610430575f5ffd5b5061026561043f366004612720565b610899565b34801561044f575f5ffd5b50610458610ad0565b6040516101e79796959493929190612850565b348015610476575f5ffd5b507f9016d09d72d40fdae2fd8ceac6b6234c7706214fd39c1cd1e609a0528c199300546001600160a01b03166101d3565b3480156104b2575f5ffd5b506102656104c1366004612720565b610b7e565b3480156104d1575f5ffd5b506104f6604051806040016040528060058152602001640352e302e360dc1b81525081565b6040516101e791906128e6565b34801561050e575f5ffd5b5061028660065481565b348015610523575f5ffd5b5061028661053236600461265d565b610c77565b348015610542575f5ffd5b506102656105513660046128f8565b610d36565b348015610561575f5ffd5b5061026561057036600461292f565b610db1565b348015610580575f5ffd5b506101d35f516020612df75f395f51905f5281565b3480156105a0575f5ffd5b506102656105af36600461265d565b610f34565b3480156105bf575f5ffd5b506102656105ce366004612737565b61115f565b3480156105de575f5ffd5b506003546101d3906001600160a01b031681565b5f5f6105fd83610c77565b90505f610618828560a001518660c001518760e0015161119c565b6005546001600160a01b03918216911614949350505050565b60035461064b906001600160a01b03163361dead846111c8565b604080513381526020810183905242918101919091527f1449c6dd7851abc30abf37f57715f492010519147cc2652fbc38202c18a6ee90906060015b60405180910390a150565b6003545f906106b8906001600160a01b03165f516020612df75f395f51905f52846106be565b92915050565b6040805160028082526060820183525f928392919060208301908036833701905050905084815f815181106106f5576106f5612977565b60200260200101906001600160a01b031690816001600160a01b031681525050838160018151811061072957610729612977565b6001600160a01b039092166020928302919091019091015260405163d06ca61f60e01b81525f907310ed43c718714eb63d5aa57b78b54704e256024e9063d06ca61f9061077c908790869060040161298b565b5f60405180830381865afa158015610796573d5f5f3e3d5ffd5b505050506040513d5f823e601f3d908101601f191682016040526107bd91908101906129d5565b9050806001815181106107d2576107d2612977565b6020026020010151925050505b9392505050565b6107ee6112f3565b6107f782611397565b610801828261139f565b5050565b6003545f90819081908190610831906001600160a01b03165f516020612df75f395f51905f52876106be565b60035490915061085d906001600160a01b03165f516020612df75f395f51905f5287845f80334261145b565b919790965090945092505050565b5f610874611577565b505f516020612dd75f395f51905f5290565b61088e6115c0565b6108975f61161b565b565b6108b25f516020612df75f395f51905f523330846111c8565b6003545f906108d9905f516020612df75f395f51905f52906001600160a01b0316846106be565b6003546040516340c10f1960e01b8152306004820152602481018390529192506001600160a01b0316906340c10f19906044015f604051808303815f87803b158015610923575f5ffd5b505af1158015610935573d5f5f3e3d5ffd5b505050506109655f516020612df75f395f51905f527310ed43c718714eb63d5aa57b78b54704e256024e8461168b565b600354610990906001600160a01b03167310ed43c718714eb63d5aa57b78b54704e256024e8361168b565b60035460405162e8e33760e81b81526001600160a01b0390911660048201525f516020612df75f395f51905f52602482015260448101829052606481018390525f6084820181905260a482018190523060c48301524260e483015290819081907310ed43c718714eb63d5aa57b78b54704e256024e9063e8e3370090610104016060604051808303815f875af1158015610a2c573d5f5f3e3d5ffd5b505050506040513d601f19601f82011682018060405250810190610a509190612a81565b335f90815260026020526040812080549497509295509093508392610a76908490612ac0565b909155505081851115610aa457610aa45f516020612df75f395f51905f5233610a9f8589612ad3565b611771565b82841115610ac957600354610ac9906001600160a01b031661dead610a9f8688612ad3565b5050505050565b5f60608082808083815f516020612db75f395f51905f528054909150158015610afb57506001810154155b610b445760405162461bcd60e51b81526020600482015260156024820152741152540dcc4c8e88155b9a5b9a5d1a585b1a5e9959605a1b60448201526064015b60405180910390fd5b610b4c611880565b610b54611940565b604080515f80825260208201909252600f60f81b9c939b5091995046985030975095509350915050565b600454610b96906001600160a01b03163330846111c8565b600454610bc1906001600160a01b03167310ed43c718714eb63d5aa57b78b54704e256024e8361168b565b600354604051635d5155ef60e11b81525f516020612df75f395f51905f5260048201526001600160a01b039091166024820152604481018290525f6064820181905260848201523360a48201524260c48201527310ed43c718714eb63d5aa57b78b54704e256024e9063baa2abde9060e40160408051808303815f875af1158015610c4e573d5f5f3e3d5ffd5b505050506040513d601f19601f82011682018060405250810190610c729190612ae6565b505050565b5f6106b87f401e12293d17637080047390ba6da57cad06bbf1eb753b40b6cc8a62145ea2c2835f0151604051602001610cb09190612b1f565b604051602081830303815290604052805190602001208460200151856040015186606001518760800151604051602001610d1b9695949392919095865260208601949094526001600160a01b039290921660408501526060840152608083015260a082015260c00190565b6040516020818303038152906040528051906020012061197e565b610d3e6115c0565b6001600160a01b038216610d835760405162461bcd60e51b815260206004820152600c60248201526b5a65726f206164647265737360a01b6044820152606401610b3b565b600380546001600160a01b039384166001600160a01b03199182161790915560048054929093169116179055565b5f610dba6119aa565b805490915060ff600160401b820416159067ffffffffffffffff165f81158015610de15750825b90505f8267ffffffffffffffff166001148015610dfd5750303b155b905081158015610e0b575080155b15610e295760405163f92ee8a960e01b815260040160405180910390fd5b845467ffffffffffffffff191660011785558315610e5357845460ff60401b1916600160401b1785555b610e966040518060400160405280600881526020016726b4b734b733ab1960c11b815250604051806040016040528060018152602001603160f81b8152506119d2565b610e9f33611a31565b610ea7611a39565b600380546001600160a01b03808b166001600160a01b031992831617909255600480548a841690831617905560058054928916929091169190911790558315610f2a57845460ff60401b19168555604051600181527fc7f505b2f371ae2175ee4913f4499e1f2633a7b5936321eed1cdaeb6115181d29060200160405180910390a15b5050505050505050565b600654816060015114610f785760405162461bcd60e51b815260206004820152600c60248201526b2737b731b29032b93937b91760a11b6044820152606401610b3b565b4281608001511015610fbe5760405162461bcd60e51b815260206004820152600f60248201526e2232b0b23634b7329032b93937b91760891b6044820152606401610b3b565b8051604051600191610fcf91612b1f565b9081526040519081900360200190205460ff161561101e5760405162461bcd60e51b815260206004820152600c60248201526b13585c9ac8195e18dd5d195960a21b6044820152606401610b3b565b611027816105f2565b61106c5760405162461bcd60e51b815260206004820152601660248201527521b432b1b59039b4b3b730ba3ab9329032b93937b91760511b6044820152606401610b3b565b600354602082015160408084015190516340c10f1960e01b81526001600160a01b03928316600482015260248101919091529116906340c10f19906044015f604051808303815f87803b1580156110c1575f5ffd5b505af11580156110d3573d5f5f3e3d5ffd5b50505050600180825f01516040516110eb9190612b1f565b908152604051908190036020019020805491151560ff1990921691909117905560068054905f61111a83612b2a565b91905055507fb560b68b858b38da022e769a634986c1eced94a3867ed159888c34fe7510cbf4815f015182602001518360400151426040516106879493929190612b42565b6111676115c0565b6001600160a01b03811661119057604051631e4fbdf760e01b81525f6004820152602401610b3b565b6111998161161b565b50565b5f5f5f5f6111ac88888888611a41565b9250925092506111bc8282611b09565b50909695505050505050565b604080516001600160a01b0385811660248301528481166044830152606480830185905283518084039091018152608490920183526020820180516001600160e01b03166323b872dd60e01b17905291515f9283929088169161122b9190612b1f565b5f604051808303815f865af19150503d805f8114611264576040519150601f19603f3d011682016040523d82523d5f602084013e611269565b606091505b50915091508180156112935750805115806112935750808060200190518101906112939190612b79565b6112eb5760405162461bcd60e51b8152602060048201526024808201527f5472616e7366657248656c7065723a205452414e534645525f46524f4d5f46416044820152631253115160e21b6064820152608401610b3b565b505050505050565b306001600160a01b037f000000000000000000000000000000000000000000000000000000000000000016148061137957507f00000000000000000000000000000000000000000000000000000000000000006001600160a01b031661136d5f516020612dd75f395f51905f52546001600160a01b031690565b6001600160a01b031614155b156108975760405163703e46dd60e11b815260040160405180910390fd5b6111996115c0565b816001600160a01b03166352d1902d6040518163ffffffff1660e01b8152600401602060405180830381865afa9250505080156113f9575060408051601f3d908101601f191682019092526113f691810190612b98565b60015b61142157604051634c9c8ce360e01b81526001600160a01b0383166004820152602401610b3b565b5f516020612dd75f395f51905f52811461145157604051632a87526960e21b815260048101829052602401610b3b565b610c728383611bc1565b5f5f5f83428110156114af5760405162461bcd60e51b815260206004820152601860248201527f556e69737761705632526f757465723a204558504952454400000000000000006044820152606401610b3b565b6114bd8c8c8c8c8c8c611c16565b90945092505f6114e273ca143ce32fe78f1f7019d7d551a6402fc5350c738e8e611e84565b90506114f08d3383886111c8565b6114fc8c3383876111c8565b6040516335313c2160e11b81526001600160a01b038881166004830152821690636a627842906024016020604051808303815f875af1158015611541573d5f5f3e3d5ffd5b505050506040513d601f19601f820116820180604052508101906115659190612b98565b92505050985098509895505050505050565b306001600160a01b037f000000000000000000000000000000000000000000000000000000000000000016146108975760405163703e46dd60e11b815260040160405180910390fd5b336115f27f9016d09d72d40fdae2fd8ceac6b6234c7706214fd39c1cd1e609a0528c199300546001600160a01b031690565b6001600160a01b0316146108975760405163118cdaa760e01b8152336004820152602401610b3b565b7f9016d09d72d40fdae2fd8ceac6b6234c7706214fd39c1cd1e609a0528c19930080546001600160a01b031981166001600160a01b03848116918217845560405192169182907f8be0079c531659141344cd1fd0a4f28419497f9722a3daafe3b4186f6b6457e0905f90a3505050565b60405163095ea7b360e01b81526001600160a01b0383811660048301525f602483015284169063095ea7b3906044016020604051808303815f875af11580156116d6573d5f5f3e3d5ffd5b505050506040513d601f19601f820116820180604052508101906116fa9190612b79565b5060405163095ea7b360e01b81526001600160a01b0383811660048301526024820183905284169063095ea7b3906044016020604051808303815f875af1158015611747573d5f5f3e3d5ffd5b505050506040513d601f19601f8201168201806040525081019061176b9190612b79565b50505050565b604080516001600160a01b038481166024830152604480830185905283518084039091018152606490920183526020820180516001600160e01b031663a9059cbb60e01b17905291515f928392908716916117cc9190612b1f565b5f604051808303815f865af19150503d805f8114611805576040519150601f19603f3d011682016040523d82523d5f602084013e61180a565b606091505b50915091508180156118345750805115806118345750808060200190518101906118349190612b79565b610ac95760405162461bcd60e51b815260206004820152601f60248201527f5472616e7366657248656c7065723a205452414e534645525f4641494c4544006044820152606401610b3b565b7fa16a46d94261c7517cc8ff89f61c0ce93598e3c849801011dee649a6a557d10280546060915f516020612db75f395f51905f52916118be90612baf565b80601f01602080910402602001604051908101604052809291908181526020018280546118ea90612baf565b80156119355780601f1061190c57610100808354040283529160200191611935565b820191905f5260205f20905b81548152906001019060200180831161191857829003601f168201915b505050505091505090565b7fa16a46d94261c7517cc8ff89f61c0ce93598e3c849801011dee649a6a557d10380546060915f516020612db75f395f51905f52916118be90612baf565b5f6106b861198a611f5a565b8360405161190160f01b8152600281019290925260228201526042902090565b5f807ff0c57e16840df040f15088dc2f81fe391c3923bec73e23a9662efc9c229c6a006106b8565b6119da611f68565b5f516020612db75f395f51905f527fa16a46d94261c7517cc8ff89f61c0ce93598e3c849801011dee649a6a557d102611a138482612c2b565b5060038101611a228382612c2b565b505f8082556001909101555050565b611167611f68565b610897611f68565b5f80807f7fffffffffffffffffffffffffffffff5d576e7357a4501ddfe92f46681b20a0841115611a7a57505f91506003905082611aff565b604080515f808252602082018084528a905260ff891692820192909252606081018790526080810186905260019060a0016020604051602081039080840390855afa158015611acb573d5f5f3e3d5ffd5b5050604051601f1901519150506001600160a01b038116611af657505f925060019150829050611aff565b92505f91508190505b9450945094915050565b5f826003811115611b1c57611b1c612ce6565b03611b25575050565b6001826003811115611b3957611b39612ce6565b03611b575760405163f645eedf60e01b815260040160405180910390fd5b6002826003811115611b6b57611b6b612ce6565b03611b8c5760405163fce698f760e01b815260048101829052602401610b3b565b6003826003811115611ba057611ba0612ce6565b03610801576040516335e2f38360e21b815260048101829052602401610b3b565b611bca82611f8d565b6040516001600160a01b038316907fbc7cd75a20ee27fd9adebab32041f755214dbc6bffa90cc0225b39da2e5c2d3b905f90a2805115611c0e57610c728282611ff0565b610801612062565b60405163e6a4390560e01b81526001600160a01b038088166004830152861660248201525f908190819073ca143ce32fe78f1f7019d7d551a6402fc5350c739063e6a4390590604401602060405180830381865afa158015611c7a573d5f5f3e3d5ffd5b505050506040513d601f19601f82011682018060405250810190611c9e9190612cfa565b6001600160a01b031603611d31576040516364e329cb60e11b81526001600160a01b03808a1660048301528816602482015273ca143ce32fe78f1f7019d7d551a6402fc5350c739063c9c65396906044016020604051808303815f875af1158015611d0b573d5f5f3e3d5ffd5b505050506040513d601f19601f82011682018060405250810190611d2f9190612cfa565b505b5f5f611d5273ca143ce32fe78f1f7019d7d551a6402fc5350c738b8b612081565b91509150815f148015611d63575080155b15611d7357879350869250611e77565b5f611d7f898484612146565b9050878111611df25785811015611de75760405162461bcd60e51b815260206004820152602660248201527f556e69737761705632526f757465723a20494e53554646494349454e545f425f604482015265105353d5539560d21b6064820152608401610b3b565b889450925082611e75565b5f611dfe898486612146565b905089811115611e1057611e10612d15565b87811015611e6f5760405162461bcd60e51b815260206004820152602660248201527f556e69737761705632526f757465723a20494e53554646494349454e545f415f604482015265105353d5539560d21b6064820152608401610b3b565b94508793505b505b5050965096945050505050565b5f5f5f611e91858561222c565b6040516bffffffffffffffffffffffff19606084811b8216602084015283901b1660348201529193509150869060480160405160208183030381529060405280519060200120604051602001611f389291906001600160f81b0319815260609290921b6bffffffffffffffffffffffff1916600183015260158201527efb7f630766e6a796048ea87d01acd3068e8ff67d078148a3fa3f4a84f69bd5603582015260550190565b60408051601f1981840301815291905280516020909101209695505050505050565b5f611f63612322565b905090565b611f70612395565b61089757604051631afcd79f60e31b815260040160405180910390fd5b806001600160a01b03163b5f03611fc257604051634c9c8ce360e01b81526001600160a01b0382166004820152602401610b3b565b5f516020612dd75f395f51905f5280546001600160a01b0319166001600160a01b0392909216919091179055565b60605f5f846001600160a01b03168460405161200c9190612b1f565b5f60405180830381855af49150503d805f8114612044576040519150601f19603f3d011682016040523d82523d5f602084013e612049565b606091505b50915091506120598583836123ae565b95945050505050565b34156108975760405163b398979f60e01b815260040160405180910390fd5b5f5f5f61208e858561222c565b5090505f5f61209e888888611e84565b6001600160a01b0316630902f1ac6040518163ffffffff1660e01b8152600401606060405180830381865afa1580156120d9573d5f5f3e3d5ffd5b505050506040513d601f19601f820116820180604052508101906120fd9190612d3f565b506001600160701b031691506001600160701b03169150826001600160a01b0316876001600160a01b031614612134578082612137565b81815b90999098509650505050505050565b5f5f84116121a45760405162461bcd60e51b815260206004820152602560248201527f556e697377617056324c6962726172793a20494e53554646494349454e545f416044820152641353d5539560da1b6064820152608401610b3b565b5f831180156121b257505f82115b61220f5760405162461bcd60e51b815260206004820152602860248201527f556e697377617056324c6962726172793a20494e53554646494349454e545f4c604482015267495155494449545960c01b6064820152608401610b3b565b8261221a858461240a565b6122249190612d80565b949350505050565b5f5f826001600160a01b0316846001600160a01b03160361229d5760405162461bcd60e51b815260206004820152602560248201527f556e697377617056324c6962726172793a204944454e544943414c5f41444452604482015264455353455360d81b6064820152608401610b3b565b826001600160a01b0316846001600160a01b0316106122bd5782846122c0565b83835b90925090506001600160a01b03821661231b5760405162461bcd60e51b815260206004820152601e60248201527f556e697377617056324c6962726172793a205a45524f5f4144445245535300006044820152606401610b3b565b9250929050565b5f7f8b73c3c69bb8fe3d512ecc4cf759cc79239f7b179b0ffacaa9a75d522b39400f61234c612470565b6123546124d8565b60408051602081019490945283019190915260608201524660808201523060a082015260c00160405160208183030381529060405280519060200120905090565b5f61239e6119aa565b54600160401b900460ff16919050565b6060826123c3576123be8261251a565b6107df565b81511580156123da57506001600160a01b0384163b155b1561240357604051639996b31560e01b81526001600160a01b0385166004820152602401610b3b565b50806107df565b5f81158061242d5750828261241f8183612d9f565b925061242b9083612d80565b145b6106b85760405162461bcd60e51b815260206004820152601460248201527364732d6d6174682d6d756c2d6f766572666c6f7760601b6044820152606401610b3b565b5f5f516020612db75f395f51905f5281612488611880565b8051909150156124a057805160209091012092915050565b815480156124af579392505050565b7fc5d2460186f7233c927e7db2dcc703c0e500b653ca82273b7bfad8045d85a470935050505090565b5f5f516020612db75f395f51905f52816124f0611940565b80519091501561250857805160209091012092915050565b600182015480156124af579392505050565b80511561252a5780518082602001fd5b60405163d6bda27560e01b815260040160405180910390fd5b634e487b7160e01b5f52604160045260245ffd5b604051610100810167ffffffffffffffff8111828210171561257b5761257b612543565b60405290565b604051601f8201601f1916810167ffffffffffffffff811182821017156125aa576125aa612543565b604052919050565b5f5f67ffffffffffffffff8411156125cc576125cc612543565b50601f8301601f19166020016125e181612581565b9150508281528383830111156125f5575f5ffd5b828260208301375f602084830101529392505050565b5f82601f83011261261a575f5ffd5b6107df838335602085016125b2565b6001600160a01b0381168114611199575f5ffd5b803561264881612629565b919050565b803560ff81168114612648575f5ffd5b5f6020828403121561266d575f5ffd5b813567ffffffffffffffff811115612683575f5ffd5b82016101008185031215612695575f5ffd5b61269d612557565b813567ffffffffffffffff8111156126b3575f5ffd5b6126bf8682850161260b565b8252506126ce6020830161263d565b60208201526040828101359082015260608083013590820152608080830135908201526126fd60a0830161264d565b60a082015260c0828101359082015260e091820135918101919091529392505050565b5f60208284031215612730575f5ffd5b5035919050565b5f60208284031215612747575f5ffd5b81356107df81612629565b5f5f5f60608486031215612764575f5ffd5b833561276f81612629565b9250602084013561277f81612629565b929592945050506040919091013590565b5f5f604083850312156127a1575f5ffd5b82356127ac81612629565b9150602083013567ffffffffffffffff8111156127c7575f5ffd5b8301601f810185136127d7575f5ffd5b6127e6858235602084016125b2565b9150509250929050565b5f60208284031215612800575f5ffd5b813567ffffffffffffffff811115612816575f5ffd5b6122248482850161260b565b5f81518084528060208401602086015e5f602082860101526020601f19601f83011685010191505092915050565b60ff60f81b8816815260e060208201525f61286e60e0830189612822565b82810360408401526128808189612822565b606084018890526001600160a01b038716608085015260a0840186905283810360c0850152845180825260208087019350909101905f5b818110156128d55783518352602093840193909201916001016128b7565b50909b9a5050505050505050505050565b602081525f6107df6020830184612822565b5f5f60408385031215612909575f5ffd5b823561291481612629565b9150602083013561292481612629565b809150509250929050565b5f5f5f60608486031215612941575f5ffd5b833561294c81612629565b9250602084013561295c81612629565b9150604084013561296c81612629565b809150509250925092565b634e487b7160e01b5f52603260045260245ffd5b5f60408201848352604060208401528084518083526060850191506020860192505f5b818110156111bc5783516001600160a01b03168352602093840193909201916001016129ae565b5f602082840312156129e5575f5ffd5b815167ffffffffffffffff8111156129fb575f5ffd5b8201601f81018413612a0b575f5ffd5b805167ffffffffffffffff811115612a2557612a25612543565b8060051b612a3560208201612581565b91825260208184018101929081019087841115612a50575f5ffd5b6020850194505b83851015612a7657845180835260209586019590935090910190612a57565b979650505050505050565b5f5f5f60608486031215612a93575f5ffd5b5050815160208301516040909301519094929350919050565b634e487b7160e01b5f52601160045260245ffd5b808201808211156106b8576106b8612aac565b818103818111156106b8576106b8612aac565b5f5f60408385031215612af7575f5ffd5b505080516020909101519092909150565b5f81518060208401855e5f93019283525090919050565b5f6107df8284612b08565b5f60018201612b3b57612b3b612aac565b5060010190565b608081525f612b546080830187612822565b6001600160a01b03959095166020830152506040810192909252606090910152919050565b5f60208284031215612b89575f5ffd5b815180151581146107df575f5ffd5b5f60208284031215612ba8575f5ffd5b5051919050565b600181811c90821680612bc357607f821691505b602082108103612be157634e487b7160e01b5f52602260045260245ffd5b50919050565b601f821115610c7257805f5260205f20601f840160051c81016020851015612c0c5750805b601f840160051c820191505b81811015610ac9575f8155600101612c18565b815167ffffffffffffffff811115612c4557612c45612543565b612c5981612c538454612baf565b84612be7565b6020601f821160018114612c8b575f8315612c745750848201515b5f19600385901b1c1916600184901b178455610ac9565b5f84815260208120601f198516915b82811015612cba5787850151825560209485019460019092019101612c9a565b5084821015612cd757868401515f19600387901b60f8161c191681555b50505050600190811b01905550565b634e487b7160e01b5f52602160045260245ffd5b5f60208284031215612d0a575f5ffd5b81516107df81612629565b634e487b7160e01b5f52600160045260245ffd5b80516001600160701b0381168114612648575f5ffd5b5f5f5f60608486031215612d51575f5ffd5b612d5a84612d29565b9250612d6860208501612d29565b9150604084015163ffffffff8116811461296c575f5ffd5b5f82612d9a57634e487b7160e01b5f52601260045260245ffd5b500490565b80820281158282048414176106b8576106b8612aac56fea16a46d94261c7517cc8ff89f61c0ce93598e3c849801011dee649a6a557d100360894a13ba1a3210667c828492db98dca3e2076cc3735a920a3ca505d382bbc00000000000000000000000055d398326f99059ff775485246999027b3197955a264697066735822122025ad72a7f84e3ccf9ed838cd447ba08cd7b3f540ee3620f4d3428ae358b79a4e64736f6c634300081c0033","linkReferences":{}},"methodIdentifiers":{"DEAD()":"03fd2a45","SIGN_TYPEHASH()":"2f1d14cb","UPGRADE_INTERFACE_VERSION()":"ad3cb1cc","USDT()":"c54e44eb","addLiquidity(uint256)":"51c6590a","checkerSignMsgSignature((string,address,uint256,uint256,uint256,uint8,bytes32,bytes32))":"0cb9b96a","claim((string,address,uint256,uint256,uint256,uint8,bytes32,bytes32))":"e32c03c7","eip712Domain()":"84b0196e","getAmountOut(address,address,uint256)":"4aa06652","getQuoteAmount(uint256)":"2a75d5f4","getSignMsgHash((string,address,uint256,uint256,uint256,uint8,bytes32,bytes32))":"b1060225","initialize(address,address,address)":"c0c53b8b","isExcuted(string)":"4fb7726f","liquidityAmount(address)":"35e344f2","lp()":"313c06a0","nonce()":"affed0e0","owner()":"8da5cb5b","permit()":"5777e93d","proxiableUUID()":"52d1902d","raisefunds(uint256)":"80565655","removeLiquidity(uint256)":"9c8f9f23","renounceOwnership()":"715018a6","setConfig(address,address)":"b602024b","staking(uint256)":"1dbb2a22","token()":"fc0c546a","transferOwnership(address)":"f2fde38b","uniswapV2Factory()":"59d0f713","uniswapV2Router()":"1694505e","upgradeToAndCall(address,bytes)":"4f1ef286"},"id":52}