{"abi":[{"type":"function","name":"DEAD","inputs":[],"outputs":[{"name":"","type":"address","internalType":"address"}],"stateMutability":"view"},{"type":"function","name":"SIGN_TYPEHASH","inputs":[],"outputs":[{"name":"","type":"bytes32","internalType":"bytes32"}],"stateMutability":"view"},{"type":"function","name":"UPGRADE_INTERFACE_VERSION","inputs":[],"outputs":[{"name":"","type":"string","internalType":"string"}],"stateMutability":"view"},{"type":"function","name":"USDT","inputs":[],"outputs":[{"name":"","type":"address","internalType":"address"}],"stateMutability":"view"},{"type":"function","name":"addLiquidity","inputs":[{"name":"amountToken","type":"uint256","internalType":"uint256"}],"outputs":[{"name":"_amountToken","type":"uint256","internalType":"uint256"},{"name":"_amountUsdt","type":"uint256","internalType":"uint256"},{"name":"_liquidityAmount","type":"uint256","internalType":"uint256"}],"stateMutability":"nonpayable"},{"type":"function","name":"checkerSignMsgSignature","inputs":[{"name":"_msg","type":"tuple","internalType":"struct SignatureInfo.SignMessage","components":[{"name":"mark","type":"string","internalType":"string"},{"name":"recipient","type":"address","internalType":"address"},{"name":"amount","type":"uint256","internalType":"uint256"},{"name":"nonce","type":"uint256","internalType":"uint256"},{"name":"deadline","type":"uint256","internalType":"uint256"},{"name":"v","type":"uint8","internalType":"uint8"},{"name":"r","type":"bytes32","internalType":"bytes32"},{"name":"s","type":"bytes32","internalType":"bytes32"}]}],"outputs":[{"name":"","type":"bool","internalType":"bool"}],"stateMutability":"view"},{"type":"function","name":"claim","inputs":[{"name":"_msg","type":"tuple","internalType":"struct SignatureInfo.SignMessage","components":[{"name":"mark","type":"string","internalType":"string"},{"name":"recipient","type":"address","internalType":"address"},{"name":"amount","type":"uint256","internalType":"uint256"},{"name":"nonce","type":"uint256","internalType":"uint256"},{"name":"deadline","type":"uint256","internalType":"uint256"},{"name":"v","type":"uint8","internalType":"uint8"},{"name":"r","type":"bytes32","internalType":"bytes32"},{"name":"s","type":"bytes32","internalType":"bytes32"}]}],"outputs":[],"stateMutability":"nonpayable"},{"type":"function","name":"eip712Domain","inputs":[],"outputs":[{"name":"fields","type":"bytes1","internalType":"bytes1"},{"name":"name","type":"string","internalType":"string"},{"name":"version","type":"string","internalType":"string"},{"name":"chainId","type":"uint256","internalType":"uint256"},{"name":"verifyingContract","type":"address","internalType":"address"},{"name":"salt","type":"bytes32","internalType":"bytes32"},{"name":"extensions","type":"uint256[]","internalType":"uint256[]"}],"stateMutability":"view"},{"type":"function","name":"extractedValue","inputs":[{"name":"","type":"address","internalType":"address"}],"outputs":[{"name":"","type":"uint256","internalType":"uint256"}],"stateMutability":"view"},{"type":"function","name":"getAmountOut","inputs":[{"name":"token0","type":"address","internalType":"address"},{"name":"token1","type":"address","internalType":"address"},{"name":"token0Amount","type":"uint256","internalType":"uint256"}],"outputs":[{"name":"","type":"uint256","internalType":"uint256"}],"stateMutability":"view"},{"type":"function","name":"getQuoteAmount","inputs":[{"name":"amountToken","type":"uint256","internalType":"uint256"}],"outputs":[{"name":"amountUsdt","type":"uint256","internalType":"uint256"}],"stateMutability":"view"},{"type":"function","name":"getSignMsgHash","inputs":[{"name":"_msg","type":"tuple","internalType":"struct SignatureInfo.SignMessage","components":[{"name":"mark","type":"string","internalType":"string"},{"name":"recipient","type":"address","internalType":"address"},{"name":"amount","type":"uint256","internalType":"uint256"},{"name":"nonce","type":"uint256","internalType":"uint256"},{"name":"deadline","type":"uint256","internalType":"uint256"},{"name":"v","type":"uint8","internalType":"uint8"},{"name":"r","type":"bytes32","internalType":"bytes32"},{"name":"s","type":"bytes32","internalType":"bytes32"}]}],"outputs":[{"name":"","type":"bytes32","internalType":"bytes32"}],"stateMutability":"view"},{"type":"function","name":"initialize","inputs":[{"name":"_token","type":"address","internalType":"address"},{"name":"_lp","type":"address","internalType":"address"},{"name":"_permit","type":"address","internalType":"address"}],"outputs":[],"stateMutability":"nonpayable"},{"type":"function","name":"isExcuted","inputs":[{"name":"","type":"string","internalType":"string"}],"outputs":[{"name":"","type":"bool","internalType":"bool"}],"stateMutability":"view"},{"type":"function","name":"isExemptFrom","inputs":[{"name":"","type":"address","internalType":"address"}],"outputs":[{"name":"","type":"bool","internalType":"bool"}],"stateMutability":"view"},{"type":"function","name":"lp","inputs":[],"outputs":[{"name":"","type":"address","internalType":"address"}],"stateMutability":"view"},{"type":"function","name":"nonce","inputs":[],"outputs":[{"name":"","type":"uint256","internalType":"uint256"}],"stateMutability":"view"},{"type":"function","name":"owner","inputs":[],"outputs":[{"name":"","type":"address","internalType":"address"}],"stateMutability":"view"},{"type":"function","name":"permit","inputs":[],"outputs":[{"name":"","type":"address","internalType":"address"}],"stateMutability":"view"},{"type":"function","name":"proxiableUUID","inputs":[],"outputs":[{"name":"","type":"bytes32","internalType":"bytes32"}],"stateMutability":"view"},{"type":"function","name":"removeLiquidity","inputs":[{"name":"_liquidity","type":"uint256","internalType":"uint256"}],"outputs":[],"stateMutability":"nonpayable"},{"type":"function","name":"renounceOwnership","inputs":[],"outputs":[],"stateMutability":"nonpayable"},{"type":"function","name":"setConfig","inputs":[{"name":"_token","type":"address","internalType":"address"},{"name":"_lp","type":"address","internalType":"address"},{"name":"_permit","type":"address","internalType":"address"}],"outputs":[],"stateMutability":"nonpayable"},{"type":"function","name":"setExemption","inputs":[{"name":"_addrs","type":"address[]","internalType":"address[]"},{"name":"_exempt","type":"bool","internalType":"bool"}],"outputs":[],"stateMutability":"nonpayable"},{"type":"function","name":"staking","inputs":[{"name":"amountToken","type":"uint256","internalType":"uint256"}],"outputs":[],"stateMutability":"nonpayable"},{"type":"function","name":"stakingValue","inputs":[{"name":"","type":"address","internalType":"address"}],"outputs":[{"name":"","type":"uint256","internalType":"uint256"}],"stateMutability":"view"},{"type":"function","name":"token","inputs":[],"outputs":[{"name":"","type":"address","internalType":"address"}],"stateMutability":"view"},{"type":"function","name":"transferOwnership","inputs":[{"name":"newOwner","type":"address","internalType":"address"}],"outputs":[],"stateMutability":"nonpayable"},{"type":"function","name":"uniswapV2Factory","inputs":[],"outputs":[{"name":"","type":"address","internalType":"address"}],"stateMutability":"view"},{"type":"function","name":"uniswapV2Router","inputs":[],"outputs":[{"name":"","type":"address","internalType":"address"}],"stateMutability":"view"},{"type":"function","name":"upgradeToAndCall","inputs":[{"name":"newImplementation","type":"address","internalType":"address"},{"name":"data","type":"bytes","internalType":"bytes"}],"outputs":[],"stateMutability":"payable"},{"type":"event","name":"Claimed","inputs":[{"name":"mark","type":"string","indexed":false,"internalType":"string"},{"name":"recipient","type":"address","indexed":false,"internalType":"address"},{"name":"amount","type":"uint256","indexed":false,"internalType":"uint256"},{"name":"time","type":"uint256","indexed":false,"internalType":"uint256"}],"anonymous":false},{"type":"event","name":"EIP712DomainChanged","inputs":[],"anonymous":false},{"type":"event","name":"Initialized","inputs":[{"name":"version","type":"uint64","indexed":false,"internalType":"uint64"}],"anonymous":false},{"type":"event","name":"OwnershipTransferred","inputs":[{"name":"previousOwner","type":"address","indexed":true,"internalType":"address"},{"name":"newOwner","type":"address","indexed":true,"internalType":"address"}],"anonymous":false},{"type":"event","name":"Staked","inputs":[{"name":"staker","type":"address","indexed":false,"internalType":"address"},{"name":"amount","type":"uint256","indexed":false,"internalType":"uint256"},{"name":"time","type":"uint256","indexed":false,"internalType":"uint256"}],"anonymous":false},{"type":"event","name":"Upgraded","inputs":[{"name":"implementation","type":"address","indexed":true,"internalType":"address"}],"anonymous":false},{"type":"error","name":"AddressEmptyCode","inputs":[{"name":"target","type":"address","internalType":"address"}]},{"type":"error","name":"ECDSAInvalidSignature","inputs":[]},{"type":"error","name":"ECDSAInvalidSignatureLength","inputs":[{"name":"length","type":"uint256","internalType":"uint256"}]},{"type":"error","name":"ECDSAInvalidSignatureS","inputs":[{"name":"s","type":"bytes32","internalType":"bytes32"}]},{"type":"error","name":"ERC1967InvalidImplementation","inputs":[{"name":"implementation","type":"address","internalType":"address"}]},{"type":"error","name":"ERC1967NonPayable","inputs":[]},{"type":"error","name":"FailedCall","inputs":[]},{"type":"error","name":"InvalidInitialization","inputs":[]},{"type":"error","name":"NotInitializing","inputs":[]},{"type":"error","name":"OwnableInvalidOwner","inputs":[{"name":"owner","type":"address","internalType":"address"}]},{"type":"error","name":"OwnableUnauthorizedAccount","inputs":[{"name":"account","type":"address","internalType":"address"}]},{"type":"error","name":"ReentrancyGuardReentrantCall","inputs":[]},{"type":"error","name":"UUPSUnauthorizedCallContext","inputs":[]},{"type":"error","name":"UUPSUnsupportedProxiableUUID","inputs":[{"name":"slot","type":"bytes32","internalType":"bytes32"}]}],"bytecode":{"object":"0x60a0604052306080523480156012575f5ffd5b5060015f55608051612e6361003d5f395f818161149f015281816114c801526117230152612e635ff3fe6080604052600436106101d0575f3560e01c8063715018a6116100fd578063b726caad11610092578063e32c03c711610062578063e32c03c7146105e0578063ef861786146105ff578063f2fde38b1461062a578063fc0c546a14610649575f5ffd5b8063b726caad14610541578063b915e7551461056c578063c0c53b8b1461059a578063c54e44eb146105b9575f5ffd5b80639c8f9f23116100cd5780639c8f9f23146104b1578063ad3cb1cc146104d0578063affed0e01461050d578063b106022514610522575f5ffd5b8063715018a61461041b57806384b0196e1461042f5780638c6ce381146104565780638da5cb5b14610475575f5ffd5b80633141e25b1161017357806351c6590a1161014357806351c6590a1461038757806352d1902d146103c15780635777e93d146103d557806359d0f713146103f4575f5ffd5b80633141e25b146102fc5780634aa066521461031b5780634f1ef2861461033a5780634fb7726f1461034d575f5ffd5b80631dbb2a22116101ae5780631dbb2a221461025c5780632a75d5f41461027d5780632f1d14cb146102aa578063313c06a0146102dd575f5ffd5b806303fd2a45146101d45780630cb9b96a146102065780631694505e14610235575b5f5ffd5b3480156101df575f5ffd5b506101e961dead81565b6040516001600160a01b0390911681526020015b60405180910390f35b348015610211575f5ffd5b5061022561022036600461268b565b610668565b60405190151581526020016101fd565b348015610240575f5ffd5b506101e97310ed43c718714eb63d5aa57b78b54704e256024e81565b348015610267575f5ffd5b5061027b61027636600461274c565b6106a7565b005b348015610288575f5ffd5b5061029c61029736600461274c565b6107c2565b6040519081526020016101fd565b3480156102b5575f5ffd5b5061029c7f401e12293d17637080047390ba6da57cad06bbf1eb753b40b6cc8a62145ea2c281565b3480156102e8575f5ffd5b506003546101e9906001600160a01b031681565b348015610307575f5ffd5b5061027b610316366004612763565b6107f5565b348015610326575f5ffd5b5061029c6103353660046127ab565b610881565b61027b6103483660046127e9565b6109a9565b348015610358575f5ffd5b50610225610367366004612848565b805160208183018101805160018252928201919093012091525460ff1681565b348015610392575f5ffd5b506103a66103a136600461274c565b6109c8565b604080519384526020840192909252908201526060016101fd565b3480156103cc575f5ffd5b5061029c610a3c565b3480156103e0575f5ffd5b506004546101e9906001600160a01b031681565b3480156103ff575f5ffd5b506101e973ca143ce32fe78f1f7019d7d551a6402fc5350c7381565b348015610426575f5ffd5b5061027b610a57565b34801561043a575f5ffd5b50610443610a6a565b6040516101fd97969594939291906128a7565b348015610461575f5ffd5b5061027b61047036600461294a565b610b13565b348015610480575f5ffd5b507f9016d09d72d40fdae2fd8ceac6b6234c7706214fd39c1cd1e609a0528c199300546001600160a01b03166101e9565b3480156104bc575f5ffd5b5061027b6104cb36600461274c565b610c31565b3480156104db575f5ffd5b50610500604051806040016040528060058152602001640352e302e360dc1b81525081565b6040516101fd91906129bf565b348015610518575f5ffd5b5061029c60055481565b34801561052d575f5ffd5b5061029c61053c36600461268b565b610d31565b34801561054c575f5ffd5b5061029c61055b3660046129d1565b60066020525f908152604090205481565b348015610577575f5ffd5b506102256105863660046129d1565b60086020525f908152604090205460ff1681565b3480156105a5575f5ffd5b5061027b6105b4366004612763565b610df0565b3480156105c4575f5ffd5b506101e97355d398326f99059ff775485246999027b319795581565b3480156105eb575f5ffd5b5061027b6105fa36600461268b565b610f71565b34801561060a575f5ffd5b5061029c6106193660046129d1565b60076020525f908152604090205481565b348015610635575f5ffd5b5061027b6106443660046129d1565b6112a5565b348015610654575f5ffd5b506002546101e9906001600160a01b031681565b5f5f61067383610d31565b90505f61068e828560a001518660c001518760e001516112e2565b6004546001600160a01b03918216911614949350505050565b6002545f906106d4906001600160a01b03167355d398326f99059ff775485246999027b319795584610881565b905068056bc75e2d631000008110156107425760405162461bcd60e51b815260206004820152602560248201527f4174206c65617374203130305553445420746f6b656e7320617265207265717560448201526434b932b21760d91b60648201526084015b60405180910390fd5b60025461075c906001600160a01b03163361dead8561130e565b335f908152600660205260408120805484929061077a908490612a00565b90915550506040805133815260208101849052428183015290517f1449c6dd7851abc30abf37f57715f492010519147cc2652fbc38202c18a6ee909181900360600190a15050565b6002545f906107ef906001600160a01b03167355d398326f99059ff775485246999027b319795584610881565b92915050565b6107fd611439565b6001600160a01b0383166108425760405162461bcd60e51b815260206004820152600c60248201526b5a65726f206164647265737360a01b6044820152606401610739565b600280546001600160a01b039485166001600160a01b031991821617909155600380549385169382169390931790925560048054919093169116179055565b6040805160028082526060820183525f928392919060208301908036833701905050905084815f815181106108b8576108b8612a13565b60200260200101906001600160a01b031690816001600160a01b03168152505083816001815181106108ec576108ec612a13565b6001600160a01b039092166020928302919091019091015260405163d06ca61f60e01b81525f907310ed43c718714eb63d5aa57b78b54704e256024e9063d06ca61f9061093f9087908690600401612a27565b5f60405180830381865afa158015610959573d5f5f3e3d5ffd5b505050506040513d5f823e601f3d908101601f191682016040526109809190810190612a71565b90508060018151811061099557610995612a13565b6020026020010151925050505b9392505050565b6109b1611494565b6109ba82611538565b6109c48282611540565b5050565b6002545f908190819081906109fb906001600160a01b03167355d398326f99059ff775485246999027b319795587610881565b600254909150610a2e906001600160a01b03167355d398326f99059ff775485246999027b319795587845f8033426115fc565b919790965090945092505050565b5f610a45611718565b505f516020612e0e5f395f51905f5290565b610a5f611439565b610a685f611761565b565b5f60608082808083815f516020612dee5f395f51905f528054909150158015610a9557506001810154155b610ad95760405162461bcd60e51b81526020600482015260156024820152741152540dcc4c8e88155b9a5b9a5d1a585b1a5e9959605a1b6044820152606401610739565b610ae16117d1565b610ae9611891565b604080515f80825260208201909252600f60f81b9c939b5091995046985030975095509350915050565b6004546001600160a01b03163314610b5a5760405162461bcd60e51b815260206004820152600a602482015269139bdd081c195c9b5a5d60b21b6044820152606401610739565b5f5b82811015610c2b575f848483818110610b7757610b77612a13565b9050602002016020810190610b8c91906129d1565b6001600160a01b031603610bd15760405162461bcd60e51b815260206004820152600c60248201526b5a45524f204144445245535360a01b6044820152606401610739565b8160085f868685818110610be757610be7612a13565b9050602002016020810190610bfc91906129d1565b6001600160a01b0316815260208101919091526040015f20805460ff1916911515919091179055600101610b5c565b50505050565b600354610c49906001600160a01b031633308461130e565b600354610c74906001600160a01b03167310ed43c718714eb63d5aa57b78b54704e256024e836118cf565b600254604051635d5155ef60e11b81527355d398326f99059ff775485246999027b319795560048201526001600160a01b039091166024820152604481018290525f6064820181905260848201523360a48201524260c48201527310ed43c718714eb63d5aa57b78b54704e256024e9063baa2abde9060e40160408051808303815f875af1158015610d08573d5f5f3e3d5ffd5b505050506040513d601f19601f82011682018060405250810190610d2c9190612b1b565b505050565b5f6107ef7f401e12293d17637080047390ba6da57cad06bbf1eb753b40b6cc8a62145ea2c2835f0151604051602001610d6a9190612b54565b604051602081830303815290604052805190602001208460200151856040015186606001518760800151604051602001610dd59695949392919095865260208601949094526001600160a01b039290921660408501526060840152608083015260a082015260c00190565b604051602081830303815290604052805190602001206119af565b5f610df96119db565b805490915060ff600160401b82041615906001600160401b03165f81158015610e1f5750825b90505f826001600160401b03166001148015610e3a5750303b155b905081158015610e48575080155b15610e665760405163f92ee8a960e01b815260040160405180910390fd5b845467ffffffffffffffff191660011785558315610e9057845460ff60401b1916600160401b1785555b610ed36040518060400160405280600881526020016726b4b734b733ab1960c11b815250604051806040016040528060018152602001603160f81b815250611a03565b610edc33611a62565b610ee4611a6a565b600280546001600160a01b03808b166001600160a01b031992831617909255600380548a841690831617905560048054928916929091169190911790558315610f6757845460ff60401b19168555604051600181527fc7f505b2f371ae2175ee4913f4499e1f2633a7b5936321eed1cdaeb6115181d29060200160405180910390a15b5050505050505050565b600554816060015114610fb55760405162461bcd60e51b815260206004820152600c60248201526b2737b731b29032b93937b91760a11b6044820152606401610739565b4281608001511015610ffb5760405162461bcd60e51b815260206004820152600f60248201526e2232b0b23634b7329032b93937b91760891b6044820152606401610739565b805160405160019161100c91612b54565b9081526040519081900360200190205460ff161561105b5760405162461bcd60e51b815260206004820152600c60248201526b13585c9ac8195e18dd5d195960a21b6044820152606401610739565b61106481610668565b6110a95760405162461bcd60e51b815260206004820152601660248201527521b432b1b59039b4b3b730ba3ab9329032b93937b91760511b6044820152606401610739565b335f9081526008602052604090205460ff1661110f57335f9081526006602052604090205461110f5760405162461bcd60e51b815260206004820152601260248201527127379039ba30b5b4b7339030b6b7bab73a1760711b6044820152606401610739565b335f90815260066020526040902054611129906002612b5f565b335f908152600760205260409081902054908301516111489190612a00565b11156111a75760405162461bcd60e51b815260206004820152602860248201527f436c61696d20616d6f756e742065786365656473207374616b696e6720616d6f6044820152673ab73a101510191760c11b6064820152608401610739565b600254602082015160408084015190516340c10f1960e01b81526001600160a01b03928316600482015260248101919091529116906340c10f19906044015f604051808303815f87803b1580156111fc575f5ffd5b505af115801561120e573d5f5f3e3d5ffd5b50505050600180825f01516040516112269190612b54565b908152604051908190036020019020805491151560ff1990921691909117905560058054905f61125583612b76565b91905055507fb560b68b858b38da022e769a634986c1eced94a3867ed159888c34fe7510cbf4815f0151826020015183604001514260405161129a9493929190612b8e565b60405180910390a150565b6112ad611439565b6001600160a01b0381166112d657604051631e4fbdf760e01b81525f6004820152602401610739565b6112df81611761565b50565b5f5f5f5f6112f288888888611a72565b9250925092506113028282611b3a565b50909695505050505050565b604080516001600160a01b0385811660248301528481166044830152606480830185905283518084039091018152608490920183526020820180516001600160e01b03166323b872dd60e01b17905291515f928392908816916113719190612b54565b5f604051808303815f865af19150503d805f81146113aa576040519150601f19603f3d011682016040523d82523d5f602084013e6113af565b606091505b50915091508180156113d95750805115806113d95750808060200190518101906113d99190612bc5565b6114315760405162461bcd60e51b8152602060048201526024808201527f5472616e7366657248656c7065723a205452414e534645525f46524f4d5f46416044820152631253115160e21b6064820152608401610739565b505050505050565b3361146b7f9016d09d72d40fdae2fd8ceac6b6234c7706214fd39c1cd1e609a0528c199300546001600160a01b031690565b6001600160a01b031614610a685760405163118cdaa760e01b8152336004820152602401610739565b306001600160a01b037f000000000000000000000000000000000000000000000000000000000000000016148061151a57507f00000000000000000000000000000000000000000000000000000000000000006001600160a01b031661150e5f516020612e0e5f395f51905f52546001600160a01b031690565b6001600160a01b031614155b15610a685760405163703e46dd60e11b815260040160405180910390fd5b6112df611439565b816001600160a01b03166352d1902d6040518163ffffffff1660e01b8152600401602060405180830381865afa92505050801561159a575060408051601f3d908101601f1916820190925261159791810190612be0565b60015b6115c257604051634c9c8ce360e01b81526001600160a01b0383166004820152602401610739565b5f516020612e0e5f395f51905f5281146115f257604051632a87526960e21b815260048101829052602401610739565b610d2c8383611bf2565b5f5f5f83428110156116505760405162461bcd60e51b815260206004820152601860248201527f556e69737761705632526f757465723a204558504952454400000000000000006044820152606401610739565b61165e8c8c8c8c8c8c611c47565b90945092505f61168373ca143ce32fe78f1f7019d7d551a6402fc5350c738e8e611eb5565b90506116918d33838861130e565b61169d8c33838761130e565b6040516335313c2160e11b81526001600160a01b038881166004830152821690636a627842906024016020604051808303815f875af11580156116e2573d5f5f3e3d5ffd5b505050506040513d601f19601f820116820180604052508101906117069190612be0565b92505050985098509895505050505050565b306001600160a01b037f00000000000000000000000000000000000000000000000000000000000000001614610a685760405163703e46dd60e11b815260040160405180910390fd5b7f9016d09d72d40fdae2fd8ceac6b6234c7706214fd39c1cd1e609a0528c19930080546001600160a01b031981166001600160a01b03848116918217845560405192169182907f8be0079c531659141344cd1fd0a4f28419497f9722a3daafe3b4186f6b6457e0905f90a3505050565b7fa16a46d94261c7517cc8ff89f61c0ce93598e3c849801011dee649a6a557d10280546060915f516020612dee5f395f51905f529161180f90612bf7565b80601f016020809104026020016040519081016040528092919081815260200182805461183b90612bf7565b80156118865780601f1061185d57610100808354040283529160200191611886565b820191905f5260205f20905b81548152906001019060200180831161186957829003601f168201915b505050505091505090565b7fa16a46d94261c7517cc8ff89f61c0ce93598e3c849801011dee649a6a557d10380546060915f516020612dee5f395f51905f529161180f90612bf7565b60405163095ea7b360e01b81526001600160a01b0383811660048301525f602483015284169063095ea7b3906044016020604051808303815f875af115801561191a573d5f5f3e3d5ffd5b505050506040513d601f19601f8201168201806040525081019061193e9190612bc5565b5060405163095ea7b360e01b81526001600160a01b0383811660048301526024820183905284169063095ea7b3906044016020604051808303815f875af115801561198b573d5f5f3e3d5ffd5b505050506040513d601f19601f82011682018060405250810190610c2b9190612bc5565b5f6107ef6119bb611f8b565b8360405161190160f01b8152600281019290925260228201526042902090565b5f807ff0c57e16840df040f15088dc2f81fe391c3923bec73e23a9662efc9c229c6a006107ef565b611a0b611f99565b5f516020612dee5f395f51905f527fa16a46d94261c7517cc8ff89f61c0ce93598e3c849801011dee649a6a557d102611a448482612c7a565b5060038101611a538382612c7a565b505f8082556001909101555050565b6112ad611f99565b610a68611f99565b5f80807f7fffffffffffffffffffffffffffffff5d576e7357a4501ddfe92f46681b20a0841115611aab57505f91506003905082611b30565b604080515f808252602082018084528a905260ff891692820192909252606081018790526080810186905260019060a0016020604051602081039080840390855afa158015611afc573d5f5f3e3d5ffd5b5050604051601f1901519150506001600160a01b038116611b2757505f925060019150829050611b30565b92505f91508190505b9450945094915050565b5f826003811115611b4d57611b4d612d34565b03611b56575050565b6001826003811115611b6a57611b6a612d34565b03611b885760405163f645eedf60e01b815260040160405180910390fd5b6002826003811115611b9c57611b9c612d34565b03611bbd5760405163fce698f760e01b815260048101829052602401610739565b6003826003811115611bd157611bd1612d34565b036109c4576040516335e2f38360e21b815260048101829052602401610739565b611bfb82611fbe565b6040516001600160a01b038316907fbc7cd75a20ee27fd9adebab32041f755214dbc6bffa90cc0225b39da2e5c2d3b905f90a2805115611c3f57610d2c8282612021565b6109c4612093565b60405163e6a4390560e01b81526001600160a01b038088166004830152861660248201525f908190819073ca143ce32fe78f1f7019d7d551a6402fc5350c739063e6a4390590604401602060405180830381865afa158015611cab573d5f5f3e3d5ffd5b505050506040513d601f19601f82011682018060405250810190611ccf9190612d48565b6001600160a01b031603611d62576040516364e329cb60e11b81526001600160a01b03808a1660048301528816602482015273ca143ce32fe78f1f7019d7d551a6402fc5350c739063c9c65396906044016020604051808303815f875af1158015611d3c573d5f5f3e3d5ffd5b505050506040513d601f19601f82011682018060405250810190611d609190612d48565b505b5f5f611d8373ca143ce32fe78f1f7019d7d551a6402fc5350c738b8b6120b2565b91509150815f148015611d94575080155b15611da457879350869250611ea8565b5f611db0898484612177565b9050878111611e235785811015611e185760405162461bcd60e51b815260206004820152602660248201527f556e69737761705632526f757465723a20494e53554646494349454e545f425f604482015265105353d5539560d21b6064820152608401610739565b889450925082611ea6565b5f611e2f898486612177565b905089811115611e4157611e41612d63565b87811015611ea05760405162461bcd60e51b815260206004820152602660248201527f556e69737761705632526f757465723a20494e53554646494349454e545f415f604482015265105353d5539560d21b6064820152608401610739565b94508793505b505b5050965096945050505050565b5f5f5f611ec2858561225d565b6040516bffffffffffffffffffffffff19606084811b8216602084015283901b1660348201529193509150869060480160405160208183030381529060405280519060200120604051602001611f699291906001600160f81b0319815260609290921b6bffffffffffffffffffffffff1916600183015260158201527efb7f630766e6a796048ea87d01acd3068e8ff67d078148a3fa3f4a84f69bd5603582015260550190565b60408051601f1981840301815291905280516020909101209695505050505050565b5f611f94612353565b905090565b611fa16123c6565b610a6857604051631afcd79f60e31b815260040160405180910390fd5b806001600160a01b03163b5f03611ff357604051634c9c8ce360e01b81526001600160a01b0382166004820152602401610739565b5f516020612e0e5f395f51905f5280546001600160a01b0319166001600160a01b0392909216919091179055565b60605f5f846001600160a01b03168460405161203d9190612b54565b5f60405180830381855af49150503d805f8114612075576040519150601f19603f3d011682016040523d82523d5f602084013e61207a565b606091505b509150915061208a8583836123df565b95945050505050565b3415610a685760405163b398979f60e01b815260040160405180910390fd5b5f5f5f6120bf858561225d565b5090505f5f6120cf888888611eb5565b6001600160a01b0316630902f1ac6040518163ffffffff1660e01b8152600401606060405180830381865afa15801561210a573d5f5f3e3d5ffd5b505050506040513d601f19601f8201168201806040525081019061212e9190612d8d565b506001600160701b031691506001600160701b03169150826001600160a01b0316876001600160a01b031614612165578082612168565b81815b90999098509650505050505050565b5f5f84116121d55760405162461bcd60e51b815260206004820152602560248201527f556e697377617056324c6962726172793a20494e53554646494349454e545f416044820152641353d5539560da1b6064820152608401610739565b5f831180156121e357505f82115b6122405760405162461bcd60e51b815260206004820152602860248201527f556e697377617056324c6962726172793a20494e53554646494349454e545f4c604482015267495155494449545960c01b6064820152608401610739565b8261224b858461243b565b6122559190612dce565b949350505050565b5f5f826001600160a01b0316846001600160a01b0316036122ce5760405162461bcd60e51b815260206004820152602560248201527f556e697377617056324c6962726172793a204944454e544943414c5f41444452604482015264455353455360d81b6064820152608401610739565b826001600160a01b0316846001600160a01b0316106122ee5782846122f1565b83835b90925090506001600160a01b03821661234c5760405162461bcd60e51b815260206004820152601e60248201527f556e697377617056324c6962726172793a205a45524f5f4144445245535300006044820152606401610739565b9250929050565b5f7f8b73c3c69bb8fe3d512ecc4cf759cc79239f7b179b0ffacaa9a75d522b39400f61237d6124a1565b612385612509565b60408051602081019490945283019190915260608201524660808201523060a082015260c00160405160208183030381529060405280519060200120905090565b5f6123cf6119db565b54600160401b900460ff16919050565b6060826123f4576123ef8261254b565b6109a2565b815115801561240b57506001600160a01b0384163b155b1561243457604051639996b31560e01b81526001600160a01b0385166004820152602401610739565b50806109a2565b5f81158061245e575082826124508183612b5f565b925061245c9083612dce565b145b6107ef5760405162461bcd60e51b815260206004820152601460248201527364732d6d6174682d6d756c2d6f766572666c6f7760601b6044820152606401610739565b5f5f516020612dee5f395f51905f52816124b96117d1565b8051909150156124d157805160209091012092915050565b815480156124e0579392505050565b7fc5d2460186f7233c927e7db2dcc703c0e500b653ca82273b7bfad8045d85a470935050505090565b5f5f516020612dee5f395f51905f5281612521611891565b80519091501561253957805160209091012092915050565b600182015480156124e0579392505050565b80511561255b5780518082602001fd5b60405163d6bda27560e01b815260040160405180910390fd5b634e487b7160e01b5f52604160045260245ffd5b60405161010081016001600160401b03811182821017156125ab576125ab612574565b60405290565b604051601f8201601f191681016001600160401b03811182821017156125d9576125d9612574565b604052919050565b5f5f6001600160401b038411156125fa576125fa612574565b50601f8301601f191660200161260f816125b1565b915050828152838383011115612623575f5ffd5b828260208301375f602084830101529392505050565b5f82601f830112612648575f5ffd5b6109a2838335602085016125e1565b6001600160a01b03811681146112df575f5ffd5b803561267681612657565b919050565b803560ff81168114612676575f5ffd5b5f6020828403121561269b575f5ffd5b81356001600160401b038111156126b0575f5ffd5b820161010081850312156126c2575f5ffd5b6126ca612588565b81356001600160401b038111156126df575f5ffd5b6126eb86828501612639565b8252506126fa6020830161266b565b602082015260408281013590820152606080830135908201526080808301359082015261272960a0830161267b565b60a082015260c0828101359082015260e091820135918101919091529392505050565b5f6020828403121561275c575f5ffd5b5035919050565b5f5f5f60608486031215612775575f5ffd5b833561278081612657565b9250602084013561279081612657565b915060408401356127a081612657565b809150509250925092565b5f5f5f606084860312156127bd575f5ffd5b83356127c881612657565b925060208401356127d881612657565b929592945050506040919091013590565b5f5f604083850312156127fa575f5ffd5b823561280581612657565b915060208301356001600160401b0381111561281f575f5ffd5b8301601f8101851361282f575f5ffd5b61283e858235602084016125e1565b9150509250929050565b5f60208284031215612858575f5ffd5b81356001600160401b0381111561286d575f5ffd5b61225584828501612639565b5f81518084528060208401602086015e5f602082860101526020601f19601f83011685010191505092915050565b60ff60f81b8816815260e060208201525f6128c560e0830189612879565b82810360408401526128d78189612879565b606084018890526001600160a01b038716608085015260a0840186905283810360c0850152845180825260208087019350909101905f5b8181101561292c57835183526020938401939092019160010161290e565b50909b9a5050505050505050505050565b80151581146112df575f5ffd5b5f5f5f6040848603121561295c575f5ffd5b83356001600160401b03811115612971575f5ffd5b8401601f81018613612981575f5ffd5b80356001600160401b03811115612996575f5ffd5b8660208260051b84010111156129aa575f5ffd5b6020918201945092508401356127a08161293d565b602081525f6109a26020830184612879565b5f602082840312156129e1575f5ffd5b81356109a281612657565b634e487b7160e01b5f52601160045260245ffd5b808201808211156107ef576107ef6129ec565b634e487b7160e01b5f52603260045260245ffd5b5f60408201848352604060208401528084518083526060850191506020860192505f5b818110156113025783516001600160a01b0316835260209384019390920191600101612a4a565b5f60208284031215612a81575f5ffd5b81516001600160401b03811115612a96575f5ffd5b8201601f81018413612aa6575f5ffd5b80516001600160401b03811115612abf57612abf612574565b8060051b612acf602082016125b1565b91825260208184018101929081019087841115612aea575f5ffd5b6020850194505b83851015612b1057845180835260209586019590935090910190612af1565b979650505050505050565b5f5f60408385031215612b2c575f5ffd5b505080516020909101519092909150565b5f81518060208401855e5f93019283525090919050565b5f6109a28284612b3d565b80820281158282048414176107ef576107ef6129ec565b5f60018201612b8757612b876129ec565b5060010190565b608081525f612ba06080830187612879565b6001600160a01b03959095166020830152506040810192909252606090910152919050565b5f60208284031215612bd5575f5ffd5b81516109a28161293d565b5f60208284031215612bf0575f5ffd5b5051919050565b600181811c90821680612c0b57607f821691505b602082108103612c2957634e487b7160e01b5f52602260045260245ffd5b50919050565b601f821115610d2c57805f5260205f20601f840160051c81016020851015612c545750805b601f840160051c820191505b81811015612c73575f8155600101612c60565b5050505050565b81516001600160401b03811115612c9357612c93612574565b612ca781612ca18454612bf7565b84612c2f565b6020601f821160018114612cd9575f8315612cc25750848201515b5f19600385901b1c1916600184901b178455612c73565b5f84815260208120601f198516915b82811015612d085787850151825560209485019460019092019101612ce8565b5084821015612d2557868401515f19600387901b60f8161c191681555b50505050600190811b01905550565b634e487b7160e01b5f52602160045260245ffd5b5f60208284031215612d58575f5ffd5b81516109a281612657565b634e487b7160e01b5f52600160045260245ffd5b80516001600160701b0381168114612676575f5ffd5b5f5f5f60608486031215612d9f575f5ffd5b612da884612d77565b9250612db660208501612d77565b9150604084015163ffffffff811681146127a0575f5ffd5b5f82612de857634e487b7160e01b5f52601260045260245ffd5b50049056fea16a46d94261c7517cc8ff89f61c0ce93598e3c849801011dee649a6a557d100360894a13ba1a3210667c828492db98dca3e2076cc3735a920a3ca505d382bbca2646970667358221220ffa329f5e9ca463c1fdd42f74b9ef179fbbaa480ccece170c653c7a2d9a005ec64736f6c634300081c0033","linkReferences":{}},"methodIdentifiers":{"DEAD()":"03fd2a45","SIGN_TYPEHASH()":"2f1d14cb","UPGRADE_INTERFACE_VERSION()":"ad3cb1cc","USDT()":"c54e44eb","addLiquidity(uint256)":"51c6590a","checkerSignMsgSignature((string,address,uint256,uint256,uint256,uint8,bytes32,bytes32))":"0cb9b96a","claim((string,address,uint256,uint256,uint256,uint8,bytes32,bytes32))":"e32c03c7","eip712Domain()":"84b0196e","extractedValue(address)":"ef861786","getAmountOut(address,address,uint256)":"4aa06652","getQuoteAmount(uint256)":"2a75d5f4","getSignMsgHash((string,address,uint256,uint256,uint256,uint8,bytes32,bytes32))":"b1060225","initialize(address,address,address)":"c0c53b8b","isExcuted(string)":"4fb7726f","isExemptFrom(address)":"b915e755","lp()":"313c06a0","nonce()":"affed0e0","owner()":"8da5cb5b","permit()":"5777e93d","proxiableUUID()":"52d1902d","removeLiquidity(uint256)":"9c8f9f23","renounceOwnership()":"715018a6","setConfig(address,address,address)":"3141e25b","setExemption(address[],bool)":"8c6ce381","staking(uint256)":"1dbb2a22","stakingValue(address)":"b726caad","token()":"fc0c546a","transferOwnership(address)":"f2fde38b","uniswapV2Factory()":"59d0f713","uniswapV2Router()":"1694505e","upgradeToAndCall(address,bytes)":"4f1ef286"},"id":39}