{"abi":[{"type":"function","name":"DEAD","inputs":[],"outputs":[{"name":"","type":"address","internalType":"address"}],"stateMutability":"view"},{"type":"function","name":"SIGN_TYPEHASH","inputs":[],"outputs":[{"name":"","type":"bytes32","internalType":"bytes32"}],"stateMutability":"view"},{"type":"function","name":"UPGRADE_INTERFACE_VERSION","inputs":[],"outputs":[{"name":"","type":"string","internalType":"string"}],"stateMutability":"view"},{"type":"function","name":"USDT","inputs":[],"outputs":[{"name":"","type":"address","internalType":"address"}],"stateMutability":"view"},{"type":"function","name":"addLiquidity","inputs":[{"name":"amountToken","type":"uint256","internalType":"uint256"}],"outputs":[{"name":"_amountToken","type":"uint256","internalType":"uint256"},{"name":"_amountUsdt","type":"uint256","internalType":"uint256"},{"name":"_liquidityAmount","type":"uint256","internalType":"uint256"}],"stateMutability":"nonpayable"},{"type":"function","name":"checkerSignMsgSignature","inputs":[{"name":"_msg","type":"tuple","internalType":"struct SignatureInfo.SignMessage","components":[{"name":"mark","type":"string","internalType":"string"},{"name":"recipient","type":"address","internalType":"address"},{"name":"amount","type":"uint256","internalType":"uint256"},{"name":"nonce","type":"uint256","internalType":"uint256"},{"name":"deadline","type":"uint256","internalType":"uint256"},{"name":"v","type":"uint8","internalType":"uint8"},{"name":"r","type":"bytes32","internalType":"bytes32"},{"name":"s","type":"bytes32","internalType":"bytes32"}]}],"outputs":[{"name":"","type":"bool","internalType":"bool"}],"stateMutability":"view"},{"type":"function","name":"claim","inputs":[{"name":"_msg","type":"tuple","internalType":"struct SignatureInfo.SignMessage","components":[{"name":"mark","type":"string","internalType":"string"},{"name":"recipient","type":"address","internalType":"address"},{"name":"amount","type":"uint256","internalType":"uint256"},{"name":"nonce","type":"uint256","internalType":"uint256"},{"name":"deadline","type":"uint256","internalType":"uint256"},{"name":"v","type":"uint8","internalType":"uint8"},{"name":"r","type":"bytes32","internalType":"bytes32"},{"name":"s","type":"bytes32","internalType":"bytes32"}]}],"outputs":[],"stateMutability":"nonpayable"},{"type":"function","name":"eip712Domain","inputs":[],"outputs":[{"name":"fields","type":"bytes1","internalType":"bytes1"},{"name":"name","type":"string","internalType":"string"},{"name":"version","type":"string","internalType":"string"},{"name":"chainId","type":"uint256","internalType":"uint256"},{"name":"verifyingContract","type":"address","internalType":"address"},{"name":"salt","type":"bytes32","internalType":"bytes32"},{"name":"extensions","type":"uint256[]","internalType":"uint256[]"}],"stateMutability":"view"},{"type":"function","name":"getAmountOut","inputs":[{"name":"token0","type":"address","internalType":"address"},{"name":"token1","type":"address","internalType":"address"},{"name":"token0Amount","type":"uint256","internalType":"uint256"}],"outputs":[{"name":"","type":"uint256","internalType":"uint256"}],"stateMutability":"view"},{"type":"function","name":"getQuoteAmount","inputs":[{"name":"amountToken","type":"uint256","internalType":"uint256"}],"outputs":[{"name":"amountUsdt","type":"uint256","internalType":"uint256"}],"stateMutability":"view"},{"type":"function","name":"getSignMsgHash","inputs":[{"name":"_msg","type":"tuple","internalType":"struct SignatureInfo.SignMessage","components":[{"name":"mark","type":"string","internalType":"string"},{"name":"recipient","type":"address","internalType":"address"},{"name":"amount","type":"uint256","internalType":"uint256"},{"name":"nonce","type":"uint256","internalType":"uint256"},{"name":"deadline","type":"uint256","internalType":"uint256"},{"name":"v","type":"uint8","internalType":"uint8"},{"name":"r","type":"bytes32","internalType":"bytes32"},{"name":"s","type":"bytes32","internalType":"bytes32"}]}],"outputs":[{"name":"","type":"bytes32","internalType":"bytes32"}],"stateMutability":"view"},{"type":"function","name":"initialize","inputs":[{"name":"_token","type":"address","internalType":"address"},{"name":"_lp","type":"address","internalType":"address"},{"name":"_permit","type":"address","internalType":"address"},{"name":"_usdtRecipient","type":"address","internalType":"address"}],"outputs":[],"stateMutability":"nonpayable"},{"type":"function","name":"isExcuted","inputs":[{"name":"","type":"string","internalType":"string"}],"outputs":[{"name":"","type":"bool","internalType":"bool"}],"stateMutability":"view"},{"type":"function","name":"isRaised","inputs":[{"name":"","type":"address","internalType":"address"}],"outputs":[{"name":"","type":"bool","internalType":"bool"}],"stateMutability":"view"},{"type":"function","name":"liquidityAmount","inputs":[{"name":"","type":"address","internalType":"address"}],"outputs":[{"name":"","type":"uint256","internalType":"uint256"}],"stateMutability":"view"},{"type":"function","name":"lockLiquidity","inputs":[{"name":"mark","type":"string","internalType":"string"},{"name":"users","type":"address[]","internalType":"address[]"},{"name":"amounts","type":"uint256[]","internalType":"uint256[]"}],"outputs":[],"stateMutability":"nonpayable"},{"type":"function","name":"lp","inputs":[],"outputs":[{"name":"","type":"address","internalType":"address"}],"stateMutability":"view"},{"type":"function","name":"nonce","inputs":[],"outputs":[{"name":"","type":"uint256","internalType":"uint256"}],"stateMutability":"view"},{"type":"function","name":"owner","inputs":[],"outputs":[{"name":"","type":"address","internalType":"address"}],"stateMutability":"view"},{"type":"function","name":"permit","inputs":[],"outputs":[{"name":"","type":"address","internalType":"address"}],"stateMutability":"view"},{"type":"function","name":"proxiableUUID","inputs":[],"outputs":[{"name":"","type":"bytes32","internalType":"bytes32"}],"stateMutability":"view"},{"type":"function","name":"raiseWhitelist","inputs":[{"name":"","type":"address","internalType":"address"}],"outputs":[{"name":"","type":"bool","internalType":"bool"}],"stateMutability":"view"},{"type":"function","name":"raisefunds","inputs":[{"name":"amountUsdt","type":"uint256","internalType":"uint256"}],"outputs":[],"stateMutability":"nonpayable"},{"type":"function","name":"removeLiquidity","inputs":[{"name":"_liquidity","type":"uint256","internalType":"uint256"}],"outputs":[],"stateMutability":"nonpayable"},{"type":"function","name":"removeLiquidityOfRaiseFunds","inputs":[],"outputs":[],"stateMutability":"nonpayable"},{"type":"function","name":"renounceOwnership","inputs":[],"outputs":[],"stateMutability":"nonpayable"},{"type":"function","name":"serchLiquidityBalance","inputs":[{"name":"_user","type":"address","internalType":"address"}],"outputs":[{"name":"","type":"uint256","internalType":"uint256"}],"stateMutability":"view"},{"type":"function","name":"setConfig","inputs":[{"name":"_token","type":"address","internalType":"address"},{"name":"_lp","type":"address","internalType":"address"},{"name":"_permit","type":"address","internalType":"address"}],"outputs":[],"stateMutability":"nonpayable"},{"type":"function","name":"setRaiseWhitelist","inputs":[{"name":"_users","type":"address[]","internalType":"address[]"},{"name":"_status","type":"bool","internalType":"bool"}],"outputs":[],"stateMutability":"nonpayable"},{"type":"function","name":"staking","inputs":[{"name":"amountToken","type":"uint256","internalType":"uint256"}],"outputs":[],"stateMutability":"nonpayable"},{"type":"function","name":"token","inputs":[],"outputs":[{"name":"","type":"address","internalType":"address"}],"stateMutability":"view"},{"type":"function","name":"transferOwnership","inputs":[{"name":"newOwner","type":"address","internalType":"address"}],"outputs":[],"stateMutability":"nonpayable"},{"type":"function","name":"uniswapV2Factory","inputs":[],"outputs":[{"name":"","type":"address","internalType":"address"}],"stateMutability":"view"},{"type":"function","name":"uniswapV2Router","inputs":[],"outputs":[{"name":"","type":"address","internalType":"address"}],"stateMutability":"view"},{"type":"function","name":"upgradeToAndCall","inputs":[{"name":"newImplementation","type":"address","internalType":"address"},{"name":"data","type":"bytes","internalType":"bytes"}],"outputs":[],"stateMutability":"payable"},{"type":"function","name":"usdtRecipient","inputs":[],"outputs":[{"name":"","type":"address","internalType":"address"}],"stateMutability":"view"},{"type":"event","name":"Claimed","inputs":[{"name":"mark","type":"string","indexed":false,"internalType":"string"},{"name":"recipient","type":"address","indexed":false,"internalType":"address"},{"name":"amount","type":"uint256","indexed":false,"internalType":"uint256"},{"name":"time","type":"uint256","indexed":false,"internalType":"uint256"}],"anonymous":false},{"type":"event","name":"EIP712DomainChanged","inputs":[],"anonymous":false},{"type":"event","name":"Initialized","inputs":[{"name":"version","type":"uint64","indexed":false,"internalType":"uint64"}],"anonymous":false},{"type":"event","name":"Locked","inputs":[{"name":"mark","type":"string","indexed":false,"internalType":"string"},{"name":"length","type":"uint256","indexed":false,"internalType":"uint256"},{"name":"time","type":"uint256","indexed":false,"internalType":"uint256"}],"anonymous":false},{"type":"event","name":"OwnershipTransferred","inputs":[{"name":"previousOwner","type":"address","indexed":true,"internalType":"address"},{"name":"newOwner","type":"address","indexed":true,"internalType":"address"}],"anonymous":false},{"type":"event","name":"Raised","inputs":[{"name":"sender","type":"address","indexed":false,"internalType":"address"},{"name":"amount","type":"uint256","indexed":false,"internalType":"uint256"},{"name":"time","type":"uint256","indexed":false,"internalType":"uint256"}],"anonymous":false},{"type":"event","name":"Staked","inputs":[{"name":"staker","type":"address","indexed":false,"internalType":"address"},{"name":"amount","type":"uint256","indexed":false,"internalType":"uint256"},{"name":"time","type":"uint256","indexed":false,"internalType":"uint256"}],"anonymous":false},{"type":"event","name":"Upgraded","inputs":[{"name":"implementation","type":"address","indexed":true,"internalType":"address"}],"anonymous":false},{"type":"error","name":"AddressEmptyCode","inputs":[{"name":"target","type":"address","internalType":"address"}]},{"type":"error","name":"ECDSAInvalidSignature","inputs":[]},{"type":"error","name":"ECDSAInvalidSignatureLength","inputs":[{"name":"length","type":"uint256","internalType":"uint256"}]},{"type":"error","name":"ECDSAInvalidSignatureS","inputs":[{"name":"s","type":"bytes32","internalType":"bytes32"}]},{"type":"error","name":"ERC1967InvalidImplementation","inputs":[{"name":"implementation","type":"address","internalType":"address"}]},{"type":"error","name":"ERC1967NonPayable","inputs":[]},{"type":"error","name":"FailedCall","inputs":[]},{"type":"error","name":"InvalidInitialization","inputs":[]},{"type":"error","name":"NotInitializing","inputs":[]},{"type":"error","name":"OwnableInvalidOwner","inputs":[{"name":"owner","type":"address","internalType":"address"}]},{"type":"error","name":"OwnableUnauthorizedAccount","inputs":[{"name":"account","type":"address","internalType":"address"}]},{"type":"error","name":"ReentrancyGuardReentrantCall","inputs":[]},{"type":"error","name":"UUPSUnauthorizedCallContext","inputs":[]},{"type":"error","name":"UUPSUnsupportedProxiableUUID","inputs":[{"name":"slot","type":"bytes32","internalType":"bytes32"}]}],"bytecode":{"object":"0x60a0604052306080523480156012575f5ffd5b5060015f556080516138a561003d5f395f81816116c3015281816116ec015261194701526138a55ff3fe608060405260043610610207575f3560e01c80635c3da87e11610113578063ad3cb1cc1161009d578063e32c03c71161006d578063e32c03c714610689578063e475ea88146106a8578063f2fde38b146106c7578063f8c8765e146106e6578063fc0c546a14610705575f5ffd5b8063ad3cb1cc146105f8578063affed0e014610635578063b10602251461064a578063c54e44eb14610669575f5ffd5b806380565655116100e3578063805656551461052957806384b0196e146105485780638da5cb5b1461056f5780638e24d68b146105ab5780639c8f9f23146105d9575f5ffd5b80635c3da87e146104c357806362d284b2146104e25780636c48ba95146104f6578063715018a614610515575f5ffd5b806335e344f2116101945780634fb7726f116101645780634fb7726f146103f557806351c6590a1461042f57806352d1902d146104695780635777e93d1461047d57806359d0f7131461049c575f5ffd5b806335e344f21461037957806336b4733d146103a45780634aa06652146103c35780634f1ef286146103e2575f5ffd5b80631dbb2a22116101da5780631dbb2a22146102ba5780632a75d5f4146102db5780632f1d14cb14610308578063313c06a01461033b5780633141e25b1461035a575f5ffd5b806303fd2a451461020b5780630cb9b96a1461023d5780630e3ae3421461026c5780631694505e1461029a575b5f5ffd5b348015610216575f5ffd5b5061022061dead81565b6040516001600160a01b0390911681526020015b60405180910390f35b348015610248575f5ffd5b5061025c610257366004612e15565b610724565b6040519015158152602001610234565b348015610277575f5ffd5b5061025c610286366004612ed6565b60096020525f908152604090205460ff1681565b3480156102a5575f5ffd5b506102205f5160206137f05f395f51905f5281565b3480156102c5575f5ffd5b506102d96102d4366004612ef1565b610763565b005b3480156102e6575f5ffd5b506102fa6102f5366004612ef1565b6107c4565b604051908152602001610234565b348015610313575f5ffd5b506102fa7f401e12293d17637080047390ba6da57cad06bbf1eb753b40b6cc8a62145ea2c281565b348015610346575f5ffd5b50600354610220906001600160a01b031681565b348015610365575f5ffd5b506102d9610374366004612f08565b6107f0565b348015610384575f5ffd5b506102fa610393366004612ed6565b60076020525f908152604090205481565b3480156103af575f5ffd5b506102fa6103be366004612ed6565b610881565b3480156103ce575f5ffd5b506102fa6103dd366004612f50565b6108ed565b6102d96103f0366004612f8e565b610a0e565b348015610400575f5ffd5b5061025c61040f366004612fed565b805160208183018101805160018252928201919093012091525460ff1681565b34801561043a575f5ffd5b5061044e610449366004612ef1565b610a2d565b60408051938452602084019290925290820152606001610234565b348015610474575f5ffd5b506102fa610a93565b348015610488575f5ffd5b50600454610220906001600160a01b031681565b3480156104a7575f5ffd5b5061022073ca143ce32fe78f1f7019d7d551a6402fc5350c7381565b3480156104ce575f5ffd5b50600554610220906001600160a01b031681565b3480156104ed575f5ffd5b506102d9610aae565b348015610501575f5ffd5b506102d96105103660046130b3565b610b5c565b348015610520575f5ffd5b506102d9610c98565b348015610534575f5ffd5b506102d9610543366004612ef1565b610cab565b348015610553575f5ffd5b5061055c610e31565b60405161023497969594939291906131c5565b34801561057a575f5ffd5b507f9016d09d72d40fdae2fd8ceac6b6234c7706214fd39c1cd1e609a0528c199300546001600160a01b0316610220565b3480156105b6575f5ffd5b5061025c6105c5366004612ed6565b60086020525f908152604090205460ff1681565b3480156105e4575f5ffd5b506102d96105f3366004612ef1565b610eda565b348015610603575f5ffd5b50610628604051806040016040528060058152602001640352e302e360dc1b81525081565b604051610234919061325b565b348015610640575f5ffd5b506102fa60065481565b348015610655575f5ffd5b506102fa610664366004612e15565b610fab565b348015610674575f5ffd5b506102205f5160206138505f395f51905f5281565b348015610694575f5ffd5b506102d96106a3366004612e15565b61106a565b3480156106b3575f5ffd5b506102d96106c236600461327a565b611295565b3480156106d2575f5ffd5b506102d96106e1366004612ed6565b61133a565b3480156106f1575f5ffd5b506102d96107003660046132c8565b611377565b348015610710575f5ffd5b50600254610220906001600160a01b031681565b5f5f61072f83610fab565b90505f61074a828560a001518660c001518760e00151611506565b6004546001600160a01b03918216911614949350505050565b60025461077d906001600160a01b03163361dead84611532565b604080513381526020810183905242918101919091527f1449c6dd7851abc30abf37f57715f492010519147cc2652fbc38202c18a6ee90906060015b60405180910390a150565b6002545f906107ea906001600160a01b03165f5160206138505f395f51905f52846108ed565b92915050565b6107f861165d565b6001600160a01b0383166108425760405162461bcd60e51b815260206004820152600c60248201526b5a65726f206164647265737360a01b60448201526064015b60405180910390fd5b600280546001600160a01b039485166001600160a01b031991821617909155600380549385169382169390931790925560048054919093169116179055565b6003546040516370a0823160e01b81526001600160a01b0383811660048301525f9216906370a0823190602401602060405180830381865afa1580156108c9573d5f5f3e3d5ffd5b505050506040513d601f19601f820116820180604052508101906107ea9190613321565b6040805160028082526060820183525f928392919060208301908036833701905050905084815f8151811061092457610924613338565b60200260200101906001600160a01b031690816001600160a01b031681525050838160018151811061095857610958613338565b6001600160a01b039092166020928302919091019091015260405163d06ca61f60e01b81525f905f5160206137f05f395f51905f529063d06ca61f906109a4908790869060040161338f565b5f60405180830381865afa1580156109be573d5f5f3e3d5ffd5b505050506040513d5f823e601f3d908101601f191682016040526109e591908101906133a7565b9050806001815181106109fa576109fa613338565b6020026020010151925050505b9392505050565b610a166116b8565b610a1f8261175c565b610a298282611764565b5050565b6002545f90819081908190610a59906001600160a01b03165f5160206138505f395f51905f52876108ed565b600254909150610a85906001600160a01b03165f5160206138505f395f51905f5287845f803342611820565b919790965090945092505050565b5f610a9c61193c565b505f5160206138305f395f51905f5290565b335f9081526007602052604090205480610b0a5760405162461bcd60e51b815260206004820152601760248201527f4e6f206c697175696469747920746f2072656d6f76652e0000000000000000006044820152606401610839565b335f90815260076020526040812081905580610b2583611985565b90925090508115610b4857610b485f5160206138505f395f51905f523384611a4b565b8015610b5757610b5781611b61565b505050565b6004546001600160a01b03163314610ba75760405162461bcd60e51b815260206004820152600e60248201526d2737ba103637b1b59037bbb732b960911b6044820152606401610839565b5f5b8251811015610c56575f6001600160a01b0316838281518110610bce57610bce613338565b60200260200101516001600160a01b031614610c4e57818181518110610bf657610bf6613338565b602002602001015160075f858481518110610c1357610c13613338565b60200260200101516001600160a01b03166001600160a01b031681526020019081526020015f205f828254610c48919061344b565b90915550505b600101610ba9565b507f39e174261df792b5d2e3981704f9d6e9b7da0c266054789ffe7a68664c98d81283835142604051610c8b9392919061345e565b60405180910390a1505050565b610ca061165d565b610ca95f611bd6565b565b68056bc75e2d63100000811015610d125760405162461bcd60e51b815260206004820152602560248201527f4174206c65617374203130305553445420746f6b656e7320617265207265717560448201526434b932b21760d91b6064820152608401610839565b335f9081526008602052604090205460ff16610d635760405162461bcd60e51b815260206004820152601060248201526f139bdd081a5b881dda1a5d195b1a5cdd60821b6044820152606401610839565b335f9081526009602052604090205460ff1615610db35760405162461bcd60e51b815260206004820152600e60248201526d105b1c9958591e481c985a5cd95960921b6044820152606401610839565b335f818152600960205260409020805460ff19166001179055600554610df1915f5160206138505f395f51905f52916001600160a01b031684611532565b604080513381526020810183905242918101919091527f81586804950c8c0e8f895a028daff441e42b97c5d67b2d4f32a3007bfffa4cd7906060016107b9565b5f60608082808083815f5160206138105f395f51905f528054909150158015610e5c57506001810154155b610ea05760405162461bcd60e51b81526020600482015260156024820152741152540dcc4c8e88155b9a5b9a5d1a585b1a5e9959605a1b6044820152606401610839565b610ea8611c46565b610eb0611d06565b604080515f80825260208201909252600f60f81b9c939b5091995046985030975095509350915050565b600354610ef2906001600160a01b0316333084611532565b600354610f16906001600160a01b03165f5160206137f05f395f51905f5283611d44565b600254604051635d5155ef60e11b81525f5160206137f05f395f51905f529163baa2abde91610f6c915f5160206138505f395f51905f52916001600160a01b039091169086905f90819033904290600401613482565b60408051808303815f875af1158015610f87573d5f5f3e3d5ffd5b505050506040513d601f19601f82011682018060405250810190610b5791906134c2565b5f6107ea7f401e12293d17637080047390ba6da57cad06bbf1eb753b40b6cc8a62145ea2c2835f0151604051602001610fe491906134fb565b60405160208183030381529060405280519060200120846020015185604001518660600151876080015160405160200161104f9695949392919095865260208601949094526001600160a01b039290921660408501526060840152608083015260a082015260c00190565b60405160208183030381529060405280519060200120611e24565b6006548160600151146110ae5760405162461bcd60e51b815260206004820152600c60248201526b2737b731b29032b93937b91760a11b6044820152606401610839565b42816080015110156110f45760405162461bcd60e51b815260206004820152600f60248201526e2232b0b23634b7329032b93937b91760891b6044820152606401610839565b8051604051600191611105916134fb565b9081526040519081900360200190205460ff16156111545760405162461bcd60e51b815260206004820152600c60248201526b13585c9ac8195e18dd5d195960a21b6044820152606401610839565b61115d81610724565b6111a25760405162461bcd60e51b815260206004820152601660248201527521b432b1b59039b4b3b730ba3ab9329032b93937b91760511b6044820152606401610839565b600254602082015160408084015190516340c10f1960e01b81526001600160a01b03928316600482015260248101919091529116906340c10f19906044015f604051808303815f87803b1580156111f7575f5ffd5b505af1158015611209573d5f5f3e3d5ffd5b50505050600180825f015160405161122191906134fb565b908152604051908190036020019020805491151560ff1990921691909117905560068054905f61125083613506565b91905055507fb560b68b858b38da022e769a634986c1eced94a3867ed159888c34fe7510cbf4815f015182602001518360400151426040516107b9949392919061351e565b6004546001600160a01b031633146112e05760405162461bcd60e51b815260206004820152600e60248201526d2737ba103637b1b59037bbb732b960911b6044820152606401610839565b5f5b8251811015610b57578160085f85848151811061130157611301613338565b6020908102919091018101516001600160a01b031682528101919091526040015f20805460ff19169115159190911790556001016112e2565b61134261165d565b6001600160a01b03811661136b57604051631e4fbdf760e01b81525f6004820152602401610839565b61137481611bd6565b50565b5f611380611e50565b805490915060ff600160401b82041615906001600160401b03165f811580156113a65750825b90505f826001600160401b031660011480156113c15750303b155b9050811580156113cf575080155b156113ed5760405163f92ee8a960e01b815260040160405180910390fd5b845467ffffffffffffffff19166001178555831561141757845460ff60401b1916600160401b1785555b61145a6040518060400160405280600881526020016726b4b734b733ab1960c11b815250604051806040016040528060018152602001603160f81b815250611e78565b61146333611ed7565b61146b611edf565b600280546001600160a01b03808c166001600160a01b031992831617909255600380548b8416908316179055600480548a8416908316179055600580549289169290911691909117905583156114fb57845460ff60401b19168555604051600181527fc7f505b2f371ae2175ee4913f4499e1f2633a7b5936321eed1cdaeb6115181d29060200160405180910390a15b505050505050505050565b5f5f5f5f61151688888888611ee7565b9250925092506115268282611faf565b50909695505050505050565b604080516001600160a01b0385811660248301528481166044830152606480830185905283518084039091018152608490920183526020820180516001600160e01b03166323b872dd60e01b17905291515f9283929088169161159591906134fb565b5f604051808303815f865af19150503d805f81146115ce576040519150601f19603f3d011682016040523d82523d5f602084013e6115d3565b606091505b50915091508180156115fd5750805115806115fd5750808060200190518101906115fd9190613555565b6116555760405162461bcd60e51b8152602060048201526024808201527f5472616e7366657248656c7065723a205452414e534645525f46524f4d5f46416044820152631253115160e21b6064820152608401610839565b505050505050565b3361168f7f9016d09d72d40fdae2fd8ceac6b6234c7706214fd39c1cd1e609a0528c199300546001600160a01b031690565b6001600160a01b031614610ca95760405163118cdaa760e01b8152336004820152602401610839565b306001600160a01b037f000000000000000000000000000000000000000000000000000000000000000016148061173e57507f00000000000000000000000000000000000000000000000000000000000000006001600160a01b03166117325f5160206138305f395f51905f52546001600160a01b031690565b6001600160a01b031614155b15610ca95760405163703e46dd60e11b815260040160405180910390fd5b61137461165d565b816001600160a01b03166352d1902d6040518163ffffffff1660e01b8152600401602060405180830381865afa9250505080156117be575060408051601f3d908101601f191682019092526117bb91810190613321565b60015b6117e657604051634c9c8ce360e01b81526001600160a01b0383166004820152602401610839565b5f5160206138305f395f51905f52811461181657604051632a87526960e21b815260048101829052602401610839565b610b578383612067565b5f5f5f83428110156118745760405162461bcd60e51b815260206004820152601860248201527f556e69737761705632526f757465723a204558504952454400000000000000006044820152606401610839565b6118828c8c8c8c8c8c6120bc565b90945092505f6118a773ca143ce32fe78f1f7019d7d551a6402fc5350c738e8e61232a565b90506118b58d338388611532565b6118c18c338387611532565b6040516335313c2160e11b81526001600160a01b038881166004830152821690636a627842906024016020604051808303815f875af1158015611906573d5f5f3e3d5ffd5b505050506040513d601f19601f8201168201806040525081019061192a9190613321565b92505050985098509895505050505050565b306001600160a01b037f00000000000000000000000000000000000000000000000000000000000000001614610ca95760405163703e46dd60e11b815260040160405180910390fd5b6003545f9081906119ad906001600160a01b03165f5160206137f05f395f51905f5285611d44565b600254604051635d5155ef60e11b81525f5160206137f05f395f51905f529163baa2abde91611a03915f5160206138505f395f51905f52916001600160a01b039091169088905f90819030904290600401613482565b60408051808303815f875af1158015611a1e573d5f5f3e3d5ffd5b505050506040513d601f19601f82011682018060405250810190611a4291906134c2565b91509150915091565b604080516001600160a01b038481166024830152604480830185905283518084039091018152606490920183526020820180516001600160e01b031663a9059cbb60e01b17905291515f92839290871691611aa691906134fb565b5f604051808303815f865af19150503d805f8114611adf576040519150601f19603f3d011682016040523d82523d5f602084013e611ae4565b606091505b5091509150818015611b0e575080511580611b0e575080806020019051810190611b0e9190613555565b611b5a5760405162461bcd60e51b815260206004820152601f60248201527f5472616e7366657248656c7065723a205452414e534645525f4641494c4544006044820152606401610839565b5050505050565b5f611b6d600283613570565b90505f611b7a828461358f565b600254909150611b96906001600160a01b031661dead84611a4b565b5f611ba082612400565b90508015611bb757611bb28282612621565b611bd0565b600254611bd0906001600160a01b031661dead84611a4b565b50505050565b7f9016d09d72d40fdae2fd8ceac6b6234c7706214fd39c1cd1e609a0528c19930080546001600160a01b031981166001600160a01b03848116918217845560405192169182907f8be0079c531659141344cd1fd0a4f28419497f9722a3daafe3b4186f6b6457e0905f90a3505050565b7fa16a46d94261c7517cc8ff89f61c0ce93598e3c849801011dee649a6a557d10280546060915f5160206138105f395f51905f5291611c84906135a2565b80601f0160208091040260200160405190810160405280929190818152602001828054611cb0906135a2565b8015611cfb5780601f10611cd257610100808354040283529160200191611cfb565b820191905f5260205f20905b815481529060010190602001808311611cde57829003601f168201915b505050505091505090565b7fa16a46d94261c7517cc8ff89f61c0ce93598e3c849801011dee649a6a557d10380546060915f5160206138105f395f51905f5291611c84906135a2565b60405163095ea7b360e01b81526001600160a01b0383811660048301525f602483015284169063095ea7b3906044016020604051808303815f875af1158015611d8f573d5f5f3e3d5ffd5b505050506040513d601f19601f82011682018060405250810190611db39190613555565b5060405163095ea7b360e01b81526001600160a01b0383811660048301526024820183905284169063095ea7b3906044016020604051808303815f875af1158015611e00573d5f5f3e3d5ffd5b505050506040513d601f19601f82011682018060405250810190611bd09190613555565b5f6107ea611e3061271e565b8360405161190160f01b8152600281019290925260228201526042902090565b5f807ff0c57e16840df040f15088dc2f81fe391c3923bec73e23a9662efc9c229c6a006107ea565b611e8061272c565b5f5160206138105f395f51905f527fa16a46d94261c7517cc8ff89f61c0ce93598e3c849801011dee649a6a557d102611eb9848261361e565b5060038101611ec8838261361e565b505f8082556001909101555050565b61134261272c565b610ca961272c565b5f80807f7fffffffffffffffffffffffffffffff5d576e7357a4501ddfe92f46681b20a0841115611f2057505f91506003905082611fa5565b604080515f808252602082018084528a905260ff891692820192909252606081018790526080810186905260019060a0016020604051602081039080840390855afa158015611f71573d5f5f3e3d5ffd5b5050604051601f1901519150506001600160a01b038116611f9c57505f925060019150829050611fa5565b92505f91508190505b9450945094915050565b5f826003811115611fc257611fc26136d8565b03611fcb575050565b6001826003811115611fdf57611fdf6136d8565b03611ffd5760405163f645eedf60e01b815260040160405180910390fd5b6002826003811115612011576120116136d8565b036120325760405163fce698f760e01b815260048101829052602401610839565b6003826003811115612046576120466136d8565b03610a29576040516335e2f38360e21b815260048101829052602401610839565b61207082612751565b6040516001600160a01b038316907fbc7cd75a20ee27fd9adebab32041f755214dbc6bffa90cc0225b39da2e5c2d3b905f90a28051156120b457610b5782826127b4565b610a2961281d565b60405163e6a4390560e01b81526001600160a01b038088166004830152861660248201525f908190819073ca143ce32fe78f1f7019d7d551a6402fc5350c739063e6a4390590604401602060405180830381865afa158015612120573d5f5f3e3d5ffd5b505050506040513d601f19601f8201168201806040525081019061214491906136ec565b6001600160a01b0316036121d7576040516364e329cb60e11b81526001600160a01b03808a1660048301528816602482015273ca143ce32fe78f1f7019d7d551a6402fc5350c739063c9c65396906044016020604051808303815f875af11580156121b1573d5f5f3e3d5ffd5b505050506040513d601f19601f820116820180604052508101906121d591906136ec565b505b5f5f6121f873ca143ce32fe78f1f7019d7d551a6402fc5350c738b8b61283c565b91509150815f148015612209575080155b156122195787935086925061231d565b5f612225898484612901565b9050878111612298578581101561228d5760405162461bcd60e51b815260206004820152602660248201527f556e69737761705632526f757465723a20494e53554646494349454e545f425f604482015265105353d5539560d21b6064820152608401610839565b88945092508261231b565b5f6122a4898486612901565b9050898111156122b6576122b6613707565b878110156123155760405162461bcd60e51b815260206004820152602660248201527f556e69737761705632526f757465723a20494e53554646494349454e545f415f604482015265105353d5539560d21b6064820152608401610839565b94508793505b505b5050965096945050505050565b5f5f5f61233785856129e7565b6040516bffffffffffffffffffffffff19606084811b8216602084015283901b16603482015291935091508690604801604051602081830303815290604052805190602001206040516020016123de9291906001600160f81b0319815260609290921b6bffffffffffffffffffffffff1916600183015260158201527efb7f630766e6a796048ea87d01acd3068e8ff67d078148a3fa3f4a84f69bd5603582015260550190565b60408051601f1981840301815291905280516020909101209695505050505050565b5f815f0361240f57505f919050565b600254612433906001600160a01b03165f5160206137f05f395f51905f5284611d44565b6040805160028082526060820183525f92602083019080368337505060025482519293506001600160a01b0316918391505f9061247257612472613338565b60200260200101906001600160a01b031690816001600160a01b0316815250505f5160206138505f395f51905f52816001815181106124b3576124b3613338565b6001600160a01b0392909216602092830291909101909101526040516370a0823160e01b81523060048201525f905f5160206138505f395f51905f52906370a0823190602401602060405180830381865afa158015612514573d5f5f3e3d5ffd5b505050506040513d601f19601f820116820180604052508101906125389190613321565b604051635c11d79560e01b81529091505f5160206137f05f395f51905f5290635c11d795906125739087905f9087903090429060040161371b565b5f604051808303815f87803b15801561258a575f5ffd5b505af115801561259c573d5f5f3e3d5ffd5b50506040516370a0823160e01b81523060048201525f92505f5160206138505f395f51905f5291506370a0823190602401602060405180830381865afa1580156125e8573d5f5f3e3d5ffd5b505050506040513d601f19601f8201168201806040525081019061260c9190613321565b9050612618828261358f565b95945050505050565b600254612645906001600160a01b03165f5160206137f05f395f51905f5284611d44565b61266a5f5160206138505f395f51905f525f5160206137f05f395f51905f5283611d44565b60025460405162e8e33760e81b81526001600160a01b0390911660048201525f5160206138505f395f51905f52602482015260448101839052606481018290525f6084820181905260a482015261dead60c48201524260e48201525f5160206137f05f395f51905f529063e8e3370090610104016060604051808303815f875af11580156126fa573d5f5f3e3d5ffd5b505050506040513d601f19601f82011682018060405250810190611b5a9190613756565b5f612727612add565b905090565b612734612b50565b610ca957604051631afcd79f60e31b815260040160405180910390fd5b806001600160a01b03163b5f0361278657604051634c9c8ce360e01b81526001600160a01b0382166004820152602401610839565b5f5160206138305f395f51905f5280546001600160a01b0319166001600160a01b0392909216919091179055565b60605f5f846001600160a01b0316846040516127d091906134fb565b5f60405180830381855af49150503d805f8114612808576040519150601f19603f3d011682016040523d82523d5f602084013e61280d565b606091505b5091509150612618858383612b69565b3415610ca95760405163b398979f60e01b815260040160405180910390fd5b5f5f5f61284985856129e7565b5090505f5f61285988888861232a565b6001600160a01b0316630902f1ac6040518163ffffffff1660e01b8152600401606060405180830381865afa158015612894573d5f5f3e3d5ffd5b505050506040513d601f19601f820116820180604052508101906128b89190613797565b506001600160701b031691506001600160701b03169150826001600160a01b0316876001600160a01b0316146128ef5780826128f2565b81815b90999098509650505050505050565b5f5f841161295f5760405162461bcd60e51b815260206004820152602560248201527f556e697377617056324c6962726172793a20494e53554646494349454e545f416044820152641353d5539560da1b6064820152608401610839565b5f8311801561296d57505f82115b6129ca5760405162461bcd60e51b815260206004820152602860248201527f556e697377617056324c6962726172793a20494e53554646494349454e545f4c604482015267495155494449545960c01b6064820152608401610839565b826129d58584612bc5565b6129df9190613570565b949350505050565b5f5f826001600160a01b0316846001600160a01b031603612a585760405162461bcd60e51b815260206004820152602560248201527f556e697377617056324c6962726172793a204944454e544943414c5f41444452604482015264455353455360d81b6064820152608401610839565b826001600160a01b0316846001600160a01b031610612a78578284612a7b565b83835b90925090506001600160a01b038216612ad65760405162461bcd60e51b815260206004820152601e60248201527f556e697377617056324c6962726172793a205a45524f5f4144445245535300006044820152606401610839565b9250929050565b5f7f8b73c3c69bb8fe3d512ecc4cf759cc79239f7b179b0ffacaa9a75d522b39400f612b07612c2b565b612b0f612c93565b60408051602081019490945283019190915260608201524660808201523060a082015260c00160405160208183030381529060405280519060200120905090565b5f612b59611e50565b54600160401b900460ff16919050565b606082612b7e57612b7982612cd5565b610a07565b8151158015612b9557506001600160a01b0384163b155b15612bbe57604051639996b31560e01b81526001600160a01b0385166004820152602401610839565b5080610a07565b5f811580612be857508282612bda81836137d8565b9250612be69083613570565b145b6107ea5760405162461bcd60e51b815260206004820152601460248201527364732d6d6174682d6d756c2d6f766572666c6f7760601b6044820152606401610839565b5f5f5160206138105f395f51905f5281612c43611c46565b805190915015612c5b57805160209091012092915050565b81548015612c6a579392505050565b7fc5d2460186f7233c927e7db2dcc703c0e500b653ca82273b7bfad8045d85a470935050505090565b5f5f5160206138105f395f51905f5281612cab611d06565b805190915015612cc357805160209091012092915050565b60018201548015612c6a579392505050565b805115612ce55780518082602001fd5b60405163d6bda27560e01b815260040160405180910390fd5b634e487b7160e01b5f52604160045260245ffd5b60405161010081016001600160401b0381118282101715612d3557612d35612cfe565b60405290565b604051601f8201601f191681016001600160401b0381118282101715612d6357612d63612cfe565b604052919050565b5f5f6001600160401b03841115612d8457612d84612cfe565b50601f8301601f1916602001612d9981612d3b565b915050828152838383011115612dad575f5ffd5b828260208301375f602084830101529392505050565b5f82601f830112612dd2575f5ffd5b610a0783833560208501612d6b565b6001600160a01b0381168114611374575f5ffd5b8035612e0081612de1565b919050565b803560ff81168114612e00575f5ffd5b5f60208284031215612e25575f5ffd5b81356001600160401b03811115612e3a575f5ffd5b82016101008185031215612e4c575f5ffd5b612e54612d12565b81356001600160401b03811115612e69575f5ffd5b612e7586828501612dc3565b825250612e8460208301612df5565b6020820152604082810135908201526060808301359082015260808083013590820152612eb360a08301612e05565b60a082015260c0828101359082015260e091820135918101919091529392505050565b5f60208284031215612ee6575f5ffd5b8135610a0781612de1565b5f60208284031215612f01575f5ffd5b5035919050565b5f5f5f60608486031215612f1a575f5ffd5b8335612f2581612de1565b92506020840135612f3581612de1565b91506040840135612f4581612de1565b809150509250925092565b5f5f5f60608486031215612f62575f5ffd5b8335612f6d81612de1565b92506020840135612f7d81612de1565b929592945050506040919091013590565b5f5f60408385031215612f9f575f5ffd5b8235612faa81612de1565b915060208301356001600160401b03811115612fc4575f5ffd5b8301601f81018513612fd4575f5ffd5b612fe385823560208401612d6b565b9150509250929050565b5f60208284031215612ffd575f5ffd5b81356001600160401b03811115613012575f5ffd5b6129df84828501612dc3565b5f6001600160401b0382111561303657613036612cfe565b5060051b60200190565b5f82601f83011261304f575f5ffd5b813561306261305d8261301e565b612d3b565b8082825260208201915060208360051b860101925085831115613083575f5ffd5b602085015b838110156130a957803561309b81612de1565b835260209283019201613088565b5095945050505050565b5f5f5f606084860312156130c5575f5ffd5b83356001600160401b038111156130da575f5ffd5b6130e686828701612dc3565b93505060208401356001600160401b03811115613101575f5ffd5b61310d86828701613040565b92505060408401356001600160401b03811115613128575f5ffd5b8401601f81018613613138575f5ffd5b803561314661305d8261301e565b8082825260208201915060208360051b850101925088831115613167575f5ffd5b6020840193505b8284101561318957833582526020938401939091019061316e565b809450505050509250925092565b5f81518084528060208401602086015e5f602082860101526020601f19601f83011685010191505092915050565b60ff60f81b8816815260e060208201525f6131e360e0830189613197565b82810360408401526131f58189613197565b606084018890526001600160a01b038716608085015260a0840186905283810360c0850152845180825260208087019350909101905f5b8181101561324a57835183526020938401939092019160010161322c565b50909b9a5050505050505050505050565b602081525f610a076020830184613197565b8015158114611374575f5ffd5b5f5f6040838503121561328b575f5ffd5b82356001600160401b038111156132a0575f5ffd5b6132ac85828601613040565b92505060208301356132bd8161326d565b809150509250929050565b5f5f5f5f608085870312156132db575f5ffd5b84356132e681612de1565b935060208501356132f681612de1565b9250604085013561330681612de1565b9150606085013561331681612de1565b939692955090935050565b5f60208284031215613331575f5ffd5b5051919050565b634e487b7160e01b5f52603260045260245ffd5b5f8151808452602084019350602083015f5b828110156133855781516001600160a01b031686526020958601959091019060010161335e565b5093949350505050565b828152604060208201525f6129df604083018461334c565b5f602082840312156133b7575f5ffd5b81516001600160401b038111156133cc575f5ffd5b8201601f810184136133dc575f5ffd5b80516133ea61305d8261301e565b8082825260208201915060208360051b85010192508683111561340b575f5ffd5b6020840193505b8284101561342d578351825260209384019390910190613412565b9695505050505050565b634e487b7160e01b5f52601160045260245ffd5b808201808211156107ea576107ea613437565b606081525f6134706060830186613197565b60208301949094525060400152919050565b6001600160a01b039788168152958716602087015260408601949094526060850192909252608084015290921660a082015260c081019190915260e00190565b5f5f604083850312156134d3575f5ffd5b505080516020909101519092909150565b5f81518060208401855e5f93019283525090919050565b5f610a0782846134e4565b5f6001820161351757613517613437565b5060010190565b608081525f6135306080830187613197565b6001600160a01b03959095166020830152506040810192909252606090910152919050565b5f60208284031215613565575f5ffd5b8151610a078161326d565b5f8261358a57634e487b7160e01b5f52601260045260245ffd5b500490565b818103818111156107ea576107ea613437565b600181811c908216806135b657607f821691505b6020821081036135d457634e487b7160e01b5f52602260045260245ffd5b50919050565b601f821115610b5757805f5260205f20601f840160051c810160208510156135ff5750805b601f840160051c820191505b81811015611b5a575f815560010161360b565b81516001600160401b0381111561363757613637612cfe565b61364b8161364584546135a2565b846135da565b6020601f82116001811461367d575f83156136665750848201515b5f19600385901b1c1916600184901b178455611b5a565b5f84815260208120601f198516915b828110156136ac578785015182556020948501946001909201910161368c565b50848210156136c957868401515f19600387901b60f8161c191681555b50505050600190811b01905550565b634e487b7160e01b5f52602160045260245ffd5b5f602082840312156136fc575f5ffd5b8151610a0781612de1565b634e487b7160e01b5f52600160045260245ffd5b85815284602082015260a060408201525f61373960a083018661334c565b6001600160a01b0394909416606083015250608001529392505050565b5f5f5f60608486031215613768575f5ffd5b5050815160208301516040909301519094929350919050565b80516001600160701b0381168114612e00575f5ffd5b5f5f5f606084860312156137a9575f5ffd5b6137b284613781565b92506137c060208501613781565b9150604084015163ffffffff81168114612f45575f5ffd5b80820281158282048414176107ea576107ea61343756fe00000000000000000000000010ed43c718714eb63d5aa57b78b54704e256024ea16a46d94261c7517cc8ff89f61c0ce93598e3c849801011dee649a6a557d100360894a13ba1a3210667c828492db98dca3e2076cc3735a920a3ca505d382bbc00000000000000000000000055d398326f99059ff775485246999027b3197955a264697066735822122084f937d6fb4c243017bb8cfaff519a060135bfc12afc745b80265aabd4fd200864736f6c634300081c0033","linkReferences":{}},"methodIdentifiers":{"DEAD()":"03fd2a45","SIGN_TYPEHASH()":"2f1d14cb","UPGRADE_INTERFACE_VERSION()":"ad3cb1cc","USDT()":"c54e44eb","addLiquidity(uint256)":"51c6590a","checkerSignMsgSignature((string,address,uint256,uint256,uint256,uint8,bytes32,bytes32))":"0cb9b96a","claim((string,address,uint256,uint256,uint256,uint8,bytes32,bytes32))":"e32c03c7","eip712Domain()":"84b0196e","getAmountOut(address,address,uint256)":"4aa06652","getQuoteAmount(uint256)":"2a75d5f4","getSignMsgHash((string,address,uint256,uint256,uint256,uint8,bytes32,bytes32))":"b1060225","initialize(address,address,address,address)":"f8c8765e","isExcuted(string)":"4fb7726f","isRaised(address)":"0e3ae342","liquidityAmount(address)":"35e344f2","lockLiquidity(string,address[],uint256[])":"6c48ba95","lp()":"313c06a0","nonce()":"affed0e0","owner()":"8da5cb5b","permit()":"5777e93d","proxiableUUID()":"52d1902d","raiseWhitelist(address)":"8e24d68b","raisefunds(uint256)":"80565655","removeLiquidity(uint256)":"9c8f9f23","removeLiquidityOfRaiseFunds()":"62d284b2","renounceOwnership()":"715018a6","serchLiquidityBalance(address)":"36b4733d","setConfig(address,address,address)":"3141e25b","setRaiseWhitelist(address[],bool)":"e475ea88","staking(uint256)":"1dbb2a22","token()":"fc0c546a","transferOwnership(address)":"f2fde38b","uniswapV2Factory()":"59d0f713","uniswapV2Router()":"1694505e","upgradeToAndCall(address,bytes)":"4f1ef286","usdtRecipient()":"5c3da87e"},"id":44}