{"abi":[{"type":"function","name":"DEAD","inputs":[],"outputs":[{"name":"","type":"address","internalType":"address"}],"stateMutability":"view"},{"type":"function","name":"SIGN_TYPEHASH","inputs":[],"outputs":[{"name":"","type":"bytes32","internalType":"bytes32"}],"stateMutability":"view"},{"type":"function","name":"UPGRADE_INTERFACE_VERSION","inputs":[],"outputs":[{"name":"","type":"string","internalType":"string"}],"stateMutability":"view"},{"type":"function","name":"USDT","inputs":[],"outputs":[{"name":"","type":"address","internalType":"address"}],"stateMutability":"view"},{"type":"function","name":"addLiquidity","inputs":[{"name":"amountToken","type":"uint256","internalType":"uint256"}],"outputs":[{"name":"_amountToken","type":"uint256","internalType":"uint256"},{"name":"_amountUsdt","type":"uint256","internalType":"uint256"},{"name":"_liquidityAmount","type":"uint256","internalType":"uint256"}],"stateMutability":"nonpayable"},{"type":"function","name":"blacklist","inputs":[{"name":"","type":"address","internalType":"address"}],"outputs":[{"name":"","type":"bool","internalType":"bool"}],"stateMutability":"view"},{"type":"function","name":"checkerSignMsgSignature","inputs":[{"name":"_msg","type":"tuple","internalType":"struct SignatureInfo.SignMessage","components":[{"name":"mark","type":"string","internalType":"string"},{"name":"recipient","type":"address","internalType":"address"},{"name":"amount","type":"uint256","internalType":"uint256"},{"name":"nonce","type":"uint256","internalType":"uint256"},{"name":"deadline","type":"uint256","internalType":"uint256"},{"name":"v","type":"uint8","internalType":"uint8"},{"name":"r","type":"bytes32","internalType":"bytes32"},{"name":"s","type":"bytes32","internalType":"bytes32"}]}],"outputs":[{"name":"","type":"bool","internalType":"bool"}],"stateMutability":"view"},{"type":"function","name":"claim","inputs":[{"name":"_msg","type":"tuple","internalType":"struct SignatureInfo.SignMessage","components":[{"name":"mark","type":"string","internalType":"string"},{"name":"recipient","type":"address","internalType":"address"},{"name":"amount","type":"uint256","internalType":"uint256"},{"name":"nonce","type":"uint256","internalType":"uint256"},{"name":"deadline","type":"uint256","internalType":"uint256"},{"name":"v","type":"uint8","internalType":"uint8"},{"name":"r","type":"bytes32","internalType":"bytes32"},{"name":"s","type":"bytes32","internalType":"bytes32"}]}],"outputs":[],"stateMutability":"nonpayable"},{"type":"function","name":"eip712Domain","inputs":[],"outputs":[{"name":"fields","type":"bytes1","internalType":"bytes1"},{"name":"name","type":"string","internalType":"string"},{"name":"version","type":"string","internalType":"string"},{"name":"chainId","type":"uint256","internalType":"uint256"},{"name":"verifyingContract","type":"address","internalType":"address"},{"name":"salt","type":"bytes32","internalType":"bytes32"},{"name":"extensions","type":"uint256[]","internalType":"uint256[]"}],"stateMutability":"view"},{"type":"function","name":"getAmountOut","inputs":[{"name":"token0","type":"address","internalType":"address"},{"name":"token1","type":"address","internalType":"address"},{"name":"token0Amount","type":"uint256","internalType":"uint256"}],"outputs":[{"name":"","type":"uint256","internalType":"uint256"}],"stateMutability":"view"},{"type":"function","name":"getQuoteAmount","inputs":[{"name":"amountToken","type":"uint256","internalType":"uint256"}],"outputs":[{"name":"amountUsdt","type":"uint256","internalType":"uint256"}],"stateMutability":"view"},{"type":"function","name":"getSignMsgHash","inputs":[{"name":"_msg","type":"tuple","internalType":"struct SignatureInfo.SignMessage","components":[{"name":"mark","type":"string","internalType":"string"},{"name":"recipient","type":"address","internalType":"address"},{"name":"amount","type":"uint256","internalType":"uint256"},{"name":"nonce","type":"uint256","internalType":"uint256"},{"name":"deadline","type":"uint256","internalType":"uint256"},{"name":"v","type":"uint8","internalType":"uint8"},{"name":"r","type":"bytes32","internalType":"bytes32"},{"name":"s","type":"bytes32","internalType":"bytes32"}]}],"outputs":[{"name":"","type":"bytes32","internalType":"bytes32"}],"stateMutability":"view"},{"type":"function","name":"initialize","inputs":[{"name":"_token","type":"address","internalType":"address"},{"name":"_lp","type":"address","internalType":"address"},{"name":"_permit","type":"address","internalType":"address"}],"outputs":[],"stateMutability":"nonpayable"},{"type":"function","name":"isExcuted","inputs":[{"name":"","type":"string","internalType":"string"}],"outputs":[{"name":"","type":"bool","internalType":"bool"}],"stateMutability":"view"},{"type":"function","name":"lp","inputs":[],"outputs":[{"name":"","type":"address","internalType":"address"}],"stateMutability":"view"},{"type":"function","name":"nonce","inputs":[],"outputs":[{"name":"","type":"uint256","internalType":"uint256"}],"stateMutability":"view"},{"type":"function","name":"owner","inputs":[],"outputs":[{"name":"","type":"address","internalType":"address"}],"stateMutability":"view"},{"type":"function","name":"permit","inputs":[],"outputs":[{"name":"","type":"address","internalType":"address"}],"stateMutability":"view"},{"type":"function","name":"proxiableUUID","inputs":[],"outputs":[{"name":"","type":"bytes32","internalType":"bytes32"}],"stateMutability":"view"},{"type":"function","name":"removeLiquidity","inputs":[{"name":"_liquidity","type":"uint256","internalType":"uint256"}],"outputs":[],"stateMutability":"nonpayable"},{"type":"function","name":"renounceOwnership","inputs":[],"outputs":[],"stateMutability":"nonpayable"},{"type":"function","name":"setBlacklist","inputs":[{"name":"_addrs","type":"address[]","internalType":"address[]"},{"name":"_blacklist","type":"bool","internalType":"bool"}],"outputs":[],"stateMutability":"nonpayable"},{"type":"function","name":"setConfig","inputs":[{"name":"_token","type":"address","internalType":"address"},{"name":"_lp","type":"address","internalType":"address"},{"name":"_permit","type":"address","internalType":"address"}],"outputs":[],"stateMutability":"nonpayable"},{"type":"function","name":"staking","inputs":[{"name":"amountToken","type":"uint256","internalType":"uint256"}],"outputs":[],"stateMutability":"nonpayable"},{"type":"function","name":"token","inputs":[],"outputs":[{"name":"","type":"address","internalType":"address"}],"stateMutability":"view"},{"type":"function","name":"transferOwnership","inputs":[{"name":"newOwner","type":"address","internalType":"address"}],"outputs":[],"stateMutability":"nonpayable"},{"type":"function","name":"uniswapV2Factory","inputs":[],"outputs":[{"name":"","type":"address","internalType":"address"}],"stateMutability":"view"},{"type":"function","name":"uniswapV2Router","inputs":[],"outputs":[{"name":"","type":"address","internalType":"address"}],"stateMutability":"view"},{"type":"function","name":"upgradeToAndCall","inputs":[{"name":"newImplementation","type":"address","internalType":"address"},{"name":"data","type":"bytes","internalType":"bytes"}],"outputs":[],"stateMutability":"payable"},{"type":"event","name":"Claimed","inputs":[{"name":"mark","type":"string","indexed":false,"internalType":"string"},{"name":"recipient","type":"address","indexed":false,"internalType":"address"},{"name":"amount","type":"uint256","indexed":false,"internalType":"uint256"},{"name":"time","type":"uint256","indexed":false,"internalType":"uint256"}],"anonymous":false},{"type":"event","name":"EIP712DomainChanged","inputs":[],"anonymous":false},{"type":"event","name":"Initialized","inputs":[{"name":"version","type":"uint64","indexed":false,"internalType":"uint64"}],"anonymous":false},{"type":"event","name":"OwnershipTransferred","inputs":[{"name":"previousOwner","type":"address","indexed":true,"internalType":"address"},{"name":"newOwner","type":"address","indexed":true,"internalType":"address"}],"anonymous":false},{"type":"event","name":"Staked","inputs":[{"name":"staker","type":"address","indexed":false,"internalType":"address"},{"name":"amount","type":"uint256","indexed":false,"internalType":"uint256"},{"name":"time","type":"uint256","indexed":false,"internalType":"uint256"}],"anonymous":false},{"type":"event","name":"Upgraded","inputs":[{"name":"implementation","type":"address","indexed":true,"internalType":"address"}],"anonymous":false},{"type":"error","name":"AddressEmptyCode","inputs":[{"name":"target","type":"address","internalType":"address"}]},{"type":"error","name":"ECDSAInvalidSignature","inputs":[]},{"type":"error","name":"ECDSAInvalidSignatureLength","inputs":[{"name":"length","type":"uint256","internalType":"uint256"}]},{"type":"error","name":"ECDSAInvalidSignatureS","inputs":[{"name":"s","type":"bytes32","internalType":"bytes32"}]},{"type":"error","name":"ERC1967InvalidImplementation","inputs":[{"name":"implementation","type":"address","internalType":"address"}]},{"type":"error","name":"ERC1967NonPayable","inputs":[]},{"type":"error","name":"FailedCall","inputs":[]},{"type":"error","name":"InvalidInitialization","inputs":[]},{"type":"error","name":"NotInitializing","inputs":[]},{"type":"error","name":"OwnableInvalidOwner","inputs":[{"name":"owner","type":"address","internalType":"address"}]},{"type":"error","name":"OwnableUnauthorizedAccount","inputs":[{"name":"account","type":"address","internalType":"address"}]},{"type":"error","name":"ReentrancyGuardReentrantCall","inputs":[]},{"type":"error","name":"UUPSUnauthorizedCallContext","inputs":[]},{"type":"error","name":"UUPSUnsupportedProxiableUUID","inputs":[{"name":"slot","type":"bytes32","internalType":"bytes32"}]}],"bytecode":{"object":"0x60a0604052306080523480156012575f5ffd5b5060015f55608051612d2361003d5f395f81816113720152818161139b01526115f60152612d235ff3fe6080604052600436106101ba575f3560e01c80635777e93d116100f2578063affed0e011610092578063e32c03c711610062578063e32c03c714610571578063f2fde38b14610590578063f9f92be4146105af578063fc0c546a146105dd575f5ffd5b8063affed0e0146104f7578063b10602251461050c578063c0c53b8b1461052b578063c54e44eb1461054a575f5ffd5b806384b0196e116100cd57806384b0196e146104385780638da5cb5b1461045f5780639c8f9f231461049b578063ad3cb1cc146104ba575f5ffd5b80635777e93d146103de57806359d0f713146103fd578063715018a614610424575f5ffd5b8063313c06a01161015d5780634f1ef286116101385780634f1ef286146103435780634fb7726f1461035657806351c6590a1461039057806352d1902d146103ca575f5ffd5b8063313c06a0146102e65780633141e25b146103055780634aa0665214610324575f5ffd5b80631694505e116101985780631694505e146102405780631dbb2a22146102675780632a75d5f4146102865780632f1d14cb146102b3575f5ffd5b806303fd2a45146101be5780630cb9b96a146101f05780630e85d1e31461021f575b5f5ffd5b3480156101c9575f5ffd5b506101d361dead81565b6040516001600160a01b0390911681526020015b60405180910390f35b3480156101fb575f5ffd5b5061020f61020a36600461255e565b6105fc565b60405190151581526020016101e7565b34801561022a575f5ffd5b5061023e61023936600461262c565b61063b565b005b34801561024b575f5ffd5b506101d37310ed43c718714eb63d5aa57b78b54704e256024e81565b348015610272575f5ffd5b5061023e6102813660046126ac565b61075e565b348015610291575f5ffd5b506102a56102a03660046126ac565b610851565b6040519081526020016101e7565b3480156102be575f5ffd5b506102a57f401e12293d17637080047390ba6da57cad06bbf1eb753b40b6cc8a62145ea2c281565b3480156102f1575f5ffd5b506003546101d3906001600160a01b031681565b348015610310575f5ffd5b5061023e61031f3660046126c3565b610884565b34801561032f575f5ffd5b506102a561033e366004612700565b610910565b61023e61035136600461273e565b610a38565b348015610361575f5ffd5b5061020f61037036600461279d565b805160208183018101805160018252928201919093012091525460ff1681565b34801561039b575f5ffd5b506103af6103aa3660046126ac565b610a57565b604080519384526020840192909252908201526060016101e7565b3480156103d5575f5ffd5b506102a5610acb565b3480156103e9575f5ffd5b506004546101d3906001600160a01b031681565b348015610408575f5ffd5b506101d373ca143ce32fe78f1f7019d7d551a6402fc5350c7381565b34801561042f575f5ffd5b5061023e610ae6565b348015610443575f5ffd5b5061044c610af9565b6040516101e797969594939291906127fc565b34801561046a575f5ffd5b507f9016d09d72d40fdae2fd8ceac6b6234c7706214fd39c1cd1e609a0528c199300546001600160a01b03166101d3565b3480156104a6575f5ffd5b5061023e6104b53660046126ac565b610ba2565b3480156104c5575f5ffd5b506104ea604051806040016040528060058152602001640352e302e360dc1b81525081565b6040516101e79190612892565b348015610502575f5ffd5b506102a560055481565b348015610517575f5ffd5b506102a561052636600461255e565b610ca2565b348015610536575f5ffd5b5061023e6105453660046126c3565b610d61565b348015610555575f5ffd5b506101d37355d398326f99059ff775485246999027b319795581565b34801561057c575f5ffd5b5061023e61058b36600461255e565b610ee2565b34801561059b575f5ffd5b5061023e6105aa3660046128a4565b611178565b3480156105ba575f5ffd5b5061020f6105c93660046128a4565b60066020525f908152604090205460ff1681565b3480156105e8575f5ffd5b506002546101d3906001600160a01b031681565b5f5f61060783610ca2565b90505f610622828560a001518660c001518760e001516111b5565b6004546001600160a01b03918216911614949350505050565b6004546001600160a01b031633146106875760405162461bcd60e51b815260206004820152600a602482015269139bdd081c195c9b5a5d60b21b60448201526064015b60405180910390fd5b5f5b82811015610758575f8484838181106106a4576106a46128bf565b90506020020160208101906106b991906128a4565b6001600160a01b0316036106fe5760405162461bcd60e51b815260206004820152600c60248201526b5a45524f204144445245535360a01b604482015260640161067e565b8160065f868685818110610714576107146128bf565b905060200201602081019061072991906128a4565b6001600160a01b0316815260208101919091526040015f20805460ff1916911515919091179055600101610689565b50505050565b6002545f9061078b906001600160a01b03167355d398326f99059ff775485246999027b319795584610910565b905068056bc75e2d631000008110156107f45760405162461bcd60e51b815260206004820152602560248201527f4174206c65617374203130305553445420746f6b656e7320617265207265717560448201526434b932b21760d91b606482015260840161067e565b60025461080e906001600160a01b03163361dead856111e1565b6040805133815260208101849052428183015290517f1449c6dd7851abc30abf37f57715f492010519147cc2652fbc38202c18a6ee909181900360600190a15050565b6002545f9061087e906001600160a01b03167355d398326f99059ff775485246999027b319795584610910565b92915050565b61088c61130c565b6001600160a01b0383166108d15760405162461bcd60e51b815260206004820152600c60248201526b5a65726f206164647265737360a01b604482015260640161067e565b600280546001600160a01b039485166001600160a01b031991821617909155600380549385169382169390931790925560048054919093169116179055565b6040805160028082526060820183525f928392919060208301908036833701905050905084815f81518110610947576109476128bf565b60200260200101906001600160a01b031690816001600160a01b031681525050838160018151811061097b5761097b6128bf565b6001600160a01b039092166020928302919091019091015260405163d06ca61f60e01b81525f907310ed43c718714eb63d5aa57b78b54704e256024e9063d06ca61f906109ce90879086906004016128d3565b5f60405180830381865afa1580156109e8573d5f5f3e3d5ffd5b505050506040513d5f823e601f3d908101601f19168201604052610a0f919081019061291d565b905080600181518110610a2457610a246128bf565b6020026020010151925050505b9392505050565b610a40611367565b610a498261140b565b610a538282611413565b5050565b6002545f90819081908190610a8a906001600160a01b03167355d398326f99059ff775485246999027b319795587610910565b600254909150610abd906001600160a01b03167355d398326f99059ff775485246999027b319795587845f8033426114cf565b919790965090945092505050565b5f610ad46115eb565b505f516020612cce5f395f51905f5290565b610aee61130c565b610af75f611634565b565b5f60608082808083815f516020612cae5f395f51905f528054909150158015610b2457506001810154155b610b685760405162461bcd60e51b81526020600482015260156024820152741152540dcc4c8e88155b9a5b9a5d1a585b1a5e9959605a1b604482015260640161067e565b610b706116a4565b610b78611764565b604080515f80825260208201909252600f60f81b9c939b5091995046985030975095509350915050565b600354610bba906001600160a01b03163330846111e1565b600354610be5906001600160a01b03167310ed43c718714eb63d5aa57b78b54704e256024e836117a2565b600254604051635d5155ef60e11b81527355d398326f99059ff775485246999027b319795560048201526001600160a01b039091166024820152604481018290525f6064820181905260848201523360a48201524260c48201527310ed43c718714eb63d5aa57b78b54704e256024e9063baa2abde9060e40160408051808303815f875af1158015610c79573d5f5f3e3d5ffd5b505050506040513d601f19601f82011682018060405250810190610c9d91906129c7565b505050565b5f61087e7f401e12293d17637080047390ba6da57cad06bbf1eb753b40b6cc8a62145ea2c2835f0151604051602001610cdb9190612a00565b604051602081830303815290604052805190602001208460200151856040015186606001518760800151604051602001610d469695949392919095865260208601949094526001600160a01b039290921660408501526060840152608083015260a082015260c00190565b60405160208183030381529060405280519060200120611882565b5f610d6a6118ae565b805490915060ff600160401b82041615906001600160401b03165f81158015610d905750825b90505f826001600160401b03166001148015610dab5750303b155b905081158015610db9575080155b15610dd75760405163f92ee8a960e01b815260040160405180910390fd5b845467ffffffffffffffff191660011785558315610e0157845460ff60401b1916600160401b1785555b610e446040518060400160405280600881526020016726b4b734b733ab1960c11b815250604051806040016040528060018152602001603160f81b8152506118d6565b610e4d33611935565b610e5561193d565b600280546001600160a01b03808b166001600160a01b031992831617909255600380548a841690831617905560048054928916929091169190911790558315610ed857845460ff60401b19168555604051600181527fc7f505b2f371ae2175ee4913f4499e1f2633a7b5936321eed1cdaeb6115181d29060200160405180910390a15b5050505050505050565b600554816060015114610f265760405162461bcd60e51b815260206004820152600c60248201526b2737b731b29032b93937b91760a11b604482015260640161067e565b4281608001511015610f6c5760405162461bcd60e51b815260206004820152600f60248201526e2232b0b23634b7329032b93937b91760891b604482015260640161067e565b8051604051600191610f7d91612a00565b9081526040519081900360200190205460ff1615610fcc5760405162461bcd60e51b815260206004820152600c60248201526b13585c9ac8195e18dd5d195960a21b604482015260640161067e565b610fd5816105fc565b61101a5760405162461bcd60e51b815260206004820152601660248201527521b432b1b59039b4b3b730ba3ab9329032b93937b91760511b604482015260640161067e565b6020808201516001600160a01b03165f9081526006909152604090205460ff161561107a5760405162461bcd60e51b815260206004820152601060248201526f213630b1b5b634b9ba1032b93937b91760811b604482015260640161067e565b600254602082015160408084015190516340c10f1960e01b81526001600160a01b03928316600482015260248101919091529116906340c10f19906044015f604051808303815f87803b1580156110cf575f5ffd5b505af11580156110e1573d5f5f3e3d5ffd5b50505050600180825f01516040516110f99190612a00565b908152604051908190036020019020805491151560ff1990921691909117905560058054905f61112883612a1f565b91905055507fb560b68b858b38da022e769a634986c1eced94a3867ed159888c34fe7510cbf4815f0151826020015183604001514260405161116d9493929190612a37565b60405180910390a150565b61118061130c565b6001600160a01b0381166111a957604051631e4fbdf760e01b81525f600482015260240161067e565b6111b281611634565b50565b5f5f5f5f6111c588888888611945565b9250925092506111d58282611a0d565b50909695505050505050565b604080516001600160a01b0385811660248301528481166044830152606480830185905283518084039091018152608490920183526020820180516001600160e01b03166323b872dd60e01b17905291515f928392908816916112449190612a00565b5f604051808303815f865af19150503d805f811461127d576040519150601f19603f3d011682016040523d82523d5f602084013e611282565b606091505b50915091508180156112ac5750805115806112ac5750808060200190518101906112ac9190612a6e565b6113045760405162461bcd60e51b8152602060048201526024808201527f5472616e7366657248656c7065723a205452414e534645525f46524f4d5f46416044820152631253115160e21b606482015260840161067e565b505050505050565b3361133e7f9016d09d72d40fdae2fd8ceac6b6234c7706214fd39c1cd1e609a0528c199300546001600160a01b031690565b6001600160a01b031614610af75760405163118cdaa760e01b815233600482015260240161067e565b306001600160a01b037f00000000000000000000000000000000000000000000000000000000000000001614806113ed57507f00000000000000000000000000000000000000000000000000000000000000006001600160a01b03166113e15f516020612cce5f395f51905f52546001600160a01b031690565b6001600160a01b031614155b15610af75760405163703e46dd60e11b815260040160405180910390fd5b6111b261130c565b816001600160a01b03166352d1902d6040518163ffffffff1660e01b8152600401602060405180830381865afa92505050801561146d575060408051601f3d908101601f1916820190925261146a91810190612a89565b60015b61149557604051634c9c8ce360e01b81526001600160a01b038316600482015260240161067e565b5f516020612cce5f395f51905f5281146114c557604051632a87526960e21b81526004810182905260240161067e565b610c9d8383611ac5565b5f5f5f83428110156115235760405162461bcd60e51b815260206004820152601860248201527f556e69737761705632526f757465723a20455850495245440000000000000000604482015260640161067e565b6115318c8c8c8c8c8c611b1a565b90945092505f61155673ca143ce32fe78f1f7019d7d551a6402fc5350c738e8e611d88565b90506115648d3383886111e1565b6115708c3383876111e1565b6040516335313c2160e11b81526001600160a01b038881166004830152821690636a627842906024016020604051808303815f875af11580156115b5573d5f5f3e3d5ffd5b505050506040513d601f19601f820116820180604052508101906115d99190612a89565b92505050985098509895505050505050565b306001600160a01b037f00000000000000000000000000000000000000000000000000000000000000001614610af75760405163703e46dd60e11b815260040160405180910390fd5b7f9016d09d72d40fdae2fd8ceac6b6234c7706214fd39c1cd1e609a0528c19930080546001600160a01b031981166001600160a01b03848116918217845560405192169182907f8be0079c531659141344cd1fd0a4f28419497f9722a3daafe3b4186f6b6457e0905f90a3505050565b7fa16a46d94261c7517cc8ff89f61c0ce93598e3c849801011dee649a6a557d10280546060915f516020612cae5f395f51905f52916116e290612aa0565b80601f016020809104026020016040519081016040528092919081815260200182805461170e90612aa0565b80156117595780601f1061173057610100808354040283529160200191611759565b820191905f5260205f20905b81548152906001019060200180831161173c57829003601f168201915b505050505091505090565b7fa16a46d94261c7517cc8ff89f61c0ce93598e3c849801011dee649a6a557d10380546060915f516020612cae5f395f51905f52916116e290612aa0565b60405163095ea7b360e01b81526001600160a01b0383811660048301525f602483015284169063095ea7b3906044016020604051808303815f875af11580156117ed573d5f5f3e3d5ffd5b505050506040513d601f19601f820116820180604052508101906118119190612a6e565b5060405163095ea7b360e01b81526001600160a01b0383811660048301526024820183905284169063095ea7b3906044016020604051808303815f875af115801561185e573d5f5f3e3d5ffd5b505050506040513d601f19601f820116820180604052508101906107589190612a6e565b5f61087e61188e611e5e565b8360405161190160f01b8152600281019290925260228201526042902090565b5f807ff0c57e16840df040f15088dc2f81fe391c3923bec73e23a9662efc9c229c6a0061087e565b6118de611e6c565b5f516020612cae5f395f51905f527fa16a46d94261c7517cc8ff89f61c0ce93598e3c849801011dee649a6a557d1026119178482612b23565b50600381016119268382612b23565b505f8082556001909101555050565b611180611e6c565b610af7611e6c565b5f80807f7fffffffffffffffffffffffffffffff5d576e7357a4501ddfe92f46681b20a084111561197e57505f91506003905082611a03565b604080515f808252602082018084528a905260ff891692820192909252606081018790526080810186905260019060a0016020604051602081039080840390855afa1580156119cf573d5f5f3e3d5ffd5b5050604051601f1901519150506001600160a01b0381166119fa57505f925060019150829050611a03565b92505f91508190505b9450945094915050565b5f826003811115611a2057611a20612bdd565b03611a29575050565b6001826003811115611a3d57611a3d612bdd565b03611a5b5760405163f645eedf60e01b815260040160405180910390fd5b6002826003811115611a6f57611a6f612bdd565b03611a905760405163fce698f760e01b81526004810182905260240161067e565b6003826003811115611aa457611aa4612bdd565b03610a53576040516335e2f38360e21b81526004810182905260240161067e565b611ace82611e91565b6040516001600160a01b038316907fbc7cd75a20ee27fd9adebab32041f755214dbc6bffa90cc0225b39da2e5c2d3b905f90a2805115611b1257610c9d8282611ef4565b610a53611f66565b60405163e6a4390560e01b81526001600160a01b038088166004830152861660248201525f908190819073ca143ce32fe78f1f7019d7d551a6402fc5350c739063e6a4390590604401602060405180830381865afa158015611b7e573d5f5f3e3d5ffd5b505050506040513d601f19601f82011682018060405250810190611ba29190612bf1565b6001600160a01b031603611c35576040516364e329cb60e11b81526001600160a01b03808a1660048301528816602482015273ca143ce32fe78f1f7019d7d551a6402fc5350c739063c9c65396906044016020604051808303815f875af1158015611c0f573d5f5f3e3d5ffd5b505050506040513d601f19601f82011682018060405250810190611c339190612bf1565b505b5f5f611c5673ca143ce32fe78f1f7019d7d551a6402fc5350c738b8b611f85565b91509150815f148015611c67575080155b15611c7757879350869250611d7b565b5f611c8389848461204a565b9050878111611cf65785811015611ceb5760405162461bcd60e51b815260206004820152602660248201527f556e69737761705632526f757465723a20494e53554646494349454e545f425f604482015265105353d5539560d21b606482015260840161067e565b889450925082611d79565b5f611d0289848661204a565b905089811115611d1457611d14612c0c565b87811015611d735760405162461bcd60e51b815260206004820152602660248201527f556e69737761705632526f757465723a20494e53554646494349454e545f415f604482015265105353d5539560d21b606482015260840161067e565b94508793505b505b5050965096945050505050565b5f5f5f611d958585612130565b6040516bffffffffffffffffffffffff19606084811b8216602084015283901b1660348201529193509150869060480160405160208183030381529060405280519060200120604051602001611e3c9291906001600160f81b0319815260609290921b6bffffffffffffffffffffffff1916600183015260158201527efb7f630766e6a796048ea87d01acd3068e8ff67d078148a3fa3f4a84f69bd5603582015260550190565b60408051601f1981840301815291905280516020909101209695505050505050565b5f611e67612226565b905090565b611e74612299565b610af757604051631afcd79f60e31b815260040160405180910390fd5b806001600160a01b03163b5f03611ec657604051634c9c8ce360e01b81526001600160a01b038216600482015260240161067e565b5f516020612cce5f395f51905f5280546001600160a01b0319166001600160a01b0392909216919091179055565b60605f5f846001600160a01b031684604051611f109190612a00565b5f60405180830381855af49150503d805f8114611f48576040519150601f19603f3d011682016040523d82523d5f602084013e611f4d565b606091505b5091509150611f5d8583836122b2565b95945050505050565b3415610af75760405163b398979f60e01b815260040160405180910390fd5b5f5f5f611f928585612130565b5090505f5f611fa2888888611d88565b6001600160a01b0316630902f1ac6040518163ffffffff1660e01b8152600401606060405180830381865afa158015611fdd573d5f5f3e3d5ffd5b505050506040513d601f19601f820116820180604052508101906120019190612c36565b506001600160701b031691506001600160701b03169150826001600160a01b0316876001600160a01b03161461203857808261203b565b81815b90999098509650505050505050565b5f5f84116120a85760405162461bcd60e51b815260206004820152602560248201527f556e697377617056324c6962726172793a20494e53554646494349454e545f416044820152641353d5539560da1b606482015260840161067e565b5f831180156120b657505f82115b6121135760405162461bcd60e51b815260206004820152602860248201527f556e697377617056324c6962726172793a20494e53554646494349454e545f4c604482015267495155494449545960c01b606482015260840161067e565b8261211e858461230e565b6121289190612c77565b949350505050565b5f5f826001600160a01b0316846001600160a01b0316036121a15760405162461bcd60e51b815260206004820152602560248201527f556e697377617056324c6962726172793a204944454e544943414c5f41444452604482015264455353455360d81b606482015260840161067e565b826001600160a01b0316846001600160a01b0316106121c15782846121c4565b83835b90925090506001600160a01b03821661221f5760405162461bcd60e51b815260206004820152601e60248201527f556e697377617056324c6962726172793a205a45524f5f414444524553530000604482015260640161067e565b9250929050565b5f7f8b73c3c69bb8fe3d512ecc4cf759cc79239f7b179b0ffacaa9a75d522b39400f612250612374565b6122586123dc565b60408051602081019490945283019190915260608201524660808201523060a082015260c00160405160208183030381529060405280519060200120905090565b5f6122a26118ae565b54600160401b900460ff16919050565b6060826122c7576122c28261241e565b610a31565b81511580156122de57506001600160a01b0384163b155b1561230757604051639996b31560e01b81526001600160a01b038516600482015260240161067e565b5080610a31565b5f811580612331575082826123238183612c96565b925061232f9083612c77565b145b61087e5760405162461bcd60e51b815260206004820152601460248201527364732d6d6174682d6d756c2d6f766572666c6f7760601b604482015260640161067e565b5f5f516020612cae5f395f51905f528161238c6116a4565b8051909150156123a457805160209091012092915050565b815480156123b3579392505050565b7fc5d2460186f7233c927e7db2dcc703c0e500b653ca82273b7bfad8045d85a470935050505090565b5f5f516020612cae5f395f51905f52816123f4611764565b80519091501561240c57805160209091012092915050565b600182015480156123b3579392505050565b80511561242e5780518082602001fd5b60405163d6bda27560e01b815260040160405180910390fd5b634e487b7160e01b5f52604160045260245ffd5b60405161010081016001600160401b038111828210171561247e5761247e612447565b60405290565b604051601f8201601f191681016001600160401b03811182821017156124ac576124ac612447565b604052919050565b5f5f6001600160401b038411156124cd576124cd612447565b50601f8301601f19166020016124e281612484565b9150508281528383830111156124f6575f5ffd5b828260208301375f602084830101529392505050565b5f82601f83011261251b575f5ffd5b610a31838335602085016124b4565b6001600160a01b03811681146111b2575f5ffd5b80356125498161252a565b919050565b803560ff81168114612549575f5ffd5b5f6020828403121561256e575f5ffd5b81356001600160401b03811115612583575f5ffd5b82016101008185031215612595575f5ffd5b61259d61245b565b81356001600160401b038111156125b2575f5ffd5b6125be8682850161250c565b8252506125cd6020830161253e565b60208201526040828101359082015260608083013590820152608080830135908201526125fc60a0830161254e565b60a082015260c0828101359082015260e091820135918101919091529392505050565b80151581146111b2575f5ffd5b5f5f5f6040848603121561263e575f5ffd5b83356001600160401b03811115612653575f5ffd5b8401601f81018613612663575f5ffd5b80356001600160401b03811115612678575f5ffd5b8660208260051b840101111561268c575f5ffd5b6020918201945092508401356126a18161261f565b809150509250925092565b5f602082840312156126bc575f5ffd5b5035919050565b5f5f5f606084860312156126d5575f5ffd5b83356126e08161252a565b925060208401356126f08161252a565b915060408401356126a18161252a565b5f5f5f60608486031215612712575f5ffd5b833561271d8161252a565b9250602084013561272d8161252a565b929592945050506040919091013590565b5f5f6040838503121561274f575f5ffd5b823561275a8161252a565b915060208301356001600160401b03811115612774575f5ffd5b8301601f81018513612784575f5ffd5b612793858235602084016124b4565b9150509250929050565b5f602082840312156127ad575f5ffd5b81356001600160401b038111156127c2575f5ffd5b6121288482850161250c565b5f81518084528060208401602086015e5f602082860101526020601f19601f83011685010191505092915050565b60ff60f81b8816815260e060208201525f61281a60e08301896127ce565b828103604084015261282c81896127ce565b606084018890526001600160a01b038716608085015260a0840186905283810360c0850152845180825260208087019350909101905f5b81811015612881578351835260209384019390920191600101612863565b50909b9a5050505050505050505050565b602081525f610a3160208301846127ce565b5f602082840312156128b4575f5ffd5b8135610a318161252a565b634e487b7160e01b5f52603260045260245ffd5b5f60408201848352604060208401528084518083526060850191506020860192505f5b818110156111d55783516001600160a01b03168352602093840193909201916001016128f6565b5f6020828403121561292d575f5ffd5b81516001600160401b03811115612942575f5ffd5b8201601f81018413612952575f5ffd5b80516001600160401b0381111561296b5761296b612447565b8060051b61297b60208201612484565b91825260208184018101929081019087841115612996575f5ffd5b6020850194505b838510156129bc5784518083526020958601959093509091019061299d565b979650505050505050565b5f5f604083850312156129d8575f5ffd5b505080516020909101519092909150565b5f81518060208401855e5f93019283525090919050565b5f610a3182846129e9565b634e487b7160e01b5f52601160045260245ffd5b5f60018201612a3057612a30612a0b565b5060010190565b608081525f612a4960808301876127ce565b6001600160a01b03959095166020830152506040810192909252606090910152919050565b5f60208284031215612a7e575f5ffd5b8151610a318161261f565b5f60208284031215612a99575f5ffd5b5051919050565b600181811c90821680612ab457607f821691505b602082108103612ad257634e487b7160e01b5f52602260045260245ffd5b50919050565b601f821115610c9d57805f5260205f20601f840160051c81016020851015612afd5750805b601f840160051c820191505b81811015612b1c575f8155600101612b09565b5050505050565b81516001600160401b03811115612b3c57612b3c612447565b612b5081612b4a8454612aa0565b84612ad8565b6020601f821160018114612b82575f8315612b6b5750848201515b5f19600385901b1c1916600184901b178455612b1c565b5f84815260208120601f198516915b82811015612bb15787850151825560209485019460019092019101612b91565b5084821015612bce57868401515f19600387901b60f8161c191681555b50505050600190811b01905550565b634e487b7160e01b5f52602160045260245ffd5b5f60208284031215612c01575f5ffd5b8151610a318161252a565b634e487b7160e01b5f52600160045260245ffd5b80516001600160701b0381168114612549575f5ffd5b5f5f5f60608486031215612c48575f5ffd5b612c5184612c20565b9250612c5f60208501612c20565b9150604084015163ffffffff811681146126a1575f5ffd5b5f82612c9157634e487b7160e01b5f52601260045260245ffd5b500490565b808202811582820484141761087e5761087e612a0b56fea16a46d94261c7517cc8ff89f61c0ce93598e3c849801011dee649a6a557d100360894a13ba1a3210667c828492db98dca3e2076cc3735a920a3ca505d382bbca2646970667358221220e21ae107cb688d6ae421bf7ac0c0679e9d4d82bb26615619e0765b5989923d5b64736f6c634300081c0033","linkReferences":{}},"methodIdentifiers":{"DEAD()":"03fd2a45","SIGN_TYPEHASH()":"2f1d14cb","UPGRADE_INTERFACE_VERSION()":"ad3cb1cc","USDT()":"c54e44eb","addLiquidity(uint256)":"51c6590a","blacklist(address)":"f9f92be4","checkerSignMsgSignature((string,address,uint256,uint256,uint256,uint8,bytes32,bytes32))":"0cb9b96a","claim((string,address,uint256,uint256,uint256,uint8,bytes32,bytes32))":"e32c03c7","eip712Domain()":"84b0196e","getAmountOut(address,address,uint256)":"4aa06652","getQuoteAmount(uint256)":"2a75d5f4","getSignMsgHash((string,address,uint256,uint256,uint256,uint8,bytes32,bytes32))":"b1060225","initialize(address,address,address)":"c0c53b8b","isExcuted(string)":"4fb7726f","lp()":"313c06a0","nonce()":"affed0e0","owner()":"8da5cb5b","permit()":"5777e93d","proxiableUUID()":"52d1902d","removeLiquidity(uint256)":"9c8f9f23","renounceOwnership()":"715018a6","setBlacklist(address[],bool)":"0e85d1e3","setConfig(address,address,address)":"3141e25b","staking(uint256)":"1dbb2a22","token()":"fc0c546a","transferOwnership(address)":"f2fde38b","uniswapV2Factory()":"59d0f713","uniswapV2Router()":"1694505e","upgradeToAndCall(address,bytes)":"4f1ef286"},"id":46}