{"abi":[{"type":"function","name":"DEAD","inputs":[],"outputs":[{"name":"","type":"address","internalType":"address"}],"stateMutability":"view"},{"type":"function","name":"SIGN_TYPEHASH","inputs":[],"outputs":[{"name":"","type":"bytes32","internalType":"bytes32"}],"stateMutability":"view"},{"type":"function","name":"UPGRADE_INTERFACE_VERSION","inputs":[],"outputs":[{"name":"","type":"string","internalType":"string"}],"stateMutability":"view"},{"type":"function","name":"USDT","inputs":[],"outputs":[{"name":"","type":"address","internalType":"address"}],"stateMutability":"view"},{"type":"function","name":"addLiquidity","inputs":[{"name":"amountToken","type":"uint256","internalType":"uint256"}],"outputs":[{"name":"_amountToken","type":"uint256","internalType":"uint256"},{"name":"_amountUsdt","type":"uint256","internalType":"uint256"},{"name":"_liquidityAmount","type":"uint256","internalType":"uint256"}],"stateMutability":"nonpayable"},{"type":"function","name":"checkerSignMsgSignature","inputs":[{"name":"_msg","type":"tuple","internalType":"struct SignatureInfo.SignMessage","components":[{"name":"mark","type":"string","internalType":"string"},{"name":"recipient","type":"address","internalType":"address"},{"name":"amount","type":"uint256","internalType":"uint256"},{"name":"nonce","type":"uint256","internalType":"uint256"},{"name":"deadline","type":"uint256","internalType":"uint256"},{"name":"v","type":"uint8","internalType":"uint8"},{"name":"r","type":"bytes32","internalType":"bytes32"},{"name":"s","type":"bytes32","internalType":"bytes32"}]}],"outputs":[{"name":"","type":"bool","internalType":"bool"}],"stateMutability":"view"},{"type":"function","name":"claim","inputs":[{"name":"_msg","type":"tuple","internalType":"struct SignatureInfo.SignMessage","components":[{"name":"mark","type":"string","internalType":"string"},{"name":"recipient","type":"address","internalType":"address"},{"name":"amount","type":"uint256","internalType":"uint256"},{"name":"nonce","type":"uint256","internalType":"uint256"},{"name":"deadline","type":"uint256","internalType":"uint256"},{"name":"v","type":"uint8","internalType":"uint8"},{"name":"r","type":"bytes32","internalType":"bytes32"},{"name":"s","type":"bytes32","internalType":"bytes32"}]}],"outputs":[],"stateMutability":"nonpayable"},{"type":"function","name":"eip712Domain","inputs":[],"outputs":[{"name":"fields","type":"bytes1","internalType":"bytes1"},{"name":"name","type":"string","internalType":"string"},{"name":"version","type":"string","internalType":"string"},{"name":"chainId","type":"uint256","internalType":"uint256"},{"name":"verifyingContract","type":"address","internalType":"address"},{"name":"salt","type":"bytes32","internalType":"bytes32"},{"name":"extensions","type":"uint256[]","internalType":"uint256[]"}],"stateMutability":"view"},{"type":"function","name":"getAmountOut","inputs":[{"name":"token0","type":"address","internalType":"address"},{"name":"token1","type":"address","internalType":"address"},{"name":"token0Amount","type":"uint256","internalType":"uint256"}],"outputs":[{"name":"","type":"uint256","internalType":"uint256"}],"stateMutability":"view"},{"type":"function","name":"getQuoteAmount","inputs":[{"name":"amountToken","type":"uint256","internalType":"uint256"}],"outputs":[{"name":"amountUsdt","type":"uint256","internalType":"uint256"}],"stateMutability":"view"},{"type":"function","name":"getSignMsgHash","inputs":[{"name":"_msg","type":"tuple","internalType":"struct SignatureInfo.SignMessage","components":[{"name":"mark","type":"string","internalType":"string"},{"name":"recipient","type":"address","internalType":"address"},{"name":"amount","type":"uint256","internalType":"uint256"},{"name":"nonce","type":"uint256","internalType":"uint256"},{"name":"deadline","type":"uint256","internalType":"uint256"},{"name":"v","type":"uint8","internalType":"uint8"},{"name":"r","type":"bytes32","internalType":"bytes32"},{"name":"s","type":"bytes32","internalType":"bytes32"}]}],"outputs":[{"name":"","type":"bytes32","internalType":"bytes32"}],"stateMutability":"view"},{"type":"function","name":"initialize","inputs":[{"name":"_token","type":"address","internalType":"address"},{"name":"_lp","type":"address","internalType":"address"},{"name":"_permit","type":"address","internalType":"address"}],"outputs":[],"stateMutability":"nonpayable"},{"type":"function","name":"isExcuted","inputs":[{"name":"","type":"string","internalType":"string"}],"outputs":[{"name":"","type":"bool","internalType":"bool"}],"stateMutability":"view"},{"type":"function","name":"liquidityAmount","inputs":[{"name":"","type":"address","internalType":"address"}],"outputs":[{"name":"","type":"uint256","internalType":"uint256"}],"stateMutability":"view"},{"type":"function","name":"lp","inputs":[],"outputs":[{"name":"","type":"address","internalType":"address"}],"stateMutability":"view"},{"type":"function","name":"nonce","inputs":[],"outputs":[{"name":"","type":"uint256","internalType":"uint256"}],"stateMutability":"view"},{"type":"function","name":"owner","inputs":[],"outputs":[{"name":"","type":"address","internalType":"address"}],"stateMutability":"view"},{"type":"function","name":"permit","inputs":[],"outputs":[{"name":"","type":"address","internalType":"address"}],"stateMutability":"view"},{"type":"function","name":"proxiableUUID","inputs":[],"outputs":[{"name":"","type":"bytes32","internalType":"bytes32"}],"stateMutability":"view"},{"type":"function","name":"raisefunds","inputs":[{"name":"amountUsdt","type":"uint256","internalType":"uint256"}],"outputs":[],"stateMutability":"nonpayable"},{"type":"function","name":"removeLiquidity","inputs":[{"name":"_liquidity","type":"uint256","internalType":"uint256"}],"outputs":[],"stateMutability":"nonpayable"},{"type":"function","name":"removeLiquidityOfRaiseFunds","inputs":[],"outputs":[],"stateMutability":"nonpayable"},{"type":"function","name":"renounceOwnership","inputs":[],"outputs":[],"stateMutability":"nonpayable"},{"type":"function","name":"serchLiquidityBalance","inputs":[{"name":"_user","type":"address","internalType":"address"}],"outputs":[{"name":"","type":"uint256","internalType":"uint256"}],"stateMutability":"view"},{"type":"function","name":"setConfig","inputs":[{"name":"_token","type":"address","internalType":"address"},{"name":"_lp","type":"address","internalType":"address"}],"outputs":[],"stateMutability":"nonpayable"},{"type":"function","name":"staking","inputs":[{"name":"amountToken","type":"uint256","internalType":"uint256"}],"outputs":[],"stateMutability":"nonpayable"},{"type":"function","name":"token","inputs":[],"outputs":[{"name":"","type":"address","internalType":"address"}],"stateMutability":"view"},{"type":"function","name":"transferOwnership","inputs":[{"name":"newOwner","type":"address","internalType":"address"}],"outputs":[],"stateMutability":"nonpayable"},{"type":"function","name":"uniswapV2Factory","inputs":[],"outputs":[{"name":"","type":"address","internalType":"address"}],"stateMutability":"view"},{"type":"function","name":"uniswapV2Router","inputs":[],"outputs":[{"name":"","type":"address","internalType":"address"}],"stateMutability":"view"},{"type":"function","name":"upgradeToAndCall","inputs":[{"name":"newImplementation","type":"address","internalType":"address"},{"name":"data","type":"bytes","internalType":"bytes"}],"outputs":[],"stateMutability":"payable"},{"type":"event","name":"Claimed","inputs":[{"name":"mark","type":"string","indexed":false,"internalType":"string"},{"name":"recipient","type":"address","indexed":false,"internalType":"address"},{"name":"amount","type":"uint256","indexed":false,"internalType":"uint256"},{"name":"time","type":"uint256","indexed":false,"internalType":"uint256"}],"anonymous":false},{"type":"event","name":"EIP712DomainChanged","inputs":[],"anonymous":false},{"type":"event","name":"Initialized","inputs":[{"name":"version","type":"uint64","indexed":false,"internalType":"uint64"}],"anonymous":false},{"type":"event","name":"OwnershipTransferred","inputs":[{"name":"previousOwner","type":"address","indexed":true,"internalType":"address"},{"name":"newOwner","type":"address","indexed":true,"internalType":"address"}],"anonymous":false},{"type":"event","name":"Staked","inputs":[{"name":"staker","type":"address","indexed":false,"internalType":"address"},{"name":"amount","type":"uint256","indexed":false,"internalType":"uint256"},{"name":"time","type":"uint256","indexed":false,"internalType":"uint256"}],"anonymous":false},{"type":"event","name":"Upgraded","inputs":[{"name":"implementation","type":"address","indexed":true,"internalType":"address"}],"anonymous":false},{"type":"error","name":"AddressEmptyCode","inputs":[{"name":"target","type":"address","internalType":"address"}]},{"type":"error","name":"ECDSAInvalidSignature","inputs":[]},{"type":"error","name":"ECDSAInvalidSignatureLength","inputs":[{"name":"length","type":"uint256","internalType":"uint256"}]},{"type":"error","name":"ECDSAInvalidSignatureS","inputs":[{"name":"s","type":"bytes32","internalType":"bytes32"}]},{"type":"error","name":"ERC1967InvalidImplementation","inputs":[{"name":"implementation","type":"address","internalType":"address"}]},{"type":"error","name":"ERC1967NonPayable","inputs":[]},{"type":"error","name":"FailedCall","inputs":[]},{"type":"error","name":"InvalidInitialization","inputs":[]},{"type":"error","name":"NotInitializing","inputs":[]},{"type":"error","name":"OwnableInvalidOwner","inputs":[{"name":"owner","type":"address","internalType":"address"}]},{"type":"error","name":"OwnableUnauthorizedAccount","inputs":[{"name":"account","type":"address","internalType":"address"}]},{"type":"error","name":"ReentrancyGuardReentrantCall","inputs":[]},{"type":"error","name":"UUPSUnauthorizedCallContext","inputs":[]},{"type":"error","name":"UUPSUnsupportedProxiableUUID","inputs":[{"name":"slot","type":"bytes32","internalType":"bytes32"}]}],"bytecode":{"object":"0x60a0604052306080523480156012575f5ffd5b5060015f5560805161358361003d5f395f81816115130152818161153c015261179701526135835ff3fe6080604052600436106101d0575f3560e01c806359d0f713116100fd578063affed0e011610092578063c54e44eb11610062578063c54e44eb146105b7578063e32c03c7146105d7578063f2fde38b146105f6578063fc0c546a14610615575f5ffd5b8063affed0e014610545578063b10602251461055a578063b602024b14610579578063c0c53b8b14610598575f5ffd5b806384b0196e116100cd57806384b0196e146104865780638da5cb5b146104ad5780639c8f9f23146104e9578063ad3cb1cc14610508575f5ffd5b806359d0f7131461041857806362d284b21461043f578063715018a6146104535780638056565514610467575f5ffd5b806335e344f2116101735780634fb7726f116101435780634fb7726f1461037157806351c6590a146103ab57806352d1902d146103e55780635777e93d146103f9575f5ffd5b806335e344f2146102f557806336b4733d146103205780634aa066521461033f5780634f1ef2861461035e575f5ffd5b80631dbb2a22116101ae5780631dbb2a22146102555780632a75d5f4146102765780632f1d14cb146102a3578063313c06a0146102d6575f5ffd5b806303fd2a45146101d45780630cb9b96a146102065780631694505e14610235575b5f5ffd5b3480156101df575f5ffd5b506101e961dead81565b6040516001600160a01b0390911681526020015b60405180910390f35b348015610211575f5ffd5b50610225610220366004612c9f565b610634565b60405190151581526020016101fd565b348015610240575f5ffd5b506101e95f5160206134ce5f395f51905f5281565b348015610260575f5ffd5b5061027461026f366004612d62565b610673565b005b348015610281575f5ffd5b50610295610290366004612d62565b6106d4565b6040519081526020016101fd565b3480156102ae575f5ffd5b506102957f401e12293d17637080047390ba6da57cad06bbf1eb753b40b6cc8a62145ea2c281565b3480156102e1575f5ffd5b506004546101e9906001600160a01b031681565b348015610300575f5ffd5b5061029561030f366004612d79565b60026020525f908152604090205481565b34801561032b575f5ffd5b5061029561033a366004612d79565b610700565b34801561034a575f5ffd5b50610295610359366004612d94565b610771565b61027461036c366004612dd2565b610892565b34801561037c575f5ffd5b5061022561038b366004612e32565b805160208183018101805160018252928201919093012091525460ff1681565b3480156103b6575f5ffd5b506103ca6103c5366004612d62565b6108b1565b604080519384526020840192909252908201526060016101fd565b3480156103f0575f5ffd5b50610295610917565b348015610404575f5ffd5b506005546101e9906001600160a01b031681565b348015610423575f5ffd5b506101e973ca143ce32fe78f1f7019d7d551a6402fc5350c7381565b34801561044a575f5ffd5b50610274610932565b34801561045e575f5ffd5b506102746109e5565b348015610472575f5ffd5b50610274610481366004612d62565b6109f8565b348015610491575f5ffd5b5061049a610cb5565b6040516101fd9796959493929190612e92565b3480156104b8575f5ffd5b507f9016d09d72d40fdae2fd8ceac6b6234c7706214fd39c1cd1e609a0528c199300546001600160a01b03166101e9565b3480156104f4575f5ffd5b50610274610503366004612d62565b610d5e565b348015610513575f5ffd5b50610538604051806040016040528060058152602001640352e302e360dc1b81525081565b6040516101fd9190612f28565b348015610550575f5ffd5b5061029560065481565b348015610565575f5ffd5b50610295610574366004612c9f565b610e8c565b348015610584575f5ffd5b50610274610593366004612f3a565b610f4b565b3480156105a3575f5ffd5b506102746105b2366004612f71565b610fc6565b3480156105c2575f5ffd5b506101e95f51602061352e5f395f51905f5281565b3480156105e2575f5ffd5b506102746105f1366004612c9f565b611149565b348015610601575f5ffd5b50610274610610366004612d79565b611374565b348015610620575f5ffd5b506003546101e9906001600160a01b031681565b5f5f61063f83610e8c565b90505f61065a828560a001518660c001518760e001516113b1565b6005546001600160a01b03918216911614949350505050565b60035461068d906001600160a01b03163361dead846113dd565b604080513381526020810183905242918101919091527f1449c6dd7851abc30abf37f57715f492010519147cc2652fbc38202c18a6ee90906060015b60405180910390a150565b6003545f906106fa906001600160a01b03165f51602061352e5f395f51905f5284610771565b92915050565b600480546040516370a0823160e01b81526001600160a01b03848116938201939093525f92909116906370a0823190602401602060405180830381865afa15801561074d573d5f5f3e3d5ffd5b505050506040513d601f19601f820116820180604052508101906106fa9190612fb9565b6040805160028082526060820183525f928392919060208301908036833701905050905084815f815181106107a8576107a8612fd0565b60200260200101906001600160a01b031690816001600160a01b03168152505083816001815181106107dc576107dc612fd0565b6001600160a01b039092166020928302919091019091015260405163d06ca61f60e01b81525f905f5160206134ce5f395f51905f529063d06ca61f906108289087908690600401613027565b5f60405180830381865afa158015610842573d5f5f3e3d5ffd5b505050506040513d5f823e601f3d908101601f19168201604052610869919081019061303f565b90508060018151811061087e5761087e612fd0565b6020026020010151925050505b9392505050565b61089a611508565b6108a3826115ac565b6108ad82826115b4565b5050565b6003545f908190819081906108dd906001600160a01b03165f51602061352e5f395f51905f5287610771565b600354909150610909906001600160a01b03165f51602061352e5f395f51905f5287845f803342611670565b919790965090945092505050565b5f61092061178c565b505f51602061350e5f395f51905f5290565b335f90815260026020526040902054806109935760405162461bcd60e51b815260206004820152601760248201527f4e6f206c697175696469747920746f2072656d6f76652e00000000000000000060448201526064015b60405180910390fd5b335f908152600260205260408120819055806109ae836117d5565b909250905081156109d1576109d15f51602061352e5f395f51905f52338461189b565b80156109e0576109e0816119aa565b505050565b6109ed611a1f565b6109f65f611a7a565b565b610a115f51602061352e5f395f51905f523330846113dd565b6003545f90610a38905f51602061352e5f395f51905f52906001600160a01b031684610771565b6003546040516340c10f1960e01b8152306004820152602481018390529192506001600160a01b0316906340c10f19906044015f604051808303815f87803b158015610a82575f5ffd5b505af1158015610a94573d5f5f3e3d5ffd5b505060405163095ea7b360e01b81525f5160206134ce5f395f51905f526004820152602481018590525f51602061352e5f395f51905f52925063095ea7b391506044016020604051808303815f875af1158015610af3573d5f5f3e3d5ffd5b505050506040513d601f19601f82011682018060405250810190610b1791906130eb565b5060035460405163095ea7b360e01b81525f5160206134ce5f395f51905f526004820152602481018390526001600160a01b039091169063095ea7b3906044016020604051808303815f875af1158015610b73573d5f5f3e3d5ffd5b505050506040513d601f19601f82011682018060405250810190610b9791906130eb565b5060035460405162e8e33760e81b81525f91829182915f5160206134ce5f395f51905f529163e8e3370091610bf5916001600160a01b03909116905f51602061352e5f395f51905f529089908b90889081903090429060040161310a565b6060604051808303815f875af1158015610c11573d5f5f3e3d5ffd5b505050506040513d601f19601f82011682018060405250810190610c359190613153565b335f90815260026020526040812080549497509295509093508392610c5b908490613192565b909155505081851115610c8957610c895f51602061352e5f395f51905f5233610c8485896131a5565b61189b565b82841115610cae57600354610cae906001600160a01b031661dead610c8486886131a5565b5050505050565b5f60608082808083815f5160206134ee5f395f51905f528054909150158015610ce057506001810154155b610d245760405162461bcd60e51b81526020600482015260156024820152741152540dcc4c8e88155b9a5b9a5d1a585b1a5e9959605a1b604482015260640161098a565b610d2c611aea565b610d34611baa565b604080515f80825260208201909252600f60f81b9c939b5091995046985030975095509350915050565b600454610d76906001600160a01b03163330846113dd565b6004805460405163095ea7b360e01b81525f5160206134ce5f395f51905f5292810192909252602482018390526001600160a01b03169063095ea7b3906044016020604051808303815f875af1158015610dd2573d5f5f3e3d5ffd5b505050506040513d601f19601f82011682018060405250810190610df691906130eb565b50600354604051635d5155ef60e11b81525f5160206134ce5f395f51905f529163baa2abde91610e4d915f51602061352e5f395f51905f52916001600160a01b039091169086905f908190339042906004016131b8565b60408051808303815f875af1158015610e68573d5f5f3e3d5ffd5b505050506040513d601f19601f820116820180604052508101906109e091906131f8565b5f6106fa7f401e12293d17637080047390ba6da57cad06bbf1eb753b40b6cc8a62145ea2c2835f0151604051602001610ec59190613231565b604051602081830303815290604052805190602001208460200151856040015186606001518760800151604051602001610f309695949392919095865260208601949094526001600160a01b039290921660408501526060840152608083015260a082015260c00190565b60405160208183030381529060405280519060200120611be8565b610f53611a1f565b6001600160a01b038216610f985760405162461bcd60e51b815260206004820152600c60248201526b5a65726f206164647265737360a01b604482015260640161098a565b600380546001600160a01b039384166001600160a01b03199182161790915560048054929093169116179055565b5f610fcf611c14565b805490915060ff600160401b820416159067ffffffffffffffff165f81158015610ff65750825b90505f8267ffffffffffffffff1660011480156110125750303b155b905081158015611020575080155b1561103e5760405163f92ee8a960e01b815260040160405180910390fd5b845467ffffffffffffffff19166001178555831561106857845460ff60401b1916600160401b1785555b6110ab6040518060400160405280600881526020016726b4b734b733ab1960c11b815250604051806040016040528060018152602001603160f81b815250611c3c565b6110b433611c9b565b6110bc611ca3565b600380546001600160a01b03808b166001600160a01b031992831617909255600480548a84169083161790556005805492891692909116919091179055831561113f57845460ff60401b19168555604051600181527fc7f505b2f371ae2175ee4913f4499e1f2633a7b5936321eed1cdaeb6115181d29060200160405180910390a15b5050505050505050565b60065481606001511461118d5760405162461bcd60e51b815260206004820152600c60248201526b2737b731b29032b93937b91760a11b604482015260640161098a565b42816080015110156111d35760405162461bcd60e51b815260206004820152600f60248201526e2232b0b23634b7329032b93937b91760891b604482015260640161098a565b80516040516001916111e491613231565b9081526040519081900360200190205460ff16156112335760405162461bcd60e51b815260206004820152600c60248201526b13585c9ac8195e18dd5d195960a21b604482015260640161098a565b61123c81610634565b6112815760405162461bcd60e51b815260206004820152601660248201527521b432b1b59039b4b3b730ba3ab9329032b93937b91760511b604482015260640161098a565b600354602082015160408084015190516340c10f1960e01b81526001600160a01b03928316600482015260248101919091529116906340c10f19906044015f604051808303815f87803b1580156112d6575f5ffd5b505af11580156112e8573d5f5f3e3d5ffd5b50505050600180825f01516040516113009190613231565b908152604051908190036020019020805491151560ff1990921691909117905560068054905f61132f8361323c565b91905055507fb560b68b858b38da022e769a634986c1eced94a3867ed159888c34fe7510cbf4815f015182602001518360400151426040516106c99493929190613254565b61137c611a1f565b6001600160a01b0381166113a557604051631e4fbdf760e01b81525f600482015260240161098a565b6113ae81611a7a565b50565b5f5f5f5f6113c188888888611cab565b9250925092506113d18282611d73565b50909695505050505050565b604080516001600160a01b0385811660248301528481166044830152606480830185905283518084039091018152608490920183526020820180516001600160e01b03166323b872dd60e01b17905291515f928392908816916114409190613231565b5f604051808303815f865af19150503d805f8114611479576040519150601f19603f3d011682016040523d82523d5f602084013e61147e565b606091505b50915091508180156114a85750805115806114a85750808060200190518101906114a891906130eb565b6115005760405162461bcd60e51b8152602060048201526024808201527f5472616e7366657248656c7065723a205452414e534645525f46524f4d5f46416044820152631253115160e21b606482015260840161098a565b505050505050565b306001600160a01b037f000000000000000000000000000000000000000000000000000000000000000016148061158e57507f00000000000000000000000000000000000000000000000000000000000000006001600160a01b03166115825f51602061350e5f395f51905f52546001600160a01b031690565b6001600160a01b031614155b156109f65760405163703e46dd60e11b815260040160405180910390fd5b6113ae611a1f565b816001600160a01b03166352d1902d6040518163ffffffff1660e01b8152600401602060405180830381865afa92505050801561160e575060408051601f3d908101601f1916820190925261160b91810190612fb9565b60015b61163657604051634c9c8ce360e01b81526001600160a01b038316600482015260240161098a565b5f51602061350e5f395f51905f52811461166657604051632a87526960e21b81526004810182905260240161098a565b6109e08383611e2b565b5f5f5f83428110156116c45760405162461bcd60e51b815260206004820152601860248201527f556e69737761705632526f757465723a20455850495245440000000000000000604482015260640161098a565b6116d28c8c8c8c8c8c611e80565b90945092505f6116f773ca143ce32fe78f1f7019d7d551a6402fc5350c738e8e6120ee565b90506117058d3383886113dd565b6117118c3383876113dd565b6040516335313c2160e11b81526001600160a01b038881166004830152821690636a627842906024016020604051808303815f875af1158015611756573d5f5f3e3d5ffd5b505050506040513d601f19601f8201168201806040525081019061177a9190612fb9565b92505050985098509895505050505050565b306001600160a01b037f000000000000000000000000000000000000000000000000000000000000000016146109f65760405163703e46dd60e11b815260040160405180910390fd5b6004545f9081906117fd906001600160a01b03165f5160206134ce5f395f51905f52856121c4565b600354604051635d5155ef60e11b81525f5160206134ce5f395f51905f529163baa2abde91611853915f51602061352e5f395f51905f52916001600160a01b039091169088905f908190309042906004016131b8565b60408051808303815f875af115801561186e573d5f5f3e3d5ffd5b505050506040513d601f19601f8201168201806040525081019061189291906131f8565b91509150915091565b604080516001600160a01b038481166024830152604480830185905283518084039091018152606490920183526020820180516001600160e01b031663a9059cbb60e01b17905291515f928392908716916118f69190613231565b5f604051808303815f865af19150503d805f811461192f576040519150601f19603f3d011682016040523d82523d5f602084013e611934565b606091505b509150915081801561195e57508051158061195e57508080602001905181019061195e91906130eb565b610cae5760405162461bcd60e51b815260206004820152601f60248201527f5472616e7366657248656c7065723a205452414e534645525f4641494c454400604482015260640161098a565b5f6119b660028361328b565b90505f6119c382846131a5565b6003549091506119df906001600160a01b031661dead8461189b565b5f6119e9826122a4565b90508015611a00576119fb82826124c5565b611a19565b600354611a19906001600160a01b031661dead8461189b565b50505050565b33611a517f9016d09d72d40fdae2fd8ceac6b6234c7706214fd39c1cd1e609a0528c199300546001600160a01b031690565b6001600160a01b0316146109f65760405163118cdaa760e01b815233600482015260240161098a565b7f9016d09d72d40fdae2fd8ceac6b6234c7706214fd39c1cd1e609a0528c19930080546001600160a01b031981166001600160a01b03848116918217845560405192169182907f8be0079c531659141344cd1fd0a4f28419497f9722a3daafe3b4186f6b6457e0905f90a3505050565b7fa16a46d94261c7517cc8ff89f61c0ce93598e3c849801011dee649a6a557d10280546060915f5160206134ee5f395f51905f5291611b28906132aa565b80601f0160208091040260200160405190810160405280929190818152602001828054611b54906132aa565b8015611b9f5780601f10611b7657610100808354040283529160200191611b9f565b820191905f5260205f20905b815481529060010190602001808311611b8257829003601f168201915b505050505091505090565b7fa16a46d94261c7517cc8ff89f61c0ce93598e3c849801011dee649a6a557d10380546060915f5160206134ee5f395f51905f5291611b28906132aa565b5f6106fa611bf46125a5565b8360405161190160f01b8152600281019290925260228201526042902090565b5f807ff0c57e16840df040f15088dc2f81fe391c3923bec73e23a9662efc9c229c6a006106fa565b611c446125b3565b5f5160206134ee5f395f51905f527fa16a46d94261c7517cc8ff89f61c0ce93598e3c849801011dee649a6a557d102611c7d8482613326565b5060038101611c8c8382613326565b505f8082556001909101555050565b61137c6125b3565b6109f66125b3565b5f80807f7fffffffffffffffffffffffffffffff5d576e7357a4501ddfe92f46681b20a0841115611ce457505f91506003905082611d69565b604080515f808252602082018084528a905260ff891692820192909252606081018790526080810186905260019060a0016020604051602081039080840390855afa158015611d35573d5f5f3e3d5ffd5b5050604051601f1901519150506001600160a01b038116611d6057505f925060019150829050611d69565b92505f91508190505b9450945094915050565b5f826003811115611d8657611d866133e1565b03611d8f575050565b6001826003811115611da357611da36133e1565b03611dc15760405163f645eedf60e01b815260040160405180910390fd5b6002826003811115611dd557611dd56133e1565b03611df65760405163fce698f760e01b81526004810182905260240161098a565b6003826003811115611e0a57611e0a6133e1565b036108ad576040516335e2f38360e21b81526004810182905260240161098a565b611e34826125d8565b6040516001600160a01b038316907fbc7cd75a20ee27fd9adebab32041f755214dbc6bffa90cc0225b39da2e5c2d3b905f90a2805115611e78576109e0828261263b565b6108ad6126a4565b60405163e6a4390560e01b81526001600160a01b038088166004830152861660248201525f908190819073ca143ce32fe78f1f7019d7d551a6402fc5350c739063e6a4390590604401602060405180830381865afa158015611ee4573d5f5f3e3d5ffd5b505050506040513d601f19601f82011682018060405250810190611f0891906133f5565b6001600160a01b031603611f9b576040516364e329cb60e11b81526001600160a01b03808a1660048301528816602482015273ca143ce32fe78f1f7019d7d551a6402fc5350c739063c9c65396906044016020604051808303815f875af1158015611f75573d5f5f3e3d5ffd5b505050506040513d601f19601f82011682018060405250810190611f9991906133f5565b505b5f5f611fbc73ca143ce32fe78f1f7019d7d551a6402fc5350c738b8b6126c3565b91509150815f148015611fcd575080155b15611fdd578793508692506120e1565b5f611fe9898484612788565b905087811161205c57858110156120515760405162461bcd60e51b815260206004820152602660248201527f556e69737761705632526f757465723a20494e53554646494349454e545f425f604482015265105353d5539560d21b606482015260840161098a565b8894509250826120df565b5f612068898486612788565b90508981111561207a5761207a613410565b878110156120d95760405162461bcd60e51b815260206004820152602660248201527f556e69737761705632526f757465723a20494e53554646494349454e545f415f604482015265105353d5539560d21b606482015260840161098a565b94508793505b505b5050965096945050505050565b5f5f5f6120fb858561286e565b6040516bffffffffffffffffffffffff19606084811b8216602084015283901b16603482015291935091508690604801604051602081830303815290604052805190602001206040516020016121a29291906001600160f81b0319815260609290921b6bffffffffffffffffffffffff1916600183015260158201527efb7f630766e6a796048ea87d01acd3068e8ff67d078148a3fa3f4a84f69bd5603582015260550190565b60408051601f1981840301815291905280516020909101209695505050505050565b60405163095ea7b360e01b81526001600160a01b0383811660048301525f602483015284169063095ea7b3906044016020604051808303815f875af115801561220f573d5f5f3e3d5ffd5b505050506040513d601f19601f8201168201806040525081019061223391906130eb565b5060405163095ea7b360e01b81526001600160a01b0383811660048301526024820183905284169063095ea7b3906044016020604051808303815f875af1158015612280573d5f5f3e3d5ffd5b505050506040513d601f19601f82011682018060405250810190611a1991906130eb565b5f815f036122b357505f919050565b6003546122d7906001600160a01b03165f5160206134ce5f395f51905f52846121c4565b6040805160028082526060820183525f92602083019080368337505060035482519293506001600160a01b0316918391505f9061231657612316612fd0565b60200260200101906001600160a01b031690816001600160a01b0316815250505f51602061352e5f395f51905f528160018151811061235757612357612fd0565b6001600160a01b0392909216602092830291909101909101526040516370a0823160e01b81523060048201525f905f51602061352e5f395f51905f52906370a0823190602401602060405180830381865afa1580156123b8573d5f5f3e3d5ffd5b505050506040513d601f19601f820116820180604052508101906123dc9190612fb9565b604051635c11d79560e01b81529091505f5160206134ce5f395f51905f5290635c11d795906124179087905f90879030904290600401613424565b5f604051808303815f87803b15801561242e575f5ffd5b505af1158015612440573d5f5f3e3d5ffd5b50506040516370a0823160e01b81523060048201525f92505f51602061352e5f395f51905f5291506370a0823190602401602060405180830381865afa15801561248c573d5f5f3e3d5ffd5b505050506040513d601f19601f820116820180604052508101906124b09190612fb9565b90506124bc82826131a5565b95945050505050565b6003546124e9906001600160a01b03165f5160206134ce5f395f51905f52846121c4565b61250e5f51602061352e5f395f51905f525f5160206134ce5f395f51905f52836121c4565b60035460405162e8e33760e81b81525f5160206134ce5f395f51905f529163e8e3370091612565916001600160a01b0316905f51602061352e5f395f51905f5290879087905f90819061dead90429060040161310a565b6060604051808303815f875af1158015612581573d5f5f3e3d5ffd5b505050506040513d601f19601f82011682018060405250810190610cae9190613153565b5f6125ae612964565b905090565b6125bb6129d7565b6109f657604051631afcd79f60e31b815260040160405180910390fd5b806001600160a01b03163b5f0361260d57604051634c9c8ce360e01b81526001600160a01b038216600482015260240161098a565b5f51602061350e5f395f51905f5280546001600160a01b0319166001600160a01b0392909216919091179055565b60605f5f846001600160a01b0316846040516126579190613231565b5f60405180830381855af49150503d805f811461268f576040519150601f19603f3d011682016040523d82523d5f602084013e612694565b606091505b50915091506124bc8583836129f0565b34156109f65760405163b398979f60e01b815260040160405180910390fd5b5f5f5f6126d0858561286e565b5090505f5f6126e08888886120ee565b6001600160a01b0316630902f1ac6040518163ffffffff1660e01b8152600401606060405180830381865afa15801561271b573d5f5f3e3d5ffd5b505050506040513d601f19601f8201168201806040525081019061273f9190613475565b506001600160701b031691506001600160701b03169150826001600160a01b0316876001600160a01b031614612776578082612779565b81815b90999098509650505050505050565b5f5f84116127e65760405162461bcd60e51b815260206004820152602560248201527f556e697377617056324c6962726172793a20494e53554646494349454e545f416044820152641353d5539560da1b606482015260840161098a565b5f831180156127f457505f82115b6128515760405162461bcd60e51b815260206004820152602860248201527f556e697377617056324c6962726172793a20494e53554646494349454e545f4c604482015267495155494449545960c01b606482015260840161098a565b8261285c8584612a4c565b612866919061328b565b949350505050565b5f5f826001600160a01b0316846001600160a01b0316036128df5760405162461bcd60e51b815260206004820152602560248201527f556e697377617056324c6962726172793a204944454e544943414c5f41444452604482015264455353455360d81b606482015260840161098a565b826001600160a01b0316846001600160a01b0316106128ff578284612902565b83835b90925090506001600160a01b03821661295d5760405162461bcd60e51b815260206004820152601e60248201527f556e697377617056324c6962726172793a205a45524f5f414444524553530000604482015260640161098a565b9250929050565b5f7f8b73c3c69bb8fe3d512ecc4cf759cc79239f7b179b0ffacaa9a75d522b39400f61298e612ab2565b612996612b1a565b60408051602081019490945283019190915260608201524660808201523060a082015260c00160405160208183030381529060405280519060200120905090565b5f6129e0611c14565b54600160401b900460ff16919050565b606082612a0557612a0082612b5c565b61088b565b8151158015612a1c57506001600160a01b0384163b155b15612a4557604051639996b31560e01b81526001600160a01b038516600482015260240161098a565b508061088b565b5f811580612a6f57508282612a6181836134b6565b9250612a6d908361328b565b145b6106fa5760405162461bcd60e51b815260206004820152601460248201527364732d6d6174682d6d756c2d6f766572666c6f7760601b604482015260640161098a565b5f5f5160206134ee5f395f51905f5281612aca611aea565b805190915015612ae257805160209091012092915050565b81548015612af1579392505050565b7fc5d2460186f7233c927e7db2dcc703c0e500b653ca82273b7bfad8045d85a470935050505090565b5f5f5160206134ee5f395f51905f5281612b32611baa565b805190915015612b4a57805160209091012092915050565b60018201548015612af1579392505050565b805115612b6c5780518082602001fd5b60405163d6bda27560e01b815260040160405180910390fd5b634e487b7160e01b5f52604160045260245ffd5b604051610100810167ffffffffffffffff81118282101715612bbd57612bbd612b85565b60405290565b604051601f8201601f1916810167ffffffffffffffff81118282101715612bec57612bec612b85565b604052919050565b5f5f67ffffffffffffffff841115612c0e57612c0e612b85565b50601f8301601f1916602001612c2381612bc3565b915050828152838383011115612c37575f5ffd5b828260208301375f602084830101529392505050565b5f82601f830112612c5c575f5ffd5b61088b83833560208501612bf4565b6001600160a01b03811681146113ae575f5ffd5b8035612c8a81612c6b565b919050565b803560ff81168114612c8a575f5ffd5b5f60208284031215612caf575f5ffd5b813567ffffffffffffffff811115612cc5575f5ffd5b82016101008185031215612cd7575f5ffd5b612cdf612b99565b813567ffffffffffffffff811115612cf5575f5ffd5b612d0186828501612c4d565b825250612d1060208301612c7f565b6020820152604082810135908201526060808301359082015260808083013590820152612d3f60a08301612c8f565b60a082015260c0828101359082015260e091820135918101919091529392505050565b5f60208284031215612d72575f5ffd5b5035919050565b5f60208284031215612d89575f5ffd5b813561088b81612c6b565b5f5f5f60608486031215612da6575f5ffd5b8335612db181612c6b565b92506020840135612dc181612c6b565b929592945050506040919091013590565b5f5f60408385031215612de3575f5ffd5b8235612dee81612c6b565b9150602083013567ffffffffffffffff811115612e09575f5ffd5b8301601f81018513612e19575f5ffd5b612e2885823560208401612bf4565b9150509250929050565b5f60208284031215612e42575f5ffd5b813567ffffffffffffffff811115612e58575f5ffd5b61286684828501612c4d565b5f81518084528060208401602086015e5f602082860101526020601f19601f83011685010191505092915050565b60ff60f81b8816815260e060208201525f612eb060e0830189612e64565b8281036040840152612ec28189612e64565b606084018890526001600160a01b038716608085015260a0840186905283810360c0850152845180825260208087019350909101905f5b81811015612f17578351835260209384019390920191600101612ef9565b50909b9a5050505050505050505050565b602081525f61088b6020830184612e64565b5f5f60408385031215612f4b575f5ffd5b8235612f5681612c6b565b91506020830135612f6681612c6b565b809150509250929050565b5f5f5f60608486031215612f83575f5ffd5b8335612f8e81612c6b565b92506020840135612f9e81612c6b565b91506040840135612fae81612c6b565b809150509250925092565b5f60208284031215612fc9575f5ffd5b5051919050565b634e487b7160e01b5f52603260045260245ffd5b5f8151808452602084019350602083015f5b8281101561301d5781516001600160a01b0316865260209586019590910190600101612ff6565b5093949350505050565b828152604060208201525f6128666040830184612fe4565b5f6020828403121561304f575f5ffd5b815167ffffffffffffffff811115613065575f5ffd5b8201601f81018413613075575f5ffd5b805167ffffffffffffffff81111561308f5761308f612b85565b8060051b61309f60208201612bc3565b918252602081840181019290810190878411156130ba575f5ffd5b6020850194505b838510156130e0578451808352602095860195909350909101906130c1565b979650505050505050565b5f602082840312156130fb575f5ffd5b8151801515811461088b575f5ffd5b6001600160a01b039889168152968816602088015260408701959095526060860193909352608085019190915260a084015290921660c082015260e08101919091526101000190565b5f5f5f60608486031215613165575f5ffd5b5050815160208301516040909301519094929350919050565b634e487b7160e01b5f52601160045260245ffd5b808201808211156106fa576106fa61317e565b818103818111156106fa576106fa61317e565b6001600160a01b039788168152958716602087015260408601949094526060850192909252608084015290921660a082015260c081019190915260e00190565b5f5f60408385031215613209575f5ffd5b505080516020909101519092909150565b5f81518060208401855e5f93019283525090919050565b5f61088b828461321a565b5f6001820161324d5761324d61317e565b5060010190565b608081525f6132666080830187612e64565b6001600160a01b03959095166020830152506040810192909252606090910152919050565b5f826132a557634e487b7160e01b5f52601260045260245ffd5b500490565b600181811c908216806132be57607f821691505b6020821081036132dc57634e487b7160e01b5f52602260045260245ffd5b50919050565b601f8211156109e057805f5260205f20601f840160051c810160208510156133075750805b601f840160051c820191505b81811015610cae575f8155600101613313565b815167ffffffffffffffff81111561334057613340612b85565b6133548161334e84546132aa565b846132e2565b6020601f821160018114613386575f831561336f5750848201515b5f19600385901b1c1916600184901b178455610cae565b5f84815260208120601f198516915b828110156133b55787850151825560209485019460019092019101613395565b50848210156133d257868401515f19600387901b60f8161c191681555b50505050600190811b01905550565b634e487b7160e01b5f52602160045260245ffd5b5f60208284031215613405575f5ffd5b815161088b81612c6b565b634e487b7160e01b5f52600160045260245ffd5b85815284602082015260a060408201525f61344260a0830186612fe4565b6001600160a01b0394909416606083015250608001529392505050565b80516001600160701b0381168114612c8a575f5ffd5b5f5f5f60608486031215613487575f5ffd5b6134908461345f565b925061349e6020850161345f565b9150604084015163ffffffff81168114612fae575f5ffd5b80820281158282048414176106fa576106fa61317e56fe00000000000000000000000010ed43c718714eb63d5aa57b78b54704e256024ea16a46d94261c7517cc8ff89f61c0ce93598e3c849801011dee649a6a557d100360894a13ba1a3210667c828492db98dca3e2076cc3735a920a3ca505d382bbc00000000000000000000000055d398326f99059ff775485246999027b3197955a26469706673582212204c03f73e3155d613ab988e3ed462f8248dfb07af03dee13dc7f480a9cdfd843e64736f6c634300081c0033","linkReferences":{}},"methodIdentifiers":{"DEAD()":"03fd2a45","SIGN_TYPEHASH()":"2f1d14cb","UPGRADE_INTERFACE_VERSION()":"ad3cb1cc","USDT()":"c54e44eb","addLiquidity(uint256)":"51c6590a","checkerSignMsgSignature((string,address,uint256,uint256,uint256,uint8,bytes32,bytes32))":"0cb9b96a","claim((string,address,uint256,uint256,uint256,uint8,bytes32,bytes32))":"e32c03c7","eip712Domain()":"84b0196e","getAmountOut(address,address,uint256)":"4aa06652","getQuoteAmount(uint256)":"2a75d5f4","getSignMsgHash((string,address,uint256,uint256,uint256,uint8,bytes32,bytes32))":"b1060225","initialize(address,address,address)":"c0c53b8b","isExcuted(string)":"4fb7726f","liquidityAmount(address)":"35e344f2","lp()":"313c06a0","nonce()":"affed0e0","owner()":"8da5cb5b","permit()":"5777e93d","proxiableUUID()":"52d1902d","raisefunds(uint256)":"80565655","removeLiquidity(uint256)":"9c8f9f23","removeLiquidityOfRaiseFunds()":"62d284b2","renounceOwnership()":"715018a6","serchLiquidityBalance(address)":"36b4733d","setConfig(address,address)":"b602024b","staking(uint256)":"1dbb2a22","token()":"fc0c546a","transferOwnership(address)":"f2fde38b","uniswapV2Factory()":"59d0f713","uniswapV2Router()":"1694505e","upgradeToAndCall(address,bytes)":"4f1ef286"},"id":45}