{"abi":[{"type":"function","name":"DEAD","inputs":[],"outputs":[{"name":"","type":"address","internalType":"address"}],"stateMutability":"view"},{"type":"function","name":"SIGN_TYPEHASH","inputs":[],"outputs":[{"name":"","type":"bytes32","internalType":"bytes32"}],"stateMutability":"view"},{"type":"function","name":"UPGRADE_INTERFACE_VERSION","inputs":[],"outputs":[{"name":"","type":"string","internalType":"string"}],"stateMutability":"view"},{"type":"function","name":"USDT","inputs":[],"outputs":[{"name":"","type":"address","internalType":"address"}],"stateMutability":"view"},{"type":"function","name":"addLiquidity","inputs":[{"name":"amountToken","type":"uint256","internalType":"uint256"}],"outputs":[{"name":"_amountToken","type":"uint256","internalType":"uint256"},{"name":"_amountUsdt","type":"uint256","internalType":"uint256"},{"name":"_liquidityAmount","type":"uint256","internalType":"uint256"}],"stateMutability":"nonpayable"},{"type":"function","name":"blacklist","inputs":[{"name":"","type":"address","internalType":"address"}],"outputs":[{"name":"","type":"bool","internalType":"bool"}],"stateMutability":"view"},{"type":"function","name":"checkerSignMsgSignature","inputs":[{"name":"_msg","type":"tuple","internalType":"struct SignatureInfo.SignMessage","components":[{"name":"mark","type":"string","internalType":"string"},{"name":"recipient","type":"address","internalType":"address"},{"name":"amount","type":"uint256","internalType":"uint256"},{"name":"nonce","type":"uint256","internalType":"uint256"},{"name":"deadline","type":"uint256","internalType":"uint256"},{"name":"v","type":"uint8","internalType":"uint8"},{"name":"r","type":"bytes32","internalType":"bytes32"},{"name":"s","type":"bytes32","internalType":"bytes32"}]}],"outputs":[{"name":"","type":"bool","internalType":"bool"}],"stateMutability":"view"},{"type":"function","name":"claim","inputs":[{"name":"_msg","type":"tuple","internalType":"struct SignatureInfo.SignMessage","components":[{"name":"mark","type":"string","internalType":"string"},{"name":"recipient","type":"address","internalType":"address"},{"name":"amount","type":"uint256","internalType":"uint256"},{"name":"nonce","type":"uint256","internalType":"uint256"},{"name":"deadline","type":"uint256","internalType":"uint256"},{"name":"v","type":"uint8","internalType":"uint8"},{"name":"r","type":"bytes32","internalType":"bytes32"},{"name":"s","type":"bytes32","internalType":"bytes32"}]}],"outputs":[],"stateMutability":"nonpayable"},{"type":"function","name":"eip712Domain","inputs":[],"outputs":[{"name":"fields","type":"bytes1","internalType":"bytes1"},{"name":"name","type":"string","internalType":"string"},{"name":"version","type":"string","internalType":"string"},{"name":"chainId","type":"uint256","internalType":"uint256"},{"name":"verifyingContract","type":"address","internalType":"address"},{"name":"salt","type":"bytes32","internalType":"bytes32"},{"name":"extensions","type":"uint256[]","internalType":"uint256[]"}],"stateMutability":"view"},{"type":"function","name":"extractedValue","inputs":[{"name":"","type":"address","internalType":"address"}],"outputs":[{"name":"","type":"uint256","internalType":"uint256"}],"stateMutability":"view"},{"type":"function","name":"getAmountOut","inputs":[{"name":"token0","type":"address","internalType":"address"},{"name":"token1","type":"address","internalType":"address"},{"name":"token0Amount","type":"uint256","internalType":"uint256"}],"outputs":[{"name":"","type":"uint256","internalType":"uint256"}],"stateMutability":"view"},{"type":"function","name":"getQuoteAmount","inputs":[{"name":"amountToken","type":"uint256","internalType":"uint256"}],"outputs":[{"name":"amountUsdt","type":"uint256","internalType":"uint256"}],"stateMutability":"view"},{"type":"function","name":"getSignMsgHash","inputs":[{"name":"_msg","type":"tuple","internalType":"struct SignatureInfo.SignMessage","components":[{"name":"mark","type":"string","internalType":"string"},{"name":"recipient","type":"address","internalType":"address"},{"name":"amount","type":"uint256","internalType":"uint256"},{"name":"nonce","type":"uint256","internalType":"uint256"},{"name":"deadline","type":"uint256","internalType":"uint256"},{"name":"v","type":"uint8","internalType":"uint8"},{"name":"r","type":"bytes32","internalType":"bytes32"},{"name":"s","type":"bytes32","internalType":"bytes32"}]}],"outputs":[{"name":"","type":"bytes32","internalType":"bytes32"}],"stateMutability":"view"},{"type":"function","name":"initialize","inputs":[{"name":"_token","type":"address","internalType":"address"},{"name":"_lp","type":"address","internalType":"address"},{"name":"_permit","type":"address","internalType":"address"}],"outputs":[],"stateMutability":"nonpayable"},{"type":"function","name":"isExcuted","inputs":[{"name":"","type":"string","internalType":"string"}],"outputs":[{"name":"","type":"bool","internalType":"bool"}],"stateMutability":"view"},{"type":"function","name":"isExemptFrom","inputs":[{"name":"","type":"address","internalType":"address"}],"outputs":[{"name":"","type":"bool","internalType":"bool"}],"stateMutability":"view"},{"type":"function","name":"lp","inputs":[],"outputs":[{"name":"","type":"address","internalType":"address"}],"stateMutability":"view"},{"type":"function","name":"nonce","inputs":[],"outputs":[{"name":"","type":"uint256","internalType":"uint256"}],"stateMutability":"view"},{"type":"function","name":"owner","inputs":[],"outputs":[{"name":"","type":"address","internalType":"address"}],"stateMutability":"view"},{"type":"function","name":"permit","inputs":[],"outputs":[{"name":"","type":"address","internalType":"address"}],"stateMutability":"view"},{"type":"function","name":"proxiableUUID","inputs":[],"outputs":[{"name":"","type":"bytes32","internalType":"bytes32"}],"stateMutability":"view"},{"type":"function","name":"removeLiquidity","inputs":[{"name":"_liquidity","type":"uint256","internalType":"uint256"}],"outputs":[],"stateMutability":"nonpayable"},{"type":"function","name":"renounceOwnership","inputs":[],"outputs":[],"stateMutability":"nonpayable"},{"type":"function","name":"setBlacklist","inputs":[{"name":"_addrs","type":"address[]","internalType":"address[]"},{"name":"_blacklist","type":"bool","internalType":"bool"}],"outputs":[],"stateMutability":"nonpayable"},{"type":"function","name":"setConfig","inputs":[{"name":"_token","type":"address","internalType":"address"},{"name":"_lp","type":"address","internalType":"address"},{"name":"_permit","type":"address","internalType":"address"}],"outputs":[],"stateMutability":"nonpayable"},{"type":"function","name":"staking","inputs":[{"name":"amountToken","type":"uint256","internalType":"uint256"}],"outputs":[],"stateMutability":"nonpayable"},{"type":"function","name":"stakingValue","inputs":[{"name":"","type":"address","internalType":"address"}],"outputs":[{"name":"","type":"uint256","internalType":"uint256"}],"stateMutability":"view"},{"type":"function","name":"token","inputs":[],"outputs":[{"name":"","type":"address","internalType":"address"}],"stateMutability":"view"},{"type":"function","name":"transferOwnership","inputs":[{"name":"newOwner","type":"address","internalType":"address"}],"outputs":[],"stateMutability":"nonpayable"},{"type":"function","name":"uniswapV2Factory","inputs":[],"outputs":[{"name":"","type":"address","internalType":"address"}],"stateMutability":"view"},{"type":"function","name":"uniswapV2Router","inputs":[],"outputs":[{"name":"","type":"address","internalType":"address"}],"stateMutability":"view"},{"type":"function","name":"upgradeToAndCall","inputs":[{"name":"newImplementation","type":"address","internalType":"address"},{"name":"data","type":"bytes","internalType":"bytes"}],"outputs":[],"stateMutability":"payable"},{"type":"event","name":"Claimed","inputs":[{"name":"mark","type":"string","indexed":false,"internalType":"string"},{"name":"recipient","type":"address","indexed":false,"internalType":"address"},{"name":"amount","type":"uint256","indexed":false,"internalType":"uint256"},{"name":"time","type":"uint256","indexed":false,"internalType":"uint256"}],"anonymous":false},{"type":"event","name":"EIP712DomainChanged","inputs":[],"anonymous":false},{"type":"event","name":"Initialized","inputs":[{"name":"version","type":"uint64","indexed":false,"internalType":"uint64"}],"anonymous":false},{"type":"event","name":"OwnershipTransferred","inputs":[{"name":"previousOwner","type":"address","indexed":true,"internalType":"address"},{"name":"newOwner","type":"address","indexed":true,"internalType":"address"}],"anonymous":false},{"type":"event","name":"Staked","inputs":[{"name":"staker","type":"address","indexed":false,"internalType":"address"},{"name":"amount","type":"uint256","indexed":false,"internalType":"uint256"},{"name":"time","type":"uint256","indexed":false,"internalType":"uint256"}],"anonymous":false},{"type":"event","name":"Upgraded","inputs":[{"name":"implementation","type":"address","indexed":true,"internalType":"address"}],"anonymous":false},{"type":"error","name":"AddressEmptyCode","inputs":[{"name":"target","type":"address","internalType":"address"}]},{"type":"error","name":"ECDSAInvalidSignature","inputs":[]},{"type":"error","name":"ECDSAInvalidSignatureLength","inputs":[{"name":"length","type":"uint256","internalType":"uint256"}]},{"type":"error","name":"ECDSAInvalidSignatureS","inputs":[{"name":"s","type":"bytes32","internalType":"bytes32"}]},{"type":"error","name":"ERC1967InvalidImplementation","inputs":[{"name":"implementation","type":"address","internalType":"address"}]},{"type":"error","name":"ERC1967NonPayable","inputs":[]},{"type":"error","name":"FailedCall","inputs":[]},{"type":"error","name":"InvalidInitialization","inputs":[]},{"type":"error","name":"NotInitializing","inputs":[]},{"type":"error","name":"OwnableInvalidOwner","inputs":[{"name":"owner","type":"address","internalType":"address"}]},{"type":"error","name":"OwnableUnauthorizedAccount","inputs":[{"name":"account","type":"address","internalType":"address"}]},{"type":"error","name":"ReentrancyGuardReentrantCall","inputs":[]},{"type":"error","name":"UUPSUnauthorizedCallContext","inputs":[]},{"type":"error","name":"UUPSUnsupportedProxiableUUID","inputs":[{"name":"slot","type":"bytes32","internalType":"bytes32"}]}],"bytecode":{"object":"0x60a0604052306080523480156012575f5ffd5b5060015f55608051612dc861003d5f395f818161141701528181611440015261169b0152612dc85ff3fe6080604052600436106101db575f3560e01c8063715018a6116100fd578063b915e75511610092578063ef86178611610062578063ef8617861461060a578063f2fde38b14610635578063f9f92be414610654578063fc0c546a14610682575f5ffd5b8063b915e75514610577578063c0c53b8b146105a5578063c54e44eb146105c4578063e32c03c7146105eb575f5ffd5b8063ad3cb1cc116100cd578063ad3cb1cc146104db578063affed0e014610518578063b10602251461052d578063b726caad1461054c575f5ffd5b8063715018a61461044557806384b0196e146104595780638da5cb5b146104805780639c8f9f23146104bc575f5ffd5b80633141e25b1161017357806351c6590a1161014357806351c6590a146103b157806352d1902d146103eb5780635777e93d146103ff57806359d0f7131461041e575f5ffd5b80633141e25b146103265780634aa06652146103455780634f1ef286146103645780634fb7726f14610377575f5ffd5b80631dbb2a22116101ae5780631dbb2a22146102885780632a75d5f4146102a75780632f1d14cb146102d4578063313c06a014610307575f5ffd5b806303fd2a45146101df5780630cb9b96a146102115780630e85d1e3146102405780631694505e14610261575b5f5ffd5b3480156101ea575f5ffd5b506101f461dead81565b6040516001600160a01b0390911681526020015b60405180910390f35b34801561021c575f5ffd5b5061023061022b366004612603565b6106a1565b6040519015158152602001610208565b34801561024b575f5ffd5b5061025f61025a3660046126d1565b6106e0565b005b34801561026c575f5ffd5b506101f47310ed43c718714eb63d5aa57b78b54704e256024e81565b348015610293575f5ffd5b5061025f6102a2366004612751565b610803565b3480156102b2575f5ffd5b506102c66102c1366004612751565b6108f6565b604051908152602001610208565b3480156102df575f5ffd5b506102c67f401e12293d17637080047390ba6da57cad06bbf1eb753b40b6cc8a62145ea2c281565b348015610312575f5ffd5b506003546101f4906001600160a01b031681565b348015610331575f5ffd5b5061025f610340366004612768565b610929565b348015610350575f5ffd5b506102c661035f3660046127a5565b6109b5565b61025f6103723660046127e3565b610add565b348015610382575f5ffd5b50610230610391366004612842565b805160208183018101805160018252928201919093012091525460ff1681565b3480156103bc575f5ffd5b506103d06103cb366004612751565b610afc565b60408051938452602084019290925290820152606001610208565b3480156103f6575f5ffd5b506102c6610b70565b34801561040a575f5ffd5b506004546101f4906001600160a01b031681565b348015610429575f5ffd5b506101f473ca143ce32fe78f1f7019d7d551a6402fc5350c7381565b348015610450575f5ffd5b5061025f610b8b565b348015610464575f5ffd5b5061046d610b9e565b60405161020897969594939291906128a1565b34801561048b575f5ffd5b507f9016d09d72d40fdae2fd8ceac6b6234c7706214fd39c1cd1e609a0528c199300546001600160a01b03166101f4565b3480156104c7575f5ffd5b5061025f6104d6366004612751565b610c47565b3480156104e6575f5ffd5b5061050b604051806040016040528060058152602001640352e302e360dc1b81525081565b6040516102089190612937565b348015610523575f5ffd5b506102c660055481565b348015610538575f5ffd5b506102c6610547366004612603565b610d47565b348015610557575f5ffd5b506102c6610566366004612949565b60066020525f908152604090205481565b348015610582575f5ffd5b50610230610591366004612949565b60086020525f908152604090205460ff1681565b3480156105b0575f5ffd5b5061025f6105bf366004612768565b610e06565b3480156105cf575f5ffd5b506101f47355d398326f99059ff775485246999027b319795581565b3480156105f6575f5ffd5b5061025f610605366004612603565b610f87565b348015610615575f5ffd5b506102c6610624366004612949565b60076020525f908152604090205481565b348015610640575f5ffd5b5061025f61064f366004612949565b61121d565b34801561065f575f5ffd5b5061023061066e366004612949565b60096020525f908152604090205460ff1681565b34801561068d575f5ffd5b506002546101f4906001600160a01b031681565b5f5f6106ac83610d47565b90505f6106c7828560a001518660c001518760e0015161125a565b6004546001600160a01b03918216911614949350505050565b6004546001600160a01b0316331461072c5760405162461bcd60e51b815260206004820152600a602482015269139bdd081c195c9b5a5d60b21b60448201526064015b60405180910390fd5b5f5b828110156107fd575f84848381811061074957610749612964565b905060200201602081019061075e9190612949565b6001600160a01b0316036107a35760405162461bcd60e51b815260206004820152600c60248201526b5a45524f204144445245535360a01b6044820152606401610723565b8160095f8686858181106107b9576107b9612964565b90506020020160208101906107ce9190612949565b6001600160a01b0316815260208101919091526040015f20805460ff191691151591909117905560010161072e565b50505050565b6002545f90610830906001600160a01b03167355d398326f99059ff775485246999027b3197955846109b5565b905068056bc75e2d631000008110156108995760405162461bcd60e51b815260206004820152602560248201527f4174206c65617374203130305553445420746f6b656e7320617265207265717560448201526434b932b21760d91b6064820152608401610723565b6002546108b3906001600160a01b03163361dead85611286565b6040805133815260208101849052428183015290517f1449c6dd7851abc30abf37f57715f492010519147cc2652fbc38202c18a6ee909181900360600190a15050565b6002545f90610923906001600160a01b03167355d398326f99059ff775485246999027b3197955846109b5565b92915050565b6109316113b1565b6001600160a01b0383166109765760405162461bcd60e51b815260206004820152600c60248201526b5a65726f206164647265737360a01b6044820152606401610723565b600280546001600160a01b039485166001600160a01b031991821617909155600380549385169382169390931790925560048054919093169116179055565b6040805160028082526060820183525f928392919060208301908036833701905050905084815f815181106109ec576109ec612964565b60200260200101906001600160a01b031690816001600160a01b0316815250508381600181518110610a2057610a20612964565b6001600160a01b039092166020928302919091019091015260405163d06ca61f60e01b81525f907310ed43c718714eb63d5aa57b78b54704e256024e9063d06ca61f90610a739087908690600401612978565b5f60405180830381865afa158015610a8d573d5f5f3e3d5ffd5b505050506040513d5f823e601f3d908101601f19168201604052610ab491908101906129c2565b905080600181518110610ac957610ac9612964565b6020026020010151925050505b9392505050565b610ae561140c565b610aee826114b0565b610af882826114b8565b5050565b6002545f90819081908190610b2f906001600160a01b03167355d398326f99059ff775485246999027b3197955876109b5565b600254909150610b62906001600160a01b03167355d398326f99059ff775485246999027b319795587845f803342611574565b919790965090945092505050565b5f610b79611690565b505f516020612d735f395f51905f5290565b610b936113b1565b610b9c5f6116d9565b565b5f60608082808083815f516020612d535f395f51905f528054909150158015610bc957506001810154155b610c0d5760405162461bcd60e51b81526020600482015260156024820152741152540dcc4c8e88155b9a5b9a5d1a585b1a5e9959605a1b6044820152606401610723565b610c15611749565b610c1d611809565b604080515f80825260208201909252600f60f81b9c939b5091995046985030975095509350915050565b600354610c5f906001600160a01b0316333084611286565b600354610c8a906001600160a01b03167310ed43c718714eb63d5aa57b78b54704e256024e83611847565b600254604051635d5155ef60e11b81527355d398326f99059ff775485246999027b319795560048201526001600160a01b039091166024820152604481018290525f6064820181905260848201523360a48201524260c48201527310ed43c718714eb63d5aa57b78b54704e256024e9063baa2abde9060e40160408051808303815f875af1158015610d1e573d5f5f3e3d5ffd5b505050506040513d601f19601f82011682018060405250810190610d429190612a6c565b505050565b5f6109237f401e12293d17637080047390ba6da57cad06bbf1eb753b40b6cc8a62145ea2c2835f0151604051602001610d809190612aa5565b604051602081830303815290604052805190602001208460200151856040015186606001518760800151604051602001610deb9695949392919095865260208601949094526001600160a01b039290921660408501526060840152608083015260a082015260c00190565b60405160208183030381529060405280519060200120611927565b5f610e0f611953565b805490915060ff600160401b82041615906001600160401b03165f81158015610e355750825b90505f826001600160401b03166001148015610e505750303b155b905081158015610e5e575080155b15610e7c5760405163f92ee8a960e01b815260040160405180910390fd5b845467ffffffffffffffff191660011785558315610ea657845460ff60401b1916600160401b1785555b610ee96040518060400160405280600881526020016726b4b734b733ab1960c11b815250604051806040016040528060018152602001603160f81b81525061197b565b610ef2336119da565b610efa6119e2565b600280546001600160a01b03808b166001600160a01b031992831617909255600380548a841690831617905560048054928916929091169190911790558315610f7d57845460ff60401b19168555604051600181527fc7f505b2f371ae2175ee4913f4499e1f2633a7b5936321eed1cdaeb6115181d29060200160405180910390a15b5050505050505050565b600554816060015114610fcb5760405162461bcd60e51b815260206004820152600c60248201526b2737b731b29032b93937b91760a11b6044820152606401610723565b42816080015110156110115760405162461bcd60e51b815260206004820152600f60248201526e2232b0b23634b7329032b93937b91760891b6044820152606401610723565b805160405160019161102291612aa5565b9081526040519081900360200190205460ff16156110715760405162461bcd60e51b815260206004820152600c60248201526b13585c9ac8195e18dd5d195960a21b6044820152606401610723565b61107a816106a1565b6110bf5760405162461bcd60e51b815260206004820152601660248201527521b432b1b59039b4b3b730ba3ab9329032b93937b91760511b6044820152606401610723565b6020808201516001600160a01b03165f9081526009909152604090205460ff161561111f5760405162461bcd60e51b815260206004820152601060248201526f213630b1b5b634b9ba1032b93937b91760811b6044820152606401610723565b600254602082015160408084015190516340c10f1960e01b81526001600160a01b03928316600482015260248101919091529116906340c10f19906044015f604051808303815f87803b158015611174575f5ffd5b505af1158015611186573d5f5f3e3d5ffd5b50505050600180825f015160405161119e9190612aa5565b908152604051908190036020019020805491151560ff1990921691909117905560058054905f6111cd83612ac4565b91905055507fb560b68b858b38da022e769a634986c1eced94a3867ed159888c34fe7510cbf4815f015182602001518360400151426040516112129493929190612adc565b60405180910390a150565b6112256113b1565b6001600160a01b03811661124e57604051631e4fbdf760e01b81525f6004820152602401610723565b611257816116d9565b50565b5f5f5f5f61126a888888886119ea565b92509250925061127a8282611ab2565b50909695505050505050565b604080516001600160a01b0385811660248301528481166044830152606480830185905283518084039091018152608490920183526020820180516001600160e01b03166323b872dd60e01b17905291515f928392908816916112e99190612aa5565b5f604051808303815f865af19150503d805f8114611322576040519150601f19603f3d011682016040523d82523d5f602084013e611327565b606091505b50915091508180156113515750805115806113515750808060200190518101906113519190612b13565b6113a95760405162461bcd60e51b8152602060048201526024808201527f5472616e7366657248656c7065723a205452414e534645525f46524f4d5f46416044820152631253115160e21b6064820152608401610723565b505050505050565b336113e37f9016d09d72d40fdae2fd8ceac6b6234c7706214fd39c1cd1e609a0528c199300546001600160a01b031690565b6001600160a01b031614610b9c5760405163118cdaa760e01b8152336004820152602401610723565b306001600160a01b037f000000000000000000000000000000000000000000000000000000000000000016148061149257507f00000000000000000000000000000000000000000000000000000000000000006001600160a01b03166114865f516020612d735f395f51905f52546001600160a01b031690565b6001600160a01b031614155b15610b9c5760405163703e46dd60e11b815260040160405180910390fd5b6112576113b1565b816001600160a01b03166352d1902d6040518163ffffffff1660e01b8152600401602060405180830381865afa925050508015611512575060408051601f3d908101601f1916820190925261150f91810190612b2e565b60015b61153a57604051634c9c8ce360e01b81526001600160a01b0383166004820152602401610723565b5f516020612d735f395f51905f52811461156a57604051632a87526960e21b815260048101829052602401610723565b610d428383611b6a565b5f5f5f83428110156115c85760405162461bcd60e51b815260206004820152601860248201527f556e69737761705632526f757465723a204558504952454400000000000000006044820152606401610723565b6115d68c8c8c8c8c8c611bbf565b90945092505f6115fb73ca143ce32fe78f1f7019d7d551a6402fc5350c738e8e611e2d565b90506116098d338388611286565b6116158c338387611286565b6040516335313c2160e11b81526001600160a01b038881166004830152821690636a627842906024016020604051808303815f875af115801561165a573d5f5f3e3d5ffd5b505050506040513d601f19601f8201168201806040525081019061167e9190612b2e565b92505050985098509895505050505050565b306001600160a01b037f00000000000000000000000000000000000000000000000000000000000000001614610b9c5760405163703e46dd60e11b815260040160405180910390fd5b7f9016d09d72d40fdae2fd8ceac6b6234c7706214fd39c1cd1e609a0528c19930080546001600160a01b031981166001600160a01b03848116918217845560405192169182907f8be0079c531659141344cd1fd0a4f28419497f9722a3daafe3b4186f6b6457e0905f90a3505050565b7fa16a46d94261c7517cc8ff89f61c0ce93598e3c849801011dee649a6a557d10280546060915f516020612d535f395f51905f529161178790612b45565b80601f01602080910402602001604051908101604052809291908181526020018280546117b390612b45565b80156117fe5780601f106117d5576101008083540402835291602001916117fe565b820191905f5260205f20905b8154815290600101906020018083116117e157829003601f168201915b505050505091505090565b7fa16a46d94261c7517cc8ff89f61c0ce93598e3c849801011dee649a6a557d10380546060915f516020612d535f395f51905f529161178790612b45565b60405163095ea7b360e01b81526001600160a01b0383811660048301525f602483015284169063095ea7b3906044016020604051808303815f875af1158015611892573d5f5f3e3d5ffd5b505050506040513d601f19601f820116820180604052508101906118b69190612b13565b5060405163095ea7b360e01b81526001600160a01b0383811660048301526024820183905284169063095ea7b3906044016020604051808303815f875af1158015611903573d5f5f3e3d5ffd5b505050506040513d601f19601f820116820180604052508101906107fd9190612b13565b5f610923611933611f03565b8360405161190160f01b8152600281019290925260228201526042902090565b5f807ff0c57e16840df040f15088dc2f81fe391c3923bec73e23a9662efc9c229c6a00610923565b611983611f11565b5f516020612d535f395f51905f527fa16a46d94261c7517cc8ff89f61c0ce93598e3c849801011dee649a6a557d1026119bc8482612bc8565b50600381016119cb8382612bc8565b505f8082556001909101555050565b611225611f11565b610b9c611f11565b5f80807f7fffffffffffffffffffffffffffffff5d576e7357a4501ddfe92f46681b20a0841115611a2357505f91506003905082611aa8565b604080515f808252602082018084528a905260ff891692820192909252606081018790526080810186905260019060a0016020604051602081039080840390855afa158015611a74573d5f5f3e3d5ffd5b5050604051601f1901519150506001600160a01b038116611a9f57505f925060019150829050611aa8565b92505f91508190505b9450945094915050565b5f826003811115611ac557611ac5612c82565b03611ace575050565b6001826003811115611ae257611ae2612c82565b03611b005760405163f645eedf60e01b815260040160405180910390fd5b6002826003811115611b1457611b14612c82565b03611b355760405163fce698f760e01b815260048101829052602401610723565b6003826003811115611b4957611b49612c82565b03610af8576040516335e2f38360e21b815260048101829052602401610723565b611b7382611f36565b6040516001600160a01b038316907fbc7cd75a20ee27fd9adebab32041f755214dbc6bffa90cc0225b39da2e5c2d3b905f90a2805115611bb757610d428282611f99565b610af861200b565b60405163e6a4390560e01b81526001600160a01b038088166004830152861660248201525f908190819073ca143ce32fe78f1f7019d7d551a6402fc5350c739063e6a4390590604401602060405180830381865afa158015611c23573d5f5f3e3d5ffd5b505050506040513d601f19601f82011682018060405250810190611c479190612c96565b6001600160a01b031603611cda576040516364e329cb60e11b81526001600160a01b03808a1660048301528816602482015273ca143ce32fe78f1f7019d7d551a6402fc5350c739063c9c65396906044016020604051808303815f875af1158015611cb4573d5f5f3e3d5ffd5b505050506040513d601f19601f82011682018060405250810190611cd89190612c96565b505b5f5f611cfb73ca143ce32fe78f1f7019d7d551a6402fc5350c738b8b61202a565b91509150815f148015611d0c575080155b15611d1c57879350869250611e20565b5f611d288984846120ef565b9050878111611d9b5785811015611d905760405162461bcd60e51b815260206004820152602660248201527f556e69737761705632526f757465723a20494e53554646494349454e545f425f604482015265105353d5539560d21b6064820152608401610723565b889450925082611e1e565b5f611da78984866120ef565b905089811115611db957611db9612cb1565b87811015611e185760405162461bcd60e51b815260206004820152602660248201527f556e69737761705632526f757465723a20494e53554646494349454e545f415f604482015265105353d5539560d21b6064820152608401610723565b94508793505b505b5050965096945050505050565b5f5f5f611e3a85856121d5565b6040516bffffffffffffffffffffffff19606084811b8216602084015283901b1660348201529193509150869060480160405160208183030381529060405280519060200120604051602001611ee19291906001600160f81b0319815260609290921b6bffffffffffffffffffffffff1916600183015260158201527efb7f630766e6a796048ea87d01acd3068e8ff67d078148a3fa3f4a84f69bd5603582015260550190565b60408051601f1981840301815291905280516020909101209695505050505050565b5f611f0c6122cb565b905090565b611f1961233e565b610b9c57604051631afcd79f60e31b815260040160405180910390fd5b806001600160a01b03163b5f03611f6b57604051634c9c8ce360e01b81526001600160a01b0382166004820152602401610723565b5f516020612d735f395f51905f5280546001600160a01b0319166001600160a01b0392909216919091179055565b60605f5f846001600160a01b031684604051611fb59190612aa5565b5f60405180830381855af49150503d805f8114611fed576040519150601f19603f3d011682016040523d82523d5f602084013e611ff2565b606091505b5091509150612002858383612357565b95945050505050565b3415610b9c5760405163b398979f60e01b815260040160405180910390fd5b5f5f5f61203785856121d5565b5090505f5f612047888888611e2d565b6001600160a01b0316630902f1ac6040518163ffffffff1660e01b8152600401606060405180830381865afa158015612082573d5f5f3e3d5ffd5b505050506040513d601f19601f820116820180604052508101906120a69190612cdb565b506001600160701b031691506001600160701b03169150826001600160a01b0316876001600160a01b0316146120dd5780826120e0565b81815b90999098509650505050505050565b5f5f841161214d5760405162461bcd60e51b815260206004820152602560248201527f556e697377617056324c6962726172793a20494e53554646494349454e545f416044820152641353d5539560da1b6064820152608401610723565b5f8311801561215b57505f82115b6121b85760405162461bcd60e51b815260206004820152602860248201527f556e697377617056324c6962726172793a20494e53554646494349454e545f4c604482015267495155494449545960c01b6064820152608401610723565b826121c385846123b3565b6121cd9190612d1c565b949350505050565b5f5f826001600160a01b0316846001600160a01b0316036122465760405162461bcd60e51b815260206004820152602560248201527f556e697377617056324c6962726172793a204944454e544943414c5f41444452604482015264455353455360d81b6064820152608401610723565b826001600160a01b0316846001600160a01b031610612266578284612269565b83835b90925090506001600160a01b0382166122c45760405162461bcd60e51b815260206004820152601e60248201527f556e697377617056324c6962726172793a205a45524f5f4144445245535300006044820152606401610723565b9250929050565b5f7f8b73c3c69bb8fe3d512ecc4cf759cc79239f7b179b0ffacaa9a75d522b39400f6122f5612419565b6122fd612481565b60408051602081019490945283019190915260608201524660808201523060a082015260c00160405160208183030381529060405280519060200120905090565b5f612347611953565b54600160401b900460ff16919050565b60608261236c57612367826124c3565b610ad6565b815115801561238357506001600160a01b0384163b155b156123ac57604051639996b31560e01b81526001600160a01b0385166004820152602401610723565b5080610ad6565b5f8115806123d6575082826123c88183612d3b565b92506123d49083612d1c565b145b6109235760405162461bcd60e51b815260206004820152601460248201527364732d6d6174682d6d756c2d6f766572666c6f7760601b6044820152606401610723565b5f5f516020612d535f395f51905f5281612431611749565b80519091501561244957805160209091012092915050565b81548015612458579392505050565b7fc5d2460186f7233c927e7db2dcc703c0e500b653ca82273b7bfad8045d85a470935050505090565b5f5f516020612d535f395f51905f5281612499611809565b8051909150156124b157805160209091012092915050565b60018201548015612458579392505050565b8051156124d35780518082602001fd5b60405163d6bda27560e01b815260040160405180910390fd5b634e487b7160e01b5f52604160045260245ffd5b60405161010081016001600160401b0381118282101715612523576125236124ec565b60405290565b604051601f8201601f191681016001600160401b0381118282101715612551576125516124ec565b604052919050565b5f5f6001600160401b03841115612572576125726124ec565b50601f8301601f191660200161258781612529565b91505082815283838301111561259b575f5ffd5b828260208301375f602084830101529392505050565b5f82601f8301126125c0575f5ffd5b610ad683833560208501612559565b6001600160a01b0381168114611257575f5ffd5b80356125ee816125cf565b919050565b803560ff811681146125ee575f5ffd5b5f60208284031215612613575f5ffd5b81356001600160401b03811115612628575f5ffd5b8201610100818503121561263a575f5ffd5b612642612500565b81356001600160401b03811115612657575f5ffd5b612663868285016125b1565b825250612672602083016125e3565b60208201526040828101359082015260608083013590820152608080830135908201526126a160a083016125f3565b60a082015260c0828101359082015260e091820135918101919091529392505050565b8015158114611257575f5ffd5b5f5f5f604084860312156126e3575f5ffd5b83356001600160401b038111156126f8575f5ffd5b8401601f81018613612708575f5ffd5b80356001600160401b0381111561271d575f5ffd5b8660208260051b8401011115612731575f5ffd5b602091820194509250840135612746816126c4565b809150509250925092565b5f60208284031215612761575f5ffd5b5035919050565b5f5f5f6060848603121561277a575f5ffd5b8335612785816125cf565b92506020840135612795816125cf565b91506040840135612746816125cf565b5f5f5f606084860312156127b7575f5ffd5b83356127c2816125cf565b925060208401356127d2816125cf565b929592945050506040919091013590565b5f5f604083850312156127f4575f5ffd5b82356127ff816125cf565b915060208301356001600160401b03811115612819575f5ffd5b8301601f81018513612829575f5ffd5b61283885823560208401612559565b9150509250929050565b5f60208284031215612852575f5ffd5b81356001600160401b03811115612867575f5ffd5b6121cd848285016125b1565b5f81518084528060208401602086015e5f602082860101526020601f19601f83011685010191505092915050565b60ff60f81b8816815260e060208201525f6128bf60e0830189612873565b82810360408401526128d18189612873565b606084018890526001600160a01b038716608085015260a0840186905283810360c0850152845180825260208087019350909101905f5b81811015612926578351835260209384019390920191600101612908565b50909b9a5050505050505050505050565b602081525f610ad66020830184612873565b5f60208284031215612959575f5ffd5b8135610ad6816125cf565b634e487b7160e01b5f52603260045260245ffd5b5f60408201848352604060208401528084518083526060850191506020860192505f5b8181101561127a5783516001600160a01b031683526020938401939092019160010161299b565b5f602082840312156129d2575f5ffd5b81516001600160401b038111156129e7575f5ffd5b8201601f810184136129f7575f5ffd5b80516001600160401b03811115612a1057612a106124ec565b8060051b612a2060208201612529565b91825260208184018101929081019087841115612a3b575f5ffd5b6020850194505b83851015612a6157845180835260209586019590935090910190612a42565b979650505050505050565b5f5f60408385031215612a7d575f5ffd5b505080516020909101519092909150565b5f81518060208401855e5f93019283525090919050565b5f610ad68284612a8e565b634e487b7160e01b5f52601160045260245ffd5b5f60018201612ad557612ad5612ab0565b5060010190565b608081525f612aee6080830187612873565b6001600160a01b03959095166020830152506040810192909252606090910152919050565b5f60208284031215612b23575f5ffd5b8151610ad6816126c4565b5f60208284031215612b3e575f5ffd5b5051919050565b600181811c90821680612b5957607f821691505b602082108103612b7757634e487b7160e01b5f52602260045260245ffd5b50919050565b601f821115610d4257805f5260205f20601f840160051c81016020851015612ba25750805b601f840160051c820191505b81811015612bc1575f8155600101612bae565b5050505050565b81516001600160401b03811115612be157612be16124ec565b612bf581612bef8454612b45565b84612b7d565b6020601f821160018114612c27575f8315612c105750848201515b5f19600385901b1c1916600184901b178455612bc1565b5f84815260208120601f198516915b82811015612c565787850151825560209485019460019092019101612c36565b5084821015612c7357868401515f19600387901b60f8161c191681555b50505050600190811b01905550565b634e487b7160e01b5f52602160045260245ffd5b5f60208284031215612ca6575f5ffd5b8151610ad6816125cf565b634e487b7160e01b5f52600160045260245ffd5b80516001600160701b03811681146125ee575f5ffd5b5f5f5f60608486031215612ced575f5ffd5b612cf684612cc5565b9250612d0460208501612cc5565b9150604084015163ffffffff81168114612746575f5ffd5b5f82612d3657634e487b7160e01b5f52601260045260245ffd5b500490565b808202811582820484141761092357610923612ab056fea16a46d94261c7517cc8ff89f61c0ce93598e3c849801011dee649a6a557d100360894a13ba1a3210667c828492db98dca3e2076cc3735a920a3ca505d382bbca2646970667358221220ef770e9e9249c158574db0c43d5ae162a6d893564ca8cfcc8e5374ce0252a9d664736f6c634300081c0033","linkReferences":{}},"methodIdentifiers":{"DEAD()":"03fd2a45","SIGN_TYPEHASH()":"2f1d14cb","UPGRADE_INTERFACE_VERSION()":"ad3cb1cc","USDT()":"c54e44eb","addLiquidity(uint256)":"51c6590a","blacklist(address)":"f9f92be4","checkerSignMsgSignature((string,address,uint256,uint256,uint256,uint8,bytes32,bytes32))":"0cb9b96a","claim((string,address,uint256,uint256,uint256,uint8,bytes32,bytes32))":"e32c03c7","eip712Domain()":"84b0196e","extractedValue(address)":"ef861786","getAmountOut(address,address,uint256)":"4aa06652","getQuoteAmount(uint256)":"2a75d5f4","getSignMsgHash((string,address,uint256,uint256,uint256,uint8,bytes32,bytes32))":"b1060225","initialize(address,address,address)":"c0c53b8b","isExcuted(string)":"4fb7726f","isExemptFrom(address)":"b915e755","lp()":"313c06a0","nonce()":"affed0e0","owner()":"8da5cb5b","permit()":"5777e93d","proxiableUUID()":"52d1902d","removeLiquidity(uint256)":"9c8f9f23","renounceOwnership()":"715018a6","setBlacklist(address[],bool)":"0e85d1e3","setConfig(address,address,address)":"3141e25b","staking(uint256)":"1dbb2a22","stakingValue(address)":"b726caad","token()":"fc0c546a","transferOwnership(address)":"f2fde38b","uniswapV2Factory()":"59d0f713","uniswapV2Router()":"1694505e","upgradeToAndCall(address,bytes)":"4f1ef286"},"id":40}