{"abi":[{"type":"constructor","inputs":[{"name":"_name","type":"string","internalType":"string"},{"name":"_symbol","type":"string","internalType":"string"},{"name":"_initialRecipient","type":"address","internalType":"address"},{"name":"_exceedTaxWallet","type":"address","internalType":"address"},{"name":"_nodeDividend","type":"address","internalType":"address"}],"stateMutability":"nonpayable"},{"type":"function","name":"DEAD","inputs":[],"outputs":[{"name":"","type":"address","internalType":"address"}],"stateMutability":"view"},{"type":"function","name":"MIN_DIVIDEND_LIMIT","inputs":[],"outputs":[{"name":"","type":"uint256","internalType":"uint256"}],"stateMutability":"view"},{"type":"function","name":"MIN_POOL_SUPPLY","inputs":[],"outputs":[{"name":"","type":"uint256","internalType":"uint256"}],"stateMutability":"view"},{"type":"function","name":"allowance","inputs":[{"name":"owner","type":"address","internalType":"address"},{"name":"spender","type":"address","internalType":"address"}],"outputs":[{"name":"","type":"uint256","internalType":"uint256"}],"stateMutability":"view"},{"type":"function","name":"approve","inputs":[{"name":"spender","type":"address","internalType":"address"},{"name":"value","type":"uint256","internalType":"uint256"}],"outputs":[{"name":"","type":"bool","internalType":"bool"}],"stateMutability":"nonpayable"},{"type":"function","name":"balanceOf","inputs":[{"name":"account","type":"address","internalType":"address"}],"outputs":[{"name":"","type":"uint256","internalType":"uint256"}],"stateMutability":"view"},{"type":"function","name":"blackList","inputs":[{"name":"","type":"address","internalType":"address"}],"outputs":[{"name":"","type":"bool","internalType":"bool"}],"stateMutability":"view"},{"type":"function","name":"claim","inputs":[{"name":"recipient","type":"address","internalType":"address"}],"outputs":[],"stateMutability":"nonpayable"},{"type":"function","name":"decimals","inputs":[],"outputs":[{"name":"","type":"uint8","internalType":"uint8"}],"stateMutability":"view"},{"type":"function","name":"exceedTaxWallet","inputs":[],"outputs":[{"name":"","type":"address","internalType":"address"}],"stateMutability":"view"},{"type":"function","name":"getHolders","inputs":[],"outputs":[{"name":"","type":"address[]","internalType":"address[]"}],"stateMutability":"view"},{"type":"function","name":"holders","inputs":[{"name":"","type":"uint256","internalType":"uint256"}],"outputs":[{"name":"","type":"address","internalType":"address"}],"stateMutability":"view"},{"type":"function","name":"isExemptFromTax","inputs":[{"name":"","type":"address","internalType":"address"}],"outputs":[{"name":"","type":"bool","internalType":"bool"}],"stateMutability":"view"},{"type":"function","name":"lastBurnTime","inputs":[],"outputs":[{"name":"","type":"uint256","internalType":"uint256"}],"stateMutability":"view"},{"type":"function","name":"name","inputs":[],"outputs":[{"name":"","type":"string","internalType":"string"}],"stateMutability":"view"},{"type":"function","name":"nodeDividend","inputs":[],"outputs":[{"name":"","type":"address","internalType":"address"}],"stateMutability":"view"},{"type":"function","name":"openingPoint","inputs":[],"outputs":[{"name":"","type":"uint256","internalType":"uint256"}],"stateMutability":"view"},{"type":"function","name":"owner","inputs":[],"outputs":[{"name":"","type":"address","internalType":"address"}],"stateMutability":"view"},{"type":"function","name":"pancakePair","inputs":[],"outputs":[{"name":"","type":"address","internalType":"address"}],"stateMutability":"view"},{"type":"function","name":"pancakeRouter","inputs":[],"outputs":[{"name":"","type":"address","internalType":"contract IPancakeRouter02"}],"stateMutability":"view"},{"type":"function","name":"renounceOwnership","inputs":[],"outputs":[],"stateMutability":"nonpayable"},{"type":"function","name":"setAddrConfig","inputs":[{"name":"_exceedTaxWallet","type":"address","internalType":"address"},{"name":"_nodeDividend","type":"address","internalType":"address"}],"outputs":[],"stateMutability":"nonpayable"},{"type":"function","name":"setBlackList","inputs":[{"name":"_addrs","type":"address[]","internalType":"address[]"},{"name":"_black","type":"bool","internalType":"bool"}],"outputs":[],"stateMutability":"nonpayable"},{"type":"function","name":"setMinDividendLimit","inputs":[{"name":"_minDividendLimit","type":"uint256","internalType":"uint256"}],"outputs":[],"stateMutability":"nonpayable"},{"type":"function","name":"setTaxExemption","inputs":[{"name":"_addrs","type":"address[]","internalType":"address[]"},{"name":"_exempt","type":"bool","internalType":"bool"}],"outputs":[],"stateMutability":"nonpayable"},{"type":"function","name":"symbol","inputs":[],"outputs":[{"name":"","type":"string","internalType":"string"}],"stateMutability":"view"},{"type":"function","name":"totalSupply","inputs":[],"outputs":[{"name":"","type":"uint256","internalType":"uint256"}],"stateMutability":"view"},{"type":"function","name":"transfer","inputs":[{"name":"to","type":"address","internalType":"address"},{"name":"value","type":"uint256","internalType":"uint256"}],"outputs":[{"name":"","type":"bool","internalType":"bool"}],"stateMutability":"nonpayable"},{"type":"function","name":"transferFrom","inputs":[{"name":"from","type":"address","internalType":"address"},{"name":"to","type":"address","internalType":"address"},{"name":"value","type":"uint256","internalType":"uint256"}],"outputs":[{"name":"","type":"bool","internalType":"bool"}],"stateMutability":"nonpayable"},{"type":"function","name":"transferOwnership","inputs":[{"name":"newOwner","type":"address","internalType":"address"}],"outputs":[],"stateMutability":"nonpayable"},{"type":"function","name":"updateMyStatus","inputs":[],"outputs":[],"stateMutability":"nonpayable"},{"type":"event","name":"Approval","inputs":[{"name":"owner","type":"address","indexed":true,"internalType":"address"},{"name":"spender","type":"address","indexed":true,"internalType":"address"},{"name":"value","type":"uint256","indexed":false,"internalType":"uint256"}],"anonymous":false},{"type":"event","name":"OwnershipTransferred","inputs":[{"name":"previousOwner","type":"address","indexed":true,"internalType":"address"},{"name":"newOwner","type":"address","indexed":true,"internalType":"address"}],"anonymous":false},{"type":"event","name":"Transfer","inputs":[{"name":"from","type":"address","indexed":true,"internalType":"address"},{"name":"to","type":"address","indexed":true,"internalType":"address"},{"name":"value","type":"uint256","indexed":false,"internalType":"uint256"}],"anonymous":false},{"type":"error","name":"ERC20InsufficientAllowance","inputs":[{"name":"spender","type":"address","internalType":"address"},{"name":"allowance","type":"uint256","internalType":"uint256"},{"name":"needed","type":"uint256","internalType":"uint256"}]},{"type":"error","name":"ERC20InsufficientBalance","inputs":[{"name":"sender","type":"address","internalType":"address"},{"name":"balance","type":"uint256","internalType":"uint256"},{"name":"needed","type":"uint256","internalType":"uint256"}]},{"type":"error","name":"ERC20InvalidApprover","inputs":[{"name":"approver","type":"address","internalType":"address"}]},{"type":"error","name":"ERC20InvalidReceiver","inputs":[{"name":"receiver","type":"address","internalType":"address"}]},{"type":"error","name":"ERC20InvalidSender","inputs":[{"name":"sender","type":"address","internalType":"address"}]},{"type":"error","name":"ERC20InvalidSpender","inputs":[{"name":"spender","type":"address","internalType":"address"}]},{"type":"error","name":"OwnableInvalidOwner","inputs":[{"name":"owner","type":"address","internalType":"address"}]},{"type":"error","name":"OwnableUnauthorizedAccount","inputs":[{"name":"account","type":"address","internalType":"address"}]}],"bytecode":{"object":"0x6080604052600680546001600160a01b03199081167310ed43c718714eb63d5aa57b78b54704e256024e179091556007805490911661dead17905568056bc75e2d63100000600f55348015610052575f5ffd5b50604051612db4380380612db483398101604081905261007191610fb3565b338585600361008083826110cb565b50600461008d82826110cb565b5050506001600160a01b0381166100be57604051631e4fbdf760e01b81525f60048201526024015b60405180910390fd5b6100c7816102e6565b505f6100d56012600a61127e565b6100e490640324a9a700611293565b90506100f08482610337565b60065f9054906101000a90046001600160a01b03166001600160a01b031663c45a01556040518163ffffffff1660e01b8152600401602060405180830381865afa158015610140573d5f5f3e3d5ffd5b505050506040513d601f19601f8201168201806040525081019061016491906112aa565b6001600160a01b031663c9c653963060065f9054906101000a90046001600160a01b03166001600160a01b031663ad5c46486040518163ffffffff1660e01b8152600401602060405180830381865afa1580156101c3573d5f5f3e3d5ffd5b505050506040513d601f19601f820116820180604052508101906101e791906112aa565b6040516001600160e01b031960e085901b1681526001600160a01b039283166004820152911660248201526044016020604051808303815f875af1158015610231573d5f5f3e3d5ffd5b505050506040513d601f19601f8201168201806040525081019061025591906112aa565b600a80546001600160a01b03199081166001600160a01b039384161790915560088054821695831695909517909455600980549094169281169283179093555091165f908152600d6020526040808220805460ff19908116600190811790925593835281832080548516821790553083528183208054851682179055338352912080549092161790555061135f9050565b600580546001600160a01b038381166001600160a01b0319831681179093556040519116919082907f8be0079c531659141344cd1fd0a4f28419497f9722a3daafe3b4186f6b6457e0905f90a35050565b6001600160a01b0382166103605760405163ec442f0560e01b81525f60048201526024016100b5565b61036b5f838361036f565b5050565b6001600160a01b0383165f908152600e602052604090205460ff16156103d75760405162461bcd60e51b815260206004820152601360248201527f426c61636b6c697374656420616464726573730000000000000000000000000060448201526064016100b5565b600a546001600160a01b0316158015906103f15750600b54155b1561046c57600a54604080516318160ddd60e01b815290515f926001600160a01b0316916318160ddd9160048083019260209291908290030181865afa15801561043d573d5f5f3e3d5ffd5b505050506040513d601f19601f8201168201806040525081019061046191906112c3565b111561046c5742600b555b6001600160a01b038316158061048957506001600160a01b038216155b1561049e576104998383836107c8565b505050565b600a545f906001600160a01b03858116911614806104c95750600a546001600160a01b038481169116145b6001600160a01b0385165f908152600d60205260408120549192509060ff168061050a57506001600160a01b0384165f908152600d602052604090205460ff165b90505f811580156105185750825b156105b5575f806105276108ee565b91509150601e821115801561053d5750601e8111155b6105785760405162461bcd60e51b815260206004820152600c60248201526b0a8c2f040e8dede40d0d2ced60a31b60448201526064016100b5565b600a545f906001600160a01b038a81169116146105955781610597565b825b905060646105a58289611293565b6105af91906112da565b93505050505b8015610682575f60646105c9866003611293565b6105d391906112da565b90505f8183116105e3575f6105ed565b6105ed82846112f9565b905061061088306064610601866046611293565b61060b91906112da565b6107c8565b60095461062f9089906001600160a01b03166064610601866014611293565b60075461064e9089906001600160a01b0316606461060186600a611293565b801561066c5760085461066c9089906001600160a01b0316836107c8565b61067b888861060b868a6112f9565b505061068d565b61068d8686866107c8565b61069683610939565b6106a28361c350610ad1565b600a546040516370a0823160e01b81526001600160a01b0388811660048301525f9216906370a0823190602401602060405180830381865afa1580156106ea573d5f5f3e3d5ffd5b505050506040513d601f19601f8201168201806040525081019061070e91906112c3565b9050600f5481106107275761072287610ced565b610730565b61073087610db9565b600a546040516370a0823160e01b81526001600160a01b0388811660048301525f9216906370a0823190602401602060405180830381865afa158015610778573d5f5f3e3d5ffd5b505050506040513d601f19601f8201168201806040525081019061079c91906112c3565b9050600f5481106107b5576107b087610ced565b6107be565b6107be87610db9565b5050505050505050565b6001600160a01b0383166107f2578060025f8282546107e7919061130c565b909155506108629050565b6001600160a01b0383165f90815260208190526040902054818110156108445760405163391434e360e21b81526001600160a01b038516600482015260248101829052604481018390526064016100b5565b6001600160a01b0384165f9081526020819052604090209082900390555b6001600160a01b03821661087e5760028054829003905561089c565b6001600160a01b0382165f9081526020819052604090208054820190555b816001600160a01b0316836001600160a01b03167fddf252ad1be2c89b69c2b068fc378daa952ba7f163c4a11628f55a4df523b3ef836040516108e191815260200190565b60405180910390a3505050565b5f5f5f600b54426108ff91906112f9565b905061a8c08110156109175750600592600f92509050565b6201518081101561092e5750600592600a92509050565b506003928392509050565b600a546001600160a01b0316158015906109535750600c54155b156109ce57600a54604080516318160ddd60e01b815290515f926001600160a01b0316916318160ddd9160048083019260209291908290030181865afa15801561099f573d5f5f3e3d5ffd5b505050506040513d601f19601f820116820180604052508101906109c391906112c3565b11156109ce5742600c555b80610ace575f615460600c54426109e591906112f9565b6109ef91906112da565b9050805f036109fc575050565b600a546001600160a01b03165f90815260208190526040812054906064610a238484611293565b610a2d91906112da565b90508082118015610a5257506a52b7d2dcc80cd2e4000000610a4f82846112f9565b10155b15610aca57600a54610a6d906001600160a01b031682610ec7565b42600c55600a546040805160016209351760e01b0319815290516001600160a01b039092169163fff6cae9916004808201925f9290919082900301818387803b158015610ab8575f5ffd5b505af11580156107be573d5f5f3e3d5ffd5b5050505b50565b8115610adb575050565b305f90815260208190526040902054670de0b6b3a76400001115610afd575050565b600a54604080516318160ddd60e01b815290515f926001600160a01b0316916318160ddd9160048083019260209291908290030181865afa158015610b44573d5f5f3e3d5ffd5b505050506040513d601f19601f82011682018060405250810190610b6891906112c3565b305f90815260208190526040902054909150811580610b85575080155b15610b905750505050565b6010545f90819081908180805a90505b8983108015610bae57508382105b15610ce0578360125410610bc1575f6012555b601060125481548110610bd657610bd661131f565b5f91825260209091200154600a546040516370a0823160e01b81526001600160a01b039283166004820181905299509116906370a0823190602401602060405180830381865afa158015610c2c573d5f5f3e3d5ffd5b505050506040513d601f19601f82011682018060405250810190610c5091906112c3565b95508515610c9f5788610c63878a611293565b610c6d91906112da565b305f908152602081905260409020549095508515801590610c8d57508581115b15610c9d57610c9d3089886107c8565b505b5a610caa90826112f9565b610cb4908461130c565b92505a601280549192505f610cc883611333565b91905055508180610cd890611333565b925050610ba0565b5050505050505050505050565b803b8015610cf9575050565b6001600160a01b0382165f90815260116020526040812054900361036b576010541580610d555750816001600160a01b031660105f81548110610d3e57610d3e61131f565b5f918252602090912001546001600160a01b031614155b1561036b57601080546001600160a01b0384165f818152601160205260408120839055600183018455929092527f1b6847dc741a1b0cd08d278845f9d819d87b734759afb55fe2de5cb82a9ae6720180546001600160a01b03191690911790555050565b6001600160a01b0381165f90815260116020526040902054813b811580610ddf57505f81115b15610de957505050565b601080545f9190610dfc906001906112f9565b81548110610e0c57610e0c61131f565b5f91825260209091200154601080546001600160a01b039092169250829185908110610e3a57610e3a61131f565b5f91825260208083209190910180546001600160a01b0319166001600160a01b0394851617905591831681526011909152604090208390556010805480610e8357610e8361134b565b5f828152602080822083015f1990810180546001600160a01b03191690559092019092556001600160a01b0395909516815260119094525050604082209190915550565b6001600160a01b038216610ef057604051634b637e8f60e11b81525f60048201526024016100b5565b61036b825f8361036f565b634e487b7160e01b5f52604160045260245ffd5b5f82601f830112610f1e575f5ffd5b81516001600160401b03811115610f3757610f37610efb565b604051601f8201601f19908116603f011681016001600160401b0381118282101715610f6557610f65610efb565b604052818152838201602001851015610f7c575f5ffd5b8160208501602083015e5f918101602001919091529392505050565b80516001600160a01b0381168114610fae575f5ffd5b919050565b5f5f5f5f5f60a08688031215610fc7575f5ffd5b85516001600160401b03811115610fdc575f5ffd5b610fe888828901610f0f565b602088015190965090506001600160401b03811115611005575f5ffd5b61101188828901610f0f565b94505061102060408701610f98565b925061102e60608701610f98565b915061103c60808701610f98565b90509295509295909350565b600181811c9082168061105c57607f821691505b60208210810361107a57634e487b7160e01b5f52602260045260245ffd5b50919050565b601f82111561049957805f5260205f20601f840160051c810160208510156110a55750805b601f840160051c820191505b818110156110c4575f81556001016110b1565b5050505050565b81516001600160401b038111156110e4576110e4610efb565b6110f8816110f28454611048565b84611080565b6020601f82116001811461112a575f83156111135750848201515b5f19600385901b1c1916600184901b1784556110c4565b5f84815260208120601f198516915b828110156111595787850151825560209485019460019092019101611139565b508482101561117657868401515f19600387901b60f8161c191681555b50505050600190811b01905550565b634e487b7160e01b5f52601160045260245ffd5b6001815b60018411156111d4578085048111156111b8576111b8611185565b60018416156111c657908102905b60019390931c92800261119d565b935093915050565b5f826111ea57506001611278565b816111f657505f611278565b816001811461120c576002811461121657611232565b6001915050611278565b60ff84111561122757611227611185565b50506001821b611278565b5060208310610133831016604e8410600b8410161715611255575081810a611278565b6112615f198484611199565b805f190482111561127457611274611185565b0290505b92915050565b5f61128c60ff8416836111dc565b9392505050565b808202811582820484141761127857611278611185565b5f602082840312156112ba575f5ffd5b61128c82610f98565b5f602082840312156112d3575f5ffd5b5051919050565b5f826112f457634e487b7160e01b5f52601260045260245ffd5b500490565b8181038181111561127857611278611185565b8082018082111561127857611278611185565b634e487b7160e01b5f52603260045260245ffd5b5f6001820161134457611344611185565b5060010190565b634e487b7160e01b5f52603160045260245ffd5b611a488061136c5f395ff3fe608060405234801561000f575f5ffd5b50600436106101dc575f3560e01c80637e88781c11610109578063d6a5a5f51161009e578063ed3d20061161006e578063ed3d200614610430578063ef10d56c14610443578063f2fde38b1461044b578063f95a72071461045e575f5ffd5b8063d6a5a5f5146103d3578063dd62ed3e146103dc578063ddae84cc14610414578063e306744914610427575f5ffd5b8063a0f854d8116100d9578063a0f854d814610391578063a9059cbb1461039a578063b8c9d25c146103ad578063c21ebd07146103c0575f5ffd5b80637e88781c146103535780638da5cb5b146103655780638f85a0431461037657806395d89b4114610389575f5ffd5b806323b872dd1161017f5780635fe8e7cc1161014f5780635fe8e7cc146102fb57806363a184f51461031057806370a0823114610323578063715018a61461034b575f5ffd5b806323b872dd146102a45780632a11ced0146102b7578063313ce567146102ca5780634838d165146102d9575f5ffd5b806308aaa130116101ba57806308aaa13014610257578063095ea7b31461026c57806318160ddd1461027f5780631e83409a14610291575f5ffd5b806303fd2a45146101e0578063060e78441461021057806306fdde0314610242575b5f5ffd5b6007546101f3906001600160a01b031681565b6040516001600160a01b0390911681526020015b60405180910390f35b61023261021e366004611743565b600d6020525f908152604090205460ff1681565b6040519015158152602001610207565b61024a610471565b6040516102079190611763565b61026a610265366004611798565b610501565b005b61023261027a36600461181e565b6105e5565b6002545b604051908152602001610207565b61026a61029f366004611743565b6105fe565b6102326102b2366004611846565b61066a565b6101f36102c5366004611880565b61068d565b60405160128152602001610207565b6102326102e7366004611743565b600e6020525f908152604090205460ff1681565b6103036106b5565b6040516102079190611897565b6008546101f3906001600160a01b031681565b610283610331366004611743565b6001600160a01b03165f9081526020819052604090205490565b61026a610714565b6102836a52b7d2dcc80cd2e400000081565b6005546001600160a01b03166101f3565b61026a610384366004611798565b610727565b61024a610800565b610283600b5481565b6102326103a836600461181e565b61080f565b600a546101f3906001600160a01b031681565b6006546101f3906001600160a01b031681565b610283600f5481565b6102836103ea3660046118e2565b6001600160a01b039182165f90815260016020908152604080832093909416825291909152205490565b61026a6104223660046118e2565b61081c565b610283600c5481565b61026a61043e366004611880565b6108ae565b61026a6108bb565b61026a610459366004611743565b610942565b6009546101f3906001600160a01b031681565b60606003805461048090611913565b80601f01602080910402602001604051908101604052809291908181526020018280546104ac90611913565b80156104f75780601f106104ce576101008083540402835291602001916104f7565b820191905f5260205f20905b8154815290600101906020018083116104da57829003601f168201915b5050505050905090565b61050961097c565b5f5b828110156105df575f8484838181106105265761052661194b565b905060200201602081019061053b9190611743565b6001600160a01b0316036105855760405162461bcd60e51b815260206004820152600c60248201526b5a65726f206164647265737360a01b60448201526064015b60405180910390fd5b81600d5f86868581811061059b5761059b61194b565b90506020020160208101906105b09190611743565b6001600160a01b0316815260208101919091526040015f20805460ff191691151591909117905560010161050b565b50505050565b5f336105f28185856109a9565b60019150505b92915050565b61060661097c565b6001600160a01b03811661064c5760405162461bcd60e51b815260206004820152600d60248201526c2d32b9379030b2323932b9b99760991b604482015260640161057c565b305f81815260208190526040902054610667919083906109bb565b50565b5f33610677858285610a18565b6106828585856109bb565b506001949350505050565b6010818154811061069c575f80fd5b5f918252602090912001546001600160a01b0316905081565b606060108054806020026020016040519081016040528092919081815260200182805480156104f757602002820191905f5260205f20905b81546001600160a01b031681526001909101906020018083116106ed575050505050905090565b61071c61097c565b6107255f610a8e565b565b61072f61097c565b5f5b828110156105df575f84848381811061074c5761074c61194b565b90506020020160208101906107619190611743565b6001600160a01b0316036107a65760405162461bcd60e51b815260206004820152600c60248201526b5a65726f206164647265737360a01b604482015260640161057c565b81600e5f8686858181106107bc576107bc61194b565b90506020020160208101906107d19190611743565b6001600160a01b0316815260208101919091526040015f20805460ff1916911515919091179055600101610731565b60606004805461048090611913565b5f336105f28185856109bb565b61082461097c565b6001600160a01b0382161580159061084457506001600160a01b03811615155b6108805760405162461bcd60e51b815260206004820152600d60248201526c2d32b9379030b2323932b9b99760991b604482015260640161057c565b600880546001600160a01b039384166001600160a01b03199182161790915560098054929093169116179055565b6108b661097c565b600f55565b600a546040516370a0823160e01b81523360048201525f916001600160a01b0316906370a0823190602401602060405180830381865afa158015610901573d5f5f3e3d5ffd5b505050506040513d601f19601f82011682018060405250810190610925919061195f565b9050600f5481106109395761066733610adf565b61066733610bac565b61094a61097c565b6001600160a01b03811661097357604051631e4fbdf760e01b81525f600482015260240161057c565b61066781610a8e565b6005546001600160a01b031633146107255760405163118cdaa760e01b815233600482015260240161057c565b6109b68383836001610cba565b505050565b6001600160a01b0383166109e457604051634b637e8f60e11b81525f600482015260240161057c565b6001600160a01b038216610a0d5760405163ec442f0560e01b81525f600482015260240161057c565b6109b6838383610d8c565b6001600160a01b038381165f908152600160209081526040808320938616835292905220545f198110156105df5781811015610a8057604051637dc7a0d960e11b81526001600160a01b0384166004820152602481018290526044810183905260640161057c565b6105df84848484035f610cba565b600580546001600160a01b038381166001600160a01b0319831681179093556040519116919082907f8be0079c531659141344cd1fd0a4f28419497f9722a3daafe3b4186f6b6457e0905f90a35050565b803b8015610aeb575050565b6001600160a01b0382165f908152601160205260408120549003610ba8576010541580610b475750816001600160a01b031660105f81548110610b3057610b3061194b565b5f918252602090912001546001600160a01b031614155b15610ba857601080546001600160a01b0384165f818152601160205260408120839055600183018455929092527f1b6847dc741a1b0cd08d278845f9d819d87b734759afb55fe2de5cb82a9ae6720180546001600160a01b03191690911790555b5050565b6001600160a01b0381165f90815260116020526040902054813b811580610bd257505f81115b15610bdc57505050565b601080545f9190610bef9060019061198a565b81548110610bff57610bff61194b565b5f91825260209091200154601080546001600160a01b039092169250829185908110610c2d57610c2d61194b565b5f91825260208083209190910180546001600160a01b0319166001600160a01b0394851617905591831681526011909152604090208390556010805480610c7657610c7661199d565b5f828152602080822083015f1990810180546001600160a01b03191690559092019092556001600160a01b0395909516815260119094525050604082209190915550565b6001600160a01b038416610ce35760405163e602df0560e01b81525f600482015260240161057c565b6001600160a01b038316610d0c57604051634a1406b160e11b81525f600482015260240161057c565b6001600160a01b038085165f90815260016020908152604080832093871683529290522082905580156105df57826001600160a01b0316846001600160a01b03167f8c5be1e5ebec7d5bd14f71427d1e84f3dd0314c0f7b2291e5b200ac8c7c3b92584604051610d7e91815260200190565b60405180910390a350505050565b6001600160a01b0383165f908152600e602052604090205460ff1615610dea5760405162461bcd60e51b8152602060048201526013602482015272426c61636b6c6973746564206164647265737360681b604482015260640161057c565b600a546001600160a01b031615801590610e045750600b54155b15610e7f57600a54604080516318160ddd60e01b815290515f926001600160a01b0316916318160ddd9160048083019260209291908290030181865afa158015610e50573d5f5f3e3d5ffd5b505050506040513d601f19601f82011682018060405250810190610e74919061195f565b1115610e7f5742600b555b6001600160a01b0383161580610e9c57506001600160a01b038216155b15610eac576109b68383836111d6565b600a545f906001600160a01b0385811691161480610ed75750600a546001600160a01b038481169116145b6001600160a01b0385165f908152600d60205260408120549192509060ff1680610f1857506001600160a01b0384165f908152600d602052604090205460ff165b90505f81158015610f265750825b15610fc3575f5f610f356112fc565b91509150601e8211158015610f4b5750601e8111155b610f865760405162461bcd60e51b815260206004820152600c60248201526b0a8c2f040e8dede40d0d2ced60a31b604482015260640161057c565b600a545f906001600160a01b038a8116911614610fa35781610fa5565b825b90506064610fb382896119b1565b610fbd91906119c8565b93505050505b8015611090575f6064610fd78660036119b1565b610fe191906119c8565b90505f818311610ff1575f610ffb565b610ffb828461198a565b905061101e8830606461100f8660466119b1565b61101991906119c8565b6111d6565b60095461103d9089906001600160a01b0316606461100f8660146119b1565b60075461105c9089906001600160a01b0316606461100f86600a6119b1565b801561107a5760085461107a9089906001600160a01b0316836111d6565b6110898888611019868a61198a565b505061109b565b61109b8686866111d6565b6110a483611347565b6110b08361c3506114d8565b600a546040516370a0823160e01b81526001600160a01b0388811660048301525f9216906370a0823190602401602060405180830381865afa1580156110f8573d5f5f3e3d5ffd5b505050506040513d601f19601f8201168201806040525081019061111c919061195f565b9050600f5481106111355761113087610adf565b61113e565b61113e87610bac565b600a546040516370a0823160e01b81526001600160a01b0388811660048301525f9216906370a0823190602401602060405180830381865afa158015611186573d5f5f3e3d5ffd5b505050506040513d601f19601f820116820180604052508101906111aa919061195f565b9050600f5481106111c3576111be87610adf565b6111cc565b6111cc87610bac565b5050505050505050565b6001600160a01b038316611200578060025f8282546111f591906119e7565b909155506112709050565b6001600160a01b0383165f90815260208190526040902054818110156112525760405163391434e360e21b81526001600160a01b0385166004820152602481018290526044810183905260640161057c565b6001600160a01b0384165f9081526020819052604090209082900390555b6001600160a01b03821661128c576002805482900390556112aa565b6001600160a01b0382165f9081526020819052604090208054820190555b816001600160a01b0316836001600160a01b03167fddf252ad1be2c89b69c2b068fc378daa952ba7f163c4a11628f55a4df523b3ef836040516112ef91815260200190565b60405180910390a3505050565b5f5f5f600b544261130d919061198a565b905061a8c08110156113255750600592600f92509050565b6201518081101561133c5750600592600a92509050565b506003928392509050565b600a546001600160a01b0316158015906113615750600c54155b156113dc57600a54604080516318160ddd60e01b815290515f926001600160a01b0316916318160ddd9160048083019260209291908290030181865afa1580156113ad573d5f5f3e3d5ffd5b505050506040513d601f19601f820116820180604052508101906113d1919061195f565b11156113dc5742600c555b80610667575f615460600c54426113f3919061198a565b6113fd91906119c8565b9050805f0361140a575050565b600a546001600160a01b03165f9081526020819052604081205490606461143184846119b1565b61143b91906119c8565b9050808211801561146057506a52b7d2dcc80cd2e400000061145d828461198a565b10155b156105df57600a5461147b906001600160a01b0316826116f4565b42600c55600a546040805160016209351760e01b0319815290516001600160a01b039092169163fff6cae9916004808201925f9290919082900301818387803b1580156114c6575f5ffd5b505af11580156111cc573d5f5f3e3d5ffd5b81156114e2575050565b305f90815260208190526040902054670de0b6b3a76400001115611504575050565b600a54604080516318160ddd60e01b815290515f926001600160a01b0316916318160ddd9160048083019260209291908290030181865afa15801561154b573d5f5f3e3d5ffd5b505050506040513d601f19601f8201168201806040525081019061156f919061195f565b305f9081526020819052604090205490915081158061158c575080155b156115975750505050565b6010545f90819081908180805a90505b89831080156115b557508382105b156116e75783601254106115c8575f6012555b6010601254815481106115dd576115dd61194b565b5f91825260209091200154600a546040516370a0823160e01b81526001600160a01b039283166004820181905299509116906370a0823190602401602060405180830381865afa158015611633573d5f5f3e3d5ffd5b505050506040513d601f19601f82011682018060405250810190611657919061195f565b955085156116a6578861166a878a6119b1565b61167491906119c8565b305f90815260208190526040902054909550851580159061169457508581115b156116a4576116a43089886111d6565b505b5a6116b1908261198a565b6116bb90846119e7565b92505a601280549192505f6116cf836119fa565b919050555081806116df906119fa565b9250506115a7565b5050505050505050505050565b6001600160a01b03821661171d57604051634b637e8f60e11b81525f600482015260240161057c565b610ba8825f83610d8c565b80356001600160a01b038116811461173e575f5ffd5b919050565b5f60208284031215611753575f5ffd5b61175c82611728565b9392505050565b602081525f82518060208401528060208501604085015e5f604082850101526040601f19601f83011684010191505092915050565b5f5f5f604084860312156117aa575f5ffd5b833567ffffffffffffffff8111156117c0575f5ffd5b8401601f810186136117d0575f5ffd5b803567ffffffffffffffff8111156117e6575f5ffd5b8660208260051b84010111156117fa575f5ffd5b6020918201945092508401358015158114611813575f5ffd5b809150509250925092565b5f5f6040838503121561182f575f5ffd5b61183883611728565b946020939093013593505050565b5f5f5f60608486031215611858575f5ffd5b61186184611728565b925061186f60208501611728565b929592945050506040919091013590565b5f60208284031215611890575f5ffd5b5035919050565b602080825282518282018190525f918401906040840190835b818110156118d75783516001600160a01b03168352602093840193909201916001016118b0565b509095945050505050565b5f5f604083850312156118f3575f5ffd5b6118fc83611728565b915061190a60208401611728565b90509250929050565b600181811c9082168061192757607f821691505b60208210810361194557634e487b7160e01b5f52602260045260245ffd5b50919050565b634e487b7160e01b5f52603260045260245ffd5b5f6020828403121561196f575f5ffd5b5051919050565b634e487b7160e01b5f52601160045260245ffd5b818103818111156105f8576105f8611976565b634e487b7160e01b5f52603160045260245ffd5b80820281158282048414176105f8576105f8611976565b5f826119e257634e487b7160e01b5f52601260045260245ffd5b500490565b808201808211156105f8576105f8611976565b5f60018201611a0b57611a0b611976565b506001019056fea2646970667358221220c29bb6ecd7a3e601a5a2bad7cee5901c23c062f7289c2b6d60d0ad1887869ac864736f6c634300081c0033","linkReferences":{}},"methodIdentifiers":{"DEAD()":"03fd2a45","MIN_DIVIDEND_LIMIT()":"d6a5a5f5","MIN_POOL_SUPPLY()":"7e88781c","allowance(address,address)":"dd62ed3e","approve(address,uint256)":"095ea7b3","balanceOf(address)":"70a08231","blackList(address)":"4838d165","claim(address)":"1e83409a","decimals()":"313ce567","exceedTaxWallet()":"63a184f5","getHolders()":"5fe8e7cc","holders(uint256)":"2a11ced0","isExemptFromTax(address)":"060e7844","lastBurnTime()":"e3067449","name()":"06fdde03","nodeDividend()":"f95a7207","openingPoint()":"a0f854d8","owner()":"8da5cb5b","pancakePair()":"b8c9d25c","pancakeRouter()":"c21ebd07","renounceOwnership()":"715018a6","setAddrConfig(address,address)":"ddae84cc","setBlackList(address[],bool)":"8f85a043","setMinDividendLimit(uint256)":"ed3d2006","setTaxExemption(address[],bool)":"08aaa130","symbol()":"95d89b41","totalSupply()":"18160ddd","transfer(address,uint256)":"a9059cbb","transferFrom(address,address,uint256)":"23b872dd","transferOwnership(address)":"f2fde38b","updateMyStatus()":"ef10d56c"},"id":42}