{"abi":[{"type":"constructor","inputs":[{"name":"_name","type":"string","internalType":"string"},{"name":"_symbol","type":"string","internalType":"string"},{"name":"_initialRecipient","type":"address","internalType":"address"},{"name":"_exceedTaxWallet","type":"address","internalType":"address"},{"name":"_lpDividend","type":"address","internalType":"address"},{"name":"_nodeDividend","type":"address","internalType":"address"}],"stateMutability":"nonpayable"},{"type":"function","name":"DEAD","inputs":[],"outputs":[{"name":"","type":"address","internalType":"address"}],"stateMutability":"view"},{"type":"function","name":"MIN_POOL_SUPPLY","inputs":[],"outputs":[{"name":"","type":"uint256","internalType":"uint256"}],"stateMutability":"view"},{"type":"function","name":"allowance","inputs":[{"name":"owner","type":"address","internalType":"address"},{"name":"spender","type":"address","internalType":"address"}],"outputs":[{"name":"","type":"uint256","internalType":"uint256"}],"stateMutability":"view"},{"type":"function","name":"approve","inputs":[{"name":"spender","type":"address","internalType":"address"},{"name":"value","type":"uint256","internalType":"uint256"}],"outputs":[{"name":"","type":"bool","internalType":"bool"}],"stateMutability":"nonpayable"},{"type":"function","name":"balanceOf","inputs":[{"name":"account","type":"address","internalType":"address"}],"outputs":[{"name":"","type":"uint256","internalType":"uint256"}],"stateMutability":"view"},{"type":"function","name":"decimals","inputs":[],"outputs":[{"name":"","type":"uint8","internalType":"uint8"}],"stateMutability":"view"},{"type":"function","name":"exceedTaxWallet","inputs":[],"outputs":[{"name":"","type":"address","internalType":"address"}],"stateMutability":"view"},{"type":"function","name":"isExemptFromTax","inputs":[{"name":"","type":"address","internalType":"address"}],"outputs":[{"name":"","type":"bool","internalType":"bool"}],"stateMutability":"view"},{"type":"function","name":"lastBurnTime","inputs":[],"outputs":[{"name":"","type":"uint256","internalType":"uint256"}],"stateMutability":"view"},{"type":"function","name":"lpDividend","inputs":[],"outputs":[{"name":"","type":"address","internalType":"address"}],"stateMutability":"view"},{"type":"function","name":"name","inputs":[],"outputs":[{"name":"","type":"string","internalType":"string"}],"stateMutability":"view"},{"type":"function","name":"nodeDividend","inputs":[],"outputs":[{"name":"","type":"address","internalType":"address"}],"stateMutability":"view"},{"type":"function","name":"openingPoint","inputs":[],"outputs":[{"name":"","type":"uint256","internalType":"uint256"}],"stateMutability":"view"},{"type":"function","name":"owner","inputs":[],"outputs":[{"name":"","type":"address","internalType":"address"}],"stateMutability":"view"},{"type":"function","name":"pancakePair","inputs":[],"outputs":[{"name":"","type":"address","internalType":"address"}],"stateMutability":"view"},{"type":"function","name":"pancakeRouter","inputs":[],"outputs":[{"name":"","type":"address","internalType":"contract IPancakeRouter02"}],"stateMutability":"view"},{"type":"function","name":"renounceOwnership","inputs":[],"outputs":[],"stateMutability":"nonpayable"},{"type":"function","name":"setAddrConfig","inputs":[{"name":"_exceedTaxWallet","type":"address","internalType":"address"},{"name":"_lpDividend","type":"address","internalType":"address"},{"name":"_nodeDividend","type":"address","internalType":"address"}],"outputs":[],"stateMutability":"nonpayable"},{"type":"function","name":"setTaxExemption","inputs":[{"name":"_addrs","type":"address[]","internalType":"address[]"},{"name":"_exempt","type":"bool","internalType":"bool"}],"outputs":[],"stateMutability":"nonpayable"},{"type":"function","name":"symbol","inputs":[],"outputs":[{"name":"","type":"string","internalType":"string"}],"stateMutability":"view"},{"type":"function","name":"totalSupply","inputs":[],"outputs":[{"name":"","type":"uint256","internalType":"uint256"}],"stateMutability":"view"},{"type":"function","name":"transfer","inputs":[{"name":"to","type":"address","internalType":"address"},{"name":"value","type":"uint256","internalType":"uint256"}],"outputs":[{"name":"","type":"bool","internalType":"bool"}],"stateMutability":"nonpayable"},{"type":"function","name":"transferFrom","inputs":[{"name":"from","type":"address","internalType":"address"},{"name":"to","type":"address","internalType":"address"},{"name":"value","type":"uint256","internalType":"uint256"}],"outputs":[{"name":"","type":"bool","internalType":"bool"}],"stateMutability":"nonpayable"},{"type":"function","name":"transferOwnership","inputs":[{"name":"newOwner","type":"address","internalType":"address"}],"outputs":[],"stateMutability":"nonpayable"},{"type":"event","name":"Approval","inputs":[{"name":"owner","type":"address","indexed":true,"internalType":"address"},{"name":"spender","type":"address","indexed":true,"internalType":"address"},{"name":"value","type":"uint256","indexed":false,"internalType":"uint256"}],"anonymous":false},{"type":"event","name":"OwnershipTransferred","inputs":[{"name":"previousOwner","type":"address","indexed":true,"internalType":"address"},{"name":"newOwner","type":"address","indexed":true,"internalType":"address"}],"anonymous":false},{"type":"event","name":"Transfer","inputs":[{"name":"from","type":"address","indexed":true,"internalType":"address"},{"name":"to","type":"address","indexed":true,"internalType":"address"},{"name":"value","type":"uint256","indexed":false,"internalType":"uint256"}],"anonymous":false},{"type":"error","name":"ERC20InsufficientAllowance","inputs":[{"name":"spender","type":"address","internalType":"address"},{"name":"allowance","type":"uint256","internalType":"uint256"},{"name":"needed","type":"uint256","internalType":"uint256"}]},{"type":"error","name":"ERC20InsufficientBalance","inputs":[{"name":"sender","type":"address","internalType":"address"},{"name":"balance","type":"uint256","internalType":"uint256"},{"name":"needed","type":"uint256","internalType":"uint256"}]},{"type":"error","name":"ERC20InvalidApprover","inputs":[{"name":"approver","type":"address","internalType":"address"}]},{"type":"error","name":"ERC20InvalidReceiver","inputs":[{"name":"receiver","type":"address","internalType":"address"}]},{"type":"error","name":"ERC20InvalidSender","inputs":[{"name":"sender","type":"address","internalType":"address"}]},{"type":"error","name":"ERC20InvalidSpender","inputs":[{"name":"spender","type":"address","internalType":"address"}]},{"type":"error","name":"OwnableInvalidOwner","inputs":[{"name":"owner","type":"address","internalType":"address"}]},{"type":"error","name":"OwnableUnauthorizedAccount","inputs":[{"name":"account","type":"address","internalType":"address"}]}],"bytecode":{"object":"0x6080604052600680546001600160a01b03199081167310ed43c718714eb63d5aa57b78b54704e256024e179091556007805490911661dead179055348015610045575f5ffd5b50604051611eb1380380611eb183398101604081905261006491610a44565b33868660036100738382610b6b565b5060046100808282610b6b565b5050506001600160a01b0381166100b157604051631e4fbdf760e01b81525f60048201526024015b60405180910390fd5b6100ba816102f0565b505f6100c86012600a610d1e565b6100d790640324a9a700610d33565b90506100e38582610341565b6100f7856100f2600284610d4a565b610379565b60065f9054906101000a90046001600160a01b03166001600160a01b031663c45a01556040518163ffffffff1660e01b8152600401602060405180830381865afa158015610147573d5f5f3e3d5ffd5b505050506040513d601f19601f8201168201806040525081019061016b9190610d69565b6001600160a01b031663c9c653963060065f9054906101000a90046001600160a01b03166001600160a01b031663ad5c46486040518163ffffffff1660e01b8152600401602060405180830381865afa1580156101ca573d5f5f3e3d5ffd5b505050506040513d601f19601f820116820180604052508101906101ee9190610d69565b6040516001600160e01b031960e085901b1681526001600160a01b039283166004820152911660248201526044016020604051808303815f875af1158015610238573d5f5f3e3d5ffd5b505050506040513d601f19601f8201168201806040525081019061025c9190610d69565b600b80546001600160a01b03199081166001600160a01b0393841617909155600880548216968316969096179095556009805486169482169490941790935550600a805490931690821617909155165f908152600e6020526040808220805460ff1990811660019081179092553084528284208054821683179055338452919092208054909116909117905550610dbf9050565b600580546001600160a01b038381166001600160a01b0319831681179093556040519116919082907f8be0079c531659141344cd1fd0a4f28419497f9722a3daafe3b4186f6b6457e0905f90a35050565b6001600160a01b03821661036a5760405163ec442f0560e01b81525f60048201526024016100a8565b6103755f83836103a9565b5050565b6001600160a01b0382166103a257604051634b637e8f60e11b81525f60048201526024016100a8565b610375825f835b600b546001600160a01b0316158015906103c35750600c54155b1561043e57600b54604080516318160ddd60e01b815290515f926001600160a01b0316916318160ddd9160048083019260209291908290030181865afa15801561040f573d5f5f3e3d5ffd5b505050506040513d601f19601f820116820180604052508101906104339190610d82565b111561043e5742600c555b6001600160a01b038316158061045b57506001600160a01b038216155b156104705761046b83838361067e565b505050565b600b545f906001600160a01b038581169116148061049b5750600b546001600160a01b038481169116145b6001600160a01b0385165f908152600e60205260408120549192509060ff16806104dc57506001600160a01b0384165f908152600e602052604090205460ff165b90505f811580156104ea5750825b15610587575f806104f96107a4565b91509150601e821115801561050f5750601e8111155b61054a5760405162461bcd60e51b815260206004820152600c60248201526b0a8c2f040e8dede40d0d2ced60a31b60448201526064016100a8565b600b545f906001600160a01b038a81169116146105675781610569565b825b905060646105778289610d33565b6105819190610d4a565b93505050505b8015610662575f606461059b866003610d33565b6105a59190610d4a565b90505f8183116105b5575f6105bf565b6105bf8284610d99565b6009549091506105f09089906001600160a01b031660646105e1866046610d33565b6105eb9190610d4a565b61067e565b600a5461060f9089906001600160a01b031660646105e1866014610d33565b60075461062e9089906001600160a01b031660646105e186600a610d33565b801561064c5760085461064c9089906001600160a01b03168361067e565b61065b88886105eb868a610d99565b505061066d565b61066d86868661067e565b610676836107ef565b505050505050565b6001600160a01b0383166106a8578060025f82825461069d9190610dac565b909155506107189050565b6001600160a01b0383165f90815260208190526040902054818110156106fa5760405163391434e360e21b81526001600160a01b038516600482015260248101829052604481018390526064016100a8565b6001600160a01b0384165f9081526020819052604090209082900390555b6001600160a01b03821661073457600280548290039055610752565b6001600160a01b0382165f9081526020819052604090208054820190555b816001600160a01b0316836001600160a01b03167fddf252ad1be2c89b69c2b068fc378daa952ba7f163c4a11628f55a4df523b3ef8360405161079791815260200190565b60405180910390a3505050565b5f5f5f600c54426107b59190610d99565b905061a8c08110156107cd5750600592600f92509050565b620151808110156107e45750600592600a92509050565b506003928392509050565b600b546001600160a01b0316158015906108095750600d54155b1561088457600b54604080516318160ddd60e01b815290515f926001600160a01b0316916318160ddd9160048083019260209291908290030181865afa158015610855573d5f5f3e3d5ffd5b505050506040513d601f19601f820116820180604052508101906108799190610d82565b11156108845742600d555b80610989575f615460600d544261089b9190610d99565b6108a59190610d4a565b9050805f036108b2575050565b600b546001600160a01b03165f908152602081905260408120549060646108d98484610d33565b6108e39190610d4a565b9050808211801561090857506a52b7d2dcc80cd2e40000006109058284610d99565b10155b1561098557600b54610923906001600160a01b031682610379565b42600d55600b546040805160016209351760e01b0319815290516001600160a01b039092169163fff6cae9916004808201925f9290919082900301818387803b15801561096e575f5ffd5b505af1158015610980573d5f5f3e3d5ffd5b505050505b5050505b50565b634e487b7160e01b5f52604160045260245ffd5b5f82601f8301126109af575f5ffd5b81516001600160401b038111156109c8576109c861098c565b604051601f8201601f19908116603f011681016001600160401b03811182821017156109f6576109f661098c565b604052818152838201602001851015610a0d575f5ffd5b8160208501602083015e5f918101602001919091529392505050565b80516001600160a01b0381168114610a3f575f5ffd5b919050565b5f5f5f5f5f5f60c08789031215610a59575f5ffd5b86516001600160401b03811115610a6e575f5ffd5b610a7a89828a016109a0565b602089015190975090506001600160401b03811115610a97575f5ffd5b610aa389828a016109a0565b955050610ab260408801610a29565b9350610ac060608801610a29565b9250610ace60808801610a29565b9150610adc60a08801610a29565b90509295509295509295565b600181811c90821680610afc57607f821691505b602082108103610b1a57634e487b7160e01b5f52602260045260245ffd5b50919050565b601f82111561046b57805f5260205f20601f840160051c81016020851015610b455750805b601f840160051c820191505b81811015610b64575f8155600101610b51565b5050505050565b81516001600160401b03811115610b8457610b8461098c565b610b9881610b928454610ae8565b84610b20565b6020601f821160018114610bca575f8315610bb35750848201515b5f19600385901b1c1916600184901b178455610b64565b5f84815260208120601f198516915b82811015610bf95787850151825560209485019460019092019101610bd9565b5084821015610c1657868401515f19600387901b60f8161c191681555b50505050600190811b01905550565b634e487b7160e01b5f52601160045260245ffd5b6001815b6001841115610c7457808504811115610c5857610c58610c25565b6001841615610c6657908102905b60019390931c928002610c3d565b935093915050565b5f82610c8a57506001610d18565b81610c9657505f610d18565b8160018114610cac5760028114610cb657610cd2565b6001915050610d18565b60ff841115610cc757610cc7610c25565b50506001821b610d18565b5060208310610133831016604e8410600b8410161715610cf5575081810a610d18565b610d015f198484610c39565b805f1904821115610d1457610d14610c25565b0290505b92915050565b5f610d2c60ff841683610c7c565b9392505050565b8082028115828204841417610d1857610d18610c25565b5f82610d6457634e487b7160e01b5f52601260045260245ffd5b500490565b5f60208284031215610d79575f5ffd5b610d2c82610a29565b5f60208284031215610d92575f5ffd5b5051919050565b81810381811115610d1857610d18610c25565b80820180821115610d1857610d18610c25565b6110e580610dcc5f395ff3fe608060405234801561000f575f5ffd5b5060043610610153575f3560e01c80637e88781c116100bf578063b8c9d25c11610079578063b8c9d25c146102da578063c21ebd07146102ed578063dd62ed3e14610300578063e306744914610338578063f2fde38b14610341578063f95a720714610354575f5ffd5b80637e88781c146102805780638da5cb5b1461029257806395d89b41146102a357806398eb0574146102ab578063a0f854d8146102be578063a9059cbb146102c7575f5ffd5b806323b872dd1161011057806323b872dd14610208578063313ce5671461021b5780633803053f1461022a57806363a184f51461023d57806370a0823114610250578063715018a614610278575f5ffd5b806303fd2a4514610157578063060e78441461018757806306fdde03146101b957806308aaa130146101ce578063095ea7b3146101e357806318160ddd146101f6575b5f5ffd5b60075461016a906001600160a01b031681565b6040516001600160a01b0390911681526020015b60405180910390f35b6101a9610195366004610e2e565b600e6020525f908152604090205460ff1681565b604051901515815260200161017e565b6101c1610367565b60405161017e9190610e4e565b6101e16101dc366004610e83565b6103f7565b005b6101a96101f1366004610f09565b6104db565b6002545b60405190815260200161017e565b6101a9610216366004610f31565b6104f4565b6040516012815260200161017e565b60095461016a906001600160a01b031681565b60085461016a906001600160a01b031681565b6101fa61025e366004610e2e565b6001600160a01b03165f9081526020819052604090205490565b6101e1610517565b6101fa6a52b7d2dcc80cd2e400000081565b6005546001600160a01b031661016a565b6101c161052a565b6101e16102b9366004610f6b565b610539565b6101fa600c5481565b6101a96102d5366004610f09565b610580565b600b5461016a906001600160a01b031681565b60065461016a906001600160a01b031681565b6101fa61030e366004610fab565b6001600160a01b039182165f90815260016020908152604080832093909416825291909152205490565b6101fa600d5481565b6101e161034f366004610e2e565b61058d565b600a5461016a906001600160a01b031681565b60606003805461037690610fdc565b80601f01602080910402602001604051908101604052809291908181526020018280546103a290610fdc565b80156103ed5780601f106103c4576101008083540402835291602001916103ed565b820191905f5260205f20905b8154815290600101906020018083116103d057829003601f168201915b5050505050905090565b6103ff6105ca565b5f5b828110156104d5575f84848381811061041c5761041c611014565b90506020020160208101906104319190610e2e565b6001600160a01b03160361047b5760405162461bcd60e51b815260206004820152600c60248201526b5a65726f206164647265737360a01b60448201526064015b60405180910390fd5b81600e5f86868581811061049157610491611014565b90506020020160208101906104a69190610e2e565b6001600160a01b0316815260208101919091526040015f20805460ff1916911515919091179055600101610401565b50505050565b5f336104e88185856105f7565b60019150505b92915050565b5f33610501858285610609565b61050c85858561067f565b506001949350505050565b61051f6105ca565b6105285f6106dc565b565b60606004805461037690610fdc565b6105416105ca565b600880546001600160a01b039485166001600160a01b0319918216179091556009805493851693821693909317909255600a8054919093169116179055565b5f336104e881858561067f565b6105956105ca565b6001600160a01b0381166105be57604051631e4fbdf760e01b81525f6004820152602401610472565b6105c7816106dc565b50565b6005546001600160a01b031633146105285760405163118cdaa760e01b8152336004820152602401610472565b610604838383600161072d565b505050565b6001600160a01b038381165f908152600160209081526040808320938616835292905220545f198110156104d5578181101561067157604051637dc7a0d960e11b81526001600160a01b03841660048201526024810182905260448101839052606401610472565b6104d584848484035f61072d565b6001600160a01b0383166106a857604051634b637e8f60e11b81525f6004820152602401610472565b6001600160a01b0382166106d15760405163ec442f0560e01b81525f6004820152602401610472565b6106048383836107ff565b600580546001600160a01b038381166001600160a01b0319831681179093556040519116919082907f8be0079c531659141344cd1fd0a4f28419497f9722a3daafe3b4186f6b6457e0905f90a35050565b6001600160a01b0384166107565760405163e602df0560e01b81525f6004820152602401610472565b6001600160a01b03831661077f57604051634a1406b160e11b81525f6004820152602401610472565b6001600160a01b038085165f90815260016020908152604080832093871683529290522082905580156104d557826001600160a01b0316846001600160a01b03167f8c5be1e5ebec7d5bd14f71427d1e84f3dd0314c0f7b2291e5b200ac8c7c3b925846040516107f191815260200190565b60405180910390a350505050565b600b546001600160a01b0316158015906108195750600c54155b1561089457600b54604080516318160ddd60e01b815290515f926001600160a01b0316916318160ddd9160048083019260209291908290030181865afa158015610865573d5f5f3e3d5ffd5b505050506040513d601f19601f820116820180604052508101906108899190611028565b11156108945742600c555b6001600160a01b03831615806108b157506001600160a01b038216155b156108c157610604838383610acf565b600b545f906001600160a01b03858116911614806108ec5750600b546001600160a01b038481169116145b6001600160a01b0385165f908152600e60205260408120549192509060ff168061092d57506001600160a01b0384165f908152600e602052604090205460ff165b90505f8115801561093b5750825b156109d8575f5f61094a610bf5565b91509150601e82111580156109605750601e8111155b61099b5760405162461bcd60e51b815260206004820152600c60248201526b0a8c2f040e8dede40d0d2ced60a31b6044820152606401610472565b600b545f906001600160a01b038a81169116146109b857816109ba565b825b905060646109c88289611053565b6109d2919061106a565b93505050505b8015610ab3575f60646109ec866003611053565b6109f6919061106a565b90505f818311610a06575f610a10565b610a108284611089565b600954909150610a419089906001600160a01b03166064610a32866046611053565b610a3c919061106a565b610acf565b600a54610a609089906001600160a01b03166064610a32866014611053565b600754610a7f9089906001600160a01b03166064610a3286600a611053565b8015610a9d57600854610a9d9089906001600160a01b031683610acf565b610aac8888610a3c868a611089565b5050610abe565b610abe868686610acf565b610ac783610c40565b505050505050565b6001600160a01b038316610af9578060025f828254610aee919061109c565b90915550610b699050565b6001600160a01b0383165f9081526020819052604090205481811015610b4b5760405163391434e360e21b81526001600160a01b03851660048201526024810182905260448101839052606401610472565b6001600160a01b0384165f9081526020819052604090209082900390555b6001600160a01b038216610b8557600280548290039055610ba3565b6001600160a01b0382165f9081526020819052604090208054820190555b816001600160a01b0316836001600160a01b03167fddf252ad1be2c89b69c2b068fc378daa952ba7f163c4a11628f55a4df523b3ef83604051610be891815260200190565b60405180910390a3505050565b5f5f5f600c5442610c069190611089565b905061a8c0811015610c1e5750600592600f92509050565b62015180811015610c355750600592600a92509050565b506003928392509050565b600b546001600160a01b031615801590610c5a5750600d54155b15610cd557600b54604080516318160ddd60e01b815290515f926001600160a01b0316916318160ddd9160048083019260209291908290030181865afa158015610ca6573d5f5f3e3d5ffd5b505050506040513d601f19601f82011682018060405250810190610cca9190611028565b1115610cd55742600d555b806105c7575f615460600d5442610cec9190611089565b610cf6919061106a565b9050805f03610d03575050565b600b546001600160a01b03165f90815260208190526040812054906064610d2a8484611053565b610d34919061106a565b90508082118015610d5957506a52b7d2dcc80cd2e4000000610d568284611089565b10155b156104d557600b54610d74906001600160a01b031682610ddb565b42600d55600b546040805160016209351760e01b0319815290516001600160a01b039092169163fff6cae9916004808201925f9290919082900301818387803b158015610dbf575f5ffd5b505af1158015610dd1573d5f5f3e3d5ffd5b5050505050505050565b6001600160a01b038216610e0457604051634b637e8f60e11b81525f6004820152602401610472565b610e0f825f836107ff565b5050565b80356001600160a01b0381168114610e29575f5ffd5b919050565b5f60208284031215610e3e575f5ffd5b610e4782610e13565b9392505050565b602081525f82518060208401528060208501604085015e5f604082850101526040601f19601f83011684010191505092915050565b5f5f5f60408486031215610e95575f5ffd5b833567ffffffffffffffff811115610eab575f5ffd5b8401601f81018613610ebb575f5ffd5b803567ffffffffffffffff811115610ed1575f5ffd5b8660208260051b8401011115610ee5575f5ffd5b6020918201945092508401358015158114610efe575f5ffd5b809150509250925092565b5f5f60408385031215610f1a575f5ffd5b610f2383610e13565b946020939093013593505050565b5f5f5f60608486031215610f43575f5ffd5b610f4c84610e13565b9250610f5a60208501610e13565b929592945050506040919091013590565b5f5f5f60608486031215610f7d575f5ffd5b610f8684610e13565b9250610f9460208501610e13565b9150610fa260408501610e13565b90509250925092565b5f5f60408385031215610fbc575f5ffd5b610fc583610e13565b9150610fd360208401610e13565b90509250929050565b600181811c90821680610ff057607f821691505b60208210810361100e57634e487b7160e01b5f52602260045260245ffd5b50919050565b634e487b7160e01b5f52603260045260245ffd5b5f60208284031215611038575f5ffd5b5051919050565b634e487b7160e01b5f52601160045260245ffd5b80820281158282048414176104ee576104ee61103f565b5f8261108457634e487b7160e01b5f52601260045260245ffd5b500490565b818103818111156104ee576104ee61103f565b808201808211156104ee576104ee61103f56fea264697066735822122056ee33c4f5e5acf25000c0aa0f04150a6fccf43af8ac008085f85d98e2a1239964736f6c634300081c0033","linkReferences":{}},"methodIdentifiers":{"DEAD()":"03fd2a45","MIN_POOL_SUPPLY()":"7e88781c","allowance(address,address)":"dd62ed3e","approve(address,uint256)":"095ea7b3","balanceOf(address)":"70a08231","decimals()":"313ce567","exceedTaxWallet()":"63a184f5","isExemptFromTax(address)":"060e7844","lastBurnTime()":"e3067449","lpDividend()":"3803053f","name()":"06fdde03","nodeDividend()":"f95a7207","openingPoint()":"a0f854d8","owner()":"8da5cb5b","pancakePair()":"b8c9d25c","pancakeRouter()":"c21ebd07","renounceOwnership()":"715018a6","setAddrConfig(address,address,address)":"98eb0574","setTaxExemption(address[],bool)":"08aaa130","symbol()":"95d89b41","totalSupply()":"18160ddd","transfer(address,uint256)":"a9059cbb","transferFrom(address,address,uint256)":"23b872dd","transferOwnership(address)":"f2fde38b"},"id":41}