{"abi":[{"type":"constructor","inputs":[{"name":"_name","type":"string","internalType":"string"},{"name":"_symbol","type":"string","internalType":"string"},{"name":"_initialRecipient","type":"address","internalType":"address"},{"name":"_exceedTaxWallet","type":"address","internalType":"address"},{"name":"_nodeDividend","type":"address","internalType":"address"}],"stateMutability":"nonpayable"},{"type":"function","name":"DEAD","inputs":[],"outputs":[{"name":"","type":"address","internalType":"address"}],"stateMutability":"view"},{"type":"function","name":"MIN_DIVIDEND_LIMIT","inputs":[],"outputs":[{"name":"","type":"uint256","internalType":"uint256"}],"stateMutability":"view"},{"type":"function","name":"MIN_POOL_SUPPLY","inputs":[],"outputs":[{"name":"","type":"uint256","internalType":"uint256"}],"stateMutability":"view"},{"type":"function","name":"allowance","inputs":[{"name":"owner","type":"address","internalType":"address"},{"name":"spender","type":"address","internalType":"address"}],"outputs":[{"name":"","type":"uint256","internalType":"uint256"}],"stateMutability":"view"},{"type":"function","name":"approve","inputs":[{"name":"spender","type":"address","internalType":"address"},{"name":"value","type":"uint256","internalType":"uint256"}],"outputs":[{"name":"","type":"bool","internalType":"bool"}],"stateMutability":"nonpayable"},{"type":"function","name":"balanceOf","inputs":[{"name":"account","type":"address","internalType":"address"}],"outputs":[{"name":"","type":"uint256","internalType":"uint256"}],"stateMutability":"view"},{"type":"function","name":"claim","inputs":[{"name":"recipient","type":"address","internalType":"address"}],"outputs":[],"stateMutability":"nonpayable"},{"type":"function","name":"decimals","inputs":[],"outputs":[{"name":"","type":"uint8","internalType":"uint8"}],"stateMutability":"view"},{"type":"function","name":"exceedTaxWallet","inputs":[],"outputs":[{"name":"","type":"address","internalType":"address"}],"stateMutability":"view"},{"type":"function","name":"getHolders","inputs":[],"outputs":[{"name":"","type":"address[]","internalType":"address[]"}],"stateMutability":"view"},{"type":"function","name":"holders","inputs":[{"name":"","type":"uint256","internalType":"uint256"}],"outputs":[{"name":"","type":"address","internalType":"address"}],"stateMutability":"view"},{"type":"function","name":"isExemptFromTax","inputs":[{"name":"","type":"address","internalType":"address"}],"outputs":[{"name":"","type":"bool","internalType":"bool"}],"stateMutability":"view"},{"type":"function","name":"lastBurnTime","inputs":[],"outputs":[{"name":"","type":"uint256","internalType":"uint256"}],"stateMutability":"view"},{"type":"function","name":"name","inputs":[],"outputs":[{"name":"","type":"string","internalType":"string"}],"stateMutability":"view"},{"type":"function","name":"nodeDividend","inputs":[],"outputs":[{"name":"","type":"address","internalType":"address"}],"stateMutability":"view"},{"type":"function","name":"openingPoint","inputs":[],"outputs":[{"name":"","type":"uint256","internalType":"uint256"}],"stateMutability":"view"},{"type":"function","name":"owner","inputs":[],"outputs":[{"name":"","type":"address","internalType":"address"}],"stateMutability":"view"},{"type":"function","name":"pancakePair","inputs":[],"outputs":[{"name":"","type":"address","internalType":"address"}],"stateMutability":"view"},{"type":"function","name":"pancakeRouter","inputs":[],"outputs":[{"name":"","type":"address","internalType":"contract IPancakeRouter02"}],"stateMutability":"view"},{"type":"function","name":"renounceOwnership","inputs":[],"outputs":[],"stateMutability":"nonpayable"},{"type":"function","name":"setAddrConfig","inputs":[{"name":"_exceedTaxWallet","type":"address","internalType":"address"},{"name":"_nodeDividend","type":"address","internalType":"address"}],"outputs":[],"stateMutability":"nonpayable"},{"type":"function","name":"setMinDividendLimit","inputs":[{"name":"_minDividendLimit","type":"uint256","internalType":"uint256"}],"outputs":[],"stateMutability":"nonpayable"},{"type":"function","name":"setTaxExemption","inputs":[{"name":"_addrs","type":"address[]","internalType":"address[]"},{"name":"_exempt","type":"bool","internalType":"bool"}],"outputs":[],"stateMutability":"nonpayable"},{"type":"function","name":"symbol","inputs":[],"outputs":[{"name":"","type":"string","internalType":"string"}],"stateMutability":"view"},{"type":"function","name":"totalSupply","inputs":[],"outputs":[{"name":"","type":"uint256","internalType":"uint256"}],"stateMutability":"view"},{"type":"function","name":"transfer","inputs":[{"name":"to","type":"address","internalType":"address"},{"name":"value","type":"uint256","internalType":"uint256"}],"outputs":[{"name":"","type":"bool","internalType":"bool"}],"stateMutability":"nonpayable"},{"type":"function","name":"transferFrom","inputs":[{"name":"from","type":"address","internalType":"address"},{"name":"to","type":"address","internalType":"address"},{"name":"value","type":"uint256","internalType":"uint256"}],"outputs":[{"name":"","type":"bool","internalType":"bool"}],"stateMutability":"nonpayable"},{"type":"function","name":"transferOwnership","inputs":[{"name":"newOwner","type":"address","internalType":"address"}],"outputs":[],"stateMutability":"nonpayable"},{"type":"function","name":"updateMyStatus","inputs":[],"outputs":[],"stateMutability":"nonpayable"},{"type":"event","name":"Approval","inputs":[{"name":"owner","type":"address","indexed":true,"internalType":"address"},{"name":"spender","type":"address","indexed":true,"internalType":"address"},{"name":"value","type":"uint256","indexed":false,"internalType":"uint256"}],"anonymous":false},{"type":"event","name":"OwnershipTransferred","inputs":[{"name":"previousOwner","type":"address","indexed":true,"internalType":"address"},{"name":"newOwner","type":"address","indexed":true,"internalType":"address"}],"anonymous":false},{"type":"event","name":"Transfer","inputs":[{"name":"from","type":"address","indexed":true,"internalType":"address"},{"name":"to","type":"address","indexed":true,"internalType":"address"},{"name":"value","type":"uint256","indexed":false,"internalType":"uint256"}],"anonymous":false},{"type":"error","name":"ERC20InsufficientAllowance","inputs":[{"name":"spender","type":"address","internalType":"address"},{"name":"allowance","type":"uint256","internalType":"uint256"},{"name":"needed","type":"uint256","internalType":"uint256"}]},{"type":"error","name":"ERC20InsufficientBalance","inputs":[{"name":"sender","type":"address","internalType":"address"},{"name":"balance","type":"uint256","internalType":"uint256"},{"name":"needed","type":"uint256","internalType":"uint256"}]},{"type":"error","name":"ERC20InvalidApprover","inputs":[{"name":"approver","type":"address","internalType":"address"}]},{"type":"error","name":"ERC20InvalidReceiver","inputs":[{"name":"receiver","type":"address","internalType":"address"}]},{"type":"error","name":"ERC20InvalidSender","inputs":[{"name":"sender","type":"address","internalType":"address"}]},{"type":"error","name":"ERC20InvalidSpender","inputs":[{"name":"spender","type":"address","internalType":"address"}]},{"type":"error","name":"OwnableInvalidOwner","inputs":[{"name":"owner","type":"address","internalType":"address"}]},{"type":"error","name":"OwnableUnauthorizedAccount","inputs":[{"name":"account","type":"address","internalType":"address"}]}],"bytecode":{"object":"0x6080604052600680546001600160a01b03199081167310ed43c718714eb63d5aa57b78b54704e256024e179091556007805490911661dead17905568056bc75e2d63100000600e55348015610052575f5ffd5b50604051612bc3380380612bc383398101604081905261007191610f44565b3385856003610080838261105c565b50600461008d828261105c565b5050506001600160a01b0381166100be57604051631e4fbdf760e01b81525f60048201526024015b60405180910390fd5b6100c7816102df565b505f6100d56012600a61120f565b6100e490640324a9a700611224565b90506100f08482610330565b60065f9054906101000a90046001600160a01b03166001600160a01b031663c45a01556040518163ffffffff1660e01b8152600401602060405180830381865afa158015610140573d5f5f3e3d5ffd5b505050506040513d601f19601f82011682018060405250810190610164919061123b565b6001600160a01b031663c9c653963060065f9054906101000a90046001600160a01b03166001600160a01b031663ad5c46486040518163ffffffff1660e01b8152600401602060405180830381865afa1580156101c3573d5f5f3e3d5ffd5b505050506040513d601f19601f820116820180604052508101906101e7919061123b565b6040516001600160e01b031960e085901b1681526001600160a01b039283166004820152911660248201526044016020604051808303815f875af1158015610231573d5f5f3e3d5ffd5b505050506040513d601f19601f82011682018060405250810190610255919061123b565b600a80546001600160a01b03199081166001600160a01b0393841617909155600880548216958316959095179094556009805490941692811692909217909255919091165f908152600d6020526040808220805460ff19908116600190811790925530845282842080548216831790553384529190922080549091169091179055506112f0915050565b600580546001600160a01b038381166001600160a01b0319831681179093556040519116919082907f8be0079c531659141344cd1fd0a4f28419497f9722a3daafe3b4186f6b6457e0905f90a35050565b6001600160a01b0382166103595760405163ec442f0560e01b81525f60048201526024016100b5565b6103645f8383610368565b5050565b600a546001600160a01b0316158015906103825750600b54155b156103fd57600a54604080516318160ddd60e01b815290515f926001600160a01b0316916318160ddd9160048083019260209291908290030181865afa1580156103ce573d5f5f3e3d5ffd5b505050506040513d601f19601f820116820180604052508101906103f29190611254565b11156103fd5742600b555b6001600160a01b038316158061041a57506001600160a01b038216155b1561042f5761042a838383610759565b505050565b600a545f906001600160a01b038581169116148061045a5750600a546001600160a01b038481169116145b6001600160a01b0385165f908152600d60205260408120549192509060ff168061049b57506001600160a01b0384165f908152600d602052604090205460ff165b90505f811580156104a95750825b15610546575f806104b861087f565b91509150601e82111580156104ce5750601e8111155b6105095760405162461bcd60e51b815260206004820152600c60248201526b0a8c2f040e8dede40d0d2ced60a31b60448201526064016100b5565b600a545f906001600160a01b038a81169116146105265781610528565b825b905060646105368289611224565b610540919061126b565b93505050505b8015610613575f606461055a866003611224565b610564919061126b565b90505f818311610574575f61057e565b61057e828461128a565b90506105a188306064610592866046611224565b61059c919061126b565b610759565b6009546105c09089906001600160a01b03166064610592866014611224565b6007546105df9089906001600160a01b0316606461059286600a611224565b80156105fd576008546105fd9089906001600160a01b031683610759565b61060c888861059c868a61128a565b505061061e565b61061e868686610759565b610627836108ca565b6106338361c350610a62565b600a546040516370a0823160e01b81526001600160a01b0388811660048301525f9216906370a0823190602401602060405180830381865afa15801561067b573d5f5f3e3d5ffd5b505050506040513d601f19601f8201168201806040525081019061069f9190611254565b9050600e5481106106b8576106b387610c7e565b6106c1565b6106c187610d4a565b600a546040516370a0823160e01b81526001600160a01b0388811660048301525f9216906370a0823190602401602060405180830381865afa158015610709573d5f5f3e3d5ffd5b505050506040513d601f19601f8201168201806040525081019061072d9190611254565b9050600e5481106107465761074187610c7e565b61074f565b61074f87610d4a565b5050505050505050565b6001600160a01b038316610783578060025f828254610778919061129d565b909155506107f39050565b6001600160a01b0383165f90815260208190526040902054818110156107d55760405163391434e360e21b81526001600160a01b038516600482015260248101829052604481018390526064016100b5565b6001600160a01b0384165f9081526020819052604090209082900390555b6001600160a01b03821661080f5760028054829003905561082d565b6001600160a01b0382165f9081526020819052604090208054820190555b816001600160a01b0316836001600160a01b03167fddf252ad1be2c89b69c2b068fc378daa952ba7f163c4a11628f55a4df523b3ef8360405161087291815260200190565b60405180910390a3505050565b5f5f5f600b5442610890919061128a565b905061a8c08110156108a85750600592600f92509050565b620151808110156108bf5750600592600a92509050565b506003928392509050565b600a546001600160a01b0316158015906108e45750600c54155b1561095f57600a54604080516318160ddd60e01b815290515f926001600160a01b0316916318160ddd9160048083019260209291908290030181865afa158015610930573d5f5f3e3d5ffd5b505050506040513d601f19601f820116820180604052508101906109549190611254565b111561095f5742600c555b80610a5f575f615460600c5442610976919061128a565b610980919061126b565b9050805f0361098d575050565b600a546001600160a01b03165f908152602081905260408120549060646109b48484611224565b6109be919061126b565b905080821180156109e357506a52b7d2dcc80cd2e40000006109e0828461128a565b10155b15610a5b57600a546109fe906001600160a01b031682610e58565b42600c55600a546040805160016209351760e01b0319815290516001600160a01b039092169163fff6cae9916004808201925f9290919082900301818387803b158015610a49575f5ffd5b505af115801561074f573d5f5f3e3d5ffd5b5050505b50565b8115610a6c575050565b305f90815260208190526040902054670de0b6b3a76400001115610a8e575050565b600a54604080516318160ddd60e01b815290515f926001600160a01b0316916318160ddd9160048083019260209291908290030181865afa158015610ad5573d5f5f3e3d5ffd5b505050506040513d601f19601f82011682018060405250810190610af99190611254565b305f90815260208190526040902054909150811580610b16575080155b15610b215750505050565b600f545f90819081908180805a90505b8983108015610b3f57508382105b15610c71578360115410610b52575f6011555b600f60115481548110610b6757610b676112b0565b5f91825260209091200154600a546040516370a0823160e01b81526001600160a01b039283166004820181905299509116906370a0823190602401602060405180830381865afa158015610bbd573d5f5f3e3d5ffd5b505050506040513d601f19601f82011682018060405250810190610be19190611254565b95508515610c305788610bf4878a611224565b610bfe919061126b565b305f908152602081905260409020549095508515801590610c1e57508581115b15610c2e57610c2e308988610759565b505b5a610c3b908261128a565b610c45908461129d565b92505a601180549192505f610c59836112c4565b91905055508180610c69906112c4565b925050610b31565b5050505050505050505050565b803b8015610c8a575050565b6001600160a01b0382165f90815260106020526040812054900361036457600f541580610ce65750816001600160a01b0316600f5f81548110610ccf57610ccf6112b0565b5f918252602090912001546001600160a01b031614155b1561036457600f80546001600160a01b0384165f818152601060205260408120839055600183018455929092527f8d1108e10bcb7c27dddfc02ed9d693a074039d026cf4ea4240b40f7d581ac8020180546001600160a01b03191690911790555050565b6001600160a01b0381165f90815260106020526040902054813b811580610d7057505f81115b15610d7a57505050565b600f80545f9190610d8d9060019061128a565b81548110610d9d57610d9d6112b0565b5f91825260209091200154600f80546001600160a01b039092169250829185908110610dcb57610dcb6112b0565b5f91825260208083209190910180546001600160a01b0319166001600160a01b039485161790559183168152601090915260409020839055600f805480610e1457610e146112dc565b5f828152602080822083015f1990810180546001600160a01b03191690559092019092556001600160a01b0395909516815260109094525050604082209190915550565b6001600160a01b038216610e8157604051634b637e8f60e11b81525f60048201526024016100b5565b610364825f83610368565b634e487b7160e01b5f52604160045260245ffd5b5f82601f830112610eaf575f5ffd5b81516001600160401b03811115610ec857610ec8610e8c565b604051601f8201601f19908116603f011681016001600160401b0381118282101715610ef657610ef6610e8c565b604052818152838201602001851015610f0d575f5ffd5b8160208501602083015e5f918101602001919091529392505050565b80516001600160a01b0381168114610f3f575f5ffd5b919050565b5f5f5f5f5f60a08688031215610f58575f5ffd5b85516001600160401b03811115610f6d575f5ffd5b610f7988828901610ea0565b602088015190965090506001600160401b03811115610f96575f5ffd5b610fa288828901610ea0565b945050610fb160408701610f29565b9250610fbf60608701610f29565b9150610fcd60808701610f29565b90509295509295909350565b600181811c90821680610fed57607f821691505b60208210810361100b57634e487b7160e01b5f52602260045260245ffd5b50919050565b601f82111561042a57805f5260205f20601f840160051c810160208510156110365750805b601f840160051c820191505b81811015611055575f8155600101611042565b5050505050565b81516001600160401b0381111561107557611075610e8c565b611089816110838454610fd9565b84611011565b6020601f8211600181146110bb575f83156110a45750848201515b5f19600385901b1c1916600184901b178455611055565b5f84815260208120601f198516915b828110156110ea57878501518255602094850194600190920191016110ca565b508482101561110757868401515f19600387901b60f8161c191681555b50505050600190811b01905550565b634e487b7160e01b5f52601160045260245ffd5b6001815b60018411156111655780850481111561114957611149611116565b600184161561115757908102905b60019390931c92800261112e565b935093915050565b5f8261117b57506001611209565b8161118757505f611209565b816001811461119d57600281146111a7576111c3565b6001915050611209565b60ff8411156111b8576111b8611116565b50506001821b611209565b5060208310610133831016604e8410600b84101617156111e6575081810a611209565b6111f25f19848461112a565b805f190482111561120557611205611116565b0290505b92915050565b5f61121d60ff84168361116d565b9392505050565b808202811582820484141761120957611209611116565b5f6020828403121561124b575f5ffd5b61121d82610f29565b5f60208284031215611264575f5ffd5b5051919050565b5f8261128557634e487b7160e01b5f52601260045260245ffd5b500490565b8181038181111561120957611209611116565b8082018082111561120957611209611116565b634e487b7160e01b5f52603260045260245ffd5b5f600182016112d5576112d5611116565b5060010190565b634e487b7160e01b5f52603160045260245ffd5b6118c6806112fd5f395ff3fe608060405234801561000f575f5ffd5b50600436106101c6575f3560e01c80637e88781c116100fe578063d6a5a5f51161009e578063ed3d20061161006e578063ed3d2006146103e5578063ef10d56c146103f8578063f2fde38b14610400578063f95a720714610413575f5ffd5b8063d6a5a5f514610388578063dd62ed3e14610391578063ddae84cc146103c9578063e3067449146103dc575f5ffd5b8063a0f854d8116100d9578063a0f854d814610346578063a9059cbb1461034f578063b8c9d25c14610362578063c21ebd0714610375575f5ffd5b80637e88781c1461031b5780638da5cb5b1461032d57806395d89b411461033e575f5ffd5b806323b872dd116101695780635fe8e7cc116101445780635fe8e7cc146102c357806363a184f5146102d857806370a08231146102eb578063715018a614610313575f5ffd5b806323b872dd1461028e5780632a11ced0146102a1578063313ce567146102b4575f5ffd5b806308aaa130116101a457806308aaa13014610241578063095ea7b31461025657806318160ddd146102695780631e83409a1461027b575f5ffd5b806303fd2a45146101ca578063060e7844146101fa57806306fdde031461022c575b5f5ffd5b6007546101dd906001600160a01b031681565b6040516001600160a01b0390911681526020015b60405180910390f35b61021c6102083660046115c1565b600d6020525f908152604090205460ff1681565b60405190151581526020016101f1565b610234610426565b6040516101f191906115e1565b61025461024f366004611616565b6104b6565b005b61021c61026436600461169c565b61059a565b6002545b6040519081526020016101f1565b6102546102893660046115c1565b6105b3565b61021c61029c3660046116c4565b61061f565b6101dd6102af3660046116fe565b610642565b604051601281526020016101f1565b6102cb61066a565b6040516101f19190611715565b6008546101dd906001600160a01b031681565b61026d6102f93660046115c1565b6001600160a01b03165f9081526020819052604090205490565b6102546106c9565b61026d6a52b7d2dcc80cd2e400000081565b6005546001600160a01b03166101dd565b6102346106dc565b61026d600b5481565b61021c61035d36600461169c565b6106eb565b600a546101dd906001600160a01b031681565b6006546101dd906001600160a01b031681565b61026d600e5481565b61026d61039f366004611760565b6001600160a01b039182165f90815260016020908152604080832093909416825291909152205490565b6102546103d7366004611760565b6106f8565b61026d600c5481565b6102546103f33660046116fe565b61078a565b610254610797565b61025461040e3660046115c1565b61081e565b6009546101dd906001600160a01b031681565b60606003805461043590611791565b80601f016020809104026020016040519081016040528092919081815260200182805461046190611791565b80156104ac5780601f10610483576101008083540402835291602001916104ac565b820191905f5260205f20905b81548152906001019060200180831161048f57829003601f168201915b5050505050905090565b6104be610858565b5f5b82811015610594575f8484838181106104db576104db6117c9565b90506020020160208101906104f091906115c1565b6001600160a01b03160361053a5760405162461bcd60e51b815260206004820152600c60248201526b5a65726f206164647265737360a01b60448201526064015b60405180910390fd5b81600d5f868685818110610550576105506117c9565b905060200201602081019061056591906115c1565b6001600160a01b0316815260208101919091526040015f20805460ff19169115159190911790556001016104c0565b50505050565b5f336105a7818585610885565b60019150505b92915050565b6105bb610858565b6001600160a01b0381166106015760405162461bcd60e51b815260206004820152600d60248201526c2d32b9379030b2323932b9b99760991b6044820152606401610531565b305f8181526020819052604090205461061c91908390610897565b50565b5f3361062c8582856108f4565b610637858585610897565b506001949350505050565b600f8181548110610651575f80fd5b5f918252602090912001546001600160a01b0316905081565b6060600f8054806020026020016040519081016040528092919081815260200182805480156104ac57602002820191905f5260205f20905b81546001600160a01b031681526001909101906020018083116106a2575050505050905090565b6106d1610858565b6106da5f61096a565b565b60606004805461043590611791565b5f336105a7818585610897565b610700610858565b6001600160a01b0382161580159061072057506001600160a01b03811615155b61075c5760405162461bcd60e51b815260206004820152600d60248201526c2d32b9379030b2323932b9b99760991b6044820152606401610531565b600880546001600160a01b039384166001600160a01b03199182161790915560098054929093169116179055565b610792610858565b600e55565b600a546040516370a0823160e01b81523360048201525f916001600160a01b0316906370a0823190602401602060405180830381865afa1580156107dd573d5f5f3e3d5ffd5b505050506040513d601f19601f8201168201806040525081019061080191906117dd565b9050600e5481106108155761061c336109bb565b61061c33610a88565b610826610858565b6001600160a01b03811661084f57604051631e4fbdf760e01b81525f6004820152602401610531565b61061c8161096a565b6005546001600160a01b031633146106da5760405163118cdaa760e01b8152336004820152602401610531565b6108928383836001610b96565b505050565b6001600160a01b0383166108c057604051634b637e8f60e11b81525f6004820152602401610531565b6001600160a01b0382166108e95760405163ec442f0560e01b81525f6004820152602401610531565b610892838383610c68565b6001600160a01b038381165f908152600160209081526040808320938616835292905220545f19811015610594578181101561095c57604051637dc7a0d960e11b81526001600160a01b03841660048201526024810182905260448101839052606401610531565b61059484848484035f610b96565b600580546001600160a01b038381166001600160a01b0319831681179093556040519116919082907f8be0079c531659141344cd1fd0a4f28419497f9722a3daafe3b4186f6b6457e0905f90a35050565b803b80156109c7575050565b6001600160a01b0382165f908152601060205260408120549003610a8457600f541580610a235750816001600160a01b0316600f5f81548110610a0c57610a0c6117c9565b5f918252602090912001546001600160a01b031614155b15610a8457600f80546001600160a01b0384165f818152601060205260408120839055600183018455929092527f8d1108e10bcb7c27dddfc02ed9d693a074039d026cf4ea4240b40f7d581ac8020180546001600160a01b03191690911790555b5050565b6001600160a01b0381165f90815260106020526040902054813b811580610aae57505f81115b15610ab857505050565b600f80545f9190610acb90600190611808565b81548110610adb57610adb6117c9565b5f91825260209091200154600f80546001600160a01b039092169250829185908110610b0957610b096117c9565b5f91825260208083209190910180546001600160a01b0319166001600160a01b039485161790559183168152601090915260409020839055600f805480610b5257610b5261181b565b5f828152602080822083015f1990810180546001600160a01b03191690559092019092556001600160a01b0395909516815260109094525050604082209190915550565b6001600160a01b038416610bbf5760405163e602df0560e01b81525f6004820152602401610531565b6001600160a01b038316610be857604051634a1406b160e11b81525f6004820152602401610531565b6001600160a01b038085165f908152600160209081526040808320938716835292905220829055801561059457826001600160a01b0316846001600160a01b03167f8c5be1e5ebec7d5bd14f71427d1e84f3dd0314c0f7b2291e5b200ac8c7c3b92584604051610c5a91815260200190565b60405180910390a350505050565b600a546001600160a01b031615801590610c825750600b54155b15610cfd57600a54604080516318160ddd60e01b815290515f926001600160a01b0316916318160ddd9160048083019260209291908290030181865afa158015610cce573d5f5f3e3d5ffd5b505050506040513d601f19601f82011682018060405250810190610cf291906117dd565b1115610cfd5742600b555b6001600160a01b0383161580610d1a57506001600160a01b038216155b15610d2a57610892838383611054565b600a545f906001600160a01b0385811691161480610d555750600a546001600160a01b038481169116145b6001600160a01b0385165f908152600d60205260408120549192509060ff1680610d9657506001600160a01b0384165f908152600d602052604090205460ff165b90505f81158015610da45750825b15610e41575f5f610db361117a565b91509150601e8211158015610dc95750601e8111155b610e045760405162461bcd60e51b815260206004820152600c60248201526b0a8c2f040e8dede40d0d2ced60a31b6044820152606401610531565b600a545f906001600160a01b038a8116911614610e215781610e23565b825b90506064610e31828961182f565b610e3b9190611846565b93505050505b8015610f0e575f6064610e5586600361182f565b610e5f9190611846565b90505f818311610e6f575f610e79565b610e798284611808565b9050610e9c88306064610e8d86604661182f565b610e979190611846565b611054565b600954610ebb9089906001600160a01b03166064610e8d86601461182f565b600754610eda9089906001600160a01b03166064610e8d86600a61182f565b8015610ef857600854610ef89089906001600160a01b031683611054565b610f078888610e97868a611808565b5050610f19565b610f19868686611054565b610f22836111c5565b610f2e8361c350611356565b600a546040516370a0823160e01b81526001600160a01b0388811660048301525f9216906370a0823190602401602060405180830381865afa158015610f76573d5f5f3e3d5ffd5b505050506040513d601f19601f82011682018060405250810190610f9a91906117dd565b9050600e548110610fb357610fae876109bb565b610fbc565b610fbc87610a88565b600a546040516370a0823160e01b81526001600160a01b0388811660048301525f9216906370a0823190602401602060405180830381865afa158015611004573d5f5f3e3d5ffd5b505050506040513d601f19601f8201168201806040525081019061102891906117dd565b9050600e5481106110415761103c876109bb565b61104a565b61104a87610a88565b5050505050505050565b6001600160a01b03831661107e578060025f8282546110739190611865565b909155506110ee9050565b6001600160a01b0383165f90815260208190526040902054818110156110d05760405163391434e360e21b81526001600160a01b03851660048201526024810182905260448101839052606401610531565b6001600160a01b0384165f9081526020819052604090209082900390555b6001600160a01b03821661110a57600280548290039055611128565b6001600160a01b0382165f9081526020819052604090208054820190555b816001600160a01b0316836001600160a01b03167fddf252ad1be2c89b69c2b068fc378daa952ba7f163c4a11628f55a4df523b3ef8360405161116d91815260200190565b60405180910390a3505050565b5f5f5f600b544261118b9190611808565b905061a8c08110156111a35750600592600f92509050565b620151808110156111ba5750600592600a92509050565b506003928392509050565b600a546001600160a01b0316158015906111df5750600c54155b1561125a57600a54604080516318160ddd60e01b815290515f926001600160a01b0316916318160ddd9160048083019260209291908290030181865afa15801561122b573d5f5f3e3d5ffd5b505050506040513d601f19601f8201168201806040525081019061124f91906117dd565b111561125a5742600c555b8061061c575f615460600c54426112719190611808565b61127b9190611846565b9050805f03611288575050565b600a546001600160a01b03165f908152602081905260408120549060646112af848461182f565b6112b99190611846565b905080821180156112de57506a52b7d2dcc80cd2e40000006112db8284611808565b10155b1561059457600a546112f9906001600160a01b031682611572565b42600c55600a546040805160016209351760e01b0319815290516001600160a01b039092169163fff6cae9916004808201925f9290919082900301818387803b158015611344575f5ffd5b505af115801561104a573d5f5f3e3d5ffd5b8115611360575050565b305f90815260208190526040902054670de0b6b3a76400001115611382575050565b600a54604080516318160ddd60e01b815290515f926001600160a01b0316916318160ddd9160048083019260209291908290030181865afa1580156113c9573d5f5f3e3d5ffd5b505050506040513d601f19601f820116820180604052508101906113ed91906117dd565b305f9081526020819052604090205490915081158061140a575080155b156114155750505050565b600f545f90819081908180805a90505b898310801561143357508382105b15611565578360115410611446575f6011555b600f6011548154811061145b5761145b6117c9565b5f91825260209091200154600a546040516370a0823160e01b81526001600160a01b039283166004820181905299509116906370a0823190602401602060405180830381865afa1580156114b1573d5f5f3e3d5ffd5b505050506040513d601f19601f820116820180604052508101906114d591906117dd565b9550851561152457886114e8878a61182f565b6114f29190611846565b305f90815260208190526040902054909550851580159061151257508581115b1561152257611522308988611054565b505b5a61152f9082611808565b6115399084611865565b92505a601180549192505f61154d83611878565b9190505550818061155d90611878565b925050611425565b5050505050505050505050565b6001600160a01b03821661159b57604051634b637e8f60e11b81525f6004820152602401610531565b610a84825f83610c68565b80356001600160a01b03811681146115bc575f5ffd5b919050565b5f602082840312156115d1575f5ffd5b6115da826115a6565b9392505050565b602081525f82518060208401528060208501604085015e5f604082850101526040601f19601f83011684010191505092915050565b5f5f5f60408486031215611628575f5ffd5b833567ffffffffffffffff81111561163e575f5ffd5b8401601f8101861361164e575f5ffd5b803567ffffffffffffffff811115611664575f5ffd5b8660208260051b8401011115611678575f5ffd5b6020918201945092508401358015158114611691575f5ffd5b809150509250925092565b5f5f604083850312156116ad575f5ffd5b6116b6836115a6565b946020939093013593505050565b5f5f5f606084860312156116d6575f5ffd5b6116df846115a6565b92506116ed602085016115a6565b929592945050506040919091013590565b5f6020828403121561170e575f5ffd5b5035919050565b602080825282518282018190525f918401906040840190835b818110156117555783516001600160a01b031683526020938401939092019160010161172e565b509095945050505050565b5f5f60408385031215611771575f5ffd5b61177a836115a6565b9150611788602084016115a6565b90509250929050565b600181811c908216806117a557607f821691505b6020821081036117c357634e487b7160e01b5f52602260045260245ffd5b50919050565b634e487b7160e01b5f52603260045260245ffd5b5f602082840312156117ed575f5ffd5b5051919050565b634e487b7160e01b5f52601160045260245ffd5b818103818111156105ad576105ad6117f4565b634e487b7160e01b5f52603160045260245ffd5b80820281158282048414176105ad576105ad6117f4565b5f8261186057634e487b7160e01b5f52601260045260245ffd5b500490565b808201808211156105ad576105ad6117f4565b5f60018201611889576118896117f4565b506001019056fea2646970667358221220ea84b194d78679f37d5ea3c92208d9fdfb1930a2a6756cc04c0b441711e403b764736f6c634300081c0033","linkReferences":{}},"methodIdentifiers":{"DEAD()":"03fd2a45","MIN_DIVIDEND_LIMIT()":"d6a5a5f5","MIN_POOL_SUPPLY()":"7e88781c","allowance(address,address)":"dd62ed3e","approve(address,uint256)":"095ea7b3","balanceOf(address)":"70a08231","claim(address)":"1e83409a","decimals()":"313ce567","exceedTaxWallet()":"63a184f5","getHolders()":"5fe8e7cc","holders(uint256)":"2a11ced0","isExemptFromTax(address)":"060e7844","lastBurnTime()":"e3067449","name()":"06fdde03","nodeDividend()":"f95a7207","openingPoint()":"a0f854d8","owner()":"8da5cb5b","pancakePair()":"b8c9d25c","pancakeRouter()":"c21ebd07","renounceOwnership()":"715018a6","setAddrConfig(address,address)":"ddae84cc","setMinDividendLimit(uint256)":"ed3d2006","setTaxExemption(address[],bool)":"08aaa130","symbol()":"95d89b41","totalSupply()":"18160ddd","transfer(address,uint256)":"a9059cbb","transferFrom(address,address,uint256)":"23b872dd","transferOwnership(address)":"f2fde38b","updateMyStatus()":"ef10d56c"},"id":41}