{"abi":[{"type":"function","name":"BASE","inputs":[],"outputs":[{"name":"","type":"uint256","internalType":"uint256"}],"stateMutability":"view"},{"type":"function","name":"DEAD","inputs":[],"outputs":[{"name":"","type":"address","internalType":"address"}],"stateMutability":"view"},{"type":"function","name":"REWARD_RATE","inputs":[],"outputs":[{"name":"","type":"uint256","internalType":"uint256"}],"stateMutability":"view"},{"type":"function","name":"STAKE_PERIOD","inputs":[],"outputs":[{"name":"","type":"uint256","internalType":"uint256"}],"stateMutability":"view"},{"type":"function","name":"UPGRADE_INTERFACE_VERSION","inputs":[],"outputs":[{"name":"","type":"string","internalType":"string"}],"stateMutability":"view"},{"type":"function","name":"USDT","inputs":[],"outputs":[{"name":"","type":"address","internalType":"address"}],"stateMutability":"view"},{"type":"function","name":"addLiquidity","inputs":[{"name":"amountToken","type":"uint256","internalType":"uint256"}],"outputs":[{"name":"_amountToken","type":"uint256","internalType":"uint256"},{"name":"_amountUsdt","type":"uint256","internalType":"uint256"},{"name":"_liquidityAmount","type":"uint256","internalType":"uint256"}],"stateMutability":"nonpayable"},{"type":"function","name":"bindInviter","inputs":[{"name":"inviter","type":"address","internalType":"address"}],"outputs":[],"stateMutability":"nonpayable"},{"type":"function","name":"claimAward","inputs":[{"name":"amount","type":"uint256","internalType":"uint256"}],"outputs":[],"stateMutability":"nonpayable"},{"type":"function","name":"claimOrder","inputs":[{"name":"orderIndex","type":"uint256","internalType":"uint256"}],"outputs":[],"stateMutability":"nonpayable"},{"type":"function","name":"getOrderCountdown","inputs":[{"name":"orderIndex","type":"uint256","internalType":"uint256"}],"outputs":[{"name":"","type":"uint256","internalType":"uint256"}],"stateMutability":"view"},{"type":"function","name":"getOrderRealTimeYield","inputs":[{"name":"orderIndex","type":"uint256","internalType":"uint256"}],"outputs":[{"name":"","type":"uint256","internalType":"uint256"}],"stateMutability":"view"},{"type":"function","name":"getQuoteAmount","inputs":[{"name":"amountToken","type":"uint256","internalType":"uint256"}],"outputs":[{"name":"amountUsdt","type":"uint256","internalType":"uint256"}],"stateMutability":"view"},{"type":"function","name":"getStakingOrders","inputs":[],"outputs":[{"name":"","type":"tuple[]","internalType":"struct IMining.StakingOrder[]","components":[{"name":"holder","type":"address","internalType":"address"},{"name":"amount","type":"uint256","internalType":"uint256"},{"name":"stakingTime","type":"uint256","internalType":"uint256"},{"name":"isExtracted","type":"bool","internalType":"bool"}]}],"stateMutability":"view"},{"type":"function","name":"getUserInfo","inputs":[{"name":"_user","type":"address","internalType":"address"}],"outputs":[{"name":"_inviter","type":"address","internalType":"address"},{"name":"_award","type":"uint256","internalType":"uint256"},{"name":"_usdtValue","type":"uint256","internalType":"uint256"},{"name":"_level","type":"uint8","internalType":"enum IMining.Level"},{"name":"_validOrderIndexes","type":"uint256[]","internalType":"uint256[]"},{"name":"_orderIndexes","type":"uint256[]","internalType":"uint256[]"},{"name":"_invitees","type":"address[]","internalType":"address[]"},{"name":"_awardRecords","type":"tuple[]","internalType":"struct IMining.AwardRecord[]","components":[{"name":"invitee","type":"address","internalType":"address"},{"name":"stakingAmount","type":"uint256","internalType":"uint256"},{"name":"awardAmount","type":"uint256","internalType":"uint256"},{"name":"awardTime","type":"uint256","internalType":"uint256"},{"name":"isLevelAward","type":"bool","internalType":"bool"}]}],"stateMutability":"view"},{"type":"function","name":"getUserRealTimeYield","inputs":[{"name":"userAddr","type":"address","internalType":"address"}],"outputs":[{"name":"total","type":"uint256","internalType":"uint256"}],"stateMutability":"view"},{"type":"function","name":"getUserValidStakingAmount","inputs":[{"name":"userAddr","type":"address","internalType":"address"}],"outputs":[{"name":"totalAmount","type":"uint256","internalType":"uint256"}],"stateMutability":"view"},{"type":"function","name":"getUserValidStakingAmountForUsdt","inputs":[{"name":"userAddr","type":"address","internalType":"address"}],"outputs":[{"name":"totalUsdt","type":"uint256","internalType":"uint256"}],"stateMutability":"view"},{"type":"function","name":"getValidOrderIndexes","inputs":[{"name":"_user","type":"address","internalType":"address"}],"outputs":[{"name":"","type":"uint256[]","internalType":"uint256[]"}],"stateMutability":"view"},{"type":"function","name":"index","inputs":[],"outputs":[{"name":"","type":"uint256","internalType":"uint256"}],"stateMutability":"view"},{"type":"function","name":"initialInviter","inputs":[],"outputs":[{"name":"","type":"address","internalType":"address"}],"stateMutability":"view"},{"type":"function","name":"initialize","inputs":[{"name":"_token","type":"address","internalType":"address"},{"name":"_lp","type":"address","internalType":"address"},{"name":"_initialInviter","type":"address","internalType":"address"}],"outputs":[],"stateMutability":"nonpayable"},{"type":"function","name":"lp","inputs":[],"outputs":[{"name":"","type":"address","internalType":"address"}],"stateMutability":"view"},{"type":"function","name":"owner","inputs":[],"outputs":[{"name":"","type":"address","internalType":"address"}],"stateMutability":"view"},{"type":"function","name":"proxiableUUID","inputs":[],"outputs":[{"name":"","type":"bytes32","internalType":"bytes32"}],"stateMutability":"view"},{"type":"function","name":"removeLiquidity","inputs":[{"name":"_liquidity","type":"uint256","internalType":"uint256"}],"outputs":[],"stateMutability":"nonpayable"},{"type":"function","name":"renounceOwnership","inputs":[],"outputs":[],"stateMutability":"nonpayable"},{"type":"function","name":"serchLiquidityBalance","inputs":[{"name":"_user","type":"address","internalType":"address"}],"outputs":[{"name":"","type":"uint256","internalType":"uint256"}],"stateMutability":"view"},{"type":"function","name":"setConfig","inputs":[{"name":"_token","type":"address","internalType":"address"},{"name":"_initialInviter","type":"address","internalType":"address"}],"outputs":[],"stateMutability":"nonpayable"},{"type":"function","name":"staking","inputs":[{"name":"amountToken","type":"uint256","internalType":"uint256"}],"outputs":[],"stateMutability":"nonpayable"},{"type":"function","name":"stakingOrderInfo","inputs":[{"name":"","type":"uint256","internalType":"uint256"}],"outputs":[{"name":"holder","type":"address","internalType":"address"},{"name":"amount","type":"uint256","internalType":"uint256"},{"name":"stakingTime","type":"uint256","internalType":"uint256"},{"name":"isExtracted","type":"bool","internalType":"bool"}],"stateMutability":"view"},{"type":"function","name":"stakingOrders","inputs":[{"name":"","type":"uint256","internalType":"uint256"}],"outputs":[{"name":"holder","type":"address","internalType":"address"},{"name":"amount","type":"uint256","internalType":"uint256"},{"name":"stakingTime","type":"uint256","internalType":"uint256"},{"name":"isExtracted","type":"bool","internalType":"bool"}],"stateMutability":"view"},{"type":"function","name":"token","inputs":[],"outputs":[{"name":"","type":"address","internalType":"address"}],"stateMutability":"view"},{"type":"function","name":"transferOwnership","inputs":[{"name":"newOwner","type":"address","internalType":"address"}],"outputs":[],"stateMutability":"nonpayable"},{"type":"function","name":"uniswapV2Factory","inputs":[],"outputs":[{"name":"","type":"address","internalType":"address"}],"stateMutability":"view"},{"type":"function","name":"uniswapV2Router","inputs":[],"outputs":[{"name":"","type":"address","internalType":"address"}],"stateMutability":"view"},{"type":"function","name":"upgradeToAndCall","inputs":[{"name":"newImplementation","type":"address","internalType":"address"},{"name":"data","type":"bytes","internalType":"bytes"}],"outputs":[],"stateMutability":"payable"},{"type":"function","name":"userInfo","inputs":[{"name":"","type":"address","internalType":"address"}],"outputs":[{"name":"inviter","type":"address","internalType":"address"},{"name":"award","type":"uint256","internalType":"uint256"},{"name":"usdtValue","type":"uint256","internalType":"uint256"},{"name":"level","type":"uint8","internalType":"enum IMining.Level"}],"stateMutability":"view"},{"type":"event","name":"Initialized","inputs":[{"name":"version","type":"uint64","indexed":false,"internalType":"uint64"}],"anonymous":false},{"type":"event","name":"OwnershipTransferred","inputs":[{"name":"previousOwner","type":"address","indexed":true,"internalType":"address"},{"name":"newOwner","type":"address","indexed":true,"internalType":"address"}],"anonymous":false},{"type":"event","name":"Upgraded","inputs":[{"name":"implementation","type":"address","indexed":true,"internalType":"address"}],"anonymous":false},{"type":"error","name":"AddressEmptyCode","inputs":[{"name":"target","type":"address","internalType":"address"}]},{"type":"error","name":"ERC1967InvalidImplementation","inputs":[{"name":"implementation","type":"address","internalType":"address"}]},{"type":"error","name":"ERC1967NonPayable","inputs":[]},{"type":"error","name":"FailedCall","inputs":[]},{"type":"error","name":"InvalidInitialization","inputs":[]},{"type":"error","name":"NotInitializing","inputs":[]},{"type":"error","name":"OwnableInvalidOwner","inputs":[{"name":"owner","type":"address","internalType":"address"}]},{"type":"error","name":"OwnableUnauthorizedAccount","inputs":[{"name":"account","type":"address","internalType":"address"}]},{"type":"error","name":"ReentrancyGuardReentrantCall","inputs":[]},{"type":"error","name":"UUPSUnauthorizedCallContext","inputs":[]},{"type":"error","name":"UUPSUnsupportedProxiableUUID","inputs":[{"name":"slot","type":"bytes32","internalType":"bytes32"}]}],"bytecode":{"object":"0x60a0604052306080523480156012575f5ffd5b5060015f5560805161349661003d5f395f8181612391015281816123ba015261261501526134965ff3fe60806040526004361061021d575f3560e01c806359d0f7131161011e578063abf194a0116100a8578063c54e44eb1161006d578063c54e44eb1461072e578063dd4b182314610755578063ec342ad01461076b578063f2fde38b14610780578063fc0c546a1461079f575f5ffd5b8063abf194a014610647578063ad3cb1cc14610666578063b602024b146106a3578063bb8498cf146106c2578063c0c53b8b1461070f575f5ffd5b8063715018a6116100ee578063715018a61461056e578063789574d4146105825780638da5cb5b146105cd5780639c8f9f2314610609578063a14a9f8f14610628575f5ffd5b806359d0f713146104d65780636386c1c7146104fd578063666b0dab1461053057806370a8302a1461054f575f5ffd5b806336b4733d116101aa57806351c6590a1161016f57806351c6590a1461043357806352d1902d1461046d57806355a1883a146104815780635655f4db146104a05780635997bb37146104c1575f5ffd5b806336b4733d146103975780633a3f8239146103b65780633fd004d7146103d55780634e377201146104015780634f1ef28614610420575f5ffd5b80631959a002116101f05780631959a002146102c85780631dbb2a22146103255780632986c0e5146103445780632a75d5f414610359578063313c06a014610378575f5ffd5b806302318e531461022157806303fd2a451461025357806308254f51146102805780631694505e146102a1575b5f5ffd5b34801561022c575f5ffd5b5061024061023b366004612ea4565b6107be565b6040519081526020015b60405180910390f35b34801561025e575f5ffd5b5061026861dead81565b6040516001600160a01b03909116815260200161024a565b34801561028b575f5ffd5b5061029f61029a366004612ea4565b610894565b005b3480156102ac575f5ffd5b506102687310ed43c718714eb63d5aa57b78b54704e256024e81565b3480156102d3575f5ffd5b506103156102e2366004612ecf565b60066020525f908152604090208054600182015460028301546003909301546001600160a01b0390921692909160ff1684565b60405161024a9493929190612f1e565b348015610330575f5ffd5b5061029f61033f366004612ea4565b61097c565b34801561034f575f5ffd5b5061024060035481565b348015610364575f5ffd5b50610240610373366004612ea4565b610ba7565b348015610383575f5ffd5b50600254610268906001600160a01b031681565b3480156103a2575f5ffd5b506102406103b1366004612ecf565b610c04565b3480156103c1575f5ffd5b5061029f6103d0366004612ea4565b610c76565b3480156103e0575f5ffd5b506103f46103ef366004612ecf565b610da8565b60405161024a9190612f83565b34801561040c575f5ffd5b50600454610268906001600160a01b031681565b61029f61042e366004612fa9565b6110a6565b34801561043e575f5ffd5b5061045261044d366004612ea4565b6110c5565b6040805193845260208401929092529082015260600161024a565b348015610478575f5ffd5b50610240611113565b34801561048c575f5ffd5b5061024061049b366004612ea4565b61112e565b3480156104ab575f5ffd5b506104b46111b7565b60405161024a919061306f565b3480156104cc575f5ffd5b50610240610bb881565b3480156104e1575f5ffd5b5061026873ca143ce32fe78f1f7019d7d551a6402fc5350c7381565b348015610508575f5ffd5b5061051c610517366004612ecf565b611244565b60405161024a989796959493929190613147565b34801561053b575f5ffd5b5061024061054a366004612ecf565b61145f565b34801561055a575f5ffd5b50610240610569366004612ecf565b6114ea565b348015610579575f5ffd5b5061029f6114f7565b34801561058d575f5ffd5b506105a161059c366004612ea4565b61150a565b604080516001600160a01b0390951685526020850193909352918301521515606082015260800161024a565b3480156105d8575f5ffd5b507f9016d09d72d40fdae2fd8ceac6b6234c7706214fd39c1cd1e609a0528c199300546001600160a01b0316610268565b348015610614575f5ffd5b5061029f610623366004612ea4565b61154f565b348015610633575f5ffd5b5061029f610642366004612ecf565b61168e565b348015610652575f5ffd5b50610240610661366004612ecf565b61186a565b348015610671575f5ffd5b50610696604051806040016040528060058152602001640352e302e360dc1b81525081565b60405161024a91906131fc565b3480156106ae575f5ffd5b5061029f6106bd366004613231565b6118ed565b3480156106cd575f5ffd5b506105a16106dc366004612ea4565b60056020525f908152604090208054600182015460028301546003909301546001600160a01b0390921692909160ff1684565b34801561071a575f5ffd5b5061029f610729366004613268565b611968565b348015610739575f5ffd5b506102687355d398326f99059ff775485246999027b319795581565b348015610760575f5ffd5b5061024062278d0081565b348015610776575f5ffd5b5061024061271081565b34801561078b575f5ffd5b5061029f61079a366004612ecf565b611aac565b3480156107aa575f5ffd5b50600154610268906001600160a01b031681565b5f818152600560209081526040808320815160808101835281546001600160a01b0316815260018201549381018490526002820154928101929092526003015460ff16151560608201529082906127109061081c90610bb8906132c4565b61082691906132db565b826020015161083591906132fa565b90505f82604001514211610849575f610858565b6040830151610858904261330d565b905062278d00811061086c57509392505050565b61087962278d00836132db565b61088390826132c4565b95945050505050565b505050919050565b61089c611ae6565b335f90815260066020526040902060018101548211156108f85760405162461bcd60e51b815260206004820152601260248201527127379030bbb0b932103a379031b630b4b69760711b60448201526064015b60405180910390fd5b81816001015f82825461090b919061330d565b90915550506001546040516340c10f1960e01b8152336004820152602481018490526001600160a01b03909116906340c10f19906044015f604051808303815f87803b158015610959575f5ffd5b505af115801561096b573d5f5f3e3d5ffd5b505050505061097960015f55565b50565b335f90815260066020526040902080546001600160a01b03166109eb5760405162461bcd60e51b815260206004820152602160248201527f4e65656420746f2062696e642074686520696e766974657220616464726573736044820152601760f91b60648201526084016108ef565b600154610a05906001600160a01b03163361dead85611b0e565b60408051608081018252338082526020808301868152428486019081525f606086018181526007805460018181018355918452885160049182027fa66cc928b5edb82af9bd49922954155ab7b0942694bea4ce44661d9a8736c688810180546001600160a01b039384166001600160a01b03199182161790915588517fa66cc928b5edb82af9bd49922954155ab7b0942694bea4ce44661d9a8736c68983015587517fa66cc928b5edb82af9bd49922954155ab7b0942694bea4ce44661d9a8736c68a83015585517fa66cc928b5edb82af9bd49922954155ab7b0942694bea4ce44661d9a8736c68b909201805492151560ff199384161790556003805488526005808c528e89208e5181549087169085161781559a518b880155985160028b015595519886018054991515999092169890981790558354918c018054808501825590865288862001919091558a541683526006865297822090920180549788018155815292832090950180549091169092179091558254919290610b8983613320565b9190505550610b983384611c39565b610ba233846120b9565b505050565b6001545f9081908190610bed9073ca143ce32fe78f1f7019d7d551a6402fc5350c73906001600160a01b03167355d398326f99059ff775485246999027b31979556121e3565b91509150610bfc8483836122a8565b949350505050565b6002546040516370a0823160e01b81526001600160a01b0383811660048301525f9216906370a0823190602401602060405180830381865afa158015610c4c573d5f5f3e3d5ffd5b505050506040513d601f19601f82011682018060405250810190610c709190613338565b92915050565b610c7e611ae6565b5f81815260056020526040902080546001600160a01b03163314610cdb5760405162461bcd60e51b81526020600482015260146024820152732737ba103a34329037b93232b91037bbb732b91760611b60448201526064016108ef565b600381015460ff1615610d235760405162461bcd60e51b815260206004820152601060248201526f20b63932b0b23c9031b630b4b6b2b21760811b60448201526064016108ef565b5f610d2d836107be565b60038301805460ff19166001908117909155546040516340c10f1960e01b8152336004820152602481018390529192506001600160a01b0316906340c10f19906044015f604051808303815f87803b158015610d87575f5ffd5b505af1158015610d99573d5f5f3e3d5ffd5b50505050505061097960015f55565b6001600160a01b038082165f908152600660209081526040808320815160e08101835281549095168552600181015492850192909252600282015490840152600381015460609391908285019060ff166005811115610e0957610e09612eea565b6005811115610e1a57610e1a612eea565b815260200160048201805480602002602001604051908101604052809291908181526020018280548015610e6b57602002820191905f5260205f20905b815481526020019060010190808311610e57575b5050505050815260200160058201805480602002602001604051908101604052809291908181526020018280548015610ecb57602002820191905f5260205f20905b81546001600160a01b03168152600190910190602001808311610ead575b5050505050815260200160068201805480602002602001604051908101604052809291908181526020015f905b82821015610f63575f8481526020908190206040805160a0810182526005860290920180546001600160a01b0316835260018082015484860152600282015492840192909252600381015460608401526004015460ff16151560808301529083529092019101610ef8565b505050915250506080810151519091505f805b82811015610fd4575f84608001518281518110610f9557610f9561334f565b6020908102919091018101515f818152600590925260409091206003015490915060ff16610fcb5782610fc781613320565b9350505b50600101610f76565b505f8167ffffffffffffffff811115610fef57610fef612f95565b604051908082528060200260200182016040528015611018578160200160208202803683370190505b5090505f805b8481101561109a575f8660800151828151811061103d5761103d61334f565b6020908102919091018101515f818152600590925260409091206003015490915060ff1661109157808484815181106110785761107861334f565b60209081029190910101528261108d81613320565b9350505b5060010161101e565b50909695505050505050565b6110ae612386565b6110b78261242a565b6110c18282612432565b5050565b5f5f5f5f6110d285610ba7565b600154909150611105906001600160a01b03167355d398326f99059ff775485246999027b319795587845f8033426124ee565b919790965090945092505050565b5f61111c61260a565b505f5160206134415f395f51905f5290565b5f818152600560209081526040808320815160808101835281546001600160a01b0316815260018201549381019390935260028101549183018290526003015460ff161515606083015282904211611186575f611195565b6040820151611195904261330d565b905062278d0081106111aa57505f9392505050565b610bfc8162278d0061330d565b60606007805480602002602001604051908101604052809291908181526020015f905b8282101561123b575f848152602090819020604080516080810182526004860290920180546001600160a01b03168352600180820154848601526002820154928401929092526003015460ff161515606083015290835290920191016111da565b50505050905090565b6001600160a01b038082165f908152600660209081526040808320815160e08101835281549095168552600181015492850192909252600282015490840152600381015491928392839283926060928392839283928792908285019060ff1660058111156112b4576112b4612eea565b60058111156112c5576112c5612eea565b81526020016004820180548060200260200160405190810160405280929190818152602001828054801561131657602002820191905f5260205f20905b815481526020019060010190808311611302575b505050505081526020016005820180548060200260200160405190810160405280929190818152602001828054801561137657602002820191905f5260205f20905b81546001600160a01b03168152600190910190602001808311611358575b5050505050815260200160068201805480602002602001604051908101604052809291908181526020015f905b8282101561140e575f8481526020908190206040805160a0810182526005860290920180546001600160a01b0316835260018082015484860152600282015492840192909252600381015460608401526004015460ff161515608083015290835290920191016113a3565b50505050815250509050805f015198508060200151975080604001519650806060015195508060a0015192508060c001519150806080015193506114518a610da8565b945050919395975091939597565b6001600160a01b0381165f9081526006602052604081206004810154825b8181101561088c575f83600401828154811061149b5761149b61334f565b5f918252602080832090910154808352600590915260409091206003015490915060ff166114e1575f818152600560205260409020600101546114de90866132fa565b94505b5060010161147d565b5f610c706103738361145f565b6114ff612653565b6115085f6126ae565b565b60078181548110611519575f80fd5b5f91825260209091206004909102018054600182015460028301546003909301546001600160a01b039092169350919060ff1684565b60025460405163095ea7b360e01b81527310ed43c718714eb63d5aa57b78b54704e256024e6004820152602481018390526001600160a01b039091169063095ea7b3906044016020604051808303815f875af11580156115b1573d5f5f3e3d5ffd5b505050506040513d601f19601f820116820180604052508101906115d59190613363565b50600154604051635d5155ef60e11b81527355d398326f99059ff775485246999027b319795560048201526001600160a01b039091166024820152604481018290525f6064820181905260848201523360a48201524260c48201527310ed43c718714eb63d5aa57b78b54704e256024e9063baa2abde9060e40160408051808303815f875af115801561166a573d5f5f3e3d5ffd5b505050506040513d601f19601f82011682018060405250810190610ba29190613382565b336001600160a01b038216036116e65760405162461bcd60e51b815260206004820181905260248201527f43616e6e6f742062696e6420796f757273656c6620617320696e76697465722e60448201526064016108ef565b335f908152600660205260409020546001600160a01b0316156117445760405162461bcd60e51b815260206004820152601660248201527524b73b34ba32b91030b63932b0b23c903137bab7321760511b60448201526064016108ef565b6001600160a01b03811661179a5760405162461bcd60e51b815260206004820152601f60248201527f496e76697465722063616e6e6f74206265207a65726f20616464726573732e0060448201526064016108ef565b6004546001600160a01b0382811691161461183c576001600160a01b038181165f9081526006602052604090205416158015906117f057506001600160a01b0381165f9081526006602052604090206004015415155b61183c5760405162461bcd60e51b815260206004820152601b60248201527f496e7669746572206d75737420626520726567697374657265642e000000000060448201526064016108ef565b335f90815260066020526040902080546001600160a01b0319166001600160a01b0392909216919091179055565b6001600160a01b0381165f9081526006602052604081206004810154825b8181101561088c575f8360040182815481106118a6576118a661334f565b5f918252602080832090910154808352600590915260409091206003015490915060ff166118e4576118d7816107be565b6118e190866132fa565b94505b50600101611888565b6118f5612653565b6001600160a01b03821661193a5760405162461bcd60e51b815260206004820152600c60248201526b5a65726f206164647265737360a01b60448201526064016108ef565b600180546001600160a01b039384166001600160a01b03199182161790915560048054929093169116179055565b5f61197161271e565b805490915060ff600160401b820416159067ffffffffffffffff165f811580156119985750825b90505f8267ffffffffffffffff1660011480156119b45750303b155b9050811580156119c2575080155b156119e05760405163f92ee8a960e01b815260040160405180910390fd5b845467ffffffffffffffff191660011785558315611a0a57845460ff60401b1916600160401b1785555b611a1333612746565b611a1b61274e565b600180546001600160a01b03808b166001600160a01b031992831617909255600280548a841690831617905560048054928916929091169190911790555f6003558315611aa257845460ff60401b19168555604051600181527fc7f505b2f371ae2175ee4913f4499e1f2633a7b5936321eed1cdaeb6115181d29060200160405180910390a15b5050505050505050565b611ab4612653565b6001600160a01b038116611add57604051631e4fbdf760e01b81525f60048201526024016108ef565b610979816126ae565b60025f5403611b0857604051633ee5aeb560e01b815260040160405180910390fd5b60025f55565b604080516001600160a01b0385811660248301528481166044830152606480830185905283518084039091018152608490920183526020820180516001600160e01b03166323b872dd60e01b17905291515f92839290881691611b7191906133a4565b5f604051808303815f865af19150503d805f8114611baa576040519150601f19603f3d011682016040523d82523d5f602084013e611baf565b606091505b5091509150818015611bd9575080511580611bd9575080806020019051810190611bd99190613363565b611c315760405162461bcd60e51b8152602060048201526024808201527f5472616e7366657248656c7065723a205452414e534645525f46524f4d5f46416044820152631253115160e21b60648201526084016108ef565b505050505050565b6040805160a0810182526103e881526101f4602082015260fa91810191909152607d606082015261027160808201528290612710835f5b6005811015611dd6576001600160a01b038086165f908152600660205260409020541680611c9e5750611dd6565b611ca98260016132fa565b6001600160a01b0382165f9081526006602052604090206005015410611dcc575f84868460058110611cdd57611cdd61334f565b6020020151611cec90866132c4565b611cf691906132db565b6001600160a01b0383165f90815260066020526040812060010180549293508392909190611d259084906132fa565b90915550506001600160a01b038281165f908152600660208181526040808420815160a0810183528f871681528084018f81529281019788524260608201908152608082018781529290950180546001808201835591885294909620905160059094020180546001600160a01b031916939096169290921785555192840192909255925160028301559151600382015590516004909101805460ff19169115159190911790555b9450600101611c70565b505f82611de48360646132c4565b611dee91906132db565b90505f611dfc6005836132db565b9050611e06612e86565b8896505f5b6001600160a01b038816156120ad576001600160a01b038089165f908152600660205260409020541680611e3f57506120ad565b6001600160a01b0381165f9081526006602052604081206003015460ff1690816005811115611e7057611e70612eea565b14612096575f6001826005811115611e8a57611e8a612eea565b611e94919061330d565b9050600581108015611eba5750848160058110611eb357611eb361334f565b6020020151155b15612094575f805b828111611f2e57868160058110611edb57611edb61334f565b6020020151611f1c57611eee88836132fa565b91506001878260058110611f0457611f0461334f565b9115156020909202015285611f1881613320565b9650505b80611f2681613320565b915050611ec2565b508015612092576001600160a01b0384165f9081526006602052604081206001018054839290611f5f9084906132fa565b90915550506040805160a0810182525f808252602082018190529181018290526060810182905260808101919091528e815f01906001600160a01b031690816001600160a01b0316815250508d8160200181815250508181604001818152505042816060018181525050600181608001901515908115158152505060065f866001600160a01b03166001600160a01b031681526020019081526020015f2060060181908060018154018082558091505060019003905f5260205f2090600502015f909190919091505f820151815f015f6101000a8154816001600160a01b0302191690836001600160a01b031602179055506020820151816001015560408201518160020155606082015181600301556080820151816004015f6101000a81548160ff0219169083151502179055505050505b505b505b600583106120a55750506120ad565b509750611e0b565b50505050505050505050565b5f6120c382610ba7565b9050825b6001600160a01b038116156121dd576001600160a01b038082165f9081526006602052604090205416806120fb57506121dd565b6001600160a01b0381165f90815260066020526040812060020180548592906121259084906132fa565b90915550506001600160a01b0381165f9081526006602052604081206002015461214e90612756565b6001600160a01b0383165f9081526006602052604090206003015490915060ff16600581111561218057612180612eea565b81600581111561219257612192612eea565b11156121d5576001600160a01b0382165f908152600660205260409020600301805482919060ff191660018360058111156121cf576121cf612eea565b02179055505b5090506120c7565b50505050565b5f5f5f6121f085856127e0565b5090505f5f6122008888886128d6565b6001600160a01b0316630902f1ac6040518163ffffffff1660e01b8152600401606060405180830381865afa15801561223b573d5f5f3e3d5ffd5b505050506040513d601f19601f8201168201806040525081019061225f91906133d0565b506001600160701b031691506001600160701b03169150826001600160a01b0316876001600160a01b031614612296578082612299565b81815b90999098509650505050505050565b5f5f84116123065760405162461bcd60e51b815260206004820152602560248201527f556e697377617056324c6962726172793a20494e53554646494349454e545f416044820152641353d5539560da1b60648201526084016108ef565b5f8311801561231457505f82115b6123715760405162461bcd60e51b815260206004820152602860248201527f556e697377617056324c6962726172793a20494e53554646494349454e545f4c604482015267495155494449545960c01b60648201526084016108ef565b8261237c85846129ac565b610bfc91906132db565b306001600160a01b037f000000000000000000000000000000000000000000000000000000000000000016148061240c57507f00000000000000000000000000000000000000000000000000000000000000006001600160a01b03166124005f5160206134415f395f51905f52546001600160a01b031690565b6001600160a01b031614155b156115085760405163703e46dd60e11b815260040160405180910390fd5b610979612653565b816001600160a01b03166352d1902d6040518163ffffffff1660e01b8152600401602060405180830381865afa92505050801561248c575060408051601f3d908101601f1916820190925261248991810190613338565b60015b6124b457604051634c9c8ce360e01b81526001600160a01b03831660048201526024016108ef565b5f5160206134415f395f51905f5281146124e457604051632a87526960e21b8152600481018290526024016108ef565b610ba28383612a12565b5f5f5f83428110156125425760405162461bcd60e51b815260206004820152601860248201527f556e69737761705632526f757465723a2045585049524544000000000000000060448201526064016108ef565b6125508c8c8c8c8c8c612a67565b90945092505f61257573ca143ce32fe78f1f7019d7d551a6402fc5350c738e8e6128d6565b90506125838d338388611b0e565b61258f8c338387611b0e565b6040516335313c2160e11b81526001600160a01b038881166004830152821690636a627842906024016020604051808303815f875af11580156125d4573d5f5f3e3d5ffd5b505050506040513d601f19601f820116820180604052508101906125f89190613338565b92505050985098509895505050505050565b306001600160a01b037f000000000000000000000000000000000000000000000000000000000000000016146115085760405163703e46dd60e11b815260040160405180910390fd5b336126857f9016d09d72d40fdae2fd8ceac6b6234c7706214fd39c1cd1e609a0528c199300546001600160a01b031690565b6001600160a01b0316146115085760405163118cdaa760e01b81523360048201526024016108ef565b7f9016d09d72d40fdae2fd8ceac6b6234c7706214fd39c1cd1e609a0528c19930080546001600160a01b031981166001600160a01b03848116918217845560405192169182907f8be0079c531659141344cd1fd0a4f28419497f9722a3daafe3b4186f6b6457e0905f90a3505050565b5f807ff0c57e16840df040f15088dc2f81fe391c3923bec73e23a9662efc9c229c6a00610c70565b611ab4612cd5565b611508612cd5565b5f69d3c21bcecceda1000000821061277057506005919050565b6969e10de76676d0800000821061278957506004919050565b692a5a058fc295ed00000082106127a257506003919050565b690a968163f0a57b40000082106127bb57506002919050565b69021e19e0c9bab240000082106127d457506001919050565b505f919050565b919050565b5f5f826001600160a01b0316846001600160a01b0316036128515760405162461bcd60e51b815260206004820152602560248201527f556e697377617056324c6962726172793a204944454e544943414c5f41444452604482015264455353455360d81b60648201526084016108ef565b826001600160a01b0316846001600160a01b031610612871578284612874565b83835b90925090506001600160a01b0382166128cf5760405162461bcd60e51b815260206004820152601e60248201527f556e697377617056324c6962726172793a205a45524f5f41444452455353000060448201526064016108ef565b9250929050565b5f5f5f6128e385856127e0565b6040516bffffffffffffffffffffffff19606084811b8216602084015283901b166034820152919350915086906048016040516020818303038152906040528051906020012060405160200161298a9291906001600160f81b0319815260609290921b6bffffffffffffffffffffffff1916600183015260158201527efb7f630766e6a796048ea87d01acd3068e8ff67d078148a3fa3f4a84f69bd5603582015260550190565b60408051601f1981840301815291905280516020909101209695505050505050565b5f8115806129cf575082826129c181836132c4565b92506129cd90836132db565b145b610c705760405162461bcd60e51b815260206004820152601460248201527364732d6d6174682d6d756c2d6f766572666c6f7760601b60448201526064016108ef565b612a1b82612cfa565b6040516001600160a01b038316907fbc7cd75a20ee27fd9adebab32041f755214dbc6bffa90cc0225b39da2e5c2d3b905f90a2805115612a5f57610ba28282612d5d565b6110c1612dc6565b60405163e6a4390560e01b81526001600160a01b038088166004830152861660248201525f908190819073ca143ce32fe78f1f7019d7d551a6402fc5350c739063e6a4390590604401602060405180830381865afa158015612acb573d5f5f3e3d5ffd5b505050506040513d601f19601f82011682018060405250810190612aef9190613411565b6001600160a01b031603612b82576040516364e329cb60e11b81526001600160a01b03808a1660048301528816602482015273ca143ce32fe78f1f7019d7d551a6402fc5350c739063c9c65396906044016020604051808303815f875af1158015612b5c573d5f5f3e3d5ffd5b505050506040513d601f19601f82011682018060405250810190612b809190613411565b505b5f5f612ba373ca143ce32fe78f1f7019d7d551a6402fc5350c738b8b6121e3565b91509150815f148015612bb4575080155b15612bc457879350869250612cc8565b5f612bd08984846122a8565b9050878111612c435785811015612c385760405162461bcd60e51b815260206004820152602660248201527f556e69737761705632526f757465723a20494e53554646494349454e545f425f604482015265105353d5539560d21b60648201526084016108ef565b889450925082612cc6565b5f612c4f8984866122a8565b905089811115612c6157612c6161342c565b87811015612cc05760405162461bcd60e51b815260206004820152602660248201527f556e69737761705632526f757465723a20494e53554646494349454e545f415f604482015265105353d5539560d21b60648201526084016108ef565b94508793505b505b5050965096945050505050565b612cdd612de5565b61150857604051631afcd79f60e31b815260040160405180910390fd5b806001600160a01b03163b5f03612d2f57604051634c9c8ce360e01b81526001600160a01b03821660048201526024016108ef565b5f5160206134415f395f51905f5280546001600160a01b0319166001600160a01b0392909216919091179055565b60605f5f846001600160a01b031684604051612d7991906133a4565b5f60405180830381855af49150503d805f8114612db1576040519150601f19603f3d011682016040523d82523d5f602084013e612db6565b606091505b5091509150610883858383612dfe565b34156115085760405163b398979f60e01b815260040160405180910390fd5b5f612dee61271e565b54600160401b900460ff16919050565b606082612e1357612e0e82612e5d565b612e56565b8151158015612e2a57506001600160a01b0384163b155b15612e5357604051639996b31560e01b81526001600160a01b03851660048201526024016108ef565b50805b9392505050565b805115612e6d5780518082602001fd5b60405163d6bda27560e01b815260040160405180910390fd5b6040518060a001604052806005906020820280368337509192915050565b5f60208284031215612eb4575f5ffd5b5035919050565b6001600160a01b0381168114610979575f5ffd5b5f60208284031215612edf575f5ffd5b8135612e5681612ebb565b634e487b7160e01b5f52602160045260245ffd5b60068110612f1a57634e487b7160e01b5f52602160045260245ffd5b9052565b6001600160a01b03851681526020810184905260408101839052608081016108836060830184612efe565b5f8151808452602084019350602083015f5b82811015612f79578151865260209586019590910190600101612f5b565b5093949350505050565b602081525f612e566020830184612f49565b634e487b7160e01b5f52604160045260245ffd5b5f5f60408385031215612fba575f5ffd5b8235612fc581612ebb565b9150602083013567ffffffffffffffff811115612fe0575f5ffd5b8301601f81018513612ff0575f5ffd5b803567ffffffffffffffff81111561300a5761300a612f95565b604051601f8201601f19908116603f0116810167ffffffffffffffff8111828210171561303957613039612f95565b604052818152828201602001871015613050575f5ffd5b816020840160208301375f602083830101528093505050509250929050565b602080825282518282018190525f918401906040840190835b818110156130d457835180516001600160a01b03168452602080820151818601526040808301519086015260609182015115159185019190915290930192608090920191600101613088565b509095945050505050565b5f8151808452602084019350602083015f5b82811015612f7957815180516001600160a01b0316875260208082015181890152604080830151908901526060808301519089015260809182015115159188019190915260a090960195909101906001016130f1565b6001600160a01b0389168152602081018890526040810187905261316e6060820187612efe565b61010060808201525f613185610100830187612f49565b82810360a08401526131978187612f49565b83810360c0850152855180825260208088019350909101905f5b818110156131d85783516001600160a01b03168352602093840193909201916001016131b1565b505083810360e08501526131ec81866130df565b9c9b505050505050505050505050565b602081525f82518060208401528060208501604085015e5f604082850101526040601f19601f83011684010191505092915050565b5f5f60408385031215613242575f5ffd5b823561324d81612ebb565b9150602083013561325d81612ebb565b809150509250929050565b5f5f5f6060848603121561327a575f5ffd5b833561328581612ebb565b9250602084013561329581612ebb565b915060408401356132a581612ebb565b809150509250925092565b634e487b7160e01b5f52601160045260245ffd5b8082028115828204841417610c7057610c706132b0565b5f826132f557634e487b7160e01b5f52601260045260245ffd5b500490565b80820180821115610c7057610c706132b0565b81810381811115610c7057610c706132b0565b5f60018201613331576133316132b0565b5060010190565b5f60208284031215613348575f5ffd5b5051919050565b634e487b7160e01b5f52603260045260245ffd5b5f60208284031215613373575f5ffd5b81518015158114612e56575f5ffd5b5f5f60408385031215613393575f5ffd5b505080516020909101519092909150565b5f82518060208501845e5f920191825250919050565b80516001600160701b03811681146127db575f5ffd5b5f5f5f606084860312156133e2575f5ffd5b6133eb846133ba565b92506133f9602085016133ba565b9150604084015163ffffffff811681146132a5575f5ffd5b5f60208284031215613421575f5ffd5b8151612e5681612ebb565b634e487b7160e01b5f52600160045260245ffdfe360894a13ba1a3210667c828492db98dca3e2076cc3735a920a3ca505d382bbca2646970667358221220c697d8a16bb42129bd5951b1e6bea463597931383ee58619c6a89c726afd9e8864736f6c634300081c0033","linkReferences":{}},"methodIdentifiers":{"BASE()":"ec342ad0","DEAD()":"03fd2a45","REWARD_RATE()":"5997bb37","STAKE_PERIOD()":"dd4b1823","UPGRADE_INTERFACE_VERSION()":"ad3cb1cc","USDT()":"c54e44eb","addLiquidity(uint256)":"51c6590a","bindInviter(address)":"a14a9f8f","claimAward(uint256)":"08254f51","claimOrder(uint256)":"3a3f8239","getOrderCountdown(uint256)":"55a1883a","getOrderRealTimeYield(uint256)":"02318e53","getQuoteAmount(uint256)":"2a75d5f4","getStakingOrders()":"5655f4db","getUserInfo(address)":"6386c1c7","getUserRealTimeYield(address)":"abf194a0","getUserValidStakingAmount(address)":"666b0dab","getUserValidStakingAmountForUsdt(address)":"70a8302a","getValidOrderIndexes(address)":"3fd004d7","index()":"2986c0e5","initialInviter()":"4e377201","initialize(address,address,address)":"c0c53b8b","lp()":"313c06a0","owner()":"8da5cb5b","proxiableUUID()":"52d1902d","removeLiquidity(uint256)":"9c8f9f23","renounceOwnership()":"715018a6","serchLiquidityBalance(address)":"36b4733d","setConfig(address,address)":"b602024b","staking(uint256)":"1dbb2a22","stakingOrderInfo(uint256)":"bb8498cf","stakingOrders(uint256)":"789574d4","token()":"fc0c546a","transferOwnership(address)":"f2fde38b","uniswapV2Factory()":"59d0f713","uniswapV2Router()":"1694505e","upgradeToAndCall(address,bytes)":"4f1ef286","userInfo(address)":"1959a002"},"id":41}