{"abi":[{"type":"function","name":"BASE","inputs":[],"outputs":[{"name":"","type":"uint256","internalType":"uint256"}],"stateMutability":"view"},{"type":"function","name":"DEAD","inputs":[],"outputs":[{"name":"","type":"address","internalType":"address"}],"stateMutability":"view"},{"type":"function","name":"REWARD_RATE","inputs":[],"outputs":[{"name":"","type":"uint256","internalType":"uint256"}],"stateMutability":"view"},{"type":"function","name":"STAKE_PERIOD","inputs":[],"outputs":[{"name":"","type":"uint256","internalType":"uint256"}],"stateMutability":"view"},{"type":"function","name":"UPGRADE_INTERFACE_VERSION","inputs":[],"outputs":[{"name":"","type":"string","internalType":"string"}],"stateMutability":"view"},{"type":"function","name":"USDT","inputs":[],"outputs":[{"name":"","type":"address","internalType":"address"}],"stateMutability":"view"},{"type":"function","name":"addLiquidity","inputs":[{"name":"amountToken","type":"uint256","internalType":"uint256"}],"outputs":[{"name":"_amountToken","type":"uint256","internalType":"uint256"},{"name":"_amountUsdt","type":"uint256","internalType":"uint256"},{"name":"_liquidityAmount","type":"uint256","internalType":"uint256"}],"stateMutability":"nonpayable"},{"type":"function","name":"bindInviter","inputs":[{"name":"inviter","type":"address","internalType":"address"}],"outputs":[],"stateMutability":"nonpayable"},{"type":"function","name":"claimAward","inputs":[{"name":"amount","type":"uint256","internalType":"uint256"}],"outputs":[],"stateMutability":"nonpayable"},{"type":"function","name":"claimOrder","inputs":[{"name":"orderIndex","type":"uint256","internalType":"uint256"}],"outputs":[],"stateMutability":"nonpayable"},{"type":"function","name":"getAmountOut","inputs":[{"name":"token0","type":"address","internalType":"address"},{"name":"token1","type":"address","internalType":"address"},{"name":"token0Amount","type":"uint256","internalType":"uint256"}],"outputs":[{"name":"","type":"uint256","internalType":"uint256"}],"stateMutability":"view"},{"type":"function","name":"getOrderCountdown","inputs":[{"name":"orderIndex","type":"uint256","internalType":"uint256"}],"outputs":[{"name":"","type":"uint256","internalType":"uint256"}],"stateMutability":"view"},{"type":"function","name":"getOrderRealTimeYield","inputs":[{"name":"orderIndex","type":"uint256","internalType":"uint256"}],"outputs":[{"name":"","type":"uint256","internalType":"uint256"}],"stateMutability":"view"},{"type":"function","name":"getUserInfo","inputs":[{"name":"_user","type":"address","internalType":"address"}],"outputs":[{"name":"_inviter","type":"address","internalType":"address"},{"name":"_award","type":"uint256","internalType":"uint256"},{"name":"_usdtValue","type":"uint256","internalType":"uint256"},{"name":"_level","type":"uint8","internalType":"enum IMining.Level"},{"name":"_validOrderIndexes","type":"uint256[]","internalType":"uint256[]"},{"name":"_orderIndexes","type":"uint256[]","internalType":"uint256[]"},{"name":"_invitees","type":"address[]","internalType":"address[]"},{"name":"_awardRecords","type":"tuple[]","internalType":"struct IMining.AwardRecord[]","components":[{"name":"invitee","type":"address","internalType":"address"},{"name":"stakingAmount","type":"uint256","internalType":"uint256"},{"name":"awardAmount","type":"uint256","internalType":"uint256"},{"name":"awardTime","type":"uint256","internalType":"uint256"},{"name":"isLevelAward","type":"bool","internalType":"bool"}]}],"stateMutability":"view"},{"type":"function","name":"getUserRealTimeYield","inputs":[{"name":"userAddr","type":"address","internalType":"address"}],"outputs":[{"name":"total","type":"uint256","internalType":"uint256"}],"stateMutability":"view"},{"type":"function","name":"getUserValidStakingAmount","inputs":[{"name":"userAddr","type":"address","internalType":"address"}],"outputs":[{"name":"totalAmount","type":"uint256","internalType":"uint256"}],"stateMutability":"view"},{"type":"function","name":"getUserValidStakingAmountForUsdt","inputs":[{"name":"userAddr","type":"address","internalType":"address"}],"outputs":[{"name":"totalUsdt","type":"uint256","internalType":"uint256"}],"stateMutability":"view"},{"type":"function","name":"getValidOrderIndexes","inputs":[{"name":"_user","type":"address","internalType":"address"}],"outputs":[{"name":"","type":"uint256[]","internalType":"uint256[]"}],"stateMutability":"view"},{"type":"function","name":"index","inputs":[],"outputs":[{"name":"","type":"uint256","internalType":"uint256"}],"stateMutability":"view"},{"type":"function","name":"initialize","inputs":[{"name":"_token","type":"address","internalType":"address"},{"name":"_lp","type":"address","internalType":"address"}],"outputs":[],"stateMutability":"nonpayable"},{"type":"function","name":"liquidityAmount","inputs":[{"name":"","type":"address","internalType":"address"}],"outputs":[{"name":"","type":"uint256","internalType":"uint256"}],"stateMutability":"view"},{"type":"function","name":"lp","inputs":[],"outputs":[{"name":"","type":"address","internalType":"address"}],"stateMutability":"view"},{"type":"function","name":"owner","inputs":[],"outputs":[{"name":"","type":"address","internalType":"address"}],"stateMutability":"view"},{"type":"function","name":"proxiableUUID","inputs":[],"outputs":[{"name":"","type":"bytes32","internalType":"bytes32"}],"stateMutability":"view"},{"type":"function","name":"raisefunds","inputs":[{"name":"amountUsdt","type":"uint256","internalType":"uint256"}],"outputs":[],"stateMutability":"nonpayable"},{"type":"function","name":"removeLiquidity","inputs":[{"name":"_liquidity","type":"uint256","internalType":"uint256"}],"outputs":[],"stateMutability":"nonpayable"},{"type":"function","name":"removeLiquidityOfRaiseFunds","inputs":[],"outputs":[],"stateMutability":"nonpayable"},{"type":"function","name":"renounceOwnership","inputs":[],"outputs":[],"stateMutability":"nonpayable"},{"type":"function","name":"setConfig","inputs":[{"name":"_token","type":"address","internalType":"address"},{"name":"_lp","type":"address","internalType":"address"}],"outputs":[],"stateMutability":"nonpayable"},{"type":"function","name":"staking","inputs":[{"name":"amountToken","type":"uint256","internalType":"uint256"}],"outputs":[],"stateMutability":"nonpayable"},{"type":"function","name":"stakingOrderInfo","inputs":[{"name":"","type":"uint256","internalType":"uint256"}],"outputs":[{"name":"holder","type":"address","internalType":"address"},{"name":"amount","type":"uint256","internalType":"uint256"},{"name":"stakingTime","type":"uint256","internalType":"uint256"},{"name":"isExtracted","type":"bool","internalType":"bool"}],"stateMutability":"view"},{"type":"function","name":"stakingOrders","inputs":[{"name":"","type":"uint256","internalType":"uint256"}],"outputs":[{"name":"holder","type":"address","internalType":"address"},{"name":"amount","type":"uint256","internalType":"uint256"},{"name":"stakingTime","type":"uint256","internalType":"uint256"},{"name":"isExtracted","type":"bool","internalType":"bool"}],"stateMutability":"view"},{"type":"function","name":"token","inputs":[],"outputs":[{"name":"","type":"address","internalType":"address"}],"stateMutability":"view"},{"type":"function","name":"transferOwnership","inputs":[{"name":"newOwner","type":"address","internalType":"address"}],"outputs":[],"stateMutability":"nonpayable"},{"type":"function","name":"uniswapV2Factory","inputs":[],"outputs":[{"name":"","type":"address","internalType":"address"}],"stateMutability":"view"},{"type":"function","name":"uniswapV2Router","inputs":[],"outputs":[{"name":"","type":"address","internalType":"address"}],"stateMutability":"view"},{"type":"function","name":"upgradeToAndCall","inputs":[{"name":"newImplementation","type":"address","internalType":"address"},{"name":"data","type":"bytes","internalType":"bytes"}],"outputs":[],"stateMutability":"payable"},{"type":"function","name":"userInfo","inputs":[{"name":"","type":"address","internalType":"address"}],"outputs":[{"name":"inviter","type":"address","internalType":"address"},{"name":"award","type":"uint256","internalType":"uint256"},{"name":"usdtValue","type":"uint256","internalType":"uint256"},{"name":"level","type":"uint8","internalType":"enum IMining.Level"}],"stateMutability":"view"},{"type":"event","name":"Initialized","inputs":[{"name":"version","type":"uint64","indexed":false,"internalType":"uint64"}],"anonymous":false},{"type":"event","name":"OwnershipTransferred","inputs":[{"name":"previousOwner","type":"address","indexed":true,"internalType":"address"},{"name":"newOwner","type":"address","indexed":true,"internalType":"address"}],"anonymous":false},{"type":"event","name":"Upgraded","inputs":[{"name":"implementation","type":"address","indexed":true,"internalType":"address"}],"anonymous":false},{"type":"error","name":"AddressEmptyCode","inputs":[{"name":"target","type":"address","internalType":"address"}]},{"type":"error","name":"ERC1967InvalidImplementation","inputs":[{"name":"implementation","type":"address","internalType":"address"}]},{"type":"error","name":"ERC1967NonPayable","inputs":[]},{"type":"error","name":"FailedCall","inputs":[]},{"type":"error","name":"InvalidInitialization","inputs":[]},{"type":"error","name":"NotInitializing","inputs":[]},{"type":"error","name":"OwnableInvalidOwner","inputs":[{"name":"owner","type":"address","internalType":"address"}]},{"type":"error","name":"OwnableUnauthorizedAccount","inputs":[{"name":"account","type":"address","internalType":"address"}]},{"type":"error","name":"ReentrancyGuardReentrantCall","inputs":[]},{"type":"error","name":"UUPSUnauthorizedCallContext","inputs":[]},{"type":"error","name":"UUPSUnsupportedProxiableUUID","inputs":[{"name":"slot","type":"bytes32","internalType":"bytes32"}]}],"bytecode":{"object":"0x60a0604052306080523480156012575f5ffd5b5060015f55608051613ccb61003d5f395f8181611f5301528181611f7c01526121d70152613ccb5ff3fe60806040526004361061021d575f3560e01c806362d284b21161011e578063a14a9f8f116100a8578063c54e44eb1161006d578063c54e44eb14610726578063dd4b182314610746578063ec342ad01461075c578063f2fde38b14610771578063fc0c546a14610790575f5ffd5b8063a14a9f8f1461063f578063abf194a01461065e578063ad3cb1cc1461067d578063b602024b146106ba578063bb8498cf146106d9575f5ffd5b8063715018a6116100ee578063715018a614610566578063789574d41461057a57806380565655146105c55780638da5cb5b146105e45780639c8f9f2314610620575f5ffd5b806362d284b2146104e15780636386c1c7146104f5578063666b0dab1461052857806370a8302a14610547575f5ffd5b80633a3f8239116101aa57806351c6590a1161016f57806351c6590a1461043857806352d1902d1461047257806355a1883a146104865780635997bb37146104a557806359d0f713146104ba575f5ffd5b80633a3f82391461039c5780633fd004d7146103bb578063485cc955146103e75780634aa06652146104065780634f1ef28614610425575f5ffd5b80631959a002116101f05780631959a002146102c15780631dbb2a221461031e5780632986c0e51461033d578063313c06a01461035257806335e344f214610371575f5ffd5b806302318e531461022157806303fd2a451461025357806308254f51146102805780631694505e146102a1575b5f5ffd5b34801561022c575f5ffd5b5061024061023b36600461350a565b6107af565b6040519081526020015b60405180910390f35b34801561025e575f5ffd5b5061026861dead81565b6040516001600160a01b03909116815260200161024a565b34801561028b575f5ffd5b5061029f61029a36600461350a565b610885565b005b3480156102ac575f5ffd5b506102685f516020613c365f395f51905f5281565b3480156102cc575f5ffd5b5061030e6102db366004613535565b60056020525f908152604090208054600182015460028301546003909301546001600160a01b0390921692909160ff1684565b60405161024a9493929190613584565b348015610329575f5ffd5b5061029f61033836600461350a565b61096d565b348015610348575f5ffd5b5061024060035481565b34801561035d575f5ffd5b50600254610268906001600160a01b031681565b34801561037c575f5ffd5b5061024061038b366004613535565b60076020525f908152604090205481565b3480156103a7575f5ffd5b5061029f6103b636600461350a565b610b37565b3480156103c6575f5ffd5b506103da6103d5366004613535565b610c69565b60405161024a91906135e9565b3480156103f2575f5ffd5b5061029f6104013660046135fb565b610f65565b348015610411575f5ffd5b50610240610420366004613632565b61109b565b61029f6104333660046136b5565b6111bc565b348015610443575f5ffd5b5061045761045236600461350a565b6111db565b6040805193845260208401929092529082015260600161024a565b34801561047d575f5ffd5b50610240611241565b348015610491575f5ffd5b506102406104a036600461350a565b61125c565b3480156104b0575f5ffd5b50610240610bb881565b3480156104c5575f5ffd5b5061026873ca143ce32fe78f1f7019d7d551a6402fc5350c7381565b3480156104ec575f5ffd5b5061029f6112ed565b348015610500575f5ffd5b5061051461050f366004613535565b611396565b60405161024a989796959493929190613795565b348015610533575f5ffd5b50610240610542366004613535565b6115b2565b348015610552575f5ffd5b50610240610561366004613535565b61163d565b348015610571575f5ffd5b5061029f61166c565b348015610585575f5ffd5b5061059961059436600461350a565b61167f565b604080516001600160a01b0390951685526020850193909352918301521515606082015260800161024a565b3480156105d0575f5ffd5b5061029f6105df36600461350a565b6116c4565b3480156105ef575f5ffd5b507f9016d09d72d40fdae2fd8ceac6b6234c7706214fd39c1cd1e609a0528c199300546001600160a01b0316610268565b34801561062b575f5ffd5b5061029f61063a36600461350a565b611981565b34801561064a575f5ffd5b5061029f610659366004613535565b611aae565b348015610669575f5ffd5b50610240610678366004613535565b611b8a565b348015610688575f5ffd5b506106ad604051806040016040528060058152602001640352e302e360dc1b81525081565b60405161024a919061387b565b3480156106c5575f5ffd5b5061029f6106d43660046135fb565b611c0d565b3480156106e4575f5ffd5b506105996106f336600461350a565b60046020525f908152604090208054600182015460028301546003909301546001600160a01b0390921692909160ff1684565b348015610731575f5ffd5b506102685f516020613c765f395f51905f5281565b348015610751575f5ffd5b5061024062278d0081565b348015610767575f5ffd5b5061024061271081565b34801561077c575f5ffd5b5061029f61078b366004613535565b611c88565b34801561079b575f5ffd5b50600154610268906001600160a01b031681565b5f818152600460209081526040808320815160808101835281546001600160a01b0316815260018201549381018490526002820154928101929092526003015460ff16151560608201529082906127109061080d90610bb8906138c4565b61081791906138db565b826020015161082691906138fa565b90505f8260400151421161083a575f610849565b6040830151610849904261390d565b905062278d00811061085d57509392505050565b61086a62278d00836138db565b61087490826138c4565b95945050505050565b505050919050565b61088d611cc2565b335f90815260056020526040902060018101548211156108e95760405162461bcd60e51b815260206004820152601260248201527127379030bbb0b932103a379031b630b4b69760711b60448201526064015b60405180910390fd5b81816001015f8282546108fc919061390d565b90915550506001546040516340c10f1960e01b8152336004820152602481018490526001600160a01b03909116906340c10f19906044015f604051808303815f87803b15801561094a575f5ffd5b505af115801561095c573d5f5f3e3d5ffd5b505050505061096a60015f55565b50565b335f8181526005602052604090206001549091610997916001600160a01b03169061dead85611cea565b60408051608081018252338082526020808301868152428486019081525f606086018181526006805460018181018355918452885160049182027ff652222313e28459528d920b65115c16c04f3efc82aaedc97be59f3f377c0d3f810180546001600160a01b039384166001600160a01b03199182161790915588517ff652222313e28459528d920b65115c16c04f3efc82aaedc97be59f3f377c0d4083015587517ff652222313e28459528d920b65115c16c04f3efc82aaedc97be59f3f377c0d4183015585517ff652222313e28459528d920b65115c16c04f3efc82aaedc97be59f3f377c0d42909201805492151560ff19938416179055600380548852848b528d88208d51815490861690841617815599518a870155975160028a01559451978701805498151598909116979097179096558454908b01805480840182559085528785200155895490941682526005808652978220909701805493840181558152928320909101805490951690921790935580549192610b1983613920565b9190505550610b283384611e15565b610b323384611e29565b505050565b610b3f611cc2565b5f81815260046020526040902080546001600160a01b03163314610b9c5760405162461bcd60e51b81526020600482015260146024820152732737ba103a34329037b93232b91037bbb732b91760611b60448201526064016108e0565b600381015460ff1615610be45760405162461bcd60e51b815260206004820152601060248201526f20b63932b0b23c9031b630b4b6b2b21760811b60448201526064016108e0565b5f610bee836107af565b60038301805460ff19166001908117909155546040516340c10f1960e01b8152336004820152602481018390529192506001600160a01b0316906340c10f19906044015f604051808303815f87803b158015610c48575f5ffd5b505af1158015610c5a573d5f5f3e3d5ffd5b50505050505061096a60015f55565b6001600160a01b038082165f908152600560208181526040808420815160e081018352815490961686526001810154928601929092526002820154908501526003810154606094928386019160ff1690811115610cc857610cc8613550565b6005811115610cd957610cd9613550565b815260200160048201805480602002602001604051908101604052809291908181526020018280548015610d2a57602002820191905f5260205f20905b815481526020019060010190808311610d16575b5050505050815260200160058201805480602002602001604051908101604052809291908181526020018280548015610d8a57602002820191905f5260205f20905b81546001600160a01b03168152600190910190602001808311610d6c575b5050505050815260200160068201805480602002602001604051908101604052809291908181526020015f905b82821015610e22575f8481526020908190206040805160a0810182526005860290920180546001600160a01b0316835260018082015484860152600282015492840192909252600381015460608401526004015460ff16151560808301529083529092019101610db7565b505050915250506080810151519091505f805b82811015610e93575f84608001518281518110610e5457610e54613938565b6020908102919091018101515f818152600490925260409091206003015490915060ff16610e8a5782610e8681613920565b9350505b50600101610e35565b505f8167ffffffffffffffff811115610eae57610eae613670565b604051908082528060200260200182016040528015610ed7578160200160208202803683370190505b5090505f805b84811015610f59575f86608001518281518110610efc57610efc613938565b6020908102919091018101515f818152600490925260409091206003015490915060ff16610f505780848481518110610f3757610f37613938565b602090810291909101015282610f4c81613920565b9350505b50600101610edd565b50909695505050505050565b5f610f6e611f10565b805490915060ff600160401b820416159067ffffffffffffffff165f81158015610f955750825b90505f8267ffffffffffffffff166001148015610fb15750303b155b905081158015610fbf575080155b15610fdd5760405163f92ee8a960e01b815260040160405180910390fd5b845467ffffffffffffffff19166001178555831561100757845460ff60401b1916600160401b1785555b61101033611f38565b611018611f40565b600180546001600160a01b03808a166001600160a01b03199283161790925560028054928916929091169190911790555f600355831561109257845460ff60401b19168555604051600181527fc7f505b2f371ae2175ee4913f4499e1f2633a7b5936321eed1cdaeb6115181d29060200160405180910390a15b50505050505050565b6040805160028082526060820183525f928392919060208301908036833701905050905084815f815181106110d2576110d2613938565b60200260200101906001600160a01b031690816001600160a01b031681525050838160018151811061110657611106613938565b6001600160a01b039092166020928302919091019091015260405163d06ca61f60e01b81525f905f516020613c365f395f51905f529063d06ca61f90611152908790869060040161394c565b5f60405180830381865afa15801561116c573d5f5f3e3d5ffd5b505050506040513d5f823e601f3d908101601f191682016040526111939190810190613964565b9050806001815181106111a8576111a8613938565b6020026020010151925050505b9392505050565b6111c4611f48565b6111cd82611fec565b6111d78282611ff4565b5050565b6001545f90819081908190611207906001600160a01b03165f516020613c765f395f51905f528761109b565b600154909150611233906001600160a01b03165f516020613c765f395f51905f5287845f8033426120b0565b919790965090945092505050565b5f61124a6121cc565b505f516020613c565f395f51905f5290565b5f818152600460209081526040808320815160808101835281546001600160a01b0316815260018201549381019390935260028101549183018290526003015460ff1615156060830152829042116112b4575f6112c3565b60408201516112c3904261390d565b905062278d0081106112d857505f9392505050565b6112e58162278d0061390d565b949350505050565b335f90815260076020526040902054806113495760405162461bcd60e51b815260206004820152601760248201527f4e6f206c697175696469747920746f2072656d6f76652e00000000000000000060448201526064016108e0565b335f9081526007602052604081208190558061136483612215565b90925090508115611387576113875f516020613c765f395f51905f5233846122db565b8015610b3257610b32816123ea565b6001600160a01b038082165f908152600560208181526040808420815160e081018352815490961686526001810154928601929092526002820154908501526003810154929384938493849360609384938493849388939290918386019160ff169081111561140757611407613550565b600581111561141857611418613550565b81526020016004820180548060200260200160405190810160405280929190818152602001828054801561146957602002820191905f5260205f20905b815481526020019060010190808311611455575b50505050508152602001600582018054806020026020016040519081016040528092919081815260200182805480156114c957602002820191905f5260205f20905b81546001600160a01b031681526001909101906020018083116114ab575b5050505050815260200160068201805480602002602001604051908101604052809291908181526020015f905b82821015611561575f8481526020908190206040805160a0810182526005860290920180546001600160a01b0316835260018082015484860152600282015492840192909252600381015460608401526004015460ff161515608083015290835290920191016114f6565b50505050815250509050805f015198508060200151975080604001519650806060015195508060a0015192508060c001519150806080015193506115a48a610c69565b945050919395975091939597565b6001600160a01b0381165f9081526005602052604081206004810154825b8181101561087d575f8360040182815481106115ee576115ee613938565b5f918252602080832090910154808352600490915260409091206003015490915060ff16611634575f8181526004602052604090206001015461163190866138fa565b94505b506001016115d0565b6001545f90611666906001600160a01b03165f516020613c765f395f51905f52610420856115b2565b92915050565b611674612459565b61167d5f6124b4565b565b6006818154811061168e575f80fd5b5f91825260209091206004909102018054600182015460028301546003909301546001600160a01b039092169350919060ff1684565b6116dd5f516020613c765f395f51905f52333084611cea565b6001545f90611704905f516020613c765f395f51905f52906001600160a01b03168461109b565b6001546040516340c10f1960e01b8152306004820152602481018390529192506001600160a01b0316906340c10f19906044015f604051808303815f87803b15801561174e575f5ffd5b505af1158015611760573d5f5f3e3d5ffd5b505060405163095ea7b360e01b81525f516020613c365f395f51905f526004820152602481018590525f516020613c765f395f51905f52925063095ea7b391506044016020604051808303815f875af11580156117bf573d5f5f3e3d5ffd5b505050506040513d601f19601f820116820180604052508101906117e39190613a10565b5060015460405163095ea7b360e01b81525f516020613c365f395f51905f526004820152602481018390526001600160a01b039091169063095ea7b3906044016020604051808303815f875af115801561183f573d5f5f3e3d5ffd5b505050506040513d601f19601f820116820180604052508101906118639190613a10565b5060015460405162e8e33760e81b81525f91829182915f516020613c365f395f51905f529163e8e33700916118c1916001600160a01b03909116905f516020613c765f395f51905f529089908b908890819030904290600401613a2f565b6060604051808303815f875af11580156118dd573d5f5f3e3d5ffd5b505050506040513d601f19601f820116820180604052508101906119019190613a78565b335f908152600760205260408120805494975092955090935083926119279084906138fa565b909155505081851115611955576119555f516020613c765f395f51905f5233611950858961390d565b6122db565b8284111561197a5760015461197a906001600160a01b031661dead611950868861390d565b5050505050565b600254611999906001600160a01b0316333084611cea565b60025460405163095ea7b360e01b81525f516020613c365f395f51905f526004820152602481018390526001600160a01b039091169063095ea7b3906044016020604051808303815f875af11580156119f4573d5f5f3e3d5ffd5b505050506040513d601f19601f82011682018060405250810190611a189190613a10565b50600154604051635d5155ef60e11b81525f516020613c365f395f51905f529163baa2abde91611a6f915f516020613c765f395f51905f52916001600160a01b039091169086905f90819033904290600401613aa3565b60408051808303815f875af1158015611a8a573d5f5f3e3d5ffd5b505050506040513d601f19601f82011682018060405250810190610b329190613ae3565b336001600160a01b03821603611b065760405162461bcd60e51b815260206004820181905260248201527f43616e6e6f742062696e6420796f757273656c6620617320696e76697465722e60448201526064016108e0565b6001600160a01b038116611b5c5760405162461bcd60e51b815260206004820152601f60248201527f496e76697465722063616e6e6f74206265207a65726f20616464726573732e0060448201526064016108e0565b335f90815260056020526040902080546001600160a01b0319166001600160a01b0392909216919091179055565b6001600160a01b0381165f9081526005602052604081206004810154825b8181101561087d575f836004018281548110611bc657611bc6613938565b5f918252602080832090910154808352600490915260409091206003015490915060ff16611c0457611bf7816107af565b611c0190866138fa565b94505b50600101611ba8565b611c15612459565b6001600160a01b038216611c5a5760405162461bcd60e51b815260206004820152600c60248201526b5a65726f206164647265737360a01b60448201526064016108e0565b600180546001600160a01b039384166001600160a01b03199182161790915560028054929093169116179055565b611c90612459565b6001600160a01b038116611cb957604051631e4fbdf760e01b81525f60048201526024016108e0565b61096a816124b4565b60025f5403611ce457604051633ee5aeb560e01b815260040160405180910390fd5b60025f55565b604080516001600160a01b0385811660248301528481166044830152606480830185905283518084039091018152608490920183526020820180516001600160e01b03166323b872dd60e01b17905291515f92839290881691611d4d9190613b05565b5f604051808303815f865af19150503d805f8114611d86576040519150601f19603f3d011682016040523d82523d5f602084013e611d8b565b606091505b5091509150818015611db5575080511580611db5575080806020019051810190611db59190613a10565b611e0d5760405162461bcd60e51b8152602060048201526024808201527f5472616e7366657248656c7065723a205452414e534645525f46524f4d5f46416044820152631253115160e21b60648201526084016108e0565b505050505050565b611e1f8282612524565b6111d7828261262c565b80825b6001600160a01b03811615611f0a576001600160a01b038082165f908152600560205260409020541680611e605750611f0a565b6001600160a01b0381165f9081526005602052604081206002810154909190611e8a9086906138fa565b6002830181905590505f611e9d826127c0565b600384015490915060ff166005811115611eb957611eb9613550565b60ff16816005811115611ece57611ece613550565b60ff161115611efe5760038301805482919060ff19166001836005811115611ef857611ef8613550565b02179055505b83945050505050611e2c565b50505050565b5f807ff0c57e16840df040f15088dc2f81fe391c3923bec73e23a9662efc9c229c6a00611666565b611c9061284a565b61167d61284a565b306001600160a01b037f0000000000000000000000000000000000000000000000000000000000000000161480611fce57507f00000000000000000000000000000000000000000000000000000000000000006001600160a01b0316611fc25f516020613c565f395f51905f52546001600160a01b031690565b6001600160a01b031614155b1561167d5760405163703e46dd60e11b815260040160405180910390fd5b61096a612459565b816001600160a01b03166352d1902d6040518163ffffffff1660e01b8152600401602060405180830381865afa92505050801561204e575060408051601f3d908101601f1916820190925261204b91810190613b1b565b60015b61207657604051634c9c8ce360e01b81526001600160a01b03831660048201526024016108e0565b5f516020613c565f395f51905f5281146120a657604051632a87526960e21b8152600481018290526024016108e0565b610b32838361286f565b5f5f5f83428110156121045760405162461bcd60e51b815260206004820152601860248201527f556e69737761705632526f757465723a2045585049524544000000000000000060448201526064016108e0565b6121128c8c8c8c8c8c6128c4565b90945092505f61213773ca143ce32fe78f1f7019d7d551a6402fc5350c738e8e612b32565b90506121458d338388611cea565b6121518c338387611cea565b6040516335313c2160e11b81526001600160a01b038881166004830152821690636a627842906024016020604051808303815f875af1158015612196573d5f5f3e3d5ffd5b505050506040513d601f19601f820116820180604052508101906121ba9190613b1b565b92505050985098509895505050505050565b306001600160a01b037f0000000000000000000000000000000000000000000000000000000000000000161461167d5760405163703e46dd60e11b815260040160405180910390fd5b6002545f90819061223d906001600160a01b03165f516020613c365f395f51905f5285612c08565b600154604051635d5155ef60e11b81525f516020613c365f395f51905f529163baa2abde91612293915f516020613c765f395f51905f52916001600160a01b039091169088905f90819030904290600401613aa3565b60408051808303815f875af11580156122ae573d5f5f3e3d5ffd5b505050506040513d601f19601f820116820180604052508101906122d29190613ae3565b91509150915091565b604080516001600160a01b038481166024830152604480830185905283518084039091018152606490920183526020820180516001600160e01b031663a9059cbb60e01b17905291515f928392908716916123369190613b05565b5f604051808303815f865af19150503d805f811461236f576040519150601f19603f3d011682016040523d82523d5f602084013e612374565b606091505b509150915081801561239e57508051158061239e57508080602001905181019061239e9190613a10565b61197a5760405162461bcd60e51b815260206004820152601f60248201527f5472616e7366657248656c7065723a205452414e534645525f4641494c45440060448201526064016108e0565b5f6123f66002836138db565b90505f612403828461390d565b60015490915061241f906001600160a01b031661dead846122db565b5f61242982612ce8565b905080156124405761243b8282612f00565b611f0a565b600154611f0a906001600160a01b031661dead846122db565b3361248b7f9016d09d72d40fdae2fd8ceac6b6234c7706214fd39c1cd1e609a0528c199300546001600160a01b031690565b6001600160a01b03161461167d5760405163118cdaa760e01b81523360048201526024016108e0565b7f9016d09d72d40fdae2fd8ceac6b6234c7706214fd39c1cd1e609a0528c19930080546001600160a01b031981166001600160a01b03848116918217845560405192169182907f8be0079c531659141344cd1fd0a4f28419497f9722a3daafe3b4186f6b6457e0905f90a3505050565b6040805160a081018252612710815261138860208201526109c4918101919091526104e2606082015261027160808201528290620186a05f805b6005811015611092576001600160a01b038086165f90815260056020526040902054168061258c5750611092565b6001600160a01b0381165f9081526005602052604090206125ae8360016138fa565b600582015410612621576125c182610c69565b5193508315612621575f858785600581106125de576125de613938565b60200201516125ed908b6138c4565b6125f791906138db565b905080826001015f82825461260c91906138fa565b9091555061261f9050838b8b845f612fe0565b505b50945060010161255e565b816127105f8161263d8560646138c4565b61264791906138db565b90505f6126556005836138db565b90505f805b6001600160a01b03861615801590612675575060058160ff16105b156127b6576001600160a01b038087165f90815260056020526040902054168061269f57506127b6565b6001600160a01b0381165f9081526005602052604081206003810154909160ff909116908160058111156126d5576126d5613550565b146127ab575f60018260058111156126ef576126ef613550565b6126f99190613b32565b905060058160ff1610801561271957508060ff166001901b8660ff16165f145b156127a9575f805b8260ff168160ff1611612779578060ff166001901b8860ff16165f0361276757600160ff82161b979097179661275789836138fa565b91508661276381613b4b565b9750505b8061277181613b4b565b915050612721565b5080156127a75780846001015f82825461279391906138fa565b909155506127a79050858e8e846001612fe0565b505b505b82985050505061265a565b5050505050505050565b5f69d3c21bcecceda100000082106127da57506005919050565b6969e10de76676d080000082106127f357506004919050565b692a5a058fc295ed000000821061280c57506003919050565b690a968163f0a57b400000821061282557506002919050565b69021e19e0c9bab2400000821061283e57506001919050565b505f919050565b919050565b612852613082565b61167d57604051631afcd79f60e31b815260040160405180910390fd5b6128788261309b565b6040516001600160a01b038316907fbc7cd75a20ee27fd9adebab32041f755214dbc6bffa90cc0225b39da2e5c2d3b905f90a28051156128bc57610b3282826130fe565b6111d7613167565b60405163e6a4390560e01b81526001600160a01b038088166004830152861660248201525f908190819073ca143ce32fe78f1f7019d7d551a6402fc5350c739063e6a4390590604401602060405180830381865afa158015612928573d5f5f3e3d5ffd5b505050506040513d601f19601f8201168201806040525081019061294c9190613b69565b6001600160a01b0316036129df576040516364e329cb60e11b81526001600160a01b03808a1660048301528816602482015273ca143ce32fe78f1f7019d7d551a6402fc5350c739063c9c65396906044016020604051808303815f875af11580156129b9573d5f5f3e3d5ffd5b505050506040513d601f19601f820116820180604052508101906129dd9190613b69565b505b5f5f612a0073ca143ce32fe78f1f7019d7d551a6402fc5350c738b8b613186565b91509150815f148015612a11575080155b15612a2157879350869250612b25565b5f612a2d89848461324b565b9050878111612aa05785811015612a955760405162461bcd60e51b815260206004820152602660248201527f556e69737761705632526f757465723a20494e53554646494349454e545f425f604482015265105353d5539560d21b60648201526084016108e0565b889450925082612b23565b5f612aac89848661324b565b905089811115612abe57612abe613b84565b87811015612b1d5760405162461bcd60e51b815260206004820152602660248201527f556e69737761705632526f757465723a20494e53554646494349454e545f415f604482015265105353d5539560d21b60648201526084016108e0565b94508793505b505b5050965096945050505050565b5f5f5f612b3f8585613329565b6040516bffffffffffffffffffffffff19606084811b8216602084015283901b1660348201529193509150869060480160405160208183030381529060405280519060200120604051602001612be69291906001600160f81b0319815260609290921b6bffffffffffffffffffffffff1916600183015260158201527efb7f630766e6a796048ea87d01acd3068e8ff67d078148a3fa3f4a84f69bd5603582015260550190565b60408051601f1981840301815291905280516020909101209695505050505050565b60405163095ea7b360e01b81526001600160a01b0383811660048301525f602483015284169063095ea7b3906044016020604051808303815f875af1158015612c53573d5f5f3e3d5ffd5b505050506040513d601f19601f82011682018060405250810190612c779190613a10565b5060405163095ea7b360e01b81526001600160a01b0383811660048301526024820183905284169063095ea7b3906044016020604051808303815f875af1158015612cc4573d5f5f3e3d5ffd5b505050506040513d601f19601f82011682018060405250810190611f0a9190613a10565b5f815f03612cf757505f919050565b600154612d1b906001600160a01b03165f516020613c365f395f51905f5284612c08565b6040805160028082526060820183525f92602083019080368337505060015482519293506001600160a01b0316918391505f90612d5a57612d5a613938565b60200260200101906001600160a01b031690816001600160a01b0316815250505f516020613c765f395f51905f5281600181518110612d9b57612d9b613938565b6001600160a01b0392909216602092830291909101909101526040516370a0823160e01b81523060048201525f905f516020613c765f395f51905f52906370a0823190602401602060405180830381865afa158015612dfc573d5f5f3e3d5ffd5b505050506040513d601f19601f82011682018060405250810190612e209190613b1b565b604051635c11d79560e01b81529091505f516020613c365f395f51905f5290635c11d79590612e5b9087905f90879030904290600401613b98565b5f604051808303815f87803b158015612e72575f5ffd5b505af1158015612e84573d5f5f3e3d5ffd5b50506040516370a0823160e01b81523060048201525f92505f516020613c765f395f51905f5291506370a0823190602401602060405180830381865afa158015612ed0573d5f5f3e3d5ffd5b505050506040513d601f19601f82011682018060405250810190612ef49190613b1b565b9050610874828261390d565b600154612f24906001600160a01b03165f516020613c365f395f51905f5284612c08565b612f495f516020613c765f395f51905f525f516020613c365f395f51905f5283612c08565b60015460405162e8e33760e81b81525f516020613c365f395f51905f529163e8e3370091612fa0916001600160a01b0316905f516020613c765f395f51905f5290879087905f90819061dead904290600401613a2f565b6060604051808303815f875af1158015612fbc573d5f5f3e3d5ffd5b505050506040513d601f19601f8201168201806040525081019061197a9190613a78565b6040805160a0810182526001600160a01b03958616815260208082019586528183019485524260608301908152931515608083019081529787165f90815260058083529381206006018054600180820183559183529290912092519190930290910180546001600160a01b0319169190961617855592519284019290925551600283015551600382015590516004909101805460ff1916911515919091179055565b5f61308b611f10565b54600160401b900460ff16919050565b806001600160a01b03163b5f036130d057604051634c9c8ce360e01b81526001600160a01b03821660048201526024016108e0565b5f516020613c565f395f51905f5280546001600160a01b0319166001600160a01b0392909216919091179055565b60605f5f846001600160a01b03168460405161311a9190613b05565b5f60405180830381855af49150503d805f8114613152576040519150601f19603f3d011682016040523d82523d5f602084013e613157565b606091505b509150915061087485838361341f565b341561167d5760405163b398979f60e01b815260040160405180910390fd5b5f5f5f6131938585613329565b5090505f5f6131a3888888612b32565b6001600160a01b0316630902f1ac6040518163ffffffff1660e01b8152600401606060405180830381865afa1580156131de573d5f5f3e3d5ffd5b505050506040513d601f19601f820116820180604052508101906132029190613be9565b506001600160701b031691506001600160701b03169150826001600160a01b0316876001600160a01b03161461323957808261323c565b81815b90999098509650505050505050565b5f5f84116132a95760405162461bcd60e51b815260206004820152602560248201527f556e697377617056324c6962726172793a20494e53554646494349454e545f416044820152641353d5539560da1b60648201526084016108e0565b5f831180156132b757505f82115b6133145760405162461bcd60e51b815260206004820152602860248201527f556e697377617056324c6962726172793a20494e53554646494349454e545f4c604482015267495155494449545960c01b60648201526084016108e0565b8261331f858461347b565b6112e591906138db565b5f5f826001600160a01b0316846001600160a01b03160361339a5760405162461bcd60e51b815260206004820152602560248201527f556e697377617056324c6962726172793a204944454e544943414c5f41444452604482015264455353455360d81b60648201526084016108e0565b826001600160a01b0316846001600160a01b0316106133ba5782846133bd565b83835b90925090506001600160a01b0382166134185760405162461bcd60e51b815260206004820152601e60248201527f556e697377617056324c6962726172793a205a45524f5f41444452455353000060448201526064016108e0565b9250929050565b6060826134345761342f826134e1565b6111b5565b815115801561344b57506001600160a01b0384163b155b1561347457604051639996b31560e01b81526001600160a01b03851660048201526024016108e0565b50806111b5565b5f81158061349e5750828261349081836138c4565b925061349c90836138db565b145b6116665760405162461bcd60e51b815260206004820152601460248201527364732d6d6174682d6d756c2d6f766572666c6f7760601b60448201526064016108e0565b8051156134f15780518082602001fd5b60405163d6bda27560e01b815260040160405180910390fd5b5f6020828403121561351a575f5ffd5b5035919050565b6001600160a01b038116811461096a575f5ffd5b5f60208284031215613545575f5ffd5b81356111b581613521565b634e487b7160e01b5f52602160045260245ffd5b6006811061358057634e487b7160e01b5f52602160045260245ffd5b9052565b6001600160a01b03851681526020810184905260408101839052608081016108746060830184613564565b5f8151808452602084019350602083015f5b828110156135df5781518652602095860195909101906001016135c1565b5093949350505050565b602081525f6111b560208301846135af565b5f5f6040838503121561360c575f5ffd5b823561361781613521565b9150602083013561362781613521565b809150509250929050565b5f5f5f60608486031215613644575f5ffd5b833561364f81613521565b9250602084013561365f81613521565b929592945050506040919091013590565b634e487b7160e01b5f52604160045260245ffd5b604051601f8201601f1916810167ffffffffffffffff811182821017156136ad576136ad613670565b604052919050565b5f5f604083850312156136c6575f5ffd5b82356136d181613521565b9150602083013567ffffffffffffffff8111156136ec575f5ffd5b8301601f810185136136fc575f5ffd5b803567ffffffffffffffff81111561371657613716613670565b613729601f8201601f1916602001613684565b81815286602083850101111561373d575f5ffd5b816020840160208301375f602083830101528093505050509250929050565b5f8151808452602084019350602083015f5b828110156135df5781516001600160a01b031686526020958601959091019060010161376e565b6001600160a01b038916815260208101889052604081018790526137bc6060820187613564565b61010060808201525f6137d36101008301876135af565b82810360a08401526137e581876135af565b905082810360c08401526137f9818661375c565b83810360e0850152845180825260208087019350909101905f5b8181101561386957835180516001600160a01b031684526020808201518186015260408083015190860152606080830151908601526080918201511515918501919091529093019260a090920191600101613813565b50909c9b505050505050505050505050565b602081525f82518060208401528060208501604085015e5f604082850101526040601f19601f83011684010191505092915050565b634e487b7160e01b5f52601160045260245ffd5b8082028115828204841417611666576116666138b0565b5f826138f557634e487b7160e01b5f52601260045260245ffd5b500490565b80820180821115611666576116666138b0565b81810381811115611666576116666138b0565b5f60018201613931576139316138b0565b5060010190565b634e487b7160e01b5f52603260045260245ffd5b828152604060208201525f6112e5604083018461375c565b5f60208284031215613974575f5ffd5b815167ffffffffffffffff81111561398a575f5ffd5b8201601f8101841361399a575f5ffd5b805167ffffffffffffffff8111156139b4576139b4613670565b8060051b6139c460208201613684565b918252602081840181019290810190878411156139df575f5ffd5b6020850194505b83851015613a05578451808352602095860195909350909101906139e6565b979650505050505050565b5f60208284031215613a20575f5ffd5b815180151581146111b5575f5ffd5b6001600160a01b039889168152968816602088015260408701959095526060860193909352608085019190915260a084015290921660c082015260e08101919091526101000190565b5f5f5f60608486031215613a8a575f5ffd5b5050815160208301516040909301519094929350919050565b6001600160a01b039788168152958716602087015260408601949094526060850192909252608084015290921660a082015260c081019190915260e00190565b5f5f60408385031215613af4575f5ffd5b505080516020909101519092909150565b5f82518060208501845e5f920191825250919050565b5f60208284031215613b2b575f5ffd5b5051919050565b60ff8281168282160390811115611666576116666138b0565b5f60ff821660ff8103613b6057613b606138b0565b60010192915050565b5f60208284031215613b79575f5ffd5b81516111b581613521565b634e487b7160e01b5f52600160045260245ffd5b85815284602082015260a060408201525f613bb660a083018661375c565b6001600160a01b0394909416606083015250608001529392505050565b80516001600160701b0381168114612845575f5ffd5b5f5f5f60608486031215613bfb575f5ffd5b613c0484613bd3565b9250613c1260208501613bd3565b9150604084015163ffffffff81168114613c2a575f5ffd5b80915050925092509256fe00000000000000000000000010ed43c718714eb63d5aa57b78b54704e256024e360894a13ba1a3210667c828492db98dca3e2076cc3735a920a3ca505d382bbc00000000000000000000000055d398326f99059ff775485246999027b3197955a2646970667358221220c689315daa59e9c15a41b476f21728eb1baa2caa55c3ad5e9bebbb5d40bf362b64736f6c634300081c0033","linkReferences":{}},"methodIdentifiers":{"BASE()":"ec342ad0","DEAD()":"03fd2a45","REWARD_RATE()":"5997bb37","STAKE_PERIOD()":"dd4b1823","UPGRADE_INTERFACE_VERSION()":"ad3cb1cc","USDT()":"c54e44eb","addLiquidity(uint256)":"51c6590a","bindInviter(address)":"a14a9f8f","claimAward(uint256)":"08254f51","claimOrder(uint256)":"3a3f8239","getAmountOut(address,address,uint256)":"4aa06652","getOrderCountdown(uint256)":"55a1883a","getOrderRealTimeYield(uint256)":"02318e53","getUserInfo(address)":"6386c1c7","getUserRealTimeYield(address)":"abf194a0","getUserValidStakingAmount(address)":"666b0dab","getUserValidStakingAmountForUsdt(address)":"70a8302a","getValidOrderIndexes(address)":"3fd004d7","index()":"2986c0e5","initialize(address,address)":"485cc955","liquidityAmount(address)":"35e344f2","lp()":"313c06a0","owner()":"8da5cb5b","proxiableUUID()":"52d1902d","raisefunds(uint256)":"80565655","removeLiquidity(uint256)":"9c8f9f23","removeLiquidityOfRaiseFunds()":"62d284b2","renounceOwnership()":"715018a6","setConfig(address,address)":"b602024b","staking(uint256)":"1dbb2a22","stakingOrderInfo(uint256)":"bb8498cf","stakingOrders(uint256)":"789574d4","token()":"fc0c546a","transferOwnership(address)":"f2fde38b","uniswapV2Factory()":"59d0f713","uniswapV2Router()":"1694505e","upgradeToAndCall(address,bytes)":"4f1ef286","userInfo(address)":"1959a002"},"id":41}