{"abi":[{"type":"function","name":"BASE","inputs":[],"outputs":[{"name":"","type":"uint256","internalType":"uint256"}],"stateMutability":"view"},{"type":"function","name":"DEAD","inputs":[],"outputs":[{"name":"","type":"address","internalType":"address"}],"stateMutability":"view"},{"type":"function","name":"REWARD_RATE","inputs":[],"outputs":[{"name":"","type":"uint256","internalType":"uint256"}],"stateMutability":"view"},{"type":"function","name":"STAKE_PERIOD","inputs":[],"outputs":[{"name":"","type":"uint256","internalType":"uint256"}],"stateMutability":"view"},{"type":"function","name":"UPGRADE_INTERFACE_VERSION","inputs":[],"outputs":[{"name":"","type":"string","internalType":"string"}],"stateMutability":"view"},{"type":"function","name":"USDT","inputs":[],"outputs":[{"name":"","type":"address","internalType":"address"}],"stateMutability":"view"},{"type":"function","name":"addLiquidity","inputs":[{"name":"amountToken","type":"uint256","internalType":"uint256"}],"outputs":[{"name":"_amountToken","type":"uint256","internalType":"uint256"},{"name":"_amountUsdt","type":"uint256","internalType":"uint256"},{"name":"_liquidityAmount","type":"uint256","internalType":"uint256"}],"stateMutability":"nonpayable"},{"type":"function","name":"bindInviter","inputs":[{"name":"inviter","type":"address","internalType":"address"}],"outputs":[],"stateMutability":"nonpayable"},{"type":"function","name":"claimAward","inputs":[{"name":"amount","type":"uint256","internalType":"uint256"}],"outputs":[],"stateMutability":"nonpayable"},{"type":"function","name":"claimOrder","inputs":[{"name":"orderIndex","type":"uint256","internalType":"uint256"}],"outputs":[],"stateMutability":"nonpayable"},{"type":"function","name":"getOrderCountdown","inputs":[{"name":"orderIndex","type":"uint256","internalType":"uint256"}],"outputs":[{"name":"","type":"uint256","internalType":"uint256"}],"stateMutability":"view"},{"type":"function","name":"getOrderRealTimeYield","inputs":[{"name":"orderIndex","type":"uint256","internalType":"uint256"}],"outputs":[{"name":"","type":"uint256","internalType":"uint256"}],"stateMutability":"view"},{"type":"function","name":"getQuoteAmount","inputs":[{"name":"amountToken","type":"uint256","internalType":"uint256"}],"outputs":[{"name":"amountUsdt","type":"uint256","internalType":"uint256"}],"stateMutability":"view"},{"type":"function","name":"getStakingOrders","inputs":[],"outputs":[{"name":"","type":"tuple[]","internalType":"struct IMining.StakingOrder[]","components":[{"name":"holder","type":"address","internalType":"address"},{"name":"amount","type":"uint256","internalType":"uint256"},{"name":"stakingTime","type":"uint256","internalType":"uint256"},{"name":"isExtracted","type":"bool","internalType":"bool"}]}],"stateMutability":"view"},{"type":"function","name":"getUserInfo","inputs":[{"name":"_user","type":"address","internalType":"address"}],"outputs":[{"name":"_inviter","type":"address","internalType":"address"},{"name":"_award","type":"uint256","internalType":"uint256"},{"name":"_level","type":"uint8","internalType":"enum IMining.Level"},{"name":"_validOrderIndexes","type":"uint256[]","internalType":"uint256[]"},{"name":"_orderIndexes","type":"uint256[]","internalType":"uint256[]"},{"name":"_invitees","type":"address[]","internalType":"address[]"},{"name":"_awardRecords","type":"tuple[]","internalType":"struct IMining.AwardRecord[]","components":[{"name":"invitee","type":"address","internalType":"address"},{"name":"stakingAmount","type":"uint256","internalType":"uint256"},{"name":"awardAmount","type":"uint256","internalType":"uint256"},{"name":"awardTime","type":"uint256","internalType":"uint256"},{"name":"isLevelAward","type":"bool","internalType":"bool"}]}],"stateMutability":"view"},{"type":"function","name":"getUserRealTimeYield","inputs":[{"name":"userAddr","type":"address","internalType":"address"}],"outputs":[{"name":"total","type":"uint256","internalType":"uint256"}],"stateMutability":"view"},{"type":"function","name":"getUserValidStakingAmount","inputs":[{"name":"userAddr","type":"address","internalType":"address"}],"outputs":[{"name":"totalAmount","type":"uint256","internalType":"uint256"}],"stateMutability":"view"},{"type":"function","name":"getValidOrderIndexes","inputs":[{"name":"_user","type":"address","internalType":"address"}],"outputs":[{"name":"","type":"uint256[]","internalType":"uint256[]"}],"stateMutability":"view"},{"type":"function","name":"index","inputs":[],"outputs":[{"name":"","type":"uint256","internalType":"uint256"}],"stateMutability":"view"},{"type":"function","name":"initialInviter","inputs":[],"outputs":[{"name":"","type":"address","internalType":"address"}],"stateMutability":"view"},{"type":"function","name":"initialize","inputs":[{"name":"_token","type":"address","internalType":"address"},{"name":"_initialInviter","type":"address","internalType":"address"}],"outputs":[],"stateMutability":"nonpayable"},{"type":"function","name":"owner","inputs":[],"outputs":[{"name":"","type":"address","internalType":"address"}],"stateMutability":"view"},{"type":"function","name":"proxiableUUID","inputs":[],"outputs":[{"name":"","type":"bytes32","internalType":"bytes32"}],"stateMutability":"view"},{"type":"function","name":"renounceOwnership","inputs":[],"outputs":[],"stateMutability":"nonpayable"},{"type":"function","name":"setConfig","inputs":[{"name":"_token","type":"address","internalType":"address"},{"name":"_initialInviter","type":"address","internalType":"address"}],"outputs":[],"stateMutability":"nonpayable"},{"type":"function","name":"staking","inputs":[{"name":"amountToken","type":"uint256","internalType":"uint256"}],"outputs":[],"stateMutability":"nonpayable"},{"type":"function","name":"stakingOrderInfo","inputs":[{"name":"","type":"uint256","internalType":"uint256"}],"outputs":[{"name":"holder","type":"address","internalType":"address"},{"name":"amount","type":"uint256","internalType":"uint256"},{"name":"stakingTime","type":"uint256","internalType":"uint256"},{"name":"isExtracted","type":"bool","internalType":"bool"}],"stateMutability":"view"},{"type":"function","name":"stakingOrders","inputs":[{"name":"","type":"uint256","internalType":"uint256"}],"outputs":[{"name":"holder","type":"address","internalType":"address"},{"name":"amount","type":"uint256","internalType":"uint256"},{"name":"stakingTime","type":"uint256","internalType":"uint256"},{"name":"isExtracted","type":"bool","internalType":"bool"}],"stateMutability":"view"},{"type":"function","name":"token","inputs":[],"outputs":[{"name":"","type":"address","internalType":"address"}],"stateMutability":"view"},{"type":"function","name":"transferOwnership","inputs":[{"name":"newOwner","type":"address","internalType":"address"}],"outputs":[],"stateMutability":"nonpayable"},{"type":"function","name":"uniswapV2Factory","inputs":[],"outputs":[{"name":"","type":"address","internalType":"address"}],"stateMutability":"view"},{"type":"function","name":"upgradeToAndCall","inputs":[{"name":"newImplementation","type":"address","internalType":"address"},{"name":"data","type":"bytes","internalType":"bytes"}],"outputs":[],"stateMutability":"payable"},{"type":"function","name":"userInfo","inputs":[{"name":"","type":"address","internalType":"address"}],"outputs":[{"name":"inviter","type":"address","internalType":"address"},{"name":"award","type":"uint256","internalType":"uint256"},{"name":"usdtValue","type":"uint256","internalType":"uint256"},{"name":"level","type":"uint8","internalType":"enum IMining.Level"}],"stateMutability":"view"},{"type":"event","name":"Initialized","inputs":[{"name":"version","type":"uint64","indexed":false,"internalType":"uint64"}],"anonymous":false},{"type":"event","name":"OwnershipTransferred","inputs":[{"name":"previousOwner","type":"address","indexed":true,"internalType":"address"},{"name":"newOwner","type":"address","indexed":true,"internalType":"address"}],"anonymous":false},{"type":"event","name":"Upgraded","inputs":[{"name":"implementation","type":"address","indexed":true,"internalType":"address"}],"anonymous":false},{"type":"error","name":"AddressEmptyCode","inputs":[{"name":"target","type":"address","internalType":"address"}]},{"type":"error","name":"ERC1967InvalidImplementation","inputs":[{"name":"implementation","type":"address","internalType":"address"}]},{"type":"error","name":"ERC1967NonPayable","inputs":[]},{"type":"error","name":"FailedCall","inputs":[]},{"type":"error","name":"InvalidInitialization","inputs":[]},{"type":"error","name":"NotInitializing","inputs":[]},{"type":"error","name":"OwnableInvalidOwner","inputs":[{"name":"owner","type":"address","internalType":"address"}]},{"type":"error","name":"OwnableUnauthorizedAccount","inputs":[{"name":"account","type":"address","internalType":"address"}]},{"type":"error","name":"ReentrancyGuardReentrantCall","inputs":[]},{"type":"error","name":"UUPSUnauthorizedCallContext","inputs":[]},{"type":"error","name":"UUPSUnsupportedProxiableUUID","inputs":[{"name":"slot","type":"bytes32","internalType":"bytes32"}]}],"bytecode":{"object":"0x60a0604052306080523480156012575f5ffd5b5060015f5560805161310661003d5f395f81816120a2015281816120cb015261232601526131065ff3fe6080604052600436106101e6575f3560e01c80635997bb3711610108578063abf194a01161009d578063c54e44eb1161006d578063c54e44eb14610653578063dd4b18231461067a578063ec342ad014610690578063f2fde38b146106a5578063fc0c546a146106c4575f5ffd5b8063abf194a01461058b578063ad3cb1cc146105aa578063b602024b146105e7578063bb8498cf14610606575f5ffd5b8063715018a6116100d8578063715018a6146104d1578063789574d4146104e55780638da5cb5b14610530578063a14a9f8f1461056c575f5ffd5b80635997bb371461044457806359d0f713146104595780636386c1c714610480578063666b0dab146104b2575f5ffd5b80633fd004d71161017e57806351c6590a1161014e57806351c6590a146103b657806352d1902d146103f057806355a1883a146104045780635655f4db14610423575f5ffd5b80633fd004d714610339578063485cc955146103655780634e377201146103845780634f1ef286146103a3575f5ffd5b80631dbb2a22116101b95780631dbb2a22146102c75780632986c0e5146102e65780632a75d5f4146102fb5780633a3f82391461031a575f5ffd5b806302318e53146101ea57806303fd2a451461021c57806308254f51146102495780631959a0021461026a575b5f5ffd5b3480156101f5575f5ffd5b50610209610204366004612b7d565b6106e3565b6040519081526020015b60405180910390f35b348015610227575f5ffd5b5061023161dead81565b6040516001600160a01b039091168152602001610213565b348015610254575f5ffd5b50610268610263366004612b7d565b6107b9565b005b348015610275575f5ffd5b506102b7610284366004612ba8565b60056020525f908152604090208054600182015460028301546003909301546001600160a01b0390921692909160ff1684565b6040516102139493929190612bf7565b3480156102d2575f5ffd5b506102686102e1366004612b7d565b6108a1565b3480156102f1575f5ffd5b5061020960025481565b348015610306575f5ffd5b50610209610315366004612b7d565b610acc565b348015610325575f5ffd5b50610268610334366004612b7d565b610b29565b348015610344575f5ffd5b50610358610353366004612ba8565b610c5b565b6040516102139190612c5c565b348015610370575f5ffd5b5061026861037f366004612c6e565b610f57565b34801561038f575f5ffd5b50600354610231906001600160a01b031681565b6102686103b1366004612cb9565b61108d565b3480156103c1575f5ffd5b506103d56103d0366004612b7d565b6110ac565b60408051938452602084019290925290820152606001610213565b3480156103fb575f5ffd5b506102096110fa565b34801561040f575f5ffd5b5061020961041e366004612b7d565b611115565b34801561042e575f5ffd5b5061043761119e565b6040516102139190612d7f565b34801561044f575f5ffd5b50610209610bb881565b348015610464575f5ffd5b5061023173ca143ce32fe78f1f7019d7d551a6402fc5350c7381565b34801561048b575f5ffd5b5061049f61049a366004612ba8565b61122b565b6040516102139796959493929190612e57565b3480156104bd575f5ffd5b506102096104cc366004612ba8565b6113bc565b3480156104dc575f5ffd5b50610268611447565b3480156104f0575f5ffd5b506105046104ff366004612b7d565b61145a565b604080516001600160a01b03909516855260208501939093529183015215156060820152608001610213565b34801561053b575f5ffd5b507f9016d09d72d40fdae2fd8ceac6b6234c7706214fd39c1cd1e609a0528c199300546001600160a01b0316610231565b348015610577575f5ffd5b50610268610586366004612ba8565b61149f565b348015610596575f5ffd5b506102096105a5366004612ba8565b61167b565b3480156105b5575f5ffd5b506105da604051806040016040528060058152602001640352e302e360dc1b81525081565b6040516102139190612f02565b3480156105f2575f5ffd5b50610268610601366004612c6e565b6116fe565b348015610611575f5ffd5b50610504610620366004612b7d565b60046020525f908152604090208054600182015460028301546003909301546001600160a01b0390921692909160ff1684565b34801561065e575f5ffd5b506102317355d398326f99059ff775485246999027b319795581565b348015610685575f5ffd5b5061020962278d0081565b34801561069b575f5ffd5b5061020961271081565b3480156106b0575f5ffd5b506102686106bf366004612ba8565b611779565b3480156106cf575f5ffd5b50600154610231906001600160a01b031681565b5f818152600460209081526040808320815160808101835281546001600160a01b0316815260018201549381018490526002820154928101929092526003015460ff16151560608201529082906127109061074190610bb890612f4b565b61074b9190612f62565b826020015161075a9190612f81565b90505f8260400151421161076e575f61077d565b604083015161077d9042612f94565b905062278d00811061079157509392505050565b61079e62278d0083612f62565b6107a89082612f4b565b95945050505050565b505050919050565b6107c16117b3565b335f908152600560205260409020600181015482111561081d5760405162461bcd60e51b815260206004820152601260248201527127379030bbb0b932103a379031b630b4b69760711b60448201526064015b60405180910390fd5b81816001015f8282546108309190612f94565b90915550506001546040516340c10f1960e01b8152336004820152602481018490526001600160a01b03909116906340c10f19906044015f604051808303815f87803b15801561087e575f5ffd5b505af1158015610890573d5f5f3e3d5ffd5b505050505061089e60015f55565b50565b335f90815260056020526040902080546001600160a01b03166109105760405162461bcd60e51b815260206004820152602160248201527f4e65656420746f2062696e642074686520696e766974657220616464726573736044820152601760f91b6064820152608401610814565b60015461092a906001600160a01b03163361dead856117db565b60408051608081018252338082526020808301868152428486019081525f606086018181526006805460018181018355918452885160049182027ff652222313e28459528d920b65115c16c04f3efc82aaedc97be59f3f377c0d3f810180546001600160a01b039384166001600160a01b03199182161790915588517ff652222313e28459528d920b65115c16c04f3efc82aaedc97be59f3f377c0d4083015587517ff652222313e28459528d920b65115c16c04f3efc82aaedc97be59f3f377c0d4183015585517ff652222313e28459528d920b65115c16c04f3efc82aaedc97be59f3f377c0d42909201805492151560ff19938416179055600280548852848b528d88208d51815490861690841617815599518a8701559751898901559451600398909801805498151598909116979097179096558454908b01805480840182559085528785200155895490941682526005808652978220909701805493840181558152928320909101805490951690921790935580549192610aae83612fa7565b9190505550610abd3384611906565b610ac73384611d87565b505050565b6001545f9081908190610b129073ca143ce32fe78f1f7019d7d551a6402fc5350c73906001600160a01b03167355d398326f99059ff775485246999027b3197955611eba565b91509150610b21848383611f7f565b949350505050565b610b316117b3565b5f81815260046020526040902080546001600160a01b03163314610b8e5760405162461bcd60e51b81526020600482015260146024820152732737ba103a34329037b93232b91037bbb732b91760611b6044820152606401610814565b600381015460ff1615610bd65760405162461bcd60e51b815260206004820152601060248201526f20b63932b0b23c9031b630b4b6b2b21760811b6044820152606401610814565b5f610be0836106e3565b60038301805460ff19166001908117909155546040516340c10f1960e01b8152336004820152602481018390529192506001600160a01b0316906340c10f19906044015f604051808303815f87803b158015610c3a575f5ffd5b505af1158015610c4c573d5f5f3e3d5ffd5b50505050505061089e60015f55565b6001600160a01b038082165f908152600560208181526040808420815160e081018352815490961686526001810154928601929092526002820154908501526003810154606094928386019160ff1690811115610cba57610cba612bc3565b6005811115610ccb57610ccb612bc3565b815260200160048201805480602002602001604051908101604052809291908181526020018280548015610d1c57602002820191905f5260205f20905b815481526020019060010190808311610d08575b5050505050815260200160058201805480602002602001604051908101604052809291908181526020018280548015610d7c57602002820191905f5260205f20905b81546001600160a01b03168152600190910190602001808311610d5e575b5050505050815260200160068201805480602002602001604051908101604052809291908181526020015f905b82821015610e14575f8481526020908190206040805160a0810182526005860290920180546001600160a01b0316835260018082015484860152600282015492840192909252600381015460608401526004015460ff16151560808301529083529092019101610da9565b505050915250506080810151519091505f805b82811015610e85575f84608001518281518110610e4657610e46612fbf565b6020908102919091018101515f818152600490925260409091206003015490915060ff16610e7c5782610e7881612fa7565b9350505b50600101610e27565b505f8167ffffffffffffffff811115610ea057610ea0612ca5565b604051908082528060200260200182016040528015610ec9578160200160208202803683370190505b5090505f805b84811015610f4b575f86608001518281518110610eee57610eee612fbf565b6020908102919091018101515f818152600490925260409091206003015490915060ff16610f425780848481518110610f2957610f29612fbf565b602090810291909101015282610f3e81612fa7565b9350505b50600101610ecf565b50909695505050505050565b5f610f6061205d565b805490915060ff600160401b820416159067ffffffffffffffff165f81158015610f875750825b90505f8267ffffffffffffffff166001148015610fa35750303b155b905081158015610fb1575080155b15610fcf5760405163f92ee8a960e01b815260040160405180910390fd5b845467ffffffffffffffff191660011785558315610ff957845460ff60401b1916600160401b1785555b61100233612087565b61100a61208f565b600180546001600160a01b03808a166001600160a01b03199283161790925560038054928916929091169190911790555f600255831561108457845460ff60401b19168555604051600181527fc7f505b2f371ae2175ee4913f4499e1f2633a7b5936321eed1cdaeb6115181d29060200160405180910390a15b50505050505050565b611095612097565b61109e8261213b565b6110a88282612143565b5050565b5f5f5f5f6110b985610acc565b6001549091506110ec906001600160a01b03167355d398326f99059ff775485246999027b319795587845f8033426121ff565b919790965090945092505050565b5f61110361231b565b505f5160206130b15f395f51905f5290565b5f818152600460209081526040808320815160808101835281546001600160a01b0316815260018201549381019390935260028101549183018290526003015460ff16151560608301528290421161116d575f61117c565b604082015161117c9042612f94565b905062278d00811061119157505f9392505050565b610b218162278d00612f94565b60606006805480602002602001604051908101604052809291908181526020015f905b82821015611222575f848152602090819020604080516080810182526004860290920180546001600160a01b03168352600180820154848601526002820154928401929092526003015460ff161515606083015290835290920191016111c1565b50505050905090565b6001600160a01b038082165f9081526005602081815260409283902080546001820154600383015494830180548751818702810187019098528088529290971696909560ff909516946060948594859485949193928301828280156112b757602002820191905f5260205f20905b81546001600160a01b03168152600190910190602001808311611299575b5050505050925080600601805480602002602001604051908101604052809291908181526020015f905b8282101561134c575f8481526020908190206040805160a0810182526005860290920180546001600160a01b0316835260018082015484860152600282015492840192909252600381015460608401526004015460ff161515608083015290835290920191016112e1565b5050505091508060040180548060200260200160405190810160405280929190818152602001828054801561139e57602002820191905f5260205f20905b81548152602001906001019080831161138a575b505050505093506113ae89610c5b565b945050919395979092949650565b6001600160a01b0381165f9081526005602052604081206004810154825b818110156107b1575f8360040182815481106113f8576113f8612fbf565b5f918252602080832090910154808352600490915260409091206003015490915060ff1661143e575f8181526004602052604090206001015461143b9086612f81565b94505b506001016113da565b61144f612364565b6114585f6123bf565b565b60068181548110611469575f80fd5b5f91825260209091206004909102018054600182015460028301546003909301546001600160a01b039092169350919060ff1684565b336001600160a01b038216036114f75760405162461bcd60e51b815260206004820181905260248201527f43616e6e6f742062696e6420796f757273656c6620617320696e76697465722e6044820152606401610814565b335f908152600560205260409020546001600160a01b0316156115555760405162461bcd60e51b815260206004820152601660248201527524b73b34ba32b91030b63932b0b23c903137bab7321760511b6044820152606401610814565b6001600160a01b0381166115ab5760405162461bcd60e51b815260206004820152601f60248201527f496e76697465722063616e6e6f74206265207a65726f20616464726573732e006044820152606401610814565b6003546001600160a01b0382811691161461164d576001600160a01b038181165f90815260056020526040902054161580159061160157506001600160a01b0381165f9081526005602052604090206004015415155b61164d5760405162461bcd60e51b815260206004820152601b60248201527f496e7669746572206d75737420626520726567697374657265642e00000000006044820152606401610814565b335f90815260056020526040902080546001600160a01b0319166001600160a01b0392909216919091179055565b6001600160a01b0381165f9081526005602052604081206004810154825b818110156107b1575f8360040182815481106116b7576116b7612fbf565b5f918252602080832090910154808352600490915260409091206003015490915060ff166116f5576116e8816106e3565b6116f29086612f81565b94505b50600101611699565b611706612364565b6001600160a01b03821661174b5760405162461bcd60e51b815260206004820152600c60248201526b5a65726f206164647265737360a01b6044820152606401610814565b600180546001600160a01b039384166001600160a01b03199182161790915560038054929093169116179055565b611781612364565b6001600160a01b0381166117aa57604051631e4fbdf760e01b81525f6004820152602401610814565b61089e816123bf565b60025f54036117d557604051633ee5aeb560e01b815260040160405180910390fd5b60025f55565b604080516001600160a01b0385811660248301528481166044830152606480830185905283518084039091018152608490920183526020820180516001600160e01b03166323b872dd60e01b17905291515f9283929088169161183e9190612fd3565b5f604051808303815f865af19150503d805f8114611877576040519150601f19603f3d011682016040523d82523d5f602084013e61187c565b606091505b50915091508180156118a65750805115806118a65750808060200190518101906118a69190612fe9565b6118fe5760405162461bcd60e51b8152602060048201526024808201527f5472616e7366657248656c7065723a205452414e534645525f46524f4d5f46416044820152631253115160e21b6064820152608401610814565b505050505050565b6040805160a0810182526103e881526101f4602082015260fa91810191909152607d606082015261027160808201528290612710835f5b6005811015611aa4576001600160a01b038086165f90815260056020526040902054168061196b5750611aa4565b611976826001612f81565b6001600160a01b0382165f908152600560208190526040909120015410611a9a575f848684600581106119ab576119ab612fbf565b60200201516119ba9086612f4b565b6119c49190612f62565b6001600160a01b0383165f908152600560205260408120600101805492935083929091906119f3908490612f81565b90915550506001600160a01b038281165f908152600560208181526040808420815160a0810183528f871681528084018f81529281019788524260608201908152608082018781526006909301805460018082018355918952959097209151949095020180546001600160a01b031916939096169290921785555192840192909255925160028301559151600382015590516004909101805460ff19169115159190911790555b945060010161193d565b505f82611ab2836064612f4b565b611abc9190612f62565b90505f611aca600583612f62565b9050611ad4612b5f565b8896505f5b6001600160a01b03881615611d7b576001600160a01b038089165f908152600560205260409020541680611b0d5750611d7b565b6001600160a01b0381165f9081526005602052604081206003015460ff1690816005811115611b3e57611b3e612bc3565b14611d64575f6001826005811115611b5857611b58612bc3565b611b629190612f94565b9050600581108015611b885750848160058110611b8157611b81612fbf565b6020020151155b15611d62575f805b828111611bfc57868160058110611ba957611ba9612fbf565b6020020151611bea57611bbc8883612f81565b91506001878260058110611bd257611bd2612fbf565b9115156020909202015285611be681612fa7565b9650505b80611bf481612fa7565b915050611b90565b508015611d60576001600160a01b0384165f9081526005602052604081206001018054839290611c2d908490612f81565b90915550506040805160a0810182525f808252602082018190529181018290526060810182905260808101919091528e815f01906001600160a01b031690816001600160a01b0316815250508d8160200181815250508181604001818152505042816060018181525050600181608001901515908115158152505060055f866001600160a01b03166001600160a01b031681526020019081526020015f2060060181908060018154018082558091505060019003905f5260205f2090600502015f909190919091505f820151815f015f6101000a8154816001600160a01b0302191690836001600160a01b031602179055506020820151816001015560408201518160020155606082015181600301556080820151816004015f6101000a81548160ff0219169083151502179055505050505b505b505b60058310611d73575050611d7b565b509750611ad9565b50505050505050505050565b5f611d9182610acc565b9050825b6001600160a01b03811615611eb4576001600160a01b038082165f908152600560205260409020541680611dc95750611eb4565b6001600160a01b0381165f9081526005602052604081206002018054859290611df3908490612f81565b90915550506001600160a01b0381165f90815260056020526040812060020154611e1c9061242f565b6001600160a01b0383165f9081526005602081905260409091206003015491925060ff90911690811115611e5257611e52612bc3565b816005811115611e6457611e64612bc3565b1115611eac576001600160a01b0382165f9081526005602081905260409091206003018054839260ff19909116906001908490811115611ea657611ea6612bc3565b02179055505b509050611d95565b50505050565b5f5f5f611ec785856124b9565b5090505f5f611ed78888886125af565b6001600160a01b0316630902f1ac6040518163ffffffff1660e01b8152600401606060405180830381865afa158015611f12573d5f5f3e3d5ffd5b505050506040513d601f19601f82011682018060405250810190611f36919061301e565b506001600160701b031691506001600160701b03169150826001600160a01b0316876001600160a01b031614611f6d578082611f70565b81815b90999098509650505050505050565b5f5f8411611fdd5760405162461bcd60e51b815260206004820152602560248201527f556e697377617056324c6962726172793a20494e53554646494349454e545f416044820152641353d5539560da1b6064820152608401610814565b5f83118015611feb57505f82115b6120485760405162461bcd60e51b815260206004820152602860248201527f556e697377617056324c6962726172793a20494e53554646494349454e545f4c604482015267495155494449545960c01b6064820152608401610814565b826120538584612685565b610b219190612f62565b5f807ff0c57e16840df040f15088dc2f81fe391c3923bec73e23a9662efc9c229c6a005b92915050565b6117816126eb565b6114586126eb565b306001600160a01b037f000000000000000000000000000000000000000000000000000000000000000016148061211d57507f00000000000000000000000000000000000000000000000000000000000000006001600160a01b03166121115f5160206130b15f395f51905f52546001600160a01b031690565b6001600160a01b031614155b156114585760405163703e46dd60e11b815260040160405180910390fd5b61089e612364565b816001600160a01b03166352d1902d6040518163ffffffff1660e01b8152600401602060405180830381865afa92505050801561219d575060408051601f3d908101601f1916820190925261219a9181019061306a565b60015b6121c557604051634c9c8ce360e01b81526001600160a01b0383166004820152602401610814565b5f5160206130b15f395f51905f5281146121f557604051632a87526960e21b815260048101829052602401610814565b610ac78383612710565b5f5f5f83428110156122535760405162461bcd60e51b815260206004820152601860248201527f556e69737761705632526f757465723a204558504952454400000000000000006044820152606401610814565b6122618c8c8c8c8c8c612765565b90945092505f61228673ca143ce32fe78f1f7019d7d551a6402fc5350c738e8e6125af565b90506122948d3383886117db565b6122a08c3383876117db565b6040516335313c2160e11b81526001600160a01b038881166004830152821690636a627842906024016020604051808303815f875af11580156122e5573d5f5f3e3d5ffd5b505050506040513d601f19601f82011682018060405250810190612309919061306a565b92505050985098509895505050505050565b306001600160a01b037f000000000000000000000000000000000000000000000000000000000000000016146114585760405163703e46dd60e11b815260040160405180910390fd5b336123967f9016d09d72d40fdae2fd8ceac6b6234c7706214fd39c1cd1e609a0528c199300546001600160a01b031690565b6001600160a01b0316146114585760405163118cdaa760e01b8152336004820152602401610814565b7f9016d09d72d40fdae2fd8ceac6b6234c7706214fd39c1cd1e609a0528c19930080546001600160a01b031981166001600160a01b03848116918217845560405192169182907f8be0079c531659141344cd1fd0a4f28419497f9722a3daafe3b4186f6b6457e0905f90a3505050565b5f69d3c21bcecceda1000000821061244957506005919050565b6969e10de76676d0800000821061246257506004919050565b692a5a058fc295ed000000821061247b57506003919050565b690a968163f0a57b400000821061249457506002919050565b69021e19e0c9bab240000082106124ad57506001919050565b505f919050565b919050565b5f5f826001600160a01b0316846001600160a01b03160361252a5760405162461bcd60e51b815260206004820152602560248201527f556e697377617056324c6962726172793a204944454e544943414c5f41444452604482015264455353455360d81b6064820152608401610814565b826001600160a01b0316846001600160a01b03161061254a57828461254d565b83835b90925090506001600160a01b0382166125a85760405162461bcd60e51b815260206004820152601e60248201527f556e697377617056324c6962726172793a205a45524f5f4144445245535300006044820152606401610814565b9250929050565b5f5f5f6125bc85856124b9565b6040516bffffffffffffffffffffffff19606084811b8216602084015283901b16603482015291935091508690604801604051602081830303815290604052805190602001206040516020016126639291906001600160f81b0319815260609290921b6bffffffffffffffffffffffff1916600183015260158201527efb7f630766e6a796048ea87d01acd3068e8ff67d078148a3fa3f4a84f69bd5603582015260550190565b60408051601f1981840301815291905280516020909101209695505050505050565b5f8115806126a85750828261269a8183612f4b565b92506126a69083612f62565b145b6120815760405162461bcd60e51b815260206004820152601460248201527364732d6d6174682d6d756c2d6f766572666c6f7760601b6044820152606401610814565b6126f36129d3565b61145857604051631afcd79f60e31b815260040160405180910390fd5b612719826129ec565b6040516001600160a01b038316907fbc7cd75a20ee27fd9adebab32041f755214dbc6bffa90cc0225b39da2e5c2d3b905f90a280511561275d57610ac78282612a4f565b6110a8612ab8565b60405163e6a4390560e01b81526001600160a01b038088166004830152861660248201525f908190819073ca143ce32fe78f1f7019d7d551a6402fc5350c739063e6a4390590604401602060405180830381865afa1580156127c9573d5f5f3e3d5ffd5b505050506040513d601f19601f820116820180604052508101906127ed9190613081565b6001600160a01b031603612880576040516364e329cb60e11b81526001600160a01b03808a1660048301528816602482015273ca143ce32fe78f1f7019d7d551a6402fc5350c739063c9c65396906044016020604051808303815f875af115801561285a573d5f5f3e3d5ffd5b505050506040513d601f19601f8201168201806040525081019061287e9190613081565b505b5f5f6128a173ca143ce32fe78f1f7019d7d551a6402fc5350c738b8b611eba565b91509150815f1480156128b2575080155b156128c2578793508692506129c6565b5f6128ce898484611f7f565b905087811161294157858110156129365760405162461bcd60e51b815260206004820152602660248201527f556e69737761705632526f757465723a20494e53554646494349454e545f425f604482015265105353d5539560d21b6064820152608401610814565b8894509250826129c4565b5f61294d898486611f7f565b90508981111561295f5761295f61309c565b878110156129be5760405162461bcd60e51b815260206004820152602660248201527f556e69737761705632526f757465723a20494e53554646494349454e545f415f604482015265105353d5539560d21b6064820152608401610814565b94508793505b505b5050965096945050505050565b5f6129dc61205d565b54600160401b900460ff16919050565b806001600160a01b03163b5f03612a2157604051634c9c8ce360e01b81526001600160a01b0382166004820152602401610814565b5f5160206130b15f395f51905f5280546001600160a01b0319166001600160a01b0392909216919091179055565b60605f5f846001600160a01b031684604051612a6b9190612fd3565b5f60405180830381855af49150503d805f8114612aa3576040519150601f19603f3d011682016040523d82523d5f602084013e612aa8565b606091505b50915091506107a8858383612ad7565b34156114585760405163b398979f60e01b815260040160405180910390fd5b606082612aec57612ae782612b36565b612b2f565b8151158015612b0357506001600160a01b0384163b155b15612b2c57604051639996b31560e01b81526001600160a01b0385166004820152602401610814565b50805b9392505050565b805115612b465780518082602001fd5b60405163d6bda27560e01b815260040160405180910390fd5b6040518060a001604052806005906020820280368337509192915050565b5f60208284031215612b8d575f5ffd5b5035919050565b6001600160a01b038116811461089e575f5ffd5b5f60208284031215612bb8575f5ffd5b8135612b2f81612b94565b634e487b7160e01b5f52602160045260245ffd5b60068110612bf357634e487b7160e01b5f52602160045260245ffd5b9052565b6001600160a01b03851681526020810184905260408101839052608081016107a86060830184612bd7565b5f8151808452602084019350602083015f5b82811015612c52578151865260209586019590910190600101612c34565b5093949350505050565b602081525f612b2f6020830184612c22565b5f5f60408385031215612c7f575f5ffd5b8235612c8a81612b94565b91506020830135612c9a81612b94565b809150509250929050565b634e487b7160e01b5f52604160045260245ffd5b5f5f60408385031215612cca575f5ffd5b8235612cd581612b94565b9150602083013567ffffffffffffffff811115612cf0575f5ffd5b8301601f81018513612d00575f5ffd5b803567ffffffffffffffff811115612d1a57612d1a612ca5565b604051601f8201601f19908116603f0116810167ffffffffffffffff81118282101715612d4957612d49612ca5565b604052818152828201602001871015612d60575f5ffd5b816020840160208301375f602083830101528093505050509250929050565b602080825282518282018190525f918401906040840190835b81811015612de457835180516001600160a01b03168452602080820151818601526040808301519086015260609182015115159185019190915290930192608090920191600101612d98565b509095945050505050565b5f8151808452602084019350602083015f5b82811015612c5257815180516001600160a01b0316875260208082015181890152604080830151908901526060808301519089015260809182015115159188019190915260a09096019590910190600101612e01565b6001600160a01b038816815260208101879052612e776040820187612bd7565b60e060608201525f612e8c60e0830187612c22565b8281036080840152612e9e8187612c22565b83810360a0850152855180825260208088019350909101905f5b81811015612edf5783516001600160a01b0316835260209384019390920191600101612eb8565b505083810360c0850152612ef38186612def565b9b9a5050505050505050505050565b602081525f82518060208401528060208501604085015e5f604082850101526040601f19601f83011684010191505092915050565b634e487b7160e01b5f52601160045260245ffd5b808202811582820484141761208157612081612f37565b5f82612f7c57634e487b7160e01b5f52601260045260245ffd5b500490565b8082018082111561208157612081612f37565b8181038181111561208157612081612f37565b5f60018201612fb857612fb8612f37565b5060010190565b634e487b7160e01b5f52603260045260245ffd5b5f82518060208501845e5f920191825250919050565b5f60208284031215612ff9575f5ffd5b81518015158114612b2f575f5ffd5b80516001600160701b03811681146124b4575f5ffd5b5f5f5f60608486031215613030575f5ffd5b61303984613008565b925061304760208501613008565b9150604084015163ffffffff8116811461305f575f5ffd5b809150509250925092565b5f6020828403121561307a575f5ffd5b5051919050565b5f60208284031215613091575f5ffd5b8151612b2f81612b94565b634e487b7160e01b5f52600160045260245ffdfe360894a13ba1a3210667c828492db98dca3e2076cc3735a920a3ca505d382bbca26469706673582212202a75c7814be8bba99beaef4bacf1152dac10dcfae6fb6e2872a307dc84ead2dd64736f6c634300081c0033","linkReferences":{}},"methodIdentifiers":{"BASE()":"ec342ad0","DEAD()":"03fd2a45","REWARD_RATE()":"5997bb37","STAKE_PERIOD()":"dd4b1823","UPGRADE_INTERFACE_VERSION()":"ad3cb1cc","USDT()":"c54e44eb","addLiquidity(uint256)":"51c6590a","bindInviter(address)":"a14a9f8f","claimAward(uint256)":"08254f51","claimOrder(uint256)":"3a3f8239","getOrderCountdown(uint256)":"55a1883a","getOrderRealTimeYield(uint256)":"02318e53","getQuoteAmount(uint256)":"2a75d5f4","getStakingOrders()":"5655f4db","getUserInfo(address)":"6386c1c7","getUserRealTimeYield(address)":"abf194a0","getUserValidStakingAmount(address)":"666b0dab","getValidOrderIndexes(address)":"3fd004d7","index()":"2986c0e5","initialInviter()":"4e377201","initialize(address,address)":"485cc955","owner()":"8da5cb5b","proxiableUUID()":"52d1902d","renounceOwnership()":"715018a6","setConfig(address,address)":"b602024b","staking(uint256)":"1dbb2a22","stakingOrderInfo(uint256)":"bb8498cf","stakingOrders(uint256)":"789574d4","token()":"fc0c546a","transferOwnership(address)":"f2fde38b","uniswapV2Factory()":"59d0f713","upgradeToAndCall(address,bytes)":"4f1ef286","userInfo(address)":"1959a002"},"id":40}