{"abi":[{"type":"function","name":"BASE","inputs":[],"outputs":[{"name":"","type":"uint256","internalType":"uint256"}],"stateMutability":"view"},{"type":"function","name":"DEAD","inputs":[],"outputs":[{"name":"","type":"address","internalType":"address"}],"stateMutability":"view"},{"type":"function","name":"REWARD_RATE","inputs":[],"outputs":[{"name":"","type":"uint256","internalType":"uint256"}],"stateMutability":"view"},{"type":"function","name":"STAKE_PERIOD","inputs":[],"outputs":[{"name":"","type":"uint256","internalType":"uint256"}],"stateMutability":"view"},{"type":"function","name":"UPGRADE_INTERFACE_VERSION","inputs":[],"outputs":[{"name":"","type":"string","internalType":"string"}],"stateMutability":"view"},{"type":"function","name":"USDT","inputs":[],"outputs":[{"name":"","type":"address","internalType":"address"}],"stateMutability":"view"},{"type":"function","name":"_safeSwapAndAdd","inputs":[{"name":"amount","type":"uint256","internalType":"uint256"}],"outputs":[],"stateMutability":"nonpayable"},{"type":"function","name":"addLiquidity","inputs":[{"name":"amountToken","type":"uint256","internalType":"uint256"}],"outputs":[{"name":"_amountToken","type":"uint256","internalType":"uint256"},{"name":"_amountUsdt","type":"uint256","internalType":"uint256"},{"name":"_liquidityAmount","type":"uint256","internalType":"uint256"}],"stateMutability":"nonpayable"},{"type":"function","name":"bindInviter","inputs":[{"name":"inviter","type":"address","internalType":"address"}],"outputs":[],"stateMutability":"nonpayable"},{"type":"function","name":"claimAward","inputs":[{"name":"amount","type":"uint256","internalType":"uint256"}],"outputs":[],"stateMutability":"nonpayable"},{"type":"function","name":"claimOrder","inputs":[{"name":"orderIndex","type":"uint256","internalType":"uint256"}],"outputs":[],"stateMutability":"nonpayable"},{"type":"function","name":"getOrderCountdown","inputs":[{"name":"orderIndex","type":"uint256","internalType":"uint256"}],"outputs":[{"name":"","type":"uint256","internalType":"uint256"}],"stateMutability":"view"},{"type":"function","name":"getOrderRealTimeYield","inputs":[{"name":"orderIndex","type":"uint256","internalType":"uint256"}],"outputs":[{"name":"","type":"uint256","internalType":"uint256"}],"stateMutability":"view"},{"type":"function","name":"getQuoteAmount","inputs":[{"name":"amountToken","type":"uint256","internalType":"uint256"}],"outputs":[{"name":"amountUsdt","type":"uint256","internalType":"uint256"}],"stateMutability":"view"},{"type":"function","name":"getQuoteAmountToToken","inputs":[{"name":"amountUsdt","type":"uint256","internalType":"uint256"}],"outputs":[{"name":"amountToken","type":"uint256","internalType":"uint256"}],"stateMutability":"view"},{"type":"function","name":"getStakingOrders","inputs":[],"outputs":[{"name":"","type":"tuple[]","internalType":"struct IMining.StakingOrder[]","components":[{"name":"holder","type":"address","internalType":"address"},{"name":"amount","type":"uint256","internalType":"uint256"},{"name":"stakingTime","type":"uint256","internalType":"uint256"},{"name":"isExtracted","type":"bool","internalType":"bool"}]}],"stateMutability":"view"},{"type":"function","name":"getUserInfo","inputs":[{"name":"_user","type":"address","internalType":"address"}],"outputs":[{"name":"_inviter","type":"address","internalType":"address"},{"name":"_award","type":"uint256","internalType":"uint256"},{"name":"_usdtValue","type":"uint256","internalType":"uint256"},{"name":"_level","type":"uint8","internalType":"enum IMining.Level"},{"name":"_validOrderIndexes","type":"uint256[]","internalType":"uint256[]"},{"name":"_orderIndexes","type":"uint256[]","internalType":"uint256[]"},{"name":"_invitees","type":"address[]","internalType":"address[]"},{"name":"_awardRecords","type":"tuple[]","internalType":"struct IMining.AwardRecord[]","components":[{"name":"invitee","type":"address","internalType":"address"},{"name":"stakingAmount","type":"uint256","internalType":"uint256"},{"name":"awardAmount","type":"uint256","internalType":"uint256"},{"name":"awardTime","type":"uint256","internalType":"uint256"},{"name":"isLevelAward","type":"bool","internalType":"bool"}]}],"stateMutability":"view"},{"type":"function","name":"getUserRealTimeYield","inputs":[{"name":"userAddr","type":"address","internalType":"address"}],"outputs":[{"name":"total","type":"uint256","internalType":"uint256"}],"stateMutability":"view"},{"type":"function","name":"getUserValidStakingAmount","inputs":[{"name":"userAddr","type":"address","internalType":"address"}],"outputs":[{"name":"totalAmount","type":"uint256","internalType":"uint256"}],"stateMutability":"view"},{"type":"function","name":"getUserValidStakingAmountForUsdt","inputs":[{"name":"userAddr","type":"address","internalType":"address"}],"outputs":[{"name":"totalUsdt","type":"uint256","internalType":"uint256"}],"stateMutability":"view"},{"type":"function","name":"getValidOrderIndexes","inputs":[{"name":"_user","type":"address","internalType":"address"}],"outputs":[{"name":"","type":"uint256[]","internalType":"uint256[]"}],"stateMutability":"view"},{"type":"function","name":"index","inputs":[],"outputs":[{"name":"","type":"uint256","internalType":"uint256"}],"stateMutability":"view"},{"type":"function","name":"initialize","inputs":[{"name":"_token","type":"address","internalType":"address"},{"name":"_lp","type":"address","internalType":"address"}],"outputs":[],"stateMutability":"nonpayable"},{"type":"function","name":"liquidityAmount","inputs":[{"name":"","type":"address","internalType":"address"}],"outputs":[{"name":"","type":"uint256","internalType":"uint256"}],"stateMutability":"view"},{"type":"function","name":"lp","inputs":[],"outputs":[{"name":"","type":"address","internalType":"address"}],"stateMutability":"view"},{"type":"function","name":"owner","inputs":[],"outputs":[{"name":"","type":"address","internalType":"address"}],"stateMutability":"view"},{"type":"function","name":"proxiableUUID","inputs":[],"outputs":[{"name":"","type":"bytes32","internalType":"bytes32"}],"stateMutability":"view"},{"type":"function","name":"raisefunds","inputs":[{"name":"amountUsdt","type":"uint256","internalType":"uint256"}],"outputs":[],"stateMutability":"nonpayable"},{"type":"function","name":"removeLiquidity","inputs":[{"name":"_liquidity","type":"uint256","internalType":"uint256"}],"outputs":[],"stateMutability":"nonpayable"},{"type":"function","name":"removeLiquidityOfRaiseFunds","inputs":[],"outputs":[],"stateMutability":"nonpayable"},{"type":"function","name":"renounceOwnership","inputs":[],"outputs":[],"stateMutability":"nonpayable"},{"type":"function","name":"serchLiquidityBalance","inputs":[{"name":"_user","type":"address","internalType":"address"}],"outputs":[{"name":"","type":"uint256","internalType":"uint256"}],"stateMutability":"view"},{"type":"function","name":"setConfig","inputs":[{"name":"_token","type":"address","internalType":"address"},{"name":"_lp","type":"address","internalType":"address"}],"outputs":[],"stateMutability":"nonpayable"},{"type":"function","name":"staking","inputs":[{"name":"amountToken","type":"uint256","internalType":"uint256"}],"outputs":[],"stateMutability":"nonpayable"},{"type":"function","name":"stakingOrderInfo","inputs":[{"name":"","type":"uint256","internalType":"uint256"}],"outputs":[{"name":"holder","type":"address","internalType":"address"},{"name":"amount","type":"uint256","internalType":"uint256"},{"name":"stakingTime","type":"uint256","internalType":"uint256"},{"name":"isExtracted","type":"bool","internalType":"bool"}],"stateMutability":"view"},{"type":"function","name":"stakingOrders","inputs":[{"name":"","type":"uint256","internalType":"uint256"}],"outputs":[{"name":"holder","type":"address","internalType":"address"},{"name":"amount","type":"uint256","internalType":"uint256"},{"name":"stakingTime","type":"uint256","internalType":"uint256"},{"name":"isExtracted","type":"bool","internalType":"bool"}],"stateMutability":"view"},{"type":"function","name":"token","inputs":[],"outputs":[{"name":"","type":"address","internalType":"address"}],"stateMutability":"view"},{"type":"function","name":"transferOwnership","inputs":[{"name":"newOwner","type":"address","internalType":"address"}],"outputs":[],"stateMutability":"nonpayable"},{"type":"function","name":"uniswapV2Factory","inputs":[],"outputs":[{"name":"","type":"address","internalType":"address"}],"stateMutability":"view"},{"type":"function","name":"uniswapV2Router","inputs":[],"outputs":[{"name":"","type":"address","internalType":"address"}],"stateMutability":"view"},{"type":"function","name":"upgradeToAndCall","inputs":[{"name":"newImplementation","type":"address","internalType":"address"},{"name":"data","type":"bytes","internalType":"bytes"}],"outputs":[],"stateMutability":"payable"},{"type":"function","name":"userInfo","inputs":[{"name":"","type":"address","internalType":"address"}],"outputs":[{"name":"inviter","type":"address","internalType":"address"},{"name":"award","type":"uint256","internalType":"uint256"},{"name":"usdtValue","type":"uint256","internalType":"uint256"},{"name":"level","type":"uint8","internalType":"enum IMining.Level"}],"stateMutability":"view"},{"type":"event","name":"Initialized","inputs":[{"name":"version","type":"uint64","indexed":false,"internalType":"uint64"}],"anonymous":false},{"type":"event","name":"OwnershipTransferred","inputs":[{"name":"previousOwner","type":"address","indexed":true,"internalType":"address"},{"name":"newOwner","type":"address","indexed":true,"internalType":"address"}],"anonymous":false},{"type":"event","name":"Upgraded","inputs":[{"name":"implementation","type":"address","indexed":true,"internalType":"address"}],"anonymous":false},{"type":"error","name":"AddressEmptyCode","inputs":[{"name":"target","type":"address","internalType":"address"}]},{"type":"error","name":"ERC1967InvalidImplementation","inputs":[{"name":"implementation","type":"address","internalType":"address"}]},{"type":"error","name":"ERC1967NonPayable","inputs":[]},{"type":"error","name":"FailedCall","inputs":[]},{"type":"error","name":"InvalidInitialization","inputs":[]},{"type":"error","name":"NotInitializing","inputs":[]},{"type":"error","name":"OwnableInvalidOwner","inputs":[{"name":"owner","type":"address","internalType":"address"}]},{"type":"error","name":"OwnableUnauthorizedAccount","inputs":[{"name":"account","type":"address","internalType":"address"}]},{"type":"error","name":"ReentrancyGuardReentrantCall","inputs":[]},{"type":"error","name":"UUPSUnauthorizedCallContext","inputs":[]},{"type":"error","name":"UUPSUnsupportedProxiableUUID","inputs":[{"name":"slot","type":"bytes32","internalType":"bytes32"}]}],"bytecode":{"object":"0x60a0604052306080523480156012575f5ffd5b5060015f55608051613f3861003d5f395f818161294a015281816129730152612bce0152613f385ff3fe608060405260043610610249575f3560e01c806359d0f713116101345780639c8f9f23116100b3578063bb8498cf11610078578063bb8498cf14610783578063c54e44eb146107d0578063dd4b1823146107f0578063ec342ad014610806578063f2fde38b1461081b578063fc0c546a1461083a575f5ffd5b80639c8f9f23146106ca578063a14a9f8f146106e9578063abf194a014610708578063ad3cb1cc14610727578063b602024b14610764575f5ffd5b8063715018a6116100f9578063715018a6146105f1578063789574d4146106055780637cf0382f14610650578063805656551461066f5780638da5cb5b1461068e575f5ffd5b806359d0f7131461054557806362d284b21461056c5780636386c1c714610580578063666b0dab146105b357806370a8302a146105d2575f5ffd5b806336b4733d116101cb5780634f1ef286116101905780634f1ef2861461048f57806351c6590a146104a257806352d1902d146104dc57806355a1883a146104f05780635655f4db1461050f5780635997bb3714610530575f5ffd5b806336b4733d146103e75780633733b116146104065780633a3f8239146104255780633fd004d714610444578063485cc95514610470575f5ffd5b80631dbb2a22116102115780631dbb2a221461034a5780632986c0e5146103695780632a75d5f41461037e578063313c06a01461039d57806335e344f2146103bc575f5ffd5b806302318e531461024d57806303fd2a451461027f57806308254f51146102ac5780631694505e146102cd5780631959a002146102ed575b5f5ffd5b348015610258575f5ffd5b5061026c610267366004613839565b610859565b6040519081526020015b60405180910390f35b34801561028a575f5ffd5b5061029461dead81565b6040516001600160a01b039091168152602001610276565b3480156102b7575f5ffd5b506102cb6102c6366004613839565b61092f565b005b3480156102d8575f5ffd5b506102945f516020613ea35f395f51905f5281565b3480156102f8575f5ffd5b5061033a610307366004613864565b60056020525f908152604090208054600182015460028301546003909301546001600160a01b0390921692909160ff1684565b60405161027694939291906138b3565b348015610355575f5ffd5b506102cb610364366004613839565b610a17565b348015610374575f5ffd5b5061026c60035481565b348015610389575f5ffd5b5061026c610398366004613839565b610be1565b3480156103a8575f5ffd5b50600254610294906001600160a01b031681565b3480156103c7575f5ffd5b5061026c6103d6366004613864565b60066020525f908152604090205481565b3480156103f2575f5ffd5b5061026c610401366004613864565b610c37565b348015610411575f5ffd5b5061026c610420366004613839565b610ca9565b348015610430575f5ffd5b506102cb61043f366004613839565b610ce9565b34801561044f575f5ffd5b5061046361045e366004613864565b610e1b565b6040516102769190613918565b34801561047b575f5ffd5b506102cb61048a36600461392a565b611117565b6102cb61049d366004613975565b61124d565b3480156104ad575f5ffd5b506104c16104bc366004613839565b61126c565b60408051938452602084019290925290820152606001610276565b3480156104e7575f5ffd5b5061026c6112b3565b3480156104fb575f5ffd5b5061026c61050a366004613839565b6112ce565b34801561051a575f5ffd5b50610523611357565b6040516102769190613a3b565b34801561053b575f5ffd5b5061026c610bb881565b348015610550575f5ffd5b5061029473ca143ce32fe78f1f7019d7d551a6402fc5350c7381565b348015610577575f5ffd5b506102cb6113e4565b34801561058b575f5ffd5b5061059f61059a366004613864565b611634565b604051610276989796959493929190613ae4565b3480156105be575f5ffd5b5061026c6105cd366004613864565b611850565b3480156105dd575f5ffd5b5061026c6105ec366004613864565b6118db565b3480156105fc575f5ffd5b506102cb6118e8565b348015610610575f5ffd5b5061062461061f366004613839565b6118fb565b604080516001600160a01b03909516855260208501939093529183015215156060820152608001610276565b34801561065b575f5ffd5b506102cb61066a366004613839565b611940565b34801561067a575f5ffd5b506102cb610689366004613839565b611a19565b348015610699575f5ffd5b507f9016d09d72d40fdae2fd8ceac6b6234c7706214fd39c1cd1e609a0528c199300546001600160a01b0316610294565b3480156106d5575f5ffd5b506102cb6106e4366004613839565b611cb9565b3480156106f4575f5ffd5b506102cb610703366004613864565b611de6565b348015610713575f5ffd5b5061026c610722366004613864565b611f20565b348015610732575f5ffd5b50610757604051806040016040528060058152602001640352e302e360dc1b81525081565b6040516102769190613bca565b34801561076f575f5ffd5b506102cb61077e36600461392a565b611fa3565b34801561078e575f5ffd5b5061062461079d366004613839565b60046020525f908152604090208054600182015460028301546003909301546001600160a01b0390921692909160ff1684565b3480156107db575f5ffd5b506102945f516020613ee35f395f51905f5281565b3480156107fb575f5ffd5b5061026c62278d0081565b348015610811575f5ffd5b5061026c61271081565b348015610826575f5ffd5b506102cb610835366004613864565b61201e565b348015610845575f5ffd5b50600154610294906001600160a01b031681565b5f818152600460209081526040808320815160808101835281546001600160a01b0316815260018201549381018490526002820154928101929092526003015460ff1615156060820152908290612710906108b790610bb890613c13565b6108c19190613c2a565b82602001516108d09190613c49565b90505f826040015142116108e4575f6108f3565b60408301516108f39042613c5c565b905062278d00811061090757509392505050565b61091462278d0083613c2a565b61091e9082613c13565b95945050505050565b505050919050565b610937612058565b335f90815260056020526040902060018101548211156109935760405162461bcd60e51b815260206004820152601260248201527127379030bbb0b932103a379031b630b4b69760711b60448201526064015b60405180910390fd5b81816001015f8282546109a69190613c5c565b90915550506001546040516340c10f1960e01b81526001600160a01b03909116906340c10f19906109dd9033908690600401613c6f565b5f604051808303815f87803b1580156109f4575f5ffd5b505af1158015610a06573d5f5f3e3d5ffd5b5050505050610a1460015f55565b50565b335f8181526005602052604090206001549091610a41916001600160a01b03169061dead85612080565b60408051608081018252338082526020808301868152428486019081525f606086018181526007805460018181018355918452885160049182027fa66cc928b5edb82af9bd49922954155ab7b0942694bea4ce44661d9a8736c688810180546001600160a01b039384166001600160a01b03199182161790915588517fa66cc928b5edb82af9bd49922954155ab7b0942694bea4ce44661d9a8736c68983015587517fa66cc928b5edb82af9bd49922954155ab7b0942694bea4ce44661d9a8736c68a83015585517fa66cc928b5edb82af9bd49922954155ab7b0942694bea4ce44661d9a8736c68b909201805492151560ff19938416179055600380548852848b528d88208d51815490861690841617815599518a870155975160028a01559451978701805498151598909116979097179096558454908b01805480840182559085528785200155895490941682526005808652978220909701805493840181558152928320909101805490951690921790935580549192610bc383613c88565b9190505550610bd233846121ab565b610bdc3384612642565b505050565b6001545f9081908190610c209073ca143ce32fe78f1f7019d7d551a6402fc5350c73906001600160a01b03165f516020613ee35f395f51905f52612764565b91509150610c2f848383612829565b949350505050565b6002546040516370a0823160e01b81526001600160a01b0383811660048301525f9216906370a0823190602401602060405180830381865afa158015610c7f573d5f5f3e3d5ffd5b505050506040513d601f19601f82011682018060405250810190610ca39190613ca0565b92915050565b6001545f9081908190610c209073ca143ce32fe78f1f7019d7d551a6402fc5350c73905f516020613ee35f395f51905f52906001600160a01b0316612764565b610cf1612058565b5f81815260046020526040902080546001600160a01b03163314610d4e5760405162461bcd60e51b81526020600482015260146024820152732737ba103a34329037b93232b91037bbb732b91760611b604482015260640161098a565b600381015460ff1615610d965760405162461bcd60e51b815260206004820152601060248201526f20b63932b0b23c9031b630b4b6b2b21760811b604482015260640161098a565b5f610da083610859565b60038301805460ff19166001908117909155546040516340c10f1960e01b81529192506001600160a01b0316906340c10f1990610de39033908590600401613c6f565b5f604051808303815f87803b158015610dfa575f5ffd5b505af1158015610e0c573d5f5f3e3d5ffd5b505050505050610a1460015f55565b6001600160a01b038082165f908152600560208181526040808420815160e081018352815490961686526001810154928601929092526002820154908501526003810154606094928386019160ff1690811115610e7a57610e7a61387f565b6005811115610e8b57610e8b61387f565b815260200160048201805480602002602001604051908101604052809291908181526020018280548015610edc57602002820191905f5260205f20905b815481526020019060010190808311610ec8575b5050505050815260200160058201805480602002602001604051908101604052809291908181526020018280548015610f3c57602002820191905f5260205f20905b81546001600160a01b03168152600190910190602001808311610f1e575b5050505050815260200160068201805480602002602001604051908101604052809291908181526020015f905b82821015610fd4575f8481526020908190206040805160a0810182526005860290920180546001600160a01b0316835260018082015484860152600282015492840192909252600381015460608401526004015460ff16151560808301529083529092019101610f69565b505050915250506080810151519091505f805b82811015611045575f8460800151828151811061100657611006613cb7565b6020908102919091018101515f818152600490925260409091206003015490915060ff1661103c578261103881613c88565b9350505b50600101610fe7565b505f8167ffffffffffffffff81111561106057611060613961565b604051908082528060200260200182016040528015611089578160200160208202803683370190505b5090505f805b8481101561110b575f866080015182815181106110ae576110ae613cb7565b6020908102919091018101515f818152600490925260409091206003015490915060ff1661110257808484815181106110e9576110e9613cb7565b6020908102919091010152826110fe81613c88565b9350505b5060010161108f565b50909695505050505050565b5f611120612907565b805490915060ff600160401b820416159067ffffffffffffffff165f811580156111475750825b90505f8267ffffffffffffffff1660011480156111635750303b155b905081158015611171575080155b1561118f5760405163f92ee8a960e01b815260040160405180910390fd5b845467ffffffffffffffff1916600117855583156111b957845460ff60401b1916600160401b1785555b6111c23361292f565b6111ca612937565b600180546001600160a01b03808a166001600160a01b03199283161790925560028054928916929091169190911790555f600355831561124457845460ff60401b19168555604051600181527fc7f505b2f371ae2175ee4913f4499e1f2633a7b5936321eed1cdaeb6115181d29060200160405180910390a15b50505050505050565b61125561293f565b61125e826129e3565b61126882826129eb565b5050565b5f5f5f5f61127985610be1565b6001549091506112a5906001600160a01b03165f516020613ee35f395f51905f5287845f803342612aa7565b919790965090945092505050565b5f6112bc612bc3565b505f516020613ec35f395f51905f5290565b5f818152600460209081526040808320815160808101835281546001600160a01b0316815260018201549381019390935260028101549183018290526003015460ff161515606083015282904211611326575f611335565b60408201516113359042613c5c565b905062278d00811061134a57505f9392505050565b610c2f8162278d00613c5c565b60606007805480602002602001604051908101604052809291908181526020015f905b828210156113db575f848152602090819020604080516080810182526004860290920180546001600160a01b03168352600180820154848601526002820154928401929092526003015460ff1615156060830152908352909201910161137a565b50505050905090565b335f9081526006602052604090205461143f5760405162461bcd60e51b815260206004820152601760248201527f4e6f206c697175696469747920746f2072656d6f76652e000000000000000000604482015260640161098a565b335f908152600660205260409081902054600254915163095ea7b360e01b815290916001600160a01b03169063095ea7b39061148e905f516020613ea35f395f51905f52908590600401613c6f565b6020604051808303815f875af11580156114aa573d5f5f3e3d5ffd5b505050506040513d601f19601f820116820180604052508101906114ce9190613ccb565b50600154604051635d5155ef60e11b81525f9182915f516020613ea35f395f51905f529163baa2abde91611529915f516020613ee35f395f51905f52916001600160a01b039091169088908790819033904290600401613cea565b60408051808303815f875af1158015611544573d5f5f3e3d5ffd5b505050506040513d601f19601f820116820180604052508101906115689190613d2a565b335f908152600660205260408120559092509050811561159a5761159a5f516020613ee35f395f51905f523384612c0c565b5f6115a6600283613c2a565b905081156115c7576001546115c7906001600160a01b031661dead83612c0c565b604051637cf0382f60e01b8152600481018290523090637cf0382f906024015f604051808303815f87803b1580156115fd575f5ffd5b505af192505050801561160e575060015b61162e578060085f8282546116239190613c49565b9091555061162e9050565b50505050565b6001600160a01b038082165f908152600560208181526040808420815160e081018352815490961686526001810154928601929092526002820154908501526003810154929384938493849360609384938493849388939290918386019160ff16908111156116a5576116a561387f565b60058111156116b6576116b661387f565b81526020016004820180548060200260200160405190810160405280929190818152602001828054801561170757602002820191905f5260205f20905b8154815260200190600101908083116116f3575b505050505081526020016005820180548060200260200160405190810160405280929190818152602001828054801561176757602002820191905f5260205f20905b81546001600160a01b03168152600190910190602001808311611749575b5050505050815260200160068201805480602002602001604051908101604052809291908181526020015f905b828210156117ff575f8481526020908190206040805160a0810182526005860290920180546001600160a01b0316835260018082015484860152600282015492840192909252600381015460608401526004015460ff16151560808301529083529092019101611794565b50505050815250509050805f015198508060200151975080604001519650806060015195508060a0015192508060c001519150806080015193506118428a610e1b565b945050919395975091939597565b6001600160a01b0381165f9081526005602052604081206004810154825b81811015610927575f83600401828154811061188c5761188c613cb7565b5f918252602080832090910154808352600490915260409091206003015490915060ff166118d2575f818152600460205260409020600101546118cf9086613c49565b94505b5060010161186e565b5f610ca361039883611850565b6118f0612d1d565b6118f95f612d78565b565b6007818154811061190a575f80fd5b5f91825260209091206004909102018054600182015460028301546003909301546001600160a01b039092169350919060ff1684565b33301461197b5760405162461bcd60e51b81526020600482015260096024820152682327a92124a22222a760b91b604482015260640161098a565b5f611987600283613c2a565b905061199281612de8565b6040516370a0823160e01b81523060048201525f905f516020613ee35f395f51905f52906370a0823190602401602060405180830381865afa1580156119da573d5f5f3e3d5ffd5b505050506040513d601f19601f820116820180604052508101906119fe9190613ca0565b90508015610bdc57610bdc611a138385613c5c565b82612f54565b611a325f516020613ee35f395f51905f52333084612080565b5f611a3c82610ca9565b6001546040516340c10f1960e01b81529192506001600160a01b0316906340c10f1990611a6f9030908590600401613c6f565b5f604051808303815f87803b158015611a86575f5ffd5b505af1158015611a98573d5f5f3e3d5ffd5b505060405163095ea7b360e01b81525f516020613ee35f395f51905f52925063095ea7b39150611adb905f516020613ea35f395f51905f52908690600401613c6f565b6020604051808303815f875af1158015611af7573d5f5f3e3d5ffd5b505050506040513d601f19601f82011682018060405250810190611b1b9190613ccb565b5060015460405163095ea7b360e01b81526001600160a01b039091169063095ea7b390611b5b905f516020613ea35f395f51905f52908590600401613c6f565b6020604051808303815f875af1158015611b77573d5f5f3e3d5ffd5b505050506040513d601f19601f82011682018060405250810190611b9b9190613ccb565b5060015460405162e8e33760e81b81525f91829182915f516020613ea35f395f51905f529163e8e3370091611bf9916001600160a01b03909116905f516020613ee35f395f51905f529089908b908890819030904290600401613d4c565b6060604051808303815f875af1158015611c15573d5f5f3e3d5ffd5b505050506040513d601f19601f82011682018060405250810190611c399190613d95565b335f90815260066020526040812080549497509295509093508392611c5f908490613c49565b909155505081851115611c8d57611c8d5f516020613ee35f395f51905f5233611c888589613c5c565b612c0c565b82841115611cb257600154611cb2906001600160a01b031661dead611c888688613c5c565b5050505050565b600254611cd1906001600160a01b0316333084612080565b60025460405163095ea7b360e01b81526001600160a01b039091169063095ea7b390611d10905f516020613ea35f395f51905f52908590600401613c6f565b6020604051808303815f875af1158015611d2c573d5f5f3e3d5ffd5b505050506040513d601f19601f82011682018060405250810190611d509190613ccb565b50600154604051635d5155ef60e11b81525f516020613ea35f395f51905f529163baa2abde91611da7915f516020613ee35f395f51905f52916001600160a01b039091169086905f90819033904290600401613cea565b60408051808303815f875af1158015611dc2573d5f5f3e3d5ffd5b505050506040513d601f19601f82011682018060405250810190610bdc9190613d2a565b336001600160a01b03821603611e3e5760405162461bcd60e51b815260206004820181905260248201527f43616e6e6f742062696e6420796f757273656c6620617320696e76697465722e604482015260640161098a565b335f908152600560205260409020546001600160a01b031615611e9c5760405162461bcd60e51b815260206004820152601660248201527524b73b34ba32b91030b63932b0b23c903137bab7321760511b604482015260640161098a565b6001600160a01b038116611ef25760405162461bcd60e51b815260206004820152601f60248201527f496e76697465722063616e6e6f74206265207a65726f20616464726573732e00604482015260640161098a565b335f90815260056020526040902080546001600160a01b0319166001600160a01b0392909216919091179055565b6001600160a01b0381165f9081526005602052604081206004810154825b81811015610927575f836004018281548110611f5c57611f5c613cb7565b5f918252602080832090910154808352600490915260409091206003015490915060ff16611f9a57611f8d81610859565b611f979086613c49565b94505b50600101611f3e565b611fab612d1d565b6001600160a01b038216611ff05760405162461bcd60e51b815260206004820152600c60248201526b5a65726f206164647265737360a01b604482015260640161098a565b600180546001600160a01b039384166001600160a01b03199182161790915560028054929093169116179055565b612026612d1d565b6001600160a01b03811661204f57604051631e4fbdf760e01b81525f600482015260240161098a565b610a1481612d78565b60025f540361207a57604051633ee5aeb560e01b815260040160405180910390fd5b60025f55565b604080516001600160a01b0385811660248301528481166044830152606480830185905283518084039091018152608490920183526020820180516001600160e01b03166323b872dd60e01b17905291515f928392908816916120e39190613dc0565b5f604051808303815f865af19150503d805f811461211c576040519150601f19603f3d011682016040523d82523d5f602084013e612121565b606091505b509150915081801561214b57508051158061214b57508080602001905181019061214b9190613ccb565b6121a35760405162461bcd60e51b8152602060048201526024808201527f5472616e7366657248656c7065723a205452414e534645525f46524f4d5f46416044820152631253115160e21b606482015260840161098a565b505050505050565b6040805160a0810182526103e881526101f4602082015260fa91810191909152607d606082015261027160808201528290612710835f5b600581101561235f576001600160a01b038086165f908152600560205260409020541680612210575061235f565b61221b826001613c49565b6001600160a01b0382165f90815260056020819052604090912001541080159061224d57505f61224a82610e1b565b51115b15612355575f8486846005811061226657612266613cb7565b60200201516122759086613c13565b61227f9190613c2a565b6001600160a01b0383165f908152600560205260408120600101805492935083929091906122ae908490613c49565b90915550506001600160a01b038281165f908152600560208181526040808420815160a0810183528f871681528084018f81529281019788524260608201908152608082018781526006909301805460018082018355918952959097209151949095020180546001600160a01b031916939096169290921785555192840192909255925160028301559151600382015590516004909101805460ff19169115159190911790555b94506001016121e2565b505f8261236d836064613c13565b6123779190613c2a565b90505f612385600583613c2a565b905061238f61381b565b8896505f5b6001600160a01b03881615612636576001600160a01b038089165f9081526005602052604090205416806123c85750612636565b6001600160a01b0381165f9081526005602052604081206003015460ff16908160058111156123f9576123f961387f565b1461261f575f60018260058111156124135761241361387f565b61241d9190613c5c565b9050600581108015612443575084816005811061243c5761243c613cb7565b6020020151155b1561261d575f805b8281116124b75786816005811061246457612464613cb7565b60200201516124a5576124778883613c49565b9150600187826005811061248d5761248d613cb7565b91151560209092020152856124a181613c88565b9650505b806124af81613c88565b91505061244b565b50801561261b576001600160a01b0384165f90815260056020526040812060010180548392906124e8908490613c49565b90915550506040805160a0810182525f808252602082018190529181018290526060810182905260808101919091528e815f01906001600160a01b031690816001600160a01b0316815250508d8160200181815250508181604001818152505042816060018181525050600181608001901515908115158152505060055f866001600160a01b03166001600160a01b031681526020019081526020015f2060060181908060018154018082558091505060019003905f5260205f2090600502015f909190919091505f820151815f015f6101000a8154816001600160a01b0302191690836001600160a01b031602179055506020820151816001015560408201518160020155606082015181600301556080820151816004015f6101000a81548160ff0219169083151502179055505050505b505b505b6005831061262e575050612636565b509750612394565b50505050505050505050565b80825b6001600160a01b0381161561162e576001600160a01b038082165f908152600560205260409020541680612679575061162e565b6001600160a01b0381165f90815260056020526040812060020180548592906126a3908490613c49565b90915550506001600160a01b0381165f908152600560205260408120600201546126cc906130eb565b6001600160a01b0383165f9081526005602081905260409091206003015491925060ff909116908111156127025761270261387f565b8160058111156127145761271461387f565b111561275c576001600160a01b0382165f9081526005602081905260409091206003018054839260ff199091169060019084908111156127565761275661387f565b02179055505b509050612645565b5f5f5f6127718585613175565b5090505f5f61278188888861326b565b6001600160a01b0316630902f1ac6040518163ffffffff1660e01b8152600401606060405180830381865afa1580156127bc573d5f5f3e3d5ffd5b505050506040513d601f19601f820116820180604052508101906127e09190613dec565b506001600160701b031691506001600160701b03169150826001600160a01b0316876001600160a01b03161461281757808261281a565b81815b90999098509650505050505050565b5f5f84116128875760405162461bcd60e51b815260206004820152602560248201527f556e697377617056324c6962726172793a20494e53554646494349454e545f416044820152641353d5539560da1b606482015260840161098a565b5f8311801561289557505f82115b6128f25760405162461bcd60e51b815260206004820152602860248201527f556e697377617056324c6962726172793a20494e53554646494349454e545f4c604482015267495155494449545960c01b606482015260840161098a565b826128fd8584613341565b610c2f9190613c2a565b5f807ff0c57e16840df040f15088dc2f81fe391c3923bec73e23a9662efc9c229c6a00610ca3565b6120266133a7565b6118f96133a7565b306001600160a01b037f00000000000000000000000000000000000000000000000000000000000000001614806129c557507f00000000000000000000000000000000000000000000000000000000000000006001600160a01b03166129b95f516020613ec35f395f51905f52546001600160a01b031690565b6001600160a01b031614155b156118f95760405163703e46dd60e11b815260040160405180910390fd5b610a14612d1d565b816001600160a01b03166352d1902d6040518163ffffffff1660e01b8152600401602060405180830381865afa925050508015612a45575060408051601f3d908101601f19168201909252612a4291810190613ca0565b60015b612a6d57604051634c9c8ce360e01b81526001600160a01b038316600482015260240161098a565b5f516020613ec35f395f51905f528114612a9d57604051632a87526960e21b81526004810182905260240161098a565b610bdc83836133cc565b5f5f5f8342811015612afb5760405162461bcd60e51b815260206004820152601860248201527f556e69737761705632526f757465723a20455850495245440000000000000000604482015260640161098a565b612b098c8c8c8c8c8c613421565b90945092505f612b2e73ca143ce32fe78f1f7019d7d551a6402fc5350c738e8e61326b565b9050612b3c8d338388612080565b612b488c338387612080565b6040516335313c2160e11b81526001600160a01b038881166004830152821690636a627842906024016020604051808303815f875af1158015612b8d573d5f5f3e3d5ffd5b505050506040513d601f19601f82011682018060405250810190612bb19190613ca0565b92505050985098509895505050505050565b306001600160a01b037f000000000000000000000000000000000000000000000000000000000000000016146118f95760405163703e46dd60e11b815260040160405180910390fd5b5f5f846001600160a01b031663a9059cbb8585604051602401612c30929190613c6f565b6040516020818303038152906040529060e01b6020820180516001600160e01b038381831617835250505050604051612c699190613dc0565b5f604051808303815f865af19150503d805f8114612ca2576040519150601f19603f3d011682016040523d82523d5f602084013e612ca7565b606091505b5091509150818015612cd1575080511580612cd1575080806020019051810190612cd19190613ccb565b611cb25760405162461bcd60e51b815260206004820152601f60248201527f5472616e7366657248656c7065723a205452414e534645525f4641494c454400604482015260640161098a565b33612d4f7f9016d09d72d40fdae2fd8ceac6b6234c7706214fd39c1cd1e609a0528c199300546001600160a01b031690565b6001600160a01b0316146118f95760405163118cdaa760e01b815233600482015260240161098a565b7f9016d09d72d40fdae2fd8ceac6b6234c7706214fd39c1cd1e609a0528c19930080546001600160a01b031981166001600160a01b03848116918217845560405192169182907f8be0079c531659141344cd1fd0a4f28419497f9722a3daafe3b4186f6b6457e0905f90a3505050565b805f03612df25750565b6040805160028082526060820183525f9260208301908036833701905050905030815f81518110612e2557612e25613cb7565b60200260200101906001600160a01b031690816001600160a01b0316815250505f516020613ee35f395f51905f5281600181518110612e6657612e66613cb7565b6001600160a01b03928316602091820292909201015260015460405163095ea7b360e01b815291169063095ea7b390612eb2905f516020613ea35f395f51905f52908690600401613c6f565b6020604051808303815f875af1158015612ece573d5f5f3e3d5ffd5b505050506040513d601f19601f82011682018060405250810190612ef29190613ccb565b50604051635c11d79560e01b81525f516020613ea35f395f51905f5290635c11d79590612f2b9085905f90869030904290600401613e38565b5f604051808303815f87803b158015612f42575f5ffd5b505af11580156121a3573d5f5f3e3d5ffd5b60015460405163095ea7b360e01b81526001600160a01b039091169063095ea7b390612f93905f516020613ea35f395f51905f52908690600401613c6f565b6020604051808303815f875af1158015612faf573d5f5f3e3d5ffd5b505050506040513d601f19601f82011682018060405250810190612fd39190613ccb565b5060405163095ea7b360e01b81525f516020613ee35f395f51905f529063095ea7b390613013905f516020613ea35f395f51905f52908590600401613c6f565b6020604051808303815f875af115801561302f573d5f5f3e3d5ffd5b505050506040513d601f19601f820116820180604052508101906130539190613ccb565b5060015460405162e8e33760e81b81525f516020613ea35f395f51905f529163e8e33700916130ab916001600160a01b0316905f516020613ee35f395f51905f5290879087905f90819061dead904290600401613d4c565b6060604051808303815f875af11580156130c7573d5f5f3e3d5ffd5b505050506040513d601f19601f82011682018060405250810190611cb29190613d95565b5f69d3c21bcecceda1000000821061310557506005919050565b6969e10de76676d0800000821061311e57506004919050565b692a5a058fc295ed000000821061313757506003919050565b690a968163f0a57b400000821061315057506002919050565b69021e19e0c9bab2400000821061316957506001919050565b505f919050565b919050565b5f5f826001600160a01b0316846001600160a01b0316036131e65760405162461bcd60e51b815260206004820152602560248201527f556e697377617056324c6962726172793a204944454e544943414c5f41444452604482015264455353455360d81b606482015260840161098a565b826001600160a01b0316846001600160a01b031610613206578284613209565b83835b90925090506001600160a01b0382166132645760405162461bcd60e51b815260206004820152601e60248201527f556e697377617056324c6962726172793a205a45524f5f414444524553530000604482015260640161098a565b9250929050565b5f5f5f6132788585613175565b6040516bffffffffffffffffffffffff19606084811b8216602084015283901b166034820152919350915086906048016040516020818303038152906040528051906020012060405160200161331f9291906001600160f81b0319815260609290921b6bffffffffffffffffffffffff1916600183015260158201527efb7f630766e6a796048ea87d01acd3068e8ff67d078148a3fa3f4a84f69bd5603582015260550190565b60408051601f1981840301815291905280516020909101209695505050505050565b5f811580613364575082826133568183613c13565b92506133629083613c2a565b145b610ca35760405162461bcd60e51b815260206004820152601460248201527364732d6d6174682d6d756c2d6f766572666c6f7760601b604482015260640161098a565b6133af61368f565b6118f957604051631afcd79f60e31b815260040160405180910390fd5b6133d5826136a8565b6040516001600160a01b038316907fbc7cd75a20ee27fd9adebab32041f755214dbc6bffa90cc0225b39da2e5c2d3b905f90a280511561341957610bdc828261370b565b611268613774565b60405163e6a4390560e01b81526001600160a01b038088166004830152861660248201525f908190819073ca143ce32fe78f1f7019d7d551a6402fc5350c739063e6a4390590604401602060405180830381865afa158015613485573d5f5f3e3d5ffd5b505050506040513d601f19601f820116820180604052508101906134a99190613e73565b6001600160a01b03160361353c576040516364e329cb60e11b81526001600160a01b03808a1660048301528816602482015273ca143ce32fe78f1f7019d7d551a6402fc5350c739063c9c65396906044016020604051808303815f875af1158015613516573d5f5f3e3d5ffd5b505050506040513d601f19601f8201168201806040525081019061353a9190613e73565b505b5f5f61355d73ca143ce32fe78f1f7019d7d551a6402fc5350c738b8b612764565b91509150815f14801561356e575080155b1561357e57879350869250613682565b5f61358a898484612829565b90508781116135fd57858110156135f25760405162461bcd60e51b815260206004820152602660248201527f556e69737761705632526f757465723a20494e53554646494349454e545f425f604482015265105353d5539560d21b606482015260840161098a565b889450925082613680565b5f613609898486612829565b90508981111561361b5761361b613e8e565b8781101561367a5760405162461bcd60e51b815260206004820152602660248201527f556e69737761705632526f757465723a20494e53554646494349454e545f415f604482015265105353d5539560d21b606482015260840161098a565b94508793505b505b5050965096945050505050565b5f613698612907565b54600160401b900460ff16919050565b806001600160a01b03163b5f036136dd57604051634c9c8ce360e01b81526001600160a01b038216600482015260240161098a565b5f516020613ec35f395f51905f5280546001600160a01b0319166001600160a01b0392909216919091179055565b60605f5f846001600160a01b0316846040516137279190613dc0565b5f60405180830381855af49150503d805f811461375f576040519150601f19603f3d011682016040523d82523d5f602084013e613764565b606091505b509150915061091e858383613793565b34156118f95760405163b398979f60e01b815260040160405180910390fd5b6060826137a8576137a3826137f2565b6137eb565b81511580156137bf57506001600160a01b0384163b155b156137e857604051639996b31560e01b81526001600160a01b038516600482015260240161098a565b50805b9392505050565b8051156138025780518082602001fd5b60405163d6bda27560e01b815260040160405180910390fd5b6040518060a001604052806005906020820280368337509192915050565b5f60208284031215613849575f5ffd5b5035919050565b6001600160a01b0381168114610a14575f5ffd5b5f60208284031215613874575f5ffd5b81356137eb81613850565b634e487b7160e01b5f52602160045260245ffd5b600681106138af57634e487b7160e01b5f52602160045260245ffd5b9052565b6001600160a01b038516815260208101849052604081018390526080810161091e6060830184613893565b5f8151808452602084019350602083015f5b8281101561390e5781518652602095860195909101906001016138f0565b5093949350505050565b602081525f6137eb60208301846138de565b5f5f6040838503121561393b575f5ffd5b823561394681613850565b9150602083013561395681613850565b809150509250929050565b634e487b7160e01b5f52604160045260245ffd5b5f5f60408385031215613986575f5ffd5b823561399181613850565b9150602083013567ffffffffffffffff8111156139ac575f5ffd5b8301601f810185136139bc575f5ffd5b803567ffffffffffffffff8111156139d6576139d6613961565b604051601f8201601f19908116603f0116810167ffffffffffffffff81118282101715613a0557613a05613961565b604052818152828201602001871015613a1c575f5ffd5b816020840160208301375f602083830101528093505050509250929050565b602080825282518282018190525f918401906040840190835b81811015613aa057835180516001600160a01b03168452602080820151818601526040808301519086015260609182015115159185019190915290930192608090920191600101613a54565b509095945050505050565b5f8151808452602084019350602083015f5b8281101561390e5781516001600160a01b0316865260209586019590910190600101613abd565b6001600160a01b03891681526020810188905260408101879052613b0b6060820187613893565b61010060808201525f613b226101008301876138de565b82810360a0840152613b3481876138de565b905082810360c0840152613b488186613aab565b83810360e0850152845180825260208087019350909101905f5b81811015613bb857835180516001600160a01b031684526020808201518186015260408083015190860152606080830151908601526080918201511515918501919091529093019260a090920191600101613b62565b50909c9b505050505050505050505050565b602081525f82518060208401528060208501604085015e5f604082850101526040601f19601f83011684010191505092915050565b634e487b7160e01b5f52601160045260245ffd5b8082028115828204841417610ca357610ca3613bff565b5f82613c4457634e487b7160e01b5f52601260045260245ffd5b500490565b80820180821115610ca357610ca3613bff565b81810381811115610ca357610ca3613bff565b6001600160a01b03929092168252602082015260400190565b5f60018201613c9957613c99613bff565b5060010190565b5f60208284031215613cb0575f5ffd5b5051919050565b634e487b7160e01b5f52603260045260245ffd5b5f60208284031215613cdb575f5ffd5b815180151581146137eb575f5ffd5b6001600160a01b039788168152958716602087015260408601949094526060850192909252608084015290921660a082015260c081019190915260e00190565b5f5f60408385031215613d3b575f5ffd5b505080516020909101519092909150565b6001600160a01b039889168152968816602088015260408701959095526060860193909352608085019190915260a084015290921660c082015260e08101919091526101000190565b5f5f5f60608486031215613da7575f5ffd5b5050815160208301516040909301519094929350919050565b5f82518060208501845e5f920191825250919050565b80516001600160701b0381168114613170575f5ffd5b5f5f5f60608486031215613dfe575f5ffd5b613e0784613dd6565b9250613e1560208501613dd6565b9150604084015163ffffffff81168114613e2d575f5ffd5b809150509250925092565b85815284602082015260a060408201525f613e5660a0830186613aab565b6001600160a01b0394909416606083015250608001529392505050565b5f60208284031215613e83575f5ffd5b81516137eb81613850565b634e487b7160e01b5f52600160045260245ffdfe00000000000000000000000010ed43c718714eb63d5aa57b78b54704e256024e360894a13ba1a3210667c828492db98dca3e2076cc3735a920a3ca505d382bbc00000000000000000000000055d398326f99059ff775485246999027b3197955a2646970667358221220e1b7342b2a6d9c88ce45b8b9c376606eddbe5c7b454cd20529bcf79670cbe21064736f6c634300081c0033","linkReferences":{}},"methodIdentifiers":{"BASE()":"ec342ad0","DEAD()":"03fd2a45","REWARD_RATE()":"5997bb37","STAKE_PERIOD()":"dd4b1823","UPGRADE_INTERFACE_VERSION()":"ad3cb1cc","USDT()":"c54e44eb","_safeSwapAndAdd(uint256)":"7cf0382f","addLiquidity(uint256)":"51c6590a","bindInviter(address)":"a14a9f8f","claimAward(uint256)":"08254f51","claimOrder(uint256)":"3a3f8239","getOrderCountdown(uint256)":"55a1883a","getOrderRealTimeYield(uint256)":"02318e53","getQuoteAmount(uint256)":"2a75d5f4","getQuoteAmountToToken(uint256)":"3733b116","getStakingOrders()":"5655f4db","getUserInfo(address)":"6386c1c7","getUserRealTimeYield(address)":"abf194a0","getUserValidStakingAmount(address)":"666b0dab","getUserValidStakingAmountForUsdt(address)":"70a8302a","getValidOrderIndexes(address)":"3fd004d7","index()":"2986c0e5","initialize(address,address)":"485cc955","liquidityAmount(address)":"35e344f2","lp()":"313c06a0","owner()":"8da5cb5b","proxiableUUID()":"52d1902d","raisefunds(uint256)":"80565655","removeLiquidity(uint256)":"9c8f9f23","removeLiquidityOfRaiseFunds()":"62d284b2","renounceOwnership()":"715018a6","serchLiquidityBalance(address)":"36b4733d","setConfig(address,address)":"b602024b","staking(uint256)":"1dbb2a22","stakingOrderInfo(uint256)":"bb8498cf","stakingOrders(uint256)":"789574d4","token()":"fc0c546a","transferOwnership(address)":"f2fde38b","uniswapV2Factory()":"59d0f713","uniswapV2Router()":"1694505e","upgradeToAndCall(address,bytes)":"4f1ef286","userInfo(address)":"1959a002"},"id":41}