{"abi":[{"type":"function","name":"BASE","inputs":[],"outputs":[{"name":"","type":"uint256","internalType":"uint256"}],"stateMutability":"view"},{"type":"function","name":"DEAD","inputs":[],"outputs":[{"name":"","type":"address","internalType":"address"}],"stateMutability":"view"},{"type":"function","name":"REWARD_RATE","inputs":[],"outputs":[{"name":"","type":"uint256","internalType":"uint256"}],"stateMutability":"view"},{"type":"function","name":"STAKE_PERIOD","inputs":[],"outputs":[{"name":"","type":"uint256","internalType":"uint256"}],"stateMutability":"view"},{"type":"function","name":"UPGRADE_INTERFACE_VERSION","inputs":[],"outputs":[{"name":"","type":"string","internalType":"string"}],"stateMutability":"view"},{"type":"function","name":"USDT","inputs":[],"outputs":[{"name":"","type":"address","internalType":"address"}],"stateMutability":"view"},{"type":"function","name":"bindInviter","inputs":[{"name":"inviter","type":"address","internalType":"address"}],"outputs":[],"stateMutability":"nonpayable"},{"type":"function","name":"claimAward","inputs":[{"name":"amount","type":"uint256","internalType":"uint256"}],"outputs":[],"stateMutability":"nonpayable"},{"type":"function","name":"claimOrder","inputs":[{"name":"orderIndex","type":"uint256","internalType":"uint256"}],"outputs":[],"stateMutability":"nonpayable"},{"type":"function","name":"getOrderCountdown","inputs":[{"name":"orderIndex","type":"uint256","internalType":"uint256"}],"outputs":[{"name":"","type":"uint256","internalType":"uint256"}],"stateMutability":"view"},{"type":"function","name":"getOrderRealTimeYield","inputs":[{"name":"orderIndex","type":"uint256","internalType":"uint256"}],"outputs":[{"name":"","type":"uint256","internalType":"uint256"}],"stateMutability":"view"},{"type":"function","name":"getQuoteAmount","inputs":[{"name":"amountToken","type":"uint256","internalType":"uint256"}],"outputs":[{"name":"amountUsdt","type":"uint256","internalType":"uint256"}],"stateMutability":"view"},{"type":"function","name":"getStakingOrders","inputs":[],"outputs":[{"name":"","type":"tuple[]","internalType":"struct IMining.StakingOrder[]","components":[{"name":"holder","type":"address","internalType":"address"},{"name":"amount","type":"uint256","internalType":"uint256"},{"name":"stakingTime","type":"uint256","internalType":"uint256"},{"name":"isExtracted","type":"bool","internalType":"bool"}]}],"stateMutability":"view"},{"type":"function","name":"getUserInfo","inputs":[{"name":"_user","type":"address","internalType":"address"}],"outputs":[{"name":"_inviter","type":"address","internalType":"address"},{"name":"_award","type":"uint256","internalType":"uint256"},{"name":"_level","type":"uint8","internalType":"enum IMining.Level"},{"name":"_validOrderIndexes","type":"uint256[]","internalType":"uint256[]"},{"name":"_orderIndexes","type":"uint256[]","internalType":"uint256[]"},{"name":"_invitees","type":"address[]","internalType":"address[]"},{"name":"_awardRecords","type":"tuple[]","internalType":"struct IMining.AwardRecord[]","components":[{"name":"invitee","type":"address","internalType":"address"},{"name":"stakingAmount","type":"uint256","internalType":"uint256"},{"name":"awardAmount","type":"uint256","internalType":"uint256"},{"name":"awardTime","type":"uint256","internalType":"uint256"},{"name":"isLevelAward","type":"bool","internalType":"bool"}]}],"stateMutability":"view"},{"type":"function","name":"getUserRealTimeYield","inputs":[{"name":"userAddr","type":"address","internalType":"address"}],"outputs":[{"name":"total","type":"uint256","internalType":"uint256"}],"stateMutability":"view"},{"type":"function","name":"getValidOrderIndexes","inputs":[{"name":"_user","type":"address","internalType":"address"}],"outputs":[{"name":"","type":"uint256[]","internalType":"uint256[]"}],"stateMutability":"view"},{"type":"function","name":"index","inputs":[],"outputs":[{"name":"","type":"uint256","internalType":"uint256"}],"stateMutability":"view"},{"type":"function","name":"initialInviter","inputs":[],"outputs":[{"name":"","type":"address","internalType":"address"}],"stateMutability":"view"},{"type":"function","name":"initialize","inputs":[{"name":"_token","type":"address","internalType":"address"},{"name":"_initialInviter","type":"address","internalType":"address"}],"outputs":[],"stateMutability":"nonpayable"},{"type":"function","name":"owner","inputs":[],"outputs":[{"name":"","type":"address","internalType":"address"}],"stateMutability":"view"},{"type":"function","name":"proxiableUUID","inputs":[],"outputs":[{"name":"","type":"bytes32","internalType":"bytes32"}],"stateMutability":"view"},{"type":"function","name":"renounceOwnership","inputs":[],"outputs":[],"stateMutability":"nonpayable"},{"type":"function","name":"setConfig","inputs":[{"name":"_token","type":"address","internalType":"address"},{"name":"_initialInviter","type":"address","internalType":"address"}],"outputs":[],"stateMutability":"nonpayable"},{"type":"function","name":"staking","inputs":[{"name":"amountToken","type":"uint256","internalType":"uint256"}],"outputs":[],"stateMutability":"nonpayable"},{"type":"function","name":"stakingOrderInfo","inputs":[{"name":"","type":"uint256","internalType":"uint256"}],"outputs":[{"name":"holder","type":"address","internalType":"address"},{"name":"amount","type":"uint256","internalType":"uint256"},{"name":"stakingTime","type":"uint256","internalType":"uint256"},{"name":"isExtracted","type":"bool","internalType":"bool"}],"stateMutability":"view"},{"type":"function","name":"stakingOrders","inputs":[{"name":"","type":"uint256","internalType":"uint256"}],"outputs":[{"name":"holder","type":"address","internalType":"address"},{"name":"amount","type":"uint256","internalType":"uint256"},{"name":"stakingTime","type":"uint256","internalType":"uint256"},{"name":"isExtracted","type":"bool","internalType":"bool"}],"stateMutability":"view"},{"type":"function","name":"token","inputs":[],"outputs":[{"name":"","type":"address","internalType":"address"}],"stateMutability":"view"},{"type":"function","name":"transferOwnership","inputs":[{"name":"newOwner","type":"address","internalType":"address"}],"outputs":[],"stateMutability":"nonpayable"},{"type":"function","name":"uniswapV2Factory","inputs":[],"outputs":[{"name":"","type":"address","internalType":"address"}],"stateMutability":"view"},{"type":"function","name":"upgradeToAndCall","inputs":[{"name":"newImplementation","type":"address","internalType":"address"},{"name":"data","type":"bytes","internalType":"bytes"}],"outputs":[],"stateMutability":"payable"},{"type":"function","name":"userInfo","inputs":[{"name":"","type":"address","internalType":"address"}],"outputs":[{"name":"inviter","type":"address","internalType":"address"},{"name":"award","type":"uint256","internalType":"uint256"},{"name":"usdtValue","type":"uint256","internalType":"uint256"},{"name":"level","type":"uint8","internalType":"enum IMining.Level"}],"stateMutability":"view"},{"type":"event","name":"Initialized","inputs":[{"name":"version","type":"uint64","indexed":false,"internalType":"uint64"}],"anonymous":false},{"type":"event","name":"OwnershipTransferred","inputs":[{"name":"previousOwner","type":"address","indexed":true,"internalType":"address"},{"name":"newOwner","type":"address","indexed":true,"internalType":"address"}],"anonymous":false},{"type":"event","name":"Upgraded","inputs":[{"name":"implementation","type":"address","indexed":true,"internalType":"address"}],"anonymous":false},{"type":"error","name":"AddressEmptyCode","inputs":[{"name":"target","type":"address","internalType":"address"}]},{"type":"error","name":"ERC1967InvalidImplementation","inputs":[{"name":"implementation","type":"address","internalType":"address"}]},{"type":"error","name":"ERC1967NonPayable","inputs":[]},{"type":"error","name":"FailedCall","inputs":[]},{"type":"error","name":"InvalidInitialization","inputs":[]},{"type":"error","name":"NotInitializing","inputs":[]},{"type":"error","name":"OwnableInvalidOwner","inputs":[{"name":"owner","type":"address","internalType":"address"}]},{"type":"error","name":"OwnableUnauthorizedAccount","inputs":[{"name":"account","type":"address","internalType":"address"}]},{"type":"error","name":"ReentrancyGuardReentrantCall","inputs":[]},{"type":"error","name":"UUPSUnauthorizedCallContext","inputs":[]},{"type":"error","name":"UUPSUnsupportedProxiableUUID","inputs":[{"name":"slot","type":"bytes32","internalType":"bytes32"}]}],"bytecode":{"object":"0x60a0604052306080523480156012575f5ffd5b5060015f55608051612c6c61003d5f395f8181611fc901528181611ff201526121310152612c6c5ff3fe6080604052600436106101d0575f3560e01c80635997bb37116100fd578063ad3cb1cc11610092578063dd4b182311610062578063dd4b18231461060b578063ec342ad014610621578063f2fde38b14610636578063fc0c546a14610655575f5ffd5b8063ad3cb1cc1461053b578063b602024b14610578578063bb8498cf14610597578063c54e44eb146105e4575f5ffd5b8063789574d4116100cd578063789574d4146104765780638da5cb5b146104c1578063a14a9f8f146104fd578063abf194a01461051c575f5ffd5b80635997bb37146103f457806359d0f713146104095780636386c1c714610430578063715018a614610462575f5ffd5b80633a3f8239116101735780634f1ef286116101435780634f1ef2861461038d57806352d1902d146103a057806355a1883a146103b45780635655f4db146103d3575f5ffd5b80633a3f8239146103045780633fd004d714610323578063485cc9551461034f5780634e3772011461036e575f5ffd5b80631959a002116101ae5780631959a002146102545780631dbb2a22146102b15780632986c0e5146102d05780632a75d5f4146102e5575f5ffd5b806302318e53146101d457806303fd2a451461020657806308254f5114610233575b5f5ffd5b3480156101df575f5ffd5b506101f36101ee36600461271a565b610674565b6040519081526020015b60405180910390f35b348015610211575f5ffd5b5061021b61dead81565b6040516001600160a01b0390911681526020016101fd565b34801561023e575f5ffd5b5061025261024d36600461271a565b61074a565b005b34801561025f575f5ffd5b506102a161026e366004612747565b60056020525f908152604090208054600182015460028301546003909301546001600160a01b0390921692909160ff1684565b6040516101fd9493929190612794565b3480156102bc575f5ffd5b506102526102cb36600461271a565b610832565b3480156102db575f5ffd5b506101f360025481565b3480156102f0575f5ffd5b506101f36102ff36600461271a565b610acc565b34801561030f575f5ffd5b5061025261031e36600461271a565b610b29565b34801561032e575f5ffd5b5061034261033d366004612747565b610c5b565b6040516101fd91906127f9565b34801561035a575f5ffd5b5061025261036936600461280b565b610f57565b348015610379575f5ffd5b5060035461021b906001600160a01b031681565b61025261039b366004612850565b61108d565b3480156103ab575f5ffd5b506101f36110ac565b3480156103bf575f5ffd5b506101f36103ce36600461271a565b6110c7565b3480156103de575f5ffd5b506103e7611150565b6040516101fd9190612914565b3480156103ff575f5ffd5b506101f3610bb881565b348015610414575f5ffd5b5061021b73ca143ce32fe78f1f7019d7d551a6402fc5350c7381565b34801561043b575f5ffd5b5061044f61044a366004612747565b6111dd565b6040516101fd97969594939291906129ec565b34801561046d575f5ffd5b5061025261136e565b348015610481575f5ffd5b5061049561049036600461271a565b611381565b604080516001600160a01b039095168552602085019390935291830152151560608201526080016101fd565b3480156104cc575f5ffd5b507f9016d09d72d40fdae2fd8ceac6b6234c7706214fd39c1cd1e609a0528c199300546001600160a01b031661021b565b348015610508575f5ffd5b50610252610517366004612747565b6113c6565b348015610527575f5ffd5b506101f3610536366004612747565b6115a2565b348015610546575f5ffd5b5061056b604051806040016040528060058152602001640352e302e360dc1b81525081565b6040516101fd9190612a97565b348015610583575f5ffd5b5061025261059236600461280b565b611625565b3480156105a2575f5ffd5b506104956105b136600461271a565b60046020525f908152604090208054600182015460028301546003909301546001600160a01b0390921692909160ff1684565b3480156105ef575f5ffd5b5061021b7355d398326f99059ff775485246999027b319795581565b348015610616575f5ffd5b506101f362278d0081565b34801561062c575f5ffd5b506101f361271081565b348015610641575f5ffd5b50610252610650366004612747565b6116a0565b348015610660575f5ffd5b5060015461021b906001600160a01b031681565b5f818152600460209081526040808320815160808101835281546001600160a01b0316815260018201549381018490526002820154928101929092526003015460ff1615156060820152908290612710906106d290610bb890612ae0565b6106dc9190612af7565b82602001516106eb9190612b16565b90505f826040015142116106ff575f61070e565b604083015161070e9042612b29565b905062278d00811061072257509392505050565b61072f62278d0083612af7565b6107399082612ae0565b95945050505050565b505050919050565b6107526116da565b335f90815260056020526040902060018101548211156107ae5760405162461bcd60e51b815260206004820152601260248201527127379030bbb0b932103a379031b630b4b69760711b60448201526064015b60405180910390fd5b81816001015f8282546107c19190612b29565b90915550506001546040516340c10f1960e01b8152336004820152602481018490526001600160a01b03909116906340c10f19906044015f604051808303815f87803b15801561080f575f5ffd5b505af1158015610821573d5f5f3e3d5ffd5b505050505061082f60015f55565b50565b335f90815260056020526040902080546001600160a01b03166108a15760405162461bcd60e51b815260206004820152602160248201527f4e65656420746f2062696e642074686520696e766974657220616464726573736044820152601760f91b60648201526084016107a5565b68056bc75e2d631000006108b483610acc565b10156109105760405162461bcd60e51b815260206004820152602560248201527f4174206c65617374203130305553445420746f6b656e7320617265207265717560448201526434b932b21760d91b60648201526084016107a5565b60015461092a906001600160a01b03163361dead85611702565b60408051608081018252338082526020808301868152428486019081525f606086018181526006805460018181018355918452885160049182027ff652222313e28459528d920b65115c16c04f3efc82aaedc97be59f3f377c0d3f810180546001600160a01b039384166001600160a01b03199182161790915588517ff652222313e28459528d920b65115c16c04f3efc82aaedc97be59f3f377c0d4083015587517ff652222313e28459528d920b65115c16c04f3efc82aaedc97be59f3f377c0d4183015585517ff652222313e28459528d920b65115c16c04f3efc82aaedc97be59f3f377c0d42909201805492151560ff19938416179055600280548852848b528d88208d51815490861690841617815599518a8701559751898901559451600398909801805498151598909116979097179096558454908b01805480840182559085528785200155895490941682526005808652978220909701805493840181558152928320909101805490951690921790935580549192610aae83612b3c565b9190505550610abd338461182d565b610ac73384611cae565b505050565b6001545f9081908190610b129073ca143ce32fe78f1f7019d7d551a6402fc5350c73906001600160a01b03167355d398326f99059ff775485246999027b3197955611de1565b91509150610b21848383611ea6565b949350505050565b610b316116da565b5f81815260046020526040902080546001600160a01b03163314610b8e5760405162461bcd60e51b81526020600482015260146024820152732737ba103a34329037b93232b91037bbb732b91760611b60448201526064016107a5565b600381015460ff1615610bd65760405162461bcd60e51b815260206004820152601060248201526f20b63932b0b23c9031b630b4b6b2b21760811b60448201526064016107a5565b5f610be083610674565b60038301805460ff19166001908117909155546040516340c10f1960e01b8152336004820152602481018390529192506001600160a01b0316906340c10f19906044015f604051808303815f87803b158015610c3a575f5ffd5b505af1158015610c4c573d5f5f3e3d5ffd5b50505050505061082f60015f55565b6001600160a01b038082165f908152600560208181526040808420815160e081018352815490961686526001810154928601929092526002820154908501526003810154606094928386019160ff1690811115610cba57610cba612760565b6005811115610ccb57610ccb612760565b815260200160048201805480602002602001604051908101604052809291908181526020018280548015610d1c57602002820191905f5260205f20905b815481526020019060010190808311610d08575b5050505050815260200160058201805480602002602001604051908101604052809291908181526020018280548015610d7c57602002820191905f5260205f20905b81546001600160a01b03168152600190910190602001808311610d5e575b5050505050815260200160068201805480602002602001604051908101604052809291908181526020015f905b82821015610e14575f8481526020908190206040805160a0810182526005860290920180546001600160a01b0316835260018082015484860152600282015492840192909252600381015460608401526004015460ff16151560808301529083529092019101610da9565b505050915250506080810151519091505f805b82811015610e85575f84608001518281518110610e4657610e46612b54565b6020908102919091018101515f818152600490925260409091206003015490915060ff16610e7c5782610e7881612b3c565b9350505b50600101610e27565b505f8167ffffffffffffffff811115610ea057610ea061283c565b604051908082528060200260200182016040528015610ec9578160200160208202803683370190505b5090505f805b84811015610f4b575f86608001518281518110610eee57610eee612b54565b6020908102919091018101515f818152600490925260409091206003015490915060ff16610f425780848481518110610f2957610f29612b54565b602090810291909101015282610f3e81612b3c565b9350505b50600101610ecf565b50909695505050505050565b5f610f60611f84565b805490915060ff600160401b820416159067ffffffffffffffff165f81158015610f875750825b90505f8267ffffffffffffffff166001148015610fa35750303b155b905081158015610fb1575080155b15610fcf5760405163f92ee8a960e01b815260040160405180910390fd5b845467ffffffffffffffff191660011785558315610ff957845460ff60401b1916600160401b1785555b61100233611fae565b61100a611fb6565b600180546001600160a01b03808a166001600160a01b03199283161790925560038054928916929091169190911790555f600255831561108457845460ff60401b19168555604051600181527fc7f505b2f371ae2175ee4913f4499e1f2633a7b5936321eed1cdaeb6115181d29060200160405180910390a15b50505050505050565b611095611fbe565b61109e82612062565b6110a8828261206a565b5050565b5f6110b5612126565b505f516020612c175f395f51905f5290565b5f818152600460209081526040808320815160808101835281546001600160a01b0316815260018201549381019390935260028101549183018290526003015460ff16151560608301528290421161111f575f61112e565b604082015161112e9042612b29565b905062278d00811061114357505f9392505050565b610b218162278d00612b29565b60606006805480602002602001604051908101604052809291908181526020015f905b828210156111d4575f848152602090819020604080516080810182526004860290920180546001600160a01b03168352600180820154848601526002820154928401929092526003015460ff16151560608301529083529092019101611173565b50505050905090565b6001600160a01b038082165f9081526005602081815260409283902080546001820154600383015494830180548751818702810187019098528088529290971696909560ff9095169460609485948594859491939283018282801561126957602002820191905f5260205f20905b81546001600160a01b0316815260019091019060200180831161124b575b5050505050925080600601805480602002602001604051908101604052809291908181526020015f905b828210156112fe575f8481526020908190206040805160a0810182526005860290920180546001600160a01b0316835260018082015484860152600282015492840192909252600381015460608401526004015460ff16151560808301529083529092019101611293565b5050505091508060040180548060200260200160405190810160405280929190818152602001828054801561135057602002820191905f5260205f20905b81548152602001906001019080831161133c575b5050505050935061136089610c5b565b945050919395979092949650565b61137661216f565b61137f5f6121ca565b565b60068181548110611390575f80fd5b5f91825260209091206004909102018054600182015460028301546003909301546001600160a01b039092169350919060ff1684565b336001600160a01b0382160361141e5760405162461bcd60e51b815260206004820181905260248201527f43616e6e6f742062696e6420796f757273656c6620617320696e76697465722e60448201526064016107a5565b335f908152600560205260409020546001600160a01b03161561147c5760405162461bcd60e51b815260206004820152601660248201527524b73b34ba32b91030b63932b0b23c903137bab7321760511b60448201526064016107a5565b6001600160a01b0381166114d25760405162461bcd60e51b815260206004820152601f60248201527f496e76697465722063616e6e6f74206265207a65726f20616464726573732e0060448201526064016107a5565b6003546001600160a01b03828116911614611574576001600160a01b038181165f90815260056020526040902054161580159061152857506001600160a01b0381165f9081526005602052604090206004015415155b6115745760405162461bcd60e51b815260206004820152601b60248201527f496e7669746572206d75737420626520726567697374657265642e000000000060448201526064016107a5565b335f90815260056020526040902080546001600160a01b0319166001600160a01b0392909216919091179055565b6001600160a01b0381165f9081526005602052604081206004810154825b81811015610742575f8360040182815481106115de576115de612b54565b5f918252602080832090910154808352600490915260409091206003015490915060ff1661161c5761160f81610674565b6116199086612b16565b94505b506001016115c0565b61162d61216f565b6001600160a01b0382166116725760405162461bcd60e51b815260206004820152600c60248201526b5a65726f206164647265737360a01b60448201526064016107a5565b600180546001600160a01b039384166001600160a01b03199182161790915560038054929093169116179055565b6116a861216f565b6001600160a01b0381166116d157604051631e4fbdf760e01b81525f60048201526024016107a5565b61082f816121ca565b60025f54036116fc57604051633ee5aeb560e01b815260040160405180910390fd5b60025f55565b604080516001600160a01b0385811660248301528481166044830152606480830185905283518084039091018152608490920183526020820180516001600160e01b03166323b872dd60e01b17905291515f928392908816916117659190612b68565b5f604051808303815f865af19150503d805f811461179e576040519150601f19603f3d011682016040523d82523d5f602084013e6117a3565b606091505b50915091508180156117cd5750805115806117cd5750808060200190518101906117cd9190612b7e565b6118255760405162461bcd60e51b8152602060048201526024808201527f5472616e7366657248656c7065723a205452414e534645525f46524f4d5f46416044820152631253115160e21b60648201526084016107a5565b505050505050565b6040805160a0810182526103e881526101f4602082015260fa91810191909152607d606082015261027160808201528290612710835f5b60058110156119cb576001600160a01b038086165f90815260056020526040902054168061189257506119cb565b61189d826001612b16565b6001600160a01b0382165f9081526005602081905260409091200154106119c1575f848684600581106118d2576118d2612b54565b60200201516118e19086612ae0565b6118eb9190612af7565b6001600160a01b0383165f9081526005602052604081206001018054929350839290919061191a908490612b16565b90915550506001600160a01b038281165f908152600560208181526040808420815160a0810183528f871681528084018f81529281019788524260608201908152608082018781526006909301805460018082018355918952959097209151949095020180546001600160a01b031916939096169290921785555192840192909255925160028301559151600382015590516004909101805460ff19169115159190911790555b9450600101611864565b505f826119d9836064612ae0565b6119e39190612af7565b90505f6119f1600583612af7565b90506119fb6126fc565b8896505f5b6001600160a01b03881615611ca2576001600160a01b038089165f908152600560205260409020541680611a345750611ca2565b6001600160a01b0381165f9081526005602052604081206003015460ff1690816005811115611a6557611a65612760565b14611c8b575f6001826005811115611a7f57611a7f612760565b611a899190612b29565b9050600581108015611aaf5750848160058110611aa857611aa8612b54565b6020020151155b15611c89575f805b828111611b2357868160058110611ad057611ad0612b54565b6020020151611b1157611ae38883612b16565b91506001878260058110611af957611af9612b54565b9115156020909202015285611b0d81612b3c565b9650505b80611b1b81612b3c565b915050611ab7565b508015611c87576001600160a01b0384165f9081526005602052604081206001018054839290611b54908490612b16565b90915550506040805160a0810182525f808252602082018190529181018290526060810182905260808101919091528e815f01906001600160a01b031690816001600160a01b0316815250508d8160200181815250508181604001818152505042816060018181525050600181608001901515908115158152505060055f866001600160a01b03166001600160a01b031681526020019081526020015f2060060181908060018154018082558091505060019003905f5260205f2090600502015f909190919091505f820151815f015f6101000a8154816001600160a01b0302191690836001600160a01b031602179055506020820151816001015560408201518160020155606082015181600301556080820151816004015f6101000a81548160ff0219169083151502179055505050505b505b505b60058310611c9a575050611ca2565b509750611a00565b50505050505050505050565b5f611cb882610acc565b9050825b6001600160a01b03811615611ddb576001600160a01b038082165f908152600560205260409020541680611cf05750611ddb565b6001600160a01b0381165f9081526005602052604081206002018054859290611d1a908490612b16565b90915550506001600160a01b0381165f90815260056020526040812060020154611d439061223a565b6001600160a01b0383165f9081526005602081905260409091206003015491925060ff90911690811115611d7957611d79612760565b816005811115611d8b57611d8b612760565b1115611dd3576001600160a01b0382165f9081526005602081905260409091206003018054839260ff19909116906001908490811115611dcd57611dcd612760565b02179055505b509050611cbc565b50505050565b5f5f5f611dee85856122c4565b5090505f5f611dfe8888886123ba565b6001600160a01b0316630902f1ac6040518163ffffffff1660e01b8152600401606060405180830381865afa158015611e39573d5f5f3e3d5ffd5b505050506040513d601f19601f82011682018060405250810190611e5d9190612bb3565b506001600160701b031691506001600160701b03169150826001600160a01b0316876001600160a01b031614611e94578082611e97565b81815b90999098509650505050505050565b5f5f8411611f045760405162461bcd60e51b815260206004820152602560248201527f556e697377617056324c6962726172793a20494e53554646494349454e545f416044820152641353d5539560da1b60648201526084016107a5565b5f83118015611f1257505f82115b611f6f5760405162461bcd60e51b815260206004820152602860248201527f556e697377617056324c6962726172793a20494e53554646494349454e545f4c604482015267495155494449545960c01b60648201526084016107a5565b82611f7a8584612490565b610b219190612af7565b5f807ff0c57e16840df040f15088dc2f81fe391c3923bec73e23a9662efc9c229c6a005b92915050565b6116a86124f6565b61137f6124f6565b306001600160a01b037f000000000000000000000000000000000000000000000000000000000000000016148061204457507f00000000000000000000000000000000000000000000000000000000000000006001600160a01b03166120385f516020612c175f395f51905f52546001600160a01b031690565b6001600160a01b031614155b1561137f5760405163703e46dd60e11b815260040160405180910390fd5b61082f61216f565b816001600160a01b03166352d1902d6040518163ffffffff1660e01b8152600401602060405180830381865afa9250505080156120c4575060408051601f3d908101601f191682019092526120c191810190612bff565b60015b6120ec57604051634c9c8ce360e01b81526001600160a01b03831660048201526024016107a5565b5f516020612c175f395f51905f52811461211c57604051632a87526960e21b8152600481018290526024016107a5565b610ac7838361251b565b306001600160a01b037f0000000000000000000000000000000000000000000000000000000000000000161461137f5760405163703e46dd60e11b815260040160405180910390fd5b336121a17f9016d09d72d40fdae2fd8ceac6b6234c7706214fd39c1cd1e609a0528c199300546001600160a01b031690565b6001600160a01b03161461137f5760405163118cdaa760e01b81523360048201526024016107a5565b7f9016d09d72d40fdae2fd8ceac6b6234c7706214fd39c1cd1e609a0528c19930080546001600160a01b031981166001600160a01b03848116918217845560405192169182907f8be0079c531659141344cd1fd0a4f28419497f9722a3daafe3b4186f6b6457e0905f90a3505050565b5f69d3c21bcecceda1000000821061225457506005919050565b6969e10de76676d0800000821061226d57506004919050565b692a5a058fc295ed000000821061228657506003919050565b690a968163f0a57b400000821061229f57506002919050565b69021e19e0c9bab240000082106122b857506001919050565b505f919050565b919050565b5f5f826001600160a01b0316846001600160a01b0316036123355760405162461bcd60e51b815260206004820152602560248201527f556e697377617056324c6962726172793a204944454e544943414c5f41444452604482015264455353455360d81b60648201526084016107a5565b826001600160a01b0316846001600160a01b031610612355578284612358565b83835b90925090506001600160a01b0382166123b35760405162461bcd60e51b815260206004820152601e60248201527f556e697377617056324c6962726172793a205a45524f5f41444452455353000060448201526064016107a5565b9250929050565b5f5f5f6123c785856122c4565b6040516bffffffffffffffffffffffff19606084811b8216602084015283901b166034820152919350915086906048016040516020818303038152906040528051906020012060405160200161246e9291906001600160f81b0319815260609290921b6bffffffffffffffffffffffff1916600183015260158201527efb7f630766e6a796048ea87d01acd3068e8ff67d078148a3fa3f4a84f69bd5603582015260550190565b60408051601f1981840301815291905280516020909101209695505050505050565b5f8115806124b3575082826124a58183612ae0565b92506124b19083612af7565b145b611fa85760405162461bcd60e51b815260206004820152601460248201527364732d6d6174682d6d756c2d6f766572666c6f7760601b60448201526064016107a5565b6124fe612570565b61137f57604051631afcd79f60e31b815260040160405180910390fd5b61252482612589565b6040516001600160a01b038316907fbc7cd75a20ee27fd9adebab32041f755214dbc6bffa90cc0225b39da2e5c2d3b905f90a280511561256857610ac782826125ec565b6110a8612655565b5f612579611f84565b54600160401b900460ff16919050565b806001600160a01b03163b5f036125be57604051634c9c8ce360e01b81526001600160a01b03821660048201526024016107a5565b5f516020612c175f395f51905f5280546001600160a01b0319166001600160a01b0392909216919091179055565b60605f5f846001600160a01b0316846040516126089190612b68565b5f60405180830381855af49150503d805f8114612640576040519150601f19603f3d011682016040523d82523d5f602084013e612645565b606091505b5091509150610739858383612674565b341561137f5760405163b398979f60e01b815260040160405180910390fd5b60608261268957612684826126d3565b6126cc565b81511580156126a057506001600160a01b0384163b155b156126c957604051639996b31560e01b81526001600160a01b03851660048201526024016107a5565b50805b9392505050565b8051156126e35780518082602001fd5b60405163d6bda27560e01b815260040160405180910390fd5b6040518060a001604052806005906020820280368337509192915050565b5f6020828403121561272a575f5ffd5b5035919050565b80356001600160a01b03811681146122bf575f5ffd5b5f60208284031215612757575f5ffd5b6126cc82612731565b634e487b7160e01b5f52602160045260245ffd5b6006811061279057634e487b7160e01b5f52602160045260245ffd5b9052565b6001600160a01b03851681526020810184905260408101839052608081016107396060830184612774565b5f8151808452602084019350602083015f5b828110156127ef5781518652602095860195909101906001016127d1565b5093949350505050565b602081525f6126cc60208301846127bf565b5f5f6040838503121561281c575f5ffd5b61282583612731565b915061283360208401612731565b90509250929050565b634e487b7160e01b5f52604160045260245ffd5b5f5f60408385031215612861575f5ffd5b61286a83612731565b9150602083013567ffffffffffffffff811115612885575f5ffd5b8301601f81018513612895575f5ffd5b803567ffffffffffffffff8111156128af576128af61283c565b604051601f8201601f19908116603f0116810167ffffffffffffffff811182821017156128de576128de61283c565b6040528181528282016020018710156128f5575f5ffd5b816020840160208301375f602083830101528093505050509250929050565b602080825282518282018190525f918401906040840190835b8181101561297957835180516001600160a01b0316845260208082015181860152604080830151908601526060918201511515918501919091529093019260809092019160010161292d565b509095945050505050565b5f8151808452602084019350602083015f5b828110156127ef57815180516001600160a01b0316875260208082015181890152604080830151908901526060808301519089015260809182015115159188019190915260a09096019590910190600101612996565b6001600160a01b038816815260208101879052612a0c6040820187612774565b60e060608201525f612a2160e08301876127bf565b8281036080840152612a3381876127bf565b83810360a0850152855180825260208088019350909101905f5b81811015612a745783516001600160a01b0316835260209384019390920191600101612a4d565b505083810360c0850152612a888186612984565b9b9a5050505050505050505050565b602081525f82518060208401528060208501604085015e5f604082850101526040601f19601f83011684010191505092915050565b634e487b7160e01b5f52601160045260245ffd5b8082028115828204841417611fa857611fa8612acc565b5f82612b1157634e487b7160e01b5f52601260045260245ffd5b500490565b80820180821115611fa857611fa8612acc565b81810381811115611fa857611fa8612acc565b5f60018201612b4d57612b4d612acc565b5060010190565b634e487b7160e01b5f52603260045260245ffd5b5f82518060208501845e5f920191825250919050565b5f60208284031215612b8e575f5ffd5b815180151581146126cc575f5ffd5b80516001600160701b03811681146122bf575f5ffd5b5f5f5f60608486031215612bc5575f5ffd5b612bce84612b9d565b9250612bdc60208501612b9d565b9150604084015163ffffffff81168114612bf4575f5ffd5b809150509250925092565b5f60208284031215612c0f575f5ffd5b505191905056fe360894a13ba1a3210667c828492db98dca3e2076cc3735a920a3ca505d382bbca2646970667358221220573d1a708c5cf1cc7253d2ebb4d4db58b183d531942e4e92dba5fb8848b084b364736f6c634300081c0033","linkReferences":{}},"methodIdentifiers":{"BASE()":"ec342ad0","DEAD()":"03fd2a45","REWARD_RATE()":"5997bb37","STAKE_PERIOD()":"dd4b1823","UPGRADE_INTERFACE_VERSION()":"ad3cb1cc","USDT()":"c54e44eb","bindInviter(address)":"a14a9f8f","claimAward(uint256)":"08254f51","claimOrder(uint256)":"3a3f8239","getOrderCountdown(uint256)":"55a1883a","getOrderRealTimeYield(uint256)":"02318e53","getQuoteAmount(uint256)":"2a75d5f4","getStakingOrders()":"5655f4db","getUserInfo(address)":"6386c1c7","getUserRealTimeYield(address)":"abf194a0","getValidOrderIndexes(address)":"3fd004d7","index()":"2986c0e5","initialInviter()":"4e377201","initialize(address,address)":"485cc955","owner()":"8da5cb5b","proxiableUUID()":"52d1902d","renounceOwnership()":"715018a6","setConfig(address,address)":"b602024b","staking(uint256)":"1dbb2a22","stakingOrderInfo(uint256)":"bb8498cf","stakingOrders(uint256)":"789574d4","token()":"fc0c546a","transferOwnership(address)":"f2fde38b","uniswapV2Factory()":"59d0f713","upgradeToAndCall(address,bytes)":"4f1ef286","userInfo(address)":"1959a002"},"id":40}