{"abi":[{"type":"constructor","inputs":[{"name":"_name","type":"string","internalType":"string"},{"name":"_symbol","type":"string","internalType":"string"},{"name":"_initialRecipient","type":"address","internalType":"address"},{"name":"_exceedTaxWallet","type":"address","internalType":"address"}],"stateMutability":"nonpayable"},{"type":"function","name":"DEAD","inputs":[],"outputs":[{"name":"","type":"address","internalType":"address"}],"stateMutability":"view"},{"type":"function","name":"GASMAX","inputs":[],"outputs":[{"name":"","type":"uint256","internalType":"uint256"}],"stateMutability":"view"},{"type":"function","name":"MAX_BUY_USDT","inputs":[],"outputs":[{"name":"","type":"uint256","internalType":"uint256"}],"stateMutability":"view"},{"type":"function","name":"MIN_ADD_LIQUIDITY","inputs":[],"outputs":[{"name":"","type":"uint256","internalType":"uint256"}],"stateMutability":"view"},{"type":"function","name":"MIN_LIQUIDITY","inputs":[],"outputs":[{"name":"","type":"uint256","internalType":"uint256"}],"stateMutability":"view"},{"type":"function","name":"MIN_PROCESS_AWARD","inputs":[],"outputs":[{"name":"","type":"uint256","internalType":"uint256"}],"stateMutability":"view"},{"type":"function","name":"USDT","inputs":[],"outputs":[{"name":"","type":"address","internalType":"address"}],"stateMutability":"view"},{"type":"function","name":"_safeSwapAndAdd","inputs":[],"outputs":[],"stateMutability":"nonpayable"},{"type":"function","name":"allowance","inputs":[{"name":"owner","type":"address","internalType":"address"},{"name":"spender","type":"address","internalType":"address"}],"outputs":[{"name":"","type":"uint256","internalType":"uint256"}],"stateMutability":"view"},{"type":"function","name":"approve","inputs":[{"name":"spender","type":"address","internalType":"address"},{"name":"amount","type":"uint256","internalType":"uint256"}],"outputs":[{"name":"","type":"bool","internalType":"bool"}],"stateMutability":"nonpayable"},{"type":"function","name":"atTheOpeningOrder","inputs":[],"outputs":[{"name":"","type":"uint256","internalType":"uint256"}],"stateMutability":"view"},{"type":"function","name":"balanceOf","inputs":[{"name":"account","type":"address","internalType":"address"}],"outputs":[{"name":"","type":"uint256","internalType":"uint256"}],"stateMutability":"view"},{"type":"function","name":"canDes","inputs":[],"outputs":[{"name":"","type":"bool","internalType":"bool"}],"stateMutability":"view"},{"type":"function","name":"currentIndex","inputs":[],"outputs":[{"name":"","type":"uint256","internalType":"uint256"}],"stateMutability":"view"},{"type":"function","name":"decimals","inputs":[],"outputs":[{"name":"","type":"uint8","internalType":"uint8"}],"stateMutability":"view"},{"type":"function","name":"decreaseAllowance","inputs":[{"name":"spender","type":"address","internalType":"address"},{"name":"subtractedValue","type":"uint256","internalType":"uint256"}],"outputs":[{"name":"","type":"bool","internalType":"bool"}],"stateMutability":"nonpayable"},{"type":"function","name":"des","inputs":[],"outputs":[],"stateMutability":"nonpayable"},{"type":"function","name":"desRate","inputs":[],"outputs":[{"name":"","type":"uint256","internalType":"uint256"}],"stateMutability":"view"},{"type":"function","name":"deslimit","inputs":[],"outputs":[{"name":"","type":"uint256","internalType":"uint256"}],"stateMutability":"view"},{"type":"function","name":"exceedTaxWallet","inputs":[],"outputs":[{"name":"","type":"address","internalType":"address"}],"stateMutability":"view"},{"type":"function","name":"getAmountOutUSDT","inputs":[{"name":"tokenAmount","type":"uint256","internalType":"uint256"}],"outputs":[{"name":"","type":"uint256","internalType":"uint256"}],"stateMutability":"view"},{"type":"function","name":"getHolders","inputs":[],"outputs":[{"name":"","type":"address[]","internalType":"address[]"}],"stateMutability":"view"},{"type":"function","name":"getLpUsdtValue","inputs":[{"name":"lpAmount","type":"uint256","internalType":"uint256"}],"outputs":[{"name":"","type":"uint256","internalType":"uint256"}],"stateMutability":"view"},{"type":"function","name":"holders","inputs":[{"name":"","type":"uint256","internalType":"uint256"}],"outputs":[{"name":"","type":"address","internalType":"address"}],"stateMutability":"view"},{"type":"function","name":"increaseAllowance","inputs":[{"name":"spender","type":"address","internalType":"address"},{"name":"addedValue","type":"uint256","internalType":"uint256"}],"outputs":[{"name":"","type":"bool","internalType":"bool"}],"stateMutability":"nonpayable"},{"type":"function","name":"isExemptFromTax","inputs":[{"name":"","type":"address","internalType":"address"}],"outputs":[{"name":"","type":"bool","internalType":"bool"}],"stateMutability":"view"},{"type":"function","name":"lastDes","inputs":[],"outputs":[{"name":"","type":"uint256","internalType":"uint256"}],"stateMutability":"view"},{"type":"function","name":"lpOriginalOwner","inputs":[{"name":"","type":"address","internalType":"address"}],"outputs":[{"name":"","type":"address","internalType":"address"}],"stateMutability":"view"},{"type":"function","name":"mining","inputs":[],"outputs":[{"name":"","type":"address","internalType":"address"}],"stateMutability":"view"},{"type":"function","name":"mint","inputs":[{"name":"to","type":"address","internalType":"address"},{"name":"amount","type":"uint256","internalType":"uint256"}],"outputs":[],"stateMutability":"nonpayable"},{"type":"function","name":"name","inputs":[],"outputs":[{"name":"","type":"string","internalType":"string"}],"stateMutability":"view"},{"type":"function","name":"owner","inputs":[],"outputs":[{"name":"","type":"address","internalType":"address"}],"stateMutability":"view"},{"type":"function","name":"pancakePair","inputs":[],"outputs":[{"name":"","type":"address","internalType":"address"}],"stateMutability":"view"},{"type":"function","name":"pancakeRouter","inputs":[],"outputs":[{"name":"","type":"address","internalType":"contract IUniswapV2Router02"}],"stateMutability":"view"},{"type":"function","name":"process","inputs":[{"name":"isExchange","type":"bool","internalType":"bool"},{"name":"gas","type":"uint256","internalType":"uint256"}],"outputs":[],"stateMutability":"nonpayable"},{"type":"function","name":"receiveHelper","inputs":[],"outputs":[{"name":"","type":"address","internalType":"address"}],"stateMutability":"view"},{"type":"function","name":"renounceOwnership","inputs":[],"outputs":[],"stateMutability":"nonpayable"},{"type":"function","name":"setAtTheOpeningOrder","inputs":[],"outputs":[],"stateMutability":"nonpayable"},{"type":"function","name":"setExceedTaxWallet","inputs":[{"name":"_exceedTaxWallet","type":"address","internalType":"address"}],"outputs":[],"stateMutability":"nonpayable"},{"type":"function","name":"setLimitConfig","inputs":[{"name":"_minLiquidity","type":"uint256","internalType":"uint256"},{"name":"_minProcessAward","type":"uint256","internalType":"uint256"},{"name":"_minAddLiquidity","type":"uint256","internalType":"uint256"},{"name":"_maxBuyUsdt","type":"uint256","internalType":"uint256"},{"name":"_maxgas","type":"uint256","internalType":"uint256"}],"outputs":[],"stateMutability":"nonpayable"},{"type":"function","name":"setMining","inputs":[{"name":"_mining","type":"address","internalType":"address"}],"outputs":[],"stateMutability":"nonpayable"},{"type":"function","name":"setSubscribeList","inputs":[{"name":"_addrs","type":"address[]","internalType":"address[]"},{"name":"_sub","type":"bool","internalType":"bool"}],"outputs":[],"stateMutability":"nonpayable"},{"type":"function","name":"setTaxExemption","inputs":[{"name":"_addrs","type":"address[]","internalType":"address[]"},{"name":"_exempt","type":"bool","internalType":"bool"}],"outputs":[],"stateMutability":"nonpayable"},{"type":"function","name":"setcanDes","inputs":[],"outputs":[],"stateMutability":"nonpayable"},{"type":"function","name":"setdesConfig","inputs":[{"name":"_num","type":"uint256","internalType":"uint256"},{"name":"_num2","type":"uint256","internalType":"uint256"},{"name":"_num3","type":"uint256","internalType":"uint256"},{"name":"_num4","type":"uint256","internalType":"uint256"}],"outputs":[],"stateMutability":"nonpayable"},{"type":"function","name":"subscribelist","inputs":[{"name":"","type":"address","internalType":"address"}],"outputs":[{"name":"","type":"bool","internalType":"bool"}],"stateMutability":"view"},{"type":"function","name":"symbol","inputs":[],"outputs":[{"name":"","type":"string","internalType":"string"}],"stateMutability":"view"},{"type":"function","name":"timeDes","inputs":[],"outputs":[{"name":"","type":"uint256","internalType":"uint256"}],"stateMutability":"view"},{"type":"function","name":"totalSupply","inputs":[],"outputs":[{"name":"","type":"uint256","internalType":"uint256"}],"stateMutability":"view"},{"type":"function","name":"transfer","inputs":[{"name":"to","type":"address","internalType":"address"},{"name":"amount","type":"uint256","internalType":"uint256"}],"outputs":[{"name":"","type":"bool","internalType":"bool"}],"stateMutability":"nonpayable"},{"type":"function","name":"transferFrom","inputs":[{"name":"from","type":"address","internalType":"address"},{"name":"to","type":"address","internalType":"address"},{"name":"amount","type":"uint256","internalType":"uint256"}],"outputs":[{"name":"","type":"bool","internalType":"bool"}],"stateMutability":"nonpayable"},{"type":"function","name":"transferOwnership","inputs":[{"name":"newOwner","type":"address","internalType":"address"}],"outputs":[],"stateMutability":"nonpayable"},{"type":"function","name":"txFee","inputs":[],"outputs":[{"name":"","type":"uint256","internalType":"uint256"}],"stateMutability":"view"},{"type":"function","name":"updateMyStatus","inputs":[],"outputs":[],"stateMutability":"nonpayable"},{"type":"event","name":"Approval","inputs":[{"name":"owner","type":"address","indexed":true,"internalType":"address"},{"name":"spender","type":"address","indexed":true,"internalType":"address"},{"name":"value","type":"uint256","indexed":false,"internalType":"uint256"}],"anonymous":false},{"type":"event","name":"DebugLiquidity","inputs":[{"name":"msgSender","type":"address","indexed":false,"internalType":"address"},{"name":"to","type":"address","indexed":false,"internalType":"address"}],"anonymous":false},{"type":"event","name":"OwnershipTransferred","inputs":[{"name":"previousOwner","type":"address","indexed":true,"internalType":"address"},{"name":"newOwner","type":"address","indexed":true,"internalType":"address"}],"anonymous":false},{"type":"event","name":"Process","inputs":[{"name":"amount","type":"address","indexed":false,"internalType":"address"},{"name":"num","type":"uint256","indexed":false,"internalType":"uint256"},{"name":"now","type":"uint256","indexed":false,"internalType":"uint256"},{"name":"lasttime","type":"uint256","indexed":false,"internalType":"uint256"},{"name":"tt","type":"uint256","indexed":false,"internalType":"uint256"}],"anonymous":false},{"type":"event","name":"Transfer","inputs":[{"name":"from","type":"address","indexed":true,"internalType":"address"},{"name":"to","type":"address","indexed":true,"internalType":"address"},{"name":"value","type":"uint256","indexed":false,"internalType":"uint256"}],"anonymous":false},{"type":"event","name":"desPair","inputs":[{"name":"amount","type":"uint256","indexed":false,"internalType":"uint256"},{"name":"num","type":"uint256","indexed":false,"internalType":"uint256"},{"name":"now","type":"uint256","indexed":false,"internalType":"uint256"},{"name":"lasttime","type":"uint256","indexed":false,"internalType":"uint256"},{"name":"tt","type":"uint256","indexed":false,"internalType":"uint256"}],"anonymous":false}],"bytecode":{"object":"0x60e0604052681b1ae4d6e2ef5000006010556207a1206011556846791fc84e07d000006012556802b5e3af16b188000060135568056bc75e2d631000006014556015805460ff19166001179055610e106017556028601855600a601955348015610067575f5ffd5b506040516138bb3803806138bb833981016040819052610086916104f0565b8383600361009483826105f8565b5060046100a182826105f8565b5050506100ba6100b56102a860201b60201c565b6102ac565b6100cf826a52b7d2dcc80cd2e40000006102fd565b7310ed43c718714eb63d5aa57b78b54704e256024e60808190526040805163c45a015560e01b8152905163c45a0155916004808201926020929091908290030181865afa158015610122573d5f5f3e3d5ffd5b505050506040513d601f19601f8201168201806040525081019061014691906106b2565b6040516364e329cb60e11b81523060048201527355d398326f99059ff775485246999027b319795560248201526001600160a01b03919091169063c9c65396906044016020604051808303815f875af11580156101a5573d5f5f3e3d5ffd5b505050506040513d601f19601f820116820180604052508101906101c991906106b2565b6001600160a01b0390811660a052600b80546001600160a01b0319169183169190911790556101f66103ba565b6001600160a01b0390811660c05282165f908152600660205260408082208054600160ff19918216811790925530808552838520805483168417905533855292909320805490931617909155426016557355d398326f99059ff775485246999027b31979551061029f5760405162461bcd60e51b815260206004820152600f60248201526e496e76616c6964206164647265737360881b60448201526064015b60405180910390fd5b505050506106f7565b3390565b600580546001600160a01b038381166001600160a01b0319831681179093556040519116919082907f8be0079c531659141344cd1fd0a4f28419497f9722a3daafe3b4186f6b6457e0905f90a35050565b6001600160a01b0382166103535760405162461bcd60e51b815260206004820152601f60248201527f45524332303a206d696e7420746f20746865207a65726f2061646472657373006044820152606401610296565b8060025f82825461036491906106d2565b90915550506001600160a01b0382165f81815260208181526040808320805486019055518481527fddf252ad1be2c89b69c2b068fc378daa952ba7f163c4a11628f55a4df523b3ef910160405180910390a35050565b6040516001600160601b03193060601b1660208201525f9081906034016040516020818303038152906040528051906020012090505f604051806020016104009061042b565b6020820181038252601f19601f820116604052509050818151602083015ff59250505090565b505050565b6101508061376b83390190565b634e487b7160e01b5f52604160045260245ffd5b5f82601f83011261045b575f5ffd5b81516001600160401b0381111561047457610474610438565b604051601f8201601f19908116603f011681016001600160401b03811182821017156104a2576104a2610438565b6040528181528382016020018510156104b9575f5ffd5b8160208501602083015e5f918101602001919091529392505050565b80516001600160a01b03811681146104eb575f5ffd5b919050565b5f5f5f5f60808587031215610503575f5ffd5b84516001600160401b03811115610518575f5ffd5b6105248782880161044c565b602087015190955090506001600160401b03811115610541575f5ffd5b61054d8782880161044c565b93505061055c604086016104d5565b915061056a606086016104d5565b905092959194509250565b600181811c9082168061058957607f821691505b6020821081036105a757634e487b7160e01b5f52602260045260245ffd5b50919050565b601f82111561042657805f5260205f20601f840160051c810160208510156105d25750805b601f840160051c820191505b818110156105f1575f81556001016105de565b5050505050565b81516001600160401b0381111561061157610611610438565b6106258161061f8454610575565b846105ad565b6020601f821160018114610657575f83156106405750848201515b5f19600385901b1c1916600184901b1784556105f1565b5f84815260208120601f198516915b828110156106865787850151825560209485019460019092019101610666565b50848210156106a357868401515f19600387901b60f8161c191681555b50505050600190811b01905550565b5f602082840312156106c2575f5ffd5b6106cb826104d5565b9392505050565b808201808211156106f157634e487b7160e01b5f52601160045260245ffd5b92915050565b60805160a05160c051612f946107d75f395f81816103e8015281816110f301528181611197015261213001525f818161063b015281816108b10152818161094301528181610b5301528181610ca901528181610e2301528181610eed01528181610f17015281816119440152818161197f015281816119f901528181611ac4015281816123c70152818161258a0152818161260d015281816126a4015261283301525f8181610662015281816112e601528181611a3e015281816120c1015281816120fd01528181612189015281816121c501526122a80152612f945ff3fe608060405234801561000f575f5ffd5b5060043610610333575f3560e01c806370a08231116101af578063b4baaf0d116100fe578063dd62ed3e1161009e578063edb46daf11610079578063edb46daf146106df578063edf657a9146106f2578063ef10d56c14610705578063f2fde38b1461070d575f5ffd5b8063dd62ed3e146106b1578063e6da96d4146106c4578063ec375408146106cc575f5ffd5b8063c21ebd07116100d9578063c21ebd071461065d578063c54e44eb14610684578063cedddafe1461069f578063cf820461146106a8575f5ffd5b8063b4baaf0d14610620578063b77e8ee314610629578063b8c9d25c14610636575f5ffd5b806386088e311161016957806395d89b411161014457806395d89b41146105e9578063a43c3fe7146105f1578063a457c2d7146105fa578063a9059cbb1461060d575f5ffd5b806386088e31146105bd5780638bae7634146105d05780638da5cb5b146105d8575f5ffd5b806370a0823114610541578063715018a614610569578063770cd1b8146105715780637b2f3de4146105995780637c72cdae146105a157806383834550146105aa575f5ffd5b80632e495fdd116102855780634b28246d11610225578063612405e111610200578063612405e1146104ff57806363a184f514610512578063662fac39146105255780636df4276214610538575f5ffd5b80634b28246d146104cf5780635ad0f922146104e25780635fe8e7cc146104ea575f5ffd5b806340c10f191161026057806340c10f191461048857806340f7bbc71461049b578063428642e4146104bd57806346a0300a146104c6575f5ffd5b80632e495fdd1461045d578063313ce567146104665780633950935114610475575f5ffd5b806311af88a4116102f057806321b77d63116102cb57806321b77d631461042557806323b872dd1461042e57806326987b60146104415780632a11ced01461044a575f5ffd5b806311af88a4146103e3578063156444dd1461040a57806318160ddd1461041d575f5ffd5b806303fd2a45146103375780630508c4731461035d578063060e78441461037457806306fdde03146103a657806308aaa130146103bb578063095ea7b3146103d0575b5f5ffd5b61034061dead81565b6040516001600160a01b0390911681526020015b60405180910390f35b61036660125481565b604051908152602001610354565b6103966103823660046129aa565b60066020525f908152604090205460ff1681565b6040519015158152602001610354565b6103ae610720565b60405161035491906129cc565b6103ce6103c9366004612a0e565b6107b0565b005b6103966103de366004612a90565b610894565b6103407f000000000000000000000000000000000000000000000000000000000000000081565b610366610418366004612aba565b6108ad565b600254610366565b61036660135481565b61039661043c366004612ad1565b6109ed565b610366600f5481565b610340610458366004612aba565b610a10565b610366600d5481565b60405160128152602001610354565b610396610483366004612a90565b610a38565b6103ce610496366004612a90565b610a59565b6103966104a93660046129aa565b60076020525f908152604090205460ff1681565b61036660195481565b61036660115481565b6103ce6104dd366004612b0f565b610ab1565b6103ce610e16565b6104f2610ffa565b6040516103549190612b6e565b6103ce61050d366004612b80565b611059565b600b54610340906001600160a01b031681565b600c54610340906001600160a01b031681565b61036660105481565b61036661054f3660046129aa565b6001600160a01b03165f9081526020819052604090205490565b6103ce611075565b61034061057f3660046129aa565b60086020525f90815260409020546001600160a01b031681565b6103ce611086565b61036660185481565b6103666105b8366004612aba565b611240565b6103ce6105cb3660046129aa565b611383565b6103ce611403565b6005546001600160a01b0316610340565b6103ae611411565b61036660165481565b610396610608366004612a90565b611420565b61039661061b366004612a90565b61149a565b61036660175481565b6015546103969060ff1681565b6103407f000000000000000000000000000000000000000000000000000000000000000081565b6103407f000000000000000000000000000000000000000000000000000000000000000081565b6103407355d398326f99059ff775485246999027b319795581565b61036660145481565b610366600e5481565b6103666106bf366004612baf565b6114a7565b6103ce6114d1565b6103ce6106da366004612a0e565b6114ed565b6103ce6106ed3660046129aa565b6115c6565b6103ce610700366004612be6565b611646565b6103ce611665565b6103ce61071b3660046129aa565b61166e565b60606003805461072f90612c1d565b80601f016020809104026020016040519081016040528092919081815260200182805461075b90612c1d565b80156107a65780601f1061077d576101008083540402835291602001916107a6565b820191905f5260205f20905b81548152906001019060200180831161078957829003601f168201915b5050505050905090565b6107b86116e4565b5f5b8281101561088e575f8484838181106107d5576107d5612c55565b90506020020160208101906107ea91906129aa565b6001600160a01b0316036108345760405162461bcd60e51b815260206004820152600c60248201526b5a45524f204144445245535360a01b60448201526064015b60405180910390fd5b8160065f86868581811061084a5761084a612c55565b905060200201602081019061085f91906129aa565b6001600160a01b0316815260208101919091526040015f20805460ff19169115159190911790556001016107ba565b50505050565b5f336108a181858561173e565b60019150505b92915050565b5f5f7f00000000000000000000000000000000000000000000000000000000000000006001600160a01b03166318160ddd6040518163ffffffff1660e01b8152600401602060405180830381865afa15801561090b573d5f5f3e3d5ffd5b505050506040513d601f19601f8201168201806040525081019061092f9190612c69565b9050805f0361094057505f92915050565b5f7f00000000000000000000000000000000000000000000000000000000000000006001600160a01b0316630902f1ac6040518163ffffffff1660e01b8152600401606060405180830381865afa15801561099d573d5f5f3e3d5ffd5b505050506040513d601f19601f820116820180604052508101906109c19190612c9b565b50506001600160701b031690505f826109da8387612cf0565b6109e49190612d07565b95945050505050565b5f336109fa858285611861565b610a058585856118d3565b506001949350505050565b600a8181548110610a1f575f80fd5b5f918252602090912001546001600160a01b0316905081565b5f336108a1818585610a4a83836114a7565b610a549190612d26565b61173e565b600c546001600160a01b03163314610aa35760405162461bcd60e51b815260206004820152600d60248201526c1393d508141154935255151151609a1b604482015260640161082b565b610aad8282611d43565b5050565b5f516020612f3f5f395f51905f52338283846008604051610ad6959493929190612d39565b60405180910390a1333014610b195760405162461bcd60e51b81526020600482015260096024820152682327a92124a22222a760b91b604482015260640161082b565b5f516020612f3f5f395f51905f52338283846009604051610b3e959493929190612d39565b60405180910390a18115610b50575050565b5f7f00000000000000000000000000000000000000000000000000000000000000006001600160a01b03166318160ddd6040518163ffffffff1660e01b8152600401602060405180830381865afa158015610bad573d5f5f3e3d5ffd5b505050506040513d601f19601f82011682018060405250810190610bd19190612c69565b600e54305f9081526020819052604081205492935091610bf19190612d67565b90505f516020612f3f5f395f51905f52338383601254600a604051610c1a959493929190612d39565b60405180910390a1811580610c30575060125481105b15610c3b5750505050565b600a545f80805a90505b8683108015610c5357508382105b15610e0c5783600f5410610c66575f600f555b5f600a600f5481548110610c7c57610c7c612c55565b5f9182526020822001546040516370a0823160e01b81526001600160a01b039182166004820181905293507f0000000000000000000000000000000000000000000000000000000000000000909116906370a0823190602401602060405180830381865afa158015610cf0573d5f5f3e3d5ffd5b505050506040513d601f19601f82011682018060405250810190610d149190612c69565b90505f516020612f3f5f395f51905f5233898984600b604051610d3b959493929190612d39565b60405180910390a18015610dc9575f88610d55838a612cf0565b610d5f9190612d07565b90505f516020612f3f5f395f51905f5233828a85600c604051610d86959493929190612d39565b60405180910390a15f81118015610db75750600e54305f908152602081905260409020548291610db591612d67565b115b15610dc757610dc7308483611e12565b505b5a610dd49084612d67565b610dde9086612d26565b94505a600f80549194505f610df283612d7a565b91905055508380610e0290612d7a565b9450505050610c45565b5050505050505050565b60155460ff1615610ff8577f00000000000000000000000000000000000000000000000000000000000000006001600160a01b03165f9081526020819052604090205460165415801590610e78575042601754601654610e769190612d26565b105b8015610e8357505f81115b15610ff6575f60165442610e979190612d67565b90505f60175482610ea89190612d07565b90508015610ff357601954811115610ebf57506019545b5f620186a082601854610ed29190612cf0565b610edc9086612cf0565b610ee69190612d07565b9050610f157f000000000000000000000000000000000000000000000000000000000000000061dead83611e12565b7f00000000000000000000000000000000000000000000000000000000000000006001600160a01b031663fff6cae96040518163ffffffff1660e01b81526004015f604051808303815f87803b158015610f6d575f5ffd5b505af1158015610f7f573d5f5f3e3d5ffd5b505060165460408051858152602081018790524281830152606081019290925260076080830152517f27e0a01b1ba214fb72eccdcad4c5a471b85171d81a589ec3c8ca3cd00bd9e20693509081900360a0019150a1601754610fe19083612cf0565b601654610fee9190612d26565b601655505b50505b505b565b6060600a8054806020026020016040519081016040528092919081815260200182805480156107a657602002820191905f5260205f20905b81546001600160a01b03168152600190910190602001808311611032575050505050905090565b6110616116e4565b601693909355601791909155601855601955565b61107d6116e4565b610ff85f611fc5565b3330146110c15760405162461bcd60e51b81526020600482015260096024820152682327a92124a22222a760b91b604482015260640161082b565b5f6002600e546110d19190612d07565b90506110dc81612016565b6040516370a0823160e01b81526001600160a01b037f00000000000000000000000000000000000000000000000000000000000000001660048201525f907355d398326f99059ff775485246999027b3197955906370a0823190602401602060405180830381865afa158015611154573d5f5f3e3d5ffd5b505050506040513d601f19601f820116820180604052508101906111789190612c69565b90508015610aad576040516323b872dd60e01b81526001600160a01b037f0000000000000000000000000000000000000000000000000000000000000000166004820152306024820152604481018290527355d398326f99059ff775485246999027b3197955906323b872dd906064016020604051808303815f875af1158015611204573d5f5f3e3d5ffd5b505050506040513d601f19601f820116820180604052508101906112289190612d92565b50610aad82600e5461123a9190612d67565b82612183565b6040805160028082526060820183525f92839291906020830190803683370190505090507355d398326f99059ff775485246999027b3197955815f8151811061128b5761128b612c55565b60200260200101906001600160a01b031690816001600160a01b03168152505030816001815181106112bf576112bf612c55565b6001600160a01b0392831660209182029290920101526040516307c0329d60e21b81525f917f00000000000000000000000000000000000000000000000000000000000000001690631f00ca749061131d9087908690600401612dc1565b5f60405180830381865afa158015611337573d5f5f3e3d5ffd5b505050506040513d5f823e601f3d908101601f1916820160405261135e9190810190612de1565b9050805f8151811061137257611372612c55565b602002602001015192505050919050565b61138b6116e4565b6001600160a01b0381166113e15760405162461bcd60e51b815260206004820181905260248201527f457863656564207461782077616c6c65742063616e6e6f74206265207a65726f604482015260640161082b565b600b80546001600160a01b0319166001600160a01b0392909216919091179055565b61140b6116e4565b42600d55565b60606004805461072f90612c1d565b5f338161142d82866114a7565b90508381101561148d5760405162461bcd60e51b815260206004820152602560248201527f45524332303a2064656372656173656420616c6c6f77616e63652062656c6f77604482015264207a65726f60d81b606482015260840161082b565b610a05828686840361173e565b5f336108a18185856118d3565b6001600160a01b039182165f90815260016020908152604080832093909416825291909152205490565b6114d96116e4565b6015805460ff19811660ff90911615179055565b6114f56116e4565b5f5b8281101561088e575f84848381811061151257611512612c55565b905060200201602081019061152791906129aa565b6001600160a01b03160361156c5760405162461bcd60e51b815260206004820152600c60248201526b5a45524f204144445245535360a01b604482015260640161082b565b8160075f86868581811061158257611582612c55565b905060200201602081019061159791906129aa565b6001600160a01b0316815260208101919091526040015f20805460ff19169115159190911790556001016114f7565b6115ce6116e4565b6001600160a01b0381166116245760405162461bcd60e51b815260206004820152601d60248201527f4d696e696e6720616464726573732063616e6e6f74206265207a65726f000000604482015260640161082b565b600c80546001600160a01b0319166001600160a01b0392909216919091179055565b61164e6116e4565b601394909455601292909255601455601055601155565b610ff833612322565b6116766116e4565b6001600160a01b0381166116db5760405162461bcd60e51b815260206004820152602660248201527f4f776e61626c653a206e6577206f776e657220697320746865207a65726f206160448201526564647265737360d01b606482015260840161082b565b610ff681611fc5565b6005546001600160a01b03163314610ff85760405162461bcd60e51b815260206004820181905260248201527f4f776e61626c653a2063616c6c6572206973206e6f7420746865206f776e6572604482015260640161082b565b6001600160a01b0383166117a05760405162461bcd60e51b8152602060048201526024808201527f45524332303a20617070726f76652066726f6d20746865207a65726f206164646044820152637265737360e01b606482015260840161082b565b6001600160a01b0382166118015760405162461bcd60e51b815260206004820152602260248201527f45524332303a20617070726f766520746f20746865207a65726f206164647265604482015261737360f01b606482015260840161082b565b6001600160a01b038381165f8181526001602090815260408083209487168084529482529182902085905590518481527f8c5be1e5ebec7d5bd14f71427d1e84f3dd0314c0f7b2291e5b200ac8c7c3b925910160405180910390a3505050565b5f61186c84846114a7565b90505f19811461088e57818110156118c65760405162461bcd60e51b815260206004820152601d60248201527f45524332303a20696e73756666696369656e7420616c6c6f77616e6365000000604482015260640161082b565b61088e848484840361173e565b604080513381526001600160a01b03841660208201527ffa3319544403168ad684ac50c22ae5d2403abd0503254a23d82e806d69c242f9910160405180910390a16001600160a01b038316158061193157506001600160a01b038216155b1561194157610ff3838383611e12565b5f7f00000000000000000000000000000000000000000000000000000000000000006001600160a01b0316846001600160a01b031614806119b357507f00000000000000000000000000000000000000000000000000000000000000006001600160a01b0316836001600160a01b0316145b6001600160a01b0385165f908152600660205260408120549192509060ff16806119f457506001600160a01b0384165f9081526006602052604090205460ff165b90505f7f00000000000000000000000000000000000000000000000000000000000000006001600160a01b0316856001600160a01b0316148015611a605750336001600160a01b037f000000000000000000000000000000000000000000000000000000000000000016145b90508015611ac1576001600160a01b038681165f9081526008602052604090205416611ac1576001600160a01b0386165f81815260086020526040902080546001600160a01b0319169091179055611ab9868686611e12565b505050505050565b5f7f00000000000000000000000000000000000000000000000000000000000000006001600160a01b0316876001600160a01b031603611bb857611b03612584565b50909150508015611bb8576001600160a01b0386165f9081526007602052604090205460ff1615611b4457611b3b8761dead87611e12565b50505050505050565b6001600160a01b038087165f8181526008602052604090205490911614611bad5760405162461bcd60e51b815260206004820152601860248201527f4e6f74206f726967696e616c204c502070726f76696465720000000000000000604482015260640161082b565b611b3b878787611e12565b5f848015611bc4575083155b15611bed576103e8611bd68988612768565b611be09088612cf0565b611bea9190612d07565b90505b8015611caa575f6103e8611c02886023612cf0565b611c0c9190612d07565b905080821115611c3757600b54611c37908a906001600160a01b0316611c328486612d67565b611e12565b611c568961dead6103e8611c4c8b6005612cf0565b611c329190612d07565b611c6889306064611c4c8b6003612cf0565b611c778989611c32858b612d67565b6064611c84886001612cf0565b611c8e9190612d07565b600e5f828254611c9e9190612d26565b90915550611cb5915050565b611cb5888888611e12565b84611cc257611cc2612934565b84611ccf57611ccf610e16565b611cd888612322565b611ce187612322565b601154604051634b28246d60e01b8152861515600482015260248101919091523090634b28246d906044015f604051808303815f87803b158015611d23575f5ffd5b505af1925050508015611d34575060015b15610e0c575050505050505050565b6001600160a01b038216611d995760405162461bcd60e51b815260206004820152601f60248201527f45524332303a206d696e7420746f20746865207a65726f206164647265737300604482015260640161082b565b611da45f8383610ff3565b8060025f828254611db59190612d26565b90915550506001600160a01b0382165f81815260208181526040808320805486019055518481527fddf252ad1be2c89b69c2b068fc378daa952ba7f163c4a11628f55a4df523b3ef910160405180910390a3610aad5f8383610ff3565b6001600160a01b038316611e765760405162461bcd60e51b815260206004820152602560248201527f45524332303a207472616e736665722066726f6d20746865207a65726f206164604482015264647265737360d81b606482015260840161082b565b6001600160a01b038216611ed85760405162461bcd60e51b815260206004820152602360248201527f45524332303a207472616e7366657220746f20746865207a65726f206164647260448201526265737360e81b606482015260840161082b565b611ee3838383610ff3565b6001600160a01b0383165f9081526020819052604090205481811015611f5a5760405162461bcd60e51b815260206004820152602660248201527f45524332303a207472616e7366657220616d6f756e7420657863656564732062604482015265616c616e636560d01b606482015260840161082b565b6001600160a01b038481165f81815260208181526040808320878703905593871680835291849020805487019055925185815290927fddf252ad1be2c89b69c2b068fc378daa952ba7f163c4a11628f55a4df523b3ef910160405180910390a361088e848484610ff3565b600580546001600160a01b038381166001600160a01b0319831681179093556040519116919082907f8be0079c531659141344cd1fd0a4f28419497f9722a3daafe3b4186f6b6457e0905f90a35050565b805f036120205750565b6040805160028082526060820183525f9260208301908036833701905050905030815f8151811061205357612053612c55565b60200260200101906001600160a01b031690816001600160a01b0316815250507355d398326f99059ff775485246999027b31979558160018151811061209b5761209b612c55565b60200260200101906001600160a01b031690816001600160a01b0316815250506120e6307f00000000000000000000000000000000000000000000000000000000000000008461173e565b604051635c11d79560e01b81526001600160a01b037f00000000000000000000000000000000000000000000000000000000000000001690635c11d7959061215a9085905f9086907f0000000000000000000000000000000000000000000000000000000000000000904290600401612ea9565b5f604051808303815f87803b158015612171575f5ffd5b505af1158015611ab9573d5f5f3e3d5ffd5b6121ae307f00000000000000000000000000000000000000000000000000000000000000008461173e565b60405163095ea7b360e01b81526001600160a01b037f0000000000000000000000000000000000000000000000000000000000000000166004820152602481018290527355d398326f99059ff775485246999027b31979559063095ea7b3906044016020604051808303815f875af115801561222c573d5f5f3e3d5ffd5b505050506040513d601f19601f820116820180604052508101906122509190612d92565b5060405162e8e33760e81b81523060048201527355d398326f99059ff775485246999027b3197955602482015260448101839052606481018290525f6084820181905260a482015261dead60c48201524260e48201527f00000000000000000000000000000000000000000000000000000000000000006001600160a01b03169063e8e3370090610104016060604051808303815f875af11580156122f7573d5f5f3e3d5ffd5b505050506040513d601f19601f8201168201806040525081019061231b9190612ee4565b5050505050565b803b8015158061233c57506001600160a01b03821661dead145b15612345575050565b6001600160a01b0382165f90815260096020526040812054600a549091901580159061239f5750836001600160a01b0316600a838154811061238957612389612c55565b5f918252602090912001546001600160a01b0316145b6040516370a0823160e01b81526001600160a01b0386811660048301529192505f91612432917f0000000000000000000000000000000000000000000000000000000000000000909116906370a0823190602401602060405180830381865afa15801561240e573d5f5f3e3d5ffd5b505050506040513d601f19601f820116820180604052508101906104189190612c69565b905060135481106124a3578161249e57600a80546001600160a01b0387165f818152600960205260408120839055600183018455929092527fc65a7bb8d6351c1cf70c95a316cc6a92839c986682d98bc35f958f4883f9d2a80180546001600160a01b03191690911790555b61231b565b811561231b57600a80545f91906124bc90600190612d67565b815481106124cc576124cc612c55565b5f91825260209091200154600a80546001600160a01b0390921692508291869081106124fa576124fa612c55565b5f91825260208083209190910180546001600160a01b0319166001600160a01b039485161790559183168152600990915260409020849055600a80548061254357612543612f0f565b5f828152602080822083015f1990810180546001600160a01b03191690559092019092556001600160a01b0388168252600990526040812055505050505050565b5f5f5f5f7f00000000000000000000000000000000000000000000000000000000000000006001600160a01b0316630dfe16816040518163ffffffff1660e01b8152600401602060405180830381865afa1580156125e4573d5f5f3e3d5ffd5b505050506040513d601f19601f820116820180604052508101906126089190612f23565b90505f7f00000000000000000000000000000000000000000000000000000000000000006001600160a01b0316630902f1ac6040518163ffffffff1660e01b8152600401606060405180830381865afa158015612667573d5f5f3e3d5ffd5b505050506040513d601f19601f8201168201806040525081019061268b9190612c9b565b50506040516370a0823160e01b81526001600160a01b037f0000000000000000000000000000000000000000000000000000000000000000811660048301526001600160701b039290921692505f918416906370a0823190602401602060405180830381865afa158015612701573d5f5f3e3d5ffd5b505050506040513d601f19601f820116820180604052508101906127259190612c69565b90506001600160a01b0383163014612760578082111561275a576127498183612d67565b93506402540be40084119550612760565b80821494505b505050909192565b5f5f600d54426127789190612d67565b9050600d545f03612802576001600160a01b0384165f9081526006602052604090205460ff166128025760405162461bcd60e51b815260206004820152602f60248201527f4f70656e696e67206e6f74207365742c206f6e6c79206578656d70742061646460448201526e3932b9b9b2b99031b0b710313abc9760891b606482015260840161082b565b61012c8110801561282b57506001600160a01b0384165f9081526006602052604090205460ff16155b15612917575f7f00000000000000000000000000000000000000000000000000000000000000006001600160a01b03166318160ddd6040518163ffffffff1660e01b8152600401602060405180830381865afa15801561288d573d5f5f3e3d5ffd5b505050506040513d601f19601f820116820180604052508101906128b19190612c69565b1115612917575f6128c184611240565b90506010548111156129155760405162461bcd60e51b815260206004820181905260248201527f50757263686173652065786365656473203530302055534454206c696d69742e604482015260640161082b565b505b610708811061292a5760239150506108a7565b5060649392505050565b601454600e54101561294257565b306001600160a01b0316637b2f3de46040518163ffffffff1660e01b81526004015f604051808303815f87803b15801561297a575f5ffd5b505af192505050801561298b575060015b15610ff8575f600e55565b6001600160a01b0381168114610ff6575f5ffd5b5f602082840312156129ba575f5ffd5b81356129c581612996565b9392505050565b602081525f82518060208401528060208501604085015e5f604082850101526040601f19601f83011684010191505092915050565b8015158114610ff6575f5ffd5b5f5f5f60408486031215612a20575f5ffd5b833567ffffffffffffffff811115612a36575f5ffd5b8401601f81018613612a46575f5ffd5b803567ffffffffffffffff811115612a5c575f5ffd5b8660208260051b8401011115612a70575f5ffd5b602091820194509250840135612a8581612a01565b809150509250925092565b5f5f60408385031215612aa1575f5ffd5b8235612aac81612996565b946020939093013593505050565b5f60208284031215612aca575f5ffd5b5035919050565b5f5f5f60608486031215612ae3575f5ffd5b8335612aee81612996565b92506020840135612afe81612996565b929592945050506040919091013590565b5f5f60408385031215612b20575f5ffd5b8235612aac81612a01565b5f8151808452602084019350602083015f5b82811015612b645781516001600160a01b0316865260209586019590910190600101612b3d565b5093949350505050565b602081525f6129c56020830184612b2b565b5f5f5f5f60808587031215612b93575f5ffd5b5050823594602084013594506040840135936060013592509050565b5f5f60408385031215612bc0575f5ffd5b8235612bcb81612996565b91506020830135612bdb81612996565b809150509250929050565b5f5f5f5f5f60a08688031215612bfa575f5ffd5b505083359560208501359550604085013594606081013594506080013592509050565b600181811c90821680612c3157607f821691505b602082108103612c4f57634e487b7160e01b5f52602260045260245ffd5b50919050565b634e487b7160e01b5f52603260045260245ffd5b5f60208284031215612c79575f5ffd5b5051919050565b80516001600160701b0381168114612c96575f5ffd5b919050565b5f5f5f60608486031215612cad575f5ffd5b612cb684612c80565b9250612cc460208501612c80565b9150604084015163ffffffff81168114612a85575f5ffd5b634e487b7160e01b5f52601160045260245ffd5b80820281158282048414176108a7576108a7612cdc565b5f82612d2157634e487b7160e01b5f52601260045260245ffd5b500490565b808201808211156108a7576108a7612cdc565b6001600160a01b03959095168552602085019390935260408401919091526060830152608082015260a00190565b818103818111156108a7576108a7612cdc565b5f60018201612d8b57612d8b612cdc565b5060010190565b5f60208284031215612da2575f5ffd5b81516129c581612a01565b634e487b7160e01b5f52604160045260245ffd5b828152604060208201525f612dd96040830184612b2b565b949350505050565b5f60208284031215612df1575f5ffd5b815167ffffffffffffffff811115612e07575f5ffd5b8201601f81018413612e17575f5ffd5b805167ffffffffffffffff811115612e3157612e31612dad565b8060051b604051601f19603f830116810181811067ffffffffffffffff82111715612e5e57612e5e612dad565b604052918252602081840181019290810187841115612e7b575f5ffd5b6020850194505b83851015612e9e57845180825260209586019590935001612e82565b509695505050505050565b85815284602082015260a060408201525f612ec760a0830186612b2b565b6001600160a01b0394909416606083015250608001529392505050565b5f5f5f60608486031215612ef6575f5ffd5b5050815160208301516040909301519094929350919050565b634e487b7160e01b5f52603160045260245ffd5b5f60208284031215612f33575f5ffd5b81516129c58161299656fe712894b811bfdd3aee7f47577b67cb49efdfa83fa7ec69972884bd96cbd12a3da2646970667358221220e95e4a130c32351fca59d71d13b2db3d9010b291b16e49fbf6b9559235d28a4f64736f6c634300081c00336080604052348015600e575f5ffd5b5060405163095ea7b360e01b81523360048201525f1960248201527355d398326f99059ff775485246999027b31979559063095ea7b3906044016020604051808303815f875af11580156063573d5f5f3e3d5ffd5b505050506040513d601f19601f8201168201806040525081019060859190608a565b5060ae565b5f602082840312156099575f5ffd5b8151801515811460a7575f5ffd5b9392505050565b6096806100ba5f395ff3fe6080604052348015600e575f5ffd5b50600436106026575f3560e01c8063c54e44eb14602a575b5f5ffd5b60447355d398326f99059ff775485246999027b319795581565b6040516001600160a01b03909116815260200160405180910390f3fea2646970667358221220b9dfe0344a9a2647bd106a6587f14607dc0e7caea2aabdee7caf5033e1bb36c964736f6c634300081c0033","linkReferences":{}},"methodIdentifiers":{"DEAD()":"03fd2a45","GASMAX()":"46a0300a","MAX_BUY_USDT()":"6df42762","MIN_ADD_LIQUIDITY()":"cedddafe","MIN_LIQUIDITY()":"21b77d63","MIN_PROCESS_AWARD()":"0508c473","USDT()":"c54e44eb","_safeSwapAndAdd()":"7b2f3de4","allowance(address,address)":"dd62ed3e","approve(address,uint256)":"095ea7b3","atTheOpeningOrder()":"2e495fdd","balanceOf(address)":"70a08231","canDes()":"b77e8ee3","currentIndex()":"26987b60","decimals()":"313ce567","decreaseAllowance(address,uint256)":"a457c2d7","des()":"5ad0f922","desRate()":"7c72cdae","deslimit()":"428642e4","exceedTaxWallet()":"63a184f5","getAmountOutUSDT(uint256)":"83834550","getHolders()":"5fe8e7cc","getLpUsdtValue(uint256)":"156444dd","holders(uint256)":"2a11ced0","increaseAllowance(address,uint256)":"39509351","isExemptFromTax(address)":"060e7844","lastDes()":"a43c3fe7","lpOriginalOwner(address)":"770cd1b8","mining()":"662fac39","mint(address,uint256)":"40c10f19","name()":"06fdde03","owner()":"8da5cb5b","pancakePair()":"b8c9d25c","pancakeRouter()":"c21ebd07","process(bool,uint256)":"4b28246d","receiveHelper()":"11af88a4","renounceOwnership()":"715018a6","setAtTheOpeningOrder()":"8bae7634","setExceedTaxWallet(address)":"86088e31","setLimitConfig(uint256,uint256,uint256,uint256,uint256)":"edf657a9","setMining(address)":"edb46daf","setSubscribeList(address[],bool)":"ec375408","setTaxExemption(address[],bool)":"08aaa130","setcanDes()":"e6da96d4","setdesConfig(uint256,uint256,uint256,uint256)":"612405e1","subscribelist(address)":"40f7bbc7","symbol()":"95d89b41","timeDes()":"b4baaf0d","totalSupply()":"18160ddd","transfer(address,uint256)":"a9059cbb","transferFrom(address,address,uint256)":"23b872dd","transferOwnership(address)":"f2fde38b","txFee()":"cf820461","updateMyStatus()":"ef10d56c"},"id":48}