{"abi":[{"type":"function","name":"UPGRADE_INTERFACE_VERSION","inputs":[],"outputs":[{"name":"","type":"string","internalType":"string"}],"stateMutability":"view"},{"type":"function","name":"claim","inputs":[],"outputs":[],"stateMutability":"nonpayable"},{"type":"function","name":"getUserIncome","inputs":[{"name":"_user","type":"address","internalType":"address"}],"outputs":[{"name":"","type":"uint256","internalType":"uint256"}],"stateMutability":"view"},{"type":"function","name":"getUserInfo","inputs":[{"name":"_user","type":"address","internalType":"address"}],"outputs":[{"name":"_tokenIds","type":"uint256[]","internalType":"uint256[]"},{"name":"_extracted","type":"uint256","internalType":"uint256"}],"stateMutability":"view"},{"type":"function","name":"initialize","inputs":[{"name":"_cfArt","type":"address","internalType":"address"},{"name":"_usdt","type":"address","internalType":"address"},{"name":"_admin","type":"address","internalType":"address"}],"outputs":[],"stateMutability":"nonpayable"},{"type":"function","name":"onERC721Received","inputs":[{"name":"","type":"address","internalType":"address"},{"name":"","type":"address","internalType":"address"},{"name":"","type":"uint256","internalType":"uint256"},{"name":"","type":"bytes","internalType":"bytes"}],"outputs":[{"name":"","type":"bytes4","internalType":"bytes4"}],"stateMutability":"nonpayable"},{"type":"function","name":"owner","inputs":[],"outputs":[{"name":"","type":"address","internalType":"address"}],"stateMutability":"view"},{"type":"function","name":"perStakingReward","inputs":[],"outputs":[{"name":"","type":"uint256","internalType":"uint256"}],"stateMutability":"view"},{"type":"function","name":"proxiableUUID","inputs":[],"outputs":[{"name":"","type":"bytes32","internalType":"bytes32"}],"stateMutability":"view"},{"type":"function","name":"renounceOwnership","inputs":[],"outputs":[],"stateMutability":"nonpayable"},{"type":"function","name":"stakeNFT","inputs":[{"name":"_tokenIds","type":"uint256[]","internalType":"uint256[]"}],"outputs":[],"stateMutability":"nonpayable"},{"type":"function","name":"transferOwnership","inputs":[{"name":"newOwner","type":"address","internalType":"address"}],"outputs":[],"stateMutability":"nonpayable"},{"type":"function","name":"unstakeNFT","inputs":[],"outputs":[],"stateMutability":"nonpayable"},{"type":"function","name":"updatePool","inputs":[{"name":"amount","type":"uint256","internalType":"uint256"}],"outputs":[],"stateMutability":"nonpayable"},{"type":"function","name":"upgradeToAndCall","inputs":[{"name":"newImplementation","type":"address","internalType":"address"},{"name":"data","type":"bytes","internalType":"bytes"}],"outputs":[],"stateMutability":"payable"},{"type":"event","name":"Initialized","inputs":[{"name":"version","type":"uint64","indexed":false,"internalType":"uint64"}],"anonymous":false},{"type":"event","name":"OwnershipTransferred","inputs":[{"name":"previousOwner","type":"address","indexed":true,"internalType":"address"},{"name":"newOwner","type":"address","indexed":true,"internalType":"address"}],"anonymous":false},{"type":"event","name":"Upgraded","inputs":[{"name":"implementation","type":"address","indexed":true,"internalType":"address"}],"anonymous":false},{"type":"error","name":"AddressEmptyCode","inputs":[{"name":"target","type":"address","internalType":"address"}]},{"type":"error","name":"ERC1967InvalidImplementation","inputs":[{"name":"implementation","type":"address","internalType":"address"}]},{"type":"error","name":"ERC1967NonPayable","inputs":[]},{"type":"error","name":"FailedCall","inputs":[]},{"type":"error","name":"InvalidInitialization","inputs":[]},{"type":"error","name":"NotInitializing","inputs":[]},{"type":"error","name":"OwnableInvalidOwner","inputs":[{"name":"owner","type":"address","internalType":"address"}]},{"type":"error","name":"OwnableUnauthorizedAccount","inputs":[{"name":"account","type":"address","internalType":"address"}]},{"type":"error","name":"UUPSUnauthorizedCallContext","inputs":[]},{"type":"error","name":"UUPSUnsupportedProxiableUUID","inputs":[{"name":"slot","type":"bytes32","internalType":"bytes32"}]}],"bytecode":{"object":"0x60a06040523060805234801561001457600080fd5b506080516117d161003e60003960008181610e3c01528181610e650152610fab01526117d16000f3fe6080604052600436106100e85760003560e01c80636386c1c71161008a578063ad3cb1cc11610059578063ad3cb1cc14610269578063c0c53b8b146102a7578063e0a747fe146102c7578063f2fde38b146102dc57600080fd5b80636386c1c7146101d9578063715018a6146102075780637f081b161461021c5780638da5cb5b1461023c57600080fd5b80634e71d92d116100c65780634e71d92d1461017c5780634f1ef2861461019157806351eb05a6146101a457806352d1902d146101c457600080fd5b8063044ac773146100ed578063150b7a0214610116578063182c57441461015a575b600080fd5b3480156100f957600080fd5b5061010360065481565b6040519081526020015b60405180910390f35b34801561012257600080fd5b5061014161013136600461140c565b630a85bd0160e11b949350505050565b6040516001600160e01b0319909116815260200161010d565b34801561016657600080fd5b5061017a610175366004611474565b6102fc565b005b34801561018857600080fd5b5061017a61051e565b61017a61019f36600461151a565b6105d6565b3480156101b057600080fd5b5061017a6101bf366004611568565b6105f1565b3480156101d057600080fd5b506101036106cb565b3480156101e557600080fd5b506101f96101f4366004611581565b6106e8565b60405161010d92919061159c565b34801561021357600080fd5b5061017a610795565b34801561022857600080fd5b50610103610237366004611581565b6107a9565b34801561024857600080fd5b506102516108cd565b6040516001600160a01b03909116815260200161010d565b34801561027557600080fd5b5061029a604051806040016040528060058152602001640352e302e360dc1b81525081565b60405161010d919061160d565b3480156102b357600080fd5b5061017a6102c2366004611640565b6108fb565b3480156102d357600080fd5b5061017a610a52565b3480156102e857600080fd5b5061017a6102f7366004611581565b610cd8565b3360009081526001602052604090206002810154600382015460065483546103249190611699565b61032e91906116b0565b61033891906116c3565b600382015560005b82518110156104295760025483516001600160a01b03909116906342842e0e9033903090879086908110610376576103766116d6565b60209081029190910101516040516001600160e01b031960e086901b1681526001600160a01b0393841660048201529290911660248301526044820152606401600060405180830381600087803b1580156103d057600080fd5b505af11580156103e4573d6000803e3d6000fd5b50505050816000018382815181106103fe576103fe6116d6565b6020908102919091018101518254600181810185556000948552929093209092019190915501610340565b5060065481546104399190611699565b60028201558151600580546000906104529084906116b0565b909155505033600081815260208181526040808320815160a081018352848152808401959095529084018690526060840183905242608085015280546001808201835591845291909220835160049092020180549092839160ff19169083818111156104c0576104c06116ec565b021790555060208281015182546001600160a01b0390911661010002610100600160a81b03199091161782556040830151805161050392600185019201906112bf565b50606082015181600201556080820151816003015550505050565b33600081815260016020526040812091610537906107a9565b9050600081116105855760405162461bcd60e51b8152602060048201526014602482015273496e73756666696369656e74207265776172647360601b60448201526064015b60405180910390fd5b60065482546105949190611699565b60028301556000600383018190556001830180548392906105b69084906116b0565b90915550506003546105d2906001600160a01b03163383610d16565b5050565b6105de610e31565b6105e782610ed6565b6105d28282610ede565b6004546001600160a01b031633148061061957503361060e6108cd565b6001600160a01b0316145b6106555760405162461bcd60e51b815260206004820152600d60248201526c2832b936b4ba1032b93937b91760991b604482015260640161057c565b600081116106955760405162461bcd60e51b815260206004820152600d60248201526c22b93937b91030b6b7bab73a1760991b604482015260640161057c565b6005546000036106a55760016005555b6005546106b29082611702565b600660008282546106c391906116b0565b909155505050565b60006106d5610fa0565b5060008051602061177c83398151915290565b6001600160a01b03811660009081526001602090815260408083208151815460a0948102820185019093526080810183815260609594859492939284929184919084018282801561075857602002820191906000526020600020905b815481526020019060010190808311610744575b5050505050815260200160018201548152602001600282015481526020016003820154815250509050806000015192508060200151915050915091565b61079d610fe9565b6107a7600061101b565b565b6001600160a01b03811660009081526001602090815260408083208151815460a0948102820185019093526080810183815285949193849284919084018282801561081357602002820191906000526020600020905b8154815260200190600101908083116107ff575b505050505081526020016001820154815260200160028201548152602001600382015481525050905060008160400151826060015160065484600001515161085b9190611699565b61086591906116b0565b61086f91906116c3565b82515190915060009061088b90685150ae84a8cdf00000611699565b9050600081846020015110156108af5760208401516108aa90836116c3565b6108b2565b60005b90508083106108c157806108c3565b825b9695505050505050565b7f9016d09d72d40fdae2fd8ceac6b6234c7706214fd39c1cd1e609a0528c199300546001600160a01b031690565b7ff0c57e16840df040f15088dc2f81fe391c3923bec73e23a9662efc9c229c6a008054600160401b810460ff16159067ffffffffffffffff166000811580156109415750825b905060008267ffffffffffffffff16600114801561095e5750303b155b90508115801561096c575080155b1561098a5760405163f92ee8a960e01b815260040160405180910390fd5b845467ffffffffffffffff1916600117855583156109b457845460ff60401b1916600160401b1785555b6109bd3361108c565b6109c5611094565b600280546001600160a01b03808b166001600160a01b031992831617909255600380548a841690831617905560048054928916929091169190911790558315610a4857845460ff60401b19168555604051600181527fc7f505b2f371ae2175ee4913f4499e1f2633a7b5936321eed1cdaeb6115181d29060200160405180910390a15b5050505050505050565b3360009081526001602052604090208054610aa45760405162461bcd60e51b81526020600482015260126024820152714e6f204e46547320746f20756e7374616b6560701b604482015260640161057c565b6000610aaf336107a9565b90508015610ace57600354610ace906001600160a01b03163383610d16565b60005b8254811015610b865760025483546001600160a01b03909116906342842e0e9030903390879086908110610b0757610b076116d6565b6000918252602090912001546040516001600160e01b031960e086901b1681526001600160a01b0393841660048201529290911660248301526044820152606401600060405180830381600087803b158015610b6257600080fd5b505af1158015610b76573d6000803e3d6000fd5b505060019092019150610ad19050565b503360008181526020818152604091829020825160a081018452600181528083019490945285548351818402810184018552818152919493840192879190830182828015610bf357602002820191906000526020600020905b815481526020019060010190808311610bdf575b505050918352505060208082018590524260409092019190915282546001818101855560009485529190932082516004909402018054929390929091839160ff1916908381811115610c4757610c476116ec565b021790555060208281015182546001600160a01b0390911661010002610100600160a81b031990911617825560408301518051610c8a92600185019201906112bf565b5060608201516002820155608090910151600390910155815460058054600090610cb59084906116c3565b90915550610cc6905082600061130a565b50600060028201819055600390910155565b610ce0610fe9565b6001600160a01b038116610d0a57604051631e4fbdf760e01b81526000600482015260240161057c565b610d138161101b565b50565b604080516001600160a01b038481166024830152604480830185905283518084039091018152606490920183526020820180516001600160e01b031663a9059cbb60e01b1790529151600092839290871691610d729190611724565b6000604051808303816000865af19150503d8060008114610daf576040519150601f19603f3d011682016040523d82523d6000602084013e610db4565b606091505b5091509150818015610dde575080511580610dde575080806020019051810190610dde9190611740565b610e2a5760405162461bcd60e51b815260206004820152601f60248201527f5472616e7366657248656c7065723a205452414e534645525f4641494c454400604482015260640161057c565b5050505050565b306001600160a01b037f0000000000000000000000000000000000000000000000000000000000000000161480610eb857507f00000000000000000000000000000000000000000000000000000000000000006001600160a01b0316610eac60008051602061177c833981519152546001600160a01b031690565b6001600160a01b031614155b156107a75760405163703e46dd60e11b815260040160405180910390fd5b610d13610fe9565b816001600160a01b03166352d1902d6040518163ffffffff1660e01b8152600401602060405180830381865afa925050508015610f38575060408051601f3d908101601f19168201909252610f3591810190611762565b60015b610f6057604051634c9c8ce360e01b81526001600160a01b038316600482015260240161057c565b60008051602061177c8339815191528114610f9157604051632a87526960e21b81526004810182905260240161057c565b610f9b838361109c565b505050565b306001600160a01b037f000000000000000000000000000000000000000000000000000000000000000016146107a75760405163703e46dd60e11b815260040160405180910390fd5b33610ff26108cd565b6001600160a01b0316146107a75760405163118cdaa760e01b815233600482015260240161057c565b7f9016d09d72d40fdae2fd8ceac6b6234c7706214fd39c1cd1e609a0528c19930080546001600160a01b031981166001600160a01b03848116918217845560405192169182907f8be0079c531659141344cd1fd0a4f28419497f9722a3daafe3b4186f6b6457e090600090a3505050565b610ce06110f2565b6107a76110f2565b6110a58261113b565b6040516001600160a01b038316907fbc7cd75a20ee27fd9adebab32041f755214dbc6bffa90cc0225b39da2e5c2d3b90600090a28051156110ea57610f9b82826111a0565b6105d2611218565b7ff0c57e16840df040f15088dc2f81fe391c3923bec73e23a9662efc9c229c6a0054600160401b900460ff166107a757604051631afcd79f60e31b815260040160405180910390fd5b806001600160a01b03163b60000361117157604051634c9c8ce360e01b81526001600160a01b038216600482015260240161057c565b60008051602061177c83398151915280546001600160a01b0319166001600160a01b0392909216919091179055565b6060600080846001600160a01b0316846040516111bd9190611724565b600060405180830381855af49150503d80600081146111f8576040519150601f19603f3d011682016040523d82523d6000602084013e6111fd565b606091505b509150915061120d858383611237565b925050505b92915050565b34156107a75760405163b398979f60e01b815260040160405180910390fd5b60608261124c5761124782611296565b61128f565b815115801561126357506001600160a01b0384163b155b1561128c57604051639996b31560e01b81526001600160a01b038516600482015260240161057c565b50805b9392505050565b8051156112a65780518082602001fd5b60405163d6bda27560e01b815260040160405180910390fd5b8280548282559060005260206000209081019282156112fa579160200282015b828111156112fa5782518255916020019190600101906112df565b50611306929150611324565b5090565b5080546000825590600052602060002090810190610d1391905b5b808211156113065760008155600101611325565b80356001600160a01b038116811461135057600080fd5b919050565b634e487b7160e01b600052604160045260246000fd5b604051601f8201601f1916810167ffffffffffffffff8111828210171561139457611394611355565b604052919050565b600082601f8301126113ad57600080fd5b813567ffffffffffffffff8111156113c7576113c7611355565b6113da601f8201601f191660200161136b565b8181528460208386010111156113ef57600080fd5b816020850160208301376000918101602001919091529392505050565b6000806000806080858703121561142257600080fd5b61142b85611339565b935061143960208601611339565b925060408501359150606085013567ffffffffffffffff81111561145c57600080fd5b6114688782880161139c565b91505092959194509250565b6000602080838503121561148757600080fd5b823567ffffffffffffffff8082111561149f57600080fd5b818501915085601f8301126114b357600080fd5b8135818111156114c5576114c5611355565b8060051b91506114d684830161136b565b81815291830184019184810190888411156114f057600080fd5b938501935b8385101561150e578435825293850193908501906114f5565b98975050505050505050565b6000806040838503121561152d57600080fd5b61153683611339565b9150602083013567ffffffffffffffff81111561155257600080fd5b61155e8582860161139c565b9150509250929050565b60006020828403121561157a57600080fd5b5035919050565b60006020828403121561159357600080fd5b61128f82611339565b604080825283519082018190526000906020906060840190828701845b828110156115d5578151845292840192908401906001016115b9565b505050602093909301939093525092915050565b60005b838110156116045781810151838201526020016115ec565b50506000910152565b602081526000825180602084015261162c8160408501602087016115e9565b601f01601f19169190910160400192915050565b60008060006060848603121561165557600080fd5b61165e84611339565b925061166c60208501611339565b915061167a60408501611339565b90509250925092565b634e487b7160e01b600052601160045260246000fd5b808202811582820484141761121257611212611683565b8082018082111561121257611212611683565b8181038181111561121257611212611683565b634e487b7160e01b600052603260045260246000fd5b634e487b7160e01b600052602160045260246000fd5b60008261171f57634e487b7160e01b600052601260045260246000fd5b500490565b600082516117368184602087016115e9565b9190910192915050565b60006020828403121561175257600080fd5b8151801515811461128f57600080fd5b60006020828403121561177457600080fd5b505191905056fe360894a13ba1a3210667c828492db98dca3e2076cc3735a920a3ca505d382bbca264697066735822122090cfbe46b4c195f614135d8c495f867fd9ea8c537a4987c1f12ad821031118a764736f6c63430008180033","linkReferences":{}},"methodIdentifiers":{"UPGRADE_INTERFACE_VERSION()":"ad3cb1cc","claim()":"4e71d92d","getUserIncome(address)":"7f081b16","getUserInfo(address)":"6386c1c7","initialize(address,address,address)":"c0c53b8b","onERC721Received(address,address,uint256,bytes)":"150b7a02","owner()":"8da5cb5b","perStakingReward()":"044ac773","proxiableUUID()":"52d1902d","renounceOwnership()":"715018a6","stakeNFT(uint256[])":"182c5744","transferOwnership(address)":"f2fde38b","unstakeNFT()":"e0a747fe","updatePool(uint256)":"51eb05a6","upgradeToAndCall(address,bytes)":"4f1ef286"},"id":64}