{"abi":[{"type":"constructor","inputs":[{"name":"_treasuryWallet","type":"address","internalType":"address"},{"name":"_cfRegulation","type":"address","internalType":"address"},{"name":"_initialRecipient","type":"address","internalType":"address"}],"stateMutability":"nonpayable"},{"type":"function","name":"USDT","inputs":[],"outputs":[{"name":"","type":"address","internalType":"address"}],"stateMutability":"view"},{"type":"function","name":"admin","inputs":[],"outputs":[{"name":"","type":"address","internalType":"address"}],"stateMutability":"view"},{"type":"function","name":"allowance","inputs":[{"name":"owner","type":"address","internalType":"address"},{"name":"spender","type":"address","internalType":"address"}],"outputs":[{"name":"","type":"uint256","internalType":"uint256"}],"stateMutability":"view"},{"type":"function","name":"approve","inputs":[{"name":"spender","type":"address","internalType":"address"},{"name":"value","type":"uint256","internalType":"uint256"}],"outputs":[{"name":"","type":"bool","internalType":"bool"}],"stateMutability":"nonpayable"},{"type":"function","name":"balanceOf","inputs":[{"name":"account","type":"address","internalType":"address"}],"outputs":[{"name":"","type":"uint256","internalType":"uint256"}],"stateMutability":"view"},{"type":"function","name":"buyTaxRate","inputs":[],"outputs":[{"name":"","type":"uint256","internalType":"uint256"}],"stateMutability":"view"},{"type":"function","name":"decimals","inputs":[],"outputs":[{"name":"","type":"uint8","internalType":"uint8"}],"stateMutability":"view"},{"type":"function","name":"isExemptFromTax","inputs":[{"name":"","type":"address","internalType":"address"}],"outputs":[{"name":"","type":"bool","internalType":"bool"}],"stateMutability":"view"},{"type":"function","name":"minTokensBeforeSwap","inputs":[],"outputs":[{"name":"","type":"uint256","internalType":"uint256"}],"stateMutability":"view"},{"type":"function","name":"mint","inputs":[{"name":"to","type":"address","internalType":"address"},{"name":"amount","type":"uint256","internalType":"uint256"}],"outputs":[],"stateMutability":"nonpayable"},{"type":"function","name":"name","inputs":[],"outputs":[{"name":"","type":"string","internalType":"string"}],"stateMutability":"view"},{"type":"function","name":"nftStaking","inputs":[],"outputs":[{"name":"","type":"address","internalType":"address"}],"stateMutability":"view"},{"type":"function","name":"owner","inputs":[],"outputs":[{"name":"","type":"address","internalType":"address"}],"stateMutability":"view"},{"type":"function","name":"pancakePair","inputs":[],"outputs":[{"name":"","type":"address","internalType":"address"}],"stateMutability":"view"},{"type":"function","name":"pancakeRouter","inputs":[],"outputs":[{"name":"","type":"address","internalType":"contract IPancakeRouter02"}],"stateMutability":"view"},{"type":"function","name":"prioritySellMultiplier","inputs":[],"outputs":[{"name":"","type":"uint256","internalType":"uint256"}],"stateMutability":"view"},{"type":"function","name":"renounceOwnership","inputs":[],"outputs":[],"stateMutability":"nonpayable"},{"type":"function","name":"sellTaxRate","inputs":[],"outputs":[{"name":"","type":"uint256","internalType":"uint256"}],"stateMutability":"view"},{"type":"function","name":"setAdmin","inputs":[{"name":"_newAdmin","type":"address","internalType":"address"}],"outputs":[],"stateMutability":"nonpayable"},{"type":"function","name":"setNftStaking","inputs":[{"name":"_nftStaking","type":"address","internalType":"address"}],"outputs":[],"stateMutability":"nonpayable"},{"type":"function","name":"setPrioritySellMultiplier","inputs":[{"name":"_multiplier","type":"uint256","internalType":"uint256"}],"outputs":[],"stateMutability":"nonpayable"},{"type":"function","name":"setTaxExemption","inputs":[{"name":"_address","type":"address","internalType":"address"},{"name":"_exempt","type":"bool","internalType":"bool"}],"outputs":[],"stateMutability":"nonpayable"},{"type":"function","name":"setTaxRates","inputs":[{"name":"_buyTaxRate","type":"uint256","internalType":"uint256"},{"name":"_sellTaxRate","type":"uint256","internalType":"uint256"}],"outputs":[],"stateMutability":"nonpayable"},{"type":"function","name":"setTreasuryWallet","inputs":[{"name":"_newWallet","type":"address","internalType":"address"}],"outputs":[],"stateMutability":"nonpayable"},{"type":"function","name":"symbol","inputs":[],"outputs":[{"name":"","type":"string","internalType":"string"}],"stateMutability":"view"},{"type":"function","name":"totalSupply","inputs":[],"outputs":[{"name":"","type":"uint256","internalType":"uint256"}],"stateMutability":"view"},{"type":"function","name":"transfer","inputs":[{"name":"to","type":"address","internalType":"address"},{"name":"value","type":"uint256","internalType":"uint256"}],"outputs":[{"name":"","type":"bool","internalType":"bool"}],"stateMutability":"nonpayable"},{"type":"function","name":"transferFrom","inputs":[{"name":"from","type":"address","internalType":"address"},{"name":"to","type":"address","internalType":"address"},{"name":"value","type":"uint256","internalType":"uint256"}],"outputs":[{"name":"","type":"bool","internalType":"bool"}],"stateMutability":"nonpayable"},{"type":"function","name":"transferOwnership","inputs":[{"name":"newOwner","type":"address","internalType":"address"}],"outputs":[],"stateMutability":"nonpayable"},{"type":"function","name":"treasuryWallet","inputs":[],"outputs":[{"name":"","type":"address","internalType":"address"}],"stateMutability":"view"},{"type":"event","name":"Approval","inputs":[{"name":"owner","type":"address","indexed":true,"internalType":"address"},{"name":"spender","type":"address","indexed":true,"internalType":"address"},{"name":"value","type":"uint256","indexed":false,"internalType":"uint256"}],"anonymous":false},{"type":"event","name":"DebugSwappingState","inputs":[{"name":"swapping","type":"bool","indexed":false,"internalType":"bool"},{"name":"balance","type":"uint256","indexed":false,"internalType":"uint256"}],"anonymous":false},{"type":"event","name":"OwnershipTransferred","inputs":[{"name":"previousOwner","type":"address","indexed":true,"internalType":"address"},{"name":"newOwner","type":"address","indexed":true,"internalType":"address"}],"anonymous":false},{"type":"event","name":"PrioritySellExecuted","inputs":[{"name":"amount","type":"uint256","indexed":false,"internalType":"uint256"}],"anonymous":false},{"type":"event","name":"PrioritySellMultiplierUpdated","inputs":[{"name":"newMultiplier","type":"uint256","indexed":false,"internalType":"uint256"}],"anonymous":false},{"type":"event","name":"SwapAndSendTax","inputs":[{"name":"tokensSwapped","type":"uint256","indexed":false,"internalType":"uint256"},{"name":"usdtReceived","type":"uint256","indexed":false,"internalType":"uint256"}],"anonymous":false},{"type":"event","name":"TaxRatesUpdated","inputs":[{"name":"newBuyTax","type":"uint256","indexed":false,"internalType":"uint256"},{"name":"newSellTax","type":"uint256","indexed":false,"internalType":"uint256"}],"anonymous":false},{"type":"event","name":"Transfer","inputs":[{"name":"from","type":"address","indexed":true,"internalType":"address"},{"name":"to","type":"address","indexed":true,"internalType":"address"},{"name":"value","type":"uint256","indexed":false,"internalType":"uint256"}],"anonymous":false},{"type":"event","name":"TreasuryWalletUpdated","inputs":[{"name":"newWallet","type":"address","indexed":false,"internalType":"address"}],"anonymous":false},{"type":"error","name":"ERC20InsufficientAllowance","inputs":[{"name":"spender","type":"address","internalType":"address"},{"name":"allowance","type":"uint256","internalType":"uint256"},{"name":"needed","type":"uint256","internalType":"uint256"}]},{"type":"error","name":"ERC20InsufficientBalance","inputs":[{"name":"sender","type":"address","internalType":"address"},{"name":"balance","type":"uint256","internalType":"uint256"},{"name":"needed","type":"uint256","internalType":"uint256"}]},{"type":"error","name":"ERC20InvalidApprover","inputs":[{"name":"approver","type":"address","internalType":"address"}]},{"type":"error","name":"ERC20InvalidReceiver","inputs":[{"name":"receiver","type":"address","internalType":"address"}]},{"type":"error","name":"ERC20InvalidSender","inputs":[{"name":"sender","type":"address","internalType":"address"}]},{"type":"error","name":"ERC20InvalidSpender","inputs":[{"name":"spender","type":"address","internalType":"address"}]},{"type":"error","name":"OwnableInvalidOwner","inputs":[{"name":"owner","type":"address","internalType":"address"}]},{"type":"error","name":"OwnableUnauthorizedAccount","inputs":[{"name":"account","type":"address","internalType":"address"}]}],"bytecode":{"object":"0x60806040526101f4600855600980546001600160a01b0319167310ed43c718714eb63d5aa57b78b54704e256024e17905562000039601290565b6200004690600a62000e0d565b6200005390600162000e25565b600d556c01431e0fae6d7217caa00000006011553480156200007457600080fd5b50604051620028a7380380620028a7833981016040819052620000979162000e5c565b60408051808201825260028082526121a360f11b602080840182905284518086019095529184529083015233916003620000d2838262000f4c565b506004620000e1828262000f4c565b5050506001600160a01b0381166200011457604051631e4fbdf760e01b8152600060048201526024015b60405180910390fd5b6200011f816200031e565b506001600160a01b038316620001875760405162461bcd60e51b815260206004820152602660248201527f54726561737572792077616c6c65742063616e6e6f74206265207a65726f206160448201526564647265737360d01b60648201526084016200010b565b600b80546001600160a01b038086166001600160a01b0319928316179092556010805485841692169190911790556009546040805163c45a015560e01b81529051919092169163c45a01559160048083019260209291908290030181865afa158015620001f8573d6000803e3d6000fd5b505050506040513d601f19601f820116820180604052508101906200021e919062001018565b6040516364e329cb60e11b81523060048201526000805160206200288783398151915260248201526001600160a01b03919091169063c9c65396906044016020604051808303816000875af11580156200027c573d6000803e3d6000fd5b505050506040513d601f19601f82011682018060405250810190620002a2919062001018565b600a80546001600160a01b0319166001600160a01b0392831617905561012c600681905560075583166000908152600f6020526040808220805460ff19908116600190811790925530845291909220805490911690911790556b0eb3abfa3d8e477b8600000062000314828262000370565b505050506200112a565b600580546001600160a01b038381166001600160a01b0319831681179093556040519116919082907f8be0079c531659141344cd1fd0a4f28419497f9722a3daafe3b4186f6b6457e090600090a35050565b6001600160a01b0382166200039c5760405163ec442f0560e01b8152600060048201526024016200010b565b620003aa60008383620003ae565b5050565b823b63ffffffff16158015620003cc57506001600160a01b03831615155b156200045e576001600160a01b038316600090815260208190526040902054620003ff82670de0b6b3a764000062001036565b11156200045e5760405162461bcd60e51b815260206004820152602660248201527f45524332303a207472616e7366657220616d6f756e7420657863656564732062604482015265616c616e636560d01b60648201526084016200010b565b600e5460ff16156200047c57620004778383836200081f565b505050565b6001600160a01b03831615806200049a57506001600160a01b038216155b15620004ad57620004778383836200081f565b600a546001600160a01b03908116838216811491851614818015620004e05750600b546001600160a01b03868116911614155b8015620004f05750600e5460ff16155b80156200050657506001600160a01b0385163014155b156200053b57600060646008548562000520919062000e25565b6200052c91906200104c565b9050620005398162000952565b505b6001600160a01b0385166000908152600f602052604081205460ff161580156200057e57506001600160a01b0385166000908152600f602052604090205460ff16155b905060008115620005e0578215620005b75761271060065486620005a3919062000e25565b620005af91906200104c565b9050620005e0565b8315620005e05761271060075486620005d1919062000e25565b620005dd91906200104c565b90505b80156200063b57620005f48730836200081f565b600d5481106200061d5783156200061d57600b546200061d906001600160a01b03168262000a12565b6200063587876200062f84896200106f565b6200081f565b62000648565b620006488787876200081f565b8215801562000655575083155b156200081657600c546040516370a0823160e01b81526001600160a01b03909116600482015260009060008051602062002887833981519152906370a0823190602401602060405180830381865afa158015620006b6573d6000803e3d6000fd5b505050506040513d601f19601f82011682018060405250810190620006dc919062001085565b600c5490915062000716906001600160a01b031662000710306001600160a01b031660009081526020819052604090205490565b62000a12565b600c546040516370a0823160e01b81526001600160a01b03909116600482015260009060008051602062002887833981519152906370a0823190602401602060405180830381865afa15801562000771573d6000803e3d6000fd5b505050506040513d601f19601f8201168201806040525081019062000797919062001085565b9050818111156200081357600c546001600160a01b03166351eb05a6620007bf84846200106f565b6040518263ffffffff1660e01b8152600401620007de91815260200190565b600060405180830381600087803b158015620007f957600080fd5b505af11580156200080e573d6000803e3d6000fd5b505050505b50505b50505050505050565b6001600160a01b0383166200084e57806002600082825462000842919062001036565b90915550620008c29050565b6001600160a01b03831660009081526020819052604090205481811015620008a35760405163391434e360e21b81526001600160a01b038516600482015260248101829052604481018390526064016200010b565b6001600160a01b03841660009081526020819052604090209082900390555b6001600160a01b038216620008e057600280548290039055620008ff565b6001600160a01b03821660009081526020819052604090208054820190555b816001600160a01b0316836001600160a01b03167fddf252ad1be2c89b69c2b068fc378daa952ba7f163c4a11628f55a4df523b3ef836040516200094591815260200190565b60405180910390a3505050565b801580620009625750600e5460ff165b156200096b5750565b600b546001600160a01b03166000908152602081905260409020548181101562000993575050565b600e805460ff19166001179055600b54620009b9906001600160a01b031630846200081f565b600b54620009d1906001600160a01b03168362000a12565b600e805460ff191690556040518281527f289a9be18ec42479f1c35af4fe0586957b53c24d323d7539b69236c0e1c519f89060200160405180910390a15050565b8060000362000a1f575050565b600e805460ff19166001179055604080516002808252606082018352600092602083019080368337019050509050308160008151811062000a645762000a646200109f565b60200260200101906001600160a01b031690816001600160a01b031681525050600080516020620028878339815191528160018151811062000aaa5762000aaa6200109f565b6001600160a01b03928316602091820292909201015260095462000ad2913091168462000c13565b600954604051635c11d79560e01b81526001600160a01b0390911690635c11d7959062000b0d908590600090869089904290600401620010b5565b600060405180830381600087803b15801562000b2857600080fd5b505af192505050801562000b3a575060015b62000b4e575050600e805460ff1916905550565b6040516370a0823160e01b81526001600160a01b03841660048201527f20c67c84c631769d26a34799f5602bae0c3e7f5d298a6609a3e0e7da5cbe652990839060008051602062002887833981519152906370a0823190602401602060405180830381865afa15801562000bc6573d6000803e3d6000fd5b505050506040513d601f19601f8201168201806040525081019062000bec919062001085565b6040805192835260208301919091520160405180910390a15050600e805460ff1916905550565b6200047783838360016001600160a01b03841662000c485760405163e602df0560e01b8152600060048201526024016200010b565b6001600160a01b03831662000c7457604051634a1406b160e11b8152600060048201526024016200010b565b6001600160a01b038085166000908152600160209081526040808320938716835292905220829055801562000cf257826001600160a01b0316846001600160a01b03167f8c5be1e5ebec7d5bd14f71427d1e84f3dd0314c0f7b2291e5b200ac8c7c3b9258460405162000ce991815260200190565b60405180910390a35b50505050565b634e487b7160e01b600052601160045260246000fd5b600181815b8085111562000d4f57816000190482111562000d335762000d3362000cf8565b8085161562000d4157918102915b93841c939080029062000d13565b509250929050565b60008262000d685750600162000e07565b8162000d775750600062000e07565b816001811462000d90576002811462000d9b5762000dbb565b600191505062000e07565b60ff84111562000daf5762000daf62000cf8565b50506001821b62000e07565b5060208310610133831016604e8410600b841016171562000de0575081810a62000e07565b62000dec838362000d0e565b806000190482111562000e035762000e0362000cf8565b0290505b92915050565b600062000e1e60ff84168362000d57565b9392505050565b808202811582820484141762000e075762000e0762000cf8565b80516001600160a01b038116811462000e5757600080fd5b919050565b60008060006060848603121562000e7257600080fd5b62000e7d8462000e3f565b925062000e8d6020850162000e3f565b915062000e9d6040850162000e3f565b90509250925092565b634e487b7160e01b600052604160045260246000fd5b600181811c9082168062000ed157607f821691505b60208210810362000ef257634e487b7160e01b600052602260045260246000fd5b50919050565b601f82111562000477576000816000526020600020601f850160051c8101602086101562000f235750805b601f850160051c820191505b8181101562000f445782815560010162000f2f565b505050505050565b81516001600160401b0381111562000f685762000f6862000ea6565b62000f808162000f79845462000ebc565b8462000ef8565b602080601f83116001811462000fb8576000841562000f9f5750858301515b600019600386901b1c1916600185901b17855562000f44565b600085815260208120601f198616915b8281101562000fe95788860151825594840194600190910190840162000fc8565b5085821015620010085787850151600019600388901b60f8161c191681555b5050505050600190811b01905550565b6000602082840312156200102b57600080fd5b62000e1e8262000e3f565b8082018082111562000e075762000e0762000cf8565b6000826200106a57634e487b7160e01b600052601260045260246000fd5b500490565b8181038181111562000e075762000e0762000cf8565b6000602082840312156200109857600080fd5b5051919050565b634e487b7160e01b600052603260045260246000fd5b600060a08201878352602087602085015260a0604085015281875180845260c08601915060208901935060005b81811015620011095784516001600160a01b031683529383019391830191600101620010e2565b50506001600160a01b03969096166060850152505050608001529392505050565b61174d806200113a6000396000f3fe608060405234801561001057600080fd5b50600436106101da5760003560e01c806395d89b4111610104578063c4408c8a116100a2578063f2fde38b11610071578063f2fde38b1461040d578063f3f63bfb14610420578063f851a44014610433578063f8d1fe6f1461044657600080fd5b8063c4408c8a1461039d578063c54e44eb146103b0578063dd62ed3e146103cb578063e5d41c6b1461040457600080fd5b8063b64e3c74116100de578063b64e3c741461035b578063b8c9d25c1461036e578063bf2b25f214610381578063c21ebd071461038a57600080fd5b806395d89b411461032d578063a8602fea14610335578063a9059cbb1461034857600080fd5b806340c10f191161017c578063704b6c021161014b578063704b6c02146102d857806370a08231146102eb578063715018a6146103145780638da5cb5b1461031c57600080fd5b806340c10f191461027c5780634626402b146102915780635cb23e12146102bc578063691f224f146102cf57600080fd5b806318160ddd116101b857806318160ddd1461023f57806323b872dd1461025157806324024efd14610264578063313ce5671461026d57600080fd5b8063060e7844146101df57806306fdde0314610217578063095ea7b31461022c575b600080fd5b6102026101ed366004611445565b600f6020526000908152604090205460ff1681565b60405190151581526020015b60405180910390f35b61021f610459565b60405161020e9190611467565b61020261023a3660046114b6565b6104eb565b6002545b60405190815260200161020e565b61020261025f3660046114e0565b610505565b61024360075481565b6040516012815260200161020e565b61028f61028a3660046114b6565b610529565b005b600b546102a4906001600160a01b031681565b6040516001600160a01b03909116815260200161020e565b61028f6102ca36600461151c565b610609565b61024360065481565b61028f6102e6366004611445565b6106b9565b6102436102f9366004611445565b6001600160a01b031660009081526020819052604090205490565b61028f6106e3565b6005546001600160a01b03166102a4565b61021f6106f7565b61028f610343366004611445565b610706565b6102026103563660046114b6565b6107f3565b61028f61036936600461153e565b610801565b600a546102a4906001600160a01b031681565b61024360085481565b6009546102a4906001600160a01b031681565b600c546102a4906001600160a01b031681565b6102a47355d398326f99059ff775485246999027b319795581565b6102436103d936600461157a565b6001600160a01b03918216600090815260016020908152604080832093909416825291909152205490565b610243600d5481565b61028f61041b366004611445565b610834565b61028f61042e3660046115ad565b610872565b6010546102a4906001600160a01b031681565b61028f610454366004611445565b61091c565b606060038054610468906115c6565b80601f0160208091040260200160405190810160405280929190818152602001828054610494906115c6565b80156104e15780601f106104b6576101008083540402835291602001916104e1565b820191906000526020600020905b8154815290600101906020018083116104c457829003601f168201915b5050505050905090565b6000336104f98185856109a7565b60019150505b92915050565b6000336105138582856109b9565b61051e858585610a37565b506001949350505050565b6010546001600160a01b031633146105885760405162461bcd60e51b815260206004820181905260248201527f4f776e61626c653a2063616c6c6572206973206e6f7420746865206f776e657260448201526064015b60405180910390fd5b6011548161059560025490565b61059f9190611616565b11156105fb5760405162461bcd60e51b815260206004820152602560248201527f45524332303a206d696e7420616d6f756e742065786365656473206d617853756044820152643838363c9760d91b606482015260840161057f565b6106058282610a96565b5050565b610611610acc565b610bb882111580156106255750610bb88111155b6106715760405162461bcd60e51b815260206004820152601a60248201527f54617820726174652063616e6e6f742065786365656420333025000000000000604482015260640161057f565b6006829055600781905560408051838152602081018390527f8af72bce83e770654b24f833792771b0c5ecd95a31e17a43d11475b9f0c96aba91015b60405180910390a15050565b6106c1610acc565b601080546001600160a01b0319166001600160a01b0392909216919091179055565b6106eb610acc565b6106f56000610af9565b565b606060048054610468906115c6565b61070e610acc565b6001600160a01b03811661076e5760405162461bcd60e51b815260206004820152602160248201527f4e65772077616c6c65742063616e6e6f74206265207a65726f206164647265736044820152607360f81b606482015260840161057f565b600b80546001600160a01b039081166000908152600f60209081526040808320805460ff1990811690915585546001600160a01b031916948716948517909555838352918290208054909416600117909355519081527f97c79b3848e51f57983ac89e4403452655c8d83ceba8199011de63a74f60d1a791015b60405180910390a150565b6000336104f9818585610a37565b610809610acc565b6001600160a01b03919091166000908152600f60205260409020805460ff1916911515919091179055565b61083c610acc565b6001600160a01b03811661086657604051631e4fbdf760e01b81526000600482015260240161057f565b61086f81610af9565b50565b61087a610acc565b6064811015801561088d57506103e88111155b6108e75760405162461bcd60e51b815260206004820152602560248201527f4d756c7469706c696572206d757374206265206265747765656e20317820616e6044820152640c8406260f60db1b606482015260840161057f565b60088190556040518181527f6b8335f737488a3fd9d8623e1605ec5a87ea2153306b519b25a0a2b3660192ef906020016107e8565b610924610acc565b6001600160a01b0381166109855760405162461bcd60e51b815260206004820152602260248201527f4e657720616464726573732063616e6e6f74206265207a65726f206164647265604482015261737360f01b606482015260840161057f565b600c80546001600160a01b0319166001600160a01b0392909216919091179055565b6109b48383836001610b4b565b505050565b6001600160a01b038381166000908152600160209081526040808320938616835292905220546000198114610a315781811015610a2257604051637dc7a0d960e11b81526001600160a01b0384166004820152602481018290526044810183905260640161057f565b610a3184848484036000610b4b565b50505050565b6001600160a01b038316610a6157604051634b637e8f60e11b81526000600482015260240161057f565b6001600160a01b038216610a8b5760405163ec442f0560e01b81526000600482015260240161057f565b6109b4838383610c20565b6001600160a01b038216610ac05760405163ec442f0560e01b81526000600482015260240161057f565b61060560008383610c20565b6005546001600160a01b031633146106f55760405163118cdaa760e01b815233600482015260240161057f565b600580546001600160a01b038381166001600160a01b0319831681179093556040519116919082907f8be0079c531659141344cd1fd0a4f28419497f9722a3daafe3b4186f6b6457e090600090a35050565b6001600160a01b038416610b755760405163e602df0560e01b81526000600482015260240161057f565b6001600160a01b038316610b9f57604051634a1406b160e11b81526000600482015260240161057f565b6001600160a01b0380851660009081526001602090815260408083209387168352929052208290558015610a3157826001600160a01b0316846001600160a01b03167f8c5be1e5ebec7d5bd14f71427d1e84f3dd0314c0f7b2291e5b200ac8c7c3b92584604051610c1291815260200190565b60405180910390a350505050565b63ffffffff833b16158015610c3d57506001600160a01b03831615155b15610cca576001600160a01b038316600090815260208190526040902054610c6d82670de0b6b3a7640000611616565b1115610cca5760405162461bcd60e51b815260206004820152602660248201527f45524332303a207472616e7366657220616d6f756e7420657863656564732062604482015265616c616e636560d01b606482015260840161057f565b600e5460ff1615610ce0576109b4838383611053565b6001600160a01b0383161580610cfd57506001600160a01b038216155b15610d0d576109b4838383611053565b600a546001600160a01b03908116838216811491851614818015610d3f5750600b546001600160a01b03868116911614155b8015610d4e5750600e5460ff16155b8015610d6357506001600160a01b0385163014155b15610d91576000606460085485610d7a9190611629565b610d849190611640565b9050610d8f8161117d565b505b6001600160a01b0385166000908152600f602052604081205460ff16158015610dd357506001600160a01b0385166000908152600f602052604090205460ff16155b905060008115610e29578215610e055761271060065486610df49190611629565b610dfe9190611640565b9050610e29565b8315610e295761271060075486610e1c9190611629565b610e269190611640565b90505b8015610e7857610e3a873083611053565b600d548110610e5f578315610e5f57600b54610e5f906001600160a01b03168261122f565b610e738787610e6e8489611662565b611053565b610e83565b610e83878787611053565b82158015610e8f575083155b1561104a57600c546040516370a0823160e01b81526001600160a01b0390911660048201526000907355d398326f99059ff775485246999027b3197955906370a0823190602401602060405180830381865afa158015610ef3573d6000803e3d6000fd5b505050506040513d601f19601f82011682018060405250810190610f179190611675565b600c54909150610f4e906001600160a01b0316610f49306001600160a01b031660009081526020819052604090205490565b61122f565b600c546040516370a0823160e01b81526001600160a01b0390911660048201526000907355d398326f99059ff775485246999027b3197955906370a0823190602401602060405180830381865afa158015610fad573d6000803e3d6000fd5b505050506040513d601f19601f82011682018060405250810190610fd19190611675565b90508181111561104757600c546001600160a01b03166351eb05a6610ff68484611662565b6040518263ffffffff1660e01b815260040161101491815260200190565b600060405180830381600087803b15801561102e57600080fd5b505af1158015611042573d6000803e3d6000fd5b505050505b50505b50505050505050565b6001600160a01b03831661107e5780600260008282546110739190611616565b909155506110f09050565b6001600160a01b038316600090815260208190526040902054818110156110d15760405163391434e360e21b81526001600160a01b0385166004820152602481018290526044810183905260640161057f565b6001600160a01b03841660009081526020819052604090209082900390555b6001600160a01b03821661110c5760028054829003905561112b565b6001600160a01b03821660009081526020819052604090208054820190555b816001600160a01b0316836001600160a01b03167fddf252ad1be2c89b69c2b068fc378daa952ba7f163c4a11628f55a4df523b3ef8360405161117091815260200190565b60405180910390a3505050565b80158061118c5750600e5460ff165b156111945750565b600b546001600160a01b0316600090815260208190526040902054818110156111bb575050565b600e805460ff19166001179055600b546111df906001600160a01b03163084611053565b600b546111f5906001600160a01b03168361122f565b600e805460ff191690556040518281527f289a9be18ec42479f1c35af4fe0586957b53c24d323d7539b69236c0e1c519f8906020016106ad565b8060000361123b575050565b600e805460ff19166001179055604080516002808252606082018352600092602083019080368337019050509050308160008151811061127d5761127d61168e565b60200260200101906001600160a01b031690816001600160a01b0316815250507355d398326f99059ff775485246999027b3197955816001815181106112c5576112c561168e565b6001600160a01b0392831660209182029290920101526009546112eb91309116846109a7565b600954604051635c11d79560e01b81526001600160a01b0390911690635c11d795906113249085906000908690899042906004016116a4565b600060405180830381600087803b15801561133e57600080fd5b505af192505050801561134f575060015b611362575050600e805460ff1916905550565b6040516370a0823160e01b81526001600160a01b03841660048201527f20c67c84c631769d26a34799f5602bae0c3e7f5d298a6609a3e0e7da5cbe65299083907355d398326f99059ff775485246999027b3197955906370a0823190602401602060405180830381865afa1580156113de573d6000803e3d6000fd5b505050506040513d601f19601f820116820180604052508101906114029190611675565b6040805192835260208301919091520160405180910390a15050600e805460ff1916905550565b80356001600160a01b038116811461144057600080fd5b919050565b60006020828403121561145757600080fd5b61146082611429565b9392505050565b60006020808352835180602085015260005b8181101561149557858101830151858201604001528201611479565b506000604082860101526040601f19601f8301168501019250505092915050565b600080604083850312156114c957600080fd5b6114d283611429565b946020939093013593505050565b6000806000606084860312156114f557600080fd5b6114fe84611429565b925061150c60208501611429565b9150604084013590509250925092565b6000806040838503121561152f57600080fd5b50508035926020909101359150565b6000806040838503121561155157600080fd5b61155a83611429565b91506020830135801515811461156f57600080fd5b809150509250929050565b6000806040838503121561158d57600080fd5b61159683611429565b91506115a460208401611429565b90509250929050565b6000602082840312156115bf57600080fd5b5035919050565b600181811c908216806115da57607f821691505b6020821081036115fa57634e487b7160e01b600052602260045260246000fd5b50919050565b634e487b7160e01b600052601160045260246000fd5b808201808211156104ff576104ff611600565b80820281158282048414176104ff576104ff611600565b60008261165d57634e487b7160e01b600052601260045260246000fd5b500490565b818103818111156104ff576104ff611600565b60006020828403121561168757600080fd5b5051919050565b634e487b7160e01b600052603260045260246000fd5b600060a08201878352602087602085015260a0604085015281875180845260c08601915060208901935060005b818110156116f65784516001600160a01b0316835293830193918301916001016116d1565b50506001600160a01b0396909616606085015250505060800152939250505056fea2646970667358221220a8843f506b0c943418c15da04fcdde56450fc9ee9c9fd832fd8fa13af9997dcc64736f6c6343000818003300000000000000000000000055d398326f99059ff775485246999027b3197955","linkReferences":{}},"methodIdentifiers":{"USDT()":"c54e44eb","admin()":"f851a440","allowance(address,address)":"dd62ed3e","approve(address,uint256)":"095ea7b3","balanceOf(address)":"70a08231","buyTaxRate()":"691f224f","decimals()":"313ce567","isExemptFromTax(address)":"060e7844","minTokensBeforeSwap()":"e5d41c6b","mint(address,uint256)":"40c10f19","name()":"06fdde03","nftStaking()":"c4408c8a","owner()":"8da5cb5b","pancakePair()":"b8c9d25c","pancakeRouter()":"c21ebd07","prioritySellMultiplier()":"bf2b25f2","renounceOwnership()":"715018a6","sellTaxRate()":"24024efd","setAdmin(address)":"704b6c02","setNftStaking(address)":"f8d1fe6f","setPrioritySellMultiplier(uint256)":"f3f63bfb","setTaxExemption(address,bool)":"b64e3c74","setTaxRates(uint256,uint256)":"5cb23e12","setTreasuryWallet(address)":"a8602fea","symbol()":"95d89b41","totalSupply()":"18160ddd","transfer(address,uint256)":"a9059cbb","transferFrom(address,address,uint256)":"23b872dd","transferOwnership(address)":"f2fde38b","treasuryWallet()":"4626402b"},"id":61}