{"abi":[{"type":"constructor","inputs":[{"name":"_treasuryWallet","type":"address","internalType":"address"},{"name":"_cfRegulation","type":"address","internalType":"address"}],"stateMutability":"nonpayable"},{"type":"function","name":"USDT","inputs":[],"outputs":[{"name":"","type":"address","internalType":"address"}],"stateMutability":"view"},{"type":"function","name":"admin","inputs":[],"outputs":[{"name":"","type":"address","internalType":"address"}],"stateMutability":"view"},{"type":"function","name":"allowance","inputs":[{"name":"owner","type":"address","internalType":"address"},{"name":"spender","type":"address","internalType":"address"}],"outputs":[{"name":"","type":"uint256","internalType":"uint256"}],"stateMutability":"view"},{"type":"function","name":"approve","inputs":[{"name":"spender","type":"address","internalType":"address"},{"name":"value","type":"uint256","internalType":"uint256"}],"outputs":[{"name":"","type":"bool","internalType":"bool"}],"stateMutability":"nonpayable"},{"type":"function","name":"balanceOf","inputs":[{"name":"account","type":"address","internalType":"address"}],"outputs":[{"name":"","type":"uint256","internalType":"uint256"}],"stateMutability":"view"},{"type":"function","name":"buyTaxRate","inputs":[],"outputs":[{"name":"","type":"uint256","internalType":"uint256"}],"stateMutability":"view"},{"type":"function","name":"decimals","inputs":[],"outputs":[{"name":"","type":"uint8","internalType":"uint8"}],"stateMutability":"view"},{"type":"function","name":"isExemptFromTax","inputs":[{"name":"","type":"address","internalType":"address"}],"outputs":[{"name":"","type":"bool","internalType":"bool"}],"stateMutability":"view"},{"type":"function","name":"minTokensBeforeSwap","inputs":[],"outputs":[{"name":"","type":"uint256","internalType":"uint256"}],"stateMutability":"view"},{"type":"function","name":"mint","inputs":[{"name":"to","type":"address","internalType":"address"},{"name":"amount","type":"uint256","internalType":"uint256"}],"outputs":[],"stateMutability":"nonpayable"},{"type":"function","name":"name","inputs":[],"outputs":[{"name":"","type":"string","internalType":"string"}],"stateMutability":"view"},{"type":"function","name":"nftStaking","inputs":[],"outputs":[{"name":"","type":"address","internalType":"address"}],"stateMutability":"view"},{"type":"function","name":"owner","inputs":[],"outputs":[{"name":"","type":"address","internalType":"address"}],"stateMutability":"view"},{"type":"function","name":"pancakePair","inputs":[],"outputs":[{"name":"","type":"address","internalType":"address"}],"stateMutability":"view"},{"type":"function","name":"pancakeRouter","inputs":[],"outputs":[{"name":"","type":"address","internalType":"contract IPancakeRouter02"}],"stateMutability":"view"},{"type":"function","name":"prioritySellMultiplier","inputs":[],"outputs":[{"name":"","type":"uint256","internalType":"uint256"}],"stateMutability":"view"},{"type":"function","name":"renounceOwnership","inputs":[],"outputs":[],"stateMutability":"nonpayable"},{"type":"function","name":"sellTaxRate","inputs":[],"outputs":[{"name":"","type":"uint256","internalType":"uint256"}],"stateMutability":"view"},{"type":"function","name":"setAdmin","inputs":[{"name":"_newAdmin","type":"address","internalType":"address"}],"outputs":[],"stateMutability":"nonpayable"},{"type":"function","name":"setNftStaking","inputs":[{"name":"_nftStaking","type":"address","internalType":"address"}],"outputs":[],"stateMutability":"nonpayable"},{"type":"function","name":"setPrioritySellMultiplier","inputs":[{"name":"_multiplier","type":"uint256","internalType":"uint256"}],"outputs":[],"stateMutability":"nonpayable"},{"type":"function","name":"setTaxExemption","inputs":[{"name":"_address","type":"address","internalType":"address"},{"name":"_exempt","type":"bool","internalType":"bool"}],"outputs":[],"stateMutability":"nonpayable"},{"type":"function","name":"setTaxRates","inputs":[{"name":"_buyTaxRate","type":"uint256","internalType":"uint256"},{"name":"_sellTaxRate","type":"uint256","internalType":"uint256"}],"outputs":[],"stateMutability":"nonpayable"},{"type":"function","name":"setTreasuryWallet","inputs":[{"name":"_newWallet","type":"address","internalType":"address"}],"outputs":[],"stateMutability":"nonpayable"},{"type":"function","name":"symbol","inputs":[],"outputs":[{"name":"","type":"string","internalType":"string"}],"stateMutability":"view"},{"type":"function","name":"totalSupply","inputs":[],"outputs":[{"name":"","type":"uint256","internalType":"uint256"}],"stateMutability":"view"},{"type":"function","name":"transfer","inputs":[{"name":"to","type":"address","internalType":"address"},{"name":"value","type":"uint256","internalType":"uint256"}],"outputs":[{"name":"","type":"bool","internalType":"bool"}],"stateMutability":"nonpayable"},{"type":"function","name":"transferFrom","inputs":[{"name":"from","type":"address","internalType":"address"},{"name":"to","type":"address","internalType":"address"},{"name":"value","type":"uint256","internalType":"uint256"}],"outputs":[{"name":"","type":"bool","internalType":"bool"}],"stateMutability":"nonpayable"},{"type":"function","name":"transferOwnership","inputs":[{"name":"newOwner","type":"address","internalType":"address"}],"outputs":[],"stateMutability":"nonpayable"},{"type":"function","name":"treasuryWallet","inputs":[],"outputs":[{"name":"","type":"address","internalType":"address"}],"stateMutability":"view"},{"type":"event","name":"Approval","inputs":[{"name":"owner","type":"address","indexed":true,"internalType":"address"},{"name":"spender","type":"address","indexed":true,"internalType":"address"},{"name":"value","type":"uint256","indexed":false,"internalType":"uint256"}],"anonymous":false},{"type":"event","name":"DebugSwappingState","inputs":[{"name":"swapping","type":"bool","indexed":false,"internalType":"bool"},{"name":"balance","type":"uint256","indexed":false,"internalType":"uint256"}],"anonymous":false},{"type":"event","name":"OwnershipTransferred","inputs":[{"name":"previousOwner","type":"address","indexed":true,"internalType":"address"},{"name":"newOwner","type":"address","indexed":true,"internalType":"address"}],"anonymous":false},{"type":"event","name":"PrioritySellExecuted","inputs":[{"name":"amount","type":"uint256","indexed":false,"internalType":"uint256"}],"anonymous":false},{"type":"event","name":"PrioritySellMultiplierUpdated","inputs":[{"name":"newMultiplier","type":"uint256","indexed":false,"internalType":"uint256"}],"anonymous":false},{"type":"event","name":"SwapAndSendTax","inputs":[{"name":"tokensSwapped","type":"uint256","indexed":false,"internalType":"uint256"},{"name":"usdtReceived","type":"uint256","indexed":false,"internalType":"uint256"}],"anonymous":false},{"type":"event","name":"TaxRatesUpdated","inputs":[{"name":"newBuyTax","type":"uint256","indexed":false,"internalType":"uint256"},{"name":"newSellTax","type":"uint256","indexed":false,"internalType":"uint256"}],"anonymous":false},{"type":"event","name":"Transfer","inputs":[{"name":"from","type":"address","indexed":true,"internalType":"address"},{"name":"to","type":"address","indexed":true,"internalType":"address"},{"name":"value","type":"uint256","indexed":false,"internalType":"uint256"}],"anonymous":false},{"type":"event","name":"TreasuryWalletUpdated","inputs":[{"name":"newWallet","type":"address","indexed":false,"internalType":"address"}],"anonymous":false},{"type":"error","name":"ERC20InsufficientAllowance","inputs":[{"name":"spender","type":"address","internalType":"address"},{"name":"allowance","type":"uint256","internalType":"uint256"},{"name":"needed","type":"uint256","internalType":"uint256"}]},{"type":"error","name":"ERC20InsufficientBalance","inputs":[{"name":"sender","type":"address","internalType":"address"},{"name":"balance","type":"uint256","internalType":"uint256"},{"name":"needed","type":"uint256","internalType":"uint256"}]},{"type":"error","name":"ERC20InvalidApprover","inputs":[{"name":"approver","type":"address","internalType":"address"}]},{"type":"error","name":"ERC20InvalidReceiver","inputs":[{"name":"receiver","type":"address","internalType":"address"}]},{"type":"error","name":"ERC20InvalidSender","inputs":[{"name":"sender","type":"address","internalType":"address"}]},{"type":"error","name":"ERC20InvalidSpender","inputs":[{"name":"spender","type":"address","internalType":"address"}]},{"type":"error","name":"OwnableInvalidOwner","inputs":[{"name":"owner","type":"address","internalType":"address"}]},{"type":"error","name":"OwnableUnauthorizedAccount","inputs":[{"name":"account","type":"address","internalType":"address"}]}],"bytecode":{"object":"0x60806040526101f4600855600980546001600160a01b0319167310ed43c718714eb63d5aa57b78b54704e256024e17905562000039601290565b6200004690600a62000e02565b6200005390600162000e1a565b600d553480156200006357600080fd5b506040516200281f3803806200281f833981016040819052620000869162000e51565b60408051808201825260028082526121a360f11b602080840182905284518086019095529184529083015233916003620000c1838262000f2f565b506004620000d0828262000f2f565b5050506001600160a01b0381166200010357604051631e4fbdf760e01b8152600060048201526024015b60405180910390fd5b6200010e816200030a565b506001600160a01b038216620001765760405162461bcd60e51b815260206004820152602660248201527f54726561737572792077616c6c65742063616e6e6f74206265207a65726f206160448201526564647265737360d01b6064820152608401620000fa565b600b80546001600160a01b038085166001600160a01b0319928316179092556010805484841692169190911790556009546040805163c45a015560e01b81529051919092169163c45a01559160048083019260209291908290030181865afa158015620001e7573d6000803e3d6000fd5b505050506040513d601f19601f820116820180604052508101906200020d919062000ffb565b6040516364e329cb60e11b8152306004820152600080516020620027ff83398151915260248201526001600160a01b03919091169063c9c65396906044016020604051808303816000875af11580156200026b573d6000803e3d6000fd5b505050506040513d601f19601f8201168201806040525081019062000291919062000ffb565b600a80546001600160a01b0319166001600160a01b0392831617905561012c600681905560075582166000908152600f6020526040808220805460ff199081166001908117909255308452919092208054909116909117905569d3c21bcecceda10000006200030133826200035c565b5050506200110d565b600580546001600160a01b038381166001600160a01b0319831681179093556040519116919082907f8be0079c531659141344cd1fd0a4f28419497f9722a3daafe3b4186f6b6457e090600090a35050565b6001600160a01b038216620003885760405163ec442f0560e01b815260006004820152602401620000fa565b62000396600083836200039a565b5050565b823b63ffffffff16158015620003b857506001600160a01b03831615155b156200045357670de0b6b3a7640000620003e7846001600160a01b031660009081526020819052604090205490565b620003f3919062001019565b811115620004535760405162461bcd60e51b815260206004820152602660248201527f45524332303a207472616e7366657220616d6f756e7420657863656564732062604482015265616c616e636560d01b6064820152608401620000fa565b600e5460ff161562000471576200046c83838362000814565b505050565b6001600160a01b03831615806200048f57506001600160a01b038216155b15620004a2576200046c83838362000814565b600a546001600160a01b03908116838216811491851614818015620004d55750600b546001600160a01b03868116911614155b8015620004e55750600e5460ff16155b8015620004fb57506001600160a01b0385163014155b156200053057600060646008548562000515919062000e1a565b6200052191906200102f565b90506200052e8162000947565b505b6001600160a01b0385166000908152600f602052604081205460ff161580156200057357506001600160a01b0385166000908152600f602052604090205460ff16155b905060008115620005d5578215620005ac576127106006548662000598919062000e1a565b620005a491906200102f565b9050620005d5565b8315620005d55761271060075486620005c6919062000e1a565b620005d291906200102f565b90505b80156200063057620005e987308362000814565b600d548110620006125783156200061257600b5462000612906001600160a01b03168262000a07565b6200062a878762000624848962001019565b62000814565b6200063d565b6200063d87878762000814565b821580156200064a575083155b156200080b57600c546040516370a0823160e01b81526001600160a01b039091166004820152600090600080516020620027ff833981519152906370a0823190602401602060405180830381865afa158015620006ab573d6000803e3d6000fd5b505050506040513d601f19601f82011682018060405250810190620006d1919062001052565b600c549091506200070b906001600160a01b031662000705306001600160a01b031660009081526020819052604090205490565b62000a07565b600c546040516370a0823160e01b81526001600160a01b039091166004820152600090600080516020620027ff833981519152906370a0823190602401602060405180830381865afa15801562000766573d6000803e3d6000fd5b505050506040513d601f19601f820116820180604052508101906200078c919062001052565b9050818111156200080857600c546001600160a01b03166351eb05a6620007b4848462001019565b6040518263ffffffff1660e01b8152600401620007d391815260200190565b600060405180830381600087803b158015620007ee57600080fd5b505af115801562000803573d6000803e3d6000fd5b505050505b50505b50505050505050565b6001600160a01b038316620008435780600260008282546200083791906200106c565b90915550620008b79050565b6001600160a01b03831660009081526020819052604090205481811015620008985760405163391434e360e21b81526001600160a01b03851660048201526024810182905260448101839052606401620000fa565b6001600160a01b03841660009081526020819052604090209082900390555b6001600160a01b038216620008d557600280548290039055620008f4565b6001600160a01b03821660009081526020819052604090208054820190555b816001600160a01b0316836001600160a01b03167fddf252ad1be2c89b69c2b068fc378daa952ba7f163c4a11628f55a4df523b3ef836040516200093a91815260200190565b60405180910390a3505050565b801580620009575750600e5460ff165b15620009605750565b600b546001600160a01b03166000908152602081905260409020548181101562000988575050565b600e805460ff19166001179055600b54620009ae906001600160a01b0316308462000814565b600b54620009c6906001600160a01b03168362000a07565b600e805460ff191690556040518281527f289a9be18ec42479f1c35af4fe0586957b53c24d323d7539b69236c0e1c519f89060200160405180910390a15050565b8060000362000a14575050565b600e805460ff19166001179055604080516002808252606082018352600092602083019080368337019050509050308160008151811062000a595762000a5962001082565b60200260200101906001600160a01b031690816001600160a01b031681525050600080516020620027ff8339815191528160018151811062000a9f5762000a9f62001082565b6001600160a01b03928316602091820292909201015260095462000ac7913091168462000c08565b600954604051635c11d79560e01b81526001600160a01b0390911690635c11d7959062000b0290859060009086908990429060040162001098565b600060405180830381600087803b15801562000b1d57600080fd5b505af192505050801562000b2f575060015b62000b43575050600e805460ff1916905550565b6040516370a0823160e01b81526001600160a01b03841660048201527f20c67c84c631769d26a34799f5602bae0c3e7f5d298a6609a3e0e7da5cbe6529908390600080516020620027ff833981519152906370a0823190602401602060405180830381865afa15801562000bbb573d6000803e3d6000fd5b505050506040513d601f19601f8201168201806040525081019062000be1919062001052565b6040805192835260208301919091520160405180910390a15050600e805460ff1916905550565b6200046c83838360016001600160a01b03841662000c3d5760405163e602df0560e01b815260006004820152602401620000fa565b6001600160a01b03831662000c6957604051634a1406b160e11b815260006004820152602401620000fa565b6001600160a01b038085166000908152600160209081526040808320938716835292905220829055801562000ce757826001600160a01b0316846001600160a01b03167f8c5be1e5ebec7d5bd14f71427d1e84f3dd0314c0f7b2291e5b200ac8c7c3b9258460405162000cde91815260200190565b60405180910390a35b50505050565b634e487b7160e01b600052601160045260246000fd5b600181815b8085111562000d4457816000190482111562000d285762000d2862000ced565b8085161562000d3657918102915b93841c939080029062000d08565b509250929050565b60008262000d5d5750600162000dfc565b8162000d6c5750600062000dfc565b816001811462000d85576002811462000d905762000db0565b600191505062000dfc565b60ff84111562000da45762000da462000ced565b50506001821b62000dfc565b5060208310610133831016604e8410600b841016171562000dd5575081810a62000dfc565b62000de1838362000d03565b806000190482111562000df85762000df862000ced565b0290505b92915050565b600062000e1360ff84168362000d4c565b9392505050565b808202811582820484141762000dfc5762000dfc62000ced565b80516001600160a01b038116811462000e4c57600080fd5b919050565b6000806040838503121562000e6557600080fd5b62000e708362000e34565b915062000e806020840162000e34565b90509250929050565b634e487b7160e01b600052604160045260246000fd5b600181811c9082168062000eb457607f821691505b60208210810362000ed557634e487b7160e01b600052602260045260246000fd5b50919050565b601f8211156200046c576000816000526020600020601f850160051c8101602086101562000f065750805b601f850160051c820191505b8181101562000f275782815560010162000f12565b505050505050565b81516001600160401b0381111562000f4b5762000f4b62000e89565b62000f638162000f5c845462000e9f565b8462000edb565b602080601f83116001811462000f9b576000841562000f825750858301515b600019600386901b1c1916600185901b17855562000f27565b600085815260208120601f198616915b8281101562000fcc5788860151825594840194600190910190840162000fab565b508582101562000feb5787850151600019600388901b60f8161c191681555b5050505050600190811b01905550565b6000602082840312156200100e57600080fd5b62000e138262000e34565b8181038181111562000dfc5762000dfc62000ced565b6000826200104d57634e487b7160e01b600052601260045260246000fd5b500490565b6000602082840312156200106557600080fd5b5051919050565b8082018082111562000dfc5762000dfc62000ced565b634e487b7160e01b600052603260045260246000fd5b600060a08201878352602087602085015260a0604085015281875180845260c08601915060208901935060005b81811015620010ec5784516001600160a01b031683529383019391830191600101620010c5565b50506001600160a01b03969096166060850152505050608001529392505050565b6116e2806200111d6000396000f3fe608060405234801561001057600080fd5b50600436106101da5760003560e01c806395d89b4111610104578063c4408c8a116100a2578063f2fde38b11610071578063f2fde38b1461040d578063f3f63bfb14610420578063f851a44014610433578063f8d1fe6f1461044657600080fd5b8063c4408c8a1461039d578063c54e44eb146103b0578063dd62ed3e146103cb578063e5d41c6b1461040457600080fd5b8063b64e3c74116100de578063b64e3c741461035b578063b8c9d25c1461036e578063bf2b25f214610381578063c21ebd071461038a57600080fd5b806395d89b411461032d578063a8602fea14610335578063a9059cbb1461034857600080fd5b806340c10f191161017c578063704b6c021161014b578063704b6c02146102d857806370a08231146102eb578063715018a6146103145780638da5cb5b1461031c57600080fd5b806340c10f191461027c5780634626402b146102915780635cb23e12146102bc578063691f224f146102cf57600080fd5b806318160ddd116101b857806318160ddd1461023f57806323b872dd1461025157806324024efd14610264578063313ce5671461026d57600080fd5b8063060e7844146101df57806306fdde0314610217578063095ea7b31461022c575b600080fd5b6102026101ed3660046113da565b600f6020526000908152604090205460ff1681565b60405190151581526020015b60405180910390f35b61021f610459565b60405161020e91906113fc565b61020261023a36600461144b565b6104eb565b6002545b60405190815260200161020e565b61020261025f366004611475565b610505565b61024360075481565b6040516012815260200161020e565b61028f61028a36600461144b565b610529565b005b600b546102a4906001600160a01b031681565b6040516001600160a01b03909116815260200161020e565b61028f6102ca3660046114b1565b610596565b61024360065481565b61028f6102e63660046113da565b610646565b6102436102f93660046113da565b6001600160a01b031660009081526020819052604090205490565b61028f610670565b6005546001600160a01b03166102a4565b61021f610684565b61028f6103433660046113da565b610693565b61020261035636600461144b565b610780565b61028f6103693660046114d3565b61078e565b600a546102a4906001600160a01b031681565b61024360085481565b6009546102a4906001600160a01b031681565b600c546102a4906001600160a01b031681565b6102a47355d398326f99059ff775485246999027b319795581565b6102436103d936600461150f565b6001600160a01b03918216600090815260016020908152604080832093909416825291909152205490565b610243600d5481565b61028f61041b3660046113da565b6107c1565b61028f61042e366004611542565b6107ff565b6010546102a4906001600160a01b031681565b61028f6104543660046113da565b6108a9565b6060600380546104689061155b565b80601f01602080910402602001604051908101604052809291908181526020018280546104949061155b565b80156104e15780601f106104b6576101008083540402835291602001916104e1565b820191906000526020600020905b8154815290600101906020018083116104c457829003601f168201915b5050505050905090565b6000336104f9818585610934565b60019150505b92915050565b600033610513858285610946565b61051e8585856109c4565b506001949350505050565b6010546001600160a01b031633146105885760405162461bcd60e51b815260206004820181905260248201527f4f776e61626c653a2063616c6c6572206973206e6f7420746865206f776e657260448201526064015b60405180910390fd5b6105928282610a23565b5050565b61059e610a59565b610bb882111580156105b25750610bb88111155b6105fe5760405162461bcd60e51b815260206004820152601a60248201527f54617820726174652063616e6e6f742065786365656420333025000000000000604482015260640161057f565b6006829055600781905560408051838152602081018390527f8af72bce83e770654b24f833792771b0c5ecd95a31e17a43d11475b9f0c96aba91015b60405180910390a15050565b61064e610a59565b601080546001600160a01b0319166001600160a01b0392909216919091179055565b610678610a59565b6106826000610a86565b565b6060600480546104689061155b565b61069b610a59565b6001600160a01b0381166106fb5760405162461bcd60e51b815260206004820152602160248201527f4e65772077616c6c65742063616e6e6f74206265207a65726f206164647265736044820152607360f81b606482015260840161057f565b600b80546001600160a01b039081166000908152600f60209081526040808320805460ff1990811690915585546001600160a01b031916948716948517909555838352918290208054909416600117909355519081527f97c79b3848e51f57983ac89e4403452655c8d83ceba8199011de63a74f60d1a791015b60405180910390a150565b6000336104f98185856109c4565b610796610a59565b6001600160a01b03919091166000908152600f60205260409020805460ff1916911515919091179055565b6107c9610a59565b6001600160a01b0381166107f357604051631e4fbdf760e01b81526000600482015260240161057f565b6107fc81610a86565b50565b610807610a59565b6064811015801561081a57506103e88111155b6108745760405162461bcd60e51b815260206004820152602560248201527f4d756c7469706c696572206d757374206265206265747765656e20317820616e6044820152640c8406260f60db1b606482015260840161057f565b60088190556040518181527f6b8335f737488a3fd9d8623e1605ec5a87ea2153306b519b25a0a2b3660192ef90602001610775565b6108b1610a59565b6001600160a01b0381166109125760405162461bcd60e51b815260206004820152602260248201527f4e657720616464726573732063616e6e6f74206265207a65726f206164647265604482015261737360f01b606482015260840161057f565b600c80546001600160a01b0319166001600160a01b0392909216919091179055565b6109418383836001610ad8565b505050565b6001600160a01b0383811660009081526001602090815260408083209386168352929052205460001981146109be57818110156109af57604051637dc7a0d960e11b81526001600160a01b0384166004820152602481018290526044810183905260640161057f565b6109be84848484036000610ad8565b50505050565b6001600160a01b0383166109ee57604051634b637e8f60e11b81526000600482015260240161057f565b6001600160a01b038216610a185760405163ec442f0560e01b81526000600482015260240161057f565b610941838383610bad565b6001600160a01b038216610a4d5760405163ec442f0560e01b81526000600482015260240161057f565b61059260008383610bad565b6005546001600160a01b031633146106825760405163118cdaa760e01b815233600482015260240161057f565b600580546001600160a01b038381166001600160a01b0319831681179093556040519116919082907f8be0079c531659141344cd1fd0a4f28419497f9722a3daafe3b4186f6b6457e090600090a35050565b6001600160a01b038416610b025760405163e602df0560e01b81526000600482015260240161057f565b6001600160a01b038316610b2c57604051634a1406b160e11b81526000600482015260240161057f565b6001600160a01b03808516600090815260016020908152604080832093871683529290522082905580156109be57826001600160a01b0316846001600160a01b03167f8c5be1e5ebec7d5bd14f71427d1e84f3dd0314c0f7b2291e5b200ac8c7c3b92584604051610b9f91815260200190565b60405180910390a350505050565b63ffffffff833b16158015610bca57506001600160a01b03831615155b15610c5f57670de0b6b3a7640000610bf7846001600160a01b031660009081526020819052604090205490565b610c0191906115ab565b811115610c5f5760405162461bcd60e51b815260206004820152602660248201527f45524332303a207472616e7366657220616d6f756e7420657863656564732062604482015265616c616e636560d01b606482015260840161057f565b600e5460ff1615610c7557610941838383610fe8565b6001600160a01b0383161580610c9257506001600160a01b038216155b15610ca257610941838383610fe8565b600a546001600160a01b03908116838216811491851614818015610cd45750600b546001600160a01b03868116911614155b8015610ce35750600e5460ff16155b8015610cf857506001600160a01b0385163014155b15610d26576000606460085485610d0f91906115be565b610d1991906115d5565b9050610d2481611112565b505b6001600160a01b0385166000908152600f602052604081205460ff16158015610d6857506001600160a01b0385166000908152600f602052604090205460ff16155b905060008115610dbe578215610d9a5761271060065486610d8991906115be565b610d9391906115d5565b9050610dbe565b8315610dbe5761271060075486610db191906115be565b610dbb91906115d5565b90505b8015610e0d57610dcf873083610fe8565b600d548110610df4578315610df457600b54610df4906001600160a01b0316826111c4565b610e088787610e0384896115ab565b610fe8565b610e18565b610e18878787610fe8565b82158015610e24575083155b15610fdf57600c546040516370a0823160e01b81526001600160a01b0390911660048201526000907355d398326f99059ff775485246999027b3197955906370a0823190602401602060405180830381865afa158015610e88573d6000803e3d6000fd5b505050506040513d601f19601f82011682018060405250810190610eac91906115f7565b600c54909150610ee3906001600160a01b0316610ede306001600160a01b031660009081526020819052604090205490565b6111c4565b600c546040516370a0823160e01b81526001600160a01b0390911660048201526000907355d398326f99059ff775485246999027b3197955906370a0823190602401602060405180830381865afa158015610f42573d6000803e3d6000fd5b505050506040513d601f19601f82011682018060405250810190610f6691906115f7565b905081811115610fdc57600c546001600160a01b03166351eb05a6610f8b84846115ab565b6040518263ffffffff1660e01b8152600401610fa991815260200190565b600060405180830381600087803b158015610fc357600080fd5b505af1158015610fd7573d6000803e3d6000fd5b505050505b50505b50505050505050565b6001600160a01b0383166110135780600260008282546110089190611610565b909155506110859050565b6001600160a01b038316600090815260208190526040902054818110156110665760405163391434e360e21b81526001600160a01b0385166004820152602481018290526044810183905260640161057f565b6001600160a01b03841660009081526020819052604090209082900390555b6001600160a01b0382166110a1576002805482900390556110c0565b6001600160a01b03821660009081526020819052604090208054820190555b816001600160a01b0316836001600160a01b03167fddf252ad1be2c89b69c2b068fc378daa952ba7f163c4a11628f55a4df523b3ef8360405161110591815260200190565b60405180910390a3505050565b8015806111215750600e5460ff165b156111295750565b600b546001600160a01b031660009081526020819052604090205481811015611150575050565b600e805460ff19166001179055600b54611174906001600160a01b03163084610fe8565b600b5461118a906001600160a01b0316836111c4565b600e805460ff191690556040518281527f289a9be18ec42479f1c35af4fe0586957b53c24d323d7539b69236c0e1c519f89060200161063a565b806000036111d0575050565b600e805460ff19166001179055604080516002808252606082018352600092602083019080368337019050509050308160008151811061121257611212611623565b60200260200101906001600160a01b031690816001600160a01b0316815250507355d398326f99059ff775485246999027b31979558160018151811061125a5761125a611623565b6001600160a01b0392831660209182029290920101526009546112809130911684610934565b600954604051635c11d79560e01b81526001600160a01b0390911690635c11d795906112b9908590600090869089904290600401611639565b600060405180830381600087803b1580156112d357600080fd5b505af19250505080156112e4575060015b6112f7575050600e805460ff1916905550565b6040516370a0823160e01b81526001600160a01b03841660048201527f20c67c84c631769d26a34799f5602bae0c3e7f5d298a6609a3e0e7da5cbe65299083907355d398326f99059ff775485246999027b3197955906370a0823190602401602060405180830381865afa158015611373573d6000803e3d6000fd5b505050506040513d601f19601f8201168201806040525081019061139791906115f7565b6040805192835260208301919091520160405180910390a15050600e805460ff1916905550565b80356001600160a01b03811681146113d557600080fd5b919050565b6000602082840312156113ec57600080fd5b6113f5826113be565b9392505050565b60006020808352835180602085015260005b8181101561142a5785810183015185820160400152820161140e565b506000604082860101526040601f19601f8301168501019250505092915050565b6000806040838503121561145e57600080fd5b611467836113be565b946020939093013593505050565b60008060006060848603121561148a57600080fd5b611493846113be565b92506114a1602085016113be565b9150604084013590509250925092565b600080604083850312156114c457600080fd5b50508035926020909101359150565b600080604083850312156114e657600080fd5b6114ef836113be565b91506020830135801515811461150457600080fd5b809150509250929050565b6000806040838503121561152257600080fd5b61152b836113be565b9150611539602084016113be565b90509250929050565b60006020828403121561155457600080fd5b5035919050565b600181811c9082168061156f57607f821691505b60208210810361158f57634e487b7160e01b600052602260045260246000fd5b50919050565b634e487b7160e01b600052601160045260246000fd5b818103818111156104ff576104ff611595565b80820281158282048414176104ff576104ff611595565b6000826115f257634e487b7160e01b600052601260045260246000fd5b500490565b60006020828403121561160957600080fd5b5051919050565b808201808211156104ff576104ff611595565b634e487b7160e01b600052603260045260246000fd5b600060a08201878352602087602085015260a0604085015281875180845260c08601915060208901935060005b8181101561168b5784516001600160a01b031683529383019391830191600101611666565b50506001600160a01b0396909616606085015250505060800152939250505056fea264697066735822122038c0179a17b7c3744c94c7689cc956e8cfbbf67bcd3b5f5c53a30593ce26149764736f6c6343000818003300000000000000000000000055d398326f99059ff775485246999027b3197955","linkReferences":{}},"methodIdentifiers":{"USDT()":"c54e44eb","admin()":"f851a440","allowance(address,address)":"dd62ed3e","approve(address,uint256)":"095ea7b3","balanceOf(address)":"70a08231","buyTaxRate()":"691f224f","decimals()":"313ce567","isExemptFromTax(address)":"060e7844","minTokensBeforeSwap()":"e5d41c6b","mint(address,uint256)":"40c10f19","name()":"06fdde03","nftStaking()":"c4408c8a","owner()":"8da5cb5b","pancakePair()":"b8c9d25c","pancakeRouter()":"c21ebd07","prioritySellMultiplier()":"bf2b25f2","renounceOwnership()":"715018a6","sellTaxRate()":"24024efd","setAdmin(address)":"704b6c02","setNftStaking(address)":"f8d1fe6f","setPrioritySellMultiplier(uint256)":"f3f63bfb","setTaxExemption(address,bool)":"b64e3c74","setTaxRates(uint256,uint256)":"5cb23e12","setTreasuryWallet(address)":"a8602fea","symbol()":"95d89b41","totalSupply()":"18160ddd","transfer(address,uint256)":"a9059cbb","transferFrom(address,address,uint256)":"23b872dd","transferOwnership(address)":"f2fde38b","treasuryWallet()":"4626402b"},"id":62}