{"abi":[{"type":"constructor","inputs":[{"name":"_treasuryWallet","type":"address","internalType":"address"}],"stateMutability":"nonpayable"},{"type":"function","name":"USDT","inputs":[],"outputs":[{"name":"","type":"address","internalType":"address"}],"stateMutability":"view"},{"type":"function","name":"allowance","inputs":[{"name":"owner","type":"address","internalType":"address"},{"name":"spender","type":"address","internalType":"address"}],"outputs":[{"name":"","type":"uint256","internalType":"uint256"}],"stateMutability":"view"},{"type":"function","name":"approve","inputs":[{"name":"spender","type":"address","internalType":"address"},{"name":"value","type":"uint256","internalType":"uint256"}],"outputs":[{"name":"","type":"bool","internalType":"bool"}],"stateMutability":"nonpayable"},{"type":"function","name":"balanceOf","inputs":[{"name":"account","type":"address","internalType":"address"}],"outputs":[{"name":"","type":"uint256","internalType":"uint256"}],"stateMutability":"view"},{"type":"function","name":"buyTaxRate","inputs":[],"outputs":[{"name":"","type":"uint256","internalType":"uint256"}],"stateMutability":"view"},{"type":"function","name":"decimals","inputs":[],"outputs":[{"name":"","type":"uint8","internalType":"uint8"}],"stateMutability":"view"},{"type":"function","name":"isExemptFromTax","inputs":[{"name":"","type":"address","internalType":"address"}],"outputs":[{"name":"","type":"bool","internalType":"bool"}],"stateMutability":"view"},{"type":"function","name":"minTokensBeforeSwap","inputs":[],"outputs":[{"name":"","type":"uint256","internalType":"uint256"}],"stateMutability":"view"},{"type":"function","name":"name","inputs":[],"outputs":[{"name":"","type":"string","internalType":"string"}],"stateMutability":"view"},{"type":"function","name":"nftStaking","inputs":[],"outputs":[{"name":"","type":"address","internalType":"address"}],"stateMutability":"view"},{"type":"function","name":"owner","inputs":[],"outputs":[{"name":"","type":"address","internalType":"address"}],"stateMutability":"view"},{"type":"function","name":"pancakePair","inputs":[],"outputs":[{"name":"","type":"address","internalType":"address"}],"stateMutability":"view"},{"type":"function","name":"pancakeRouter","inputs":[],"outputs":[{"name":"","type":"address","internalType":"contract IPancakeRouter02"}],"stateMutability":"view"},{"type":"function","name":"prioritySellMultiplier","inputs":[],"outputs":[{"name":"","type":"uint256","internalType":"uint256"}],"stateMutability":"view"},{"type":"function","name":"renounceOwnership","inputs":[],"outputs":[],"stateMutability":"nonpayable"},{"type":"function","name":"sellTaxRate","inputs":[],"outputs":[{"name":"","type":"uint256","internalType":"uint256"}],"stateMutability":"view"},{"type":"function","name":"setNftStaking","inputs":[{"name":"_nftStaking","type":"address","internalType":"address"}],"outputs":[],"stateMutability":"nonpayable"},{"type":"function","name":"setPrioritySellMultiplier","inputs":[{"name":"_multiplier","type":"uint256","internalType":"uint256"}],"outputs":[],"stateMutability":"nonpayable"},{"type":"function","name":"setTaxExemption","inputs":[{"name":"_address","type":"address","internalType":"address"},{"name":"_exempt","type":"bool","internalType":"bool"}],"outputs":[],"stateMutability":"nonpayable"},{"type":"function","name":"setTaxRates","inputs":[{"name":"_buyTaxRate","type":"uint256","internalType":"uint256"},{"name":"_sellTaxRate","type":"uint256","internalType":"uint256"}],"outputs":[],"stateMutability":"nonpayable"},{"type":"function","name":"setTreasuryWallet","inputs":[{"name":"_newWallet","type":"address","internalType":"address"}],"outputs":[],"stateMutability":"nonpayable"},{"type":"function","name":"symbol","inputs":[],"outputs":[{"name":"","type":"string","internalType":"string"}],"stateMutability":"view"},{"type":"function","name":"totalSupply","inputs":[],"outputs":[{"name":"","type":"uint256","internalType":"uint256"}],"stateMutability":"view"},{"type":"function","name":"transfer","inputs":[{"name":"to","type":"address","internalType":"address"},{"name":"value","type":"uint256","internalType":"uint256"}],"outputs":[{"name":"","type":"bool","internalType":"bool"}],"stateMutability":"nonpayable"},{"type":"function","name":"transferFrom","inputs":[{"name":"from","type":"address","internalType":"address"},{"name":"to","type":"address","internalType":"address"},{"name":"value","type":"uint256","internalType":"uint256"}],"outputs":[{"name":"","type":"bool","internalType":"bool"}],"stateMutability":"nonpayable"},{"type":"function","name":"transferOwnership","inputs":[{"name":"newOwner","type":"address","internalType":"address"}],"outputs":[],"stateMutability":"nonpayable"},{"type":"function","name":"treasuryWallet","inputs":[],"outputs":[{"name":"","type":"address","internalType":"address"}],"stateMutability":"view"},{"type":"event","name":"Approval","inputs":[{"name":"owner","type":"address","indexed":true,"internalType":"address"},{"name":"spender","type":"address","indexed":true,"internalType":"address"},{"name":"value","type":"uint256","indexed":false,"internalType":"uint256"}],"anonymous":false},{"type":"event","name":"DebugSwappingState","inputs":[{"name":"swapping","type":"bool","indexed":false,"internalType":"bool"},{"name":"balance","type":"uint256","indexed":false,"internalType":"uint256"}],"anonymous":false},{"type":"event","name":"OwnershipTransferred","inputs":[{"name":"previousOwner","type":"address","indexed":true,"internalType":"address"},{"name":"newOwner","type":"address","indexed":true,"internalType":"address"}],"anonymous":false},{"type":"event","name":"PrioritySellExecuted","inputs":[{"name":"amount","type":"uint256","indexed":false,"internalType":"uint256"}],"anonymous":false},{"type":"event","name":"PrioritySellMultiplierUpdated","inputs":[{"name":"newMultiplier","type":"uint256","indexed":false,"internalType":"uint256"}],"anonymous":false},{"type":"event","name":"SwapAndSendTax","inputs":[{"name":"tokensSwapped","type":"uint256","indexed":false,"internalType":"uint256"},{"name":"usdtReceived","type":"uint256","indexed":false,"internalType":"uint256"}],"anonymous":false},{"type":"event","name":"TaxRatesUpdated","inputs":[{"name":"newBuyTax","type":"uint256","indexed":false,"internalType":"uint256"},{"name":"newSellTax","type":"uint256","indexed":false,"internalType":"uint256"}],"anonymous":false},{"type":"event","name":"Transfer","inputs":[{"name":"from","type":"address","indexed":true,"internalType":"address"},{"name":"to","type":"address","indexed":true,"internalType":"address"},{"name":"value","type":"uint256","indexed":false,"internalType":"uint256"}],"anonymous":false},{"type":"event","name":"TreasuryWalletUpdated","inputs":[{"name":"newWallet","type":"address","indexed":false,"internalType":"address"}],"anonymous":false},{"type":"error","name":"ERC20InsufficientAllowance","inputs":[{"name":"spender","type":"address","internalType":"address"},{"name":"allowance","type":"uint256","internalType":"uint256"},{"name":"needed","type":"uint256","internalType":"uint256"}]},{"type":"error","name":"ERC20InsufficientBalance","inputs":[{"name":"sender","type":"address","internalType":"address"},{"name":"balance","type":"uint256","internalType":"uint256"},{"name":"needed","type":"uint256","internalType":"uint256"}]},{"type":"error","name":"ERC20InvalidApprover","inputs":[{"name":"approver","type":"address","internalType":"address"}]},{"type":"error","name":"ERC20InvalidReceiver","inputs":[{"name":"receiver","type":"address","internalType":"address"}]},{"type":"error","name":"ERC20InvalidSender","inputs":[{"name":"sender","type":"address","internalType":"address"}]},{"type":"error","name":"ERC20InvalidSpender","inputs":[{"name":"spender","type":"address","internalType":"address"}]},{"type":"error","name":"OwnableInvalidOwner","inputs":[{"name":"owner","type":"address","internalType":"address"}]},{"type":"error","name":"OwnableUnauthorizedAccount","inputs":[{"name":"account","type":"address","internalType":"address"}]}],"bytecode":{"object":"0x60806040526101f4600855600980546001600160a01b0319167310ed43c718714eb63d5aa57b78b54704e256024e17905562000039601290565b6200004690600a62000c8e565b6200005390600162000ca6565b600d553480156200006357600080fd5b506040516200239f3803806200239f833981016040819052620000869162000cc0565b60408051808201825260028082526121a360f11b602080840182905284518086019095529184529083015233916003620000c1838262000d91565b506004620000d0828262000d91565b5050506001600160a01b0381166200010357604051631e4fbdf760e01b8152600060048201526024015b60405180910390fd5b6200010e8162000300565b506001600160a01b038116620001765760405162461bcd60e51b815260206004820152602660248201527f54726561737572792077616c6c65742063616e6e6f74206265207a65726f206160448201526564647265737360d01b6064820152608401620000fa565b600b80546001600160a01b0319166001600160a01b03838116919091179091556009546040805163c45a015560e01b81529051919092169163c45a01559160048083019260209291908290030181865afa158015620001d9573d6000803e3d6000fd5b505050506040513d601f19601f82011682018060405250810190620001ff919062000cc0565b6040516364e329cb60e11b81523060048201527355d398326f99059ff775485246999027b319795560248201526001600160a01b03919091169063c9c65396906044016020604051808303816000875af115801562000262573d6000803e3d6000fd5b505050506040513d601f19601f8201168201806040525081019062000288919062000cc0565b600a80546001600160a01b0319166001600160a01b0392831617905561012c600681905560075581166000908152600f6020526040808220805460ff199081166001908117909255308452919092208054909116909117905569d3c21bcecceda1000000620002f8338262000352565b505062000f51565b600580546001600160a01b038381166001600160a01b0319831681179093556040519116919082907f8be0079c531659141344cd1fd0a4f28419497f9722a3daafe3b4186f6b6457e090600090a35050565b6001600160a01b0382166200037e5760405163ec442f0560e01b815260006004820152602401620000fa565b6200038c6000838362000390565b5050565b823b63ffffffff16158015620003cd5750670de0b6b3a7640000620003ca846001600160a01b031660009081526020819052604090205490565b10155b156200046857670de0b6b3a7640000620003fc846001600160a01b031660009081526020819052604090205490565b62000408919062000e5d565b811115620004685760405162461bcd60e51b815260206004820152602660248201527f45524332303a207472616e7366657220616d6f756e7420657863656564732062604482015265616c616e636560d01b6064820152608401620000fa565b600e5460ff161562000486576200048183838362000696565b505050565b6001600160a01b0383161580620004a457506001600160a01b038216155b15620004b7576200048183838362000696565b600a546001600160a01b03908116838216811491851614818015620004ea5750600b546001600160a01b03868116911614155b8015620004fa5750600e5460ff16155b80156200051057506001600160a01b0385163014155b15620005455760006064600854856200052a919062000ca6565b62000536919062000e73565b90506200054381620007c9565b505b6001600160a01b0385166000908152600f602052604081205460ff161580156200058857506001600160a01b0385166000908152600f602052604090205460ff16155b905060008115620005ea578215620005c15761271060065486620005ad919062000ca6565b620005b9919062000e73565b9050620005ea565b8315620005ea5761271060075486620005db919062000ca6565b620005e7919062000e73565b90505b80156200064557620005fe87308362000696565b600d548110620006275783156200062757600b5462000627906001600160a01b03168262000889565b6200063f878762000639848962000e5d565b62000696565b62000652565b6200065287878762000696565b821580156200065f575083155b156200068d57600c54306000908152602081905260409020546200068d916001600160a01b03169062000889565b50505050505050565b6001600160a01b038316620006c5578060026000828254620006b9919062000e96565b90915550620007399050565b6001600160a01b038316600090815260208190526040902054818110156200071a5760405163391434e360e21b81526001600160a01b03851660048201526024810182905260448101839052606401620000fa565b6001600160a01b03841660009081526020819052604090209082900390555b6001600160a01b038216620007575760028054829003905562000776565b6001600160a01b03821660009081526020819052604090208054820190555b816001600160a01b0316836001600160a01b03167fddf252ad1be2c89b69c2b068fc378daa952ba7f163c4a11628f55a4df523b3ef83604051620007bc91815260200190565b60405180910390a3505050565b801580620007d95750600e5460ff165b15620007e25750565b600b546001600160a01b0316600090815260208190526040902054818110156200080a575050565b600e805460ff19166001179055600b5462000830906001600160a01b0316308462000696565b600b5462000848906001600160a01b03168362000889565b600e805460ff191690556040518281527f289a9be18ec42479f1c35af4fe0586957b53c24d323d7539b69236c0e1c519f89060200160405180910390a15050565b8060000362000896575050565b600e805460ff191660011790556040805160028082526060820183526000926020830190803683370190505090503081600081518110620008db57620008db62000eac565b60200260200101906001600160a01b031690816001600160a01b0316815250507355d398326f99059ff775485246999027b31979558160018151811062000926576200092662000eac565b6001600160a01b0392831660209182029290920101526009546200094e913091168462000a94565b600954604051635c11d79560e01b81526001600160a01b0390911690635c11d795906200098990859060009086908990429060040162000ec2565b600060405180830381600087803b158015620009a457600080fd5b505af1925050508015620009b6575060015b620009ca575050600e805460ff1916905550565b6040516370a0823160e01b81526001600160a01b03841660048201527f20c67c84c631769d26a34799f5602bae0c3e7f5d298a6609a3e0e7da5cbe65299083907355d398326f99059ff775485246999027b3197955906370a0823190602401602060405180830381865afa15801562000a47573d6000803e3d6000fd5b505050506040513d601f19601f8201168201806040525081019062000a6d919062000f37565b6040805192835260208301919091520160405180910390a15050600e805460ff1916905550565b6200048183838360016001600160a01b03841662000ac95760405163e602df0560e01b815260006004820152602401620000fa565b6001600160a01b03831662000af557604051634a1406b160e11b815260006004820152602401620000fa565b6001600160a01b038085166000908152600160209081526040808320938716835292905220829055801562000b7357826001600160a01b0316846001600160a01b03167f8c5be1e5ebec7d5bd14f71427d1e84f3dd0314c0f7b2291e5b200ac8c7c3b9258460405162000b6a91815260200190565b60405180910390a35b50505050565b634e487b7160e01b600052601160045260246000fd5b600181815b8085111562000bd057816000190482111562000bb45762000bb462000b79565b8085161562000bc257918102915b93841c939080029062000b94565b509250929050565b60008262000be95750600162000c88565b8162000bf85750600062000c88565b816001811462000c11576002811462000c1c5762000c3c565b600191505062000c88565b60ff84111562000c305762000c3062000b79565b50506001821b62000c88565b5060208310610133831016604e8410600b841016171562000c61575081810a62000c88565b62000c6d838362000b8f565b806000190482111562000c845762000c8462000b79565b0290505b92915050565b600062000c9f60ff84168362000bd8565b9392505050565b808202811582820484141762000c885762000c8862000b79565b60006020828403121562000cd357600080fd5b81516001600160a01b038116811462000c9f57600080fd5b634e487b7160e01b600052604160045260246000fd5b600181811c9082168062000d1657607f821691505b60208210810362000d3757634e487b7160e01b600052602260045260246000fd5b50919050565b601f82111562000481576000816000526020600020601f850160051c8101602086101562000d685750805b601f850160051c820191505b8181101562000d895782815560010162000d74565b505050505050565b81516001600160401b0381111562000dad5762000dad62000ceb565b62000dc58162000dbe845462000d01565b8462000d3d565b602080601f83116001811462000dfd576000841562000de45750858301515b600019600386901b1c1916600185901b17855562000d89565b600085815260208120601f198616915b8281101562000e2e5788860151825594840194600190910190840162000e0d565b508582101562000e4d5787850151600019600388901b60f8161c191681555b5050505050600190811b01905550565b8181038181111562000c885762000c8862000b79565b60008262000e9157634e487b7160e01b600052601260045260246000fd5b500490565b8082018082111562000c885762000c8862000b79565b634e487b7160e01b600052603260045260246000fd5b600060a08201878352602087602085015260a0604085015281875180845260c08601915060208901935060005b8181101562000f165784516001600160a01b03168352938301939183019160010162000eef565b50506001600160a01b03969096166060850152505050608001529392505050565b60006020828403121562000f4a57600080fd5b5051919050565b61143e8062000f616000396000f3fe608060405234801561001057600080fd5b50600436106101a95760003560e01c806395d89b41116100f9578063c4408c8a11610097578063e5d41c6b11610071578063e5d41c6b146103ad578063f2fde38b146103b6578063f3f63bfb146103c9578063f8d1fe6f146103dc57600080fd5b8063c4408c8a14610346578063c54e44eb14610359578063dd62ed3e1461037457600080fd5b8063b64e3c74116100d3578063b64e3c7414610304578063b8c9d25c14610317578063bf2b25f21461032a578063c21ebd071461033357600080fd5b806395d89b41146102d6578063a8602fea146102de578063a9059cbb146102f157600080fd5b8063313ce56711610166578063691f224f11610140578063691f224f1461028b57806370a0823114610294578063715018a6146102bd5780638da5cb5b146102c557600080fd5b8063313ce5671461023c5780634626402b1461024b5780635cb23e121461027657600080fd5b8063060e7844146101ae57806306fdde03146101e6578063095ea7b3146101fb57806318160ddd1461020e57806323b872dd1461022057806324024efd14610233575b600080fd5b6101d16101bc366004611136565b600f6020526000908152604090205460ff1681565b60405190151581526020015b60405180910390f35b6101ee6103ef565b6040516101dd9190611158565b6101d16102093660046111a7565b610481565b6002545b6040519081526020016101dd565b6101d161022e3660046111d1565b61049b565b61021260075481565b604051601281526020016101dd565b600b5461025e906001600160a01b031681565b6040516001600160a01b0390911681526020016101dd565b61028961028436600461120d565b6104bf565b005b61021260065481565b6102126102a2366004611136565b6001600160a01b031660009081526020819052604090205490565b610289610574565b6005546001600160a01b031661025e565b6101ee610588565b6102896102ec366004611136565b610597565b6101d16102ff3660046111a7565b610684565b61028961031236600461122f565b610692565b600a5461025e906001600160a01b031681565b61021260085481565b60095461025e906001600160a01b031681565b600c5461025e906001600160a01b031681565b61025e7355d398326f99059ff775485246999027b319795581565b61021261038236600461126b565b6001600160a01b03918216600090815260016020908152604080832093909416825291909152205490565b610212600d5481565b6102896103c4366004611136565b6106c5565b6102896103d736600461129e565b610703565b6102896103ea366004611136565b6107ad565b6060600380546103fe906112b7565b80601f016020809104026020016040519081016040528092919081815260200182805461042a906112b7565b80156104775780601f1061044c57610100808354040283529160200191610477565b820191906000526020600020905b81548152906001019060200180831161045a57829003601f168201915b5050505050905090565b60003361048f818585610838565b60019150505b92915050565b6000336104a985828561084a565b6104b48585856108c8565b506001949350505050565b6104c7610927565b610bb882111580156104db5750610bb88111155b61052c5760405162461bcd60e51b815260206004820152601a60248201527f54617820726174652063616e6e6f74206578636565642033302500000000000060448201526064015b60405180910390fd5b6006829055600781905560408051838152602081018390527f8af72bce83e770654b24f833792771b0c5ecd95a31e17a43d11475b9f0c96aba91015b60405180910390a15050565b61057c610927565b6105866000610954565b565b6060600480546103fe906112b7565b61059f610927565b6001600160a01b0381166105ff5760405162461bcd60e51b815260206004820152602160248201527f4e65772077616c6c65742063616e6e6f74206265207a65726f206164647265736044820152607360f81b6064820152608401610523565b600b80546001600160a01b039081166000908152600f60209081526040808320805460ff1990811690915585546001600160a01b031916948716948517909555838352918290208054909416600117909355519081527f97c79b3848e51f57983ac89e4403452655c8d83ceba8199011de63a74f60d1a791015b60405180910390a150565b60003361048f8185856108c8565b61069a610927565b6001600160a01b03919091166000908152600f60205260409020805460ff1916911515919091179055565b6106cd610927565b6001600160a01b0381166106f757604051631e4fbdf760e01b815260006004820152602401610523565b61070081610954565b50565b61070b610927565b6064811015801561071e57506103e88111155b6107785760405162461bcd60e51b815260206004820152602560248201527f4d756c7469706c696572206d757374206265206265747765656e20317820616e6044820152640c8406260f60db1b6064820152608401610523565b60088190556040518181527f6b8335f737488a3fd9d8623e1605ec5a87ea2153306b519b25a0a2b3660192ef90602001610679565b6107b5610927565b6001600160a01b0381166108165760405162461bcd60e51b815260206004820152602260248201527f4e657720616464726573732063616e6e6f74206265207a65726f206164647265604482015261737360f01b6064820152608401610523565b600c80546001600160a01b0319166001600160a01b0392909216919091179055565b61084583838360016109a6565b505050565b6001600160a01b0383811660009081526001602090815260408083209386168352929052205460001981146108c257818110156108b357604051637dc7a0d960e11b81526001600160a01b03841660048201526024810182905260448101839052606401610523565b6108c2848484840360006109a6565b50505050565b6001600160a01b0383166108f257604051634b637e8f60e11b815260006004820152602401610523565b6001600160a01b03821661091c5760405163ec442f0560e01b815260006004820152602401610523565b610845838383610a7b565b6005546001600160a01b031633146105865760405163118cdaa760e01b8152336004820152602401610523565b600580546001600160a01b038381166001600160a01b0319831681179093556040519116919082907f8be0079c531659141344cd1fd0a4f28419497f9722a3daafe3b4186f6b6457e090600090a35050565b6001600160a01b0384166109d05760405163e602df0560e01b815260006004820152602401610523565b6001600160a01b0383166109fa57604051634a1406b160e11b815260006004820152602401610523565b6001600160a01b03808516600090815260016020908152604080832093871683529290522082905580156108c257826001600160a01b0316846001600160a01b03167f8c5be1e5ebec7d5bd14f71427d1e84f3dd0314c0f7b2291e5b200ac8c7c3b92584604051610a6d91815260200190565b60405180910390a350505050565b63ffffffff833b16158015610ab65750670de0b6b3a7640000610ab3846001600160a01b031660009081526020819052604090205490565b10155b15610b4b57670de0b6b3a7640000610ae3846001600160a01b031660009081526020819052604090205490565b610aed9190611307565b811115610b4b5760405162461bcd60e51b815260206004820152602660248201527f45524332303a207472616e7366657220616d6f756e7420657863656564732062604482015265616c616e636560d01b6064820152608401610523565b600e5460ff1615610b6157610845838383610d44565b6001600160a01b0383161580610b7e57506001600160a01b038216155b15610b8e57610845838383610d44565b600a546001600160a01b03908116838216811491851614818015610bc05750600b546001600160a01b03868116911614155b8015610bcf5750600e5460ff16155b8015610be457506001600160a01b0385163014155b15610c12576000606460085485610bfb919061131a565b610c059190611331565b9050610c1081610e6e565b505b6001600160a01b0385166000908152600f602052604081205460ff16158015610c5457506001600160a01b0385166000908152600f602052604090205460ff16155b905060008115610caa578215610c865761271060065486610c75919061131a565b610c7f9190611331565b9050610caa565b8315610caa5761271060075486610c9d919061131a565b610ca79190611331565b90505b8015610cf957610cbb873083610d44565b600d548110610ce0578315610ce057600b54610ce0906001600160a01b031682610f20565b610cf48787610cef8489611307565b610d44565b610d04565b610d04878787610d44565b82158015610d10575083155b15610d3b57600c5430600090815260208190526040902054610d3b916001600160a01b031690610f20565b50505050505050565b6001600160a01b038316610d6f578060026000828254610d649190611353565b90915550610de19050565b6001600160a01b03831660009081526020819052604090205481811015610dc25760405163391434e360e21b81526001600160a01b03851660048201526024810182905260448101839052606401610523565b6001600160a01b03841660009081526020819052604090209082900390555b6001600160a01b038216610dfd57600280548290039055610e1c565b6001600160a01b03821660009081526020819052604090208054820190555b816001600160a01b0316836001600160a01b03167fddf252ad1be2c89b69c2b068fc378daa952ba7f163c4a11628f55a4df523b3ef83604051610e6191815260200190565b60405180910390a3505050565b801580610e7d5750600e5460ff165b15610e855750565b600b546001600160a01b031660009081526020819052604090205481811015610eac575050565b600e805460ff19166001179055600b54610ed0906001600160a01b03163084610d44565b600b54610ee6906001600160a01b031683610f20565b600e805460ff191690556040518281527f289a9be18ec42479f1c35af4fe0586957b53c24d323d7539b69236c0e1c519f890602001610568565b80600003610f2c575050565b600e805460ff191660011790556040805160028082526060820183526000926020830190803683370190505090503081600081518110610f6e57610f6e611366565b60200260200101906001600160a01b031690816001600160a01b0316815250507355d398326f99059ff775485246999027b319795581600181518110610fb657610fb6611366565b6001600160a01b039283166020918202929092010152600954610fdc9130911684610838565b600954604051635c11d79560e01b81526001600160a01b0390911690635c11d7959061101590859060009086908990429060040161137c565b600060405180830381600087803b15801561102f57600080fd5b505af1925050508015611040575060015b611053575050600e805460ff1916905550565b6040516370a0823160e01b81526001600160a01b03841660048201527f20c67c84c631769d26a34799f5602bae0c3e7f5d298a6609a3e0e7da5cbe65299083907355d398326f99059ff775485246999027b3197955906370a0823190602401602060405180830381865afa1580156110cf573d6000803e3d6000fd5b505050506040513d601f19601f820116820180604052508101906110f391906113ef565b6040805192835260208301919091520160405180910390a15050600e805460ff1916905550565b80356001600160a01b038116811461113157600080fd5b919050565b60006020828403121561114857600080fd5b6111518261111a565b9392505050565b60006020808352835180602085015260005b818110156111865785810183015185820160400152820161116a565b506000604082860101526040601f19601f8301168501019250505092915050565b600080604083850312156111ba57600080fd5b6111c38361111a565b946020939093013593505050565b6000806000606084860312156111e657600080fd5b6111ef8461111a565b92506111fd6020850161111a565b9150604084013590509250925092565b6000806040838503121561122057600080fd5b50508035926020909101359150565b6000806040838503121561124257600080fd5b61124b8361111a565b91506020830135801515811461126057600080fd5b809150509250929050565b6000806040838503121561127e57600080fd5b6112878361111a565b91506112956020840161111a565b90509250929050565b6000602082840312156112b057600080fd5b5035919050565b600181811c908216806112cb57607f821691505b6020821081036112eb57634e487b7160e01b600052602260045260246000fd5b50919050565b634e487b7160e01b600052601160045260246000fd5b81810381811115610495576104956112f1565b8082028115828204841417610495576104956112f1565b60008261134e57634e487b7160e01b600052601260045260246000fd5b500490565b80820180821115610495576104956112f1565b634e487b7160e01b600052603260045260246000fd5b600060a08201878352602087602085015260a0604085015281875180845260c08601915060208901935060005b818110156113ce5784516001600160a01b0316835293830193918301916001016113a9565b50506001600160a01b03969096166060850152505050608001529392505050565b60006020828403121561140157600080fd5b505191905056fea2646970667358221220f5e3286208b8d5ddd53824741311e5528f77e6fdf291175089b97a7ace2aa20664736f6c63430008180033","linkReferences":{}},"methodIdentifiers":{"USDT()":"c54e44eb","allowance(address,address)":"dd62ed3e","approve(address,uint256)":"095ea7b3","balanceOf(address)":"70a08231","buyTaxRate()":"691f224f","decimals()":"313ce567","isExemptFromTax(address)":"060e7844","minTokensBeforeSwap()":"e5d41c6b","name()":"06fdde03","nftStaking()":"c4408c8a","owner()":"8da5cb5b","pancakePair()":"b8c9d25c","pancakeRouter()":"c21ebd07","prioritySellMultiplier()":"bf2b25f2","renounceOwnership()":"715018a6","sellTaxRate()":"24024efd","setNftStaking(address)":"f8d1fe6f","setPrioritySellMultiplier(uint256)":"f3f63bfb","setTaxExemption(address,bool)":"b64e3c74","setTaxRates(uint256,uint256)":"5cb23e12","setTreasuryWallet(address)":"a8602fea","symbol()":"95d89b41","totalSupply()":"18160ddd","transfer(address,uint256)":"a9059cbb","transferFrom(address,address,uint256)":"23b872dd","transferOwnership(address)":"f2fde38b","treasuryWallet()":"4626402b"},"id":29}