{
	"LockLiquidity.sol": {
		"LockLiquidity": {
			"abi": [
				{
					"inputs": [
						{
							"internalType": "address",
							"name": "target",
							"type": "address"
						}
					],
					"name": "AddressEmptyCode",
					"type": "error"
				},
				{
					"inputs": [
						{
							"internalType": "address",
							"name": "implementation",
							"type": "address"
						}
					],
					"name": "ERC1967InvalidImplementation",
					"type": "error"
				},
				{
					"inputs": [],
					"name": "ERC1967NonPayable",
					"type": "error"
				},
				{
					"inputs": [],
					"name": "FailedCall",
					"type": "error"
				},
				{
					"inputs": [],
					"name": "InvalidInitialization",
					"type": "error"
				},
				{
					"inputs": [],
					"name": "NotInitializing",
					"type": "error"
				},
				{
					"inputs": [
						{
							"internalType": "address",
							"name": "owner",
							"type": "address"
						}
					],
					"name": "OwnableInvalidOwner",
					"type": "error"
				},
				{
					"inputs": [
						{
							"internalType": "address",
							"name": "account",
							"type": "address"
						}
					],
					"name": "OwnableUnauthorizedAccount",
					"type": "error"
				},
				{
					"inputs": [],
					"name": "ReentrancyGuardReentrantCall",
					"type": "error"
				},
				{
					"inputs": [],
					"name": "UUPSUnauthorizedCallContext",
					"type": "error"
				},
				{
					"inputs": [
						{
							"internalType": "bytes32",
							"name": "slot",
							"type": "bytes32"
						}
					],
					"name": "UUPSUnsupportedProxiableUUID",
					"type": "error"
				},
				{
					"anonymous": false,
					"inputs": [
						{
							"indexed": false,
							"internalType": "address",
							"name": "sender",
							"type": "address"
						},
						{
							"indexed": false,
							"internalType": "uint256",
							"name": "amount",
							"type": "uint256"
						}
					],
					"name": "FundsRaised",
					"type": "event"
				},
				{
					"anonymous": false,
					"inputs": [
						{
							"indexed": false,
							"internalType": "uint64",
							"name": "version",
							"type": "uint64"
						}
					],
					"name": "Initialized",
					"type": "event"
				},
				{
					"anonymous": false,
					"inputs": [
						{
							"indexed": false,
							"internalType": "string",
							"name": "mark",
							"type": "string"
						},
						{
							"indexed": false,
							"internalType": "uint256",
							"name": "length",
							"type": "uint256"
						}
					],
					"name": "LockLiquidityCreated",
					"type": "event"
				},
				{
					"anonymous": false,
					"inputs": [
						{
							"indexed": true,
							"internalType": "address",
							"name": "previousOwner",
							"type": "address"
						},
						{
							"indexed": true,
							"internalType": "address",
							"name": "newOwner",
							"type": "address"
						}
					],
					"name": "OwnershipTransferred",
					"type": "event"
				},
				{
					"anonymous": false,
					"inputs": [
						{
							"indexed": true,
							"internalType": "address",
							"name": "implementation",
							"type": "address"
						}
					],
					"name": "Upgraded",
					"type": "event"
				},
				{
					"inputs": [],
					"name": "DEAD",
					"outputs": [
						{
							"internalType": "address",
							"name": "",
							"type": "address"
						}
					],
					"stateMutability": "view",
					"type": "function"
				},
				{
					"inputs": [],
					"name": "UPGRADE_INTERFACE_VERSION",
					"outputs": [
						{
							"internalType": "string",
							"name": "",
							"type": "string"
						}
					],
					"stateMutability": "view",
					"type": "function"
				},
				{
					"inputs": [],
					"name": "WBNB",
					"outputs": [
						{
							"internalType": "address",
							"name": "",
							"type": "address"
						}
					],
					"stateMutability": "view",
					"type": "function"
				},
				{
					"inputs": [],
					"name": "bnbRecipient",
					"outputs": [
						{
							"internalType": "address",
							"name": "",
							"type": "address"
						}
					],
					"stateMutability": "view",
					"type": "function"
				},
				{
					"inputs": [
						{
							"internalType": "uint256",
							"name": "",
							"type": "uint256"
						}
					],
					"name": "funders",
					"outputs": [
						{
							"internalType": "address",
							"name": "",
							"type": "address"
						}
					],
					"stateMutability": "view",
					"type": "function"
				},
				{
					"inputs": [
						{
							"internalType": "address",
							"name": "user",
							"type": "address"
						}
					],
					"name": "getExpirationTime",
					"outputs": [
						{
							"internalType": "uint256",
							"name": "expirationTime",
							"type": "uint256"
						}
					],
					"stateMutability": "view",
					"type": "function"
				},
				{
					"inputs": [],
					"name": "getFunders",
					"outputs": [
						{
							"internalType": "address[]",
							"name": "",
							"type": "address[]"
						}
					],
					"stateMutability": "view",
					"type": "function"
				},
				{
					"inputs": [
						{
							"internalType": "address",
							"name": "funder",
							"type": "address"
						}
					],
					"name": "getRaiseAmount",
					"outputs": [
						{
							"internalType": "uint256",
							"name": "",
							"type": "uint256"
						}
					],
					"stateMutability": "view",
					"type": "function"
				},
				{
					"inputs": [
						{
							"internalType": "address",
							"name": "user",
							"type": "address"
						}
					],
					"name": "getUnlockedAmount",
					"outputs": [
						{
							"internalType": "uint256",
							"name": "unlockedAmount",
							"type": "uint256"
						}
					],
					"stateMutability": "view",
					"type": "function"
				},
				{
					"inputs": [
						{
							"internalType": "address",
							"name": "",
							"type": "address"
						}
					],
					"name": "holderInfo",
					"outputs": [
						{
							"internalType": "uint256",
							"name": "liquidityAmount",
							"type": "uint256"
						},
						{
							"internalType": "uint256",
							"name": "lockTime",
							"type": "uint256"
						}
					],
					"stateMutability": "view",
					"type": "function"
				},
				{
					"inputs": [
						{
							"internalType": "address",
							"name": "_lpToken",
							"type": "address"
						},
						{
							"internalType": "address",
							"name": "_token",
							"type": "address"
						},
						{
							"internalType": "address",
							"name": "_lockOwner",
							"type": "address"
						},
						{
							"internalType": "address",
							"name": "_bnbRecipient",
							"type": "address"
						}
					],
					"name": "initialize",
					"outputs": [],
					"stateMutability": "nonpayable",
					"type": "function"
				},
				{
					"inputs": [
						{
							"internalType": "string",
							"name": "mark",
							"type": "string"
						},
						{
							"internalType": "address[]",
							"name": "users",
							"type": "address[]"
						},
						{
							"internalType": "uint256[]",
							"name": "amounts",
							"type": "uint256[]"
						}
					],
					"name": "lockLiquidity",
					"outputs": [],
					"stateMutability": "nonpayable",
					"type": "function"
				},
				{
					"inputs": [],
					"name": "lockOwner",
					"outputs": [
						{
							"internalType": "address",
							"name": "",
							"type": "address"
						}
					],
					"stateMutability": "view",
					"type": "function"
				},
				{
					"inputs": [],
					"name": "lpToken",
					"outputs": [
						{
							"internalType": "address",
							"name": "",
							"type": "address"
						}
					],
					"stateMutability": "view",
					"type": "function"
				},
				{
					"inputs": [],
					"name": "owner",
					"outputs": [
						{
							"internalType": "address",
							"name": "",
							"type": "address"
						}
					],
					"stateMutability": "view",
					"type": "function"
				},
				{
					"inputs": [],
					"name": "proxiableUUID",
					"outputs": [
						{
							"internalType": "bytes32",
							"name": "",
							"type": "bytes32"
						}
					],
					"stateMutability": "view",
					"type": "function"
				},
				{
					"inputs": [
						{
							"internalType": "address",
							"name": "",
							"type": "address"
						}
					],
					"name": "raiseAmount",
					"outputs": [
						{
							"internalType": "uint256",
							"name": "",
							"type": "uint256"
						}
					],
					"stateMutability": "view",
					"type": "function"
				},
				{
					"inputs": [],
					"name": "raiseFunds",
					"outputs": [],
					"stateMutability": "payable",
					"type": "function"
				},
				{
					"inputs": [],
					"name": "renounceOwnership",
					"outputs": [],
					"stateMutability": "nonpayable",
					"type": "function"
				},
				{
					"inputs": [
						{
							"internalType": "address",
							"name": "_token",
							"type": "address"
						},
						{
							"internalType": "address",
							"name": "_lpToken",
							"type": "address"
						},
						{
							"internalType": "address",
							"name": "_bnbRecipient",
							"type": "address"
						},
						{
							"internalType": "address",
							"name": "_lockOwner",
							"type": "address"
						}
					],
					"name": "setAddress",
					"outputs": [],
					"stateMutability": "nonpayable",
					"type": "function"
				},
				{
					"inputs": [],
					"name": "token",
					"outputs": [
						{
							"internalType": "address",
							"name": "",
							"type": "address"
						}
					],
					"stateMutability": "view",
					"type": "function"
				},
				{
					"inputs": [
						{
							"internalType": "address",
							"name": "newOwner",
							"type": "address"
						}
					],
					"name": "transferOwnership",
					"outputs": [],
					"stateMutability": "nonpayable",
					"type": "function"
				},
				{
					"inputs": [],
					"name": "uniswapV2Router",
					"outputs": [
						{
							"internalType": "address",
							"name": "",
							"type": "address"
						}
					],
					"stateMutability": "view",
					"type": "function"
				},
				{
					"inputs": [],
					"name": "unlockLiquidity",
					"outputs": [],
					"stateMutability": "nonpayable",
					"type": "function"
				},
				{
					"inputs": [
						{
							"internalType": "address",
							"name": "newImplementation",
							"type": "address"
						},
						{
							"internalType": "bytes",
							"name": "data",
							"type": "bytes"
						}
					],
					"name": "upgradeToAndCall",
					"outputs": [],
					"stateMutability": "payable",
					"type": "function"
				},
				{
					"stateMutability": "payable",
					"type": "receive"
				}
			],
			"devdoc": {
				"errors": {
					"AddressEmptyCode(address)": [
						{
							"details": "There's no code at `target` (it is not a contract)."
						}
					],
					"ERC1967InvalidImplementation(address)": [
						{
							"details": "The `implementation` of the proxy is invalid."
						}
					],
					"ERC1967NonPayable()": [
						{
							"details": "An upgrade function sees `msg.value > 0` that may be lost."
						}
					],
					"FailedCall()": [
						{
							"details": "A call to an address target failed. The target may have reverted."
						}
					],
					"InvalidInitialization()": [
						{
							"details": "The contract is already initialized."
						}
					],
					"NotInitializing()": [
						{
							"details": "The contract is not initializing."
						}
					],
					"OwnableInvalidOwner(address)": [
						{
							"details": "The owner is not a valid owner account. (eg. `address(0)`)"
						}
					],
					"OwnableUnauthorizedAccount(address)": [
						{
							"details": "The caller account is not authorized to perform an operation."
						}
					],
					"ReentrancyGuardReentrantCall()": [
						{
							"details": "Unauthorized reentrant call."
						}
					],
					"UUPSUnauthorizedCallContext()": [
						{
							"details": "The call is from an unauthorized context."
						}
					],
					"UUPSUnsupportedProxiableUUID(bytes32)": [
						{
							"details": "The storage `slot` is unsupported as a UUID."
						}
					]
				},
				"events": {
					"Initialized(uint64)": {
						"details": "Triggered when the contract has been initialized or reinitialized."
					},
					"Upgraded(address)": {
						"details": "Emitted when the implementation is upgraded."
					}
				},
				"kind": "dev",
				"methods": {
					"owner()": {
						"details": "Returns the address of the current owner."
					},
					"proxiableUUID()": {
						"details": "Implementation of the ERC-1822 {proxiableUUID} function. This returns the storage slot used by the implementation. It is used to validate the implementation's compatibility when performing an upgrade. IMPORTANT: A proxy pointing at a proxiable contract should not be considered proxiable itself, because this risks bricking a proxy that upgrades to it, by delegating to itself until out of gas. Thus it is critical that this function revert if invoked through a proxy. This is guaranteed by the `notDelegated` modifier."
					},
					"renounceOwnership()": {
						"details": "Leaves the contract without owner. It will not be possible to call `onlyOwner` functions. Can only be called by the current owner. NOTE: Renouncing ownership will leave the contract without an owner, thereby disabling any functionality that is only available to the owner."
					},
					"transferOwnership(address)": {
						"details": "Transfers ownership of the contract to a new account (`newOwner`). Can only be called by the current owner."
					},
					"upgradeToAndCall(address,bytes)": {
						"custom:oz-upgrades-unsafe-allow-reachable": "delegatecall",
						"details": "Upgrade the implementation of the proxy to `newImplementation`, and subsequently execute the function call encoded in `data`. Calls {_authorizeUpgrade}. Emits an {Upgraded} event."
					}
				},
				"version": 1
			},
			"evm": {
				"assembly": "    /* \"LockLiquidity.sol\":633:5178  contract LockLiquidity is Initializable, OwnableUpgradeable, UUPSUpgradeable, ReentrancyGuard{... */\n  mstore(0x40, 0xa0)\n    /* \"@openzeppelin/contracts-upgradeable/proxy/utils/UUPSUpgradeable.sol\":1171:1175  this */\n  address\n    /* \"@openzeppelin/contracts-upgradeable/proxy/utils/UUPSUpgradeable.sol\":1128:1176  address private immutable __self = address(this) */\n  0xffffffffffffffffffffffffffffffffffffffff\n  and\n  0x80\n  swap1\n  0xffffffffffffffffffffffffffffffffffffffff\n  and\n  dup2\n  mstore\n  pop\n    /* \"LockLiquidity.sol\":633:5178  contract LockLiquidity is Initializable, OwnableUpgradeable, UUPSUpgradeable, ReentrancyGuard{... */\n  callvalue\n  dup1\n  iszero\n  tag_1\n  jumpi\n  0x00\n  dup1\n  revert\ntag_1:\n  pop\n    /* \"@openzeppelin/contracts/utils/ReentrancyGuard.sol\":1857:1858  1 */\n  0x01\n    /* \"@openzeppelin/contracts/utils/ReentrancyGuard.sol\":2061:2068  _status */\n  0x00\n    /* \"@openzeppelin/contracts/utils/ReentrancyGuard.sol\":2061:2082  _status = NOT_ENTERED */\n  dup2\n  swap1\n  sstore\n  pop\n    /* \"LockLiquidity.sol\":633:5178  contract LockLiquidity is Initializable, OwnableUpgradeable, UUPSUpgradeable, ReentrancyGuard{... */\n  mload(0x80)\n  codecopy(0x00, dataOffset(sub_0), dataSize(sub_0))\n  0x00\n  assignImmutable(\"0x4ce4dab4689da140a0c12de1a6af6b8f679594aeb723205f513e052d27f5b26f\")\n  return(0x00, dataSize(sub_0))\nstop\n\nsub_0: assembly {\n        /* \"LockLiquidity.sol\":633:5178  contract LockLiquidity is Initializable, OwnableUpgradeable, UUPSUpgradeable, ReentrancyGuard{... */\n      mstore(0x40, 0x80)\n      jumpi(tag_1, lt(calldatasize, 0x04))\n      shr(0xe0, calldataload(0x00))\n      dup1\n      0x715018a6\n      gt\n      tag_28\n      jumpi\n      dup1\n      0xad3cb1cc\n      gt\n      tag_29\n      jumpi\n      dup1\n      0xea63a044\n      gt\n      tag_30\n      jumpi\n      dup1\n      0xea63a044\n      eq\n      tag_24\n      jumpi\n      dup1\n      0xf2fde38b\n      eq\n      tag_25\n      jumpi\n      dup1\n      0xf8c8765e\n      eq\n      tag_26\n      jumpi\n      dup1\n      0xfc0c546a\n      eq\n      tag_27\n      jumpi\n      jump(tag_2)\n    tag_30:\n      dup1\n      0xad3cb1cc\n      eq\n      tag_21\n      jumpi\n      dup1\n      0xcc514739\n      eq\n      tag_22\n      jumpi\n      dup1\n      0xdc0d3dff\n      eq\n      tag_23\n      jumpi\n      jump(tag_2)\n    tag_29:\n      dup1\n      0x715018a6\n      eq\n      tag_15\n      jumpi\n      dup1\n      0x8a36ca17\n      eq\n      tag_16\n      jumpi\n      dup1\n      0x8da5cb5b\n      eq\n      tag_17\n      jumpi\n      dup1\n      0x8dd95002\n      eq\n      tag_18\n      jumpi\n      dup1\n      0x9608088c\n      eq\n      tag_19\n      jumpi\n      dup1\n      0x9c0e7824\n      eq\n      tag_20\n      jumpi\n      jump(tag_2)\n    tag_28:\n      dup1\n      0x52d1902d\n      gt\n      tag_31\n      jumpi\n      dup1\n      0x52d1902d\n      eq\n      tag_9\n      jumpi\n      dup1\n      0x5fcbd285\n      eq\n      tag_10\n      jumpi\n      dup1\n      0x69cd61be\n      eq\n      tag_11\n      jumpi\n      dup1\n      0x6b54acd9\n      eq\n      tag_12\n      jumpi\n      dup1\n      0x6c48ba95\n      eq\n      tag_13\n      jumpi\n      dup1\n      0x6d1d59a8\n      eq\n      tag_14\n      jumpi\n      jump(tag_2)\n    tag_31:\n      dup1\n      0x03fd2a45\n      eq\n      tag_3\n      jumpi\n      dup1\n      0x1694505e\n      eq\n      tag_4\n      jumpi\n      dup1\n      0x2b5fef2f\n      eq\n      tag_5\n      jumpi\n      dup1\n      0x420d4a02\n      eq\n      tag_6\n      jumpi\n      dup1\n      0x45d68230\n      eq\n      tag_7\n      jumpi\n      dup1\n      0x4f1ef286\n      eq\n      tag_8\n      jumpi\n      jump(tag_2)\n    tag_1:\n      jumpi(tag_2, calldatasize)\n      stop\n    tag_2:\n      0x00\n      dup1\n      revert\n        /* \"LockLiquidity.sol\":961:1034  address public constant DEAD = 0x000000000000000000000000000000000000dEaD */\n    tag_3:\n      callvalue\n      dup1\n      iszero\n      tag_34\n      jumpi\n      0x00\n      dup1\n      revert\n    tag_34:\n      pop\n      tag_35\n      tag_36\n      jump\t// in\n    tag_35:\n      mload(0x40)\n      tag_37\n      swap2\n      swap1\n      tag_38\n      jump\t// in\n    tag_37:\n      mload(0x40)\n      dup1\n      swap2\n      sub\n      swap1\n      return\n        /* \"LockLiquidity.sol\":1040:1124  address public constant uniswapV2Router = 0x10ED43C718714eb63d5aA57B78B54704E256024E */\n    tag_4:\n      callvalue\n      dup1\n      iszero\n      tag_39\n      jumpi\n      0x00\n      dup1\n      revert\n    tag_39:\n      pop\n      tag_40\n      tag_41\n      jump\t// in\n    tag_40:\n      mload(0x40)\n      tag_42\n      swap2\n      swap1\n      tag_38\n      jump\t// in\n    tag_42:\n      mload(0x40)\n      dup1\n      swap2\n      sub\n      swap1\n      return\n        /* \"LockLiquidity.sol\":2602:2978  function getExpirationTime(address user) public view returns(uint256 expirationTime){... */\n    tag_5:\n      callvalue\n      dup1\n      iszero\n      tag_43\n      jumpi\n      0x00\n      dup1\n      revert\n    tag_43:\n      pop\n      tag_44\n      0x04\n      dup1\n      calldatasize\n      sub\n      dup2\n      add\n      swap1\n      tag_45\n      swap2\n      swap1\n      tag_46\n      jump\t// in\n    tag_45:\n      tag_47\n      jump\t// in\n    tag_44:\n      mload(0x40)\n      tag_48\n      swap2\n      swap1\n      tag_49\n      jump\t// in\n    tag_48:\n      mload(0x40)\n      dup1\n      swap2\n      sub\n      swap1\n      return\n        /* \"LockLiquidity.sol\":2358:2596  function getUnlockedAmount(address user) public view returns(uint256 unlockedAmount){... */\n    tag_6:\n      callvalue\n      dup1\n      iszero\n      tag_50\n      jumpi\n      0x00\n      dup1\n      revert\n    tag_50:\n      pop\n      tag_51\n      0x04\n      dup1\n      calldatasize\n      sub\n      dup2\n      add\n      swap1\n      tag_52\n      swap2\n      swap1\n      tag_46\n      jump\t// in\n    tag_52:\n      tag_53\n      jump\t// in\n    tag_51:\n      mload(0x40)\n      tag_54\n      swap2\n      swap1\n      tag_49\n      jump\t// in\n    tag_54:\n      mload(0x40)\n      dup1\n      swap2\n      sub\n      swap1\n      return\n        /* \"LockLiquidity.sol\":1414:1460  mapping(address => uint256) public raiseAmount */\n    tag_7:\n      callvalue\n      dup1\n      iszero\n      tag_55\n      jumpi\n      0x00\n      dup1\n      revert\n    tag_55:\n      pop\n      tag_56\n      0x04\n      dup1\n      calldatasize\n      sub\n      dup2\n      add\n      swap1\n      tag_57\n      swap2\n      swap1\n      tag_46\n      jump\t// in\n    tag_57:\n      tag_58\n      jump\t// in\n    tag_56:\n      mload(0x40)\n      tag_59\n      swap2\n      swap1\n      tag_49\n      jump\t// in\n    tag_59:\n      mload(0x40)\n      dup1\n      swap2\n      sub\n      swap1\n      return\n        /* \"@openzeppelin/contracts-upgradeable/proxy/utils/UUPSUpgradeable.sol\":4161:4375  function upgradeToAndCall(address newImplementation, bytes memory data) public payable virtual onlyProxy {... */\n    tag_8:\n      tag_60\n      0x04\n      dup1\n      calldatasize\n      sub\n      dup2\n      add\n      swap1\n      tag_61\n      swap2\n      swap1\n      tag_62\n      jump\t// in\n    tag_61:\n      tag_63\n      jump\t// in\n    tag_60:\n      stop\n        /* \"@openzeppelin/contracts-upgradeable/proxy/utils/UUPSUpgradeable.sol\":3708:3842  function proxiableUUID() external view virtual notDelegated returns (bytes32) {... */\n    tag_9:\n      callvalue\n      dup1\n      iszero\n      tag_64\n      jumpi\n      0x00\n      dup1\n      revert\n    tag_64:\n      pop\n      tag_65\n      tag_66\n      jump\t// in\n    tag_65:\n      mload(0x40)\n      tag_67\n      swap2\n      swap1\n      tag_68\n      jump\t// in\n    tag_67:\n      mload(0x40)\n      dup1\n      swap2\n      sub\n      swap1\n      return\n        /* \"LockLiquidity.sol\":1131:1153  address public lpToken */\n    tag_10:\n      callvalue\n      dup1\n      iszero\n      tag_69\n      jumpi\n      0x00\n      dup1\n      revert\n    tag_69:\n      pop\n      tag_70\n      tag_71\n      jump\t// in\n    tag_70:\n      mload(0x40)\n      tag_72\n      swap2\n      swap1\n      tag_38\n      jump\t// in\n    tag_72:\n      mload(0x40)\n      dup1\n      swap2\n      sub\n      swap1\n      return\n        /* \"LockLiquidity.sol\":1185:1209  address public lockOwner */\n    tag_11:\n      callvalue\n      dup1\n      iszero\n      tag_73\n      jumpi\n      0x00\n      dup1\n      revert\n    tag_73:\n      pop\n      tag_74\n      tag_75\n      jump\t// in\n    tag_74:\n      mload(0x40)\n      tag_76\n      swap2\n      swap1\n      tag_38\n      jump\t// in\n    tag_76:\n      mload(0x40)\n      dup1\n      swap2\n      sub\n      swap1\n      return\n        /* \"LockLiquidity.sol\":3412:3834  function unlockLiquidity() external nonReentrant{... */\n    tag_12:\n      callvalue\n      dup1\n      iszero\n      tag_77\n      jumpi\n      0x00\n      dup1\n      revert\n    tag_77:\n      pop\n      tag_78\n      tag_79\n      jump\t// in\n    tag_78:\n      stop\n        /* \"LockLiquidity.sol\":2984:3406  function lockLiquidity(string memory mark, address[] memory users, uint256[] memory amounts) external onlyLockOwner(){... */\n    tag_13:\n      callvalue\n      dup1\n      iszero\n      tag_80\n      jumpi\n      0x00\n      dup1\n      revert\n    tag_80:\n      pop\n      tag_81\n      0x04\n      dup1\n      calldatasize\n      sub\n      dup2\n      add\n      swap1\n      tag_82\n      swap2\n      swap1\n      tag_83\n      jump\t// in\n    tag_82:\n      tag_84\n      jump\t// in\n    tag_81:\n      stop\n        /* \"LockLiquidity.sol\":832:876  mapping(address => Holder) public holderInfo */\n    tag_14:\n      callvalue\n      dup1\n      iszero\n      tag_85\n      jumpi\n      0x00\n      dup1\n      revert\n    tag_85:\n      pop\n      tag_86\n      0x04\n      dup1\n      calldatasize\n      sub\n      dup2\n      add\n      swap1\n      tag_87\n      swap2\n      swap1\n      tag_46\n      jump\t// in\n    tag_87:\n      tag_88\n      jump\t// in\n    tag_86:\n      mload(0x40)\n      tag_89\n      swap3\n      swap2\n      swap1\n      tag_90\n      jump\t// in\n    tag_89:\n      mload(0x40)\n      dup1\n      swap2\n      sub\n      swap1\n      return\n        /* \"@openzeppelin/contracts-upgradeable/access/OwnableUpgradeable.sol\":3155:3256  function renounceOwnership() public virtual onlyOwner {... */\n    tag_15:\n      callvalue\n      dup1\n      iszero\n      tag_91\n      jumpi\n      0x00\n      dup1\n      revert\n    tag_91:\n      pop\n      tag_92\n      tag_93\n      jump\t// in\n    tag_92:\n      stop\n        /* \"LockLiquidity.sol\":1350:1378  address public  bnbRecipient */\n    tag_16:\n      callvalue\n      dup1\n      iszero\n      tag_94\n      jumpi\n      0x00\n      dup1\n      revert\n    tag_94:\n      pop\n      tag_95\n      tag_96\n      jump\t// in\n    tag_95:\n      mload(0x40)\n      tag_97\n      swap2\n      swap1\n      tag_38\n      jump\t// in\n    tag_97:\n      mload(0x40)\n      dup1\n      swap2\n      sub\n      swap1\n      return\n        /* \"@openzeppelin/contracts-upgradeable/access/OwnableUpgradeable.sol\":2441:2585  function owner() public view virtual returns (address) {... */\n    tag_17:\n      callvalue\n      dup1\n      iszero\n      tag_98\n      jumpi\n      0x00\n      dup1\n      revert\n    tag_98:\n      pop\n      tag_99\n      tag_100\n      jump\t// in\n    tag_99:\n      mload(0x40)\n      tag_101\n      swap2\n      swap1\n      tag_38\n      jump\t// in\n    tag_101:\n      mload(0x40)\n      dup1\n      swap2\n      sub\n      swap1\n      return\n        /* \"LockLiquidity.sol\":882:955  address public constant WBNB = 0xbb4CdB9CBd36B01bD1cBaEBF2De08d9173bc095c */\n    tag_18:\n      callvalue\n      dup1\n      iszero\n      tag_102\n      jumpi\n      0x00\n      dup1\n      revert\n    tag_102:\n      pop\n      tag_103\n      tag_104\n      jump\t// in\n    tag_103:\n      mload(0x40)\n      tag_105\n      swap2\n      swap1\n      tag_38\n      jump\t// in\n    tag_105:\n      mload(0x40)\n      dup1\n      swap2\n      sub\n      swap1\n      return\n        /* \"LockLiquidity.sol\":2106:2352  function setAddress(address _token, address _lpToken, address _bnbRecipient, address _lockOwner) external onlyOwner(){... */\n    tag_19:\n      callvalue\n      dup1\n      iszero\n      tag_106\n      jumpi\n      0x00\n      dup1\n      revert\n    tag_106:\n      pop\n      tag_107\n      0x04\n      dup1\n      calldatasize\n      sub\n      dup2\n      add\n      swap1\n      tag_108\n      swap2\n      swap1\n      tag_109\n      jump\t// in\n    tag_108:\n      tag_110\n      jump\t// in\n    tag_107:\n      stop\n        /* \"LockLiquidity.sol\":4626:4956  function raiseFunds() external payable{... */\n    tag_20:\n      tag_111\n      tag_112\n      jump\t// in\n    tag_111:\n      stop\n        /* \"@openzeppelin/contracts-upgradeable/proxy/utils/UUPSUpgradeable.sol\":1819:1877  string public constant UPGRADE_INTERFACE_VERSION = \"5.0.0\" */\n    tag_21:\n      callvalue\n      dup1\n      iszero\n      tag_113\n      jumpi\n      0x00\n      dup1\n      revert\n    tag_113:\n      pop\n      tag_114\n      tag_115\n      jump\t// in\n    tag_114:\n      mload(0x40)\n      tag_116\n      swap2\n      swap1\n      tag_117\n      jump\t// in\n    tag_116:\n      mload(0x40)\n      dup1\n      swap2\n      sub\n      swap1\n      return\n        /* \"LockLiquidity.sol\":5061:5175  function getRaiseAmount(address funder) external view returns (uint256){... */\n    tag_22:\n      callvalue\n      dup1\n      iszero\n      tag_118\n      jumpi\n      0x00\n      dup1\n      revert\n    tag_118:\n      pop\n      tag_119\n      0x04\n      dup1\n      calldatasize\n      sub\n      dup2\n      add\n      swap1\n      tag_120\n      swap2\n      swap1\n      tag_46\n      jump\t// in\n    tag_120:\n      tag_121\n      jump\t// in\n    tag_119:\n      mload(0x40)\n      tag_122\n      swap2\n      swap1\n      tag_49\n      jump\t// in\n    tag_122:\n      mload(0x40)\n      dup1\n      swap2\n      sub\n      swap1\n      return\n        /* \"LockLiquidity.sol\":1384:1408  address[] public funders */\n    tag_23:\n      callvalue\n      dup1\n      iszero\n      tag_123\n      jumpi\n      0x00\n      dup1\n      revert\n    tag_123:\n      pop\n      tag_124\n      0x04\n      dup1\n      calldatasize\n      sub\n      dup2\n      add\n      swap1\n      tag_125\n      swap2\n      swap1\n      tag_126\n      jump\t// in\n    tag_125:\n      tag_127\n      jump\t// in\n    tag_124:\n      mload(0x40)\n      tag_128\n      swap2\n      swap1\n      tag_38\n      jump\t// in\n    tag_128:\n      mload(0x40)\n      dup1\n      swap2\n      sub\n      swap1\n      return\n        /* \"LockLiquidity.sol\":4962:5055  function getFunders() external view returns (address[] memory){... */\n    tag_24:\n      callvalue\n      dup1\n      iszero\n      tag_129\n      jumpi\n      0x00\n      dup1\n      revert\n    tag_129:\n      pop\n      tag_130\n      tag_131\n      jump\t// in\n    tag_130:\n      mload(0x40)\n      tag_132\n      swap2\n      swap1\n      tag_133\n      jump\t// in\n    tag_132:\n      mload(0x40)\n      dup1\n      swap2\n      sub\n      swap1\n      return\n        /* \"@openzeppelin/contracts-upgradeable/access/OwnableUpgradeable.sol\":3405:3620  function transferOwnership(address newOwner) public virtual onlyOwner {... */\n    tag_25:\n      callvalue\n      dup1\n      iszero\n      tag_134\n      jumpi\n      0x00\n      dup1\n      revert\n    tag_134:\n      pop\n      tag_135\n      0x04\n      dup1\n      calldatasize\n      sub\n      dup2\n      add\n      swap1\n      tag_136\n      swap2\n      swap1\n      tag_46\n      jump\t// in\n    tag_136:\n      tag_137\n      jump\t// in\n    tag_135:\n      stop\n        /* \"LockLiquidity.sol\":1614:1950  function initialize(address _lpToken, address _token, address _lockOwner,address _bnbRecipient) public initializer {... */\n    tag_26:\n      callvalue\n      dup1\n      iszero\n      tag_138\n      jumpi\n      0x00\n      dup1\n      revert\n    tag_138:\n      pop\n      tag_139\n      0x04\n      dup1\n      calldatasize\n      sub\n      dup2\n      add\n      swap1\n      tag_140\n      swap2\n      swap1\n      tag_109\n      jump\t// in\n    tag_140:\n      tag_141\n      jump\t// in\n    tag_139:\n      stop\n        /* \"LockLiquidity.sol\":1159:1179  address public token */\n    tag_27:\n      callvalue\n      dup1\n      iszero\n      tag_142\n      jumpi\n      0x00\n      dup1\n      revert\n    tag_142:\n      pop\n      tag_143\n      tag_144\n      jump\t// in\n    tag_143:\n      mload(0x40)\n      tag_145\n      swap2\n      swap1\n      tag_38\n      jump\t// in\n    tag_145:\n      mload(0x40)\n      dup1\n      swap2\n      sub\n      swap1\n      return\n        /* \"LockLiquidity.sol\":961:1034  address public constant DEAD = 0x000000000000000000000000000000000000dEaD */\n    tag_36:\n        /* \"LockLiquidity.sol\":992:1034  0x000000000000000000000000000000000000dEaD */\n      0xdead\n        /* \"LockLiquidity.sol\":961:1034  address public constant DEAD = 0x000000000000000000000000000000000000dEaD */\n      dup2\n      jump\t// out\n        /* \"LockLiquidity.sol\":1040:1124  address public constant uniswapV2Router = 0x10ED43C718714eb63d5aA57B78B54704E256024E */\n    tag_41:\n        /* \"LockLiquidity.sol\":1082:1124  0x10ED43C718714eb63d5aA57B78B54704E256024E */\n      0x10ed43c718714eb63d5aa57b78b54704e256024e\n        /* \"LockLiquidity.sol\":1040:1124  address public constant uniswapV2Router = 0x10ED43C718714eb63d5aA57B78B54704E256024E */\n      dup2\n      jump\t// out\n        /* \"LockLiquidity.sol\":2602:2978  function getExpirationTime(address user) public view returns(uint256 expirationTime){... */\n    tag_47:\n        /* \"LockLiquidity.sol\":2663:2685  uint256 expirationTime */\n      0x00\n        /* \"LockLiquidity.sol\":2696:2716  Holder memory holder */\n      dup1\n        /* \"LockLiquidity.sol\":2719:2729  holderInfo */\n      0x01\n        /* \"LockLiquidity.sol\":2719:2735  holderInfo[user] */\n      0x00\n        /* \"LockLiquidity.sol\":2730:2734  user */\n      dup5\n        /* \"LockLiquidity.sol\":2719:2735  holderInfo[user] */\n      0xffffffffffffffffffffffffffffffffffffffff\n      and\n      0xffffffffffffffffffffffffffffffffffffffff\n      and\n      dup2\n      mstore\n      0x20\n      add\n      swap1\n      dup2\n      mstore\n      0x20\n      add\n      0x00\n      keccak256\n        /* \"LockLiquidity.sol\":2696:2735  Holder memory holder = holderInfo[user] */\n      mload(0x40)\n      dup1\n      0x40\n      add\n      0x40\n      mstore\n      swap1\n      dup2\n      0x00\n      dup3\n      add\n      sload\n      dup2\n      mstore\n      0x20\n      add\n      0x01\n      dup3\n      add\n      sload\n      dup2\n      mstore\n      pop\n      pop\n      swap1\n      pop\n        /* \"LockLiquidity.sol\":2784:2791  30 days */\n      0x278d00\n        /* \"LockLiquidity.sol\":2766:2772  holder */\n      dup2\n        /* \"LockLiquidity.sol\":2766:2781  holder.lockTime */\n      0x20\n      add\n      mload\n        /* \"LockLiquidity.sol\":2766:2791  holder.lockTime + 30 days */\n      tag_147\n      swap2\n      swap1\n      tag_148\n      jump\t// in\n    tag_147:\n        /* \"LockLiquidity.sol\":2748:2763  block.timestamp */\n      timestamp\n        /* \"LockLiquidity.sol\":2748:2791  block.timestamp < holder.lockTime + 30 days */\n      lt\n        /* \"LockLiquidity.sol\":2745:2853  if(block.timestamp < holder.lockTime + 30 days) expirationTime = holder.lockTime + 30 days - block.timestamp */\n      iszero\n      tag_149\n      jumpi\n        /* \"LockLiquidity.sol\":2838:2853  block.timestamp */\n      timestamp\n        /* \"LockLiquidity.sol\":2828:2835  30 days */\n      0x278d00\n        /* \"LockLiquidity.sol\":2810:2816  holder */\n      dup3\n        /* \"LockLiquidity.sol\":2810:2825  holder.lockTime */\n      0x20\n      add\n      mload\n        /* \"LockLiquidity.sol\":2810:2835  holder.lockTime + 30 days */\n      tag_150\n      swap2\n      swap1\n      tag_148\n      jump\t// in\n    tag_150:\n        /* \"LockLiquidity.sol\":2810:2853  holder.lockTime + 30 days - block.timestamp */\n      tag_151\n      swap2\n      swap1\n      tag_152\n      jump\t// in\n    tag_151:\n        /* \"LockLiquidity.sol\":2793:2853  expirationTime = holder.lockTime + 30 days - block.timestamp */\n      swap2\n      pop\n        /* \"LockLiquidity.sol\":2745:2853  if(block.timestamp < holder.lockTime + 30 days) expirationTime = holder.lockTime + 30 days - block.timestamp */\n    tag_149:\n        /* \"LockLiquidity.sol\":2902:2909  1 hours */\n      0x0e10\n        /* \"LockLiquidity.sol\":2884:2890  holder */\n      dup2\n        /* \"LockLiquidity.sol\":2884:2899  holder.lockTime */\n      0x20\n      add\n      mload\n        /* \"LockLiquidity.sol\":2884:2909  holder.lockTime + 1 hours */\n      tag_153\n      swap2\n      swap1\n      tag_148\n      jump\t// in\n    tag_153:\n        /* \"LockLiquidity.sol\":2866:2881  block.timestamp */\n      timestamp\n        /* \"LockLiquidity.sol\":2866:2909  block.timestamp < holder.lockTime + 1 hours */\n      lt\n        /* \"LockLiquidity.sol\":2863:2971  if(block.timestamp < holder.lockTime + 1 hours) expirationTime = holder.lockTime + 1 hours - block.timestamp */\n      iszero\n      tag_154\n      jumpi\n        /* \"LockLiquidity.sol\":2956:2971  block.timestamp */\n      timestamp\n        /* \"LockLiquidity.sol\":2946:2953  1 hours */\n      0x0e10\n        /* \"LockLiquidity.sol\":2928:2934  holder */\n      dup3\n        /* \"LockLiquidity.sol\":2928:2943  holder.lockTime */\n      0x20\n      add\n      mload\n        /* \"LockLiquidity.sol\":2928:2953  holder.lockTime + 1 hours */\n      tag_155\n      swap2\n      swap1\n      tag_148\n      jump\t// in\n    tag_155:\n        /* \"LockLiquidity.sol\":2928:2971  holder.lockTime + 1 hours - block.timestamp */\n      tag_156\n      swap2\n      swap1\n      tag_152\n      jump\t// in\n    tag_156:\n        /* \"LockLiquidity.sol\":2911:2971  expirationTime = holder.lockTime + 1 hours - block.timestamp */\n      swap2\n      pop\n        /* \"LockLiquidity.sol\":2863:2971  if(block.timestamp < holder.lockTime + 1 hours) expirationTime = holder.lockTime + 1 hours - block.timestamp */\n    tag_154:\n        /* \"LockLiquidity.sol\":2686:2978  {... */\n      pop\n        /* \"LockLiquidity.sol\":2602:2978  function getExpirationTime(address user) public view returns(uint256 expirationTime){... */\n      swap2\n      swap1\n      pop\n      jump\t// out\n        /* \"LockLiquidity.sol\":2358:2596  function getUnlockedAmount(address user) public view returns(uint256 unlockedAmount){... */\n    tag_53:\n        /* \"LockLiquidity.sol\":2419:2441  uint256 unlockedAmount */\n      0x00\n        /* \"LockLiquidity.sol\":2452:2472  Holder memory holder */\n      dup1\n        /* \"LockLiquidity.sol\":2475:2485  holderInfo */\n      0x01\n        /* \"LockLiquidity.sol\":2475:2491  holderInfo[user] */\n      0x00\n        /* \"LockLiquidity.sol\":2486:2490  user */\n      dup5\n        /* \"LockLiquidity.sol\":2475:2491  holderInfo[user] */\n      0xffffffffffffffffffffffffffffffffffffffff\n      and\n      0xffffffffffffffffffffffffffffffffffffffff\n      and\n      dup2\n      mstore\n      0x20\n      add\n      swap1\n      dup2\n      mstore\n      0x20\n      add\n      0x00\n      keccak256\n        /* \"LockLiquidity.sol\":2452:2491  Holder memory holder = holderInfo[user] */\n      mload(0x40)\n      dup1\n      0x40\n      add\n      0x40\n      mstore\n      swap1\n      dup2\n      0x00\n      dup3\n      add\n      sload\n      dup2\n      mstore\n      0x20\n      add\n      0x01\n      dup3\n      add\n      sload\n      dup2\n      mstore\n      pop\n      pop\n      swap1\n      pop\n        /* \"LockLiquidity.sol\":2541:2548  30 days */\n      0x278d00\n        /* \"LockLiquidity.sol\":2523:2529  holder */\n      dup2\n        /* \"LockLiquidity.sol\":2523:2538  holder.lockTime */\n      0x20\n      add\n      mload\n        /* \"LockLiquidity.sol\":2523:2548  holder.lockTime + 30 days */\n      tag_158\n      swap2\n      swap1\n      tag_148\n      jump\t// in\n    tag_158:\n        /* \"LockLiquidity.sol\":2504:2519  block.timestamp */\n      timestamp\n        /* \"LockLiquidity.sol\":2504:2548  block.timestamp >= holder.lockTime + 30 days */\n      lt\n        /* \"LockLiquidity.sol\":2501:2589  if(block.timestamp >= holder.lockTime + 30 days) unlockedAmount = holder.liquidityAmount */\n      tag_159\n      jumpi\n        /* \"LockLiquidity.sol\":2567:2573  holder */\n      dup1\n        /* \"LockLiquidity.sol\":2567:2589  holder.liquidityAmount */\n      0x00\n      add\n      mload\n        /* \"LockLiquidity.sol\":2550:2589  unlockedAmount = holder.liquidityAmount */\n      swap2\n      pop\n        /* \"LockLiquidity.sol\":2501:2589  if(block.timestamp >= holder.lockTime + 30 days) unlockedAmount = holder.liquidityAmount */\n    tag_159:\n        /* \"LockLiquidity.sol\":2442:2596  {... */\n      pop\n        /* \"LockLiquidity.sol\":2358:2596  function getUnlockedAmount(address user) public view returns(uint256 unlockedAmount){... */\n      swap2\n      swap1\n      pop\n      jump\t// out\n        /* \"LockLiquidity.sol\":1414:1460  mapping(address => uint256) public raiseAmount */\n    tag_58:\n      mstore(0x20, 0x07)\n      dup1\n      0x00\n      mstore\n      keccak256(0x00, 0x40)\n      0x00\n      swap2\n      pop\n      swap1\n      pop\n      sload\n      dup2\n      jump\t// out\n        /* \"@openzeppelin/contracts-upgradeable/proxy/utils/UUPSUpgradeable.sol\":4161:4375  function upgradeToAndCall(address newImplementation, bytes memory data) public payable virtual onlyProxy {... */\n    tag_63:\n        /* \"@openzeppelin/contracts-upgradeable/proxy/utils/UUPSUpgradeable.sol\":2655:2668  _checkProxy() */\n      tag_161\n        /* \"@openzeppelin/contracts-upgradeable/proxy/utils/UUPSUpgradeable.sol\":2655:2666  _checkProxy */\n      tag_162\n        /* \"@openzeppelin/contracts-upgradeable/proxy/utils/UUPSUpgradeable.sol\":2655:2668  _checkProxy() */\n      jump\t// in\n    tag_161:\n        /* \"@openzeppelin/contracts-upgradeable/proxy/utils/UUPSUpgradeable.sol\":4276:4312  _authorizeUpgrade(newImplementation) */\n      tag_164\n        /* \"@openzeppelin/contracts-upgradeable/proxy/utils/UUPSUpgradeable.sol\":4294:4311  newImplementation */\n      dup3\n        /* \"@openzeppelin/contracts-upgradeable/proxy/utils/UUPSUpgradeable.sol\":4276:4293  _authorizeUpgrade */\n      tag_165\n        /* \"@openzeppelin/contracts-upgradeable/proxy/utils/UUPSUpgradeable.sol\":4276:4312  _authorizeUpgrade(newImplementation) */\n      jump\t// in\n    tag_164:\n        /* \"@openzeppelin/contracts-upgradeable/proxy/utils/UUPSUpgradeable.sol\":4322:4368  _upgradeToAndCallUUPS(newImplementation, data) */\n      tag_166\n        /* \"@openzeppelin/contracts-upgradeable/proxy/utils/UUPSUpgradeable.sol\":4344:4361  newImplementation */\n      dup3\n        /* \"@openzeppelin/contracts-upgradeable/proxy/utils/UUPSUpgradeable.sol\":4363:4367  data */\n      dup3\n        /* \"@openzeppelin/contracts-upgradeable/proxy/utils/UUPSUpgradeable.sol\":4322:4343  _upgradeToAndCallUUPS */\n      tag_167\n        /* \"@openzeppelin/contracts-upgradeable/proxy/utils/UUPSUpgradeable.sol\":4322:4368  _upgradeToAndCallUUPS(newImplementation, data) */\n      jump\t// in\n    tag_166:\n        /* \"@openzeppelin/contracts-upgradeable/proxy/utils/UUPSUpgradeable.sol\":4161:4375  function upgradeToAndCall(address newImplementation, bytes memory data) public payable virtual onlyProxy {... */\n      pop\n      pop\n      jump\t// out\n        /* \"@openzeppelin/contracts-upgradeable/proxy/utils/UUPSUpgradeable.sol\":3708:3842  function proxiableUUID() external view virtual notDelegated returns (bytes32) {... */\n    tag_66:\n        /* \"@openzeppelin/contracts-upgradeable/proxy/utils/UUPSUpgradeable.sol\":3777:3784  bytes32 */\n      0x00\n        /* \"@openzeppelin/contracts-upgradeable/proxy/utils/UUPSUpgradeable.sol\":2926:2946  _checkNotDelegated() */\n      tag_169\n        /* \"@openzeppelin/contracts-upgradeable/proxy/utils/UUPSUpgradeable.sol\":2926:2944  _checkNotDelegated */\n      tag_170\n        /* \"@openzeppelin/contracts-upgradeable/proxy/utils/UUPSUpgradeable.sol\":2926:2946  _checkNotDelegated() */\n      jump\t// in\n    tag_169:\n        /* \"@openzeppelin/contracts/proxy/ERC1967/ERC1967Utils.sol\":811:877  0x360894a13ba1a3210667c828492db98dca3e2076cc3735a920a3ca505d382bbc */\n      0x360894a13ba1a3210667c828492db98dca3e2076cc3735a920a3ca505d382bbc\n        /* \"@openzeppelin/contracts-upgradeable/proxy/utils/UUPSUpgradeable.sol\":3803:3835  ERC1967Utils.IMPLEMENTATION_SLOT */\n      0x00\n      shl\n        /* \"@openzeppelin/contracts-upgradeable/proxy/utils/UUPSUpgradeable.sol\":3796:3835  return ERC1967Utils.IMPLEMENTATION_SLOT */\n      swap1\n      pop\n        /* \"@openzeppelin/contracts-upgradeable/proxy/utils/UUPSUpgradeable.sol\":3708:3842  function proxiableUUID() external view virtual notDelegated returns (bytes32) {... */\n      swap1\n      jump\t// out\n        /* \"LockLiquidity.sol\":1131:1153  address public lpToken */\n    tag_71:\n      0x02\n      0x00\n      swap1\n      sload\n      swap1\n      0x0100\n      exp\n      swap1\n      div\n      0xffffffffffffffffffffffffffffffffffffffff\n      and\n      dup2\n      jump\t// out\n        /* \"LockLiquidity.sol\":1185:1209  address public lockOwner */\n    tag_75:\n      0x04\n      0x00\n      swap1\n      sload\n      swap1\n      0x0100\n      exp\n      swap1\n      div\n      0xffffffffffffffffffffffffffffffffffffffff\n      and\n      dup2\n      jump\t// out\n        /* \"LockLiquidity.sol\":3412:3834  function unlockLiquidity() external nonReentrant{... */\n    tag_79:\n        /* \"@openzeppelin/contracts/utils/ReentrancyGuard.sol\":2500:2521  _nonReentrantBefore() */\n      tag_173\n        /* \"@openzeppelin/contracts/utils/ReentrancyGuard.sol\":2500:2519  _nonReentrantBefore */\n      tag_174\n        /* \"@openzeppelin/contracts/utils/ReentrancyGuard.sol\":2500:2521  _nonReentrantBefore() */\n      jump\t// in\n    tag_173:\n        /* \"LockLiquidity.sol\":3470:3491  Holder storage holder */\n      0x00\n        /* \"LockLiquidity.sol\":3494:3504  holderInfo */\n      0x01\n        /* \"LockLiquidity.sol\":3494:3516  holderInfo[msg.sender] */\n      0x00\n        /* \"LockLiquidity.sol\":3505:3515  msg.sender */\n      caller\n        /* \"LockLiquidity.sol\":3494:3516  holderInfo[msg.sender] */\n      0xffffffffffffffffffffffffffffffffffffffff\n      and\n      0xffffffffffffffffffffffffffffffffffffffff\n      and\n      dup2\n      mstore\n      0x20\n      add\n      swap1\n      dup2\n      mstore\n      0x20\n      add\n      0x00\n      keccak256\n        /* \"LockLiquidity.sol\":3470:3516  Holder storage holder = holderInfo[msg.sender] */\n      swap1\n      pop\n        /* \"LockLiquidity.sol\":3559:3560  0 */\n      0x00\n        /* \"LockLiquidity.sol\":3534:3540  holder */\n      dup2\n        /* \"LockLiquidity.sol\":3534:3556  holder.liquidityAmount */\n      0x00\n      add\n      sload\n        /* \"LockLiquidity.sol\":3534:3560  holder.liquidityAmount > 0 */\n      gt\n        /* \"LockLiquidity.sol\":3526:3585  require(holder.liquidityAmount > 0, \"Not enough liquidity\") */\n      tag_176\n      jumpi\n      mload(0x40)\n      0x08c379a000000000000000000000000000000000000000000000000000000000\n      dup2\n      mstore\n      0x04\n      add\n      tag_177\n      swap1\n      tag_178\n      jump\t// in\n    tag_177:\n      mload(0x40)\n      dup1\n      swap2\n      sub\n      swap1\n      revert\n    tag_176:\n        /* \"LockLiquidity.sol\":3630:3631  0 */\n      0x00\n        /* \"LockLiquidity.sol\":3598:3627  getUnlockedAmount(msg.sender) */\n      tag_179\n        /* \"LockLiquidity.sol\":3616:3626  msg.sender */\n      caller\n        /* \"LockLiquidity.sol\":3598:3615  getUnlockedAmount */\n      tag_53\n        /* \"LockLiquidity.sol\":3598:3627  getUnlockedAmount(msg.sender) */\n      jump\t// in\n    tag_179:\n        /* \"LockLiquidity.sol\":3598:3631  getUnlockedAmount(msg.sender) > 0 */\n      gt\n        /* \"LockLiquidity.sol\":3595:3761  if(getUnlockedAmount(msg.sender) > 0) removeLiquidty(msg.sender, holder.liquidityAmount, false);... */\n      iszero\n      tag_180\n      jumpi\n        /* \"LockLiquidity.sol\":3633:3690  removeLiquidty(msg.sender, holder.liquidityAmount, false) */\n      tag_181\n        /* \"LockLiquidity.sol\":3648:3658  msg.sender */\n      caller\n        /* \"LockLiquidity.sol\":3660:3666  holder */\n      dup3\n        /* \"LockLiquidity.sol\":3660:3682  holder.liquidityAmount */\n      0x00\n      add\n      sload\n        /* \"LockLiquidity.sol\":3684:3689  false */\n      0x00\n        /* \"LockLiquidity.sol\":3633:3647  removeLiquidty */\n      tag_182\n        /* \"LockLiquidity.sol\":3633:3690  removeLiquidty(msg.sender, holder.liquidityAmount, false) */\n      jump\t// in\n    tag_181:\n        /* \"LockLiquidity.sol\":3595:3761  if(getUnlockedAmount(msg.sender) > 0) removeLiquidty(msg.sender, holder.liquidityAmount, false);... */\n      jump(tag_183)\n    tag_180:\n        /* \"LockLiquidity.sol\":3705:3761  removeLiquidty(msg.sender, holder.liquidityAmount, true) */\n      tag_184\n        /* \"LockLiquidity.sol\":3720:3730  msg.sender */\n      caller\n        /* \"LockLiquidity.sol\":3732:3738  holder */\n      dup3\n        /* \"LockLiquidity.sol\":3732:3754  holder.liquidityAmount */\n      0x00\n      add\n      sload\n        /* \"LockLiquidity.sol\":3756:3760  true */\n      0x01\n        /* \"LockLiquidity.sol\":3705:3719  removeLiquidty */\n      tag_182\n        /* \"LockLiquidity.sol\":3705:3761  removeLiquidty(msg.sender, holder.liquidityAmount, true) */\n      jump\t// in\n    tag_184:\n        /* \"LockLiquidity.sol\":3595:3761  if(getUnlockedAmount(msg.sender) > 0) removeLiquidty(msg.sender, holder.liquidityAmount, false);... */\n    tag_183:\n        /* \"LockLiquidity.sol\":3797:3798  0 */\n      0x00\n        /* \"LockLiquidity.sol\":3772:3778  holder */\n      dup2\n        /* \"LockLiquidity.sol\":3772:3794  holder.liquidityAmount */\n      0x00\n      add\n        /* \"LockLiquidity.sol\":3772:3798  holder.liquidityAmount = 0 */\n      dup2\n      swap1\n      sstore\n      pop\n        /* \"LockLiquidity.sol\":3826:3827  0 */\n      0x00\n        /* \"LockLiquidity.sol\":3808:3814  holder */\n      dup2\n        /* \"LockLiquidity.sol\":3808:3823  holder.lockTime */\n      0x01\n      add\n        /* \"LockLiquidity.sol\":3808:3827  holder.lockTime = 0 */\n      dup2\n      swap1\n      sstore\n      pop\n        /* \"LockLiquidity.sol\":3460:3834  {... */\n      pop\n        /* \"@openzeppelin/contracts/utils/ReentrancyGuard.sol\":2542:2562  _nonReentrantAfter() */\n      tag_185\n        /* \"@openzeppelin/contracts/utils/ReentrancyGuard.sol\":2542:2560  _nonReentrantAfter */\n      tag_186\n        /* \"@openzeppelin/contracts/utils/ReentrancyGuard.sol\":2542:2562  _nonReentrantAfter() */\n      jump\t// in\n    tag_185:\n        /* \"LockLiquidity.sol\":3412:3834  function unlockLiquidity() external nonReentrant{... */\n      jump\t// out\n        /* \"LockLiquidity.sol\":2984:3406  function lockLiquidity(string memory mark, address[] memory users, uint256[] memory amounts) external onlyLockOwner(){... */\n    tag_84:\n        /* \"LockLiquidity.sol\":1558:1567  lockOwner */\n      0x04\n      0x00\n      swap1\n      sload\n      swap1\n      0x0100\n      exp\n      swap1\n      div\n      0xffffffffffffffffffffffffffffffffffffffff\n      and\n        /* \"LockLiquidity.sol\":1544:1567  msg.sender == lockOwner */\n      0xffffffffffffffffffffffffffffffffffffffff\n      and\n        /* \"LockLiquidity.sol\":1544:1554  msg.sender */\n      caller\n        /* \"LockLiquidity.sol\":1544:1567  msg.sender == lockOwner */\n      0xffffffffffffffffffffffffffffffffffffffff\n      and\n      eq\n        /* \"LockLiquidity.sol\":1536:1590  require(msg.sender == lockOwner, \"Not the lock owner\") */\n      tag_188\n      jumpi\n      mload(0x40)\n      0x08c379a000000000000000000000000000000000000000000000000000000000\n      dup2\n      mstore\n      0x04\n      add\n      tag_189\n      swap1\n      tag_190\n      jump\t// in\n    tag_189:\n      mload(0x40)\n      dup1\n      swap2\n      sub\n      swap1\n      revert\n    tag_188:\n        /* \"LockLiquidity.sol\":3115:3121  uint i */\n      0x00\n        /* \"LockLiquidity.sol\":3111:3345  for(uint i=0; i < users.length; i++){... */\n    tag_192:\n        /* \"LockLiquidity.sol\":3129:3134  users */\n      dup3\n        /* \"LockLiquidity.sol\":3129:3141  users.length */\n      mload\n        /* \"LockLiquidity.sol\":3125:3126  i */\n      dup2\n        /* \"LockLiquidity.sol\":3125:3141  i < users.length */\n      lt\n        /* \"LockLiquidity.sol\":3111:3345  for(uint i=0; i < users.length; i++){... */\n      iszero\n      tag_193\n      jumpi\n        /* \"LockLiquidity.sol\":3184:3185  0 */\n      0x00\n        /* \"LockLiquidity.sol\":3164:3186  users[i] != address(0) */\n      0xffffffffffffffffffffffffffffffffffffffff\n      and\n        /* \"LockLiquidity.sol\":3164:3169  users */\n      dup4\n        /* \"LockLiquidity.sol\":3170:3171  i */\n      dup3\n        /* \"LockLiquidity.sol\":3164:3172  users[i] */\n      dup2\n      mload\n      dup2\n      lt\n      tag_195\n      jumpi\n      tag_196\n      tag_197\n      jump\t// in\n    tag_196:\n    tag_195:\n      0x20\n      mul\n      0x20\n      add\n      add\n      mload\n        /* \"LockLiquidity.sol\":3164:3186  users[i] != address(0) */\n      0xffffffffffffffffffffffffffffffffffffffff\n      and\n      eq\n        /* \"LockLiquidity.sol\":3161:3335  if(users[i] != address(0)){... */\n      tag_198\n      jumpi\n        /* \"LockLiquidity.sol\":3245:3252  amounts */\n      dup2\n        /* \"LockLiquidity.sol\":3253:3254  i */\n      dup2\n        /* \"LockLiquidity.sol\":3245:3255  amounts[i] */\n      dup2\n      mload\n      dup2\n      lt\n      tag_199\n      jumpi\n      tag_200\n      tag_197\n      jump\t// in\n    tag_200:\n    tag_199:\n      0x20\n      mul\n      0x20\n      add\n      add\n      mload\n        /* \"LockLiquidity.sol\":3205:3215  holderInfo */\n      0x01\n        /* \"LockLiquidity.sol\":3205:3225  holderInfo[users[i]] */\n      0x00\n        /* \"LockLiquidity.sol\":3216:3221  users */\n      dup6\n        /* \"LockLiquidity.sol\":3222:3223  i */\n      dup5\n        /* \"LockLiquidity.sol\":3216:3224  users[i] */\n      dup2\n      mload\n      dup2\n      lt\n      tag_201\n      jumpi\n      tag_202\n      tag_197\n      jump\t// in\n    tag_202:\n    tag_201:\n      0x20\n      mul\n      0x20\n      add\n      add\n      mload\n        /* \"LockLiquidity.sol\":3205:3225  holderInfo[users[i]] */\n      0xffffffffffffffffffffffffffffffffffffffff\n      and\n      0xffffffffffffffffffffffffffffffffffffffff\n      and\n      dup2\n      mstore\n      0x20\n      add\n      swap1\n      dup2\n      mstore\n      0x20\n      add\n      0x00\n      keccak256\n        /* \"LockLiquidity.sol\":3205:3241  holderInfo[users[i]].liquidityAmount */\n      0x00\n      add\n      0x00\n        /* \"LockLiquidity.sol\":3205:3255  holderInfo[users[i]].liquidityAmount += amounts[i] */\n      dup3\n      dup3\n      sload\n      tag_203\n      swap2\n      swap1\n      tag_148\n      jump\t// in\n    tag_203:\n      swap3\n      pop\n      pop\n      dup2\n      swap1\n      sstore\n      pop\n        /* \"LockLiquidity.sol\":3305:3320  block.timestamp */\n      timestamp\n        /* \"LockLiquidity.sol\":3273:3283  holderInfo */\n      0x01\n        /* \"LockLiquidity.sol\":3273:3293  holderInfo[users[i]] */\n      0x00\n        /* \"LockLiquidity.sol\":3284:3289  users */\n      dup6\n        /* \"LockLiquidity.sol\":3290:3291  i */\n      dup5\n        /* \"LockLiquidity.sol\":3284:3292  users[i] */\n      dup2\n      mload\n      dup2\n      lt\n      tag_204\n      jumpi\n      tag_205\n      tag_197\n      jump\t// in\n    tag_205:\n    tag_204:\n      0x20\n      mul\n      0x20\n      add\n      add\n      mload\n        /* \"LockLiquidity.sol\":3273:3293  holderInfo[users[i]] */\n      0xffffffffffffffffffffffffffffffffffffffff\n      and\n      0xffffffffffffffffffffffffffffffffffffffff\n      and\n      dup2\n      mstore\n      0x20\n      add\n      swap1\n      dup2\n      mstore\n      0x20\n      add\n      0x00\n      keccak256\n        /* \"LockLiquidity.sol\":3273:3302  holderInfo[users[i]].lockTime */\n      0x01\n      add\n        /* \"LockLiquidity.sol\":3273:3320  holderInfo[users[i]].lockTime = block.timestamp */\n      dup2\n      swap1\n      sstore\n      pop\n        /* \"LockLiquidity.sol\":3161:3335  if(users[i] != address(0)){... */\n    tag_198:\n        /* \"LockLiquidity.sol\":3143:3146  i++ */\n      dup1\n      dup1\n      0x01\n      add\n      swap2\n      pop\n      pop\n        /* \"LockLiquidity.sol\":3111:3345  for(uint i=0; i < users.length; i++){... */\n      jump(tag_192)\n    tag_193:\n      pop\n        /* \"LockLiquidity.sol\":3359:3399  LockLiquidityCreated(mark, users.length) */\n      0x4998215289a29e7b4458dce7275b4ea783c97f8f07244de3bf93bd8783a3a5ac\n        /* \"LockLiquidity.sol\":3380:3384  mark */\n      dup4\n        /* \"LockLiquidity.sol\":3386:3391  users */\n      dup4\n        /* \"LockLiquidity.sol\":3386:3398  users.length */\n      mload\n        /* \"LockLiquidity.sol\":3359:3399  LockLiquidityCreated(mark, users.length) */\n      mload(0x40)\n      tag_206\n      swap3\n      swap2\n      swap1\n      tag_207\n      jump\t// in\n    tag_206:\n      mload(0x40)\n      dup1\n      swap2\n      sub\n      swap1\n      log1\n        /* \"LockLiquidity.sol\":2984:3406  function lockLiquidity(string memory mark, address[] memory users, uint256[] memory amounts) external onlyLockOwner(){... */\n      pop\n      pop\n      pop\n      jump\t// out\n        /* \"LockLiquidity.sol\":832:876  mapping(address => Holder) public holderInfo */\n    tag_88:\n      mstore(0x20, 0x01)\n      dup1\n      0x00\n      mstore\n      keccak256(0x00, 0x40)\n      0x00\n      swap2\n      pop\n      swap1\n      pop\n      dup1\n      0x00\n      add\n      sload\n      swap1\n      dup1\n      0x01\n      add\n      sload\n      swap1\n      pop\n      dup3\n      jump\t// out\n        /* \"@openzeppelin/contracts-upgradeable/access/OwnableUpgradeable.sol\":3155:3256  function renounceOwnership() public virtual onlyOwner {... */\n    tag_93:\n        /* \"@openzeppelin/contracts-upgradeable/access/OwnableUpgradeable.sol\":2334:2347  _checkOwner() */\n      tag_209\n        /* \"@openzeppelin/contracts-upgradeable/access/OwnableUpgradeable.sol\":2334:2345  _checkOwner */\n      tag_210\n        /* \"@openzeppelin/contracts-upgradeable/access/OwnableUpgradeable.sol\":2334:2347  _checkOwner() */\n      jump\t// in\n    tag_209:\n        /* \"@openzeppelin/contracts-upgradeable/access/OwnableUpgradeable.sol\":3219:3249  _transferOwnership(address(0)) */\n      tag_212\n        /* \"@openzeppelin/contracts-upgradeable/access/OwnableUpgradeable.sol\":3246:3247  0 */\n      0x00\n        /* \"@openzeppelin/contracts-upgradeable/access/OwnableUpgradeable.sol\":3219:3237  _transferOwnership */\n      tag_213\n        /* \"@openzeppelin/contracts-upgradeable/access/OwnableUpgradeable.sol\":3219:3249  _transferOwnership(address(0)) */\n      jump\t// in\n    tag_212:\n        /* \"@openzeppelin/contracts-upgradeable/access/OwnableUpgradeable.sol\":3155:3256  function renounceOwnership() public virtual onlyOwner {... */\n      jump\t// out\n        /* \"LockLiquidity.sol\":1350:1378  address public  bnbRecipient */\n    tag_96:\n      0x05\n      0x00\n      swap1\n      sload\n      swap1\n      0x0100\n      exp\n      swap1\n      div\n      0xffffffffffffffffffffffffffffffffffffffff\n      and\n      dup2\n      jump\t// out\n        /* \"@openzeppelin/contracts-upgradeable/access/OwnableUpgradeable.sol\":2441:2585  function owner() public view virtual returns (address) {... */\n    tag_100:\n        /* \"@openzeppelin/contracts-upgradeable/access/OwnableUpgradeable.sol\":2487:2494  address */\n      0x00\n        /* \"@openzeppelin/contracts-upgradeable/access/OwnableUpgradeable.sol\":2506:2530  OwnableStorage storage $ */\n      dup1\n        /* \"@openzeppelin/contracts-upgradeable/access/OwnableUpgradeable.sol\":2533:2553  _getOwnableStorage() */\n      tag_215\n        /* \"@openzeppelin/contracts-upgradeable/access/OwnableUpgradeable.sol\":2533:2551  _getOwnableStorage */\n      tag_216\n        /* \"@openzeppelin/contracts-upgradeable/access/OwnableUpgradeable.sol\":2533:2553  _getOwnableStorage() */\n      jump\t// in\n    tag_215:\n        /* \"@openzeppelin/contracts-upgradeable/access/OwnableUpgradeable.sol\":2506:2553  OwnableStorage storage $ = _getOwnableStorage() */\n      swap1\n      pop\n        /* \"@openzeppelin/contracts-upgradeable/access/OwnableUpgradeable.sol\":2570:2571  $ */\n      dup1\n        /* \"@openzeppelin/contracts-upgradeable/access/OwnableUpgradeable.sol\":2570:2578  $._owner */\n      0x00\n      add\n      0x00\n      swap1\n      sload\n      swap1\n      0x0100\n      exp\n      swap1\n      div\n      0xffffffffffffffffffffffffffffffffffffffff\n      and\n        /* \"@openzeppelin/contracts-upgradeable/access/OwnableUpgradeable.sol\":2563:2578  return $._owner */\n      swap2\n      pop\n      pop\n        /* \"@openzeppelin/contracts-upgradeable/access/OwnableUpgradeable.sol\":2441:2585  function owner() public view virtual returns (address) {... */\n      swap1\n      jump\t// out\n        /* \"LockLiquidity.sol\":882:955  address public constant WBNB = 0xbb4CdB9CBd36B01bD1cBaEBF2De08d9173bc095c */\n    tag_104:\n        /* \"LockLiquidity.sol\":913:955  0xbb4CdB9CBd36B01bD1cBaEBF2De08d9173bc095c */\n      0xbb4cdb9cbd36b01bd1cbaebf2de08d9173bc095c\n        /* \"LockLiquidity.sol\":882:955  address public constant WBNB = 0xbb4CdB9CBd36B01bD1cBaEBF2De08d9173bc095c */\n      dup2\n      jump\t// out\n        /* \"LockLiquidity.sol\":2106:2352  function setAddress(address _token, address _lpToken, address _bnbRecipient, address _lockOwner) external onlyOwner(){... */\n    tag_110:\n        /* \"@openzeppelin/contracts-upgradeable/access/OwnableUpgradeable.sol\":2334:2347  _checkOwner() */\n      tag_218\n        /* \"@openzeppelin/contracts-upgradeable/access/OwnableUpgradeable.sol\":2334:2345  _checkOwner */\n      tag_210\n        /* \"@openzeppelin/contracts-upgradeable/access/OwnableUpgradeable.sol\":2334:2347  _checkOwner() */\n      jump\t// in\n    tag_218:\n        /* \"LockLiquidity.sol\":2241:2247  _token */\n      dup4\n        /* \"LockLiquidity.sol\":2233:2238  token */\n      0x03\n      0x00\n        /* \"LockLiquidity.sol\":2233:2247  token = _token */\n      0x0100\n      exp\n      dup2\n      sload\n      dup2\n      0xffffffffffffffffffffffffffffffffffffffff\n      mul\n      not\n      and\n      swap1\n      dup4\n      0xffffffffffffffffffffffffffffffffffffffff\n      and\n      mul\n      or\n      swap1\n      sstore\n      pop\n        /* \"LockLiquidity.sol\":2267:2275  _lpToken */\n      dup3\n        /* \"LockLiquidity.sol\":2257:2264  lpToken */\n      0x02\n      0x00\n        /* \"LockLiquidity.sol\":2257:2275  lpToken = _lpToken */\n      0x0100\n      exp\n      dup2\n      sload\n      dup2\n      0xffffffffffffffffffffffffffffffffffffffff\n      mul\n      not\n      and\n      swap1\n      dup4\n      0xffffffffffffffffffffffffffffffffffffffff\n      and\n      mul\n      or\n      swap1\n      sstore\n      pop\n        /* \"LockLiquidity.sol\":2300:2313  _bnbRecipient */\n      dup2\n        /* \"LockLiquidity.sol\":2285:2297  bnbRecipient */\n      0x05\n      0x00\n        /* \"LockLiquidity.sol\":2285:2313  bnbRecipient = _bnbRecipient */\n      0x0100\n      exp\n      dup2\n      sload\n      dup2\n      0xffffffffffffffffffffffffffffffffffffffff\n      mul\n      not\n      and\n      swap1\n      dup4\n      0xffffffffffffffffffffffffffffffffffffffff\n      and\n      mul\n      or\n      swap1\n      sstore\n      pop\n        /* \"LockLiquidity.sol\":2335:2345  _lockOwner */\n      dup1\n        /* \"LockLiquidity.sol\":2323:2332  lockOwner */\n      0x04\n      0x00\n        /* \"LockLiquidity.sol\":2323:2345  lockOwner = _lockOwner */\n      0x0100\n      exp\n      dup2\n      sload\n      dup2\n      0xffffffffffffffffffffffffffffffffffffffff\n      mul\n      not\n      and\n      swap1\n      dup4\n      0xffffffffffffffffffffffffffffffffffffffff\n      and\n      mul\n      or\n      swap1\n      sstore\n      pop\n        /* \"LockLiquidity.sol\":2106:2352  function setAddress(address _token, address _lpToken, address _bnbRecipient, address _lockOwner) external onlyOwner(){... */\n      pop\n      pop\n      pop\n      pop\n      jump\t// out\n        /* \"LockLiquidity.sol\":4626:4956  function raiseFunds() external payable{... */\n    tag_112:\n        /* \"LockLiquidity.sol\":4695:4699  2e17 */\n      0x02c68af0bb140000\n        /* \"LockLiquidity.sol\":4682:4691  msg.value */\n      callvalue\n        /* \"LockLiquidity.sol\":4682:4699  msg.value >= 2e17 */\n      lt\n      iszero\n        /* \"LockLiquidity.sol\":4682:4721  msg.value >= 2e17 && msg.value <= 10e18 */\n      dup1\n      iszero\n      tag_221\n      jumpi\n      pop\n        /* \"LockLiquidity.sol\":4716:4721  10e18 */\n      0x8ac7230489e80000\n        /* \"LockLiquidity.sol\":4703:4712  msg.value */\n      callvalue\n        /* \"LockLiquidity.sol\":4703:4721  msg.value <= 10e18 */\n      gt\n      iszero\n        /* \"LockLiquidity.sol\":4682:4721  msg.value >= 2e17 && msg.value <= 10e18 */\n    tag_221:\n        /* \"LockLiquidity.sol\":4674:4755  require(msg.value >= 2e17 && msg.value <= 10e18, \"Amount must be greater than 0\") */\n      tag_222\n      jumpi\n      mload(0x40)\n      0x08c379a000000000000000000000000000000000000000000000000000000000\n      dup2\n      mstore\n      0x04\n      add\n      tag_223\n      swap1\n      tag_224\n      jump\t// in\n    tag_223:\n      mload(0x40)\n      dup1\n      swap2\n      sub\n      swap1\n      revert\n    tag_222:\n        /* \"LockLiquidity.sol\":4765:4820  TransferHelper.safeTransferETH(bnbRecipient, msg.value) */\n      tag_225\n        /* \"LockLiquidity.sol\":4796:4808  bnbRecipient */\n      0x05\n      0x00\n      swap1\n      sload\n      swap1\n      0x0100\n      exp\n      swap1\n      div\n      0xffffffffffffffffffffffffffffffffffffffff\n      and\n        /* \"LockLiquidity.sol\":4810:4819  msg.value */\n      callvalue\n        /* \"LockLiquidity.sol\":4765:4795  TransferHelper.safeTransferETH */\n      tag_226\n        /* \"LockLiquidity.sol\":4765:4820  TransferHelper.safeTransferETH(bnbRecipient, msg.value) */\n      jump\t// in\n    tag_225:\n        /* \"LockLiquidity.sol\":4857:4866  msg.value */\n      callvalue\n        /* \"LockLiquidity.sol\":4830:4841  raiseAmount */\n      0x07\n        /* \"LockLiquidity.sol\":4830:4853  raiseAmount[msg.sender] */\n      0x00\n        /* \"LockLiquidity.sol\":4842:4852  msg.sender */\n      caller\n        /* \"LockLiquidity.sol\":4830:4853  raiseAmount[msg.sender] */\n      0xffffffffffffffffffffffffffffffffffffffff\n      and\n      0xffffffffffffffffffffffffffffffffffffffff\n      and\n      dup2\n      mstore\n      0x20\n      add\n      swap1\n      dup2\n      mstore\n      0x20\n      add\n      0x00\n      keccak256\n      0x00\n        /* \"LockLiquidity.sol\":4830:4866  raiseAmount[msg.sender] += msg.value */\n      dup3\n      dup3\n      sload\n      tag_227\n      swap2\n      swap1\n      tag_148\n      jump\t// in\n    tag_227:\n      swap3\n      pop\n      pop\n      dup2\n      swap1\n      sstore\n      pop\n        /* \"LockLiquidity.sol\":4876:4883  funders */\n      0x06\n        /* \"LockLiquidity.sol\":4889:4899  msg.sender */\n      caller\n        /* \"LockLiquidity.sol\":4876:4900  funders.push(msg.sender) */\n      swap1\n      dup1\n      0x01\n      dup2\n      sload\n      add\n      dup1\n      dup3\n      sstore\n      dup1\n      swap2\n      pop\n      pop\n      0x01\n      swap1\n      sub\n      swap1\n      0x00\n      mstore\n      keccak256(0x00, 0x20)\n      add\n      0x00\n      swap1\n      swap2\n      swap1\n      swap2\n      swap1\n      swap2\n      0x0100\n      exp\n      dup2\n      sload\n      dup2\n      0xffffffffffffffffffffffffffffffffffffffff\n      mul\n      not\n      and\n      swap1\n      dup4\n      0xffffffffffffffffffffffffffffffffffffffff\n      and\n      mul\n      or\n      swap1\n      sstore\n      pop\n        /* \"LockLiquidity.sol\":4915:4949  FundsRaised(msg.sender, msg.value) */\n      0xf8239f64d70f7d5b55f929c553aa473b195e54359bf5cd325d04fc7e45de6dc2\n        /* \"LockLiquidity.sol\":4927:4937  msg.sender */\n      caller\n        /* \"LockLiquidity.sol\":4939:4948  msg.value */\n      callvalue\n        /* \"LockLiquidity.sol\":4915:4949  FundsRaised(msg.sender, msg.value) */\n      mload(0x40)\n      tag_229\n      swap3\n      swap2\n      swap1\n      tag_230\n      jump\t// in\n    tag_229:\n      mload(0x40)\n      dup1\n      swap2\n      sub\n      swap1\n      log1\n        /* \"LockLiquidity.sol\":4626:4956  function raiseFunds() external payable{... */\n      jump\t// out\n        /* \"@openzeppelin/contracts-upgradeable/proxy/utils/UUPSUpgradeable.sol\":1819:1877  string public constant UPGRADE_INTERFACE_VERSION = \"5.0.0\" */\n    tag_115:\n      mload(0x40)\n      dup1\n      0x40\n      add\n      0x40\n      mstore\n      dup1\n      0x05\n      dup2\n      mstore\n      0x20\n      add\n      0x352e302e30000000000000000000000000000000000000000000000000000000\n      dup2\n      mstore\n      pop\n      dup2\n      jump\t// out\n        /* \"LockLiquidity.sol\":5061:5175  function getRaiseAmount(address funder) external view returns (uint256){... */\n    tag_121:\n        /* \"LockLiquidity.sol\":5124:5131  uint256 */\n      0x00\n        /* \"LockLiquidity.sol\":5149:5160  raiseAmount */\n      0x07\n        /* \"LockLiquidity.sol\":5149:5168  raiseAmount[funder] */\n      0x00\n        /* \"LockLiquidity.sol\":5161:5167  funder */\n      dup4\n        /* \"LockLiquidity.sol\":5149:5168  raiseAmount[funder] */\n      0xffffffffffffffffffffffffffffffffffffffff\n      and\n      0xffffffffffffffffffffffffffffffffffffffff\n      and\n      dup2\n      mstore\n      0x20\n      add\n      swap1\n      dup2\n      mstore\n      0x20\n      add\n      0x00\n      keccak256\n      sload\n        /* \"LockLiquidity.sol\":5142:5168  return raiseAmount[funder] */\n      swap1\n      pop\n        /* \"LockLiquidity.sol\":5061:5175  function getRaiseAmount(address funder) external view returns (uint256){... */\n      swap2\n      swap1\n      pop\n      jump\t// out\n        /* \"LockLiquidity.sol\":1384:1408  address[] public funders */\n    tag_127:\n      0x06\n      dup2\n      dup2\n      sload\n      dup2\n      lt\n      tag_232\n      jumpi\n      0x00\n      dup1\n      revert\n    tag_232:\n      swap1\n      0x00\n      mstore\n      keccak256(0x00, 0x20)\n      add\n      0x00\n      swap2\n      pop\n      sload\n      swap1\n      0x0100\n      exp\n      swap1\n      div\n      0xffffffffffffffffffffffffffffffffffffffff\n      and\n      dup2\n      jump\t// out\n        /* \"LockLiquidity.sol\":4962:5055  function getFunders() external view returns (address[] memory){... */\n    tag_131:\n        /* \"LockLiquidity.sol\":5007:5023  address[] memory */\n      0x60\n        /* \"LockLiquidity.sol\":5041:5048  funders */\n      0x06\n        /* \"LockLiquidity.sol\":5034:5048  return funders */\n      dup1\n      sload\n      dup1\n      0x20\n      mul\n      0x20\n      add\n      mload(0x40)\n      swap1\n      dup2\n      add\n      0x40\n      mstore\n      dup1\n      swap3\n      swap2\n      swap1\n      dup2\n      dup2\n      mstore\n      0x20\n      add\n      dup3\n      dup1\n      sload\n      dup1\n      iszero\n      tag_235\n      jumpi\n      0x20\n      mul\n      dup3\n      add\n      swap2\n      swap1\n      0x00\n      mstore\n      keccak256(0x00, 0x20)\n      swap1\n    tag_236:\n      dup2\n      0x00\n      swap1\n      sload\n      swap1\n      0x0100\n      exp\n      swap1\n      div\n      0xffffffffffffffffffffffffffffffffffffffff\n      and\n      0xffffffffffffffffffffffffffffffffffffffff\n      and\n      dup2\n      mstore\n      0x20\n      add\n      swap1\n      0x01\n      add\n      swap1\n      dup1\n      dup4\n      gt\n      tag_236\n      jumpi\n    tag_235:\n      pop\n      pop\n      pop\n      pop\n      pop\n      swap1\n      pop\n        /* \"LockLiquidity.sol\":4962:5055  function getFunders() external view returns (address[] memory){... */\n      swap1\n      jump\t// out\n        /* \"@openzeppelin/contracts-upgradeable/access/OwnableUpgradeable.sol\":3405:3620  function transferOwnership(address newOwner) public virtual onlyOwner {... */\n    tag_137:\n        /* \"@openzeppelin/contracts-upgradeable/access/OwnableUpgradeable.sol\":2334:2347  _checkOwner() */\n      tag_238\n        /* \"@openzeppelin/contracts-upgradeable/access/OwnableUpgradeable.sol\":2334:2345  _checkOwner */\n      tag_210\n        /* \"@openzeppelin/contracts-upgradeable/access/OwnableUpgradeable.sol\":2334:2347  _checkOwner() */\n      jump\t// in\n    tag_238:\n        /* \"@openzeppelin/contracts-upgradeable/access/OwnableUpgradeable.sol\":3509:3510  0 */\n      0x00\n        /* \"@openzeppelin/contracts-upgradeable/access/OwnableUpgradeable.sol\":3489:3511  newOwner == address(0) */\n      0xffffffffffffffffffffffffffffffffffffffff\n      and\n        /* \"@openzeppelin/contracts-upgradeable/access/OwnableUpgradeable.sol\":3489:3497  newOwner */\n      dup2\n        /* \"@openzeppelin/contracts-upgradeable/access/OwnableUpgradeable.sol\":3489:3511  newOwner == address(0) */\n      0xffffffffffffffffffffffffffffffffffffffff\n      and\n      sub\n        /* \"@openzeppelin/contracts-upgradeable/access/OwnableUpgradeable.sol\":3485:3576  if (newOwner == address(0)) {... */\n      tag_240\n      jumpi\n        /* \"@openzeppelin/contracts-upgradeable/access/OwnableUpgradeable.sol\":3562:3563  0 */\n      0x00\n        /* \"@openzeppelin/contracts-upgradeable/access/OwnableUpgradeable.sol\":3534:3565  OwnableInvalidOwner(address(0)) */\n      mload(0x40)\n      0x1e4fbdf700000000000000000000000000000000000000000000000000000000\n      dup2\n      mstore\n      0x04\n      add\n      tag_241\n      swap2\n      swap1\n      tag_38\n      jump\t// in\n    tag_241:\n      mload(0x40)\n      dup1\n      swap2\n      sub\n      swap1\n      revert\n        /* \"@openzeppelin/contracts-upgradeable/access/OwnableUpgradeable.sol\":3485:3576  if (newOwner == address(0)) {... */\n    tag_240:\n        /* \"@openzeppelin/contracts-upgradeable/access/OwnableUpgradeable.sol\":3585:3613  _transferOwnership(newOwner) */\n      tag_242\n        /* \"@openzeppelin/contracts-upgradeable/access/OwnableUpgradeable.sol\":3604:3612  newOwner */\n      dup2\n        /* \"@openzeppelin/contracts-upgradeable/access/OwnableUpgradeable.sol\":3585:3603  _transferOwnership */\n      tag_213\n        /* \"@openzeppelin/contracts-upgradeable/access/OwnableUpgradeable.sol\":3585:3613  _transferOwnership(newOwner) */\n      jump\t// in\n    tag_242:\n        /* \"@openzeppelin/contracts-upgradeable/access/OwnableUpgradeable.sol\":3405:3620  function transferOwnership(address newOwner) public virtual onlyOwner {... */\n      pop\n      jump\t// out\n        /* \"LockLiquidity.sol\":1614:1950  function initialize(address _lpToken, address _token, address _lockOwner,address _bnbRecipient) public initializer {... */\n    tag_141:\n        /* \"@openzeppelin/contracts-upgradeable/proxy/utils/Initializable.sol\":4158:4188  InitializableStorage storage $ */\n      0x00\n        /* \"@openzeppelin/contracts-upgradeable/proxy/utils/Initializable.sol\":4191:4217  _getInitializableStorage() */\n      tag_244\n        /* \"@openzeppelin/contracts-upgradeable/proxy/utils/Initializable.sol\":4191:4215  _getInitializableStorage */\n      tag_245\n        /* \"@openzeppelin/contracts-upgradeable/proxy/utils/Initializable.sol\":4191:4217  _getInitializableStorage() */\n      jump\t// in\n    tag_244:\n        /* \"@openzeppelin/contracts-upgradeable/proxy/utils/Initializable.sol\":4158:4217  InitializableStorage storage $ = _getInitializableStorage() */\n      swap1\n      pop\n        /* \"@openzeppelin/contracts-upgradeable/proxy/utils/Initializable.sol\":4279:4298  bool isTopLevelCall */\n      0x00\n        /* \"@openzeppelin/contracts-upgradeable/proxy/utils/Initializable.sol\":4302:4303  $ */\n      dup2\n        /* \"@openzeppelin/contracts-upgradeable/proxy/utils/Initializable.sol\":4302:4317  $._initializing */\n      0x00\n      add\n      0x08\n      swap1\n      sload\n      swap1\n      0x0100\n      exp\n      swap1\n      div\n      0xff\n      and\n        /* \"@openzeppelin/contracts-upgradeable/proxy/utils/Initializable.sol\":4301:4317  !$._initializing */\n      iszero\n        /* \"@openzeppelin/contracts-upgradeable/proxy/utils/Initializable.sol\":4279:4317  bool isTopLevelCall = !$._initializing */\n      swap1\n      pop\n        /* \"@openzeppelin/contracts-upgradeable/proxy/utils/Initializable.sol\":4327:4345  uint64 initialized */\n      0x00\n        /* \"@openzeppelin/contracts-upgradeable/proxy/utils/Initializable.sol\":4348:4349  $ */\n      dup3\n        /* \"@openzeppelin/contracts-upgradeable/proxy/utils/Initializable.sol\":4348:4362  $._initialized */\n      0x00\n      add\n      0x00\n      swap1\n      sload\n      swap1\n      0x0100\n      exp\n      swap1\n      div\n      0xffffffffffffffff\n      and\n        /* \"@openzeppelin/contracts-upgradeable/proxy/utils/Initializable.sol\":4327:4362  uint64 initialized = $._initialized */\n      swap1\n      pop\n        /* \"@openzeppelin/contracts-upgradeable/proxy/utils/Initializable.sol\":4704:4721  bool initialSetup */\n      0x00\n        /* \"@openzeppelin/contracts-upgradeable/proxy/utils/Initializable.sol\":4739:4740  0 */\n      dup1\n        /* \"@openzeppelin/contracts-upgradeable/proxy/utils/Initializable.sol\":4724:4735  initialized */\n      dup3\n        /* \"@openzeppelin/contracts-upgradeable/proxy/utils/Initializable.sol\":4724:4740  initialized == 0 */\n      0xffffffffffffffff\n      and\n      eq\n        /* \"@openzeppelin/contracts-upgradeable/proxy/utils/Initializable.sol\":4724:4758  initialized == 0 && isTopLevelCall */\n      dup1\n      iszero\n      tag_246\n      jumpi\n      pop\n        /* \"@openzeppelin/contracts-upgradeable/proxy/utils/Initializable.sol\":4744:4758  isTopLevelCall */\n      dup3\n        /* \"@openzeppelin/contracts-upgradeable/proxy/utils/Initializable.sol\":4724:4758  initialized == 0 && isTopLevelCall */\n    tag_246:\n        /* \"@openzeppelin/contracts-upgradeable/proxy/utils/Initializable.sol\":4704:4758  bool initialSetup = initialized == 0 && isTopLevelCall */\n      swap1\n      pop\n        /* \"@openzeppelin/contracts-upgradeable/proxy/utils/Initializable.sol\":4768:4785  bool construction */\n      0x00\n        /* \"@openzeppelin/contracts-upgradeable/proxy/utils/Initializable.sol\":4803:4804  1 */\n      0x01\n        /* \"@openzeppelin/contracts-upgradeable/proxy/utils/Initializable.sol\":4788:4799  initialized */\n      dup4\n        /* \"@openzeppelin/contracts-upgradeable/proxy/utils/Initializable.sol\":4788:4804  initialized == 1 */\n      0xffffffffffffffff\n      and\n      eq\n        /* \"@openzeppelin/contracts-upgradeable/proxy/utils/Initializable.sol\":4788:4838  initialized == 1 && address(this).code.length == 0 */\n      dup1\n      iszero\n      tag_247\n      jumpi\n      pop\n        /* \"@openzeppelin/contracts-upgradeable/proxy/utils/Initializable.sol\":4837:4838  0 */\n      0x00\n        /* \"@openzeppelin/contracts-upgradeable/proxy/utils/Initializable.sol\":4816:4820  this */\n      address\n        /* \"@openzeppelin/contracts-upgradeable/proxy/utils/Initializable.sol\":4808:4833  address(this).code.length */\n      0xffffffffffffffffffffffffffffffffffffffff\n      and\n      extcodesize\n        /* \"@openzeppelin/contracts-upgradeable/proxy/utils/Initializable.sol\":4808:4838  address(this).code.length == 0 */\n      eq\n        /* \"@openzeppelin/contracts-upgradeable/proxy/utils/Initializable.sol\":4788:4838  initialized == 1 && address(this).code.length == 0 */\n    tag_247:\n        /* \"@openzeppelin/contracts-upgradeable/proxy/utils/Initializable.sol\":4768:4838  bool construction = initialized == 1 && address(this).code.length == 0 */\n      swap1\n      pop\n        /* \"@openzeppelin/contracts-upgradeable/proxy/utils/Initializable.sol\":4854:4866  initialSetup */\n      dup2\n        /* \"@openzeppelin/contracts-upgradeable/proxy/utils/Initializable.sol\":4853:4866  !initialSetup */\n      iszero\n        /* \"@openzeppelin/contracts-upgradeable/proxy/utils/Initializable.sol\":4853:4883  !initialSetup && !construction */\n      dup1\n      iszero\n      tag_248\n      jumpi\n      pop\n        /* \"@openzeppelin/contracts-upgradeable/proxy/utils/Initializable.sol\":4871:4883  construction */\n      dup1\n        /* \"@openzeppelin/contracts-upgradeable/proxy/utils/Initializable.sol\":4870:4883  !construction */\n      iszero\n        /* \"@openzeppelin/contracts-upgradeable/proxy/utils/Initializable.sol\":4853:4883  !initialSetup && !construction */\n    tag_248:\n        /* \"@openzeppelin/contracts-upgradeable/proxy/utils/Initializable.sol\":4849:4940  if (!initialSetup && !construction) {... */\n      iszero\n      tag_249\n      jumpi\n        /* \"@openzeppelin/contracts-upgradeable/proxy/utils/Initializable.sol\":4906:4929  InvalidInitialization() */\n      mload(0x40)\n      0xf92ee8a900000000000000000000000000000000000000000000000000000000\n      dup2\n      mstore\n      0x04\n      add\n      mload(0x40)\n      dup1\n      swap2\n      sub\n      swap1\n      revert\n        /* \"@openzeppelin/contracts-upgradeable/proxy/utils/Initializable.sol\":4849:4940  if (!initialSetup && !construction) {... */\n    tag_249:\n        /* \"@openzeppelin/contracts-upgradeable/proxy/utils/Initializable.sol\":4966:4967  1 */\n      0x01\n        /* \"@openzeppelin/contracts-upgradeable/proxy/utils/Initializable.sol\":4949:4950  $ */\n      dup6\n        /* \"@openzeppelin/contracts-upgradeable/proxy/utils/Initializable.sol\":4949:4963  $._initialized */\n      0x00\n      add\n      0x00\n        /* \"@openzeppelin/contracts-upgradeable/proxy/utils/Initializable.sol\":4949:4967  $._initialized = 1 */\n      0x0100\n      exp\n      dup2\n      sload\n      dup2\n      0xffffffffffffffff\n      mul\n      not\n      and\n      swap1\n      dup4\n      0xffffffffffffffff\n      and\n      mul\n      or\n      swap1\n      sstore\n      pop\n        /* \"@openzeppelin/contracts-upgradeable/proxy/utils/Initializable.sol\":4981:4995  isTopLevelCall */\n      dup4\n        /* \"@openzeppelin/contracts-upgradeable/proxy/utils/Initializable.sol\":4977:5044  if (isTopLevelCall) {... */\n      iszero\n      tag_250\n      jumpi\n        /* \"@openzeppelin/contracts-upgradeable/proxy/utils/Initializable.sol\":5029:5033  true */\n      0x01\n        /* \"@openzeppelin/contracts-upgradeable/proxy/utils/Initializable.sol\":5011:5012  $ */\n      dup6\n        /* \"@openzeppelin/contracts-upgradeable/proxy/utils/Initializable.sol\":5011:5026  $._initializing */\n      0x00\n      add\n      0x08\n        /* \"@openzeppelin/contracts-upgradeable/proxy/utils/Initializable.sol\":5011:5033  $._initializing = true */\n      0x0100\n      exp\n      dup2\n      sload\n      dup2\n      0xff\n      mul\n      not\n      and\n      swap1\n      dup4\n      iszero\n      iszero\n      mul\n      or\n      swap1\n      sstore\n      pop\n        /* \"@openzeppelin/contracts-upgradeable/proxy/utils/Initializable.sol\":4977:5044  if (isTopLevelCall) {... */\n    tag_250:\n        /* \"LockLiquidity.sol\":1739:1777  __Ownable_init_unchained(_msgSender()) */\n      tag_252\n        /* \"LockLiquidity.sol\":1764:1776  _msgSender() */\n      tag_253\n        /* \"LockLiquidity.sol\":1764:1774  _msgSender */\n      tag_254\n        /* \"LockLiquidity.sol\":1764:1776  _msgSender() */\n      jump\t// in\n    tag_253:\n        /* \"LockLiquidity.sol\":1739:1763  __Ownable_init_unchained */\n      tag_255\n        /* \"LockLiquidity.sol\":1739:1777  __Ownable_init_unchained(_msgSender()) */\n      jump\t// in\n    tag_252:\n        /* \"LockLiquidity.sol\":1787:1821  __UUPSUpgradeable_init_unchained() */\n      tag_256\n        /* \"LockLiquidity.sol\":1787:1819  __UUPSUpgradeable_init_unchained */\n      tag_257\n        /* \"LockLiquidity.sol\":1787:1821  __UUPSUpgradeable_init_unchained() */\n      jump\t// in\n    tag_256:\n        /* \"LockLiquidity.sol\":1846:1859  _bnbRecipient */\n      dup6\n        /* \"LockLiquidity.sol\":1831:1843  bnbRecipient */\n      0x05\n      0x00\n        /* \"LockLiquidity.sol\":1831:1859  bnbRecipient = _bnbRecipient */\n      0x0100\n      exp\n      dup2\n      sload\n      dup2\n      0xffffffffffffffffffffffffffffffffffffffff\n      mul\n      not\n      and\n      swap1\n      dup4\n      0xffffffffffffffffffffffffffffffffffffffff\n      and\n      mul\n      or\n      swap1\n      sstore\n      pop\n        /* \"LockLiquidity.sol\":1879:1887  _lpToken */\n      dup9\n        /* \"LockLiquidity.sol\":1869:1876  lpToken */\n      0x02\n      0x00\n        /* \"LockLiquidity.sol\":1869:1887  lpToken = _lpToken */\n      0x0100\n      exp\n      dup2\n      sload\n      dup2\n      0xffffffffffffffffffffffffffffffffffffffff\n      mul\n      not\n      and\n      swap1\n      dup4\n      0xffffffffffffffffffffffffffffffffffffffff\n      and\n      mul\n      or\n      swap1\n      sstore\n      pop\n        /* \"LockLiquidity.sol\":1905:1911  _token */\n      dup8\n        /* \"LockLiquidity.sol\":1897:1902  token */\n      0x03\n      0x00\n        /* \"LockLiquidity.sol\":1897:1911  token = _token */\n      0x0100\n      exp\n      dup2\n      sload\n      dup2\n      0xffffffffffffffffffffffffffffffffffffffff\n      mul\n      not\n      and\n      swap1\n      dup4\n      0xffffffffffffffffffffffffffffffffffffffff\n      and\n      mul\n      or\n      swap1\n      sstore\n      pop\n        /* \"LockLiquidity.sol\":1933:1943  _lockOwner */\n      dup7\n        /* \"LockLiquidity.sol\":1921:1930  lockOwner */\n      0x04\n      0x00\n        /* \"LockLiquidity.sol\":1921:1943  lockOwner = _lockOwner */\n      0x0100\n      exp\n      dup2\n      sload\n      dup2\n      0xffffffffffffffffffffffffffffffffffffffff\n      mul\n      not\n      and\n      swap1\n      dup4\n      0xffffffffffffffffffffffffffffffffffffffff\n      and\n      mul\n      or\n      swap1\n      sstore\n      pop\n        /* \"@openzeppelin/contracts-upgradeable/proxy/utils/Initializable.sol\":5068:5082  isTopLevelCall */\n      dup4\n        /* \"@openzeppelin/contracts-upgradeable/proxy/utils/Initializable.sol\":5064:5165  if (isTopLevelCall) {... */\n      iszero\n      tag_258\n      jumpi\n        /* \"@openzeppelin/contracts-upgradeable/proxy/utils/Initializable.sol\":5116:5121  false */\n      0x00\n        /* \"@openzeppelin/contracts-upgradeable/proxy/utils/Initializable.sol\":5098:5099  $ */\n      dup6\n        /* \"@openzeppelin/contracts-upgradeable/proxy/utils/Initializable.sol\":5098:5113  $._initializing */\n      0x00\n      add\n      0x08\n        /* \"@openzeppelin/contracts-upgradeable/proxy/utils/Initializable.sol\":5098:5121  $._initializing = false */\n      0x0100\n      exp\n      dup2\n      sload\n      dup2\n      0xff\n      mul\n      not\n      and\n      swap1\n      dup4\n      iszero\n      iszero\n      mul\n      or\n      swap1\n      sstore\n      pop\n        /* \"@openzeppelin/contracts-upgradeable/proxy/utils/Initializable.sol\":5140:5154  Initialized(1) */\n      0xc7f505b2f371ae2175ee4913f4499e1f2633a7b5936321eed1cdaeb6115181d2\n        /* \"@openzeppelin/contracts-upgradeable/proxy/utils/Initializable.sol\":5152:5153  1 */\n      0x01\n        /* \"@openzeppelin/contracts-upgradeable/proxy/utils/Initializable.sol\":5140:5154  Initialized(1) */\n      mload(0x40)\n      tag_259\n      swap2\n      swap1\n      tag_260\n      jump\t// in\n    tag_259:\n      mload(0x40)\n      dup1\n      swap2\n      sub\n      swap1\n      log1\n        /* \"@openzeppelin/contracts-upgradeable/proxy/utils/Initializable.sol\":5064:5165  if (isTopLevelCall) {... */\n    tag_258:\n        /* \"@openzeppelin/contracts-upgradeable/proxy/utils/Initializable.sol\":4092:5171  {... */\n      pop\n      pop\n      pop\n      pop\n      pop\n        /* \"LockLiquidity.sol\":1614:1950  function initialize(address _lpToken, address _token, address _lockOwner,address _bnbRecipient) public initializer {... */\n      pop\n      pop\n      pop\n      pop\n      jump\t// out\n        /* \"LockLiquidity.sol\":1159:1179  address public token */\n    tag_144:\n      0x03\n      0x00\n      swap1\n      sload\n      swap1\n      0x0100\n      exp\n      swap1\n      div\n      0xffffffffffffffffffffffffffffffffffffffff\n      and\n      dup2\n      jump\t// out\n        /* \"@openzeppelin/contracts-upgradeable/proxy/utils/UUPSUpgradeable.sol\":4578:4890  function _checkProxy() internal view virtual {... */\n    tag_162:\n        /* \"@openzeppelin/contracts-upgradeable/proxy/utils/UUPSUpgradeable.sol\":4667:4673  __self */\n      immutable(\"0x4ce4dab4689da140a0c12de1a6af6b8f679594aeb723205f513e052d27f5b26f\")\n        /* \"@openzeppelin/contracts-upgradeable/proxy/utils/UUPSUpgradeable.sol\":4650:4673  address(this) == __self */\n      0xffffffffffffffffffffffffffffffffffffffff\n      and\n        /* \"@openzeppelin/contracts-upgradeable/proxy/utils/UUPSUpgradeable.sol\":4658:4662  this */\n      address\n        /* \"@openzeppelin/contracts-upgradeable/proxy/utils/UUPSUpgradeable.sol\":4650:4673  address(this) == __self */\n      0xffffffffffffffffffffffffffffffffffffffff\n      and\n      eq\n        /* \"@openzeppelin/contracts-upgradeable/proxy/utils/UUPSUpgradeable.sol\":4650:4770  address(this) == __self || // Must be called through delegatecall... */\n      dup1\n      tag_262\n      jumpi\n      pop\n        /* \"@openzeppelin/contracts-upgradeable/proxy/utils/UUPSUpgradeable.sol\":4764:4770  __self */\n      immutable(\"0x4ce4dab4689da140a0c12de1a6af6b8f679594aeb723205f513e052d27f5b26f\")\n        /* \"@openzeppelin/contracts-upgradeable/proxy/utils/UUPSUpgradeable.sol\":4728:4770  ERC1967Utils.getImplementation() != __self */\n      0xffffffffffffffffffffffffffffffffffffffff\n      and\n        /* \"@openzeppelin/contracts-upgradeable/proxy/utils/UUPSUpgradeable.sol\":4728:4760  ERC1967Utils.getImplementation() */\n      tag_263\n        /* \"@openzeppelin/contracts-upgradeable/proxy/utils/UUPSUpgradeable.sol\":4728:4758  ERC1967Utils.getImplementation */\n      tag_264\n        /* \"@openzeppelin/contracts-upgradeable/proxy/utils/UUPSUpgradeable.sol\":4728:4760  ERC1967Utils.getImplementation() */\n      jump\t// in\n    tag_263:\n        /* \"@openzeppelin/contracts-upgradeable/proxy/utils/UUPSUpgradeable.sol\":4728:4770  ERC1967Utils.getImplementation() != __self */\n      0xffffffffffffffffffffffffffffffffffffffff\n      and\n      eq\n      iszero\n        /* \"@openzeppelin/contracts-upgradeable/proxy/utils/UUPSUpgradeable.sol\":4650:4770  address(this) == __self || // Must be called through delegatecall... */\n    tag_262:\n        /* \"@openzeppelin/contracts-upgradeable/proxy/utils/UUPSUpgradeable.sol\":4633:4884  if (... */\n      iszero\n      tag_265\n      jumpi\n        /* \"@openzeppelin/contracts-upgradeable/proxy/utils/UUPSUpgradeable.sol\":4844:4873  UUPSUnauthorizedCallContext() */\n      mload(0x40)\n      0xe07c8dba00000000000000000000000000000000000000000000000000000000\n      dup2\n      mstore\n      0x04\n      add\n      mload(0x40)\n      dup1\n      swap2\n      sub\n      swap1\n      revert\n        /* \"@openzeppelin/contracts-upgradeable/proxy/utils/UUPSUpgradeable.sol\":4633:4884  if (... */\n    tag_265:\n        /* \"@openzeppelin/contracts-upgradeable/proxy/utils/UUPSUpgradeable.sol\":4578:4890  function _checkProxy() internal view virtual {... */\n      jump\t// out\n        /* \"LockLiquidity.sol\":2010:2100  function _authorizeUpgrade(address newImplementation) internal view override onlyOwner(){} */\n    tag_165:\n        /* \"@openzeppelin/contracts-upgradeable/access/OwnableUpgradeable.sol\":2334:2347  _checkOwner() */\n      tag_267\n        /* \"@openzeppelin/contracts-upgradeable/access/OwnableUpgradeable.sol\":2334:2345  _checkOwner */\n      tag_210\n        /* \"@openzeppelin/contracts-upgradeable/access/OwnableUpgradeable.sol\":2334:2347  _checkOwner() */\n      jump\t// in\n    tag_267:\n        /* \"LockLiquidity.sol\":2010:2100  function _authorizeUpgrade(address newImplementation) internal view override onlyOwner(){} */\n      pop\n      jump\t// out\n        /* \"@openzeppelin/contracts-upgradeable/proxy/utils/UUPSUpgradeable.sol\":6032:6570  function _upgradeToAndCallUUPS(address newImplementation, bytes memory data) private {... */\n    tag_167:\n        /* \"@openzeppelin/contracts-upgradeable/proxy/utils/UUPSUpgradeable.sol\":6149:6166  newImplementation */\n      dup2\n        /* \"@openzeppelin/contracts-upgradeable/proxy/utils/UUPSUpgradeable.sol\":6131:6181  IERC1822Proxiable(newImplementation).proxiableUUID */\n      0xffffffffffffffffffffffffffffffffffffffff\n      and\n      0x52d1902d\n        /* \"@openzeppelin/contracts-upgradeable/proxy/utils/UUPSUpgradeable.sol\":6131:6183  IERC1822Proxiable(newImplementation).proxiableUUID() */\n      mload(0x40)\n      dup2\n      0xffffffff\n      and\n      0xe0\n      shl\n      dup2\n      mstore\n      0x04\n      add\n      0x20\n      mload(0x40)\n      dup1\n      dup4\n      sub\n      dup2\n      dup7\n      gas\n      staticcall\n      swap3\n      pop\n      pop\n      pop\n      dup1\n      iszero\n      tag_270\n      jumpi\n      pop\n      mload(0x40)\n      returndatasize\n      not(0x1f)\n      0x1f\n      dup3\n      add\n      and\n      dup3\n      add\n      dup1\n      0x40\n      mstore\n      pop\n      dup2\n      add\n      swap1\n      tag_271\n      swap2\n      swap1\n      tag_272\n      jump\t// in\n    tag_271:\n      0x01\n    tag_270:\n        /* \"@openzeppelin/contracts-upgradeable/proxy/utils/UUPSUpgradeable.sol\":6127:6564  try IERC1822Proxiable(newImplementation).proxiableUUID() returns (bytes32 slot) {... */\n      tag_273\n      jumpi\n        /* \"@openzeppelin/contracts-upgradeable/proxy/utils/UUPSUpgradeable.sol\":6535:6552  newImplementation */\n      dup2\n        /* \"@openzeppelin/contracts-upgradeable/proxy/utils/UUPSUpgradeable.sol\":6493:6553  ERC1967Utils.ERC1967InvalidImplementation(newImplementation) */\n      mload(0x40)\n      0x4c9c8ce300000000000000000000000000000000000000000000000000000000\n      dup2\n      mstore\n      0x04\n      add\n      tag_277\n      swap2\n      swap1\n      tag_38\n      jump\t// in\n    tag_277:\n      mload(0x40)\n      dup1\n      swap2\n      sub\n      swap1\n      revert\n        /* \"@openzeppelin/contracts-upgradeable/proxy/utils/UUPSUpgradeable.sol\":6127:6564  try IERC1822Proxiable(newImplementation).proxiableUUID() returns (bytes32 slot) {... */\n    tag_273:\n        /* \"@openzeppelin/contracts/proxy/ERC1967/ERC1967Utils.sol\":811:877  0x360894a13ba1a3210667c828492db98dca3e2076cc3735a920a3ca505d382bbc */\n      0x360894a13ba1a3210667c828492db98dca3e2076cc3735a920a3ca505d382bbc\n        /* \"@openzeppelin/contracts-upgradeable/proxy/utils/UUPSUpgradeable.sol\":6233:6265  ERC1967Utils.IMPLEMENTATION_SLOT */\n      0x00\n      shl\n        /* \"@openzeppelin/contracts-upgradeable/proxy/utils/UUPSUpgradeable.sol\":6225:6229  slot */\n      dup2\n        /* \"@openzeppelin/contracts-upgradeable/proxy/utils/UUPSUpgradeable.sol\":6225:6265  slot != ERC1967Utils.IMPLEMENTATION_SLOT */\n      eq\n        /* \"@openzeppelin/contracts-upgradeable/proxy/utils/UUPSUpgradeable.sol\":6221:6341  if (slot != ERC1967Utils.IMPLEMENTATION_SLOT) {... */\n      tag_279\n      jumpi\n        /* \"@openzeppelin/contracts-upgradeable/proxy/utils/UUPSUpgradeable.sol\":6321:6325  slot */\n      dup1\n        /* \"@openzeppelin/contracts-upgradeable/proxy/utils/UUPSUpgradeable.sol\":6292:6326  UUPSUnsupportedProxiableUUID(slot) */\n      mload(0x40)\n      0xaa1d49a400000000000000000000000000000000000000000000000000000000\n      dup2\n      mstore\n      0x04\n      add\n      tag_280\n      swap2\n      swap1\n      tag_68\n      jump\t// in\n    tag_280:\n      mload(0x40)\n      dup1\n      swap2\n      sub\n      swap1\n      revert\n        /* \"@openzeppelin/contracts-upgradeable/proxy/utils/UUPSUpgradeable.sol\":6221:6341  if (slot != ERC1967Utils.IMPLEMENTATION_SLOT) {... */\n    tag_279:\n        /* \"@openzeppelin/contracts-upgradeable/proxy/utils/UUPSUpgradeable.sol\":6354:6408  ERC1967Utils.upgradeToAndCall(newImplementation, data) */\n      tag_281\n        /* \"@openzeppelin/contracts-upgradeable/proxy/utils/UUPSUpgradeable.sol\":6384:6401  newImplementation */\n      dup4\n        /* \"@openzeppelin/contracts-upgradeable/proxy/utils/UUPSUpgradeable.sol\":6403:6407  data */\n      dup4\n        /* \"@openzeppelin/contracts-upgradeable/proxy/utils/UUPSUpgradeable.sol\":6354:6383  ERC1967Utils.upgradeToAndCall */\n      tag_282\n        /* \"@openzeppelin/contracts-upgradeable/proxy/utils/UUPSUpgradeable.sol\":6354:6408  ERC1967Utils.upgradeToAndCall(newImplementation, data) */\n      jump\t// in\n    tag_281:\n        /* \"@openzeppelin/contracts-upgradeable/proxy/utils/UUPSUpgradeable.sol\":6184:6419  returns (bytes32 slot) {... */\n      pop\n        /* \"@openzeppelin/contracts-upgradeable/proxy/utils/UUPSUpgradeable.sol\":6032:6570  function _upgradeToAndCallUUPS(address newImplementation, bytes memory data) private {... */\n      pop\n      pop\n      jump\t// out\n        /* \"@openzeppelin/contracts-upgradeable/proxy/utils/UUPSUpgradeable.sol\":5007:5220  function _checkNotDelegated() internal view virtual {... */\n    tag_170:\n        /* \"@openzeppelin/contracts-upgradeable/proxy/utils/UUPSUpgradeable.sol\":5090:5096  __self */\n      immutable(\"0x4ce4dab4689da140a0c12de1a6af6b8f679594aeb723205f513e052d27f5b26f\")\n        /* \"@openzeppelin/contracts-upgradeable/proxy/utils/UUPSUpgradeable.sol\":5073:5096  address(this) != __self */\n      0xffffffffffffffffffffffffffffffffffffffff\n      and\n        /* \"@openzeppelin/contracts-upgradeable/proxy/utils/UUPSUpgradeable.sol\":5081:5085  this */\n      address\n        /* \"@openzeppelin/contracts-upgradeable/proxy/utils/UUPSUpgradeable.sol\":5073:5096  address(this) != __self */\n      0xffffffffffffffffffffffffffffffffffffffff\n      and\n      eq\n        /* \"@openzeppelin/contracts-upgradeable/proxy/utils/UUPSUpgradeable.sol\":5069:5214  if (address(this) != __self) {... */\n      tag_284\n      jumpi\n        /* \"@openzeppelin/contracts-upgradeable/proxy/utils/UUPSUpgradeable.sol\":5174:5203  UUPSUnauthorizedCallContext() */\n      mload(0x40)\n      0xe07c8dba00000000000000000000000000000000000000000000000000000000\n      dup2\n      mstore\n      0x04\n      add\n      mload(0x40)\n      dup1\n      swap2\n      sub\n      swap1\n      revert\n        /* \"@openzeppelin/contracts-upgradeable/proxy/utils/UUPSUpgradeable.sol\":5069:5214  if (address(this) != __self) {... */\n    tag_284:\n        /* \"@openzeppelin/contracts-upgradeable/proxy/utils/UUPSUpgradeable.sol\":5007:5220  function _checkNotDelegated() internal view virtual {... */\n      jump\t// out\n        /* \"@openzeppelin/contracts/utils/ReentrancyGuard.sol\":2575:2882  function _nonReentrantBefore() private {... */\n    tag_174:\n        /* \"@openzeppelin/contracts/utils/ReentrancyGuard.sol\":1899:1900  2 */\n      0x02\n        /* \"@openzeppelin/contracts/utils/ReentrancyGuard.sol\":2702:2709  _status */\n      sload(0x00)\n        /* \"@openzeppelin/contracts/utils/ReentrancyGuard.sol\":2702:2720  _status == ENTERED */\n      sub\n        /* \"@openzeppelin/contracts/utils/ReentrancyGuard.sol\":2698:2784  if (_status == ENTERED) {... */\n      tag_286\n      jumpi\n        /* \"@openzeppelin/contracts/utils/ReentrancyGuard.sol\":2743:2773  ReentrancyGuardReentrantCall() */\n      mload(0x40)\n      0x3ee5aeb500000000000000000000000000000000000000000000000000000000\n      dup2\n      mstore\n      0x04\n      add\n      mload(0x40)\n      dup1\n      swap2\n      sub\n      swap1\n      revert\n        /* \"@openzeppelin/contracts/utils/ReentrancyGuard.sol\":2698:2784  if (_status == ENTERED) {... */\n    tag_286:\n        /* \"@openzeppelin/contracts/utils/ReentrancyGuard.sol\":1899:1900  2 */\n      0x02\n        /* \"@openzeppelin/contracts/utils/ReentrancyGuard.sol\":2858:2865  _status */\n      0x00\n        /* \"@openzeppelin/contracts/utils/ReentrancyGuard.sol\":2858:2875  _status = ENTERED */\n      dup2\n      swap1\n      sstore\n      pop\n        /* \"@openzeppelin/contracts/utils/ReentrancyGuard.sol\":2575:2882  function _nonReentrantBefore() private {... */\n      jump\t// out\n        /* \"LockLiquidity.sol\":3840:4620  function removeLiquidty(address user, uint256 lpAmount, bool fee) internal{... */\n    tag_182:\n        /* \"LockLiquidity.sol\":3931:3938  lpToken */\n      0x02\n      0x00\n      swap1\n      sload\n      swap1\n      0x0100\n      exp\n      swap1\n      div\n      0xffffffffffffffffffffffffffffffffffffffff\n      and\n        /* \"LockLiquidity.sol\":3924:3947  IERC20(lpToken).approve */\n      0xffffffffffffffffffffffffffffffffffffffff\n      and\n      0x095ea7b3\n        /* \"LockLiquidity.sol\":1082:1124  0x10ED43C718714eb63d5aA57B78B54704E256024E */\n      0x10ed43c718714eb63d5aa57b78b54704e256024e\n        /* \"LockLiquidity.sol\":3965:3973  lpAmount */\n      dup5\n        /* \"LockLiquidity.sol\":3924:3974  IERC20(lpToken).approve(uniswapV2Router, lpAmount) */\n      mload(0x40)\n      dup4\n      0xffffffff\n      and\n      0xe0\n      shl\n      dup2\n      mstore\n      0x04\n      add\n      tag_288\n      swap3\n      swap2\n      swap1\n      tag_230\n      jump\t// in\n    tag_288:\n      0x20\n      mload(0x40)\n      dup1\n      dup4\n      sub\n      dup2\n      0x00\n      dup8\n      gas\n      call\n      iszero\n      dup1\n      iszero\n      tag_290\n      jumpi\n      returndatasize\n      0x00\n      dup1\n      returndatacopy\n      revert(0x00, returndatasize)\n    tag_290:\n      pop\n      pop\n      pop\n      pop\n      mload(0x40)\n      returndatasize\n      not(0x1f)\n      0x1f\n      dup3\n      add\n      and\n      dup3\n      add\n      dup1\n      0x40\n      mstore\n      pop\n      dup2\n      add\n      swap1\n      tag_291\n      swap2\n      swap1\n      tag_292\n      jump\t// in\n    tag_291:\n      pop\n        /* \"LockLiquidity.sol\":3984:4006  uint256 _beforeBalance */\n      0x00\n        /* \"LockLiquidity.sol\":4016:4021  token */\n      0x03\n      0x00\n      swap1\n      sload\n      swap1\n      0x0100\n      exp\n      swap1\n      div\n      0xffffffffffffffffffffffffffffffffffffffff\n      and\n        /* \"LockLiquidity.sol\":4009:4032  IERC20(token).balanceOf */\n      0xffffffffffffffffffffffffffffffffffffffff\n      and\n      0x70a08231\n        /* \"LockLiquidity.sol\":4041:4045  this */\n      address\n        /* \"LockLiquidity.sol\":4009:4047  IERC20(token).balanceOf(address(this)) */\n      mload(0x40)\n      dup3\n      0xffffffff\n      and\n      0xe0\n      shl\n      dup2\n      mstore\n      0x04\n      add\n      tag_293\n      swap2\n      swap1\n      tag_38\n      jump\t// in\n    tag_293:\n      0x20\n      mload(0x40)\n      dup1\n      dup4\n      sub\n      dup2\n      dup7\n      gas\n      staticcall\n      iszero\n      dup1\n      iszero\n      tag_295\n      jumpi\n      returndatasize\n      0x00\n      dup1\n      returndatacopy\n      revert(0x00, returndatasize)\n    tag_295:\n      pop\n      pop\n      pop\n      pop\n      mload(0x40)\n      returndatasize\n      not(0x1f)\n      0x1f\n      dup3\n      add\n      and\n      dup3\n      add\n      dup1\n      0x40\n      mstore\n      pop\n      dup2\n      add\n      swap1\n      tag_296\n      swap2\n      swap1\n      tag_297\n      jump\t// in\n    tag_296:\n        /* \"LockLiquidity.sol\":3984:4047  uint256 _beforeBalance = IERC20(token).balanceOf(address(this)) */\n      swap1\n      pop\n        /* \"LockLiquidity.sol\":4057:4076  uint256 _wbnbAmount */\n      0x00\n        /* \"LockLiquidity.sol\":1082:1124  0x10ED43C718714eb63d5aA57B78B54704E256024E */\n      0x10ed43c718714eb63d5aa57b78b54704e256024e\n        /* \"LockLiquidity.sol\":4079:4162  IUniswapV2Router02(uniswapV2Router).removeLiquidityETHSupportingFeeOnTransferTokens */\n      0xffffffffffffffffffffffffffffffffffffffff\n      and\n      0xaf2979eb\n        /* \"LockLiquidity.sol\":4176:4181  token */\n      0x03\n      0x00\n      swap1\n      sload\n      swap1\n      0x0100\n      exp\n      swap1\n      div\n      0xffffffffffffffffffffffffffffffffffffffff\n      and\n        /* \"LockLiquidity.sol\":4196:4204  lpAmount */\n      dup7\n        /* \"LockLiquidity.sol\":4219:4220  0 */\n      0x00\n        /* \"LockLiquidity.sol\":4235:4236  0 */\n      dup1\n        /* \"LockLiquidity.sol\":4259:4263  this */\n      address\n        /* \"LockLiquidity.sol\":4279:4294  block.timestamp */\n      timestamp\n        /* \"LockLiquidity.sol\":4079:4304  IUniswapV2Router02(uniswapV2Router).removeLiquidityETHSupportingFeeOnTransferTokens(... */\n      mload(0x40)\n      dup8\n      0xffffffff\n      and\n      0xe0\n      shl\n      dup2\n      mstore\n      0x04\n      add\n      tag_298\n      swap7\n      swap6\n      swap5\n      swap4\n      swap3\n      swap2\n      swap1\n      tag_299\n      jump\t// in\n    tag_298:\n      0x20\n      mload(0x40)\n      dup1\n      dup4\n      sub\n      dup2\n      0x00\n      dup8\n      gas\n      call\n      iszero\n      dup1\n      iszero\n      tag_301\n      jumpi\n      returndatasize\n      0x00\n      dup1\n      returndatacopy\n      revert(0x00, returndatasize)\n    tag_301:\n      pop\n      pop\n      pop\n      pop\n      mload(0x40)\n      returndatasize\n      not(0x1f)\n      0x1f\n      dup3\n      add\n      and\n      dup3\n      add\n      dup1\n      0x40\n      mstore\n      pop\n      dup2\n      add\n      swap1\n      tag_302\n      swap2\n      swap1\n      tag_297\n      jump\t// in\n    tag_302:\n        /* \"LockLiquidity.sol\":4057:4304  uint256 _wbnbAmount = IUniswapV2Router02(uniswapV2Router).removeLiquidityETHSupportingFeeOnTransferTokens(... */\n      swap1\n      pop\n        /* \"LockLiquidity.sol\":4314:4335  uint256 _afterBalance */\n      0x00\n        /* \"LockLiquidity.sol\":4345:4350  token */\n      0x03\n      0x00\n      swap1\n      sload\n      swap1\n      0x0100\n      exp\n      swap1\n      div\n      0xffffffffffffffffffffffffffffffffffffffff\n      and\n        /* \"LockLiquidity.sol\":4338:4361  IERC20(token).balanceOf */\n      0xffffffffffffffffffffffffffffffffffffffff\n      and\n      0x70a08231\n        /* \"LockLiquidity.sol\":4370:4374  this */\n      address\n        /* \"LockLiquidity.sol\":4338:4376  IERC20(token).balanceOf(address(this)) */\n      mload(0x40)\n      dup3\n      0xffffffff\n      and\n      0xe0\n      shl\n      dup2\n      mstore\n      0x04\n      add\n      tag_303\n      swap2\n      swap1\n      tag_38\n      jump\t// in\n    tag_303:\n      0x20\n      mload(0x40)\n      dup1\n      dup4\n      sub\n      dup2\n      dup7\n      gas\n      staticcall\n      iszero\n      dup1\n      iszero\n      tag_305\n      jumpi\n      returndatasize\n      0x00\n      dup1\n      returndatacopy\n      revert(0x00, returndatasize)\n    tag_305:\n      pop\n      pop\n      pop\n      pop\n      mload(0x40)\n      returndatasize\n      not(0x1f)\n      0x1f\n      dup3\n      add\n      and\n      dup3\n      add\n      dup1\n      0x40\n      mstore\n      pop\n      dup2\n      add\n      swap1\n      tag_306\n      swap2\n      swap1\n      tag_297\n      jump\t// in\n    tag_306:\n        /* \"LockLiquidity.sol\":4314:4376  uint256 _afterBalance = IERC20(token).balanceOf(address(this)) */\n      swap1\n      pop\n        /* \"LockLiquidity.sol\":4390:4393  fee */\n      dup4\n        /* \"LockLiquidity.sol\":4386:4554  if(!fee) TransferHelper.safeTransfer(token, user, _afterBalance - _beforeBalance);... */\n      tag_307\n      jumpi\n        /* \"LockLiquidity.sol\":4395:4467  TransferHelper.safeTransfer(token, user, _afterBalance - _beforeBalance) */\n      tag_308\n        /* \"LockLiquidity.sol\":4423:4428  token */\n      0x03\n      0x00\n      swap1\n      sload\n      swap1\n      0x0100\n      exp\n      swap1\n      div\n      0xffffffffffffffffffffffffffffffffffffffff\n      and\n        /* \"LockLiquidity.sol\":4430:4434  user */\n      dup8\n        /* \"LockLiquidity.sol\":4452:4466  _beforeBalance */\n      dup6\n        /* \"LockLiquidity.sol\":4436:4449  _afterBalance */\n      dup5\n        /* \"LockLiquidity.sol\":4436:4466  _afterBalance - _beforeBalance */\n      tag_309\n      swap2\n      swap1\n      tag_152\n      jump\t// in\n    tag_309:\n        /* \"LockLiquidity.sol\":4395:4422  TransferHelper.safeTransfer */\n      tag_310\n        /* \"LockLiquidity.sol\":4395:4467  TransferHelper.safeTransfer(token, user, _afterBalance - _beforeBalance) */\n      jump\t// in\n    tag_308:\n        /* \"LockLiquidity.sol\":4386:4554  if(!fee) TransferHelper.safeTransfer(token, user, _afterBalance - _beforeBalance);... */\n      jump(tag_311)\n    tag_307:\n        /* \"LockLiquidity.sol\":4482:4554  TransferHelper.safeTransfer(token, DEAD, _afterBalance - _beforeBalance) */\n      tag_312\n        /* \"LockLiquidity.sol\":4510:4515  token */\n      0x03\n      0x00\n      swap1\n      sload\n      swap1\n      0x0100\n      exp\n      swap1\n      div\n      0xffffffffffffffffffffffffffffffffffffffff\n      and\n        /* \"LockLiquidity.sol\":992:1034  0x000000000000000000000000000000000000dEaD */\n      0xdead\n        /* \"LockLiquidity.sol\":4539:4553  _beforeBalance */\n      dup6\n        /* \"LockLiquidity.sol\":4523:4536  _afterBalance */\n      dup5\n        /* \"LockLiquidity.sol\":4523:4553  _afterBalance - _beforeBalance */\n      tag_313\n      swap2\n      swap1\n      tag_152\n      jump\t// in\n    tag_313:\n        /* \"LockLiquidity.sol\":4482:4509  TransferHelper.safeTransfer */\n      tag_310\n        /* \"LockLiquidity.sol\":4482:4554  TransferHelper.safeTransfer(token, DEAD, _afterBalance - _beforeBalance) */\n      jump\t// in\n    tag_312:\n        /* \"LockLiquidity.sol\":4386:4554  if(!fee) TransferHelper.safeTransfer(token, user, _afterBalance - _beforeBalance);... */\n    tag_311:\n        /* \"LockLiquidity.sol\":4564:4613  TransferHelper.safeTransferETH(user, _wbnbAmount) */\n      tag_314\n        /* \"LockLiquidity.sol\":4595:4599  user */\n      dup7\n        /* \"LockLiquidity.sol\":4601:4612  _wbnbAmount */\n      dup4\n        /* \"LockLiquidity.sol\":4564:4594  TransferHelper.safeTransferETH */\n      tag_226\n        /* \"LockLiquidity.sol\":4564:4613  TransferHelper.safeTransferETH(user, _wbnbAmount) */\n      jump\t// in\n    tag_314:\n        /* \"LockLiquidity.sol\":3914:4620  {... */\n      pop\n      pop\n      pop\n        /* \"LockLiquidity.sol\":3840:4620  function removeLiquidty(address user, uint256 lpAmount, bool fee) internal{... */\n      pop\n      pop\n      pop\n      jump\t// out\n        /* \"@openzeppelin/contracts/utils/ReentrancyGuard.sol\":2888:3096  function _nonReentrantAfter() private {... */\n    tag_186:\n        /* \"@openzeppelin/contracts/utils/ReentrancyGuard.sol\":1857:1858  1 */\n      0x01\n        /* \"@openzeppelin/contracts/utils/ReentrancyGuard.sol\":3068:3075  _status */\n      0x00\n        /* \"@openzeppelin/contracts/utils/ReentrancyGuard.sol\":3068:3089  _status = NOT_ENTERED */\n      dup2\n      swap1\n      sstore\n      pop\n        /* \"@openzeppelin/contracts/utils/ReentrancyGuard.sol\":2888:3096  function _nonReentrantAfter() private {... */\n      jump\t// out\n        /* \"@openzeppelin/contracts-upgradeable/access/OwnableUpgradeable.sol\":2658:2820  function _checkOwner() internal view virtual {... */\n    tag_210:\n        /* \"@openzeppelin/contracts-upgradeable/access/OwnableUpgradeable.sol\":2728:2740  _msgSender() */\n      tag_317\n        /* \"@openzeppelin/contracts-upgradeable/access/OwnableUpgradeable.sol\":2728:2738  _msgSender */\n      tag_254\n        /* \"@openzeppelin/contracts-upgradeable/access/OwnableUpgradeable.sol\":2728:2740  _msgSender() */\n      jump\t// in\n    tag_317:\n        /* \"@openzeppelin/contracts-upgradeable/access/OwnableUpgradeable.sol\":2717:2740  owner() != _msgSender() */\n      0xffffffffffffffffffffffffffffffffffffffff\n      and\n        /* \"@openzeppelin/contracts-upgradeable/access/OwnableUpgradeable.sol\":2717:2724  owner() */\n      tag_318\n        /* \"@openzeppelin/contracts-upgradeable/access/OwnableUpgradeable.sol\":2717:2722  owner */\n      tag_100\n        /* \"@openzeppelin/contracts-upgradeable/access/OwnableUpgradeable.sol\":2717:2724  owner() */\n      jump\t// in\n    tag_318:\n        /* \"@openzeppelin/contracts-upgradeable/access/OwnableUpgradeable.sol\":2717:2740  owner() != _msgSender() */\n      0xffffffffffffffffffffffffffffffffffffffff\n      and\n      eq\n        /* \"@openzeppelin/contracts-upgradeable/access/OwnableUpgradeable.sol\":2713:2814  if (owner() != _msgSender()) {... */\n      tag_319\n      jumpi\n        /* \"@openzeppelin/contracts-upgradeable/access/OwnableUpgradeable.sol\":2790:2802  _msgSender() */\n      tag_320\n        /* \"@openzeppelin/contracts-upgradeable/access/OwnableUpgradeable.sol\":2790:2800  _msgSender */\n      tag_254\n        /* \"@openzeppelin/contracts-upgradeable/access/OwnableUpgradeable.sol\":2790:2802  _msgSender() */\n      jump\t// in\n    tag_320:\n        /* \"@openzeppelin/contracts-upgradeable/access/OwnableUpgradeable.sol\":2763:2803  OwnableUnauthorizedAccount(_msgSender()) */\n      mload(0x40)\n      0x118cdaa700000000000000000000000000000000000000000000000000000000\n      dup2\n      mstore\n      0x04\n      add\n      tag_321\n      swap2\n      swap1\n      tag_38\n      jump\t// in\n    tag_321:\n      mload(0x40)\n      dup1\n      swap2\n      sub\n      swap1\n      revert\n        /* \"@openzeppelin/contracts-upgradeable/access/OwnableUpgradeable.sol\":2713:2814  if (owner() != _msgSender()) {... */\n    tag_319:\n        /* \"@openzeppelin/contracts-upgradeable/access/OwnableUpgradeable.sol\":2658:2820  function _checkOwner() internal view virtual {... */\n      jump\t// out\n        /* \"@openzeppelin/contracts-upgradeable/access/OwnableUpgradeable.sol\":3774:4022  function _transferOwnership(address newOwner) internal virtual {... */\n    tag_213:\n        /* \"@openzeppelin/contracts-upgradeable/access/OwnableUpgradeable.sol\":3847:3871  OwnableStorage storage $ */\n      0x00\n        /* \"@openzeppelin/contracts-upgradeable/access/OwnableUpgradeable.sol\":3874:3894  _getOwnableStorage() */\n      tag_323\n        /* \"@openzeppelin/contracts-upgradeable/access/OwnableUpgradeable.sol\":3874:3892  _getOwnableStorage */\n      tag_216\n        /* \"@openzeppelin/contracts-upgradeable/access/OwnableUpgradeable.sol\":3874:3894  _getOwnableStorage() */\n      jump\t// in\n    tag_323:\n        /* \"@openzeppelin/contracts-upgradeable/access/OwnableUpgradeable.sol\":3847:3894  OwnableStorage storage $ = _getOwnableStorage() */\n      swap1\n      pop\n        /* \"@openzeppelin/contracts-upgradeable/access/OwnableUpgradeable.sol\":3904:3920  address oldOwner */\n      0x00\n        /* \"@openzeppelin/contracts-upgradeable/access/OwnableUpgradeable.sol\":3923:3924  $ */\n      dup2\n        /* \"@openzeppelin/contracts-upgradeable/access/OwnableUpgradeable.sol\":3923:3931  $._owner */\n      0x00\n      add\n      0x00\n      swap1\n      sload\n      swap1\n      0x0100\n      exp\n      swap1\n      div\n      0xffffffffffffffffffffffffffffffffffffffff\n      and\n        /* \"@openzeppelin/contracts-upgradeable/access/OwnableUpgradeable.sol\":3904:3931  address oldOwner = $._owner */\n      swap1\n      pop\n        /* \"@openzeppelin/contracts-upgradeable/access/OwnableUpgradeable.sol\":3952:3960  newOwner */\n      dup3\n        /* \"@openzeppelin/contracts-upgradeable/access/OwnableUpgradeable.sol\":3941:3942  $ */\n      dup3\n        /* \"@openzeppelin/contracts-upgradeable/access/OwnableUpgradeable.sol\":3941:3949  $._owner */\n      0x00\n      add\n      0x00\n        /* \"@openzeppelin/contracts-upgradeable/access/OwnableUpgradeable.sol\":3941:3960  $._owner = newOwner */\n      0x0100\n      exp\n      dup2\n      sload\n      dup2\n      0xffffffffffffffffffffffffffffffffffffffff\n      mul\n      not\n      and\n      swap1\n      dup4\n      0xffffffffffffffffffffffffffffffffffffffff\n      and\n      mul\n      or\n      swap1\n      sstore\n      pop\n        /* \"@openzeppelin/contracts-upgradeable/access/OwnableUpgradeable.sol\":4006:4014  newOwner */\n      dup3\n        /* \"@openzeppelin/contracts-upgradeable/access/OwnableUpgradeable.sol\":3975:4015  OwnershipTransferred(oldOwner, newOwner) */\n      0xffffffffffffffffffffffffffffffffffffffff\n      and\n        /* \"@openzeppelin/contracts-upgradeable/access/OwnableUpgradeable.sol\":3996:4004  oldOwner */\n      dup2\n        /* \"@openzeppelin/contracts-upgradeable/access/OwnableUpgradeable.sol\":3975:4015  OwnershipTransferred(oldOwner, newOwner) */\n      0xffffffffffffffffffffffffffffffffffffffff\n      and\n      0x8be0079c531659141344cd1fd0a4f28419497f9722a3daafe3b4186f6b6457e0\n      mload(0x40)\n      mload(0x40)\n      dup1\n      swap2\n      sub\n      swap1\n      log3\n        /* \"@openzeppelin/contracts-upgradeable/access/OwnableUpgradeable.sol\":3837:4022  {... */\n      pop\n      pop\n        /* \"@openzeppelin/contracts-upgradeable/access/OwnableUpgradeable.sol\":3774:4022  function _transferOwnership(address newOwner) internal virtual {... */\n      pop\n      jump\t// out\n        /* \"@openzeppelin/contracts-upgradeable/access/OwnableUpgradeable.sol\":1192:1351  function _getOwnableStorage() private pure returns (OwnableStorage storage $) {... */\n    tag_216:\n        /* \"@openzeppelin/contracts-upgradeable/access/OwnableUpgradeable.sol\":1244:1268  OwnableStorage storage $ */\n      0x00\n        /* \"@openzeppelin/contracts-upgradeable/access/OwnableUpgradeable.sol\":1313:1335  OwnableStorageLocation */\n      0x9016d09d72d40fdae2fd8ceac6b6234c7706214fd39c1cd1e609a0528c199300\n        /* \"@openzeppelin/contracts-upgradeable/access/OwnableUpgradeable.sol\":1303:1335  $.slot := OwnableStorageLocation */\n      swap1\n      pop\n        /* \"@openzeppelin/contracts-upgradeable/access/OwnableUpgradeable.sol\":1192:1351  function _getOwnableStorage() private pure returns (OwnableStorage storage $) {... */\n      swap1\n      jump\t// out\n        /* \"library/TransferHelper.sol\":389:581  function safeTransferETH(address to, uint value) internal {... */\n    tag_226:\n        /* \"library/TransferHelper.sol\":458:470  bool success */\n      0x00\n        /* \"library/TransferHelper.sol\":475:477  to */\n      dup3\n        /* \"library/TransferHelper.sol\":475:482  to.call */\n      0xffffffffffffffffffffffffffffffffffffffff\n      and\n        /* \"library/TransferHelper.sol\":489:494  value */\n      dup3\n        /* \"library/TransferHelper.sol\":506:507  0 */\n      0x00\n        /* \"library/TransferHelper.sol\":496:508  new bytes(0) */\n      0xffffffffffffffff\n      dup2\n      gt\n      iszero\n      tag_326\n      jumpi\n      tag_327\n      tag_328\n      jump\t// in\n    tag_327:\n    tag_326:\n      mload(0x40)\n      swap1\n      dup1\n      dup3\n      mstore\n      dup1\n      0x1f\n      add\n      not(0x1f)\n      and\n      0x20\n      add\n      dup3\n      add\n      0x40\n      mstore\n      dup1\n      iszero\n      tag_329\n      jumpi\n      dup2\n      0x20\n      add\n      0x01\n      dup3\n      mul\n      dup1\n      calldatasize\n      dup4\n      calldatacopy\n      dup1\n      dup3\n      add\n      swap2\n      pop\n      pop\n      swap1\n      pop\n    tag_329:\n      pop\n        /* \"library/TransferHelper.sol\":475:509  to.call{value:value}(new bytes(0)) */\n      mload(0x40)\n      tag_330\n      swap2\n      swap1\n      tag_331\n      jump\t// in\n    tag_330:\n      0x00\n      mload(0x40)\n      dup1\n      dup4\n      sub\n      dup2\n      dup6\n      dup8\n      gas\n      call\n      swap3\n      pop\n      pop\n      pop\n      returndatasize\n      dup1\n      0x00\n      dup2\n      eq\n      tag_334\n      jumpi\n      mload(0x40)\n      swap2\n      pop\n      and(add(returndatasize, 0x3f), not(0x1f))\n      dup3\n      add\n      0x40\n      mstore\n      returndatasize\n      dup3\n      mstore\n      returndatasize\n      0x00\n      0x20\n      dup5\n      add\n      returndatacopy\n      jump(tag_333)\n    tag_334:\n      0x60\n      swap2\n      pop\n    tag_333:\n      pop\n        /* \"library/TransferHelper.sol\":457:509  (bool success,) = to.call{value:value}(new bytes(0)) */\n      pop\n      swap1\n      pop\n        /* \"library/TransferHelper.sol\":527:534  success */\n      dup1\n        /* \"library/TransferHelper.sol\":519:574  require(success, 'TransferHelper: ETH_TRANSFER_FAILED') */\n      tag_335\n      jumpi\n      mload(0x40)\n      0x08c379a000000000000000000000000000000000000000000000000000000000\n      dup2\n      mstore\n      0x04\n      add\n      tag_336\n      swap1\n      tag_337\n      jump\t// in\n    tag_336:\n      mload(0x40)\n      dup1\n      swap2\n      sub\n      swap1\n      revert\n    tag_335:\n        /* \"library/TransferHelper.sol\":447:581  {... */\n      pop\n        /* \"library/TransferHelper.sol\":389:581  function safeTransferETH(address to, uint value) internal {... */\n      pop\n      pop\n      jump\t// out\n        /* \"@openzeppelin/contracts-upgradeable/proxy/utils/Initializable.sol\":9071:9276  function _getInitializableStorage() private pure returns (InitializableStorage storage $) {... */\n    tag_245:\n        /* \"@openzeppelin/contracts-upgradeable/proxy/utils/Initializable.sol\":9129:9159  InitializableStorage storage $ */\n      0x00\n        /* \"@openzeppelin/contracts-upgradeable/proxy/utils/Initializable.sol\":9171:9183  bytes32 slot */\n      dup1\n        /* \"@openzeppelin/contracts-upgradeable/proxy/utils/Initializable.sol\":9186:9213  _initializableStorageSlot() */\n      tag_339\n        /* \"@openzeppelin/contracts-upgradeable/proxy/utils/Initializable.sol\":9186:9211  _initializableStorageSlot */\n      tag_340\n        /* \"@openzeppelin/contracts-upgradeable/proxy/utils/Initializable.sol\":9186:9213  _initializableStorageSlot() */\n      jump\t// in\n    tag_339:\n        /* \"@openzeppelin/contracts-upgradeable/proxy/utils/Initializable.sol\":9171:9213  bytes32 slot = _initializableStorageSlot() */\n      swap1\n      pop\n        /* \"@openzeppelin/contracts-upgradeable/proxy/utils/Initializable.sol\":9256:9260  slot */\n      dup1\n        /* \"@openzeppelin/contracts-upgradeable/proxy/utils/Initializable.sol\":9246:9260  $.slot := slot */\n      swap2\n      pop\n        /* \"@openzeppelin/contracts-upgradeable/proxy/utils/Initializable.sol\":9232:9270  {... */\n      pop\n        /* \"@openzeppelin/contracts-upgradeable/proxy/utils/Initializable.sol\":9071:9276  function _getInitializableStorage() private pure returns (InitializableStorage storage $) {... */\n      swap1\n      jump\t// out\n        /* \"@openzeppelin/contracts-upgradeable/utils/ContextUpgradeable.sol\":887:983  function _msgSender() internal view virtual returns (address) {... */\n    tag_254:\n        /* \"@openzeppelin/contracts-upgradeable/utils/ContextUpgradeable.sol\":940:947  address */\n      0x00\n        /* \"@openzeppelin/contracts-upgradeable/utils/ContextUpgradeable.sol\":966:976  msg.sender */\n      caller\n        /* \"@openzeppelin/contracts-upgradeable/utils/ContextUpgradeable.sol\":959:976  return msg.sender */\n      swap1\n      pop\n        /* \"@openzeppelin/contracts-upgradeable/utils/ContextUpgradeable.sol\":887:983  function _msgSender() internal view virtual returns (address) {... */\n      swap1\n      jump\t// out\n        /* \"@openzeppelin/contracts-upgradeable/access/OwnableUpgradeable.sol\":1980:2215  function __Ownable_init_unchained(address initialOwner) internal onlyInitializing {... */\n    tag_255:\n        /* \"@openzeppelin/contracts-upgradeable/proxy/utils/Initializable.sol\":6929:6949  _checkInitializing() */\n      tag_343\n        /* \"@openzeppelin/contracts-upgradeable/proxy/utils/Initializable.sol\":6929:6947  _checkInitializing */\n      tag_344\n        /* \"@openzeppelin/contracts-upgradeable/proxy/utils/Initializable.sol\":6929:6949  _checkInitializing() */\n      jump\t// in\n    tag_343:\n        /* \"@openzeppelin/contracts-upgradeable/access/OwnableUpgradeable.sol\":2100:2101  0 */\n      0x00\n        /* \"@openzeppelin/contracts-upgradeable/access/OwnableUpgradeable.sol\":2076:2102  initialOwner == address(0) */\n      0xffffffffffffffffffffffffffffffffffffffff\n      and\n        /* \"@openzeppelin/contracts-upgradeable/access/OwnableUpgradeable.sol\":2076:2088  initialOwner */\n      dup2\n        /* \"@openzeppelin/contracts-upgradeable/access/OwnableUpgradeable.sol\":2076:2102  initialOwner == address(0) */\n      0xffffffffffffffffffffffffffffffffffffffff\n      and\n      sub\n        /* \"@openzeppelin/contracts-upgradeable/access/OwnableUpgradeable.sol\":2072:2167  if (initialOwner == address(0)) {... */\n      tag_346\n      jumpi\n        /* \"@openzeppelin/contracts-upgradeable/access/OwnableUpgradeable.sol\":2153:2154  0 */\n      0x00\n        /* \"@openzeppelin/contracts-upgradeable/access/OwnableUpgradeable.sol\":2125:2156  OwnableInvalidOwner(address(0)) */\n      mload(0x40)\n      0x1e4fbdf700000000000000000000000000000000000000000000000000000000\n      dup2\n      mstore\n      0x04\n      add\n      tag_347\n      swap2\n      swap1\n      tag_38\n      jump\t// in\n    tag_347:\n      mload(0x40)\n      dup1\n      swap2\n      sub\n      swap1\n      revert\n        /* \"@openzeppelin/contracts-upgradeable/access/OwnableUpgradeable.sol\":2072:2167  if (initialOwner == address(0)) {... */\n    tag_346:\n        /* \"@openzeppelin/contracts-upgradeable/access/OwnableUpgradeable.sol\":2176:2208  _transferOwnership(initialOwner) */\n      tag_348\n        /* \"@openzeppelin/contracts-upgradeable/access/OwnableUpgradeable.sol\":2195:2207  initialOwner */\n      dup2\n        /* \"@openzeppelin/contracts-upgradeable/access/OwnableUpgradeable.sol\":2176:2194  _transferOwnership */\n      tag_213\n        /* \"@openzeppelin/contracts-upgradeable/access/OwnableUpgradeable.sol\":2176:2208  _transferOwnership(initialOwner) */\n      jump\t// in\n    tag_348:\n        /* \"@openzeppelin/contracts-upgradeable/access/OwnableUpgradeable.sol\":1980:2215  function __Ownable_init_unchained(address initialOwner) internal onlyInitializing {... */\n      pop\n      jump\t// out\n        /* \"@openzeppelin/contracts-upgradeable/proxy/utils/UUPSUpgradeable.sol\":3043:3120  function __UUPSUpgradeable_init_unchained() internal onlyInitializing {... */\n    tag_257:\n        /* \"@openzeppelin/contracts-upgradeable/proxy/utils/Initializable.sol\":6929:6949  _checkInitializing() */\n      tag_350\n        /* \"@openzeppelin/contracts-upgradeable/proxy/utils/Initializable.sol\":6929:6947  _checkInitializing */\n      tag_344\n        /* \"@openzeppelin/contracts-upgradeable/proxy/utils/Initializable.sol\":6929:6949  _checkInitializing() */\n      jump\t// in\n    tag_350:\n        /* \"@openzeppelin/contracts-upgradeable/proxy/utils/UUPSUpgradeable.sol\":3043:3120  function __UUPSUpgradeable_init_unchained() internal onlyInitializing {... */\n      jump\t// out\n        /* \"@openzeppelin/contracts/proxy/ERC1967/ERC1967Utils.sol\":1441:1579  function getImplementation() internal view returns (address) {... */\n    tag_264:\n        /* \"@openzeppelin/contracts/proxy/ERC1967/ERC1967Utils.sol\":1493:1500  address */\n      0x00\n        /* \"@openzeppelin/contracts/proxy/ERC1967/ERC1967Utils.sol\":1519:1566  StorageSlot.getAddressSlot(IMPLEMENTATION_SLOT) */\n      tag_353\n        /* \"@openzeppelin/contracts/proxy/ERC1967/ERC1967Utils.sol\":811:877  0x360894a13ba1a3210667c828492db98dca3e2076cc3735a920a3ca505d382bbc */\n      0x360894a13ba1a3210667c828492db98dca3e2076cc3735a920a3ca505d382bbc\n        /* \"@openzeppelin/contracts/proxy/ERC1967/ERC1967Utils.sol\":1546:1565  IMPLEMENTATION_SLOT */\n      0x00\n      shl\n        /* \"@openzeppelin/contracts/proxy/ERC1967/ERC1967Utils.sol\":1519:1545  StorageSlot.getAddressSlot */\n      tag_354\n        /* \"@openzeppelin/contracts/proxy/ERC1967/ERC1967Utils.sol\":1519:1566  StorageSlot.getAddressSlot(IMPLEMENTATION_SLOT) */\n      jump\t// in\n    tag_353:\n        /* \"@openzeppelin/contracts/proxy/ERC1967/ERC1967Utils.sol\":1519:1572  StorageSlot.getAddressSlot(IMPLEMENTATION_SLOT).value */\n      0x00\n      add\n      0x00\n      swap1\n      sload\n      swap1\n      0x0100\n      exp\n      swap1\n      div\n      0xffffffffffffffffffffffffffffffffffffffff\n      and\n        /* \"@openzeppelin/contracts/proxy/ERC1967/ERC1967Utils.sol\":1512:1572  return StorageSlot.getAddressSlot(IMPLEMENTATION_SLOT).value */\n      swap1\n      pop\n        /* \"@openzeppelin/contracts/proxy/ERC1967/ERC1967Utils.sol\":1441:1579  function getImplementation() internal view returns (address) {... */\n      swap1\n      jump\t// out\n        /* \"@openzeppelin/contracts/proxy/ERC1967/ERC1967Utils.sol\":2264:2608  function upgradeToAndCall(address newImplementation, bytes memory data) internal {... */\n    tag_282:\n        /* \"@openzeppelin/contracts/proxy/ERC1967/ERC1967Utils.sol\":2355:2392  _setImplementation(newImplementation) */\n      tag_356\n        /* \"@openzeppelin/contracts/proxy/ERC1967/ERC1967Utils.sol\":2374:2391  newImplementation */\n      dup3\n        /* \"@openzeppelin/contracts/proxy/ERC1967/ERC1967Utils.sol\":2355:2373  _setImplementation */\n      tag_357\n        /* \"@openzeppelin/contracts/proxy/ERC1967/ERC1967Utils.sol\":2355:2392  _setImplementation(newImplementation) */\n      jump\t// in\n    tag_356:\n        /* \"@openzeppelin/contracts/proxy/ERC1967/ERC1967Utils.sol\":2425:2442  newImplementation */\n      dup2\n        /* \"@openzeppelin/contracts/proxy/ERC1967/ERC1967Utils.sol\":2407:2443  IERC1967.Upgraded(newImplementation) */\n      0xffffffffffffffffffffffffffffffffffffffff\n      and\n      0xbc7cd75a20ee27fd9adebab32041f755214dbc6bffa90cc0225b39da2e5c2d3b\n      mload(0x40)\n      mload(0x40)\n      dup1\n      swap2\n      sub\n      swap1\n      log2\n        /* \"@openzeppelin/contracts/proxy/ERC1967/ERC1967Utils.sol\":2472:2473  0 */\n      0x00\n        /* \"@openzeppelin/contracts/proxy/ERC1967/ERC1967Utils.sol\":2458:2462  data */\n      dup2\n        /* \"@openzeppelin/contracts/proxy/ERC1967/ERC1967Utils.sol\":2458:2469  data.length */\n      mload\n        /* \"@openzeppelin/contracts/proxy/ERC1967/ERC1967Utils.sol\":2458:2473  data.length > 0 */\n      gt\n        /* \"@openzeppelin/contracts/proxy/ERC1967/ERC1967Utils.sol\":2454:2602  if (data.length > 0) {... */\n      iszero\n      tag_358\n      jumpi\n        /* \"@openzeppelin/contracts/proxy/ERC1967/ERC1967Utils.sol\":2489:2542  Address.functionDelegateCall(newImplementation, data) */\n      tag_359\n        /* \"@openzeppelin/contracts/proxy/ERC1967/ERC1967Utils.sol\":2518:2535  newImplementation */\n      dup3\n        /* \"@openzeppelin/contracts/proxy/ERC1967/ERC1967Utils.sol\":2537:2541  data */\n      dup3\n        /* \"@openzeppelin/contracts/proxy/ERC1967/ERC1967Utils.sol\":2489:2517  Address.functionDelegateCall */\n      tag_360\n        /* \"@openzeppelin/contracts/proxy/ERC1967/ERC1967Utils.sol\":2489:2542  Address.functionDelegateCall(newImplementation, data) */\n      jump\t// in\n    tag_359:\n      pop\n        /* \"@openzeppelin/contracts/proxy/ERC1967/ERC1967Utils.sol\":2454:2602  if (data.length > 0) {... */\n      jump(tag_361)\n    tag_358:\n        /* \"@openzeppelin/contracts/proxy/ERC1967/ERC1967Utils.sol\":2573:2591  _checkNonPayable() */\n      tag_362\n        /* \"@openzeppelin/contracts/proxy/ERC1967/ERC1967Utils.sol\":2573:2589  _checkNonPayable */\n      tag_363\n        /* \"@openzeppelin/contracts/proxy/ERC1967/ERC1967Utils.sol\":2573:2591  _checkNonPayable() */\n      jump\t// in\n    tag_362:\n        /* \"@openzeppelin/contracts/proxy/ERC1967/ERC1967Utils.sol\":2454:2602  if (data.length > 0) {... */\n    tag_361:\n        /* \"@openzeppelin/contracts/proxy/ERC1967/ERC1967Utils.sol\":2264:2608  function upgradeToAndCall(address newImplementation, bytes memory data) internal {... */\n      pop\n      pop\n      jump\t// out\n        /* \"library/TransferHelper.sol\":92:383  function safeTransfer(address token, address to, uint value) internal {... */\n    tag_310:\n        /* \"library/TransferHelper.sol\":173:185  bool success */\n      0x00\n        /* \"library/TransferHelper.sol\":187:204  bytes memory data */\n      dup1\n        /* \"library/TransferHelper.sol\":208:213  token */\n      dup5\n        /* \"library/TransferHelper.sol\":208:218  token.call */\n      0xffffffffffffffffffffffffffffffffffffffff\n      and\n        /* \"library/TransferHelper.sol\":242:252  0xa9059cbb */\n      0xa9059cbb\n        /* \"library/TransferHelper.sol\":254:256  to */\n      dup6\n        /* \"library/TransferHelper.sol\":258:263  value */\n      dup6\n        /* \"library/TransferHelper.sol\":219:264  abi.encodeWithSelector(0xa9059cbb, to, value) */\n      add(0x24, mload(0x40))\n      tag_365\n      swap3\n      swap2\n      swap1\n      tag_230\n      jump\t// in\n    tag_365:\n      mload(0x40)\n      0x20\n      dup2\n      dup4\n      sub\n      sub\n      dup2\n      mstore\n      swap1\n      0x40\n      mstore\n      swap1\n      0xe0\n      shl\n      0x20\n      dup3\n      add\n      dup1\n      mload\n      0xffffffffffffffffffffffffffffffffffffffffffffffffffffffff\n      dup4\n      dup2\n      dup4\n      and\n      or\n      dup4\n      mstore\n      pop\n      pop\n      pop\n      pop\n        /* \"library/TransferHelper.sol\":208:265  token.call(abi.encodeWithSelector(0xa9059cbb, to, value)) */\n      mload(0x40)\n      tag_366\n      swap2\n      swap1\n      tag_331\n      jump\t// in\n    tag_366:\n      0x00\n      mload(0x40)\n      dup1\n      dup4\n      sub\n      dup2\n      0x00\n      dup7\n      gas\n      call\n      swap2\n      pop\n      pop\n      returndatasize\n      dup1\n      0x00\n      dup2\n      eq\n      tag_369\n      jumpi\n      mload(0x40)\n      swap2\n      pop\n      and(add(returndatasize, 0x3f), not(0x1f))\n      dup3\n      add\n      0x40\n      mstore\n      returndatasize\n      dup3\n      mstore\n      returndatasize\n      0x00\n      0x20\n      dup5\n      add\n      returndatacopy\n      jump(tag_368)\n    tag_369:\n      0x60\n      swap2\n      pop\n    tag_368:\n      pop\n        /* \"library/TransferHelper.sol\":172:265  (bool success, bytes memory data) = token.call(abi.encodeWithSelector(0xa9059cbb, to, value)) */\n      swap2\n      pop\n      swap2\n      pop\n        /* \"library/TransferHelper.sol\":283:290  success */\n      dup2\n        /* \"library/TransferHelper.sol\":283:340  success && (data.length == 0 || abi.decode(data, (bool))) */\n      dup1\n      iszero\n      tag_370\n      jumpi\n      pop\n        /* \"library/TransferHelper.sol\":310:311  0 */\n      0x00\n        /* \"library/TransferHelper.sol\":295:299  data */\n      dup2\n        /* \"library/TransferHelper.sol\":295:306  data.length */\n      mload\n        /* \"library/TransferHelper.sol\":295:311  data.length == 0 */\n      eq\n        /* \"library/TransferHelper.sol\":295:339  data.length == 0 || abi.decode(data, (bool)) */\n      dup1\n      tag_371\n      jumpi\n      pop\n        /* \"library/TransferHelper.sol\":326:330  data */\n      dup1\n        /* \"library/TransferHelper.sol\":315:339  abi.decode(data, (bool)) */\n      dup1\n      0x20\n      add\n      swap1\n      mload\n      dup2\n      add\n      swap1\n      tag_372\n      swap2\n      swap1\n      tag_292\n      jump\t// in\n    tag_372:\n        /* \"library/TransferHelper.sol\":295:339  data.length == 0 || abi.decode(data, (bool)) */\n    tag_371:\n        /* \"library/TransferHelper.sol\":283:340  success && (data.length == 0 || abi.decode(data, (bool))) */\n    tag_370:\n        /* \"library/TransferHelper.sol\":275:376  require(success && (data.length == 0 || abi.decode(data, (bool))), 'TransferHelper: TRANSFER_FAILED') */\n      tag_373\n      jumpi\n      mload(0x40)\n      0x08c379a000000000000000000000000000000000000000000000000000000000\n      dup2\n      mstore\n      0x04\n      add\n      tag_374\n      swap1\n      tag_375\n      jump\t// in\n    tag_374:\n      mload(0x40)\n      dup1\n      swap2\n      sub\n      swap1\n      revert\n    tag_373:\n        /* \"library/TransferHelper.sol\":162:383  {... */\n      pop\n      pop\n        /* \"library/TransferHelper.sol\":92:383  function safeTransfer(address token, address to, uint value) internal {... */\n      pop\n      pop\n      pop\n      jump\t// out\n        /* \"@openzeppelin/contracts-upgradeable/proxy/utils/Initializable.sol\":8819:8941  function _initializableStorageSlot() internal pure virtual returns (bytes32) {... */\n    tag_340:\n        /* \"@openzeppelin/contracts-upgradeable/proxy/utils/Initializable.sol\":8887:8894  bytes32 */\n      0x00\n        /* \"@openzeppelin/contracts-upgradeable/proxy/utils/Initializable.sol\":3147:3213  0xf0c57e16840df040f15088dc2f81fe391c3923bec73e23a9662efc9c229c6a00 */\n      0xf0c57e16840df040f15088dc2f81fe391c3923bec73e23a9662efc9c229c6a00\n        /* \"@openzeppelin/contracts-upgradeable/proxy/utils/Initializable.sol\":8913:8934  INITIALIZABLE_STORAGE */\n      0x00\n      shl\n        /* \"@openzeppelin/contracts-upgradeable/proxy/utils/Initializable.sol\":8906:8934  return INITIALIZABLE_STORAGE */\n      swap1\n      pop\n        /* \"@openzeppelin/contracts-upgradeable/proxy/utils/Initializable.sol\":8819:8941  function _initializableStorageSlot() internal pure virtual returns (bytes32) {... */\n      swap1\n      jump\t// out\n        /* \"@openzeppelin/contracts-upgradeable/proxy/utils/Initializable.sol\":7082:7223  function _checkInitializing() internal view virtual {... */\n    tag_344:\n        /* \"@openzeppelin/contracts-upgradeable/proxy/utils/Initializable.sol\":7149:7166  _isInitializing() */\n      tag_378\n        /* \"@openzeppelin/contracts-upgradeable/proxy/utils/Initializable.sol\":7149:7164  _isInitializing */\n      tag_379\n        /* \"@openzeppelin/contracts-upgradeable/proxy/utils/Initializable.sol\":7149:7166  _isInitializing() */\n      jump\t// in\n    tag_378:\n        /* \"@openzeppelin/contracts-upgradeable/proxy/utils/Initializable.sol\":7144:7217  if (!_isInitializing()) {... */\n      tag_380\n      jumpi\n        /* \"@openzeppelin/contracts-upgradeable/proxy/utils/Initializable.sol\":7189:7206  NotInitializing() */\n      mload(0x40)\n      0xd7e6bcf800000000000000000000000000000000000000000000000000000000\n      dup2\n      mstore\n      0x04\n      add\n      mload(0x40)\n      dup1\n      swap2\n      sub\n      swap1\n      revert\n        /* \"@openzeppelin/contracts-upgradeable/proxy/utils/Initializable.sol\":7144:7217  if (!_isInitializing()) {... */\n    tag_380:\n        /* \"@openzeppelin/contracts-upgradeable/proxy/utils/Initializable.sol\":7082:7223  function _checkInitializing() internal view virtual {... */\n      jump\t// out\n        /* \"@openzeppelin/contracts/utils/StorageSlot.sol\":1899:2062  function getAddressSlot(bytes32 slot) internal pure returns (AddressSlot storage r) {... */\n    tag_354:\n        /* \"@openzeppelin/contracts/utils/StorageSlot.sol\":1960:1981  AddressSlot storage r */\n      0x00\n        /* \"@openzeppelin/contracts/utils/StorageSlot.sol\":2042:2046  slot */\n      dup2\n        /* \"@openzeppelin/contracts/utils/StorageSlot.sol\":2032:2046  r.slot := slot */\n      swap1\n      pop\n        /* \"@openzeppelin/contracts/utils/StorageSlot.sol\":1899:2062  function getAddressSlot(bytes32 slot) internal pure returns (AddressSlot storage r) {... */\n      swap2\n      swap1\n      pop\n      jump\t// out\n        /* \"@openzeppelin/contracts/proxy/ERC1967/ERC1967Utils.sol\":1671:1952  function _setImplementation(address newImplementation) private {... */\n    tag_357:\n        /* \"@openzeppelin/contracts/proxy/ERC1967/ERC1967Utils.sol\":1781:1782  0 */\n      0x00\n        /* \"@openzeppelin/contracts/proxy/ERC1967/ERC1967Utils.sol\":1748:1765  newImplementation */\n      dup2\n        /* \"@openzeppelin/contracts/proxy/ERC1967/ERC1967Utils.sol\":1748:1777  newImplementation.code.length */\n      0xffffffffffffffffffffffffffffffffffffffff\n      and\n      extcodesize\n        /* \"@openzeppelin/contracts/proxy/ERC1967/ERC1967Utils.sol\":1748:1782  newImplementation.code.length == 0 */\n      sub\n        /* \"@openzeppelin/contracts/proxy/ERC1967/ERC1967Utils.sol\":1744:1863  if (newImplementation.code.length == 0) {... */\n      tag_383\n      jumpi\n        /* \"@openzeppelin/contracts/proxy/ERC1967/ERC1967Utils.sol\":1834:1851  newImplementation */\n      dup1\n        /* \"@openzeppelin/contracts/proxy/ERC1967/ERC1967Utils.sol\":1805:1852  ERC1967InvalidImplementation(newImplementation) */\n      mload(0x40)\n      0x4c9c8ce300000000000000000000000000000000000000000000000000000000\n      dup2\n      mstore\n      0x04\n      add\n      tag_384\n      swap2\n      swap1\n      tag_38\n      jump\t// in\n    tag_384:\n      mload(0x40)\n      dup1\n      swap2\n      sub\n      swap1\n      revert\n        /* \"@openzeppelin/contracts/proxy/ERC1967/ERC1967Utils.sol\":1744:1863  if (newImplementation.code.length == 0) {... */\n    tag_383:\n        /* \"@openzeppelin/contracts/proxy/ERC1967/ERC1967Utils.sol\":1928:1945  newImplementation */\n      dup1\n        /* \"@openzeppelin/contracts/proxy/ERC1967/ERC1967Utils.sol\":1872:1919  StorageSlot.getAddressSlot(IMPLEMENTATION_SLOT) */\n      tag_385\n        /* \"@openzeppelin/contracts/proxy/ERC1967/ERC1967Utils.sol\":811:877  0x360894a13ba1a3210667c828492db98dca3e2076cc3735a920a3ca505d382bbc */\n      0x360894a13ba1a3210667c828492db98dca3e2076cc3735a920a3ca505d382bbc\n        /* \"@openzeppelin/contracts/proxy/ERC1967/ERC1967Utils.sol\":1899:1918  IMPLEMENTATION_SLOT */\n      0x00\n      shl\n        /* \"@openzeppelin/contracts/proxy/ERC1967/ERC1967Utils.sol\":1872:1898  StorageSlot.getAddressSlot */\n      tag_354\n        /* \"@openzeppelin/contracts/proxy/ERC1967/ERC1967Utils.sol\":1872:1919  StorageSlot.getAddressSlot(IMPLEMENTATION_SLOT) */\n      jump\t// in\n    tag_385:\n        /* \"@openzeppelin/contracts/proxy/ERC1967/ERC1967Utils.sol\":1872:1925  StorageSlot.getAddressSlot(IMPLEMENTATION_SLOT).value */\n      0x00\n      add\n      0x00\n        /* \"@openzeppelin/contracts/proxy/ERC1967/ERC1967Utils.sol\":1872:1945  StorageSlot.getAddressSlot(IMPLEMENTATION_SLOT).value = newImplementation */\n      0x0100\n      exp\n      dup2\n      sload\n      dup2\n      0xffffffffffffffffffffffffffffffffffffffff\n      mul\n      not\n      and\n      swap1\n      dup4\n      0xffffffffffffffffffffffffffffffffffffffff\n      and\n      mul\n      or\n      swap1\n      sstore\n      pop\n        /* \"@openzeppelin/contracts/proxy/ERC1967/ERC1967Utils.sol\":1671:1952  function _setImplementation(address newImplementation) private {... */\n      pop\n      jump\t// out\n        /* \"@openzeppelin/contracts/utils/Address.sol\":3916:4169  function functionDelegateCall(address target, bytes memory data) internal returns (bytes memory) {... */\n    tag_360:\n        /* \"@openzeppelin/contracts/utils/Address.sol\":3999:4011  bytes memory */\n      0x60\n        /* \"@openzeppelin/contracts/utils/Address.sol\":4024:4036  bool success */\n      0x00\n        /* \"@openzeppelin/contracts/utils/Address.sol\":4038:4061  bytes memory returndata */\n      dup1\n        /* \"@openzeppelin/contracts/utils/Address.sol\":4065:4071  target */\n      dup5\n        /* \"@openzeppelin/contracts/utils/Address.sol\":4065:4084  target.delegatecall */\n      0xffffffffffffffffffffffffffffffffffffffff\n      and\n        /* \"@openzeppelin/contracts/utils/Address.sol\":4085:4089  data */\n      dup5\n        /* \"@openzeppelin/contracts/utils/Address.sol\":4065:4090  target.delegatecall(data) */\n      mload(0x40)\n      tag_387\n      swap2\n      swap1\n      tag_331\n      jump\t// in\n    tag_387:\n      0x00\n      mload(0x40)\n      dup1\n      dup4\n      sub\n      dup2\n      dup6\n      gas\n      delegatecall\n      swap2\n      pop\n      pop\n      returndatasize\n      dup1\n      0x00\n      dup2\n      eq\n      tag_390\n      jumpi\n      mload(0x40)\n      swap2\n      pop\n      and(add(returndatasize, 0x3f), not(0x1f))\n      dup3\n      add\n      0x40\n      mstore\n      returndatasize\n      dup3\n      mstore\n      returndatasize\n      0x00\n      0x20\n      dup5\n      add\n      returndatacopy\n      jump(tag_389)\n    tag_390:\n      0x60\n      swap2\n      pop\n    tag_389:\n      pop\n        /* \"@openzeppelin/contracts/utils/Address.sol\":4023:4090  (bool success, bytes memory returndata) = target.delegatecall(data) */\n      swap2\n      pop\n      swap2\n      pop\n        /* \"@openzeppelin/contracts/utils/Address.sol\":4107:4162  verifyCallResultFromTarget(target, success, returndata) */\n      tag_391\n        /* \"@openzeppelin/contracts/utils/Address.sol\":4134:4140  target */\n      dup6\n        /* \"@openzeppelin/contracts/utils/Address.sol\":4142:4149  success */\n      dup4\n        /* \"@openzeppelin/contracts/utils/Address.sol\":4151:4161  returndata */\n      dup4\n        /* \"@openzeppelin/contracts/utils/Address.sol\":4107:4133  verifyCallResultFromTarget */\n      tag_392\n        /* \"@openzeppelin/contracts/utils/Address.sol\":4107:4162  verifyCallResultFromTarget(target, success, returndata) */\n      jump\t// in\n    tag_391:\n        /* \"@openzeppelin/contracts/utils/Address.sol\":4100:4162  return verifyCallResultFromTarget(target, success, returndata) */\n      swap3\n      pop\n      pop\n      pop\n        /* \"@openzeppelin/contracts/utils/Address.sol\":3916:4169  function functionDelegateCall(address target, bytes memory data) internal returns (bytes memory) {... */\n      swap3\n      swap2\n      pop\n      pop\n      jump\t// out\n        /* \"@openzeppelin/contracts/proxy/ERC1967/ERC1967Utils.sol\":6113:6235  function _checkNonPayable() private {... */\n    tag_363:\n        /* \"@openzeppelin/contracts/proxy/ERC1967/ERC1967Utils.sol\":6175:6176  0 */\n      0x00\n        /* \"@openzeppelin/contracts/proxy/ERC1967/ERC1967Utils.sol\":6163:6172  msg.value */\n      callvalue\n        /* \"@openzeppelin/contracts/proxy/ERC1967/ERC1967Utils.sol\":6163:6176  msg.value > 0 */\n      gt\n        /* \"@openzeppelin/contracts/proxy/ERC1967/ERC1967Utils.sol\":6159:6229  if (msg.value > 0) {... */\n      iszero\n      tag_394\n      jumpi\n        /* \"@openzeppelin/contracts/proxy/ERC1967/ERC1967Utils.sol\":6199:6218  ERC1967NonPayable() */\n      mload(0x40)\n      0xb398979f00000000000000000000000000000000000000000000000000000000\n      dup2\n      mstore\n      0x04\n      add\n      mload(0x40)\n      dup1\n      swap2\n      sub\n      swap1\n      revert\n        /* \"@openzeppelin/contracts/proxy/ERC1967/ERC1967Utils.sol\":6159:6229  if (msg.value > 0) {... */\n    tag_394:\n        /* \"@openzeppelin/contracts/proxy/ERC1967/ERC1967Utils.sol\":6113:6235  function _checkNonPayable() private {... */\n      jump\t// out\n        /* \"@openzeppelin/contracts-upgradeable/proxy/utils/Initializable.sol\":8485:8605  function _isInitializing() internal view returns (bool) {... */\n    tag_379:\n        /* \"@openzeppelin/contracts-upgradeable/proxy/utils/Initializable.sol\":8535:8539  bool */\n      0x00\n        /* \"@openzeppelin/contracts-upgradeable/proxy/utils/Initializable.sol\":8558:8584  _getInitializableStorage() */\n      tag_396\n        /* \"@openzeppelin/contracts-upgradeable/proxy/utils/Initializable.sol\":8558:8582  _getInitializableStorage */\n      tag_245\n        /* \"@openzeppelin/contracts-upgradeable/proxy/utils/Initializable.sol\":8558:8584  _getInitializableStorage() */\n      jump\t// in\n    tag_396:\n        /* \"@openzeppelin/contracts-upgradeable/proxy/utils/Initializable.sol\":8558:8598  _getInitializableStorage()._initializing */\n      0x00\n      add\n      0x08\n      swap1\n      sload\n      swap1\n      0x0100\n      exp\n      swap1\n      div\n      0xff\n      and\n        /* \"@openzeppelin/contracts-upgradeable/proxy/utils/Initializable.sol\":8551:8598  return _getInitializableStorage()._initializing */\n      swap1\n      pop\n        /* \"@openzeppelin/contracts-upgradeable/proxy/utils/Initializable.sol\":8485:8605  function _isInitializing() internal view returns (bool) {... */\n      swap1\n      jump\t// out\n        /* \"@openzeppelin/contracts/utils/Address.sol\":4437:5019  function verifyCallResultFromTarget(... */\n    tag_392:\n        /* \"@openzeppelin/contracts/utils/Address.sol\":4581:4593  bytes memory */\n      0x60\n        /* \"@openzeppelin/contracts/utils/Address.sol\":4610:4617  success */\n      dup3\n        /* \"@openzeppelin/contracts/utils/Address.sol\":4605:5013  if (!success) {... */\n      tag_398\n      jumpi\n        /* \"@openzeppelin/contracts/utils/Address.sol\":4633:4652  _revert(returndata) */\n      tag_399\n        /* \"@openzeppelin/contracts/utils/Address.sol\":4641:4651  returndata */\n      dup3\n        /* \"@openzeppelin/contracts/utils/Address.sol\":4633:4640  _revert */\n      tag_400\n        /* \"@openzeppelin/contracts/utils/Address.sol\":4633:4652  _revert(returndata) */\n      jump\t// in\n    tag_399:\n        /* \"@openzeppelin/contracts/utils/Address.sol\":4605:5013  if (!success) {... */\n      jump(tag_401)\n    tag_398:\n        /* \"@openzeppelin/contracts/utils/Address.sol\":4878:4879  0 */\n      0x00\n        /* \"@openzeppelin/contracts/utils/Address.sol\":4857:4867  returndata */\n      dup3\n        /* \"@openzeppelin/contracts/utils/Address.sol\":4857:4874  returndata.length */\n      mload\n        /* \"@openzeppelin/contracts/utils/Address.sol\":4857:4879  returndata.length == 0 */\n      eq\n        /* \"@openzeppelin/contracts/utils/Address.sol\":4857:4906  returndata.length == 0 && target.code.length == 0 */\n      dup1\n      iszero\n      tag_402\n      jumpi\n      pop\n        /* \"@openzeppelin/contracts/utils/Address.sol\":4905:4906  0 */\n      0x00\n        /* \"@openzeppelin/contracts/utils/Address.sol\":4883:4889  target */\n      dup5\n        /* \"@openzeppelin/contracts/utils/Address.sol\":4883:4901  target.code.length */\n      0xffffffffffffffffffffffffffffffffffffffff\n      and\n      extcodesize\n        /* \"@openzeppelin/contracts/utils/Address.sol\":4883:4906  target.code.length == 0 */\n      eq\n        /* \"@openzeppelin/contracts/utils/Address.sol\":4857:4906  returndata.length == 0 && target.code.length == 0 */\n    tag_402:\n        /* \"@openzeppelin/contracts/utils/Address.sol\":4853:4972  if (returndata.length == 0 && target.code.length == 0) {... */\n      iszero\n      tag_403\n      jumpi\n        /* \"@openzeppelin/contracts/utils/Address.sol\":4950:4956  target */\n      dup4\n        /* \"@openzeppelin/contracts/utils/Address.sol\":4933:4957  AddressEmptyCode(target) */\n      mload(0x40)\n      0x9996b31500000000000000000000000000000000000000000000000000000000\n      dup2\n      mstore\n      0x04\n      add\n      tag_404\n      swap2\n      swap1\n      tag_38\n      jump\t// in\n    tag_404:\n      mload(0x40)\n      dup1\n      swap2\n      sub\n      swap1\n      revert\n        /* \"@openzeppelin/contracts/utils/Address.sol\":4853:4972  if (returndata.length == 0 && target.code.length == 0) {... */\n    tag_403:\n        /* \"@openzeppelin/contracts/utils/Address.sol\":4992:5002  returndata */\n      dup2\n        /* \"@openzeppelin/contracts/utils/Address.sol\":4985:5002  return returndata */\n      swap1\n      pop\n      jump(tag_397)\n        /* \"@openzeppelin/contracts/utils/Address.sol\":4605:5013  if (!success) {... */\n    tag_401:\n        /* \"@openzeppelin/contracts/utils/Address.sol\":4437:5019  function verifyCallResultFromTarget(... */\n    tag_397:\n      swap4\n      swap3\n      pop\n      pop\n      pop\n      jump\t// out\n        /* \"@openzeppelin/contracts/utils/Address.sol\":5559:6046  function _revert(bytes memory returndata) private pure {... */\n    tag_400:\n        /* \"@openzeppelin/contracts/utils/Address.sol\":5710:5711  0 */\n      0x00\n        /* \"@openzeppelin/contracts/utils/Address.sol\":5690:5700  returndata */\n      dup2\n        /* \"@openzeppelin/contracts/utils/Address.sol\":5690:5707  returndata.length */\n      mload\n        /* \"@openzeppelin/contracts/utils/Address.sol\":5690:5711  returndata.length > 0 */\n      gt\n        /* \"@openzeppelin/contracts/utils/Address.sol\":5686:6040  if (returndata.length > 0) {... */\n      iszero\n      tag_406\n      jumpi\n        /* \"@openzeppelin/contracts/utils/Address.sol\":5887:5897  returndata */\n      dup1\n        /* \"@openzeppelin/contracts/utils/Address.sol\":5881:5898  mload(returndata) */\n      mload\n        /* \"@openzeppelin/contracts/utils/Address.sol\":5943:5958  returndata_size */\n      dup1\n        /* \"@openzeppelin/contracts/utils/Address.sol\":5930:5940  returndata */\n      dup3\n        /* \"@openzeppelin/contracts/utils/Address.sol\":5926:5928  32 */\n      0x20\n        /* \"@openzeppelin/contracts/utils/Address.sol\":5922:5941  add(32, returndata) */\n      add\n        /* \"@openzeppelin/contracts/utils/Address.sol\":5915:5959  revert(add(32, returndata), returndata_size) */\n      revert\n        /* \"@openzeppelin/contracts/utils/Address.sol\":5686:6040  if (returndata.length > 0) {... */\n    tag_406:\n        /* \"@openzeppelin/contracts/utils/Address.sol\":6010:6029  Errors.FailedCall() */\n      mload(0x40)\n      0xd6bda27500000000000000000000000000000000000000000000000000000000\n      dup2\n      mstore\n      0x04\n      add\n      mload(0x40)\n      dup1\n      swap2\n      sub\n      swap1\n      revert\n        /* \"#utility.yul\":7:133   */\n    tag_408:\n        /* \"#utility.yul\":44:51   */\n      0x00\n        /* \"#utility.yul\":84:126   */\n      0xffffffffffffffffffffffffffffffffffffffff\n        /* \"#utility.yul\":77:82   */\n      dup3\n        /* \"#utility.yul\":73:127   */\n      and\n        /* \"#utility.yul\":62:127   */\n      swap1\n      pop\n        /* \"#utility.yul\":7:133   */\n      swap2\n      swap1\n      pop\n      jump\t// out\n        /* \"#utility.yul\":139:235   */\n    tag_409:\n        /* \"#utility.yul\":176:183   */\n      0x00\n        /* \"#utility.yul\":205:229   */\n      tag_483\n        /* \"#utility.yul\":223:228   */\n      dup3\n        /* \"#utility.yul\":205:229   */\n      tag_408\n      jump\t// in\n    tag_483:\n        /* \"#utility.yul\":194:229   */\n      swap1\n      pop\n        /* \"#utility.yul\":139:235   */\n      swap2\n      swap1\n      pop\n      jump\t// out\n        /* \"#utility.yul\":241:359   */\n    tag_410:\n        /* \"#utility.yul\":328:352   */\n      tag_485\n        /* \"#utility.yul\":346:351   */\n      dup2\n        /* \"#utility.yul\":328:352   */\n      tag_409\n      jump\t// in\n    tag_485:\n        /* \"#utility.yul\":323:326   */\n      dup3\n        /* \"#utility.yul\":316:353   */\n      mstore\n        /* \"#utility.yul\":241:359   */\n      pop\n      pop\n      jump\t// out\n        /* \"#utility.yul\":365:587   */\n    tag_38:\n        /* \"#utility.yul\":458:462   */\n      0x00\n        /* \"#utility.yul\":496:498   */\n      0x20\n        /* \"#utility.yul\":485:494   */\n      dup3\n        /* \"#utility.yul\":481:499   */\n      add\n        /* \"#utility.yul\":473:499   */\n      swap1\n      pop\n        /* \"#utility.yul\":509:580   */\n      tag_487\n        /* \"#utility.yul\":577:578   */\n      0x00\n        /* \"#utility.yul\":566:575   */\n      dup4\n        /* \"#utility.yul\":562:579   */\n      add\n        /* \"#utility.yul\":553:559   */\n      dup5\n        /* \"#utility.yul\":509:580   */\n      tag_410\n      jump\t// in\n    tag_487:\n        /* \"#utility.yul\":365:587   */\n      swap3\n      swap2\n      pop\n      pop\n      jump\t// out\n        /* \"#utility.yul\":593:668   */\n    tag_411:\n        /* \"#utility.yul\":626:632   */\n      0x00\n        /* \"#utility.yul\":659:661   */\n      0x40\n        /* \"#utility.yul\":653:662   */\n      mload\n        /* \"#utility.yul\":643:662   */\n      swap1\n      pop\n        /* \"#utility.yul\":593:668   */\n      swap1\n      jump\t// out\n        /* \"#utility.yul\":674:791   */\n    tag_412:\n        /* \"#utility.yul\":783:784   */\n      0x00\n        /* \"#utility.yul\":780:781   */\n      dup1\n        /* \"#utility.yul\":773:785   */\n      revert\n        /* \"#utility.yul\":797:914   */\n    tag_413:\n        /* \"#utility.yul\":906:907   */\n      0x00\n        /* \"#utility.yul\":903:904   */\n      dup1\n        /* \"#utility.yul\":896:908   */\n      revert\n        /* \"#utility.yul\":920:1042   */\n    tag_414:\n        /* \"#utility.yul\":993:1017   */\n      tag_492\n        /* \"#utility.yul\":1011:1016   */\n      dup2\n        /* \"#utility.yul\":993:1017   */\n      tag_409\n      jump\t// in\n    tag_492:\n        /* \"#utility.yul\":986:991   */\n      dup2\n        /* \"#utility.yul\":983:1018   */\n      eq\n        /* \"#utility.yul\":973:1036   */\n      tag_493\n      jumpi\n        /* \"#utility.yul\":1032:1033   */\n      0x00\n        /* \"#utility.yul\":1029:1030   */\n      dup1\n        /* \"#utility.yul\":1022:1034   */\n      revert\n        /* \"#utility.yul\":973:1036   */\n    tag_493:\n        /* \"#utility.yul\":920:1042   */\n      pop\n      jump\t// out\n        /* \"#utility.yul\":1048:1187   */\n    tag_415:\n        /* \"#utility.yul\":1094:1099   */\n      0x00\n        /* \"#utility.yul\":1132:1138   */\n      dup2\n        /* \"#utility.yul\":1119:1139   */\n      calldataload\n        /* \"#utility.yul\":1110:1139   */\n      swap1\n      pop\n        /* \"#utility.yul\":1148:1181   */\n      tag_495\n        /* \"#utility.yul\":1175:1180   */\n      dup2\n        /* \"#utility.yul\":1148:1181   */\n      tag_414\n      jump\t// in\n    tag_495:\n        /* \"#utility.yul\":1048:1187   */\n      swap3\n      swap2\n      pop\n      pop\n      jump\t// out\n        /* \"#utility.yul\":1193:1522   */\n    tag_46:\n        /* \"#utility.yul\":1252:1258   */\n      0x00\n        /* \"#utility.yul\":1301:1303   */\n      0x20\n        /* \"#utility.yul\":1289:1298   */\n      dup3\n        /* \"#utility.yul\":1280:1287   */\n      dup5\n        /* \"#utility.yul\":1276:1299   */\n      sub\n        /* \"#utility.yul\":1272:1304   */\n      slt\n        /* \"#utility.yul\":1269:1388   */\n      iszero\n      tag_497\n      jumpi\n        /* \"#utility.yul\":1307:1386   */\n      tag_498\n      tag_412\n      jump\t// in\n    tag_498:\n        /* \"#utility.yul\":1269:1388   */\n    tag_497:\n        /* \"#utility.yul\":1427:1428   */\n      0x00\n        /* \"#utility.yul\":1452:1505   */\n      tag_499\n        /* \"#utility.yul\":1497:1504   */\n      dup5\n        /* \"#utility.yul\":1488:1494   */\n      dup3\n        /* \"#utility.yul\":1477:1486   */\n      dup6\n        /* \"#utility.yul\":1473:1495   */\n      add\n        /* \"#utility.yul\":1452:1505   */\n      tag_415\n      jump\t// in\n    tag_499:\n        /* \"#utility.yul\":1442:1505   */\n      swap2\n      pop\n        /* \"#utility.yul\":1398:1515   */\n      pop\n        /* \"#utility.yul\":1193:1522   */\n      swap3\n      swap2\n      pop\n      pop\n      jump\t// out\n        /* \"#utility.yul\":1528:1605   */\n    tag_416:\n        /* \"#utility.yul\":1565:1572   */\n      0x00\n        /* \"#utility.yul\":1594:1599   */\n      dup2\n        /* \"#utility.yul\":1583:1599   */\n      swap1\n      pop\n        /* \"#utility.yul\":1528:1605   */\n      swap2\n      swap1\n      pop\n      jump\t// out\n        /* \"#utility.yul\":1611:1729   */\n    tag_417:\n        /* \"#utility.yul\":1698:1722   */\n      tag_502\n        /* \"#utility.yul\":1716:1721   */\n      dup2\n        /* \"#utility.yul\":1698:1722   */\n      tag_416\n      jump\t// in\n    tag_502:\n        /* \"#utility.yul\":1693:1696   */\n      dup3\n        /* \"#utility.yul\":1686:1723   */\n      mstore\n        /* \"#utility.yul\":1611:1729   */\n      pop\n      pop\n      jump\t// out\n        /* \"#utility.yul\":1735:1957   */\n    tag_49:\n        /* \"#utility.yul\":1828:1832   */\n      0x00\n        /* \"#utility.yul\":1866:1868   */\n      0x20\n        /* \"#utility.yul\":1855:1864   */\n      dup3\n        /* \"#utility.yul\":1851:1869   */\n      add\n        /* \"#utility.yul\":1843:1869   */\n      swap1\n      pop\n        /* \"#utility.yul\":1879:1950   */\n      tag_504\n        /* \"#utility.yul\":1947:1948   */\n      0x00\n        /* \"#utility.yul\":1936:1945   */\n      dup4\n        /* \"#utility.yul\":1932:1949   */\n      add\n        /* \"#utility.yul\":1923:1929   */\n      dup5\n        /* \"#utility.yul\":1879:1950   */\n      tag_417\n      jump\t// in\n    tag_504:\n        /* \"#utility.yul\":1735:1957   */\n      swap3\n      swap2\n      pop\n      pop\n      jump\t// out\n        /* \"#utility.yul\":1963:2080   */\n    tag_418:\n        /* \"#utility.yul\":2072:2073   */\n      0x00\n        /* \"#utility.yul\":2069:2070   */\n      dup1\n        /* \"#utility.yul\":2062:2074   */\n      revert\n        /* \"#utility.yul\":2086:2203   */\n    tag_419:\n        /* \"#utility.yul\":2195:2196   */\n      0x00\n        /* \"#utility.yul\":2192:2193   */\n      dup1\n        /* \"#utility.yul\":2185:2197   */\n      revert\n        /* \"#utility.yul\":2209:2311   */\n    tag_420:\n        /* \"#utility.yul\":2250:2256   */\n      0x00\n        /* \"#utility.yul\":2301:2303   */\n      0x1f\n        /* \"#utility.yul\":2297:2304   */\n      not\n        /* \"#utility.yul\":2292:2294   */\n      0x1f\n        /* \"#utility.yul\":2285:2290   */\n      dup4\n        /* \"#utility.yul\":2281:2295   */\n      add\n        /* \"#utility.yul\":2277:2305   */\n      and\n        /* \"#utility.yul\":2267:2305   */\n      swap1\n      pop\n        /* \"#utility.yul\":2209:2311   */\n      swap2\n      swap1\n      pop\n      jump\t// out\n        /* \"#utility.yul\":2317:2497   */\n    tag_328:\n        /* \"#utility.yul\":2365:2442   */\n      0x4e487b7100000000000000000000000000000000000000000000000000000000\n        /* \"#utility.yul\":2362:2363   */\n      0x00\n        /* \"#utility.yul\":2355:2443   */\n      mstore\n        /* \"#utility.yul\":2462:2466   */\n      0x41\n        /* \"#utility.yul\":2459:2460   */\n      0x04\n        /* \"#utility.yul\":2452:2467   */\n      mstore\n        /* \"#utility.yul\":2486:2490   */\n      0x24\n        /* \"#utility.yul\":2483:2484   */\n      0x00\n        /* \"#utility.yul\":2476:2491   */\n      revert\n        /* \"#utility.yul\":2503:2784   */\n    tag_421:\n        /* \"#utility.yul\":2586:2613   */\n      tag_510\n        /* \"#utility.yul\":2608:2612   */\n      dup3\n        /* \"#utility.yul\":2586:2613   */\n      tag_420\n      jump\t// in\n    tag_510:\n        /* \"#utility.yul\":2578:2584   */\n      dup2\n        /* \"#utility.yul\":2574:2614   */\n      add\n        /* \"#utility.yul\":2716:2722   */\n      dup2\n        /* \"#utility.yul\":2704:2714   */\n      dup2\n        /* \"#utility.yul\":2701:2723   */\n      lt\n        /* \"#utility.yul\":2680:2698   */\n      0xffffffffffffffff\n        /* \"#utility.yul\":2668:2678   */\n      dup3\n        /* \"#utility.yul\":2665:2699   */\n      gt\n        /* \"#utility.yul\":2662:2724   */\n      or\n        /* \"#utility.yul\":2659:2747   */\n      iszero\n      tag_511\n      jumpi\n        /* \"#utility.yul\":2727:2745   */\n      tag_512\n      tag_328\n      jump\t// in\n    tag_512:\n        /* \"#utility.yul\":2659:2747   */\n    tag_511:\n        /* \"#utility.yul\":2767:2777   */\n      dup1\n        /* \"#utility.yul\":2763:2765   */\n      0x40\n        /* \"#utility.yul\":2756:2778   */\n      mstore\n        /* \"#utility.yul\":2546:2784   */\n      pop\n        /* \"#utility.yul\":2503:2784   */\n      pop\n      pop\n      jump\t// out\n        /* \"#utility.yul\":2790:2919   */\n    tag_422:\n        /* \"#utility.yul\":2824:2830   */\n      0x00\n        /* \"#utility.yul\":2851:2871   */\n      tag_514\n      tag_411\n      jump\t// in\n    tag_514:\n        /* \"#utility.yul\":2841:2871   */\n      swap1\n      pop\n        /* \"#utility.yul\":2880:2913   */\n      tag_515\n        /* \"#utility.yul\":2908:2912   */\n      dup3\n        /* \"#utility.yul\":2900:2906   */\n      dup3\n        /* \"#utility.yul\":2880:2913   */\n      tag_421\n      jump\t// in\n    tag_515:\n        /* \"#utility.yul\":2790:2919   */\n      swap2\n      swap1\n      pop\n      jump\t// out\n        /* \"#utility.yul\":2925:3232   */\n    tag_423:\n        /* \"#utility.yul\":2986:2990   */\n      0x00\n        /* \"#utility.yul\":3076:3094   */\n      0xffffffffffffffff\n        /* \"#utility.yul\":3068:3074   */\n      dup3\n        /* \"#utility.yul\":3065:3095   */\n      gt\n        /* \"#utility.yul\":3062:3118   */\n      iszero\n      tag_517\n      jumpi\n        /* \"#utility.yul\":3098:3116   */\n      tag_518\n      tag_328\n      jump\t// in\n    tag_518:\n        /* \"#utility.yul\":3062:3118   */\n    tag_517:\n        /* \"#utility.yul\":3136:3165   */\n      tag_519\n        /* \"#utility.yul\":3158:3164   */\n      dup3\n        /* \"#utility.yul\":3136:3165   */\n      tag_420\n      jump\t// in\n    tag_519:\n        /* \"#utility.yul\":3128:3165   */\n      swap1\n      pop\n        /* \"#utility.yul\":3220:3224   */\n      0x20\n        /* \"#utility.yul\":3214:3218   */\n      dup2\n        /* \"#utility.yul\":3210:3225   */\n      add\n        /* \"#utility.yul\":3202:3225   */\n      swap1\n      pop\n        /* \"#utility.yul\":2925:3232   */\n      swap2\n      swap1\n      pop\n      jump\t// out\n        /* \"#utility.yul\":3238:3386   */\n    tag_424:\n        /* \"#utility.yul\":3336:3342   */\n      dup3\n        /* \"#utility.yul\":3331:3334   */\n      dup2\n        /* \"#utility.yul\":3326:3329   */\n      dup4\n        /* \"#utility.yul\":3313:3343   */\n      calldatacopy\n        /* \"#utility.yul\":3377:3378   */\n      0x00\n        /* \"#utility.yul\":3368:3374   */\n      dup4\n        /* \"#utility.yul\":3363:3366   */\n      dup4\n        /* \"#utility.yul\":3359:3375   */\n      add\n        /* \"#utility.yul\":3352:3379   */\n      mstore\n        /* \"#utility.yul\":3238:3386   */\n      pop\n      pop\n      pop\n      jump\t// out\n        /* \"#utility.yul\":3392:3815   */\n    tag_425:\n        /* \"#utility.yul\":3469:3474   */\n      0x00\n        /* \"#utility.yul\":3494:3559   */\n      tag_522\n        /* \"#utility.yul\":3510:3558   */\n      tag_523\n        /* \"#utility.yul\":3551:3557   */\n      dup5\n        /* \"#utility.yul\":3510:3558   */\n      tag_423\n      jump\t// in\n    tag_523:\n        /* \"#utility.yul\":3494:3559   */\n      tag_422\n      jump\t// in\n    tag_522:\n        /* \"#utility.yul\":3485:3559   */\n      swap1\n      pop\n        /* \"#utility.yul\":3582:3588   */\n      dup3\n        /* \"#utility.yul\":3575:3580   */\n      dup2\n        /* \"#utility.yul\":3568:3589   */\n      mstore\n        /* \"#utility.yul\":3620:3624   */\n      0x20\n        /* \"#utility.yul\":3613:3618   */\n      dup2\n        /* \"#utility.yul\":3609:3625   */\n      add\n        /* \"#utility.yul\":3658:3661   */\n      dup5\n        /* \"#utility.yul\":3649:3655   */\n      dup5\n        /* \"#utility.yul\":3644:3647   */\n      dup5\n        /* \"#utility.yul\":3640:3656   */\n      add\n        /* \"#utility.yul\":3637:3662   */\n      gt\n        /* \"#utility.yul\":3634:3746   */\n      iszero\n      tag_524\n      jumpi\n        /* \"#utility.yul\":3665:3744   */\n      tag_525\n      tag_419\n      jump\t// in\n    tag_525:\n        /* \"#utility.yul\":3634:3746   */\n    tag_524:\n        /* \"#utility.yul\":3755:3809   */\n      tag_526\n        /* \"#utility.yul\":3802:3808   */\n      dup5\n        /* \"#utility.yul\":3797:3800   */\n      dup3\n        /* \"#utility.yul\":3792:3795   */\n      dup6\n        /* \"#utility.yul\":3755:3809   */\n      tag_424\n      jump\t// in\n    tag_526:\n        /* \"#utility.yul\":3475:3815   */\n      pop\n        /* \"#utility.yul\":3392:3815   */\n      swap4\n      swap3\n      pop\n      pop\n      pop\n      jump\t// out\n        /* \"#utility.yul\":3834:4172   */\n    tag_426:\n        /* \"#utility.yul\":3889:3894   */\n      0x00\n        /* \"#utility.yul\":3938:3941   */\n      dup3\n        /* \"#utility.yul\":3931:3935   */\n      0x1f\n        /* \"#utility.yul\":3923:3929   */\n      dup4\n        /* \"#utility.yul\":3919:3936   */\n      add\n        /* \"#utility.yul\":3915:3942   */\n      slt\n        /* \"#utility.yul\":3905:4027   */\n      tag_528\n      jumpi\n        /* \"#utility.yul\":3946:4025   */\n      tag_529\n      tag_418\n      jump\t// in\n    tag_529:\n        /* \"#utility.yul\":3905:4027   */\n    tag_528:\n        /* \"#utility.yul\":4063:4069   */\n      dup2\n        /* \"#utility.yul\":4050:4070   */\n      calldataload\n        /* \"#utility.yul\":4088:4166   */\n      tag_530\n        /* \"#utility.yul\":4162:4165   */\n      dup5\n        /* \"#utility.yul\":4154:4160   */\n      dup3\n        /* \"#utility.yul\":4147:4151   */\n      0x20\n        /* \"#utility.yul\":4139:4145   */\n      dup7\n        /* \"#utility.yul\":4135:4152   */\n      add\n        /* \"#utility.yul\":4088:4166   */\n      tag_425\n      jump\t// in\n    tag_530:\n        /* \"#utility.yul\":4079:4166   */\n      swap2\n      pop\n        /* \"#utility.yul\":3895:4172   */\n      pop\n        /* \"#utility.yul\":3834:4172   */\n      swap3\n      swap2\n      pop\n      pop\n      jump\t// out\n        /* \"#utility.yul\":4178:4830   */\n    tag_62:\n        /* \"#utility.yul\":4255:4261   */\n      0x00\n        /* \"#utility.yul\":4263:4269   */\n      dup1\n        /* \"#utility.yul\":4312:4314   */\n      0x40\n        /* \"#utility.yul\":4300:4309   */\n      dup4\n        /* \"#utility.yul\":4291:4298   */\n      dup6\n        /* \"#utility.yul\":4287:4310   */\n      sub\n        /* \"#utility.yul\":4283:4315   */\n      slt\n        /* \"#utility.yul\":4280:4399   */\n      iszero\n      tag_532\n      jumpi\n        /* \"#utility.yul\":4318:4397   */\n      tag_533\n      tag_412\n      jump\t// in\n    tag_533:\n        /* \"#utility.yul\":4280:4399   */\n    tag_532:\n        /* \"#utility.yul\":4438:4439   */\n      0x00\n        /* \"#utility.yul\":4463:4516   */\n      tag_534\n        /* \"#utility.yul\":4508:4515   */\n      dup6\n        /* \"#utility.yul\":4499:4505   */\n      dup3\n        /* \"#utility.yul\":4488:4497   */\n      dup7\n        /* \"#utility.yul\":4484:4506   */\n      add\n        /* \"#utility.yul\":4463:4516   */\n      tag_415\n      jump\t// in\n    tag_534:\n        /* \"#utility.yul\":4453:4516   */\n      swap3\n      pop\n        /* \"#utility.yul\":4409:4526   */\n      pop\n        /* \"#utility.yul\":4593:4595   */\n      0x20\n        /* \"#utility.yul\":4582:4591   */\n      dup4\n        /* \"#utility.yul\":4578:4596   */\n      add\n        /* \"#utility.yul\":4565:4597   */\n      calldataload\n        /* \"#utility.yul\":4624:4642   */\n      0xffffffffffffffff\n        /* \"#utility.yul\":4616:4622   */\n      dup2\n        /* \"#utility.yul\":4613:4643   */\n      gt\n        /* \"#utility.yul\":4610:4727   */\n      iszero\n      tag_535\n      jumpi\n        /* \"#utility.yul\":4646:4725   */\n      tag_536\n      tag_413\n      jump\t// in\n    tag_536:\n        /* \"#utility.yul\":4610:4727   */\n    tag_535:\n        /* \"#utility.yul\":4751:4813   */\n      tag_537\n        /* \"#utility.yul\":4805:4812   */\n      dup6\n        /* \"#utility.yul\":4796:4802   */\n      dup3\n        /* \"#utility.yul\":4785:4794   */\n      dup7\n        /* \"#utility.yul\":4781:4803   */\n      add\n        /* \"#utility.yul\":4751:4813   */\n      tag_426\n      jump\t// in\n    tag_537:\n        /* \"#utility.yul\":4741:4813   */\n      swap2\n      pop\n        /* \"#utility.yul\":4536:4823   */\n      pop\n        /* \"#utility.yul\":4178:4830   */\n      swap3\n      pop\n      swap3\n      swap1\n      pop\n      jump\t// out\n        /* \"#utility.yul\":4836:4913   */\n    tag_427:\n        /* \"#utility.yul\":4873:4880   */\n      0x00\n        /* \"#utility.yul\":4902:4907   */\n      dup2\n        /* \"#utility.yul\":4891:4907   */\n      swap1\n      pop\n        /* \"#utility.yul\":4836:4913   */\n      swap2\n      swap1\n      pop\n      jump\t// out\n        /* \"#utility.yul\":4919:5037   */\n    tag_428:\n        /* \"#utility.yul\":5006:5030   */\n      tag_540\n        /* \"#utility.yul\":5024:5029   */\n      dup2\n        /* \"#utility.yul\":5006:5030   */\n      tag_427\n      jump\t// in\n    tag_540:\n        /* \"#utility.yul\":5001:5004   */\n      dup3\n        /* \"#utility.yul\":4994:5031   */\n      mstore\n        /* \"#utility.yul\":4919:5037   */\n      pop\n      pop\n      jump\t// out\n        /* \"#utility.yul\":5043:5265   */\n    tag_68:\n        /* \"#utility.yul\":5136:5140   */\n      0x00\n        /* \"#utility.yul\":5174:5176   */\n      0x20\n        /* \"#utility.yul\":5163:5172   */\n      dup3\n        /* \"#utility.yul\":5159:5177   */\n      add\n        /* \"#utility.yul\":5151:5177   */\n      swap1\n      pop\n        /* \"#utility.yul\":5187:5258   */\n      tag_542\n        /* \"#utility.yul\":5255:5256   */\n      0x00\n        /* \"#utility.yul\":5244:5253   */\n      dup4\n        /* \"#utility.yul\":5240:5257   */\n      add\n        /* \"#utility.yul\":5231:5237   */\n      dup5\n        /* \"#utility.yul\":5187:5258   */\n      tag_428\n      jump\t// in\n    tag_542:\n        /* \"#utility.yul\":5043:5265   */\n      swap3\n      swap2\n      pop\n      pop\n      jump\t// out\n        /* \"#utility.yul\":5271:5579   */\n    tag_429:\n        /* \"#utility.yul\":5333:5337   */\n      0x00\n        /* \"#utility.yul\":5423:5441   */\n      0xffffffffffffffff\n        /* \"#utility.yul\":5415:5421   */\n      dup3\n        /* \"#utility.yul\":5412:5442   */\n      gt\n        /* \"#utility.yul\":5409:5465   */\n      iszero\n      tag_544\n      jumpi\n        /* \"#utility.yul\":5445:5463   */\n      tag_545\n      tag_328\n      jump\t// in\n    tag_545:\n        /* \"#utility.yul\":5409:5465   */\n    tag_544:\n        /* \"#utility.yul\":5483:5512   */\n      tag_546\n        /* \"#utility.yul\":5505:5511   */\n      dup3\n        /* \"#utility.yul\":5483:5512   */\n      tag_420\n      jump\t// in\n    tag_546:\n        /* \"#utility.yul\":5475:5512   */\n      swap1\n      pop\n        /* \"#utility.yul\":5567:5571   */\n      0x20\n        /* \"#utility.yul\":5561:5565   */\n      dup2\n        /* \"#utility.yul\":5557:5572   */\n      add\n        /* \"#utility.yul\":5549:5572   */\n      swap1\n      pop\n        /* \"#utility.yul\":5271:5579   */\n      swap2\n      swap1\n      pop\n      jump\t// out\n        /* \"#utility.yul\":5585:6010   */\n    tag_430:\n        /* \"#utility.yul\":5663:5668   */\n      0x00\n        /* \"#utility.yul\":5688:5754   */\n      tag_548\n        /* \"#utility.yul\":5704:5753   */\n      tag_549\n        /* \"#utility.yul\":5746:5752   */\n      dup5\n        /* \"#utility.yul\":5704:5753   */\n      tag_429\n      jump\t// in\n    tag_549:\n        /* \"#utility.yul\":5688:5754   */\n      tag_422\n      jump\t// in\n    tag_548:\n        /* \"#utility.yul\":5679:5754   */\n      swap1\n      pop\n        /* \"#utility.yul\":5777:5783   */\n      dup3\n        /* \"#utility.yul\":5770:5775   */\n      dup2\n        /* \"#utility.yul\":5763:5784   */\n      mstore\n        /* \"#utility.yul\":5815:5819   */\n      0x20\n        /* \"#utility.yul\":5808:5813   */\n      dup2\n        /* \"#utility.yul\":5804:5820   */\n      add\n        /* \"#utility.yul\":5853:5856   */\n      dup5\n        /* \"#utility.yul\":5844:5850   */\n      dup5\n        /* \"#utility.yul\":5839:5842   */\n      dup5\n        /* \"#utility.yul\":5835:5851   */\n      add\n        /* \"#utility.yul\":5832:5857   */\n      gt\n        /* \"#utility.yul\":5829:5941   */\n      iszero\n      tag_550\n      jumpi\n        /* \"#utility.yul\":5860:5939   */\n      tag_551\n      tag_419\n      jump\t// in\n    tag_551:\n        /* \"#utility.yul\":5829:5941   */\n    tag_550:\n        /* \"#utility.yul\":5950:6004   */\n      tag_552\n        /* \"#utility.yul\":5997:6003   */\n      dup5\n        /* \"#utility.yul\":5992:5995   */\n      dup3\n        /* \"#utility.yul\":5987:5990   */\n      dup6\n        /* \"#utility.yul\":5950:6004   */\n      tag_424\n      jump\t// in\n    tag_552:\n        /* \"#utility.yul\":5669:6010   */\n      pop\n        /* \"#utility.yul\":5585:6010   */\n      swap4\n      swap3\n      pop\n      pop\n      pop\n      jump\t// out\n        /* \"#utility.yul\":6030:6370   */\n    tag_431:\n        /* \"#utility.yul\":6086:6091   */\n      0x00\n        /* \"#utility.yul\":6135:6138   */\n      dup3\n        /* \"#utility.yul\":6128:6132   */\n      0x1f\n        /* \"#utility.yul\":6120:6126   */\n      dup4\n        /* \"#utility.yul\":6116:6133   */\n      add\n        /* \"#utility.yul\":6112:6139   */\n      slt\n        /* \"#utility.yul\":6102:6224   */\n      tag_554\n      jumpi\n        /* \"#utility.yul\":6143:6222   */\n      tag_555\n      tag_418\n      jump\t// in\n    tag_555:\n        /* \"#utility.yul\":6102:6224   */\n    tag_554:\n        /* \"#utility.yul\":6260:6266   */\n      dup2\n        /* \"#utility.yul\":6247:6267   */\n      calldataload\n        /* \"#utility.yul\":6285:6364   */\n      tag_556\n        /* \"#utility.yul\":6360:6363   */\n      dup5\n        /* \"#utility.yul\":6352:6358   */\n      dup3\n        /* \"#utility.yul\":6345:6349   */\n      0x20\n        /* \"#utility.yul\":6337:6343   */\n      dup7\n        /* \"#utility.yul\":6333:6350   */\n      add\n        /* \"#utility.yul\":6285:6364   */\n      tag_430\n      jump\t// in\n    tag_556:\n        /* \"#utility.yul\":6276:6364   */\n      swap2\n      pop\n        /* \"#utility.yul\":6092:6370   */\n      pop\n        /* \"#utility.yul\":6030:6370   */\n      swap3\n      swap2\n      pop\n      pop\n      jump\t// out\n        /* \"#utility.yul\":6376:6687   */\n    tag_432:\n        /* \"#utility.yul\":6453:6457   */\n      0x00\n        /* \"#utility.yul\":6543:6561   */\n      0xffffffffffffffff\n        /* \"#utility.yul\":6535:6541   */\n      dup3\n        /* \"#utility.yul\":6532:6562   */\n      gt\n        /* \"#utility.yul\":6529:6585   */\n      iszero\n      tag_558\n      jumpi\n        /* \"#utility.yul\":6565:6583   */\n      tag_559\n      tag_328\n      jump\t// in\n    tag_559:\n        /* \"#utility.yul\":6529:6585   */\n    tag_558:\n        /* \"#utility.yul\":6615:6619   */\n      0x20\n        /* \"#utility.yul\":6607:6613   */\n      dup3\n        /* \"#utility.yul\":6603:6620   */\n      mul\n        /* \"#utility.yul\":6595:6620   */\n      swap1\n      pop\n        /* \"#utility.yul\":6675:6679   */\n      0x20\n        /* \"#utility.yul\":6669:6673   */\n      dup2\n        /* \"#utility.yul\":6665:6680   */\n      add\n        /* \"#utility.yul\":6657:6680   */\n      swap1\n      pop\n        /* \"#utility.yul\":6376:6687   */\n      swap2\n      swap1\n      pop\n      jump\t// out\n        /* \"#utility.yul\":6693:6810   */\n    tag_433:\n        /* \"#utility.yul\":6802:6803   */\n      0x00\n        /* \"#utility.yul\":6799:6800   */\n      dup1\n        /* \"#utility.yul\":6792:6804   */\n      revert\n        /* \"#utility.yul\":6833:7543   */\n    tag_434:\n        /* \"#utility.yul\":6929:6934   */\n      0x00\n        /* \"#utility.yul\":6954:7035   */\n      tag_562\n        /* \"#utility.yul\":6970:7034   */\n      tag_563\n        /* \"#utility.yul\":7027:7033   */\n      dup5\n        /* \"#utility.yul\":6970:7034   */\n      tag_432\n      jump\t// in\n    tag_563:\n        /* \"#utility.yul\":6954:7035   */\n      tag_422\n      jump\t// in\n    tag_562:\n        /* \"#utility.yul\":6945:7035   */\n      swap1\n      pop\n        /* \"#utility.yul\":7055:7060   */\n      dup1\n        /* \"#utility.yul\":7084:7090   */\n      dup4\n        /* \"#utility.yul\":7077:7082   */\n      dup3\n        /* \"#utility.yul\":7070:7091   */\n      mstore\n        /* \"#utility.yul\":7118:7122   */\n      0x20\n        /* \"#utility.yul\":7111:7116   */\n      dup3\n        /* \"#utility.yul\":7107:7123   */\n      add\n        /* \"#utility.yul\":7100:7123   */\n      swap1\n      pop\n        /* \"#utility.yul\":7171:7175   */\n      0x20\n        /* \"#utility.yul\":7163:7169   */\n      dup5\n        /* \"#utility.yul\":7159:7176   */\n      mul\n        /* \"#utility.yul\":7151:7157   */\n      dup4\n        /* \"#utility.yul\":7147:7177   */\n      add\n        /* \"#utility.yul\":7200:7203   */\n      dup6\n        /* \"#utility.yul\":7192:7198   */\n      dup2\n        /* \"#utility.yul\":7189:7204   */\n      gt\n        /* \"#utility.yul\":7186:7308   */\n      iszero\n      tag_564\n      jumpi\n        /* \"#utility.yul\":7219:7298   */\n      tag_565\n      tag_433\n      jump\t// in\n    tag_565:\n        /* \"#utility.yul\":7186:7308   */\n    tag_564:\n        /* \"#utility.yul\":7334:7340   */\n      dup4\n        /* \"#utility.yul\":7317:7537   */\n    tag_566:\n        /* \"#utility.yul\":7351:7357   */\n      dup2\n        /* \"#utility.yul\":7346:7349   */\n      dup2\n        /* \"#utility.yul\":7343:7358   */\n      lt\n        /* \"#utility.yul\":7317:7537   */\n      iszero\n      tag_568\n      jumpi\n        /* \"#utility.yul\":7426:7429   */\n      dup1\n        /* \"#utility.yul\":7455:7492   */\n      tag_569\n        /* \"#utility.yul\":7488:7491   */\n      dup9\n        /* \"#utility.yul\":7476:7486   */\n      dup3\n        /* \"#utility.yul\":7455:7492   */\n      tag_415\n      jump\t// in\n    tag_569:\n        /* \"#utility.yul\":7450:7453   */\n      dup5\n        /* \"#utility.yul\":7443:7493   */\n      mstore\n        /* \"#utility.yul\":7522:7526   */\n      0x20\n        /* \"#utility.yul\":7517:7520   */\n      dup5\n        /* \"#utility.yul\":7513:7527   */\n      add\n        /* \"#utility.yul\":7506:7527   */\n      swap4\n      pop\n        /* \"#utility.yul\":7393:7537   */\n      pop\n        /* \"#utility.yul\":7377:7381   */\n      0x20\n        /* \"#utility.yul\":7372:7375   */\n      dup2\n        /* \"#utility.yul\":7368:7382   */\n      add\n        /* \"#utility.yul\":7361:7382   */\n      swap1\n      pop\n        /* \"#utility.yul\":7317:7537   */\n      jump(tag_566)\n    tag_568:\n        /* \"#utility.yul\":7321:7342   */\n      pop\n        /* \"#utility.yul\":6935:7543   */\n      pop\n      pop\n        /* \"#utility.yul\":6833:7543   */\n      swap4\n      swap3\n      pop\n      pop\n      pop\n      jump\t// out\n        /* \"#utility.yul\":7566:7936   */\n    tag_435:\n        /* \"#utility.yul\":7637:7642   */\n      0x00\n        /* \"#utility.yul\":7686:7689   */\n      dup3\n        /* \"#utility.yul\":7679:7683   */\n      0x1f\n        /* \"#utility.yul\":7671:7677   */\n      dup4\n        /* \"#utility.yul\":7667:7684   */\n      add\n        /* \"#utility.yul\":7663:7690   */\n      slt\n        /* \"#utility.yul\":7653:7775   */\n      tag_571\n      jumpi\n        /* \"#utility.yul\":7694:7773   */\n      tag_572\n      tag_418\n      jump\t// in\n    tag_572:\n        /* \"#utility.yul\":7653:7775   */\n    tag_571:\n        /* \"#utility.yul\":7811:7817   */\n      dup2\n        /* \"#utility.yul\":7798:7818   */\n      calldataload\n        /* \"#utility.yul\":7836:7930   */\n      tag_573\n        /* \"#utility.yul\":7926:7929   */\n      dup5\n        /* \"#utility.yul\":7918:7924   */\n      dup3\n        /* \"#utility.yul\":7911:7915   */\n      0x20\n        /* \"#utility.yul\":7903:7909   */\n      dup7\n        /* \"#utility.yul\":7899:7916   */\n      add\n        /* \"#utility.yul\":7836:7930   */\n      tag_434\n      jump\t// in\n    tag_573:\n        /* \"#utility.yul\":7827:7930   */\n      swap2\n      pop\n        /* \"#utility.yul\":7643:7936   */\n      pop\n        /* \"#utility.yul\":7566:7936   */\n      swap3\n      swap2\n      pop\n      pop\n      jump\t// out\n        /* \"#utility.yul\":7942:8253   */\n    tag_436:\n        /* \"#utility.yul\":8019:8023   */\n      0x00\n        /* \"#utility.yul\":8109:8127   */\n      0xffffffffffffffff\n        /* \"#utility.yul\":8101:8107   */\n      dup3\n        /* \"#utility.yul\":8098:8128   */\n      gt\n        /* \"#utility.yul\":8095:8151   */\n      iszero\n      tag_575\n      jumpi\n        /* \"#utility.yul\":8131:8149   */\n      tag_576\n      tag_328\n      jump\t// in\n    tag_576:\n        /* \"#utility.yul\":8095:8151   */\n    tag_575:\n        /* \"#utility.yul\":8181:8185   */\n      0x20\n        /* \"#utility.yul\":8173:8179   */\n      dup3\n        /* \"#utility.yul\":8169:8186   */\n      mul\n        /* \"#utility.yul\":8161:8186   */\n      swap1\n      pop\n        /* \"#utility.yul\":8241:8245   */\n      0x20\n        /* \"#utility.yul\":8235:8239   */\n      dup2\n        /* \"#utility.yul\":8231:8246   */\n      add\n        /* \"#utility.yul\":8223:8246   */\n      swap1\n      pop\n        /* \"#utility.yul\":7942:8253   */\n      swap2\n      swap1\n      pop\n      jump\t// out\n        /* \"#utility.yul\":8259:8381   */\n    tag_437:\n        /* \"#utility.yul\":8332:8356   */\n      tag_578\n        /* \"#utility.yul\":8350:8355   */\n      dup2\n        /* \"#utility.yul\":8332:8356   */\n      tag_416\n      jump\t// in\n    tag_578:\n        /* \"#utility.yul\":8325:8330   */\n      dup2\n        /* \"#utility.yul\":8322:8357   */\n      eq\n        /* \"#utility.yul\":8312:8375   */\n      tag_579\n      jumpi\n        /* \"#utility.yul\":8371:8372   */\n      0x00\n        /* \"#utility.yul\":8368:8369   */\n      dup1\n        /* \"#utility.yul\":8361:8373   */\n      revert\n        /* \"#utility.yul\":8312:8375   */\n    tag_579:\n        /* \"#utility.yul\":8259:8381   */\n      pop\n      jump\t// out\n        /* \"#utility.yul\":8387:8526   */\n    tag_438:\n        /* \"#utility.yul\":8433:8438   */\n      0x00\n        /* \"#utility.yul\":8471:8477   */\n      dup2\n        /* \"#utility.yul\":8458:8478   */\n      calldataload\n        /* \"#utility.yul\":8449:8478   */\n      swap1\n      pop\n        /* \"#utility.yul\":8487:8520   */\n      tag_581\n        /* \"#utility.yul\":8514:8519   */\n      dup2\n        /* \"#utility.yul\":8487:8520   */\n      tag_437\n      jump\t// in\n    tag_581:\n        /* \"#utility.yul\":8387:8526   */\n      swap3\n      swap2\n      pop\n      pop\n      jump\t// out\n        /* \"#utility.yul\":8549:9259   */\n    tag_439:\n        /* \"#utility.yul\":8645:8650   */\n      0x00\n        /* \"#utility.yul\":8670:8751   */\n      tag_583\n        /* \"#utility.yul\":8686:8750   */\n      tag_584\n        /* \"#utility.yul\":8743:8749   */\n      dup5\n        /* \"#utility.yul\":8686:8750   */\n      tag_436\n      jump\t// in\n    tag_584:\n        /* \"#utility.yul\":8670:8751   */\n      tag_422\n      jump\t// in\n    tag_583:\n        /* \"#utility.yul\":8661:8751   */\n      swap1\n      pop\n        /* \"#utility.yul\":8771:8776   */\n      dup1\n        /* \"#utility.yul\":8800:8806   */\n      dup4\n        /* \"#utility.yul\":8793:8798   */\n      dup3\n        /* \"#utility.yul\":8786:8807   */\n      mstore\n        /* \"#utility.yul\":8834:8838   */\n      0x20\n        /* \"#utility.yul\":8827:8832   */\n      dup3\n        /* \"#utility.yul\":8823:8839   */\n      add\n        /* \"#utility.yul\":8816:8839   */\n      swap1\n      pop\n        /* \"#utility.yul\":8887:8891   */\n      0x20\n        /* \"#utility.yul\":8879:8885   */\n      dup5\n        /* \"#utility.yul\":8875:8892   */\n      mul\n        /* \"#utility.yul\":8867:8873   */\n      dup4\n        /* \"#utility.yul\":8863:8893   */\n      add\n        /* \"#utility.yul\":8916:8919   */\n      dup6\n        /* \"#utility.yul\":8908:8914   */\n      dup2\n        /* \"#utility.yul\":8905:8920   */\n      gt\n        /* \"#utility.yul\":8902:9024   */\n      iszero\n      tag_585\n      jumpi\n        /* \"#utility.yul\":8935:9014   */\n      tag_586\n      tag_433\n      jump\t// in\n    tag_586:\n        /* \"#utility.yul\":8902:9024   */\n    tag_585:\n        /* \"#utility.yul\":9050:9056   */\n      dup4\n        /* \"#utility.yul\":9033:9253   */\n    tag_587:\n        /* \"#utility.yul\":9067:9073   */\n      dup2\n        /* \"#utility.yul\":9062:9065   */\n      dup2\n        /* \"#utility.yul\":9059:9074   */\n      lt\n        /* \"#utility.yul\":9033:9253   */\n      iszero\n      tag_589\n      jumpi\n        /* \"#utility.yul\":9142:9145   */\n      dup1\n        /* \"#utility.yul\":9171:9208   */\n      tag_590\n        /* \"#utility.yul\":9204:9207   */\n      dup9\n        /* \"#utility.yul\":9192:9202   */\n      dup3\n        /* \"#utility.yul\":9171:9208   */\n      tag_438\n      jump\t// in\n    tag_590:\n        /* \"#utility.yul\":9166:9169   */\n      dup5\n        /* \"#utility.yul\":9159:9209   */\n      mstore\n        /* \"#utility.yul\":9238:9242   */\n      0x20\n        /* \"#utility.yul\":9233:9236   */\n      dup5\n        /* \"#utility.yul\":9229:9243   */\n      add\n        /* \"#utility.yul\":9222:9243   */\n      swap4\n      pop\n        /* \"#utility.yul\":9109:9253   */\n      pop\n        /* \"#utility.yul\":9093:9097   */\n      0x20\n        /* \"#utility.yul\":9088:9091   */\n      dup2\n        /* \"#utility.yul\":9084:9098   */\n      add\n        /* \"#utility.yul\":9077:9098   */\n      swap1\n      pop\n        /* \"#utility.yul\":9033:9253   */\n      jump(tag_587)\n    tag_589:\n        /* \"#utility.yul\":9037:9058   */\n      pop\n        /* \"#utility.yul\":8651:9259   */\n      pop\n      pop\n        /* \"#utility.yul\":8549:9259   */\n      swap4\n      swap3\n      pop\n      pop\n      pop\n      jump\t// out\n        /* \"#utility.yul\":9282:9652   */\n    tag_440:\n        /* \"#utility.yul\":9353:9358   */\n      0x00\n        /* \"#utility.yul\":9402:9405   */\n      dup3\n        /* \"#utility.yul\":9395:9399   */\n      0x1f\n        /* \"#utility.yul\":9387:9393   */\n      dup4\n        /* \"#utility.yul\":9383:9400   */\n      add\n        /* \"#utility.yul\":9379:9406   */\n      slt\n        /* \"#utility.yul\":9369:9491   */\n      tag_592\n      jumpi\n        /* \"#utility.yul\":9410:9489   */\n      tag_593\n      tag_418\n      jump\t// in\n    tag_593:\n        /* \"#utility.yul\":9369:9491   */\n    tag_592:\n        /* \"#utility.yul\":9527:9533   */\n      dup2\n        /* \"#utility.yul\":9514:9534   */\n      calldataload\n        /* \"#utility.yul\":9552:9646   */\n      tag_594\n        /* \"#utility.yul\":9642:9645   */\n      dup5\n        /* \"#utility.yul\":9634:9640   */\n      dup3\n        /* \"#utility.yul\":9627:9631   */\n      0x20\n        /* \"#utility.yul\":9619:9625   */\n      dup7\n        /* \"#utility.yul\":9615:9632   */\n      add\n        /* \"#utility.yul\":9552:9646   */\n      tag_439\n      jump\t// in\n    tag_594:\n        /* \"#utility.yul\":9543:9646   */\n      swap2\n      pop\n        /* \"#utility.yul\":9359:9652   */\n      pop\n        /* \"#utility.yul\":9282:9652   */\n      swap3\n      swap2\n      pop\n      pop\n      jump\t// out\n        /* \"#utility.yul\":9658:10877   */\n    tag_83:\n        /* \"#utility.yul\":9795:9801   */\n      0x00\n        /* \"#utility.yul\":9803:9809   */\n      dup1\n        /* \"#utility.yul\":9811:9817   */\n      0x00\n        /* \"#utility.yul\":9860:9862   */\n      0x60\n        /* \"#utility.yul\":9848:9857   */\n      dup5\n        /* \"#utility.yul\":9839:9846   */\n      dup7\n        /* \"#utility.yul\":9835:9858   */\n      sub\n        /* \"#utility.yul\":9831:9863   */\n      slt\n        /* \"#utility.yul\":9828:9947   */\n      iszero\n      tag_596\n      jumpi\n        /* \"#utility.yul\":9866:9945   */\n      tag_597\n      tag_412\n      jump\t// in\n    tag_597:\n        /* \"#utility.yul\":9828:9947   */\n    tag_596:\n        /* \"#utility.yul\":10014:10015   */\n      0x00\n        /* \"#utility.yul\":10003:10012   */\n      dup5\n        /* \"#utility.yul\":9999:10016   */\n      add\n        /* \"#utility.yul\":9986:10017   */\n      calldataload\n        /* \"#utility.yul\":10044:10062   */\n      0xffffffffffffffff\n        /* \"#utility.yul\":10036:10042   */\n      dup2\n        /* \"#utility.yul\":10033:10063   */\n      gt\n        /* \"#utility.yul\":10030:10147   */\n      iszero\n      tag_598\n      jumpi\n        /* \"#utility.yul\":10066:10145   */\n      tag_599\n      tag_413\n      jump\t// in\n    tag_599:\n        /* \"#utility.yul\":10030:10147   */\n    tag_598:\n        /* \"#utility.yul\":10171:10234   */\n      tag_600\n        /* \"#utility.yul\":10226:10233   */\n      dup7\n        /* \"#utility.yul\":10217:10223   */\n      dup3\n        /* \"#utility.yul\":10206:10215   */\n      dup8\n        /* \"#utility.yul\":10202:10224   */\n      add\n        /* \"#utility.yul\":10171:10234   */\n      tag_431\n      jump\t// in\n    tag_600:\n        /* \"#utility.yul\":10161:10234   */\n      swap4\n      pop\n        /* \"#utility.yul\":9957:10244   */\n      pop\n        /* \"#utility.yul\":10311:10313   */\n      0x20\n        /* \"#utility.yul\":10300:10309   */\n      dup5\n        /* \"#utility.yul\":10296:10314   */\n      add\n        /* \"#utility.yul\":10283:10315   */\n      calldataload\n        /* \"#utility.yul\":10342:10360   */\n      0xffffffffffffffff\n        /* \"#utility.yul\":10334:10340   */\n      dup2\n        /* \"#utility.yul\":10331:10361   */\n      gt\n        /* \"#utility.yul\":10328:10445   */\n      iszero\n      tag_601\n      jumpi\n        /* \"#utility.yul\":10364:10443   */\n      tag_602\n      tag_413\n      jump\t// in\n    tag_602:\n        /* \"#utility.yul\":10328:10445   */\n    tag_601:\n        /* \"#utility.yul\":10469:10547   */\n      tag_603\n        /* \"#utility.yul\":10539:10546   */\n      dup7\n        /* \"#utility.yul\":10530:10536   */\n      dup3\n        /* \"#utility.yul\":10519:10528   */\n      dup8\n        /* \"#utility.yul\":10515:10537   */\n      add\n        /* \"#utility.yul\":10469:10547   */\n      tag_435\n      jump\t// in\n    tag_603:\n        /* \"#utility.yul\":10459:10547   */\n      swap3\n      pop\n        /* \"#utility.yul\":10254:10557   */\n      pop\n        /* \"#utility.yul\":10624:10626   */\n      0x40\n        /* \"#utility.yul\":10613:10622   */\n      dup5\n        /* \"#utility.yul\":10609:10627   */\n      add\n        /* \"#utility.yul\":10596:10628   */\n      calldataload\n        /* \"#utility.yul\":10655:10673   */\n      0xffffffffffffffff\n        /* \"#utility.yul\":10647:10653   */\n      dup2\n        /* \"#utility.yul\":10644:10674   */\n      gt\n        /* \"#utility.yul\":10641:10758   */\n      iszero\n      tag_604\n      jumpi\n        /* \"#utility.yul\":10677:10756   */\n      tag_605\n      tag_413\n      jump\t// in\n    tag_605:\n        /* \"#utility.yul\":10641:10758   */\n    tag_604:\n        /* \"#utility.yul\":10782:10860   */\n      tag_606\n        /* \"#utility.yul\":10852:10859   */\n      dup7\n        /* \"#utility.yul\":10843:10849   */\n      dup3\n        /* \"#utility.yul\":10832:10841   */\n      dup8\n        /* \"#utility.yul\":10828:10850   */\n      add\n        /* \"#utility.yul\":10782:10860   */\n      tag_440\n      jump\t// in\n    tag_606:\n        /* \"#utility.yul\":10772:10860   */\n      swap2\n      pop\n        /* \"#utility.yul\":10567:10870   */\n      pop\n        /* \"#utility.yul\":9658:10877   */\n      swap3\n      pop\n      swap3\n      pop\n      swap3\n      jump\t// out\n        /* \"#utility.yul\":10883:11215   */\n    tag_90:\n        /* \"#utility.yul\":11004:11008   */\n      0x00\n        /* \"#utility.yul\":11042:11044   */\n      0x40\n        /* \"#utility.yul\":11031:11040   */\n      dup3\n        /* \"#utility.yul\":11027:11045   */\n      add\n        /* \"#utility.yul\":11019:11045   */\n      swap1\n      pop\n        /* \"#utility.yul\":11055:11126   */\n      tag_608\n        /* \"#utility.yul\":11123:11124   */\n      0x00\n        /* \"#utility.yul\":11112:11121   */\n      dup4\n        /* \"#utility.yul\":11108:11125   */\n      add\n        /* \"#utility.yul\":11099:11105   */\n      dup6\n        /* \"#utility.yul\":11055:11126   */\n      tag_417\n      jump\t// in\n    tag_608:\n        /* \"#utility.yul\":11136:11208   */\n      tag_609\n        /* \"#utility.yul\":11204:11206   */\n      0x20\n        /* \"#utility.yul\":11193:11202   */\n      dup4\n        /* \"#utility.yul\":11189:11207   */\n      add\n        /* \"#utility.yul\":11180:11186   */\n      dup5\n        /* \"#utility.yul\":11136:11208   */\n      tag_417\n      jump\t// in\n    tag_609:\n        /* \"#utility.yul\":10883:11215   */\n      swap4\n      swap3\n      pop\n      pop\n      pop\n      jump\t// out\n        /* \"#utility.yul\":11221:11986   */\n    tag_109:\n        /* \"#utility.yul\":11307:11313   */\n      0x00\n        /* \"#utility.yul\":11315:11321   */\n      dup1\n        /* \"#utility.yul\":11323:11329   */\n      0x00\n        /* \"#utility.yul\":11331:11337   */\n      dup1\n        /* \"#utility.yul\":11380:11383   */\n      0x80\n        /* \"#utility.yul\":11368:11377   */\n      dup6\n        /* \"#utility.yul\":11359:11366   */\n      dup8\n        /* \"#utility.yul\":11355:11378   */\n      sub\n        /* \"#utility.yul\":11351:11384   */\n      slt\n        /* \"#utility.yul\":11348:11468   */\n      iszero\n      tag_611\n      jumpi\n        /* \"#utility.yul\":11387:11466   */\n      tag_612\n      tag_412\n      jump\t// in\n    tag_612:\n        /* \"#utility.yul\":11348:11468   */\n    tag_611:\n        /* \"#utility.yul\":11507:11508   */\n      0x00\n        /* \"#utility.yul\":11532:11585   */\n      tag_613\n        /* \"#utility.yul\":11577:11584   */\n      dup8\n        /* \"#utility.yul\":11568:11574   */\n      dup3\n        /* \"#utility.yul\":11557:11566   */\n      dup9\n        /* \"#utility.yul\":11553:11575   */\n      add\n        /* \"#utility.yul\":11532:11585   */\n      tag_415\n      jump\t// in\n    tag_613:\n        /* \"#utility.yul\":11522:11585   */\n      swap5\n      pop\n        /* \"#utility.yul\":11478:11595   */\n      pop\n        /* \"#utility.yul\":11634:11636   */\n      0x20\n        /* \"#utility.yul\":11660:11713   */\n      tag_614\n        /* \"#utility.yul\":11705:11712   */\n      dup8\n        /* \"#utility.yul\":11696:11702   */\n      dup3\n        /* \"#utility.yul\":11685:11694   */\n      dup9\n        /* \"#utility.yul\":11681:11703   */\n      add\n        /* \"#utility.yul\":11660:11713   */\n      tag_415\n      jump\t// in\n    tag_614:\n        /* \"#utility.yul\":11650:11713   */\n      swap4\n      pop\n        /* \"#utility.yul\":11605:11723   */\n      pop\n        /* \"#utility.yul\":11762:11764   */\n      0x40\n        /* \"#utility.yul\":11788:11841   */\n      tag_615\n        /* \"#utility.yul\":11833:11840   */\n      dup8\n        /* \"#utility.yul\":11824:11830   */\n      dup3\n        /* \"#utility.yul\":11813:11822   */\n      dup9\n        /* \"#utility.yul\":11809:11831   */\n      add\n        /* \"#utility.yul\":11788:11841   */\n      tag_415\n      jump\t// in\n    tag_615:\n        /* \"#utility.yul\":11778:11841   */\n      swap3\n      pop\n        /* \"#utility.yul\":11733:11851   */\n      pop\n        /* \"#utility.yul\":11890:11892   */\n      0x60\n        /* \"#utility.yul\":11916:11969   */\n      tag_616\n        /* \"#utility.yul\":11961:11968   */\n      dup8\n        /* \"#utility.yul\":11952:11958   */\n      dup3\n        /* \"#utility.yul\":11941:11950   */\n      dup9\n        /* \"#utility.yul\":11937:11959   */\n      add\n        /* \"#utility.yul\":11916:11969   */\n      tag_415\n      jump\t// in\n    tag_616:\n        /* \"#utility.yul\":11906:11969   */\n      swap2\n      pop\n        /* \"#utility.yul\":11861:11979   */\n      pop\n        /* \"#utility.yul\":11221:11986   */\n      swap3\n      swap6\n      swap2\n      swap5\n      pop\n      swap3\n      pop\n      jump\t// out\n        /* \"#utility.yul\":11992:12091   */\n    tag_441:\n        /* \"#utility.yul\":12044:12050   */\n      0x00\n        /* \"#utility.yul\":12078:12083   */\n      dup2\n        /* \"#utility.yul\":12072:12084   */\n      mload\n        /* \"#utility.yul\":12062:12084   */\n      swap1\n      pop\n        /* \"#utility.yul\":11992:12091   */\n      swap2\n      swap1\n      pop\n      jump\t// out\n        /* \"#utility.yul\":12097:12266   */\n    tag_442:\n        /* \"#utility.yul\":12181:12192   */\n      0x00\n        /* \"#utility.yul\":12215:12221   */\n      dup3\n        /* \"#utility.yul\":12210:12213   */\n      dup3\n        /* \"#utility.yul\":12203:12222   */\n      mstore\n        /* \"#utility.yul\":12255:12259   */\n      0x20\n        /* \"#utility.yul\":12250:12253   */\n      dup3\n        /* \"#utility.yul\":12246:12260   */\n      add\n        /* \"#utility.yul\":12231:12260   */\n      swap1\n      pop\n        /* \"#utility.yul\":12097:12266   */\n      swap3\n      swap2\n      pop\n      pop\n      jump\t// out\n        /* \"#utility.yul\":12272:12411   */\n    tag_443:\n        /* \"#utility.yul\":12361:12367   */\n      dup3\n        /* \"#utility.yul\":12356:12359   */\n      dup2\n        /* \"#utility.yul\":12351:12354   */\n      dup4\n        /* \"#utility.yul\":12345:12368   */\n      mcopy\n        /* \"#utility.yul\":12402:12403   */\n      0x00\n        /* \"#utility.yul\":12393:12399   */\n      dup4\n        /* \"#utility.yul\":12388:12391   */\n      dup4\n        /* \"#utility.yul\":12384:12400   */\n      add\n        /* \"#utility.yul\":12377:12404   */\n      mstore\n        /* \"#utility.yul\":12272:12411   */\n      pop\n      pop\n      pop\n      jump\t// out\n        /* \"#utility.yul\":12417:12794   */\n    tag_444:\n        /* \"#utility.yul\":12505:12508   */\n      0x00\n        /* \"#utility.yul\":12533:12572   */\n      tag_621\n        /* \"#utility.yul\":12566:12571   */\n      dup3\n        /* \"#utility.yul\":12533:12572   */\n      tag_441\n      jump\t// in\n    tag_621:\n        /* \"#utility.yul\":12588:12659   */\n      tag_622\n        /* \"#utility.yul\":12652:12658   */\n      dup2\n        /* \"#utility.yul\":12647:12650   */\n      dup6\n        /* \"#utility.yul\":12588:12659   */\n      tag_442\n      jump\t// in\n    tag_622:\n        /* \"#utility.yul\":12581:12659   */\n      swap4\n      pop\n        /* \"#utility.yul\":12668:12733   */\n      tag_623\n        /* \"#utility.yul\":12726:12732   */\n      dup2\n        /* \"#utility.yul\":12721:12724   */\n      dup6\n        /* \"#utility.yul\":12714:12718   */\n      0x20\n        /* \"#utility.yul\":12707:12712   */\n      dup7\n        /* \"#utility.yul\":12703:12719   */\n      add\n        /* \"#utility.yul\":12668:12733   */\n      tag_443\n      jump\t// in\n    tag_623:\n        /* \"#utility.yul\":12758:12787   */\n      tag_624\n        /* \"#utility.yul\":12780:12786   */\n      dup2\n        /* \"#utility.yul\":12758:12787   */\n      tag_420\n      jump\t// in\n    tag_624:\n        /* \"#utility.yul\":12753:12756   */\n      dup5\n        /* \"#utility.yul\":12749:12788   */\n      add\n        /* \"#utility.yul\":12742:12788   */\n      swap2\n      pop\n        /* \"#utility.yul\":12509:12794   */\n      pop\n        /* \"#utility.yul\":12417:12794   */\n      swap3\n      swap2\n      pop\n      pop\n      jump\t// out\n        /* \"#utility.yul\":12800:13113   */\n    tag_117:\n        /* \"#utility.yul\":12913:12917   */\n      0x00\n        /* \"#utility.yul\":12951:12953   */\n      0x20\n        /* \"#utility.yul\":12940:12949   */\n      dup3\n        /* \"#utility.yul\":12936:12954   */\n      add\n        /* \"#utility.yul\":12928:12954   */\n      swap1\n      pop\n        /* \"#utility.yul\":13000:13009   */\n      dup2\n        /* \"#utility.yul\":12994:12998   */\n      dup2\n        /* \"#utility.yul\":12990:13010   */\n      sub\n        /* \"#utility.yul\":12986:12987   */\n      0x00\n        /* \"#utility.yul\":12975:12984   */\n      dup4\n        /* \"#utility.yul\":12971:12988   */\n      add\n        /* \"#utility.yul\":12964:13011   */\n      mstore\n        /* \"#utility.yul\":13028:13106   */\n      tag_626\n        /* \"#utility.yul\":13101:13105   */\n      dup2\n        /* \"#utility.yul\":13092:13098   */\n      dup5\n        /* \"#utility.yul\":13028:13106   */\n      tag_444\n      jump\t// in\n    tag_626:\n        /* \"#utility.yul\":13020:13106   */\n      swap1\n      pop\n        /* \"#utility.yul\":12800:13113   */\n      swap3\n      swap2\n      pop\n      pop\n      jump\t// out\n        /* \"#utility.yul\":13119:13448   */\n    tag_126:\n        /* \"#utility.yul\":13178:13184   */\n      0x00\n        /* \"#utility.yul\":13227:13229   */\n      0x20\n        /* \"#utility.yul\":13215:13224   */\n      dup3\n        /* \"#utility.yul\":13206:13213   */\n      dup5\n        /* \"#utility.yul\":13202:13225   */\n      sub\n        /* \"#utility.yul\":13198:13230   */\n      slt\n        /* \"#utility.yul\":13195:13314   */\n      iszero\n      tag_628\n      jumpi\n        /* \"#utility.yul\":13233:13312   */\n      tag_629\n      tag_412\n      jump\t// in\n    tag_629:\n        /* \"#utility.yul\":13195:13314   */\n    tag_628:\n        /* \"#utility.yul\":13353:13354   */\n      0x00\n        /* \"#utility.yul\":13378:13431   */\n      tag_630\n        /* \"#utility.yul\":13423:13430   */\n      dup5\n        /* \"#utility.yul\":13414:13420   */\n      dup3\n        /* \"#utility.yul\":13403:13412   */\n      dup6\n        /* \"#utility.yul\":13399:13421   */\n      add\n        /* \"#utility.yul\":13378:13431   */\n      tag_438\n      jump\t// in\n    tag_630:\n        /* \"#utility.yul\":13368:13431   */\n      swap2\n      pop\n        /* \"#utility.yul\":13324:13441   */\n      pop\n        /* \"#utility.yul\":13119:13448   */\n      swap3\n      swap2\n      pop\n      pop\n      jump\t// out\n        /* \"#utility.yul\":13454:13568   */\n    tag_445:\n        /* \"#utility.yul\":13521:13527   */\n      0x00\n        /* \"#utility.yul\":13555:13560   */\n      dup2\n        /* \"#utility.yul\":13549:13561   */\n      mload\n        /* \"#utility.yul\":13539:13561   */\n      swap1\n      pop\n        /* \"#utility.yul\":13454:13568   */\n      swap2\n      swap1\n      pop\n      jump\t// out\n        /* \"#utility.yul\":13574:13758   */\n    tag_446:\n        /* \"#utility.yul\":13673:13684   */\n      0x00\n        /* \"#utility.yul\":13707:13713   */\n      dup3\n        /* \"#utility.yul\":13702:13705   */\n      dup3\n        /* \"#utility.yul\":13695:13714   */\n      mstore\n        /* \"#utility.yul\":13747:13751   */\n      0x20\n        /* \"#utility.yul\":13742:13745   */\n      dup3\n        /* \"#utility.yul\":13738:13752   */\n      add\n        /* \"#utility.yul\":13723:13752   */\n      swap1\n      pop\n        /* \"#utility.yul\":13574:13758   */\n      swap3\n      swap2\n      pop\n      pop\n      jump\t// out\n        /* \"#utility.yul\":13764:13896   */\n    tag_447:\n        /* \"#utility.yul\":13831:13835   */\n      0x00\n        /* \"#utility.yul\":13854:13857   */\n      dup2\n        /* \"#utility.yul\":13846:13857   */\n      swap1\n      pop\n        /* \"#utility.yul\":13884:13888   */\n      0x20\n        /* \"#utility.yul\":13879:13882   */\n      dup3\n        /* \"#utility.yul\":13875:13889   */\n      add\n        /* \"#utility.yul\":13867:13889   */\n      swap1\n      pop\n        /* \"#utility.yul\":13764:13896   */\n      swap2\n      swap1\n      pop\n      jump\t// out\n        /* \"#utility.yul\":13902:14010   */\n    tag_448:\n        /* \"#utility.yul\":13979:14003   */\n      tag_635\n        /* \"#utility.yul\":13997:14002   */\n      dup2\n        /* \"#utility.yul\":13979:14003   */\n      tag_409\n      jump\t// in\n    tag_635:\n        /* \"#utility.yul\":13974:13977   */\n      dup3\n        /* \"#utility.yul\":13967:14004   */\n      mstore\n        /* \"#utility.yul\":13902:14010   */\n      pop\n      pop\n      jump\t// out\n        /* \"#utility.yul\":14016:14195   */\n    tag_449:\n        /* \"#utility.yul\":14085:14095   */\n      0x00\n        /* \"#utility.yul\":14106:14152   */\n      tag_637\n        /* \"#utility.yul\":14148:14151   */\n      dup4\n        /* \"#utility.yul\":14140:14146   */\n      dup4\n        /* \"#utility.yul\":14106:14152   */\n      tag_448\n      jump\t// in\n    tag_637:\n        /* \"#utility.yul\":14184:14188   */\n      0x20\n        /* \"#utility.yul\":14179:14182   */\n      dup4\n        /* \"#utility.yul\":14175:14189   */\n      add\n        /* \"#utility.yul\":14161:14189   */\n      swap1\n      pop\n        /* \"#utility.yul\":14016:14195   */\n      swap3\n      swap2\n      pop\n      pop\n      jump\t// out\n        /* \"#utility.yul\":14201:14314   */\n    tag_450:\n        /* \"#utility.yul\":14271:14275   */\n      0x00\n        /* \"#utility.yul\":14303:14307   */\n      0x20\n        /* \"#utility.yul\":14298:14301   */\n      dup3\n        /* \"#utility.yul\":14294:14308   */\n      add\n        /* \"#utility.yul\":14286:14308   */\n      swap1\n      pop\n        /* \"#utility.yul\":14201:14314   */\n      swap2\n      swap1\n      pop\n      jump\t// out\n        /* \"#utility.yul\":14350:15082   */\n    tag_451:\n        /* \"#utility.yul\":14469:14472   */\n      0x00\n        /* \"#utility.yul\":14498:14552   */\n      tag_640\n        /* \"#utility.yul\":14546:14551   */\n      dup3\n        /* \"#utility.yul\":14498:14552   */\n      tag_445\n      jump\t// in\n    tag_640:\n        /* \"#utility.yul\":14568:14654   */\n      tag_641\n        /* \"#utility.yul\":14647:14653   */\n      dup2\n        /* \"#utility.yul\":14642:14645   */\n      dup6\n        /* \"#utility.yul\":14568:14654   */\n      tag_446\n      jump\t// in\n    tag_641:\n        /* \"#utility.yul\":14561:14654   */\n      swap4\n      pop\n        /* \"#utility.yul\":14678:14734   */\n      tag_642\n        /* \"#utility.yul\":14728:14733   */\n      dup4\n        /* \"#utility.yul\":14678:14734   */\n      tag_447\n      jump\t// in\n    tag_642:\n        /* \"#utility.yul\":14757:14764   */\n      dup1\n        /* \"#utility.yul\":14788:14789   */\n      0x00\n        /* \"#utility.yul\":14773:15057   */\n    tag_643:\n        /* \"#utility.yul\":14798:14804   */\n      dup4\n        /* \"#utility.yul\":14795:14796   */\n      dup2\n        /* \"#utility.yul\":14792:14805   */\n      lt\n        /* \"#utility.yul\":14773:15057   */\n      iszero\n      tag_645\n      jumpi\n        /* \"#utility.yul\":14874:14880   */\n      dup2\n        /* \"#utility.yul\":14868:14881   */\n      mload\n        /* \"#utility.yul\":14901:14964   */\n      tag_646\n        /* \"#utility.yul\":14960:14963   */\n      dup9\n        /* \"#utility.yul\":14945:14958   */\n      dup3\n        /* \"#utility.yul\":14901:14964   */\n      tag_449\n      jump\t// in\n    tag_646:\n        /* \"#utility.yul\":14894:14964   */\n      swap8\n      pop\n        /* \"#utility.yul\":14987:15047   */\n      tag_647\n        /* \"#utility.yul\":15040:15046   */\n      dup4\n        /* \"#utility.yul\":14987:15047   */\n      tag_450\n      jump\t// in\n    tag_647:\n        /* \"#utility.yul\":14977:15047   */\n      swap3\n      pop\n        /* \"#utility.yul\":14833:15057   */\n      pop\n        /* \"#utility.yul\":14820:14821   */\n      0x01\n        /* \"#utility.yul\":14817:14818   */\n      dup2\n        /* \"#utility.yul\":14813:14822   */\n      add\n        /* \"#utility.yul\":14808:14822   */\n      swap1\n      pop\n        /* \"#utility.yul\":14773:15057   */\n      jump(tag_643)\n    tag_645:\n        /* \"#utility.yul\":14777:14791   */\n      pop\n        /* \"#utility.yul\":15073:15076   */\n      dup6\n        /* \"#utility.yul\":15066:15076   */\n      swap4\n      pop\n        /* \"#utility.yul\":14474:15082   */\n      pop\n      pop\n      pop\n        /* \"#utility.yul\":14350:15082   */\n      swap3\n      swap2\n      pop\n      pop\n      jump\t// out\n        /* \"#utility.yul\":15088:15461   */\n    tag_133:\n        /* \"#utility.yul\":15231:15235   */\n      0x00\n        /* \"#utility.yul\":15269:15271   */\n      0x20\n        /* \"#utility.yul\":15258:15267   */\n      dup3\n        /* \"#utility.yul\":15254:15272   */\n      add\n        /* \"#utility.yul\":15246:15272   */\n      swap1\n      pop\n        /* \"#utility.yul\":15318:15327   */\n      dup2\n        /* \"#utility.yul\":15312:15316   */\n      dup2\n        /* \"#utility.yul\":15308:15328   */\n      sub\n        /* \"#utility.yul\":15304:15305   */\n      0x00\n        /* \"#utility.yul\":15293:15302   */\n      dup4\n        /* \"#utility.yul\":15289:15306   */\n      add\n        /* \"#utility.yul\":15282:15329   */\n      mstore\n        /* \"#utility.yul\":15346:15454   */\n      tag_649\n        /* \"#utility.yul\":15449:15453   */\n      dup2\n        /* \"#utility.yul\":15440:15446   */\n      dup5\n        /* \"#utility.yul\":15346:15454   */\n      tag_451\n      jump\t// in\n    tag_649:\n        /* \"#utility.yul\":15338:15454   */\n      swap1\n      pop\n        /* \"#utility.yul\":15088:15461   */\n      swap3\n      swap2\n      pop\n      pop\n      jump\t// out\n        /* \"#utility.yul\":15467:15647   */\n    tag_452:\n        /* \"#utility.yul\":15515:15592   */\n      0x4e487b7100000000000000000000000000000000000000000000000000000000\n        /* \"#utility.yul\":15512:15513   */\n      0x00\n        /* \"#utility.yul\":15505:15593   */\n      mstore\n        /* \"#utility.yul\":15612:15616   */\n      0x11\n        /* \"#utility.yul\":15609:15610   */\n      0x04\n        /* \"#utility.yul\":15602:15617   */\n      mstore\n        /* \"#utility.yul\":15636:15640   */\n      0x24\n        /* \"#utility.yul\":15633:15634   */\n      0x00\n        /* \"#utility.yul\":15626:15641   */\n      revert\n        /* \"#utility.yul\":15653:15844   */\n    tag_148:\n        /* \"#utility.yul\":15693:15696   */\n      0x00\n        /* \"#utility.yul\":15712:15732   */\n      tag_652\n        /* \"#utility.yul\":15730:15731   */\n      dup3\n        /* \"#utility.yul\":15712:15732   */\n      tag_416\n      jump\t// in\n    tag_652:\n        /* \"#utility.yul\":15707:15732   */\n      swap2\n      pop\n        /* \"#utility.yul\":15746:15766   */\n      tag_653\n        /* \"#utility.yul\":15764:15765   */\n      dup4\n        /* \"#utility.yul\":15746:15766   */\n      tag_416\n      jump\t// in\n    tag_653:\n        /* \"#utility.yul\":15741:15766   */\n      swap3\n      pop\n        /* \"#utility.yul\":15789:15790   */\n      dup3\n        /* \"#utility.yul\":15786:15787   */\n      dup3\n        /* \"#utility.yul\":15782:15791   */\n      add\n        /* \"#utility.yul\":15775:15791   */\n      swap1\n      pop\n        /* \"#utility.yul\":15810:15813   */\n      dup1\n        /* \"#utility.yul\":15807:15808   */\n      dup3\n        /* \"#utility.yul\":15804:15814   */\n      gt\n        /* \"#utility.yul\":15801:15837   */\n      iszero\n      tag_654\n      jumpi\n        /* \"#utility.yul\":15817:15835   */\n      tag_655\n      tag_452\n      jump\t// in\n    tag_655:\n        /* \"#utility.yul\":15801:15837   */\n    tag_654:\n        /* \"#utility.yul\":15653:15844   */\n      swap3\n      swap2\n      pop\n      pop\n      jump\t// out\n        /* \"#utility.yul\":15850:16044   */\n    tag_152:\n        /* \"#utility.yul\":15890:15894   */\n      0x00\n        /* \"#utility.yul\":15910:15930   */\n      tag_657\n        /* \"#utility.yul\":15928:15929   */\n      dup3\n        /* \"#utility.yul\":15910:15930   */\n      tag_416\n      jump\t// in\n    tag_657:\n        /* \"#utility.yul\":15905:15930   */\n      swap2\n      pop\n        /* \"#utility.yul\":15944:15964   */\n      tag_658\n        /* \"#utility.yul\":15962:15963   */\n      dup4\n        /* \"#utility.yul\":15944:15964   */\n      tag_416\n      jump\t// in\n    tag_658:\n        /* \"#utility.yul\":15939:15964   */\n      swap3\n      pop\n        /* \"#utility.yul\":15988:15989   */\n      dup3\n        /* \"#utility.yul\":15985:15986   */\n      dup3\n        /* \"#utility.yul\":15981:15990   */\n      sub\n        /* \"#utility.yul\":15973:15990   */\n      swap1\n      pop\n        /* \"#utility.yul\":16012:16013   */\n      dup2\n        /* \"#utility.yul\":16006:16010   */\n      dup2\n        /* \"#utility.yul\":16003:16014   */\n      gt\n        /* \"#utility.yul\":16000:16037   */\n      iszero\n      tag_659\n      jumpi\n        /* \"#utility.yul\":16017:16035   */\n      tag_660\n      tag_452\n      jump\t// in\n    tag_660:\n        /* \"#utility.yul\":16000:16037   */\n    tag_659:\n        /* \"#utility.yul\":15850:16044   */\n      swap3\n      swap2\n      pop\n      pop\n      jump\t// out\n        /* \"#utility.yul\":16050:16220   */\n    tag_453:\n        /* \"#utility.yul\":16190:16212   */\n      0x4e6f7420656e6f756768206c6971756964697479000000000000000000000000\n        /* \"#utility.yul\":16186:16187   */\n      0x00\n        /* \"#utility.yul\":16178:16184   */\n      dup3\n        /* \"#utility.yul\":16174:16188   */\n      add\n        /* \"#utility.yul\":16167:16213   */\n      mstore\n        /* \"#utility.yul\":16050:16220   */\n      pop\n      jump\t// out\n        /* \"#utility.yul\":16226:16592   */\n    tag_454:\n        /* \"#utility.yul\":16368:16371   */\n      0x00\n        /* \"#utility.yul\":16389:16456   */\n      tag_663\n        /* \"#utility.yul\":16453:16455   */\n      0x14\n        /* \"#utility.yul\":16448:16451   */\n      dup4\n        /* \"#utility.yul\":16389:16456   */\n      tag_442\n      jump\t// in\n    tag_663:\n        /* \"#utility.yul\":16382:16456   */\n      swap2\n      pop\n        /* \"#utility.yul\":16465:16558   */\n      tag_664\n        /* \"#utility.yul\":16554:16557   */\n      dup3\n        /* \"#utility.yul\":16465:16558   */\n      tag_453\n      jump\t// in\n    tag_664:\n        /* \"#utility.yul\":16583:16585   */\n      0x20\n        /* \"#utility.yul\":16578:16581   */\n      dup3\n        /* \"#utility.yul\":16574:16586   */\n      add\n        /* \"#utility.yul\":16567:16586   */\n      swap1\n      pop\n        /* \"#utility.yul\":16226:16592   */\n      swap2\n      swap1\n      pop\n      jump\t// out\n        /* \"#utility.yul\":16598:17017   */\n    tag_178:\n        /* \"#utility.yul\":16764:16768   */\n      0x00\n        /* \"#utility.yul\":16802:16804   */\n      0x20\n        /* \"#utility.yul\":16791:16800   */\n      dup3\n        /* \"#utility.yul\":16787:16805   */\n      add\n        /* \"#utility.yul\":16779:16805   */\n      swap1\n      pop\n        /* \"#utility.yul\":16851:16860   */\n      dup2\n        /* \"#utility.yul\":16845:16849   */\n      dup2\n        /* \"#utility.yul\":16841:16861   */\n      sub\n        /* \"#utility.yul\":16837:16838   */\n      0x00\n        /* \"#utility.yul\":16826:16835   */\n      dup4\n        /* \"#utility.yul\":16822:16839   */\n      add\n        /* \"#utility.yul\":16815:16862   */\n      mstore\n        /* \"#utility.yul\":16879:17010   */\n      tag_666\n        /* \"#utility.yul\":17005:17009   */\n      dup2\n        /* \"#utility.yul\":16879:17010   */\n      tag_454\n      jump\t// in\n    tag_666:\n        /* \"#utility.yul\":16871:17010   */\n      swap1\n      pop\n        /* \"#utility.yul\":16598:17017   */\n      swap2\n      swap1\n      pop\n      jump\t// out\n        /* \"#utility.yul\":17023:17191   */\n    tag_455:\n        /* \"#utility.yul\":17163:17183   */\n      0x4e6f7420746865206c6f636b206f776e65720000000000000000000000000000\n        /* \"#utility.yul\":17159:17160   */\n      0x00\n        /* \"#utility.yul\":17151:17157   */\n      dup3\n        /* \"#utility.yul\":17147:17161   */\n      add\n        /* \"#utility.yul\":17140:17184   */\n      mstore\n        /* \"#utility.yul\":17023:17191   */\n      pop\n      jump\t// out\n        /* \"#utility.yul\":17197:17563   */\n    tag_456:\n        /* \"#utility.yul\":17339:17342   */\n      0x00\n        /* \"#utility.yul\":17360:17427   */\n      tag_669\n        /* \"#utility.yul\":17424:17426   */\n      0x12\n        /* \"#utility.yul\":17419:17422   */\n      dup4\n        /* \"#utility.yul\":17360:17427   */\n      tag_442\n      jump\t// in\n    tag_669:\n        /* \"#utility.yul\":17353:17427   */\n      swap2\n      pop\n        /* \"#utility.yul\":17436:17529   */\n      tag_670\n        /* \"#utility.yul\":17525:17528   */\n      dup3\n        /* \"#utility.yul\":17436:17529   */\n      tag_455\n      jump\t// in\n    tag_670:\n        /* \"#utility.yul\":17554:17556   */\n      0x20\n        /* \"#utility.yul\":17549:17552   */\n      dup3\n        /* \"#utility.yul\":17545:17557   */\n      add\n        /* \"#utility.yul\":17538:17557   */\n      swap1\n      pop\n        /* \"#utility.yul\":17197:17563   */\n      swap2\n      swap1\n      pop\n      jump\t// out\n        /* \"#utility.yul\":17569:17988   */\n    tag_190:\n        /* \"#utility.yul\":17735:17739   */\n      0x00\n        /* \"#utility.yul\":17773:17775   */\n      0x20\n        /* \"#utility.yul\":17762:17771   */\n      dup3\n        /* \"#utility.yul\":17758:17776   */\n      add\n        /* \"#utility.yul\":17750:17776   */\n      swap1\n      pop\n        /* \"#utility.yul\":17822:17831   */\n      dup2\n        /* \"#utility.yul\":17816:17820   */\n      dup2\n        /* \"#utility.yul\":17812:17832   */\n      sub\n        /* \"#utility.yul\":17808:17809   */\n      0x00\n        /* \"#utility.yul\":17797:17806   */\n      dup4\n        /* \"#utility.yul\":17793:17810   */\n      add\n        /* \"#utility.yul\":17786:17833   */\n      mstore\n        /* \"#utility.yul\":17850:17981   */\n      tag_672\n        /* \"#utility.yul\":17976:17980   */\n      dup2\n        /* \"#utility.yul\":17850:17981   */\n      tag_456\n      jump\t// in\n    tag_672:\n        /* \"#utility.yul\":17842:17981   */\n      swap1\n      pop\n        /* \"#utility.yul\":17569:17988   */\n      swap2\n      swap1\n      pop\n      jump\t// out\n        /* \"#utility.yul\":17994:18174   */\n    tag_197:\n        /* \"#utility.yul\":18042:18119   */\n      0x4e487b7100000000000000000000000000000000000000000000000000000000\n        /* \"#utility.yul\":18039:18040   */\n      0x00\n        /* \"#utility.yul\":18032:18120   */\n      mstore\n        /* \"#utility.yul\":18139:18143   */\n      0x32\n        /* \"#utility.yul\":18136:18137   */\n      0x04\n        /* \"#utility.yul\":18129:18144   */\n      mstore\n        /* \"#utility.yul\":18163:18167   */\n      0x24\n        /* \"#utility.yul\":18160:18161   */\n      0x00\n        /* \"#utility.yul\":18153:18168   */\n      revert\n        /* \"#utility.yul\":18180:18603   */\n    tag_207:\n        /* \"#utility.yul\":18321:18325   */\n      0x00\n        /* \"#utility.yul\":18359:18361   */\n      0x40\n        /* \"#utility.yul\":18348:18357   */\n      dup3\n        /* \"#utility.yul\":18344:18362   */\n      add\n        /* \"#utility.yul\":18336:18362   */\n      swap1\n      pop\n        /* \"#utility.yul\":18408:18417   */\n      dup2\n        /* \"#utility.yul\":18402:18406   */\n      dup2\n        /* \"#utility.yul\":18398:18418   */\n      sub\n        /* \"#utility.yul\":18394:18395   */\n      0x00\n        /* \"#utility.yul\":18383:18392   */\n      dup4\n        /* \"#utility.yul\":18379:18396   */\n      add\n        /* \"#utility.yul\":18372:18419   */\n      mstore\n        /* \"#utility.yul\":18436:18514   */\n      tag_675\n        /* \"#utility.yul\":18509:18513   */\n      dup2\n        /* \"#utility.yul\":18500:18506   */\n      dup6\n        /* \"#utility.yul\":18436:18514   */\n      tag_444\n      jump\t// in\n    tag_675:\n        /* \"#utility.yul\":18428:18514   */\n      swap1\n      pop\n        /* \"#utility.yul\":18524:18596   */\n      tag_676\n        /* \"#utility.yul\":18592:18594   */\n      0x20\n        /* \"#utility.yul\":18581:18590   */\n      dup4\n        /* \"#utility.yul\":18577:18595   */\n      add\n        /* \"#utility.yul\":18568:18574   */\n      dup5\n        /* \"#utility.yul\":18524:18596   */\n      tag_417\n      jump\t// in\n    tag_676:\n        /* \"#utility.yul\":18180:18603   */\n      swap4\n      swap3\n      pop\n      pop\n      pop\n      jump\t// out\n        /* \"#utility.yul\":18609:18788   */\n    tag_457:\n        /* \"#utility.yul\":18749:18780   */\n      0x416d6f756e74206d7573742062652067726561746572207468616e2030000000\n        /* \"#utility.yul\":18745:18746   */\n      0x00\n        /* \"#utility.yul\":18737:18743   */\n      dup3\n        /* \"#utility.yul\":18733:18747   */\n      add\n        /* \"#utility.yul\":18726:18781   */\n      mstore\n        /* \"#utility.yul\":18609:18788   */\n      pop\n      jump\t// out\n        /* \"#utility.yul\":18794:19160   */\n    tag_458:\n        /* \"#utility.yul\":18936:18939   */\n      0x00\n        /* \"#utility.yul\":18957:19024   */\n      tag_679\n        /* \"#utility.yul\":19021:19023   */\n      0x1d\n        /* \"#utility.yul\":19016:19019   */\n      dup4\n        /* \"#utility.yul\":18957:19024   */\n      tag_442\n      jump\t// in\n    tag_679:\n        /* \"#utility.yul\":18950:19024   */\n      swap2\n      pop\n        /* \"#utility.yul\":19033:19126   */\n      tag_680\n        /* \"#utility.yul\":19122:19125   */\n      dup3\n        /* \"#utility.yul\":19033:19126   */\n      tag_457\n      jump\t// in\n    tag_680:\n        /* \"#utility.yul\":19151:19153   */\n      0x20\n        /* \"#utility.yul\":19146:19149   */\n      dup3\n        /* \"#utility.yul\":19142:19154   */\n      add\n        /* \"#utility.yul\":19135:19154   */\n      swap1\n      pop\n        /* \"#utility.yul\":18794:19160   */\n      swap2\n      swap1\n      pop\n      jump\t// out\n        /* \"#utility.yul\":19166:19585   */\n    tag_224:\n        /* \"#utility.yul\":19332:19336   */\n      0x00\n        /* \"#utility.yul\":19370:19372   */\n      0x20\n        /* \"#utility.yul\":19359:19368   */\n      dup3\n        /* \"#utility.yul\":19355:19373   */\n      add\n        /* \"#utility.yul\":19347:19373   */\n      swap1\n      pop\n        /* \"#utility.yul\":19419:19428   */\n      dup2\n        /* \"#utility.yul\":19413:19417   */\n      dup2\n        /* \"#utility.yul\":19409:19429   */\n      sub\n        /* \"#utility.yul\":19405:19406   */\n      0x00\n        /* \"#utility.yul\":19394:19403   */\n      dup4\n        /* \"#utility.yul\":19390:19407   */\n      add\n        /* \"#utility.yul\":19383:19430   */\n      mstore\n        /* \"#utility.yul\":19447:19578   */\n      tag_682\n        /* \"#utility.yul\":19573:19577   */\n      dup2\n        /* \"#utility.yul\":19447:19578   */\n      tag_458\n      jump\t// in\n    tag_682:\n        /* \"#utility.yul\":19439:19578   */\n      swap1\n      pop\n        /* \"#utility.yul\":19166:19585   */\n      swap2\n      swap1\n      pop\n      jump\t// out\n        /* \"#utility.yul\":19591:19923   */\n    tag_230:\n        /* \"#utility.yul\":19712:19716   */\n      0x00\n        /* \"#utility.yul\":19750:19752   */\n      0x40\n        /* \"#utility.yul\":19739:19748   */\n      dup3\n        /* \"#utility.yul\":19735:19753   */\n      add\n        /* \"#utility.yul\":19727:19753   */\n      swap1\n      pop\n        /* \"#utility.yul\":19763:19834   */\n      tag_684\n        /* \"#utility.yul\":19831:19832   */\n      0x00\n        /* \"#utility.yul\":19820:19829   */\n      dup4\n        /* \"#utility.yul\":19816:19833   */\n      add\n        /* \"#utility.yul\":19807:19813   */\n      dup6\n        /* \"#utility.yul\":19763:19834   */\n      tag_410\n      jump\t// in\n    tag_684:\n        /* \"#utility.yul\":19844:19916   */\n      tag_685\n        /* \"#utility.yul\":19912:19914   */\n      0x20\n        /* \"#utility.yul\":19901:19910   */\n      dup4\n        /* \"#utility.yul\":19897:19915   */\n      add\n        /* \"#utility.yul\":19888:19894   */\n      dup5\n        /* \"#utility.yul\":19844:19916   */\n      tag_417\n      jump\t// in\n    tag_685:\n        /* \"#utility.yul\":19591:19923   */\n      swap4\n      swap3\n      pop\n      pop\n      pop\n      jump\t// out\n        /* \"#utility.yul\":19929:20014   */\n    tag_459:\n        /* \"#utility.yul\":19974:19981   */\n      0x00\n        /* \"#utility.yul\":20003:20008   */\n      dup2\n        /* \"#utility.yul\":19992:20008   */\n      swap1\n      pop\n        /* \"#utility.yul\":19929:20014   */\n      swap2\n      swap1\n      pop\n      jump\t// out\n        /* \"#utility.yul\":20020:20121   */\n    tag_460:\n        /* \"#utility.yul\":20056:20063   */\n      0x00\n        /* \"#utility.yul\":20096:20114   */\n      0xffffffffffffffff\n        /* \"#utility.yul\":20089:20094   */\n      dup3\n        /* \"#utility.yul\":20085:20115   */\n      and\n        /* \"#utility.yul\":20074:20115   */\n      swap1\n      pop\n        /* \"#utility.yul\":20020:20121   */\n      swap2\n      swap1\n      pop\n      jump\t// out\n        /* \"#utility.yul\":20127:20187   */\n    tag_461:\n        /* \"#utility.yul\":20155:20158   */\n      0x00\n        /* \"#utility.yul\":20176:20181   */\n      dup2\n        /* \"#utility.yul\":20169:20181   */\n      swap1\n      pop\n        /* \"#utility.yul\":20127:20187   */\n      swap2\n      swap1\n      pop\n      jump\t// out\n        /* \"#utility.yul\":20193:20349   */\n    tag_462:\n        /* \"#utility.yul\":20250:20259   */\n      0x00\n        /* \"#utility.yul\":20283:20343   */\n      tag_690\n        /* \"#utility.yul\":20300:20342   */\n      tag_691\n        /* \"#utility.yul\":20309:20341   */\n      tag_692\n        /* \"#utility.yul\":20335:20340   */\n      dup5\n        /* \"#utility.yul\":20309:20341   */\n      tag_459\n      jump\t// in\n    tag_692:\n        /* \"#utility.yul\":20300:20342   */\n      tag_461\n      jump\t// in\n    tag_691:\n        /* \"#utility.yul\":20283:20343   */\n      tag_460\n      jump\t// in\n    tag_690:\n        /* \"#utility.yul\":20270:20343   */\n      swap1\n      pop\n        /* \"#utility.yul\":20193:20349   */\n      swap2\n      swap1\n      pop\n      jump\t// out\n        /* \"#utility.yul\":20355:20500   */\n    tag_463:\n        /* \"#utility.yul\":20449:20493   */\n      tag_694\n        /* \"#utility.yul\":20487:20492   */\n      dup2\n        /* \"#utility.yul\":20449:20493   */\n      tag_462\n      jump\t// in\n    tag_694:\n        /* \"#utility.yul\":20444:20447   */\n      dup3\n        /* \"#utility.yul\":20437:20494   */\n      mstore\n        /* \"#utility.yul\":20355:20500   */\n      pop\n      pop\n      jump\t// out\n        /* \"#utility.yul\":20506:20742   */\n    tag_260:\n        /* \"#utility.yul\":20606:20610   */\n      0x00\n        /* \"#utility.yul\":20644:20646   */\n      0x20\n        /* \"#utility.yul\":20633:20642   */\n      dup3\n        /* \"#utility.yul\":20629:20647   */\n      add\n        /* \"#utility.yul\":20621:20647   */\n      swap1\n      pop\n        /* \"#utility.yul\":20657:20735   */\n      tag_696\n        /* \"#utility.yul\":20732:20733   */\n      0x00\n        /* \"#utility.yul\":20721:20730   */\n      dup4\n        /* \"#utility.yul\":20717:20734   */\n      add\n        /* \"#utility.yul\":20708:20714   */\n      dup5\n        /* \"#utility.yul\":20657:20735   */\n      tag_463\n      jump\t// in\n    tag_696:\n        /* \"#utility.yul\":20506:20742   */\n      swap3\n      swap2\n      pop\n      pop\n      jump\t// out\n        /* \"#utility.yul\":20748:20870   */\n    tag_464:\n        /* \"#utility.yul\":20821:20845   */\n      tag_698\n        /* \"#utility.yul\":20839:20844   */\n      dup2\n        /* \"#utility.yul\":20821:20845   */\n      tag_427\n      jump\t// in\n    tag_698:\n        /* \"#utility.yul\":20814:20819   */\n      dup2\n        /* \"#utility.yul\":20811:20846   */\n      eq\n        /* \"#utility.yul\":20801:20864   */\n      tag_699\n      jumpi\n        /* \"#utility.yul\":20860:20861   */\n      0x00\n        /* \"#utility.yul\":20857:20858   */\n      dup1\n        /* \"#utility.yul\":20850:20862   */\n      revert\n        /* \"#utility.yul\":20801:20864   */\n    tag_699:\n        /* \"#utility.yul\":20748:20870   */\n      pop\n      jump\t// out\n        /* \"#utility.yul\":20876:21019   */\n    tag_465:\n        /* \"#utility.yul\":20933:20938   */\n      0x00\n        /* \"#utility.yul\":20964:20970   */\n      dup2\n        /* \"#utility.yul\":20958:20971   */\n      mload\n        /* \"#utility.yul\":20949:20971   */\n      swap1\n      pop\n        /* \"#utility.yul\":20980:21013   */\n      tag_701\n        /* \"#utility.yul\":21007:21012   */\n      dup2\n        /* \"#utility.yul\":20980:21013   */\n      tag_464\n      jump\t// in\n    tag_701:\n        /* \"#utility.yul\":20876:21019   */\n      swap3\n      swap2\n      pop\n      pop\n      jump\t// out\n        /* \"#utility.yul\":21025:21376   */\n    tag_272:\n        /* \"#utility.yul\":21095:21101   */\n      0x00\n        /* \"#utility.yul\":21144:21146   */\n      0x20\n        /* \"#utility.yul\":21132:21141   */\n      dup3\n        /* \"#utility.yul\":21123:21130   */\n      dup5\n        /* \"#utility.yul\":21119:21142   */\n      sub\n        /* \"#utility.yul\":21115:21147   */\n      slt\n        /* \"#utility.yul\":21112:21231   */\n      iszero\n      tag_703\n      jumpi\n        /* \"#utility.yul\":21150:21229   */\n      tag_704\n      tag_412\n      jump\t// in\n    tag_704:\n        /* \"#utility.yul\":21112:21231   */\n    tag_703:\n        /* \"#utility.yul\":21270:21271   */\n      0x00\n        /* \"#utility.yul\":21295:21359   */\n      tag_705\n        /* \"#utility.yul\":21351:21358   */\n      dup5\n        /* \"#utility.yul\":21342:21348   */\n      dup3\n        /* \"#utility.yul\":21331:21340   */\n      dup6\n        /* \"#utility.yul\":21327:21349   */\n      add\n        /* \"#utility.yul\":21295:21359   */\n      tag_465\n      jump\t// in\n    tag_705:\n        /* \"#utility.yul\":21285:21359   */\n      swap2\n      pop\n        /* \"#utility.yul\":21241:21369   */\n      pop\n        /* \"#utility.yul\":21025:21376   */\n      swap3\n      swap2\n      pop\n      pop\n      jump\t// out\n        /* \"#utility.yul\":21382:21472   */\n    tag_466:\n        /* \"#utility.yul\":21416:21423   */\n      0x00\n        /* \"#utility.yul\":21459:21464   */\n      dup2\n        /* \"#utility.yul\":21452:21465   */\n      iszero\n        /* \"#utility.yul\":21445:21466   */\n      iszero\n        /* \"#utility.yul\":21434:21466   */\n      swap1\n      pop\n        /* \"#utility.yul\":21382:21472   */\n      swap2\n      swap1\n      pop\n      jump\t// out\n        /* \"#utility.yul\":21478:21594   */\n    tag_467:\n        /* \"#utility.yul\":21548:21569   */\n      tag_708\n        /* \"#utility.yul\":21563:21568   */\n      dup2\n        /* \"#utility.yul\":21548:21569   */\n      tag_466\n      jump\t// in\n    tag_708:\n        /* \"#utility.yul\":21541:21546   */\n      dup2\n        /* \"#utility.yul\":21538:21570   */\n      eq\n        /* \"#utility.yul\":21528:21588   */\n      tag_709\n      jumpi\n        /* \"#utility.yul\":21584:21585   */\n      0x00\n        /* \"#utility.yul\":21581:21582   */\n      dup1\n        /* \"#utility.yul\":21574:21586   */\n      revert\n        /* \"#utility.yul\":21528:21588   */\n    tag_709:\n        /* \"#utility.yul\":21478:21594   */\n      pop\n      jump\t// out\n        /* \"#utility.yul\":21600:21737   */\n    tag_468:\n        /* \"#utility.yul\":21654:21659   */\n      0x00\n        /* \"#utility.yul\":21685:21691   */\n      dup2\n        /* \"#utility.yul\":21679:21692   */\n      mload\n        /* \"#utility.yul\":21670:21692   */\n      swap1\n      pop\n        /* \"#utility.yul\":21701:21731   */\n      tag_711\n        /* \"#utility.yul\":21725:21730   */\n      dup2\n        /* \"#utility.yul\":21701:21731   */\n      tag_467\n      jump\t// in\n    tag_711:\n        /* \"#utility.yul\":21600:21737   */\n      swap3\n      swap2\n      pop\n      pop\n      jump\t// out\n        /* \"#utility.yul\":21743:22088   */\n    tag_292:\n        /* \"#utility.yul\":21810:21816   */\n      0x00\n        /* \"#utility.yul\":21859:21861   */\n      0x20\n        /* \"#utility.yul\":21847:21856   */\n      dup3\n        /* \"#utility.yul\":21838:21845   */\n      dup5\n        /* \"#utility.yul\":21834:21857   */\n      sub\n        /* \"#utility.yul\":21830:21862   */\n      slt\n        /* \"#utility.yul\":21827:21946   */\n      iszero\n      tag_713\n      jumpi\n        /* \"#utility.yul\":21865:21944   */\n      tag_714\n      tag_412\n      jump\t// in\n    tag_714:\n        /* \"#utility.yul\":21827:21946   */\n    tag_713:\n        /* \"#utility.yul\":21985:21986   */\n      0x00\n        /* \"#utility.yul\":22010:22071   */\n      tag_715\n        /* \"#utility.yul\":22063:22070   */\n      dup5\n        /* \"#utility.yul\":22054:22060   */\n      dup3\n        /* \"#utility.yul\":22043:22052   */\n      dup6\n        /* \"#utility.yul\":22039:22061   */\n      add\n        /* \"#utility.yul\":22010:22071   */\n      tag_468\n      jump\t// in\n    tag_715:\n        /* \"#utility.yul\":22000:22071   */\n      swap2\n      pop\n        /* \"#utility.yul\":21956:22081   */\n      pop\n        /* \"#utility.yul\":21743:22088   */\n      swap3\n      swap2\n      pop\n      pop\n      jump\t// out\n        /* \"#utility.yul\":22094:22237   */\n    tag_469:\n        /* \"#utility.yul\":22151:22156   */\n      0x00\n        /* \"#utility.yul\":22182:22188   */\n      dup2\n        /* \"#utility.yul\":22176:22189   */\n      mload\n        /* \"#utility.yul\":22167:22189   */\n      swap1\n      pop\n        /* \"#utility.yul\":22198:22231   */\n      tag_717\n        /* \"#utility.yul\":22225:22230   */\n      dup2\n        /* \"#utility.yul\":22198:22231   */\n      tag_437\n      jump\t// in\n    tag_717:\n        /* \"#utility.yul\":22094:22237   */\n      swap3\n      swap2\n      pop\n      pop\n      jump\t// out\n        /* \"#utility.yul\":22243:22594   */\n    tag_297:\n        /* \"#utility.yul\":22313:22319   */\n      0x00\n        /* \"#utility.yul\":22362:22364   */\n      0x20\n        /* \"#utility.yul\":22350:22359   */\n      dup3\n        /* \"#utility.yul\":22341:22348   */\n      dup5\n        /* \"#utility.yul\":22337:22360   */\n      sub\n        /* \"#utility.yul\":22333:22365   */\n      slt\n        /* \"#utility.yul\":22330:22449   */\n      iszero\n      tag_719\n      jumpi\n        /* \"#utility.yul\":22368:22447   */\n      tag_720\n      tag_412\n      jump\t// in\n    tag_720:\n        /* \"#utility.yul\":22330:22449   */\n    tag_719:\n        /* \"#utility.yul\":22488:22489   */\n      0x00\n        /* \"#utility.yul\":22513:22577   */\n      tag_721\n        /* \"#utility.yul\":22569:22576   */\n      dup5\n        /* \"#utility.yul\":22560:22566   */\n      dup3\n        /* \"#utility.yul\":22549:22558   */\n      dup6\n        /* \"#utility.yul\":22545:22567   */\n      add\n        /* \"#utility.yul\":22513:22577   */\n      tag_469\n      jump\t// in\n    tag_721:\n        /* \"#utility.yul\":22503:22577   */\n      swap2\n      pop\n        /* \"#utility.yul\":22459:22587   */\n      pop\n        /* \"#utility.yul\":22243:22594   */\n      swap3\n      swap2\n      pop\n      pop\n      jump\t// out\n        /* \"#utility.yul\":22600:22685   */\n    tag_470:\n        /* \"#utility.yul\":22645:22652   */\n      0x00\n        /* \"#utility.yul\":22674:22679   */\n      dup2\n        /* \"#utility.yul\":22663:22679   */\n      swap1\n      pop\n        /* \"#utility.yul\":22600:22685   */\n      swap2\n      swap1\n      pop\n      jump\t// out\n        /* \"#utility.yul\":22691:22849   */\n    tag_471:\n        /* \"#utility.yul\":22749:22758   */\n      0x00\n        /* \"#utility.yul\":22782:22843   */\n      tag_724\n        /* \"#utility.yul\":22800:22842   */\n      tag_725\n        /* \"#utility.yul\":22809:22841   */\n      tag_726\n        /* \"#utility.yul\":22835:22840   */\n      dup5\n        /* \"#utility.yul\":22809:22841   */\n      tag_470\n      jump\t// in\n    tag_726:\n        /* \"#utility.yul\":22800:22842   */\n      tag_461\n      jump\t// in\n    tag_725:\n        /* \"#utility.yul\":22782:22843   */\n      tag_416\n      jump\t// in\n    tag_724:\n        /* \"#utility.yul\":22769:22843   */\n      swap1\n      pop\n        /* \"#utility.yul\":22691:22849   */\n      swap2\n      swap1\n      pop\n      jump\t// out\n        /* \"#utility.yul\":22855:23002   */\n    tag_472:\n        /* \"#utility.yul\":22950:22995   */\n      tag_728\n        /* \"#utility.yul\":22989:22994   */\n      dup2\n        /* \"#utility.yul\":22950:22995   */\n      tag_471\n      jump\t// in\n    tag_728:\n        /* \"#utility.yul\":22945:22948   */\n      dup3\n        /* \"#utility.yul\":22938:22996   */\n      mstore\n        /* \"#utility.yul\":22855:23002   */\n      pop\n      pop\n      jump\t// out\n        /* \"#utility.yul\":23008:23815   */\n    tag_299:\n        /* \"#utility.yul\":23257:23261   */\n      0x00\n        /* \"#utility.yul\":23295:23298   */\n      0xc0\n        /* \"#utility.yul\":23284:23293   */\n      dup3\n        /* \"#utility.yul\":23280:23299   */\n      add\n        /* \"#utility.yul\":23272:23299   */\n      swap1\n      pop\n        /* \"#utility.yul\":23309:23380   */\n      tag_730\n        /* \"#utility.yul\":23377:23378   */\n      0x00\n        /* \"#utility.yul\":23366:23375   */\n      dup4\n        /* \"#utility.yul\":23362:23379   */\n      add\n        /* \"#utility.yul\":23353:23359   */\n      dup10\n        /* \"#utility.yul\":23309:23380   */\n      tag_410\n      jump\t// in\n    tag_730:\n        /* \"#utility.yul\":23390:23462   */\n      tag_731\n        /* \"#utility.yul\":23458:23460   */\n      0x20\n        /* \"#utility.yul\":23447:23456   */\n      dup4\n        /* \"#utility.yul\":23443:23461   */\n      add\n        /* \"#utility.yul\":23434:23440   */\n      dup9\n        /* \"#utility.yul\":23390:23462   */\n      tag_417\n      jump\t// in\n    tag_731:\n        /* \"#utility.yul\":23472:23552   */\n      tag_732\n        /* \"#utility.yul\":23548:23550   */\n      0x40\n        /* \"#utility.yul\":23537:23546   */\n      dup4\n        /* \"#utility.yul\":23533:23551   */\n      add\n        /* \"#utility.yul\":23524:23530   */\n      dup8\n        /* \"#utility.yul\":23472:23552   */\n      tag_472\n      jump\t// in\n    tag_732:\n        /* \"#utility.yul\":23562:23642   */\n      tag_733\n        /* \"#utility.yul\":23638:23640   */\n      0x60\n        /* \"#utility.yul\":23627:23636   */\n      dup4\n        /* \"#utility.yul\":23623:23641   */\n      add\n        /* \"#utility.yul\":23614:23620   */\n      dup7\n        /* \"#utility.yul\":23562:23642   */\n      tag_472\n      jump\t// in\n    tag_733:\n        /* \"#utility.yul\":23652:23725   */\n      tag_734\n        /* \"#utility.yul\":23720:23723   */\n      0x80\n        /* \"#utility.yul\":23709:23718   */\n      dup4\n        /* \"#utility.yul\":23705:23724   */\n      add\n        /* \"#utility.yul\":23696:23702   */\n      dup6\n        /* \"#utility.yul\":23652:23725   */\n      tag_410\n      jump\t// in\n    tag_734:\n        /* \"#utility.yul\":23735:23808   */\n      tag_735\n        /* \"#utility.yul\":23803:23806   */\n      0xa0\n        /* \"#utility.yul\":23792:23801   */\n      dup4\n        /* \"#utility.yul\":23788:23807   */\n      add\n        /* \"#utility.yul\":23779:23785   */\n      dup5\n        /* \"#utility.yul\":23735:23808   */\n      tag_417\n      jump\t// in\n    tag_735:\n        /* \"#utility.yul\":23008:23815   */\n      swap8\n      swap7\n      pop\n      pop\n      pop\n      pop\n      pop\n      pop\n      pop\n      jump\t// out\n        /* \"#utility.yul\":23821:23919   */\n    tag_473:\n        /* \"#utility.yul\":23872:23878   */\n      0x00\n        /* \"#utility.yul\":23906:23911   */\n      dup2\n        /* \"#utility.yul\":23900:23912   */\n      mload\n        /* \"#utility.yul\":23890:23912   */\n      swap1\n      pop\n        /* \"#utility.yul\":23821:23919   */\n      swap2\n      swap1\n      pop\n      jump\t// out\n        /* \"#utility.yul\":23925:24072   */\n    tag_474:\n        /* \"#utility.yul\":24026:24037   */\n      0x00\n        /* \"#utility.yul\":24063:24066   */\n      dup2\n        /* \"#utility.yul\":24048:24066   */\n      swap1\n      pop\n        /* \"#utility.yul\":23925:24072   */\n      swap3\n      swap2\n      pop\n      pop\n      jump\t// out\n        /* \"#utility.yul\":24078:24464   */\n    tag_475:\n        /* \"#utility.yul\":24182:24185   */\n      0x00\n        /* \"#utility.yul\":24210:24248   */\n      tag_739\n        /* \"#utility.yul\":24242:24247   */\n      dup3\n        /* \"#utility.yul\":24210:24248   */\n      tag_473\n      jump\t// in\n    tag_739:\n        /* \"#utility.yul\":24264:24352   */\n      tag_740\n        /* \"#utility.yul\":24345:24351   */\n      dup2\n        /* \"#utility.yul\":24340:24343   */\n      dup6\n        /* \"#utility.yul\":24264:24352   */\n      tag_474\n      jump\t// in\n    tag_740:\n        /* \"#utility.yul\":24257:24352   */\n      swap4\n      pop\n        /* \"#utility.yul\":24361:24426   */\n      tag_741\n        /* \"#utility.yul\":24419:24425   */\n      dup2\n        /* \"#utility.yul\":24414:24417   */\n      dup6\n        /* \"#utility.yul\":24407:24411   */\n      0x20\n        /* \"#utility.yul\":24400:24405   */\n      dup7\n        /* \"#utility.yul\":24396:24412   */\n      add\n        /* \"#utility.yul\":24361:24426   */\n      tag_443\n      jump\t// in\n    tag_741:\n        /* \"#utility.yul\":24451:24457   */\n      dup1\n        /* \"#utility.yul\":24446:24449   */\n      dup5\n        /* \"#utility.yul\":24442:24458   */\n      add\n        /* \"#utility.yul\":24435:24458   */\n      swap2\n      pop\n        /* \"#utility.yul\":24186:24464   */\n      pop\n        /* \"#utility.yul\":24078:24464   */\n      swap3\n      swap2\n      pop\n      pop\n      jump\t// out\n        /* \"#utility.yul\":24470:24741   */\n    tag_331:\n        /* \"#utility.yul\":24600:24603   */\n      0x00\n        /* \"#utility.yul\":24622:24715   */\n      tag_743\n        /* \"#utility.yul\":24711:24714   */\n      dup3\n        /* \"#utility.yul\":24702:24708   */\n      dup5\n        /* \"#utility.yul\":24622:24715   */\n      tag_475\n      jump\t// in\n    tag_743:\n        /* \"#utility.yul\":24615:24715   */\n      swap2\n      pop\n        /* \"#utility.yul\":24732:24735   */\n      dup2\n        /* \"#utility.yul\":24725:24735   */\n      swap1\n      pop\n        /* \"#utility.yul\":24470:24741   */\n      swap3\n      swap2\n      pop\n      pop\n      jump\t// out\n        /* \"#utility.yul\":24747:24969   */\n    tag_476:\n        /* \"#utility.yul\":24887:24921   */\n      0x5472616e7366657248656c7065723a204554485f5452414e534645525f464149\n        /* \"#utility.yul\":24883:24884   */\n      0x00\n        /* \"#utility.yul\":24875:24881   */\n      dup3\n        /* \"#utility.yul\":24871:24885   */\n      add\n        /* \"#utility.yul\":24864:24922   */\n      mstore\n        /* \"#utility.yul\":24956:24961   */\n      0x4c45440000000000000000000000000000000000000000000000000000000000\n        /* \"#utility.yul\":24951:24953   */\n      0x20\n        /* \"#utility.yul\":24943:24949   */\n      dup3\n        /* \"#utility.yul\":24939:24954   */\n      add\n        /* \"#utility.yul\":24932:24962   */\n      mstore\n        /* \"#utility.yul\":24747:24969   */\n      pop\n      jump\t// out\n        /* \"#utility.yul\":24975:25341   */\n    tag_477:\n        /* \"#utility.yul\":25117:25120   */\n      0x00\n        /* \"#utility.yul\":25138:25205   */\n      tag_746\n        /* \"#utility.yul\":25202:25204   */\n      0x23\n        /* \"#utility.yul\":25197:25200   */\n      dup4\n        /* \"#utility.yul\":25138:25205   */\n      tag_442\n      jump\t// in\n    tag_746:\n        /* \"#utility.yul\":25131:25205   */\n      swap2\n      pop\n        /* \"#utility.yul\":25214:25307   */\n      tag_747\n        /* \"#utility.yul\":25303:25306   */\n      dup3\n        /* \"#utility.yul\":25214:25307   */\n      tag_476\n      jump\t// in\n    tag_747:\n        /* \"#utility.yul\":25332:25334   */\n      0x40\n        /* \"#utility.yul\":25327:25330   */\n      dup3\n        /* \"#utility.yul\":25323:25335   */\n      add\n        /* \"#utility.yul\":25316:25335   */\n      swap1\n      pop\n        /* \"#utility.yul\":24975:25341   */\n      swap2\n      swap1\n      pop\n      jump\t// out\n        /* \"#utility.yul\":25347:25766   */\n    tag_337:\n        /* \"#utility.yul\":25513:25517   */\n      0x00\n        /* \"#utility.yul\":25551:25553   */\n      0x20\n        /* \"#utility.yul\":25540:25549   */\n      dup3\n        /* \"#utility.yul\":25536:25554   */\n      add\n        /* \"#utility.yul\":25528:25554   */\n      swap1\n      pop\n        /* \"#utility.yul\":25600:25609   */\n      dup2\n        /* \"#utility.yul\":25594:25598   */\n      dup2\n        /* \"#utility.yul\":25590:25610   */\n      sub\n        /* \"#utility.yul\":25586:25587   */\n      0x00\n        /* \"#utility.yul\":25575:25584   */\n      dup4\n        /* \"#utility.yul\":25571:25588   */\n      add\n        /* \"#utility.yul\":25564:25611   */\n      mstore\n        /* \"#utility.yul\":25628:25759   */\n      tag_749\n        /* \"#utility.yul\":25754:25758   */\n      dup2\n        /* \"#utility.yul\":25628:25759   */\n      tag_477\n      jump\t// in\n    tag_749:\n        /* \"#utility.yul\":25620:25759   */\n      swap1\n      pop\n        /* \"#utility.yul\":25347:25766   */\n      swap2\n      swap1\n      pop\n      jump\t// out\n        /* \"#utility.yul\":25772:25953   */\n    tag_478:\n        /* \"#utility.yul\":25912:25945   */\n      0x5472616e7366657248656c7065723a205452414e534645525f4641494c454400\n        /* \"#utility.yul\":25908:25909   */\n      0x00\n        /* \"#utility.yul\":25900:25906   */\n      dup3\n        /* \"#utility.yul\":25896:25910   */\n      add\n        /* \"#utility.yul\":25889:25946   */\n      mstore\n        /* \"#utility.yul\":25772:25953   */\n      pop\n      jump\t// out\n        /* \"#utility.yul\":25959:26325   */\n    tag_479:\n        /* \"#utility.yul\":26101:26104   */\n      0x00\n        /* \"#utility.yul\":26122:26189   */\n      tag_752\n        /* \"#utility.yul\":26186:26188   */\n      0x1f\n        /* \"#utility.yul\":26181:26184   */\n      dup4\n        /* \"#utility.yul\":26122:26189   */\n      tag_442\n      jump\t// in\n    tag_752:\n        /* \"#utility.yul\":26115:26189   */\n      swap2\n      pop\n        /* \"#utility.yul\":26198:26291   */\n      tag_753\n        /* \"#utility.yul\":26287:26290   */\n      dup3\n        /* \"#utility.yul\":26198:26291   */\n      tag_478\n      jump\t// in\n    tag_753:\n        /* \"#utility.yul\":26316:26318   */\n      0x20\n        /* \"#utility.yul\":26311:26314   */\n      dup3\n        /* \"#utility.yul\":26307:26319   */\n      add\n        /* \"#utility.yul\":26300:26319   */\n      swap1\n      pop\n        /* \"#utility.yul\":25959:26325   */\n      swap2\n      swap1\n      pop\n      jump\t// out\n        /* \"#utility.yul\":26331:26750   */\n    tag_375:\n        /* \"#utility.yul\":26497:26501   */\n      0x00\n        /* \"#utility.yul\":26535:26537   */\n      0x20\n        /* \"#utility.yul\":26524:26533   */\n      dup3\n        /* \"#utility.yul\":26520:26538   */\n      add\n        /* \"#utility.yul\":26512:26538   */\n      swap1\n      pop\n        /* \"#utility.yul\":26584:26593   */\n      dup2\n        /* \"#utility.yul\":26578:26582   */\n      dup2\n        /* \"#utility.yul\":26574:26594   */\n      sub\n        /* \"#utility.yul\":26570:26571   */\n      0x00\n        /* \"#utility.yul\":26559:26568   */\n      dup4\n        /* \"#utility.yul\":26555:26572   */\n      add\n        /* \"#utility.yul\":26548:26595   */\n      mstore\n        /* \"#utility.yul\":26612:26743   */\n      tag_755\n        /* \"#utility.yul\":26738:26742   */\n      dup2\n        /* \"#utility.yul\":26612:26743   */\n      tag_479\n      jump\t// in\n    tag_755:\n        /* \"#utility.yul\":26604:26743   */\n      swap1\n      pop\n        /* \"#utility.yul\":26331:26750   */\n      swap2\n      swap1\n      pop\n      jump\t// out\n\n    auxdata: 0xa26469706673582212202a9503c50bec31ca89f5773faa824d61085522dce65a6f7cdf52f37c09f87b1564736f6c634300081a0033\n}\n",
				"bytecode": {
					"linkReferences": {},
					"object": "60a06040523073ffffffffffffffffffffffffffffffffffffffff1660809073ffffffffffffffffffffffffffffffffffffffff168152503480156041575f80fd5b5060015f81905550608051612dfe61006f5f395f818161126f015281816112c4015261147e0152612dfe5ff3fe608060405260043610610169575f3560e01c8063715018a6116100d0578063ad3cb1cc11610089578063ea63a04411610063578063ea63a044146104f9578063f2fde38b14610523578063f8c8765e1461054b578063fc0c546a1461057357610170565b8063ad3cb1cc14610457578063cc51473914610481578063dc0d3dff146104bd57610170565b8063715018a6146103915780638a36ca17146103a75780638da5cb5b146103d15780638dd95002146103fb5780639608088c146104255780639c0e78241461044d57610170565b806352d1902d1161012257806352d1902d146102985780635fcbd285146102c257806369cd61be146102ec5780636b54acd9146103165780636c48ba951461032c5780636d1d59a81461035457610170565b806303fd2a45146101745780631694505e1461019e5780632b5fef2f146101c8578063420d4a021461020457806345d68230146102405780634f1ef2861461027c57610170565b3661017057005b5f80fd5b34801561017f575f80fd5b5061018861059d565b60405161019591906120bd565b60405180910390f35b3480156101a9575f80fd5b506101b26105a3565b6040516101bf91906120bd565b60405180910390f35b3480156101d3575f80fd5b506101ee60048036038101906101e99190612111565b6105bb565b6040516101fb9190612154565b60405180910390f35b34801561020f575f80fd5b5061022a60048036038101906102259190612111565b610694565b6040516102379190612154565b60405180910390f35b34801561024b575f80fd5b5061026660048036038101906102619190612111565b610719565b6040516102739190612154565b60405180910390f35b610296600480360381019061029191906122a9565b61072e565b005b3480156102a3575f80fd5b506102ac61074d565b6040516102b9919061231b565b60405180910390f35b3480156102cd575f80fd5b506102d661077e565b6040516102e391906120bd565b60405180910390f35b3480156102f7575f80fd5b506103006107a3565b60405161030d91906120bd565b60405180910390f35b348015610321575f80fd5b5061032a6107c8565b005b348015610337575f80fd5b50610352600480360381019061034d9190612580565b6108a4565b005b34801561035f575f80fd5b5061037a60048036038101906103759190612111565b610ac1565b604051610388929190612624565b60405180910390f35b34801561039c575f80fd5b506103a5610ae1565b005b3480156103b2575f80fd5b506103bb610af4565b6040516103c891906120bd565b60405180910390f35b3480156103dc575f80fd5b506103e5610b19565b6040516103f291906120bd565b60405180910390f35b348015610406575f80fd5b5061040f610b4e565b60405161041c91906120bd565b60405180910390f35b348015610430575f80fd5b5061044b6004803603810190610446919061264b565b610b66565b005b610455610c74565b005b348015610462575f80fd5b5061046b610dec565b604051610478919061270f565b60405180910390f35b34801561048c575f80fd5b506104a760048036038101906104a29190612111565b610e25565b6040516104b49190612154565b60405180910390f35b3480156104c8575f80fd5b506104e360048036038101906104de919061272f565b610e6b565b6040516104f091906120bd565b60405180910390f35b348015610504575f80fd5b5061050d610ea6565b60405161051a9190612811565b60405180910390f35b34801561052e575f80fd5b5061054960048036038101906105449190612111565b610f31565b005b348015610556575f80fd5b50610571600480360381019061056c919061264b565b610fb5565b005b34801561057e575f80fd5b50610587611248565b60405161059491906120bd565b60405180910390f35b61dead81565b7310ed43c718714eb63d5aa57b78b54704e256024e81565b5f8060015f8473ffffffffffffffffffffffffffffffffffffffff1673ffffffffffffffffffffffffffffffffffffffff1681526020019081526020015f206040518060400160405290815f8201548152602001600182015481525050905062278d00816020015161062d919061285e565b421015610655574262278d008260200151610648919061285e565b6106529190612891565b91505b610e108160200151610667919061285e565b42101561068e5742610e108260200151610681919061285e565b61068b9190612891565b91505b50919050565b5f8060015f8473ffffffffffffffffffffffffffffffffffffffff1673ffffffffffffffffffffffffffffffffffffffff1681526020019081526020015f206040518060400160405290815f8201548152602001600182015481525050905062278d008160200151610706919061285e565b421061071357805f015191505b50919050565b6007602052805f5260405f205f915090505481565b61073661126d565b61073f82611353565b610749828261135e565b5050565b5f61075661147c565b7f360894a13ba1a3210667c828492db98dca3e2076cc3735a920a3ca505d382bbc5f1b905090565b60025f9054906101000a900473ffffffffffffffffffffffffffffffffffffffff1681565b60045f9054906101000a900473ffffffffffffffffffffffffffffffffffffffff1681565b6107d0611503565b5f60015f3373ffffffffffffffffffffffffffffffffffffffff1673ffffffffffffffffffffffffffffffffffffffff1681526020019081526020015f2090505f815f015411610855576040517f08c379a000000000000000000000000000000000000000000000000000000000815260040161084c9061290e565b60405180910390fd5b5f61085f33610694565b11156108785761087333825f01545f611547565b610888565b61088733825f01546001611547565b5b5f815f01819055505f8160010181905550506108a2611878565b565b60045f9054906101000a900473ffffffffffffffffffffffffffffffffffffffff1673ffffffffffffffffffffffffffffffffffffffff163373ffffffffffffffffffffffffffffffffffffffff1614610933576040517f08c379a000000000000000000000000000000000000000000000000000000000815260040161092a90612976565b60405180910390fd5b5f5b8251811015610a81575f73ffffffffffffffffffffffffffffffffffffffff1683828151811061096857610967612994565b5b602002602001015173ffffffffffffffffffffffffffffffffffffffff1614610a745781818151811061099e5761099d612994565b5b602002602001015160015f8584815181106109bc576109bb612994565b5b602002602001015173ffffffffffffffffffffffffffffffffffffffff1673ffffffffffffffffffffffffffffffffffffffff1681526020019081526020015f205f015f828254610a0d919061285e565b925050819055504260015f858481518110610a2b57610a2a612994565b5b602002602001015173ffffffffffffffffffffffffffffffffffffffff1673ffffffffffffffffffffffffffffffffffffffff1681526020019081526020015f20600101819055505b8080600101915050610935565b507f4998215289a29e7b4458dce7275b4ea783c97f8f07244de3bf93bd8783a3a5ac838351604051610ab49291906129c1565b60405180910390a1505050565b6001602052805f5260405f205f91509050805f0154908060010154905082565b610ae9611881565b610af25f611908565b565b60055f9054906101000a900473ffffffffffffffffffffffffffffffffffffffff1681565b5f80610b236119d9565b9050805f015f9054906101000a900473ffffffffffffffffffffffffffffffffffffffff1691505090565b73bb4cdb9cbd36b01bd1cbaebf2de08d9173bc095c81565b610b6e611881565b8360035f6101000a81548173ffffffffffffffffffffffffffffffffffffffff021916908373ffffffffffffffffffffffffffffffffffffffff1602179055508260025f6101000a81548173ffffffffffffffffffffffffffffffffffffffff021916908373ffffffffffffffffffffffffffffffffffffffff1602179055508160055f6101000a81548173ffffffffffffffffffffffffffffffffffffffff021916908373ffffffffffffffffffffffffffffffffffffffff1602179055508060045f6101000a81548173ffffffffffffffffffffffffffffffffffffffff021916908373ffffffffffffffffffffffffffffffffffffffff16021790555050505050565b6702c68af0bb1400003410158015610c945750678ac7230489e800003411155b610cd3576040517f08c379a0000000000000000000000000000000000000000000000000000000008152600401610cca90612a39565b60405180910390fd5b610cfe60055f9054906101000a900473ffffffffffffffffffffffffffffffffffffffff1634611a00565b3460075f3373ffffffffffffffffffffffffffffffffffffffff1673ffffffffffffffffffffffffffffffffffffffff1681526020019081526020015f205f828254610d4a919061285e565b92505081905550600633908060018154018082558091505060019003905f5260205f20015f9091909190916101000a81548173ffffffffffffffffffffffffffffffffffffffff021916908373ffffffffffffffffffffffffffffffffffffffff1602179055507ff8239f64d70f7d5b55f929c553aa473b195e54359bf5cd325d04fc7e45de6dc23334604051610de2929190612a57565b60405180910390a1565b6040518060400160405280600581526020017f352e302e3000000000000000000000000000000000000000000000000000000081525081565b5f60075f8373ffffffffffffffffffffffffffffffffffffffff1673ffffffffffffffffffffffffffffffffffffffff1681526020019081526020015f20549050919050565b60068181548110610e7a575f80fd5b905f5260205f20015f915054906101000a900473ffffffffffffffffffffffffffffffffffffffff1681565b60606006805480602002602001604051908101604052809291908181526020018280548015610f2757602002820191905f5260205f20905b815f9054906101000a900473ffffffffffffffffffffffffffffffffffffffff1673ffffffffffffffffffffffffffffffffffffffff1681526020019060010190808311610ede575b5050505050905090565b610f39611881565b5f73ffffffffffffffffffffffffffffffffffffffff168173ffffffffffffffffffffffffffffffffffffffff1603610fa9575f6040517f1e4fbdf7000000000000000000000000000000000000000000000000000000008152600401610fa091906120bd565b60405180910390fd5b610fb281611908565b50565b5f610fbe611afb565b90505f815f0160089054906101000a900460ff161590505f825f015f9054906101000a900467ffffffffffffffff1690505f808267ffffffffffffffff161480156110065750825b90505f60018367ffffffffffffffff1614801561103957505f3073ffffffffffffffffffffffffffffffffffffffff163b145b905081158015611047575080155b1561107e576040517ff92ee8a900000000000000000000000000000000000000000000000000000000815260040160405180910390fd5b6001855f015f6101000a81548167ffffffffffffffff021916908367ffffffffffffffff16021790555083156110cb576001855f0160086101000a81548160ff0219169083151502179055505b6110db6110d6611b0e565b611b15565b6110e3611b99565b8560055f6101000a81548173ffffffffffffffffffffffffffffffffffffffff021916908373ffffffffffffffffffffffffffffffffffffffff1602179055508860025f6101000a81548173ffffffffffffffffffffffffffffffffffffffff021916908373ffffffffffffffffffffffffffffffffffffffff1602179055508760035f6101000a81548173ffffffffffffffffffffffffffffffffffffffff021916908373ffffffffffffffffffffffffffffffffffffffff1602179055508660045f6101000a81548173ffffffffffffffffffffffffffffffffffffffff021916908373ffffffffffffffffffffffffffffffffffffffff160217905550831561123d575f855f0160086101000a81548160ff0219169083151502179055507fc7f505b2f371ae2175ee4913f4499e1f2633a7b5936321eed1cdaeb6115181d260016040516112349190612ad3565b60405180910390a15b505050505050505050565b60035f9054906101000a900473ffffffffffffffffffffffffffffffffffffffff1681565b7f000000000000000000000000000000000000000000000000000000000000000073ffffffffffffffffffffffffffffffffffffffff163073ffffffffffffffffffffffffffffffffffffffff16148061131a57507f000000000000000000000000000000000000000000000000000000000000000073ffffffffffffffffffffffffffffffffffffffff16611301611ba3565b73ffffffffffffffffffffffffffffffffffffffff1614155b15611351576040517fe07c8dba00000000000000000000000000000000000000000000000000000000815260040160405180910390fd5b565b61135b611881565b50565b8173ffffffffffffffffffffffffffffffffffffffff166352d1902d6040518163ffffffff1660e01b8152600401602060405180830381865afa9250505080156113c657506040513d601f19601f820116820180604052508101906113c39190612b16565b60015b61140757816040517f4c9c8ce30000000000000000000000000000000000000000000000000000000081526004016113fe91906120bd565b60405180910390fd5b7f360894a13ba1a3210667c828492db98dca3e2076cc3735a920a3ca505d382bbc5f1b811461146d57806040517faa1d49a4000000000000000000000000000000000000000000000000000000008152600401611464919061231b565b60405180910390fd5b6114778383611bf6565b505050565b7f000000000000000000000000000000000000000000000000000000000000000073ffffffffffffffffffffffffffffffffffffffff163073ffffffffffffffffffffffffffffffffffffffff1614611501576040517fe07c8dba00000000000000000000000000000000000000000000000000000000815260040160405180910390fd5b565b60025f540361153e576040517f3ee5aeb500000000000000000000000000000000000000000000000000000000815260040160405180910390fd5b60025f81905550565b60025f9054906101000a900473ffffffffffffffffffffffffffffffffffffffff1673ffffffffffffffffffffffffffffffffffffffff1663095ea7b37310ed43c718714eb63d5aa57b78b54704e256024e846040518363ffffffff1660e01b81526004016115b7929190612a57565b6020604051808303815f875af11580156115d3573d5f803e3d5ffd5b505050506040513d601f19601f820116820180604052508101906115f79190612b76565b505f60035f9054906101000a900473ffffffffffffffffffffffffffffffffffffffff1673ffffffffffffffffffffffffffffffffffffffff166370a08231306040518263ffffffff1660e01b815260040161165391906120bd565b602060405180830381865afa15801561166e573d5f803e3d5ffd5b505050506040513d601f19601f820116820180604052508101906116929190612bb5565b90505f7310ed43c718714eb63d5aa57b78b54704e256024e73ffffffffffffffffffffffffffffffffffffffff1663af2979eb60035f9054906101000a900473ffffffffffffffffffffffffffffffffffffffff16865f8030426040518763ffffffff1660e01b815260040161170d96959493929190612c19565b6020604051808303815f875af1158015611729573d5f803e3d5ffd5b505050506040513d601f19601f8201168201806040525081019061174d9190612bb5565b90505f60035f9054906101000a900473ffffffffffffffffffffffffffffffffffffffff1673ffffffffffffffffffffffffffffffffffffffff166370a08231306040518263ffffffff1660e01b81526004016117aa91906120bd565b602060405180830381865afa1580156117c5573d5f803e3d5ffd5b505050506040513d601f19601f820116820180604052508101906117e99190612bb5565b90508361182c5761182760035f9054906101000a900473ffffffffffffffffffffffffffffffffffffffff168785846118229190612891565b611c68565b611866565b61186560035f9054906101000a900473ffffffffffffffffffffffffffffffffffffffff1661dead85846118609190612891565b611c68565b5b6118708683611a00565b505050505050565b60015f81905550565b611889611b0e565b73ffffffffffffffffffffffffffffffffffffffff166118a7610b19565b73ffffffffffffffffffffffffffffffffffffffff1614611906576118ca611b0e565b6040517f118cdaa70000000000000000000000000000000000000000000000000000000081526004016118fd91906120bd565b60405180910390fd5b565b5f6119116119d9565b90505f815f015f9054906101000a900473ffffffffffffffffffffffffffffffffffffffff16905082825f015f6101000a81548173ffffffffffffffffffffffffffffffffffffffff021916908373ffffffffffffffffffffffffffffffffffffffff1602179055508273ffffffffffffffffffffffffffffffffffffffff168173ffffffffffffffffffffffffffffffffffffffff167f8be0079c531659141344cd1fd0a4f28419497f9722a3daafe3b4186f6b6457e060405160405180910390a3505050565b5f7f9016d09d72d40fdae2fd8ceac6b6234c7706214fd39c1cd1e609a0528c199300905090565b5f8273ffffffffffffffffffffffffffffffffffffffff16825f67ffffffffffffffff811115611a3357611a32612185565b5b6040519080825280601f01601f191660200182016040528015611a655781602001600182028036833780820191505090505b50604051611a739190612cbc565b5f6040518083038185875af1925050503d805f8114611aad576040519150601f19603f3d011682016040523d82523d5f602084013e611ab2565b606091505b5050905080611af6576040517f08c379a0000000000000000000000000000000000000000000000000000000008152600401611aed90612d42565b60405180910390fd5b505050565b5f80611b05611d98565b90508091505090565b5f33905090565b611b1d611dc1565b5f73ffffffffffffffffffffffffffffffffffffffff168173ffffffffffffffffffffffffffffffffffffffff1603611b8d575f6040517f1e4fbdf7000000000000000000000000000000000000000000000000000000008152600401611b8491906120bd565b60405180910390fd5b611b9681611908565b50565b611ba1611dc1565b565b5f611bcf7f360894a13ba1a3210667c828492db98dca3e2076cc3735a920a3ca505d382bbc5f1b611e01565b5f015f9054906101000a900473ffffffffffffffffffffffffffffffffffffffff16905090565b611bff82611e0a565b8173ffffffffffffffffffffffffffffffffffffffff167fbc7cd75a20ee27fd9adebab32041f755214dbc6bffa90cc0225b39da2e5c2d3b60405160405180910390a25f81511115611c5b57611c558282611ed3565b50611c64565b611c63611f53565b5b5050565b5f808473ffffffffffffffffffffffffffffffffffffffff1663a9059cbb8585604051602401611c99929190612a57565b6040516020818303038152906040529060e01b6020820180517bffffffffffffffffffffffffffffffffffffffffffffffffffffffff8381831617835250505050604051611ce79190612cbc565b5f604051808303815f865af19150503d805f8114611d20576040519150601f19603f3d011682016040523d82523d5f602084013e611d25565b606091505b5091509150818015611d5257505f81511480611d51575080806020019051810190611d509190612b76565b5b5b611d91576040517f08c379a0000000000000000000000000000000000000000000000000000000008152600401611d8890612daa565b60405180910390fd5b5050505050565b5f7ff0c57e16840df040f15088dc2f81fe391c3923bec73e23a9662efc9c229c6a005f1b905090565b611dc9611f8f565b611dff576040517fd7e6bcf800000000000000000000000000000000000000000000000000000000815260040160405180910390fd5b565b5f819050919050565b5f8173ffffffffffffffffffffffffffffffffffffffff163b03611e6557806040517f4c9c8ce3000000000000000000000000000000000000000000000000000000008152600401611e5c91906120bd565b60405180910390fd5b80611e917f360894a13ba1a3210667c828492db98dca3e2076cc3735a920a3ca505d382bbc5f1b611e01565b5f015f6101000a81548173ffffffffffffffffffffffffffffffffffffffff021916908373ffffffffffffffffffffffffffffffffffffffff16021790555050565b60605f808473ffffffffffffffffffffffffffffffffffffffff1684604051611efc9190612cbc565b5f60405180830381855af49150503d805f8114611f34576040519150601f19603f3d011682016040523d82523d5f602084013e611f39565b606091505b5091509150611f49858383611fad565b9250505092915050565b5f341115611f8d576040517fb398979f00000000000000000000000000000000000000000000000000000000815260040160405180910390fd5b565b5f611f98611afb565b5f0160089054906101000a900460ff16905090565b606082611fc257611fbd8261203a565b612032565b5f8251148015611fe857505f8473ffffffffffffffffffffffffffffffffffffffff163b145b1561202a57836040517f9996b31500000000000000000000000000000000000000000000000000000000815260040161202191906120bd565b60405180910390fd5b819050612033565b5b9392505050565b5f8151111561204c5780518082602001fd5b6040517fd6bda27500000000000000000000000000000000000000000000000000000000815260040160405180910390fd5b5f73ffffffffffffffffffffffffffffffffffffffff82169050919050565b5f6120a78261207e565b9050919050565b6120b78161209d565b82525050565b5f6020820190506120d05f8301846120ae565b92915050565b5f604051905090565b5f80fd5b5f80fd5b6120f08161209d565b81146120fa575f80fd5b50565b5f8135905061210b816120e7565b92915050565b5f60208284031215612126576121256120df565b5b5f612133848285016120fd565b91505092915050565b5f819050919050565b61214e8161213c565b82525050565b5f6020820190506121675f830184612145565b92915050565b5f80fd5b5f80fd5b5f601f19601f8301169050919050565b7f4e487b71000000000000000000000000000000000000000000000000000000005f52604160045260245ffd5b6121bb82612175565b810181811067ffffffffffffffff821117156121da576121d9612185565b5b80604052505050565b5f6121ec6120d6565b90506121f882826121b2565b919050565b5f67ffffffffffffffff82111561221757612216612185565b5b61222082612175565b9050602081019050919050565b828183375f83830152505050565b5f61224d612248846121fd565b6121e3565b90508281526020810184848401111561226957612268612171565b5b61227484828561222d565b509392505050565b5f82601f8301126122905761228f61216d565b5b81356122a084826020860161223b565b91505092915050565b5f80604083850312156122bf576122be6120df565b5b5f6122cc858286016120fd565b925050602083013567ffffffffffffffff8111156122ed576122ec6120e3565b5b6122f98582860161227c565b9150509250929050565b5f819050919050565b61231581612303565b82525050565b5f60208201905061232e5f83018461230c565b92915050565b5f67ffffffffffffffff82111561234e5761234d612185565b5b61235782612175565b9050602081019050919050565b5f61237661237184612334565b6121e3565b90508281526020810184848401111561239257612391612171565b5b61239d84828561222d565b509392505050565b5f82601f8301126123b9576123b861216d565b5b81356123c9848260208601612364565b91505092915050565b5f67ffffffffffffffff8211156123ec576123eb612185565b5b602082029050602081019050919050565b5f80fd5b5f61241361240e846123d2565b6121e3565b90508083825260208201905060208402830185811115612436576124356123fd565b5b835b8181101561245f578061244b88826120fd565b845260208401935050602081019050612438565b5050509392505050565b5f82601f83011261247d5761247c61216d565b5b813561248d848260208601612401565b91505092915050565b5f67ffffffffffffffff8211156124b0576124af612185565b5b602082029050602081019050919050565b6124ca8161213c565b81146124d4575f80fd5b50565b5f813590506124e5816124c1565b92915050565b5f6124fd6124f884612496565b6121e3565b905080838252602082019050602084028301858111156125205761251f6123fd565b5b835b81811015612549578061253588826124d7565b845260208401935050602081019050612522565b5050509392505050565b5f82601f8301126125675761256661216d565b5b81356125778482602086016124eb565b91505092915050565b5f805f60608486031215612597576125966120df565b5b5f84013567ffffffffffffffff8111156125b4576125b36120e3565b5b6125c0868287016123a5565b935050602084013567ffffffffffffffff8111156125e1576125e06120e3565b5b6125ed86828701612469565b925050604084013567ffffffffffffffff81111561260e5761260d6120e3565b5b61261a86828701612553565b9150509250925092565b5f6040820190506126375f830185612145565b6126446020830184612145565b9392505050565b5f805f8060808587031215612663576126626120df565b5b5f612670878288016120fd565b9450506020612681878288016120fd565b9350506040612692878288016120fd565b92505060606126a3878288016120fd565b91505092959194509250565b5f81519050919050565b5f82825260208201905092915050565b8281835e5f83830152505050565b5f6126e1826126af565b6126eb81856126b9565b93506126fb8185602086016126c9565b61270481612175565b840191505092915050565b5f6020820190508181035f83015261272781846126d7565b905092915050565b5f60208284031215612744576127436120df565b5b5f612751848285016124d7565b91505092915050565b5f81519050919050565b5f82825260208201905092915050565b5f819050602082019050919050565b61278c8161209d565b82525050565b5f61279d8383612783565b60208301905092915050565b5f602082019050919050565b5f6127bf8261275a565b6127c98185612764565b93506127d483612774565b805f5b838110156128045781516127eb8882612792565b97506127f6836127a9565b9250506001810190506127d7565b5085935050505092915050565b5f6020820190508181035f83015261282981846127b5565b905092915050565b7f4e487b71000000000000000000000000000000000000000000000000000000005f52601160045260245ffd5b5f6128688261213c565b91506128738361213c565b925082820190508082111561288b5761288a612831565b5b92915050565b5f61289b8261213c565b91506128a68361213c565b92508282039050818111156128be576128bd612831565b5b92915050565b7f4e6f7420656e6f756768206c69717569646974790000000000000000000000005f82015250565b5f6128f86014836126b9565b9150612903826128c4565b602082019050919050565b5f6020820190508181035f830152612925816128ec565b9050919050565b7f4e6f7420746865206c6f636b206f776e657200000000000000000000000000005f82015250565b5f6129606012836126b9565b915061296b8261292c565b602082019050919050565b5f6020820190508181035f83015261298d81612954565b9050919050565b7f4e487b71000000000000000000000000000000000000000000000000000000005f52603260045260245ffd5b5f6040820190508181035f8301526129d981856126d7565b90506129e86020830184612145565b9392505050565b7f416d6f756e74206d7573742062652067726561746572207468616e20300000005f82015250565b5f612a23601d836126b9565b9150612a2e826129ef565b602082019050919050565b5f6020820190508181035f830152612a5081612a17565b9050919050565b5f604082019050612a6a5f8301856120ae565b612a776020830184612145565b9392505050565b5f819050919050565b5f67ffffffffffffffff82169050919050565b5f819050919050565b5f612abd612ab8612ab384612a7e565b612a9a565b612a87565b9050919050565b612acd81612aa3565b82525050565b5f602082019050612ae65f830184612ac4565b92915050565b612af581612303565b8114612aff575f80fd5b50565b5f81519050612b1081612aec565b92915050565b5f60208284031215612b2b57612b2a6120df565b5b5f612b3884828501612b02565b91505092915050565b5f8115159050919050565b612b5581612b41565b8114612b5f575f80fd5b50565b5f81519050612b7081612b4c565b92915050565b5f60208284031215612b8b57612b8a6120df565b5b5f612b9884828501612b62565b91505092915050565b5f81519050612baf816124c1565b92915050565b5f60208284031215612bca57612bc96120df565b5b5f612bd784828501612ba1565b91505092915050565b5f819050919050565b5f612c03612bfe612bf984612be0565b612a9a565b61213c565b9050919050565b612c1381612be9565b82525050565b5f60c082019050612c2c5f8301896120ae565b612c396020830188612145565b612c466040830187612c0a565b612c536060830186612c0a565b612c6060808301856120ae565b612c6d60a0830184612145565b979650505050505050565b5f81519050919050565b5f81905092915050565b5f612c9682612c78565b612ca08185612c82565b9350612cb08185602086016126c9565b80840191505092915050565b5f612cc78284612c8c565b915081905092915050565b7f5472616e7366657248656c7065723a204554485f5452414e534645525f4641495f8201527f4c45440000000000000000000000000000000000000000000000000000000000602082015250565b5f612d2c6023836126b9565b9150612d3782612cd2565b604082019050919050565b5f6020820190508181035f830152612d5981612d20565b9050919050565b7f5472616e7366657248656c7065723a205452414e534645525f4641494c4544005f82015250565b5f612d94601f836126b9565b9150612d9f82612d60565b602082019050919050565b5f6020820190508181035f830152612dc181612d88565b905091905056fea26469706673582212202a9503c50bec31ca89f5773faa824d61085522dce65a6f7cdf52f37c09f87b1564736f6c634300081a0033",
					"opcodes": "PUSH1 0xA0 PUSH1 0x40 MSTORE ADDRESS PUSH20 0xFFFFFFFFFFFFFFFFFFFFFFFFFFFFFFFFFFFFFFFF AND PUSH1 0x80 SWAP1 PUSH20 0xFFFFFFFFFFFFFFFFFFFFFFFFFFFFFFFFFFFFFFFF AND DUP2 MSTORE POP CALLVALUE DUP1 ISZERO PUSH1 0x41 JUMPI PUSH0 DUP1 REVERT JUMPDEST POP PUSH1 0x1 PUSH0 DUP2 SWAP1 SSTORE POP PUSH1 0x80 MLOAD PUSH2 0x2DFE PUSH2 0x6F PUSH0 CODECOPY PUSH0 DUP2 DUP2 PUSH2 0x126F ADD MSTORE DUP2 DUP2 PUSH2 0x12C4 ADD MSTORE PUSH2 0x147E ADD MSTORE PUSH2 0x2DFE PUSH0 RETURN INVALID PUSH1 0x80 PUSH1 0x40 MSTORE PUSH1 0x4 CALLDATASIZE LT PUSH2 0x169 JUMPI PUSH0 CALLDATALOAD PUSH1 0xE0 SHR DUP1 PUSH4 0x715018A6 GT PUSH2 0xD0 JUMPI DUP1 PUSH4 0xAD3CB1CC GT PUSH2 0x89 JUMPI DUP1 PUSH4 0xEA63A044 GT PUSH2 0x63 JUMPI DUP1 PUSH4 0xEA63A044 EQ PUSH2 0x4F9 JUMPI DUP1 PUSH4 0xF2FDE38B EQ PUSH2 0x523 JUMPI DUP1 PUSH4 0xF8C8765E EQ PUSH2 0x54B JUMPI DUP1 PUSH4 0xFC0C546A EQ PUSH2 0x573 JUMPI PUSH2 0x170 JUMP JUMPDEST DUP1 PUSH4 0xAD3CB1CC EQ PUSH2 0x457 JUMPI DUP1 PUSH4 0xCC514739 EQ PUSH2 0x481 JUMPI DUP1 PUSH4 0xDC0D3DFF EQ PUSH2 0x4BD JUMPI PUSH2 0x170 JUMP JUMPDEST DUP1 PUSH4 0x715018A6 EQ PUSH2 0x391 JUMPI DUP1 PUSH4 0x8A36CA17 EQ PUSH2 0x3A7 JUMPI DUP1 PUSH4 0x8DA5CB5B EQ PUSH2 0x3D1 JUMPI DUP1 PUSH4 0x8DD95002 EQ PUSH2 0x3FB JUMPI DUP1 PUSH4 0x9608088C EQ PUSH2 0x425 JUMPI DUP1 PUSH4 0x9C0E7824 EQ PUSH2 0x44D JUMPI PUSH2 0x170 JUMP JUMPDEST DUP1 PUSH4 0x52D1902D GT PUSH2 0x122 JUMPI DUP1 PUSH4 0x52D1902D EQ PUSH2 0x298 JUMPI DUP1 PUSH4 0x5FCBD285 EQ PUSH2 0x2C2 JUMPI DUP1 PUSH4 0x69CD61BE EQ PUSH2 0x2EC JUMPI DUP1 PUSH4 0x6B54ACD9 EQ PUSH2 0x316 JUMPI DUP1 PUSH4 0x6C48BA95 EQ PUSH2 0x32C JUMPI DUP1 PUSH4 0x6D1D59A8 EQ PUSH2 0x354 JUMPI PUSH2 0x170 JUMP JUMPDEST DUP1 PUSH4 0x3FD2A45 EQ PUSH2 0x174 JUMPI DUP1 PUSH4 0x1694505E EQ PUSH2 0x19E JUMPI DUP1 PUSH4 0x2B5FEF2F EQ PUSH2 0x1C8 JUMPI DUP1 PUSH4 0x420D4A02 EQ PUSH2 0x204 JUMPI DUP1 PUSH4 0x45D68230 EQ PUSH2 0x240 JUMPI DUP1 PUSH4 0x4F1EF286 EQ PUSH2 0x27C JUMPI PUSH2 0x170 JUMP JUMPDEST CALLDATASIZE PUSH2 0x170 JUMPI STOP JUMPDEST PUSH0 DUP1 REVERT JUMPDEST CALLVALUE DUP1 ISZERO PUSH2 0x17F JUMPI PUSH0 DUP1 REVERT JUMPDEST POP PUSH2 0x188 PUSH2 0x59D JUMP JUMPDEST PUSH1 0x40 MLOAD PUSH2 0x195 SWAP2 SWAP1 PUSH2 0x20BD JUMP JUMPDEST PUSH1 0x40 MLOAD DUP1 SWAP2 SUB SWAP1 RETURN JUMPDEST CALLVALUE DUP1 ISZERO PUSH2 0x1A9 JUMPI PUSH0 DUP1 REVERT JUMPDEST POP PUSH2 0x1B2 PUSH2 0x5A3 JUMP JUMPDEST PUSH1 0x40 MLOAD PUSH2 0x1BF SWAP2 SWAP1 PUSH2 0x20BD JUMP JUMPDEST PUSH1 0x40 MLOAD DUP1 SWAP2 SUB SWAP1 RETURN JUMPDEST CALLVALUE DUP1 ISZERO PUSH2 0x1D3 JUMPI PUSH0 DUP1 REVERT JUMPDEST POP PUSH2 0x1EE PUSH1 0x4 DUP1 CALLDATASIZE SUB DUP2 ADD SWAP1 PUSH2 0x1E9 SWAP2 SWAP1 PUSH2 0x2111 JUMP JUMPDEST PUSH2 0x5BB JUMP JUMPDEST PUSH1 0x40 MLOAD PUSH2 0x1FB SWAP2 SWAP1 PUSH2 0x2154 JUMP JUMPDEST PUSH1 0x40 MLOAD DUP1 SWAP2 SUB SWAP1 RETURN JUMPDEST CALLVALUE DUP1 ISZERO PUSH2 0x20F JUMPI PUSH0 DUP1 REVERT JUMPDEST POP PUSH2 0x22A PUSH1 0x4 DUP1 CALLDATASIZE SUB DUP2 ADD SWAP1 PUSH2 0x225 SWAP2 SWAP1 PUSH2 0x2111 JUMP JUMPDEST PUSH2 0x694 JUMP JUMPDEST PUSH1 0x40 MLOAD PUSH2 0x237 SWAP2 SWAP1 PUSH2 0x2154 JUMP JUMPDEST PUSH1 0x40 MLOAD DUP1 SWAP2 SUB SWAP1 RETURN JUMPDEST CALLVALUE DUP1 ISZERO PUSH2 0x24B JUMPI PUSH0 DUP1 REVERT JUMPDEST POP PUSH2 0x266 PUSH1 0x4 DUP1 CALLDATASIZE SUB DUP2 ADD SWAP1 PUSH2 0x261 SWAP2 SWAP1 PUSH2 0x2111 JUMP JUMPDEST PUSH2 0x719 JUMP JUMPDEST PUSH1 0x40 MLOAD PUSH2 0x273 SWAP2 SWAP1 PUSH2 0x2154 JUMP JUMPDEST PUSH1 0x40 MLOAD DUP1 SWAP2 SUB SWAP1 RETURN JUMPDEST PUSH2 0x296 PUSH1 0x4 DUP1 CALLDATASIZE SUB DUP2 ADD SWAP1 PUSH2 0x291 SWAP2 SWAP1 PUSH2 0x22A9 JUMP JUMPDEST PUSH2 0x72E JUMP JUMPDEST STOP JUMPDEST CALLVALUE DUP1 ISZERO PUSH2 0x2A3 JUMPI PUSH0 DUP1 REVERT JUMPDEST POP PUSH2 0x2AC PUSH2 0x74D JUMP JUMPDEST PUSH1 0x40 MLOAD PUSH2 0x2B9 SWAP2 SWAP1 PUSH2 0x231B JUMP JUMPDEST PUSH1 0x40 MLOAD DUP1 SWAP2 SUB SWAP1 RETURN JUMPDEST CALLVALUE DUP1 ISZERO PUSH2 0x2CD JUMPI PUSH0 DUP1 REVERT JUMPDEST POP PUSH2 0x2D6 PUSH2 0x77E JUMP JUMPDEST PUSH1 0x40 MLOAD PUSH2 0x2E3 SWAP2 SWAP1 PUSH2 0x20BD JUMP JUMPDEST PUSH1 0x40 MLOAD DUP1 SWAP2 SUB SWAP1 RETURN JUMPDEST CALLVALUE DUP1 ISZERO PUSH2 0x2F7 JUMPI PUSH0 DUP1 REVERT JUMPDEST POP PUSH2 0x300 PUSH2 0x7A3 JUMP JUMPDEST PUSH1 0x40 MLOAD PUSH2 0x30D SWAP2 SWAP1 PUSH2 0x20BD JUMP JUMPDEST PUSH1 0x40 MLOAD DUP1 SWAP2 SUB SWAP1 RETURN JUMPDEST CALLVALUE DUP1 ISZERO PUSH2 0x321 JUMPI PUSH0 DUP1 REVERT JUMPDEST POP PUSH2 0x32A PUSH2 0x7C8 JUMP JUMPDEST STOP JUMPDEST CALLVALUE DUP1 ISZERO PUSH2 0x337 JUMPI PUSH0 DUP1 REVERT JUMPDEST POP PUSH2 0x352 PUSH1 0x4 DUP1 CALLDATASIZE SUB DUP2 ADD SWAP1 PUSH2 0x34D SWAP2 SWAP1 PUSH2 0x2580 JUMP JUMPDEST PUSH2 0x8A4 JUMP JUMPDEST STOP JUMPDEST CALLVALUE DUP1 ISZERO PUSH2 0x35F JUMPI PUSH0 DUP1 REVERT JUMPDEST POP PUSH2 0x37A PUSH1 0x4 DUP1 CALLDATASIZE SUB DUP2 ADD SWAP1 PUSH2 0x375 SWAP2 SWAP1 PUSH2 0x2111 JUMP JUMPDEST PUSH2 0xAC1 JUMP JUMPDEST PUSH1 0x40 MLOAD PUSH2 0x388 SWAP3 SWAP2 SWAP1 PUSH2 0x2624 JUMP JUMPDEST PUSH1 0x40 MLOAD DUP1 SWAP2 SUB SWAP1 RETURN JUMPDEST CALLVALUE DUP1 ISZERO PUSH2 0x39C JUMPI PUSH0 DUP1 REVERT JUMPDEST POP PUSH2 0x3A5 PUSH2 0xAE1 JUMP JUMPDEST STOP JUMPDEST CALLVALUE DUP1 ISZERO PUSH2 0x3B2 JUMPI PUSH0 DUP1 REVERT JUMPDEST POP PUSH2 0x3BB PUSH2 0xAF4 JUMP JUMPDEST PUSH1 0x40 MLOAD PUSH2 0x3C8 SWAP2 SWAP1 PUSH2 0x20BD JUMP JUMPDEST PUSH1 0x40 MLOAD DUP1 SWAP2 SUB SWAP1 RETURN JUMPDEST CALLVALUE DUP1 ISZERO PUSH2 0x3DC JUMPI PUSH0 DUP1 REVERT JUMPDEST POP PUSH2 0x3E5 PUSH2 0xB19 JUMP JUMPDEST PUSH1 0x40 MLOAD PUSH2 0x3F2 SWAP2 SWAP1 PUSH2 0x20BD JUMP JUMPDEST PUSH1 0x40 MLOAD DUP1 SWAP2 SUB SWAP1 RETURN JUMPDEST CALLVALUE DUP1 ISZERO PUSH2 0x406 JUMPI PUSH0 DUP1 REVERT JUMPDEST POP PUSH2 0x40F PUSH2 0xB4E JUMP JUMPDEST PUSH1 0x40 MLOAD PUSH2 0x41C SWAP2 SWAP1 PUSH2 0x20BD JUMP JUMPDEST PUSH1 0x40 MLOAD DUP1 SWAP2 SUB SWAP1 RETURN JUMPDEST CALLVALUE DUP1 ISZERO PUSH2 0x430 JUMPI PUSH0 DUP1 REVERT JUMPDEST POP PUSH2 0x44B PUSH1 0x4 DUP1 CALLDATASIZE SUB DUP2 ADD SWAP1 PUSH2 0x446 SWAP2 SWAP1 PUSH2 0x264B JUMP JUMPDEST PUSH2 0xB66 JUMP JUMPDEST STOP JUMPDEST PUSH2 0x455 PUSH2 0xC74 JUMP JUMPDEST STOP JUMPDEST CALLVALUE DUP1 ISZERO PUSH2 0x462 JUMPI PUSH0 DUP1 REVERT JUMPDEST POP PUSH2 0x46B PUSH2 0xDEC JUMP JUMPDEST PUSH1 0x40 MLOAD PUSH2 0x478 SWAP2 SWAP1 PUSH2 0x270F JUMP JUMPDEST PUSH1 0x40 MLOAD DUP1 SWAP2 SUB SWAP1 RETURN JUMPDEST CALLVALUE DUP1 ISZERO PUSH2 0x48C JUMPI PUSH0 DUP1 REVERT JUMPDEST POP PUSH2 0x4A7 PUSH1 0x4 DUP1 CALLDATASIZE SUB DUP2 ADD SWAP1 PUSH2 0x4A2 SWAP2 SWAP1 PUSH2 0x2111 JUMP JUMPDEST PUSH2 0xE25 JUMP JUMPDEST PUSH1 0x40 MLOAD PUSH2 0x4B4 SWAP2 SWAP1 PUSH2 0x2154 JUMP JUMPDEST PUSH1 0x40 MLOAD DUP1 SWAP2 SUB SWAP1 RETURN JUMPDEST CALLVALUE DUP1 ISZERO PUSH2 0x4C8 JUMPI PUSH0 DUP1 REVERT JUMPDEST POP PUSH2 0x4E3 PUSH1 0x4 DUP1 CALLDATASIZE SUB DUP2 ADD SWAP1 PUSH2 0x4DE SWAP2 SWAP1 PUSH2 0x272F JUMP JUMPDEST PUSH2 0xE6B JUMP JUMPDEST PUSH1 0x40 MLOAD PUSH2 0x4F0 SWAP2 SWAP1 PUSH2 0x20BD JUMP JUMPDEST PUSH1 0x40 MLOAD DUP1 SWAP2 SUB SWAP1 RETURN JUMPDEST CALLVALUE DUP1 ISZERO PUSH2 0x504 JUMPI PUSH0 DUP1 REVERT JUMPDEST POP PUSH2 0x50D PUSH2 0xEA6 JUMP JUMPDEST PUSH1 0x40 MLOAD PUSH2 0x51A SWAP2 SWAP1 PUSH2 0x2811 JUMP JUMPDEST PUSH1 0x40 MLOAD DUP1 SWAP2 SUB SWAP1 RETURN JUMPDEST CALLVALUE DUP1 ISZERO PUSH2 0x52E JUMPI PUSH0 DUP1 REVERT JUMPDEST POP PUSH2 0x549 PUSH1 0x4 DUP1 CALLDATASIZE SUB DUP2 ADD SWAP1 PUSH2 0x544 SWAP2 SWAP1 PUSH2 0x2111 JUMP JUMPDEST PUSH2 0xF31 JUMP JUMPDEST STOP JUMPDEST CALLVALUE DUP1 ISZERO PUSH2 0x556 JUMPI PUSH0 DUP1 REVERT JUMPDEST POP PUSH2 0x571 PUSH1 0x4 DUP1 CALLDATASIZE SUB DUP2 ADD SWAP1 PUSH2 0x56C SWAP2 SWAP1 PUSH2 0x264B JUMP JUMPDEST PUSH2 0xFB5 JUMP JUMPDEST STOP JUMPDEST CALLVALUE DUP1 ISZERO PUSH2 0x57E JUMPI PUSH0 DUP1 REVERT JUMPDEST POP PUSH2 0x587 PUSH2 0x1248 JUMP JUMPDEST PUSH1 0x40 MLOAD PUSH2 0x594 SWAP2 SWAP1 PUSH2 0x20BD JUMP JUMPDEST PUSH1 0x40 MLOAD DUP1 SWAP2 SUB SWAP1 RETURN JUMPDEST PUSH2 0xDEAD DUP2 JUMP JUMPDEST PUSH20 0x10ED43C718714EB63D5AA57B78B54704E256024E DUP2 JUMP JUMPDEST PUSH0 DUP1 PUSH1 0x1 PUSH0 DUP5 PUSH20 0xFFFFFFFFFFFFFFFFFFFFFFFFFFFFFFFFFFFFFFFF AND PUSH20 0xFFFFFFFFFFFFFFFFFFFFFFFFFFFFFFFFFFFFFFFF AND DUP2 MSTORE PUSH1 0x20 ADD SWAP1 DUP2 MSTORE PUSH1 0x20 ADD PUSH0 KECCAK256 PUSH1 0x40 MLOAD DUP1 PUSH1 0x40 ADD PUSH1 0x40 MSTORE SWAP1 DUP2 PUSH0 DUP3 ADD SLOAD DUP2 MSTORE PUSH1 0x20 ADD PUSH1 0x1 DUP3 ADD SLOAD DUP2 MSTORE POP POP SWAP1 POP PUSH3 0x278D00 DUP2 PUSH1 0x20 ADD MLOAD PUSH2 0x62D SWAP2 SWAP1 PUSH2 0x285E JUMP JUMPDEST TIMESTAMP LT ISZERO PUSH2 0x655 JUMPI TIMESTAMP PUSH3 0x278D00 DUP3 PUSH1 0x20 ADD MLOAD PUSH2 0x648 SWAP2 SWAP1 PUSH2 0x285E JUMP JUMPDEST PUSH2 0x652 SWAP2 SWAP1 PUSH2 0x2891 JUMP JUMPDEST SWAP2 POP JUMPDEST PUSH2 0xE10 DUP2 PUSH1 0x20 ADD MLOAD PUSH2 0x667 SWAP2 SWAP1 PUSH2 0x285E JUMP JUMPDEST TIMESTAMP LT ISZERO PUSH2 0x68E JUMPI TIMESTAMP PUSH2 0xE10 DUP3 PUSH1 0x20 ADD MLOAD PUSH2 0x681 SWAP2 SWAP1 PUSH2 0x285E JUMP JUMPDEST PUSH2 0x68B SWAP2 SWAP1 PUSH2 0x2891 JUMP JUMPDEST SWAP2 POP JUMPDEST POP SWAP2 SWAP1 POP JUMP JUMPDEST PUSH0 DUP1 PUSH1 0x1 PUSH0 DUP5 PUSH20 0xFFFFFFFFFFFFFFFFFFFFFFFFFFFFFFFFFFFFFFFF AND PUSH20 0xFFFFFFFFFFFFFFFFFFFFFFFFFFFFFFFFFFFFFFFF AND DUP2 MSTORE PUSH1 0x20 ADD SWAP1 DUP2 MSTORE PUSH1 0x20 ADD PUSH0 KECCAK256 PUSH1 0x40 MLOAD DUP1 PUSH1 0x40 ADD PUSH1 0x40 MSTORE SWAP1 DUP2 PUSH0 DUP3 ADD SLOAD DUP2 MSTORE PUSH1 0x20 ADD PUSH1 0x1 DUP3 ADD SLOAD DUP2 MSTORE POP POP SWAP1 POP PUSH3 0x278D00 DUP2 PUSH1 0x20 ADD MLOAD PUSH2 0x706 SWAP2 SWAP1 PUSH2 0x285E JUMP JUMPDEST TIMESTAMP LT PUSH2 0x713 JUMPI DUP1 PUSH0 ADD MLOAD SWAP2 POP JUMPDEST POP SWAP2 SWAP1 POP JUMP JUMPDEST PUSH1 0x7 PUSH1 0x20 MSTORE DUP1 PUSH0 MSTORE PUSH1 0x40 PUSH0 KECCAK256 PUSH0 SWAP2 POP SWAP1 POP SLOAD DUP2 JUMP JUMPDEST PUSH2 0x736 PUSH2 0x126D JUMP JUMPDEST PUSH2 0x73F DUP3 PUSH2 0x1353 JUMP JUMPDEST PUSH2 0x749 DUP3 DUP3 PUSH2 0x135E JUMP JUMPDEST POP POP JUMP JUMPDEST PUSH0 PUSH2 0x756 PUSH2 0x147C JUMP JUMPDEST PUSH32 0x360894A13BA1A3210667C828492DB98DCA3E2076CC3735A920A3CA505D382BBC PUSH0 SHL SWAP1 POP SWAP1 JUMP JUMPDEST PUSH1 0x2 PUSH0 SWAP1 SLOAD SWAP1 PUSH2 0x100 EXP SWAP1 DIV PUSH20 0xFFFFFFFFFFFFFFFFFFFFFFFFFFFFFFFFFFFFFFFF AND DUP2 JUMP JUMPDEST PUSH1 0x4 PUSH0 SWAP1 SLOAD SWAP1 PUSH2 0x100 EXP SWAP1 DIV PUSH20 0xFFFFFFFFFFFFFFFFFFFFFFFFFFFFFFFFFFFFFFFF AND DUP2 JUMP JUMPDEST PUSH2 0x7D0 PUSH2 0x1503 JUMP JUMPDEST PUSH0 PUSH1 0x1 PUSH0 CALLER PUSH20 0xFFFFFFFFFFFFFFFFFFFFFFFFFFFFFFFFFFFFFFFF AND PUSH20 0xFFFFFFFFFFFFFFFFFFFFFFFFFFFFFFFFFFFFFFFF AND DUP2 MSTORE PUSH1 0x20 ADD SWAP1 DUP2 MSTORE PUSH1 0x20 ADD PUSH0 KECCAK256 SWAP1 POP PUSH0 DUP2 PUSH0 ADD SLOAD GT PUSH2 0x855 JUMPI PUSH1 0x40 MLOAD PUSH32 0x8C379A000000000000000000000000000000000000000000000000000000000 DUP2 MSTORE PUSH1 0x4 ADD PUSH2 0x84C SWAP1 PUSH2 0x290E JUMP JUMPDEST PUSH1 0x40 MLOAD DUP1 SWAP2 SUB SWAP1 REVERT JUMPDEST PUSH0 PUSH2 0x85F CALLER PUSH2 0x694 JUMP JUMPDEST GT ISZERO PUSH2 0x878 JUMPI PUSH2 0x873 CALLER DUP3 PUSH0 ADD SLOAD PUSH0 PUSH2 0x1547 JUMP JUMPDEST PUSH2 0x888 JUMP JUMPDEST PUSH2 0x887 CALLER DUP3 PUSH0 ADD SLOAD PUSH1 0x1 PUSH2 0x1547 JUMP JUMPDEST JUMPDEST PUSH0 DUP2 PUSH0 ADD DUP2 SWAP1 SSTORE POP PUSH0 DUP2 PUSH1 0x1 ADD DUP2 SWAP1 SSTORE POP POP PUSH2 0x8A2 PUSH2 0x1878 JUMP JUMPDEST JUMP JUMPDEST PUSH1 0x4 PUSH0 SWAP1 SLOAD SWAP1 PUSH2 0x100 EXP SWAP1 DIV PUSH20 0xFFFFFFFFFFFFFFFFFFFFFFFFFFFFFFFFFFFFFFFF AND PUSH20 0xFFFFFFFFFFFFFFFFFFFFFFFFFFFFFFFFFFFFFFFF AND CALLER PUSH20 0xFFFFFFFFFFFFFFFFFFFFFFFFFFFFFFFFFFFFFFFF AND EQ PUSH2 0x933 JUMPI PUSH1 0x40 MLOAD PUSH32 0x8C379A000000000000000000000000000000000000000000000000000000000 DUP2 MSTORE PUSH1 0x4 ADD PUSH2 0x92A SWAP1 PUSH2 0x2976 JUMP JUMPDEST PUSH1 0x40 MLOAD DUP1 SWAP2 SUB SWAP1 REVERT JUMPDEST PUSH0 JUMPDEST DUP3 MLOAD DUP2 LT ISZERO PUSH2 0xA81 JUMPI PUSH0 PUSH20 0xFFFFFFFFFFFFFFFFFFFFFFFFFFFFFFFFFFFFFFFF AND DUP4 DUP3 DUP2 MLOAD DUP2 LT PUSH2 0x968 JUMPI PUSH2 0x967 PUSH2 0x2994 JUMP JUMPDEST JUMPDEST PUSH1 0x20 MUL PUSH1 0x20 ADD ADD MLOAD PUSH20 0xFFFFFFFFFFFFFFFFFFFFFFFFFFFFFFFFFFFFFFFF AND EQ PUSH2 0xA74 JUMPI DUP2 DUP2 DUP2 MLOAD DUP2 LT PUSH2 0x99E JUMPI PUSH2 0x99D PUSH2 0x2994 JUMP JUMPDEST JUMPDEST PUSH1 0x20 MUL PUSH1 0x20 ADD ADD MLOAD PUSH1 0x1 PUSH0 DUP6 DUP5 DUP2 MLOAD DUP2 LT PUSH2 0x9BC JUMPI PUSH2 0x9BB PUSH2 0x2994 JUMP JUMPDEST JUMPDEST PUSH1 0x20 MUL PUSH1 0x20 ADD ADD MLOAD PUSH20 0xFFFFFFFFFFFFFFFFFFFFFFFFFFFFFFFFFFFFFFFF AND PUSH20 0xFFFFFFFFFFFFFFFFFFFFFFFFFFFFFFFFFFFFFFFF AND DUP2 MSTORE PUSH1 0x20 ADD SWAP1 DUP2 MSTORE PUSH1 0x20 ADD PUSH0 KECCAK256 PUSH0 ADD PUSH0 DUP3 DUP3 SLOAD PUSH2 0xA0D SWAP2 SWAP1 PUSH2 0x285E JUMP JUMPDEST SWAP3 POP POP DUP2 SWAP1 SSTORE POP TIMESTAMP PUSH1 0x1 PUSH0 DUP6 DUP5 DUP2 MLOAD DUP2 LT PUSH2 0xA2B JUMPI PUSH2 0xA2A PUSH2 0x2994 JUMP JUMPDEST JUMPDEST PUSH1 0x20 MUL PUSH1 0x20 ADD ADD MLOAD PUSH20 0xFFFFFFFFFFFFFFFFFFFFFFFFFFFFFFFFFFFFFFFF AND PUSH20 0xFFFFFFFFFFFFFFFFFFFFFFFFFFFFFFFFFFFFFFFF AND DUP2 MSTORE PUSH1 0x20 ADD SWAP1 DUP2 MSTORE PUSH1 0x20 ADD PUSH0 KECCAK256 PUSH1 0x1 ADD DUP2 SWAP1 SSTORE POP JUMPDEST DUP1 DUP1 PUSH1 0x1 ADD SWAP2 POP POP PUSH2 0x935 JUMP JUMPDEST POP PUSH32 0x4998215289A29E7B4458DCE7275B4EA783C97F8F07244DE3BF93BD8783A3A5AC DUP4 DUP4 MLOAD PUSH1 0x40 MLOAD PUSH2 0xAB4 SWAP3 SWAP2 SWAP1 PUSH2 0x29C1 JUMP JUMPDEST PUSH1 0x40 MLOAD DUP1 SWAP2 SUB SWAP1 LOG1 POP POP POP JUMP JUMPDEST PUSH1 0x1 PUSH1 0x20 MSTORE DUP1 PUSH0 MSTORE PUSH1 0x40 PUSH0 KECCAK256 PUSH0 SWAP2 POP SWAP1 POP DUP1 PUSH0 ADD SLOAD SWAP1 DUP1 PUSH1 0x1 ADD SLOAD SWAP1 POP DUP3 JUMP JUMPDEST PUSH2 0xAE9 PUSH2 0x1881 JUMP JUMPDEST PUSH2 0xAF2 PUSH0 PUSH2 0x1908 JUMP JUMPDEST JUMP JUMPDEST PUSH1 0x5 PUSH0 SWAP1 SLOAD SWAP1 PUSH2 0x100 EXP SWAP1 DIV PUSH20 0xFFFFFFFFFFFFFFFFFFFFFFFFFFFFFFFFFFFFFFFF AND DUP2 JUMP JUMPDEST PUSH0 DUP1 PUSH2 0xB23 PUSH2 0x19D9 JUMP JUMPDEST SWAP1 POP DUP1 PUSH0 ADD PUSH0 SWAP1 SLOAD SWAP1 PUSH2 0x100 EXP SWAP1 DIV PUSH20 0xFFFFFFFFFFFFFFFFFFFFFFFFFFFFFFFFFFFFFFFF AND SWAP2 POP POP SWAP1 JUMP JUMPDEST PUSH20 0xBB4CDB9CBD36B01BD1CBAEBF2DE08D9173BC095C DUP2 JUMP JUMPDEST PUSH2 0xB6E PUSH2 0x1881 JUMP JUMPDEST DUP4 PUSH1 0x3 PUSH0 PUSH2 0x100 EXP DUP2 SLOAD DUP2 PUSH20 0xFFFFFFFFFFFFFFFFFFFFFFFFFFFFFFFFFFFFFFFF MUL NOT AND SWAP1 DUP4 PUSH20 0xFFFFFFFFFFFFFFFFFFFFFFFFFFFFFFFFFFFFFFFF AND MUL OR SWAP1 SSTORE POP DUP3 PUSH1 0x2 PUSH0 PUSH2 0x100 EXP DUP2 SLOAD DUP2 PUSH20 0xFFFFFFFFFFFFFFFFFFFFFFFFFFFFFFFFFFFFFFFF MUL NOT AND SWAP1 DUP4 PUSH20 0xFFFFFFFFFFFFFFFFFFFFFFFFFFFFFFFFFFFFFFFF AND MUL OR SWAP1 SSTORE POP DUP2 PUSH1 0x5 PUSH0 PUSH2 0x100 EXP DUP2 SLOAD DUP2 PUSH20 0xFFFFFFFFFFFFFFFFFFFFFFFFFFFFFFFFFFFFFFFF MUL NOT AND SWAP1 DUP4 PUSH20 0xFFFFFFFFFFFFFFFFFFFFFFFFFFFFFFFFFFFFFFFF AND MUL OR SWAP1 SSTORE POP DUP1 PUSH1 0x4 PUSH0 PUSH2 0x100 EXP DUP2 SLOAD DUP2 PUSH20 0xFFFFFFFFFFFFFFFFFFFFFFFFFFFFFFFFFFFFFFFF MUL NOT AND SWAP1 DUP4 PUSH20 0xFFFFFFFFFFFFFFFFFFFFFFFFFFFFFFFFFFFFFFFF AND MUL OR SWAP1 SSTORE POP POP POP POP POP JUMP JUMPDEST PUSH8 0x2C68AF0BB140000 CALLVALUE LT ISZERO DUP1 ISZERO PUSH2 0xC94 JUMPI POP PUSH8 0x8AC7230489E80000 CALLVALUE GT ISZERO JUMPDEST PUSH2 0xCD3 JUMPI PUSH1 0x40 MLOAD PUSH32 0x8C379A000000000000000000000000000000000000000000000000000000000 DUP2 MSTORE PUSH1 0x4 ADD PUSH2 0xCCA SWAP1 PUSH2 0x2A39 JUMP JUMPDEST PUSH1 0x40 MLOAD DUP1 SWAP2 SUB SWAP1 REVERT JUMPDEST PUSH2 0xCFE PUSH1 0x5 PUSH0 SWAP1 SLOAD SWAP1 PUSH2 0x100 EXP SWAP1 DIV PUSH20 0xFFFFFFFFFFFFFFFFFFFFFFFFFFFFFFFFFFFFFFFF AND CALLVALUE PUSH2 0x1A00 JUMP JUMPDEST CALLVALUE PUSH1 0x7 PUSH0 CALLER PUSH20 0xFFFFFFFFFFFFFFFFFFFFFFFFFFFFFFFFFFFFFFFF AND PUSH20 0xFFFFFFFFFFFFFFFFFFFFFFFFFFFFFFFFFFFFFFFF AND DUP2 MSTORE PUSH1 0x20 ADD SWAP1 DUP2 MSTORE PUSH1 0x20 ADD PUSH0 KECCAK256 PUSH0 DUP3 DUP3 SLOAD PUSH2 0xD4A SWAP2 SWAP1 PUSH2 0x285E JUMP JUMPDEST SWAP3 POP POP DUP2 SWAP1 SSTORE POP PUSH1 0x6 CALLER SWAP1 DUP1 PUSH1 0x1 DUP2 SLOAD ADD DUP1 DUP3 SSTORE DUP1 SWAP2 POP POP PUSH1 0x1 SWAP1 SUB SWAP1 PUSH0 MSTORE PUSH1 0x20 PUSH0 KECCAK256 ADD PUSH0 SWAP1 SWAP2 SWAP1 SWAP2 SWAP1 SWAP2 PUSH2 0x100 EXP DUP2 SLOAD DUP2 PUSH20 0xFFFFFFFFFFFFFFFFFFFFFFFFFFFFFFFFFFFFFFFF MUL NOT AND SWAP1 DUP4 PUSH20 0xFFFFFFFFFFFFFFFFFFFFFFFFFFFFFFFFFFFFFFFF AND MUL OR SWAP1 SSTORE POP PUSH32 0xF8239F64D70F7D5B55F929C553AA473B195E54359BF5CD325D04FC7E45DE6DC2 CALLER CALLVALUE PUSH1 0x40 MLOAD PUSH2 0xDE2 SWAP3 SWAP2 SWAP1 PUSH2 0x2A57 JUMP JUMPDEST PUSH1 0x40 MLOAD DUP1 SWAP2 SUB SWAP1 LOG1 JUMP JUMPDEST PUSH1 0x40 MLOAD DUP1 PUSH1 0x40 ADD PUSH1 0x40 MSTORE DUP1 PUSH1 0x5 DUP2 MSTORE PUSH1 0x20 ADD PUSH32 0x352E302E30000000000000000000000000000000000000000000000000000000 DUP2 MSTORE POP DUP2 JUMP JUMPDEST PUSH0 PUSH1 0x7 PUSH0 DUP4 PUSH20 0xFFFFFFFFFFFFFFFFFFFFFFFFFFFFFFFFFFFFFFFF AND PUSH20 0xFFFFFFFFFFFFFFFFFFFFFFFFFFFFFFFFFFFFFFFF AND DUP2 MSTORE PUSH1 0x20 ADD SWAP1 DUP2 MSTORE PUSH1 0x20 ADD PUSH0 KECCAK256 SLOAD SWAP1 POP SWAP2 SWAP1 POP JUMP JUMPDEST PUSH1 0x6 DUP2 DUP2 SLOAD DUP2 LT PUSH2 0xE7A JUMPI PUSH0 DUP1 REVERT JUMPDEST SWAP1 PUSH0 MSTORE PUSH1 0x20 PUSH0 KECCAK256 ADD PUSH0 SWAP2 POP SLOAD SWAP1 PUSH2 0x100 EXP SWAP1 DIV PUSH20 0xFFFFFFFFFFFFFFFFFFFFFFFFFFFFFFFFFFFFFFFF AND DUP2 JUMP JUMPDEST PUSH1 0x60 PUSH1 0x6 DUP1 SLOAD DUP1 PUSH1 0x20 MUL PUSH1 0x20 ADD PUSH1 0x40 MLOAD SWAP1 DUP2 ADD PUSH1 0x40 MSTORE DUP1 SWAP3 SWAP2 SWAP1 DUP2 DUP2 MSTORE PUSH1 0x20 ADD DUP3 DUP1 SLOAD DUP1 ISZERO PUSH2 0xF27 JUMPI PUSH1 0x20 MUL DUP3 ADD SWAP2 SWAP1 PUSH0 MSTORE PUSH1 0x20 PUSH0 KECCAK256 SWAP1 JUMPDEST DUP2 PUSH0 SWAP1 SLOAD SWAP1 PUSH2 0x100 EXP SWAP1 DIV PUSH20 0xFFFFFFFFFFFFFFFFFFFFFFFFFFFFFFFFFFFFFFFF AND PUSH20 0xFFFFFFFFFFFFFFFFFFFFFFFFFFFFFFFFFFFFFFFF AND DUP2 MSTORE PUSH1 0x20 ADD SWAP1 PUSH1 0x1 ADD SWAP1 DUP1 DUP4 GT PUSH2 0xEDE JUMPI JUMPDEST POP POP POP POP POP SWAP1 POP SWAP1 JUMP JUMPDEST PUSH2 0xF39 PUSH2 0x1881 JUMP JUMPDEST PUSH0 PUSH20 0xFFFFFFFFFFFFFFFFFFFFFFFFFFFFFFFFFFFFFFFF AND DUP2 PUSH20 0xFFFFFFFFFFFFFFFFFFFFFFFFFFFFFFFFFFFFFFFF AND SUB PUSH2 0xFA9 JUMPI PUSH0 PUSH1 0x40 MLOAD PUSH32 0x1E4FBDF700000000000000000000000000000000000000000000000000000000 DUP2 MSTORE PUSH1 0x4 ADD PUSH2 0xFA0 SWAP2 SWAP1 PUSH2 0x20BD JUMP JUMPDEST PUSH1 0x40 MLOAD DUP1 SWAP2 SUB SWAP1 REVERT JUMPDEST PUSH2 0xFB2 DUP2 PUSH2 0x1908 JUMP JUMPDEST POP JUMP JUMPDEST PUSH0 PUSH2 0xFBE PUSH2 0x1AFB JUMP JUMPDEST SWAP1 POP PUSH0 DUP2 PUSH0 ADD PUSH1 0x8 SWAP1 SLOAD SWAP1 PUSH2 0x100 EXP SWAP1 DIV PUSH1 0xFF AND ISZERO SWAP1 POP PUSH0 DUP3 PUSH0 ADD PUSH0 SWAP1 SLOAD SWAP1 PUSH2 0x100 EXP SWAP1 DIV PUSH8 0xFFFFFFFFFFFFFFFF AND SWAP1 POP PUSH0 DUP1 DUP3 PUSH8 0xFFFFFFFFFFFFFFFF AND EQ DUP1 ISZERO PUSH2 0x1006 JUMPI POP DUP3 JUMPDEST SWAP1 POP PUSH0 PUSH1 0x1 DUP4 PUSH8 0xFFFFFFFFFFFFFFFF AND EQ DUP1 ISZERO PUSH2 0x1039 JUMPI POP PUSH0 ADDRESS PUSH20 0xFFFFFFFFFFFFFFFFFFFFFFFFFFFFFFFFFFFFFFFF AND EXTCODESIZE EQ JUMPDEST SWAP1 POP DUP2 ISZERO DUP1 ISZERO PUSH2 0x1047 JUMPI POP DUP1 ISZERO JUMPDEST ISZERO PUSH2 0x107E JUMPI PUSH1 0x40 MLOAD PUSH32 0xF92EE8A900000000000000000000000000000000000000000000000000000000 DUP2 MSTORE PUSH1 0x4 ADD PUSH1 0x40 MLOAD DUP1 SWAP2 SUB SWAP1 REVERT JUMPDEST PUSH1 0x1 DUP6 PUSH0 ADD PUSH0 PUSH2 0x100 EXP DUP2 SLOAD DUP2 PUSH8 0xFFFFFFFFFFFFFFFF MUL NOT AND SWAP1 DUP4 PUSH8 0xFFFFFFFFFFFFFFFF AND MUL OR SWAP1 SSTORE POP DUP4 ISZERO PUSH2 0x10CB JUMPI PUSH1 0x1 DUP6 PUSH0 ADD PUSH1 0x8 PUSH2 0x100 EXP DUP2 SLOAD DUP2 PUSH1 0xFF MUL NOT AND SWAP1 DUP4 ISZERO ISZERO MUL OR SWAP1 SSTORE POP JUMPDEST PUSH2 0x10DB PUSH2 0x10D6 PUSH2 0x1B0E JUMP JUMPDEST PUSH2 0x1B15 JUMP JUMPDEST PUSH2 0x10E3 PUSH2 0x1B99 JUMP JUMPDEST DUP6 PUSH1 0x5 PUSH0 PUSH2 0x100 EXP DUP2 SLOAD DUP2 PUSH20 0xFFFFFFFFFFFFFFFFFFFFFFFFFFFFFFFFFFFFFFFF MUL NOT AND SWAP1 DUP4 PUSH20 0xFFFFFFFFFFFFFFFFFFFFFFFFFFFFFFFFFFFFFFFF AND MUL OR SWAP1 SSTORE POP DUP9 PUSH1 0x2 PUSH0 PUSH2 0x100 EXP DUP2 SLOAD DUP2 PUSH20 0xFFFFFFFFFFFFFFFFFFFFFFFFFFFFFFFFFFFFFFFF MUL NOT AND SWAP1 DUP4 PUSH20 0xFFFFFFFFFFFFFFFFFFFFFFFFFFFFFFFFFFFFFFFF AND MUL OR SWAP1 SSTORE POP DUP8 PUSH1 0x3 PUSH0 PUSH2 0x100 EXP DUP2 SLOAD DUP2 PUSH20 0xFFFFFFFFFFFFFFFFFFFFFFFFFFFFFFFFFFFFFFFF MUL NOT AND SWAP1 DUP4 PUSH20 0xFFFFFFFFFFFFFFFFFFFFFFFFFFFFFFFFFFFFFFFF AND MUL OR SWAP1 SSTORE POP DUP7 PUSH1 0x4 PUSH0 PUSH2 0x100 EXP DUP2 SLOAD DUP2 PUSH20 0xFFFFFFFFFFFFFFFFFFFFFFFFFFFFFFFFFFFFFFFF MUL NOT AND SWAP1 DUP4 PUSH20 0xFFFFFFFFFFFFFFFFFFFFFFFFFFFFFFFFFFFFFFFF AND MUL OR SWAP1 SSTORE POP DUP4 ISZERO PUSH2 0x123D JUMPI PUSH0 DUP6 PUSH0 ADD PUSH1 0x8 PUSH2 0x100 EXP DUP2 SLOAD DUP2 PUSH1 0xFF MUL NOT AND SWAP1 DUP4 ISZERO ISZERO MUL OR SWAP1 SSTORE POP PUSH32 0xC7F505B2F371AE2175EE4913F4499E1F2633A7B5936321EED1CDAEB6115181D2 PUSH1 0x1 PUSH1 0x40 MLOAD PUSH2 0x1234 SWAP2 SWAP1 PUSH2 0x2AD3 JUMP JUMPDEST PUSH1 0x40 MLOAD DUP1 SWAP2 SUB SWAP1 LOG1 JUMPDEST POP POP POP POP POP POP POP POP POP JUMP JUMPDEST PUSH1 0x3 PUSH0 SWAP1 SLOAD SWAP1 PUSH2 0x100 EXP SWAP1 DIV PUSH20 0xFFFFFFFFFFFFFFFFFFFFFFFFFFFFFFFFFFFFFFFF AND DUP2 JUMP JUMPDEST PUSH32 0x0 PUSH20 0xFFFFFFFFFFFFFFFFFFFFFFFFFFFFFFFFFFFFFFFF AND ADDRESS PUSH20 0xFFFFFFFFFFFFFFFFFFFFFFFFFFFFFFFFFFFFFFFF AND EQ DUP1 PUSH2 0x131A JUMPI POP PUSH32 0x0 PUSH20 0xFFFFFFFFFFFFFFFFFFFFFFFFFFFFFFFFFFFFFFFF AND PUSH2 0x1301 PUSH2 0x1BA3 JUMP JUMPDEST PUSH20 0xFFFFFFFFFFFFFFFFFFFFFFFFFFFFFFFFFFFFFFFF AND EQ ISZERO JUMPDEST ISZERO PUSH2 0x1351 JUMPI PUSH1 0x40 MLOAD PUSH32 0xE07C8DBA00000000000000000000000000000000000000000000000000000000 DUP2 MSTORE PUSH1 0x4 ADD PUSH1 0x40 MLOAD DUP1 SWAP2 SUB SWAP1 REVERT JUMPDEST JUMP JUMPDEST PUSH2 0x135B PUSH2 0x1881 JUMP JUMPDEST POP JUMP JUMPDEST DUP2 PUSH20 0xFFFFFFFFFFFFFFFFFFFFFFFFFFFFFFFFFFFFFFFF AND PUSH4 0x52D1902D PUSH1 0x40 MLOAD DUP2 PUSH4 0xFFFFFFFF AND PUSH1 0xE0 SHL DUP2 MSTORE PUSH1 0x4 ADD PUSH1 0x20 PUSH1 0x40 MLOAD DUP1 DUP4 SUB DUP2 DUP7 GAS STATICCALL SWAP3 POP POP POP DUP1 ISZERO PUSH2 0x13C6 JUMPI POP PUSH1 0x40 MLOAD RETURNDATASIZE PUSH1 0x1F NOT PUSH1 0x1F DUP3 ADD AND DUP3 ADD DUP1 PUSH1 0x40 MSTORE POP DUP2 ADD SWAP1 PUSH2 0x13C3 SWAP2 SWAP1 PUSH2 0x2B16 JUMP JUMPDEST PUSH1 0x1 JUMPDEST PUSH2 0x1407 JUMPI DUP2 PUSH1 0x40 MLOAD PUSH32 0x4C9C8CE300000000000000000000000000000000000000000000000000000000 DUP2 MSTORE PUSH1 0x4 ADD PUSH2 0x13FE SWAP2 SWAP1 PUSH2 0x20BD JUMP JUMPDEST PUSH1 0x40 MLOAD DUP1 SWAP2 SUB SWAP1 REVERT JUMPDEST PUSH32 0x360894A13BA1A3210667C828492DB98DCA3E2076CC3735A920A3CA505D382BBC PUSH0 SHL DUP2 EQ PUSH2 0x146D JUMPI DUP1 PUSH1 0x40 MLOAD PUSH32 0xAA1D49A400000000000000000000000000000000000000000000000000000000 DUP2 MSTORE PUSH1 0x4 ADD PUSH2 0x1464 SWAP2 SWAP1 PUSH2 0x231B JUMP JUMPDEST PUSH1 0x40 MLOAD DUP1 SWAP2 SUB SWAP1 REVERT JUMPDEST PUSH2 0x1477 DUP4 DUP4 PUSH2 0x1BF6 JUMP JUMPDEST POP POP POP JUMP JUMPDEST PUSH32 0x0 PUSH20 0xFFFFFFFFFFFFFFFFFFFFFFFFFFFFFFFFFFFFFFFF AND ADDRESS PUSH20 0xFFFFFFFFFFFFFFFFFFFFFFFFFFFFFFFFFFFFFFFF AND EQ PUSH2 0x1501 JUMPI PUSH1 0x40 MLOAD PUSH32 0xE07C8DBA00000000000000000000000000000000000000000000000000000000 DUP2 MSTORE PUSH1 0x4 ADD PUSH1 0x40 MLOAD DUP1 SWAP2 SUB SWAP1 REVERT JUMPDEST JUMP JUMPDEST PUSH1 0x2 PUSH0 SLOAD SUB PUSH2 0x153E JUMPI PUSH1 0x40 MLOAD PUSH32 0x3EE5AEB500000000000000000000000000000000000000000000000000000000 DUP2 MSTORE PUSH1 0x4 ADD PUSH1 0x40 MLOAD DUP1 SWAP2 SUB SWAP1 REVERT JUMPDEST PUSH1 0x2 PUSH0 DUP2 SWAP1 SSTORE POP JUMP JUMPDEST PUSH1 0x2 PUSH0 SWAP1 SLOAD SWAP1 PUSH2 0x100 EXP SWAP1 DIV PUSH20 0xFFFFFFFFFFFFFFFFFFFFFFFFFFFFFFFFFFFFFFFF AND PUSH20 0xFFFFFFFFFFFFFFFFFFFFFFFFFFFFFFFFFFFFFFFF AND PUSH4 0x95EA7B3 PUSH20 0x10ED43C718714EB63D5AA57B78B54704E256024E DUP5 PUSH1 0x40 MLOAD DUP4 PUSH4 0xFFFFFFFF AND PUSH1 0xE0 SHL DUP2 MSTORE PUSH1 0x4 ADD PUSH2 0x15B7 SWAP3 SWAP2 SWAP1 PUSH2 0x2A57 JUMP JUMPDEST PUSH1 0x20 PUSH1 0x40 MLOAD DUP1 DUP4 SUB DUP2 PUSH0 DUP8 GAS CALL ISZERO DUP1 ISZERO PUSH2 0x15D3 JUMPI RETURNDATASIZE PUSH0 DUP1 RETURNDATACOPY RETURNDATASIZE PUSH0 REVERT JUMPDEST POP POP POP POP PUSH1 0x40 MLOAD RETURNDATASIZE PUSH1 0x1F NOT PUSH1 0x1F DUP3 ADD AND DUP3 ADD DUP1 PUSH1 0x40 MSTORE POP DUP2 ADD SWAP1 PUSH2 0x15F7 SWAP2 SWAP1 PUSH2 0x2B76 JUMP JUMPDEST POP PUSH0 PUSH1 0x3 PUSH0 SWAP1 SLOAD SWAP1 PUSH2 0x100 EXP SWAP1 DIV PUSH20 0xFFFFFFFFFFFFFFFFFFFFFFFFFFFFFFFFFFFFFFFF AND PUSH20 0xFFFFFFFFFFFFFFFFFFFFFFFFFFFFFFFFFFFFFFFF AND PUSH4 0x70A08231 ADDRESS PUSH1 0x40 MLOAD DUP3 PUSH4 0xFFFFFFFF AND PUSH1 0xE0 SHL DUP2 MSTORE PUSH1 0x4 ADD PUSH2 0x1653 SWAP2 SWAP1 PUSH2 0x20BD JUMP JUMPDEST PUSH1 0x20 PUSH1 0x40 MLOAD DUP1 DUP4 SUB DUP2 DUP7 GAS STATICCALL ISZERO DUP1 ISZERO PUSH2 0x166E JUMPI RETURNDATASIZE PUSH0 DUP1 RETURNDATACOPY RETURNDATASIZE PUSH0 REVERT JUMPDEST POP POP POP POP PUSH1 0x40 MLOAD RETURNDATASIZE PUSH1 0x1F NOT PUSH1 0x1F DUP3 ADD AND DUP3 ADD DUP1 PUSH1 0x40 MSTORE POP DUP2 ADD SWAP1 PUSH2 0x1692 SWAP2 SWAP1 PUSH2 0x2BB5 JUMP JUMPDEST SWAP1 POP PUSH0 PUSH20 0x10ED43C718714EB63D5AA57B78B54704E256024E PUSH20 0xFFFFFFFFFFFFFFFFFFFFFFFFFFFFFFFFFFFFFFFF AND PUSH4 0xAF2979EB PUSH1 0x3 PUSH0 SWAP1 SLOAD SWAP1 PUSH2 0x100 EXP SWAP1 DIV PUSH20 0xFFFFFFFFFFFFFFFFFFFFFFFFFFFFFFFFFFFFFFFF AND DUP7 PUSH0 DUP1 ADDRESS TIMESTAMP PUSH1 0x40 MLOAD DUP8 PUSH4 0xFFFFFFFF AND PUSH1 0xE0 SHL DUP2 MSTORE PUSH1 0x4 ADD PUSH2 0x170D SWAP7 SWAP6 SWAP5 SWAP4 SWAP3 SWAP2 SWAP1 PUSH2 0x2C19 JUMP JUMPDEST PUSH1 0x20 PUSH1 0x40 MLOAD DUP1 DUP4 SUB DUP2 PUSH0 DUP8 GAS CALL ISZERO DUP1 ISZERO PUSH2 0x1729 JUMPI RETURNDATASIZE PUSH0 DUP1 RETURNDATACOPY RETURNDATASIZE PUSH0 REVERT JUMPDEST POP POP POP POP PUSH1 0x40 MLOAD RETURNDATASIZE PUSH1 0x1F NOT PUSH1 0x1F DUP3 ADD AND DUP3 ADD DUP1 PUSH1 0x40 MSTORE POP DUP2 ADD SWAP1 PUSH2 0x174D SWAP2 SWAP1 PUSH2 0x2BB5 JUMP JUMPDEST SWAP1 POP PUSH0 PUSH1 0x3 PUSH0 SWAP1 SLOAD SWAP1 PUSH2 0x100 EXP SWAP1 DIV PUSH20 0xFFFFFFFFFFFFFFFFFFFFFFFFFFFFFFFFFFFFFFFF AND PUSH20 0xFFFFFFFFFFFFFFFFFFFFFFFFFFFFFFFFFFFFFFFF AND PUSH4 0x70A08231 ADDRESS PUSH1 0x40 MLOAD DUP3 PUSH4 0xFFFFFFFF AND PUSH1 0xE0 SHL DUP2 MSTORE PUSH1 0x4 ADD PUSH2 0x17AA SWAP2 SWAP1 PUSH2 0x20BD JUMP JUMPDEST PUSH1 0x20 PUSH1 0x40 MLOAD DUP1 DUP4 SUB DUP2 DUP7 GAS STATICCALL ISZERO DUP1 ISZERO PUSH2 0x17C5 JUMPI RETURNDATASIZE PUSH0 DUP1 RETURNDATACOPY RETURNDATASIZE PUSH0 REVERT JUMPDEST POP POP POP POP PUSH1 0x40 MLOAD RETURNDATASIZE PUSH1 0x1F NOT PUSH1 0x1F DUP3 ADD AND DUP3 ADD DUP1 PUSH1 0x40 MSTORE POP DUP2 ADD SWAP1 PUSH2 0x17E9 SWAP2 SWAP1 PUSH2 0x2BB5 JUMP JUMPDEST SWAP1 POP DUP4 PUSH2 0x182C JUMPI PUSH2 0x1827 PUSH1 0x3 PUSH0 SWAP1 SLOAD SWAP1 PUSH2 0x100 EXP SWAP1 DIV PUSH20 0xFFFFFFFFFFFFFFFFFFFFFFFFFFFFFFFFFFFFFFFF AND DUP8 DUP6 DUP5 PUSH2 0x1822 SWAP2 SWAP1 PUSH2 0x2891 JUMP JUMPDEST PUSH2 0x1C68 JUMP JUMPDEST PUSH2 0x1866 JUMP JUMPDEST PUSH2 0x1865 PUSH1 0x3 PUSH0 SWAP1 SLOAD SWAP1 PUSH2 0x100 EXP SWAP1 DIV PUSH20 0xFFFFFFFFFFFFFFFFFFFFFFFFFFFFFFFFFFFFFFFF AND PUSH2 0xDEAD DUP6 DUP5 PUSH2 0x1860 SWAP2 SWAP1 PUSH2 0x2891 JUMP JUMPDEST PUSH2 0x1C68 JUMP JUMPDEST JUMPDEST PUSH2 0x1870 DUP7 DUP4 PUSH2 0x1A00 JUMP JUMPDEST POP POP POP POP POP POP JUMP JUMPDEST PUSH1 0x1 PUSH0 DUP2 SWAP1 SSTORE POP JUMP JUMPDEST PUSH2 0x1889 PUSH2 0x1B0E JUMP JUMPDEST PUSH20 0xFFFFFFFFFFFFFFFFFFFFFFFFFFFFFFFFFFFFFFFF AND PUSH2 0x18A7 PUSH2 0xB19 JUMP JUMPDEST PUSH20 0xFFFFFFFFFFFFFFFFFFFFFFFFFFFFFFFFFFFFFFFF AND EQ PUSH2 0x1906 JUMPI PUSH2 0x18CA PUSH2 0x1B0E JUMP JUMPDEST PUSH1 0x40 MLOAD PUSH32 0x118CDAA700000000000000000000000000000000000000000000000000000000 DUP2 MSTORE PUSH1 0x4 ADD PUSH2 0x18FD SWAP2 SWAP1 PUSH2 0x20BD JUMP JUMPDEST PUSH1 0x40 MLOAD DUP1 SWAP2 SUB SWAP1 REVERT JUMPDEST JUMP JUMPDEST PUSH0 PUSH2 0x1911 PUSH2 0x19D9 JUMP JUMPDEST SWAP1 POP PUSH0 DUP2 PUSH0 ADD PUSH0 SWAP1 SLOAD SWAP1 PUSH2 0x100 EXP SWAP1 DIV PUSH20 0xFFFFFFFFFFFFFFFFFFFFFFFFFFFFFFFFFFFFFFFF AND SWAP1 POP DUP3 DUP3 PUSH0 ADD PUSH0 PUSH2 0x100 EXP DUP2 SLOAD DUP2 PUSH20 0xFFFFFFFFFFFFFFFFFFFFFFFFFFFFFFFFFFFFFFFF MUL NOT AND SWAP1 DUP4 PUSH20 0xFFFFFFFFFFFFFFFFFFFFFFFFFFFFFFFFFFFFFFFF AND MUL OR SWAP1 SSTORE POP DUP3 PUSH20 0xFFFFFFFFFFFFFFFFFFFFFFFFFFFFFFFFFFFFFFFF AND DUP2 PUSH20 0xFFFFFFFFFFFFFFFFFFFFFFFFFFFFFFFFFFFFFFFF AND PUSH32 0x8BE0079C531659141344CD1FD0A4F28419497F9722A3DAAFE3B4186F6B6457E0 PUSH1 0x40 MLOAD PUSH1 0x40 MLOAD DUP1 SWAP2 SUB SWAP1 LOG3 POP POP POP JUMP JUMPDEST PUSH0 PUSH32 0x9016D09D72D40FDAE2FD8CEAC6B6234C7706214FD39C1CD1E609A0528C199300 SWAP1 POP SWAP1 JUMP JUMPDEST PUSH0 DUP3 PUSH20 0xFFFFFFFFFFFFFFFFFFFFFFFFFFFFFFFFFFFFFFFF AND DUP3 PUSH0 PUSH8 0xFFFFFFFFFFFFFFFF DUP2 GT ISZERO PUSH2 0x1A33 JUMPI PUSH2 0x1A32 PUSH2 0x2185 JUMP JUMPDEST JUMPDEST PUSH1 0x40 MLOAD SWAP1 DUP1 DUP3 MSTORE DUP1 PUSH1 0x1F ADD PUSH1 0x1F NOT AND PUSH1 0x20 ADD DUP3 ADD PUSH1 0x40 MSTORE DUP1 ISZERO PUSH2 0x1A65 JUMPI DUP2 PUSH1 0x20 ADD PUSH1 0x1 DUP3 MUL DUP1 CALLDATASIZE DUP4 CALLDATACOPY DUP1 DUP3 ADD SWAP2 POP POP SWAP1 POP JUMPDEST POP PUSH1 0x40 MLOAD PUSH2 0x1A73 SWAP2 SWAP1 PUSH2 0x2CBC JUMP JUMPDEST PUSH0 PUSH1 0x40 MLOAD DUP1 DUP4 SUB DUP2 DUP6 DUP8 GAS CALL SWAP3 POP POP POP RETURNDATASIZE DUP1 PUSH0 DUP2 EQ PUSH2 0x1AAD JUMPI PUSH1 0x40 MLOAD SWAP2 POP PUSH1 0x1F NOT PUSH1 0x3F RETURNDATASIZE ADD AND DUP3 ADD PUSH1 0x40 MSTORE RETURNDATASIZE DUP3 MSTORE RETURNDATASIZE PUSH0 PUSH1 0x20 DUP5 ADD RETURNDATACOPY PUSH2 0x1AB2 JUMP JUMPDEST PUSH1 0x60 SWAP2 POP JUMPDEST POP POP SWAP1 POP DUP1 PUSH2 0x1AF6 JUMPI PUSH1 0x40 MLOAD PUSH32 0x8C379A000000000000000000000000000000000000000000000000000000000 DUP2 MSTORE PUSH1 0x4 ADD PUSH2 0x1AED SWAP1 PUSH2 0x2D42 JUMP JUMPDEST PUSH1 0x40 MLOAD DUP1 SWAP2 SUB SWAP1 REVERT JUMPDEST POP POP POP JUMP JUMPDEST PUSH0 DUP1 PUSH2 0x1B05 PUSH2 0x1D98 JUMP JUMPDEST SWAP1 POP DUP1 SWAP2 POP POP SWAP1 JUMP JUMPDEST PUSH0 CALLER SWAP1 POP SWAP1 JUMP JUMPDEST PUSH2 0x1B1D PUSH2 0x1DC1 JUMP JUMPDEST PUSH0 PUSH20 0xFFFFFFFFFFFFFFFFFFFFFFFFFFFFFFFFFFFFFFFF AND DUP2 PUSH20 0xFFFFFFFFFFFFFFFFFFFFFFFFFFFFFFFFFFFFFFFF AND SUB PUSH2 0x1B8D JUMPI PUSH0 PUSH1 0x40 MLOAD PUSH32 0x1E4FBDF700000000000000000000000000000000000000000000000000000000 DUP2 MSTORE PUSH1 0x4 ADD PUSH2 0x1B84 SWAP2 SWAP1 PUSH2 0x20BD JUMP JUMPDEST PUSH1 0x40 MLOAD DUP1 SWAP2 SUB SWAP1 REVERT JUMPDEST PUSH2 0x1B96 DUP2 PUSH2 0x1908 JUMP JUMPDEST POP JUMP JUMPDEST PUSH2 0x1BA1 PUSH2 0x1DC1 JUMP JUMPDEST JUMP JUMPDEST PUSH0 PUSH2 0x1BCF PUSH32 0x360894A13BA1A3210667C828492DB98DCA3E2076CC3735A920A3CA505D382BBC PUSH0 SHL PUSH2 0x1E01 JUMP JUMPDEST PUSH0 ADD PUSH0 SWAP1 SLOAD SWAP1 PUSH2 0x100 EXP SWAP1 DIV PUSH20 0xFFFFFFFFFFFFFFFFFFFFFFFFFFFFFFFFFFFFFFFF AND SWAP1 POP SWAP1 JUMP JUMPDEST PUSH2 0x1BFF DUP3 PUSH2 0x1E0A JUMP JUMPDEST DUP2 PUSH20 0xFFFFFFFFFFFFFFFFFFFFFFFFFFFFFFFFFFFFFFFF AND PUSH32 0xBC7CD75A20EE27FD9ADEBAB32041F755214DBC6BFFA90CC0225B39DA2E5C2D3B PUSH1 0x40 MLOAD PUSH1 0x40 MLOAD DUP1 SWAP2 SUB SWAP1 LOG2 PUSH0 DUP2 MLOAD GT ISZERO PUSH2 0x1C5B JUMPI PUSH2 0x1C55 DUP3 DUP3 PUSH2 0x1ED3 JUMP JUMPDEST POP PUSH2 0x1C64 JUMP JUMPDEST PUSH2 0x1C63 PUSH2 0x1F53 JUMP JUMPDEST JUMPDEST POP POP JUMP JUMPDEST PUSH0 DUP1 DUP5 PUSH20 0xFFFFFFFFFFFFFFFFFFFFFFFFFFFFFFFFFFFFFFFF AND PUSH4 0xA9059CBB DUP6 DUP6 PUSH1 0x40 MLOAD PUSH1 0x24 ADD PUSH2 0x1C99 SWAP3 SWAP2 SWAP1 PUSH2 0x2A57 JUMP JUMPDEST PUSH1 0x40 MLOAD PUSH1 0x20 DUP2 DUP4 SUB SUB DUP2 MSTORE SWAP1 PUSH1 0x40 MSTORE SWAP1 PUSH1 0xE0 SHL PUSH1 0x20 DUP3 ADD DUP1 MLOAD PUSH28 0xFFFFFFFFFFFFFFFFFFFFFFFFFFFFFFFFFFFFFFFFFFFFFFFFFFFFFFFF DUP4 DUP2 DUP4 AND OR DUP4 MSTORE POP POP POP POP PUSH1 0x40 MLOAD PUSH2 0x1CE7 SWAP2 SWAP1 PUSH2 0x2CBC JUMP JUMPDEST PUSH0 PUSH1 0x40 MLOAD DUP1 DUP4 SUB DUP2 PUSH0 DUP7 GAS CALL SWAP2 POP POP RETURNDATASIZE DUP1 PUSH0 DUP2 EQ PUSH2 0x1D20 JUMPI PUSH1 0x40 MLOAD SWAP2 POP PUSH1 0x1F NOT PUSH1 0x3F RETURNDATASIZE ADD AND DUP3 ADD PUSH1 0x40 MSTORE RETURNDATASIZE DUP3 MSTORE RETURNDATASIZE PUSH0 PUSH1 0x20 DUP5 ADD RETURNDATACOPY PUSH2 0x1D25 JUMP JUMPDEST PUSH1 0x60 SWAP2 POP JUMPDEST POP SWAP2 POP SWAP2 POP DUP2 DUP1 ISZERO PUSH2 0x1D52 JUMPI POP PUSH0 DUP2 MLOAD EQ DUP1 PUSH2 0x1D51 JUMPI POP DUP1 DUP1 PUSH1 0x20 ADD SWAP1 MLOAD DUP2 ADD SWAP1 PUSH2 0x1D50 SWAP2 SWAP1 PUSH2 0x2B76 JUMP JUMPDEST JUMPDEST JUMPDEST PUSH2 0x1D91 JUMPI PUSH1 0x40 MLOAD PUSH32 0x8C379A000000000000000000000000000000000000000000000000000000000 DUP2 MSTORE PUSH1 0x4 ADD PUSH2 0x1D88 SWAP1 PUSH2 0x2DAA JUMP JUMPDEST PUSH1 0x40 MLOAD DUP1 SWAP2 SUB SWAP1 REVERT JUMPDEST POP POP POP POP POP JUMP JUMPDEST PUSH0 PUSH32 0xF0C57E16840DF040F15088DC2F81FE391C3923BEC73E23A9662EFC9C229C6A00 PUSH0 SHL SWAP1 POP SWAP1 JUMP JUMPDEST PUSH2 0x1DC9 PUSH2 0x1F8F JUMP JUMPDEST PUSH2 0x1DFF JUMPI PUSH1 0x40 MLOAD PUSH32 0xD7E6BCF800000000000000000000000000000000000000000000000000000000 DUP2 MSTORE PUSH1 0x4 ADD PUSH1 0x40 MLOAD DUP1 SWAP2 SUB SWAP1 REVERT JUMPDEST JUMP JUMPDEST PUSH0 DUP2 SWAP1 POP SWAP2 SWAP1 POP JUMP JUMPDEST PUSH0 DUP2 PUSH20 0xFFFFFFFFFFFFFFFFFFFFFFFFFFFFFFFFFFFFFFFF AND EXTCODESIZE SUB PUSH2 0x1E65 JUMPI DUP1 PUSH1 0x40 MLOAD PUSH32 0x4C9C8CE300000000000000000000000000000000000000000000000000000000 DUP2 MSTORE PUSH1 0x4 ADD PUSH2 0x1E5C SWAP2 SWAP1 PUSH2 0x20BD JUMP JUMPDEST PUSH1 0x40 MLOAD DUP1 SWAP2 SUB SWAP1 REVERT JUMPDEST DUP1 PUSH2 0x1E91 PUSH32 0x360894A13BA1A3210667C828492DB98DCA3E2076CC3735A920A3CA505D382BBC PUSH0 SHL PUSH2 0x1E01 JUMP JUMPDEST PUSH0 ADD PUSH0 PUSH2 0x100 EXP DUP2 SLOAD DUP2 PUSH20 0xFFFFFFFFFFFFFFFFFFFFFFFFFFFFFFFFFFFFFFFF MUL NOT AND SWAP1 DUP4 PUSH20 0xFFFFFFFFFFFFFFFFFFFFFFFFFFFFFFFFFFFFFFFF AND MUL OR SWAP1 SSTORE POP POP JUMP JUMPDEST PUSH1 0x60 PUSH0 DUP1 DUP5 PUSH20 0xFFFFFFFFFFFFFFFFFFFFFFFFFFFFFFFFFFFFFFFF AND DUP5 PUSH1 0x40 MLOAD PUSH2 0x1EFC SWAP2 SWAP1 PUSH2 0x2CBC JUMP JUMPDEST PUSH0 PUSH1 0x40 MLOAD DUP1 DUP4 SUB DUP2 DUP6 GAS DELEGATECALL SWAP2 POP POP RETURNDATASIZE DUP1 PUSH0 DUP2 EQ PUSH2 0x1F34 JUMPI PUSH1 0x40 MLOAD SWAP2 POP PUSH1 0x1F NOT PUSH1 0x3F RETURNDATASIZE ADD AND DUP3 ADD PUSH1 0x40 MSTORE RETURNDATASIZE DUP3 MSTORE RETURNDATASIZE PUSH0 PUSH1 0x20 DUP5 ADD RETURNDATACOPY PUSH2 0x1F39 JUMP JUMPDEST PUSH1 0x60 SWAP2 POP JUMPDEST POP SWAP2 POP SWAP2 POP PUSH2 0x1F49 DUP6 DUP4 DUP4 PUSH2 0x1FAD JUMP JUMPDEST SWAP3 POP POP POP SWAP3 SWAP2 POP POP JUMP JUMPDEST PUSH0 CALLVALUE GT ISZERO PUSH2 0x1F8D JUMPI PUSH1 0x40 MLOAD PUSH32 0xB398979F00000000000000000000000000000000000000000000000000000000 DUP2 MSTORE PUSH1 0x4 ADD PUSH1 0x40 MLOAD DUP1 SWAP2 SUB SWAP1 REVERT JUMPDEST JUMP JUMPDEST PUSH0 PUSH2 0x1F98 PUSH2 0x1AFB JUMP JUMPDEST PUSH0 ADD PUSH1 0x8 SWAP1 SLOAD SWAP1 PUSH2 0x100 EXP SWAP1 DIV PUSH1 0xFF AND SWAP1 POP SWAP1 JUMP JUMPDEST PUSH1 0x60 DUP3 PUSH2 0x1FC2 JUMPI PUSH2 0x1FBD DUP3 PUSH2 0x203A JUMP JUMPDEST PUSH2 0x2032 JUMP JUMPDEST PUSH0 DUP3 MLOAD EQ DUP1 ISZERO PUSH2 0x1FE8 JUMPI POP PUSH0 DUP5 PUSH20 0xFFFFFFFFFFFFFFFFFFFFFFFFFFFFFFFFFFFFFFFF AND EXTCODESIZE EQ JUMPDEST ISZERO PUSH2 0x202A JUMPI DUP4 PUSH1 0x40 MLOAD PUSH32 0x9996B31500000000000000000000000000000000000000000000000000000000 DUP2 MSTORE PUSH1 0x4 ADD PUSH2 0x2021 SWAP2 SWAP1 PUSH2 0x20BD JUMP JUMPDEST PUSH1 0x40 MLOAD DUP1 SWAP2 SUB SWAP1 REVERT JUMPDEST DUP2 SWAP1 POP PUSH2 0x2033 JUMP JUMPDEST JUMPDEST SWAP4 SWAP3 POP POP POP JUMP JUMPDEST PUSH0 DUP2 MLOAD GT ISZERO PUSH2 0x204C JUMPI DUP1 MLOAD DUP1 DUP3 PUSH1 0x20 ADD REVERT JUMPDEST PUSH1 0x40 MLOAD PUSH32 0xD6BDA27500000000000000000000000000000000000000000000000000000000 DUP2 MSTORE PUSH1 0x4 ADD PUSH1 0x40 MLOAD DUP1 SWAP2 SUB SWAP1 REVERT JUMPDEST PUSH0 PUSH20 0xFFFFFFFFFFFFFFFFFFFFFFFFFFFFFFFFFFFFFFFF DUP3 AND SWAP1 POP SWAP2 SWAP1 POP JUMP JUMPDEST PUSH0 PUSH2 0x20A7 DUP3 PUSH2 0x207E JUMP JUMPDEST SWAP1 POP SWAP2 SWAP1 POP JUMP JUMPDEST PUSH2 0x20B7 DUP2 PUSH2 0x209D JUMP JUMPDEST DUP3 MSTORE POP POP JUMP JUMPDEST PUSH0 PUSH1 0x20 DUP3 ADD SWAP1 POP PUSH2 0x20D0 PUSH0 DUP4 ADD DUP5 PUSH2 0x20AE JUMP JUMPDEST SWAP3 SWAP2 POP POP JUMP JUMPDEST PUSH0 PUSH1 0x40 MLOAD SWAP1 POP SWAP1 JUMP JUMPDEST PUSH0 DUP1 REVERT JUMPDEST PUSH0 DUP1 REVERT JUMPDEST PUSH2 0x20F0 DUP2 PUSH2 0x209D JUMP JUMPDEST DUP2 EQ PUSH2 0x20FA JUMPI PUSH0 DUP1 REVERT JUMPDEST POP JUMP JUMPDEST PUSH0 DUP2 CALLDATALOAD SWAP1 POP PUSH2 0x210B DUP2 PUSH2 0x20E7 JUMP JUMPDEST SWAP3 SWAP2 POP POP JUMP JUMPDEST PUSH0 PUSH1 0x20 DUP3 DUP5 SUB SLT ISZERO PUSH2 0x2126 JUMPI PUSH2 0x2125 PUSH2 0x20DF JUMP JUMPDEST JUMPDEST PUSH0 PUSH2 0x2133 DUP5 DUP3 DUP6 ADD PUSH2 0x20FD JUMP JUMPDEST SWAP2 POP POP SWAP3 SWAP2 POP POP JUMP JUMPDEST PUSH0 DUP2 SWAP1 POP SWAP2 SWAP1 POP JUMP JUMPDEST PUSH2 0x214E DUP2 PUSH2 0x213C JUMP JUMPDEST DUP3 MSTORE POP POP JUMP JUMPDEST PUSH0 PUSH1 0x20 DUP3 ADD SWAP1 POP PUSH2 0x2167 PUSH0 DUP4 ADD DUP5 PUSH2 0x2145 JUMP JUMPDEST SWAP3 SWAP2 POP POP JUMP JUMPDEST PUSH0 DUP1 REVERT JUMPDEST PUSH0 DUP1 REVERT JUMPDEST PUSH0 PUSH1 0x1F NOT PUSH1 0x1F DUP4 ADD AND SWAP1 POP SWAP2 SWAP1 POP JUMP JUMPDEST PUSH32 0x4E487B7100000000000000000000000000000000000000000000000000000000 PUSH0 MSTORE PUSH1 0x41 PUSH1 0x4 MSTORE PUSH1 0x24 PUSH0 REVERT JUMPDEST PUSH2 0x21BB DUP3 PUSH2 0x2175 JUMP JUMPDEST DUP2 ADD DUP2 DUP2 LT PUSH8 0xFFFFFFFFFFFFFFFF DUP3 GT OR ISZERO PUSH2 0x21DA JUMPI PUSH2 0x21D9 PUSH2 0x2185 JUMP JUMPDEST JUMPDEST DUP1 PUSH1 0x40 MSTORE POP POP POP JUMP JUMPDEST PUSH0 PUSH2 0x21EC PUSH2 0x20D6 JUMP JUMPDEST SWAP1 POP PUSH2 0x21F8 DUP3 DUP3 PUSH2 0x21B2 JUMP JUMPDEST SWAP2 SWAP1 POP JUMP JUMPDEST PUSH0 PUSH8 0xFFFFFFFFFFFFFFFF DUP3 GT ISZERO PUSH2 0x2217 JUMPI PUSH2 0x2216 PUSH2 0x2185 JUMP JUMPDEST JUMPDEST PUSH2 0x2220 DUP3 PUSH2 0x2175 JUMP JUMPDEST SWAP1 POP PUSH1 0x20 DUP2 ADD SWAP1 POP SWAP2 SWAP1 POP JUMP JUMPDEST DUP3 DUP2 DUP4 CALLDATACOPY PUSH0 DUP4 DUP4 ADD MSTORE POP POP POP JUMP JUMPDEST PUSH0 PUSH2 0x224D PUSH2 0x2248 DUP5 PUSH2 0x21FD JUMP JUMPDEST PUSH2 0x21E3 JUMP JUMPDEST SWAP1 POP DUP3 DUP2 MSTORE PUSH1 0x20 DUP2 ADD DUP5 DUP5 DUP5 ADD GT ISZERO PUSH2 0x2269 JUMPI PUSH2 0x2268 PUSH2 0x2171 JUMP JUMPDEST JUMPDEST PUSH2 0x2274 DUP5 DUP3 DUP6 PUSH2 0x222D JUMP JUMPDEST POP SWAP4 SWAP3 POP POP POP JUMP JUMPDEST PUSH0 DUP3 PUSH1 0x1F DUP4 ADD SLT PUSH2 0x2290 JUMPI PUSH2 0x228F PUSH2 0x216D JUMP JUMPDEST JUMPDEST DUP2 CALLDATALOAD PUSH2 0x22A0 DUP5 DUP3 PUSH1 0x20 DUP7 ADD PUSH2 0x223B JUMP JUMPDEST SWAP2 POP POP SWAP3 SWAP2 POP POP JUMP JUMPDEST PUSH0 DUP1 PUSH1 0x40 DUP4 DUP6 SUB SLT ISZERO PUSH2 0x22BF JUMPI PUSH2 0x22BE PUSH2 0x20DF JUMP JUMPDEST JUMPDEST PUSH0 PUSH2 0x22CC DUP6 DUP3 DUP7 ADD PUSH2 0x20FD JUMP JUMPDEST SWAP3 POP POP PUSH1 0x20 DUP4 ADD CALLDATALOAD PUSH8 0xFFFFFFFFFFFFFFFF DUP2 GT ISZERO PUSH2 0x22ED JUMPI PUSH2 0x22EC PUSH2 0x20E3 JUMP JUMPDEST JUMPDEST PUSH2 0x22F9 DUP6 DUP3 DUP7 ADD PUSH2 0x227C JUMP JUMPDEST SWAP2 POP POP SWAP3 POP SWAP3 SWAP1 POP JUMP JUMPDEST PUSH0 DUP2 SWAP1 POP SWAP2 SWAP1 POP JUMP JUMPDEST PUSH2 0x2315 DUP2 PUSH2 0x2303 JUMP JUMPDEST DUP3 MSTORE POP POP JUMP JUMPDEST PUSH0 PUSH1 0x20 DUP3 ADD SWAP1 POP PUSH2 0x232E PUSH0 DUP4 ADD DUP5 PUSH2 0x230C JUMP JUMPDEST SWAP3 SWAP2 POP POP JUMP JUMPDEST PUSH0 PUSH8 0xFFFFFFFFFFFFFFFF DUP3 GT ISZERO PUSH2 0x234E JUMPI PUSH2 0x234D PUSH2 0x2185 JUMP JUMPDEST JUMPDEST PUSH2 0x2357 DUP3 PUSH2 0x2175 JUMP JUMPDEST SWAP1 POP PUSH1 0x20 DUP2 ADD SWAP1 POP SWAP2 SWAP1 POP JUMP JUMPDEST PUSH0 PUSH2 0x2376 PUSH2 0x2371 DUP5 PUSH2 0x2334 JUMP JUMPDEST PUSH2 0x21E3 JUMP JUMPDEST SWAP1 POP DUP3 DUP2 MSTORE PUSH1 0x20 DUP2 ADD DUP5 DUP5 DUP5 ADD GT ISZERO PUSH2 0x2392 JUMPI PUSH2 0x2391 PUSH2 0x2171 JUMP JUMPDEST JUMPDEST PUSH2 0x239D DUP5 DUP3 DUP6 PUSH2 0x222D JUMP JUMPDEST POP SWAP4 SWAP3 POP POP POP JUMP JUMPDEST PUSH0 DUP3 PUSH1 0x1F DUP4 ADD SLT PUSH2 0x23B9 JUMPI PUSH2 0x23B8 PUSH2 0x216D JUMP JUMPDEST JUMPDEST DUP2 CALLDATALOAD PUSH2 0x23C9 DUP5 DUP3 PUSH1 0x20 DUP7 ADD PUSH2 0x2364 JUMP JUMPDEST SWAP2 POP POP SWAP3 SWAP2 POP POP JUMP JUMPDEST PUSH0 PUSH8 0xFFFFFFFFFFFFFFFF DUP3 GT ISZERO PUSH2 0x23EC JUMPI PUSH2 0x23EB PUSH2 0x2185 JUMP JUMPDEST JUMPDEST PUSH1 0x20 DUP3 MUL SWAP1 POP PUSH1 0x20 DUP2 ADD SWAP1 POP SWAP2 SWAP1 POP JUMP JUMPDEST PUSH0 DUP1 REVERT JUMPDEST PUSH0 PUSH2 0x2413 PUSH2 0x240E DUP5 PUSH2 0x23D2 JUMP JUMPDEST PUSH2 0x21E3 JUMP JUMPDEST SWAP1 POP DUP1 DUP4 DUP3 MSTORE PUSH1 0x20 DUP3 ADD SWAP1 POP PUSH1 0x20 DUP5 MUL DUP4 ADD DUP6 DUP2 GT ISZERO PUSH2 0x2436 JUMPI PUSH2 0x2435 PUSH2 0x23FD JUMP JUMPDEST JUMPDEST DUP4 JUMPDEST DUP2 DUP2 LT ISZERO PUSH2 0x245F JUMPI DUP1 PUSH2 0x244B DUP9 DUP3 PUSH2 0x20FD JUMP JUMPDEST DUP5 MSTORE PUSH1 0x20 DUP5 ADD SWAP4 POP POP PUSH1 0x20 DUP2 ADD SWAP1 POP PUSH2 0x2438 JUMP JUMPDEST POP POP POP SWAP4 SWAP3 POP POP POP JUMP JUMPDEST PUSH0 DUP3 PUSH1 0x1F DUP4 ADD SLT PUSH2 0x247D JUMPI PUSH2 0x247C PUSH2 0x216D JUMP JUMPDEST JUMPDEST DUP2 CALLDATALOAD PUSH2 0x248D DUP5 DUP3 PUSH1 0x20 DUP7 ADD PUSH2 0x2401 JUMP JUMPDEST SWAP2 POP POP SWAP3 SWAP2 POP POP JUMP JUMPDEST PUSH0 PUSH8 0xFFFFFFFFFFFFFFFF DUP3 GT ISZERO PUSH2 0x24B0 JUMPI PUSH2 0x24AF PUSH2 0x2185 JUMP JUMPDEST JUMPDEST PUSH1 0x20 DUP3 MUL SWAP1 POP PUSH1 0x20 DUP2 ADD SWAP1 POP SWAP2 SWAP1 POP JUMP JUMPDEST PUSH2 0x24CA DUP2 PUSH2 0x213C JUMP JUMPDEST DUP2 EQ PUSH2 0x24D4 JUMPI PUSH0 DUP1 REVERT JUMPDEST POP JUMP JUMPDEST PUSH0 DUP2 CALLDATALOAD SWAP1 POP PUSH2 0x24E5 DUP2 PUSH2 0x24C1 JUMP JUMPDEST SWAP3 SWAP2 POP POP JUMP JUMPDEST PUSH0 PUSH2 0x24FD PUSH2 0x24F8 DUP5 PUSH2 0x2496 JUMP JUMPDEST PUSH2 0x21E3 JUMP JUMPDEST SWAP1 POP DUP1 DUP4 DUP3 MSTORE PUSH1 0x20 DUP3 ADD SWAP1 POP PUSH1 0x20 DUP5 MUL DUP4 ADD DUP6 DUP2 GT ISZERO PUSH2 0x2520 JUMPI PUSH2 0x251F PUSH2 0x23FD JUMP JUMPDEST JUMPDEST DUP4 JUMPDEST DUP2 DUP2 LT ISZERO PUSH2 0x2549 JUMPI DUP1 PUSH2 0x2535 DUP9 DUP3 PUSH2 0x24D7 JUMP JUMPDEST DUP5 MSTORE PUSH1 0x20 DUP5 ADD SWAP4 POP POP PUSH1 0x20 DUP2 ADD SWAP1 POP PUSH2 0x2522 JUMP JUMPDEST POP POP POP SWAP4 SWAP3 POP POP POP JUMP JUMPDEST PUSH0 DUP3 PUSH1 0x1F DUP4 ADD SLT PUSH2 0x2567 JUMPI PUSH2 0x2566 PUSH2 0x216D JUMP JUMPDEST JUMPDEST DUP2 CALLDATALOAD PUSH2 0x2577 DUP5 DUP3 PUSH1 0x20 DUP7 ADD PUSH2 0x24EB JUMP JUMPDEST SWAP2 POP POP SWAP3 SWAP2 POP POP JUMP JUMPDEST PUSH0 DUP1 PUSH0 PUSH1 0x60 DUP5 DUP7 SUB SLT ISZERO PUSH2 0x2597 JUMPI PUSH2 0x2596 PUSH2 0x20DF JUMP JUMPDEST JUMPDEST PUSH0 DUP5 ADD CALLDATALOAD PUSH8 0xFFFFFFFFFFFFFFFF DUP2 GT ISZERO PUSH2 0x25B4 JUMPI PUSH2 0x25B3 PUSH2 0x20E3 JUMP JUMPDEST JUMPDEST PUSH2 0x25C0 DUP7 DUP3 DUP8 ADD PUSH2 0x23A5 JUMP JUMPDEST SWAP4 POP POP PUSH1 0x20 DUP5 ADD CALLDATALOAD PUSH8 0xFFFFFFFFFFFFFFFF DUP2 GT ISZERO PUSH2 0x25E1 JUMPI PUSH2 0x25E0 PUSH2 0x20E3 JUMP JUMPDEST JUMPDEST PUSH2 0x25ED DUP7 DUP3 DUP8 ADD PUSH2 0x2469 JUMP JUMPDEST SWAP3 POP POP PUSH1 0x40 DUP5 ADD CALLDATALOAD PUSH8 0xFFFFFFFFFFFFFFFF DUP2 GT ISZERO PUSH2 0x260E JUMPI PUSH2 0x260D PUSH2 0x20E3 JUMP JUMPDEST JUMPDEST PUSH2 0x261A DUP7 DUP3 DUP8 ADD PUSH2 0x2553 JUMP JUMPDEST SWAP2 POP POP SWAP3 POP SWAP3 POP SWAP3 JUMP JUMPDEST PUSH0 PUSH1 0x40 DUP3 ADD SWAP1 POP PUSH2 0x2637 PUSH0 DUP4 ADD DUP6 PUSH2 0x2145 JUMP JUMPDEST PUSH2 0x2644 PUSH1 0x20 DUP4 ADD DUP5 PUSH2 0x2145 JUMP JUMPDEST SWAP4 SWAP3 POP POP POP JUMP JUMPDEST PUSH0 DUP1 PUSH0 DUP1 PUSH1 0x80 DUP6 DUP8 SUB SLT ISZERO PUSH2 0x2663 JUMPI PUSH2 0x2662 PUSH2 0x20DF JUMP JUMPDEST JUMPDEST PUSH0 PUSH2 0x2670 DUP8 DUP3 DUP9 ADD PUSH2 0x20FD JUMP JUMPDEST SWAP5 POP POP PUSH1 0x20 PUSH2 0x2681 DUP8 DUP3 DUP9 ADD PUSH2 0x20FD JUMP JUMPDEST SWAP4 POP POP PUSH1 0x40 PUSH2 0x2692 DUP8 DUP3 DUP9 ADD PUSH2 0x20FD JUMP JUMPDEST SWAP3 POP POP PUSH1 0x60 PUSH2 0x26A3 DUP8 DUP3 DUP9 ADD PUSH2 0x20FD JUMP JUMPDEST SWAP2 POP POP SWAP3 SWAP6 SWAP2 SWAP5 POP SWAP3 POP JUMP JUMPDEST PUSH0 DUP2 MLOAD SWAP1 POP SWAP2 SWAP1 POP JUMP JUMPDEST PUSH0 DUP3 DUP3 MSTORE PUSH1 0x20 DUP3 ADD SWAP1 POP SWAP3 SWAP2 POP POP JUMP JUMPDEST DUP3 DUP2 DUP4 MCOPY PUSH0 DUP4 DUP4 ADD MSTORE POP POP POP JUMP JUMPDEST PUSH0 PUSH2 0x26E1 DUP3 PUSH2 0x26AF JUMP JUMPDEST PUSH2 0x26EB DUP2 DUP6 PUSH2 0x26B9 JUMP JUMPDEST SWAP4 POP PUSH2 0x26FB DUP2 DUP6 PUSH1 0x20 DUP7 ADD PUSH2 0x26C9 JUMP JUMPDEST PUSH2 0x2704 DUP2 PUSH2 0x2175 JUMP JUMPDEST DUP5 ADD SWAP2 POP POP SWAP3 SWAP2 POP POP JUMP JUMPDEST PUSH0 PUSH1 0x20 DUP3 ADD SWAP1 POP DUP2 DUP2 SUB PUSH0 DUP4 ADD MSTORE PUSH2 0x2727 DUP2 DUP5 PUSH2 0x26D7 JUMP JUMPDEST SWAP1 POP SWAP3 SWAP2 POP POP JUMP JUMPDEST PUSH0 PUSH1 0x20 DUP3 DUP5 SUB SLT ISZERO PUSH2 0x2744 JUMPI PUSH2 0x2743 PUSH2 0x20DF JUMP JUMPDEST JUMPDEST PUSH0 PUSH2 0x2751 DUP5 DUP3 DUP6 ADD PUSH2 0x24D7 JUMP JUMPDEST SWAP2 POP POP SWAP3 SWAP2 POP POP JUMP JUMPDEST PUSH0 DUP2 MLOAD SWAP1 POP SWAP2 SWAP1 POP JUMP JUMPDEST PUSH0 DUP3 DUP3 MSTORE PUSH1 0x20 DUP3 ADD SWAP1 POP SWAP3 SWAP2 POP POP JUMP JUMPDEST PUSH0 DUP2 SWAP1 POP PUSH1 0x20 DUP3 ADD SWAP1 POP SWAP2 SWAP1 POP JUMP JUMPDEST PUSH2 0x278C DUP2 PUSH2 0x209D JUMP JUMPDEST DUP3 MSTORE POP POP JUMP JUMPDEST PUSH0 PUSH2 0x279D DUP4 DUP4 PUSH2 0x2783 JUMP JUMPDEST PUSH1 0x20 DUP4 ADD SWAP1 POP SWAP3 SWAP2 POP POP JUMP JUMPDEST PUSH0 PUSH1 0x20 DUP3 ADD SWAP1 POP SWAP2 SWAP1 POP JUMP JUMPDEST PUSH0 PUSH2 0x27BF DUP3 PUSH2 0x275A JUMP JUMPDEST PUSH2 0x27C9 DUP2 DUP6 PUSH2 0x2764 JUMP JUMPDEST SWAP4 POP PUSH2 0x27D4 DUP4 PUSH2 0x2774 JUMP JUMPDEST DUP1 PUSH0 JUMPDEST DUP4 DUP2 LT ISZERO PUSH2 0x2804 JUMPI DUP2 MLOAD PUSH2 0x27EB DUP9 DUP3 PUSH2 0x2792 JUMP JUMPDEST SWAP8 POP PUSH2 0x27F6 DUP4 PUSH2 0x27A9 JUMP JUMPDEST SWAP3 POP POP PUSH1 0x1 DUP2 ADD SWAP1 POP PUSH2 0x27D7 JUMP JUMPDEST POP DUP6 SWAP4 POP POP POP POP SWAP3 SWAP2 POP POP JUMP JUMPDEST PUSH0 PUSH1 0x20 DUP3 ADD SWAP1 POP DUP2 DUP2 SUB PUSH0 DUP4 ADD MSTORE PUSH2 0x2829 DUP2 DUP5 PUSH2 0x27B5 JUMP JUMPDEST SWAP1 POP SWAP3 SWAP2 POP POP JUMP JUMPDEST PUSH32 0x4E487B7100000000000000000000000000000000000000000000000000000000 PUSH0 MSTORE PUSH1 0x11 PUSH1 0x4 MSTORE PUSH1 0x24 PUSH0 REVERT JUMPDEST PUSH0 PUSH2 0x2868 DUP3 PUSH2 0x213C JUMP JUMPDEST SWAP2 POP PUSH2 0x2873 DUP4 PUSH2 0x213C JUMP JUMPDEST SWAP3 POP DUP3 DUP3 ADD SWAP1 POP DUP1 DUP3 GT ISZERO PUSH2 0x288B JUMPI PUSH2 0x288A PUSH2 0x2831 JUMP JUMPDEST JUMPDEST SWAP3 SWAP2 POP POP JUMP JUMPDEST PUSH0 PUSH2 0x289B DUP3 PUSH2 0x213C JUMP JUMPDEST SWAP2 POP PUSH2 0x28A6 DUP4 PUSH2 0x213C JUMP JUMPDEST SWAP3 POP DUP3 DUP3 SUB SWAP1 POP DUP2 DUP2 GT ISZERO PUSH2 0x28BE JUMPI PUSH2 0x28BD PUSH2 0x2831 JUMP JUMPDEST JUMPDEST SWAP3 SWAP2 POP POP JUMP JUMPDEST PUSH32 0x4E6F7420656E6F756768206C6971756964697479000000000000000000000000 PUSH0 DUP3 ADD MSTORE POP JUMP JUMPDEST PUSH0 PUSH2 0x28F8 PUSH1 0x14 DUP4 PUSH2 0x26B9 JUMP JUMPDEST SWAP2 POP PUSH2 0x2903 DUP3 PUSH2 0x28C4 JUMP JUMPDEST PUSH1 0x20 DUP3 ADD SWAP1 POP SWAP2 SWAP1 POP JUMP JUMPDEST PUSH0 PUSH1 0x20 DUP3 ADD SWAP1 POP DUP2 DUP2 SUB PUSH0 DUP4 ADD MSTORE PUSH2 0x2925 DUP2 PUSH2 0x28EC JUMP JUMPDEST SWAP1 POP SWAP2 SWAP1 POP JUMP JUMPDEST PUSH32 0x4E6F7420746865206C6F636B206F776E65720000000000000000000000000000 PUSH0 DUP3 ADD MSTORE POP JUMP JUMPDEST PUSH0 PUSH2 0x2960 PUSH1 0x12 DUP4 PUSH2 0x26B9 JUMP JUMPDEST SWAP2 POP PUSH2 0x296B DUP3 PUSH2 0x292C JUMP JUMPDEST PUSH1 0x20 DUP3 ADD SWAP1 POP SWAP2 SWAP1 POP JUMP JUMPDEST PUSH0 PUSH1 0x20 DUP3 ADD SWAP1 POP DUP2 DUP2 SUB PUSH0 DUP4 ADD MSTORE PUSH2 0x298D DUP2 PUSH2 0x2954 JUMP JUMPDEST SWAP1 POP SWAP2 SWAP1 POP JUMP JUMPDEST PUSH32 0x4E487B7100000000000000000000000000000000000000000000000000000000 PUSH0 MSTORE PUSH1 0x32 PUSH1 0x4 MSTORE PUSH1 0x24 PUSH0 REVERT JUMPDEST PUSH0 PUSH1 0x40 DUP3 ADD SWAP1 POP DUP2 DUP2 SUB PUSH0 DUP4 ADD MSTORE PUSH2 0x29D9 DUP2 DUP6 PUSH2 0x26D7 JUMP JUMPDEST SWAP1 POP PUSH2 0x29E8 PUSH1 0x20 DUP4 ADD DUP5 PUSH2 0x2145 JUMP JUMPDEST SWAP4 SWAP3 POP POP POP JUMP JUMPDEST PUSH32 0x416D6F756E74206D7573742062652067726561746572207468616E2030000000 PUSH0 DUP3 ADD MSTORE POP JUMP JUMPDEST PUSH0 PUSH2 0x2A23 PUSH1 0x1D DUP4 PUSH2 0x26B9 JUMP JUMPDEST SWAP2 POP PUSH2 0x2A2E DUP3 PUSH2 0x29EF JUMP JUMPDEST PUSH1 0x20 DUP3 ADD SWAP1 POP SWAP2 SWAP1 POP JUMP JUMPDEST PUSH0 PUSH1 0x20 DUP3 ADD SWAP1 POP DUP2 DUP2 SUB PUSH0 DUP4 ADD MSTORE PUSH2 0x2A50 DUP2 PUSH2 0x2A17 JUMP JUMPDEST SWAP1 POP SWAP2 SWAP1 POP JUMP JUMPDEST PUSH0 PUSH1 0x40 DUP3 ADD SWAP1 POP PUSH2 0x2A6A PUSH0 DUP4 ADD DUP6 PUSH2 0x20AE JUMP JUMPDEST PUSH2 0x2A77 PUSH1 0x20 DUP4 ADD DUP5 PUSH2 0x2145 JUMP JUMPDEST SWAP4 SWAP3 POP POP POP JUMP JUMPDEST PUSH0 DUP2 SWAP1 POP SWAP2 SWAP1 POP JUMP JUMPDEST PUSH0 PUSH8 0xFFFFFFFFFFFFFFFF DUP3 AND SWAP1 POP SWAP2 SWAP1 POP JUMP JUMPDEST PUSH0 DUP2 SWAP1 POP SWAP2 SWAP1 POP JUMP JUMPDEST PUSH0 PUSH2 0x2ABD PUSH2 0x2AB8 PUSH2 0x2AB3 DUP5 PUSH2 0x2A7E JUMP JUMPDEST PUSH2 0x2A9A JUMP JUMPDEST PUSH2 0x2A87 JUMP JUMPDEST SWAP1 POP SWAP2 SWAP1 POP JUMP JUMPDEST PUSH2 0x2ACD DUP2 PUSH2 0x2AA3 JUMP JUMPDEST DUP3 MSTORE POP POP JUMP JUMPDEST PUSH0 PUSH1 0x20 DUP3 ADD SWAP1 POP PUSH2 0x2AE6 PUSH0 DUP4 ADD DUP5 PUSH2 0x2AC4 JUMP JUMPDEST SWAP3 SWAP2 POP POP JUMP JUMPDEST PUSH2 0x2AF5 DUP2 PUSH2 0x2303 JUMP JUMPDEST DUP2 EQ PUSH2 0x2AFF JUMPI PUSH0 DUP1 REVERT JUMPDEST POP JUMP JUMPDEST PUSH0 DUP2 MLOAD SWAP1 POP PUSH2 0x2B10 DUP2 PUSH2 0x2AEC JUMP JUMPDEST SWAP3 SWAP2 POP POP JUMP JUMPDEST PUSH0 PUSH1 0x20 DUP3 DUP5 SUB SLT ISZERO PUSH2 0x2B2B JUMPI PUSH2 0x2B2A PUSH2 0x20DF JUMP JUMPDEST JUMPDEST PUSH0 PUSH2 0x2B38 DUP5 DUP3 DUP6 ADD PUSH2 0x2B02 JUMP JUMPDEST SWAP2 POP POP SWAP3 SWAP2 POP POP JUMP JUMPDEST PUSH0 DUP2 ISZERO ISZERO SWAP1 POP SWAP2 SWAP1 POP JUMP JUMPDEST PUSH2 0x2B55 DUP2 PUSH2 0x2B41 JUMP JUMPDEST DUP2 EQ PUSH2 0x2B5F JUMPI PUSH0 DUP1 REVERT JUMPDEST POP JUMP JUMPDEST PUSH0 DUP2 MLOAD SWAP1 POP PUSH2 0x2B70 DUP2 PUSH2 0x2B4C JUMP JUMPDEST SWAP3 SWAP2 POP POP JUMP JUMPDEST PUSH0 PUSH1 0x20 DUP3 DUP5 SUB SLT ISZERO PUSH2 0x2B8B JUMPI PUSH2 0x2B8A PUSH2 0x20DF JUMP JUMPDEST JUMPDEST PUSH0 PUSH2 0x2B98 DUP5 DUP3 DUP6 ADD PUSH2 0x2B62 JUMP JUMPDEST SWAP2 POP POP SWAP3 SWAP2 POP POP JUMP JUMPDEST PUSH0 DUP2 MLOAD SWAP1 POP PUSH2 0x2BAF DUP2 PUSH2 0x24C1 JUMP JUMPDEST SWAP3 SWAP2 POP POP JUMP JUMPDEST PUSH0 PUSH1 0x20 DUP3 DUP5 SUB SLT ISZERO PUSH2 0x2BCA JUMPI PUSH2 0x2BC9 PUSH2 0x20DF JUMP JUMPDEST JUMPDEST PUSH0 PUSH2 0x2BD7 DUP5 DUP3 DUP6 ADD PUSH2 0x2BA1 JUMP JUMPDEST SWAP2 POP POP SWAP3 SWAP2 POP POP JUMP JUMPDEST PUSH0 DUP2 SWAP1 POP SWAP2 SWAP1 POP JUMP JUMPDEST PUSH0 PUSH2 0x2C03 PUSH2 0x2BFE PUSH2 0x2BF9 DUP5 PUSH2 0x2BE0 JUMP JUMPDEST PUSH2 0x2A9A JUMP JUMPDEST PUSH2 0x213C JUMP JUMPDEST SWAP1 POP SWAP2 SWAP1 POP JUMP JUMPDEST PUSH2 0x2C13 DUP2 PUSH2 0x2BE9 JUMP JUMPDEST DUP3 MSTORE POP POP JUMP JUMPDEST PUSH0 PUSH1 0xC0 DUP3 ADD SWAP1 POP PUSH2 0x2C2C PUSH0 DUP4 ADD DUP10 PUSH2 0x20AE JUMP JUMPDEST PUSH2 0x2C39 PUSH1 0x20 DUP4 ADD DUP9 PUSH2 0x2145 JUMP JUMPDEST PUSH2 0x2C46 PUSH1 0x40 DUP4 ADD DUP8 PUSH2 0x2C0A JUMP JUMPDEST PUSH2 0x2C53 PUSH1 0x60 DUP4 ADD DUP7 PUSH2 0x2C0A JUMP JUMPDEST PUSH2 0x2C60 PUSH1 0x80 DUP4 ADD DUP6 PUSH2 0x20AE JUMP JUMPDEST PUSH2 0x2C6D PUSH1 0xA0 DUP4 ADD DUP5 PUSH2 0x2145 JUMP JUMPDEST SWAP8 SWAP7 POP POP POP POP POP POP POP JUMP JUMPDEST PUSH0 DUP2 MLOAD SWAP1 POP SWAP2 SWAP1 POP JUMP JUMPDEST PUSH0 DUP2 SWAP1 POP SWAP3 SWAP2 POP POP JUMP JUMPDEST PUSH0 PUSH2 0x2C96 DUP3 PUSH2 0x2C78 JUMP JUMPDEST PUSH2 0x2CA0 DUP2 DUP6 PUSH2 0x2C82 JUMP JUMPDEST SWAP4 POP PUSH2 0x2CB0 DUP2 DUP6 PUSH1 0x20 DUP7 ADD PUSH2 0x26C9 JUMP JUMPDEST DUP1 DUP5 ADD SWAP2 POP POP SWAP3 SWAP2 POP POP JUMP JUMPDEST PUSH0 PUSH2 0x2CC7 DUP3 DUP5 PUSH2 0x2C8C JUMP JUMPDEST SWAP2 POP DUP2 SWAP1 POP SWAP3 SWAP2 POP POP JUMP JUMPDEST PUSH32 0x5472616E7366657248656C7065723A204554485F5452414E534645525F464149 PUSH0 DUP3 ADD MSTORE PUSH32 0x4C45440000000000000000000000000000000000000000000000000000000000 PUSH1 0x20 DUP3 ADD MSTORE POP JUMP JUMPDEST PUSH0 PUSH2 0x2D2C PUSH1 0x23 DUP4 PUSH2 0x26B9 JUMP JUMPDEST SWAP2 POP PUSH2 0x2D37 DUP3 PUSH2 0x2CD2 JUMP JUMPDEST PUSH1 0x40 DUP3 ADD SWAP1 POP SWAP2 SWAP1 POP JUMP JUMPDEST PUSH0 PUSH1 0x20 DUP3 ADD SWAP1 POP DUP2 DUP2 SUB PUSH0 DUP4 ADD MSTORE PUSH2 0x2D59 DUP2 PUSH2 0x2D20 JUMP JUMPDEST SWAP1 POP SWAP2 SWAP1 POP JUMP JUMPDEST PUSH32 0x5472616E7366657248656C7065723A205452414E534645525F4641494C454400 PUSH0 DUP3 ADD MSTORE POP JUMP JUMPDEST PUSH0 PUSH2 0x2D94 PUSH1 0x1F DUP4 PUSH2 0x26B9 JUMP JUMPDEST SWAP2 POP PUSH2 0x2D9F DUP3 PUSH2 0x2D60 JUMP JUMPDEST PUSH1 0x20 DUP3 ADD SWAP1 POP SWAP2 SWAP1 POP JUMP JUMPDEST PUSH0 PUSH1 0x20 DUP3 ADD SWAP1 POP DUP2 DUP2 SUB PUSH0 DUP4 ADD MSTORE PUSH2 0x2DC1 DUP2 PUSH2 0x2D88 JUMP JUMPDEST SWAP1 POP SWAP2 SWAP1 POP JUMP INVALID LOG2 PUSH5 0x6970667358 0x22 SLT KECCAK256 0x2A SWAP6 SUB 0xC5 SIGNEXTEND 0xEC BALANCE 0xCA DUP10 CREATE2 PUSH24 0x3FAA824D61085522DCE65A6F7CDF52F37C09F87B1564736F PUSH13 0x634300081A0033000000000000 "
				},
				"gasEstimates": {
					"creation": {
						"codeDepositCost": "2354800",
						"executionCost": "infinite",
						"totalCost": "infinite"
					},
					"external": {
						"DEAD()": "397",
						"UPGRADE_INTERFACE_VERSION()": "infinite",
						"WBNB()": "462",
						"bnbRecipient()": "2553",
						"funders(uint256)": "5033",
						"getExpirationTime(address)": "infinite",
						"getFunders()": "infinite",
						"getRaiseAmount(address)": "2896",
						"getUnlockedAmount(address)": "infinite",
						"holderInfo(address)": "infinite",
						"initialize(address,address,address,address)": "infinite",
						"lockLiquidity(string,address[],uint256[])": "infinite",
						"lockOwner()": "2575",
						"lpToken()": "2553",
						"owner()": "2634",
						"proxiableUUID()": "infinite",
						"raiseAmount(address)": "2914",
						"raiseFunds()": "infinite",
						"renounceOwnership()": "infinite",
						"setAddress(address,address,address,address)": "infinite",
						"token()": "2618",
						"transferOwnership(address)": "infinite",
						"uniswapV2Router()": "419",
						"unlockLiquidity()": "infinite",
						"upgradeToAndCall(address,bytes)": "infinite"
					},
					"internal": {
						"_authorizeUpgrade(address)": "infinite",
						"removeLiquidty(address,uint256,bool)": "infinite"
					}
				},
				"methodIdentifiers": {
					"DEAD()": "03fd2a45",
					"UPGRADE_INTERFACE_VERSION()": "ad3cb1cc",
					"WBNB()": "8dd95002",
					"bnbRecipient()": "8a36ca17",
					"funders(uint256)": "dc0d3dff",
					"getExpirationTime(address)": "2b5fef2f",
					"getFunders()": "ea63a044",
					"getRaiseAmount(address)": "cc514739",
					"getUnlockedAmount(address)": "420d4a02",
					"holderInfo(address)": "6d1d59a8",
					"initialize(address,address,address,address)": "f8c8765e",
					"lockLiquidity(string,address[],uint256[])": "6c48ba95",
					"lockOwner()": "69cd61be",
					"lpToken()": "5fcbd285",
					"owner()": "8da5cb5b",
					"proxiableUUID()": "52d1902d",
					"raiseAmount(address)": "45d68230",
					"raiseFunds()": "9c0e7824",
					"renounceOwnership()": "715018a6",
					"setAddress(address,address,address,address)": "9608088c",
					"token()": "fc0c546a",
					"transferOwnership(address)": "f2fde38b",
					"uniswapV2Router()": "1694505e",
					"unlockLiquidity()": "6b54acd9",
					"upgradeToAndCall(address,bytes)": "4f1ef286"
				}
			},
			"storageLayout": {
				"storage": [
					{
						"astId": 1318,
						"contract": "LockLiquidity.sol:LockLiquidity",
						"label": "_status",
						"offset": 0,
						"slot": "0",
						"type": "t_uint256"
					},
					{
						"astId": 1534,
						"contract": "LockLiquidity.sol:LockLiquidity",
						"label": "holderInfo",
						"offset": 0,
						"slot": "1",
						"type": "t_mapping(t_address,t_struct(Holder)1529_storage)"
					},
					{
						"astId": 1545,
						"contract": "LockLiquidity.sol:LockLiquidity",
						"label": "lpToken",
						"offset": 0,
						"slot": "2",
						"type": "t_address"
					},
					{
						"astId": 1547,
						"contract": "LockLiquidity.sol:LockLiquidity",
						"label": "token",
						"offset": 0,
						"slot": "3",
						"type": "t_address"
					},
					{
						"astId": 1549,
						"contract": "LockLiquidity.sol:LockLiquidity",
						"label": "lockOwner",
						"offset": 0,
						"slot": "4",
						"type": "t_address"
					},
					{
						"astId": 1563,
						"contract": "LockLiquidity.sol:LockLiquidity",
						"label": "bnbRecipient",
						"offset": 0,
						"slot": "5",
						"type": "t_address"
					},
					{
						"astId": 1566,
						"contract": "LockLiquidity.sol:LockLiquidity",
						"label": "funders",
						"offset": 0,
						"slot": "6",
						"type": "t_array(t_address)dyn_storage"
					},
					{
						"astId": 1570,
						"contract": "LockLiquidity.sol:LockLiquidity",
						"label": "raiseAmount",
						"offset": 0,
						"slot": "7",
						"type": "t_mapping(t_address,t_uint256)"
					}
				],
				"types": {
					"t_address": {
						"encoding": "inplace",
						"label": "address",
						"numberOfBytes": "20"
					},
					"t_array(t_address)dyn_storage": {
						"base": "t_address",
						"encoding": "dynamic_array",
						"label": "address[]",
						"numberOfBytes": "32"
					},
					"t_mapping(t_address,t_struct(Holder)1529_storage)": {
						"encoding": "mapping",
						"key": "t_address",
						"label": "mapping(address => struct LockLiquidity.Holder)",
						"numberOfBytes": "32",
						"value": "t_struct(Holder)1529_storage"
					},
					"t_mapping(t_address,t_uint256)": {
						"encoding": "mapping",
						"key": "t_address",
						"label": "mapping(address => uint256)",
						"numberOfBytes": "32",
						"value": "t_uint256"
					},
					"t_struct(Holder)1529_storage": {
						"encoding": "inplace",
						"label": "struct LockLiquidity.Holder",
						"members": [
							{
								"astId": 1526,
								"contract": "LockLiquidity.sol:LockLiquidity",
								"label": "liquidityAmount",
								"offset": 0,
								"slot": "0",
								"type": "t_uint256"
							},
							{
								"astId": 1528,
								"contract": "LockLiquidity.sol:LockLiquidity",
								"label": "lockTime",
								"offset": 0,
								"slot": "1",
								"type": "t_uint256"
							}
						],
						"numberOfBytes": "64"
					},
					"t_uint256": {
						"encoding": "inplace",
						"label": "uint256",
						"numberOfBytes": "32"
					}
				}
			},
			"userdoc": {
				"kind": "user",
				"methods": {},
				"version": 1
			}
		}
	}
}