{"abi":[{"type":"constructor","inputs":[],"stateMutability":"nonpayable"},{"type":"function","name":"approve","inputs":[{"name":"to","type":"address","internalType":"address"},{"name":"tokenId","type":"uint256","internalType":"uint256"}],"outputs":[],"stateMutability":"nonpayable"},{"type":"function","name":"balanceOf","inputs":[{"name":"owner","type":"address","internalType":"address"}],"outputs":[{"name":"","type":"uint256","internalType":"uint256"}],"stateMutability":"view"},{"type":"function","name":"batchMint","inputs":[{"name":"addr","type":"address","internalType":"address"},{"name":"amount","type":"uint256","internalType":"uint256"}],"outputs":[],"stateMutability":"nonpayable"},{"type":"function","name":"getApproved","inputs":[{"name":"tokenId","type":"uint256","internalType":"uint256"}],"outputs":[{"name":"","type":"address","internalType":"address"}],"stateMutability":"view"},{"type":"function","name":"index","inputs":[],"outputs":[{"name":"","type":"uint256","internalType":"uint256"}],"stateMutability":"view"},{"type":"function","name":"isApprovedForAll","inputs":[{"name":"owner","type":"address","internalType":"address"},{"name":"operator","type":"address","internalType":"address"}],"outputs":[{"name":"","type":"bool","internalType":"bool"}],"stateMutability":"view"},{"type":"function","name":"name","inputs":[],"outputs":[{"name":"","type":"string","internalType":"string"}],"stateMutability":"view"},{"type":"function","name":"owner","inputs":[],"outputs":[{"name":"","type":"address","internalType":"address"}],"stateMutability":"view"},{"type":"function","name":"ownerOf","inputs":[{"name":"tokenId","type":"uint256","internalType":"uint256"}],"outputs":[{"name":"","type":"address","internalType":"address"}],"stateMutability":"view"},{"type":"function","name":"renounceOwnership","inputs":[],"outputs":[],"stateMutability":"nonpayable"},{"type":"function","name":"safeTransferFrom","inputs":[{"name":"from","type":"address","internalType":"address"},{"name":"to","type":"address","internalType":"address"},{"name":"tokenId","type":"uint256","internalType":"uint256"}],"outputs":[],"stateMutability":"nonpayable"},{"type":"function","name":"safeTransferFrom","inputs":[{"name":"from","type":"address","internalType":"address"},{"name":"to","type":"address","internalType":"address"},{"name":"tokenId","type":"uint256","internalType":"uint256"},{"name":"data","type":"bytes","internalType":"bytes"}],"outputs":[],"stateMutability":"nonpayable"},{"type":"function","name":"setAdmin","inputs":[{"name":"_regulation","type":"address","internalType":"address"}],"outputs":[],"stateMutability":"nonpayable"},{"type":"function","name":"setApprovalForAll","inputs":[{"name":"operator","type":"address","internalType":"address"},{"name":"approved","type":"bool","internalType":"bool"}],"outputs":[],"stateMutability":"nonpayable"},{"type":"function","name":"setUrl","inputs":[{"name":"_url","type":"string","internalType":"string"}],"outputs":[],"stateMutability":"nonpayable"},{"type":"function","name":"supportsInterface","inputs":[{"name":"interfaceId","type":"bytes4","internalType":"bytes4"}],"outputs":[{"name":"","type":"bool","internalType":"bool"}],"stateMutability":"view"},{"type":"function","name":"symbol","inputs":[],"outputs":[{"name":"","type":"string","internalType":"string"}],"stateMutability":"view"},{"type":"function","name":"tokenURI","inputs":[{"name":"tokenId","type":"uint256","internalType":"uint256"}],"outputs":[{"name":"","type":"string","internalType":"string"}],"stateMutability":"view"},{"type":"function","name":"transferFrom","inputs":[{"name":"from","type":"address","internalType":"address"},{"name":"to","type":"address","internalType":"address"},{"name":"tokenId","type":"uint256","internalType":"uint256"}],"outputs":[],"stateMutability":"nonpayable"},{"type":"function","name":"transferOwnership","inputs":[{"name":"newOwner","type":"address","internalType":"address"}],"outputs":[],"stateMutability":"nonpayable"},{"type":"event","name":"Approval","inputs":[{"name":"owner","type":"address","indexed":true,"internalType":"address"},{"name":"approved","type":"address","indexed":true,"internalType":"address"},{"name":"tokenId","type":"uint256","indexed":true,"internalType":"uint256"}],"anonymous":false},{"type":"event","name":"ApprovalForAll","inputs":[{"name":"owner","type":"address","indexed":true,"internalType":"address"},{"name":"operator","type":"address","indexed":true,"internalType":"address"},{"name":"approved","type":"bool","indexed":false,"internalType":"bool"}],"anonymous":false},{"type":"event","name":"OwnershipTransferred","inputs":[{"name":"previousOwner","type":"address","indexed":true,"internalType":"address"},{"name":"newOwner","type":"address","indexed":true,"internalType":"address"}],"anonymous":false},{"type":"event","name":"Transfer","inputs":[{"name":"from","type":"address","indexed":true,"internalType":"address"},{"name":"to","type":"address","indexed":true,"internalType":"address"},{"name":"tokenId","type":"uint256","indexed":true,"internalType":"uint256"}],"anonymous":false},{"type":"error","name":"ERC721IncorrectOwner","inputs":[{"name":"sender","type":"address","internalType":"address"},{"name":"tokenId","type":"uint256","internalType":"uint256"},{"name":"owner","type":"address","internalType":"address"}]},{"type":"error","name":"ERC721InsufficientApproval","inputs":[{"name":"operator","type":"address","internalType":"address"},{"name":"tokenId","type":"uint256","internalType":"uint256"}]},{"type":"error","name":"ERC721InvalidApprover","inputs":[{"name":"approver","type":"address","internalType":"address"}]},{"type":"error","name":"ERC721InvalidOperator","inputs":[{"name":"operator","type":"address","internalType":"address"}]},{"type":"error","name":"ERC721InvalidOwner","inputs":[{"name":"owner","type":"address","internalType":"address"}]},{"type":"error","name":"ERC721InvalidReceiver","inputs":[{"name":"receiver","type":"address","internalType":"address"}]},{"type":"error","name":"ERC721InvalidSender","inputs":[{"name":"sender","type":"address","internalType":"address"}]},{"type":"error","name":"ERC721NonexistentToken","inputs":[{"name":"tokenId","type":"uint256","internalType":"uint256"}]},{"type":"error","name":"OwnableInvalidOwner","inputs":[{"name":"owner","type":"address","internalType":"address"}]},{"type":"error","name":"OwnableUnauthorizedAccount","inputs":[{"name":"account","type":"address","internalType":"address"}]}],"bytecode":{"object":"0x608060405260016008553480156200001657600080fd5b50336040518060400160405280600581526020016410d1905c9d60da1b8152506040518060400160405280600281526020016121a360f11b8152508160009081620000629190620001ae565b506001620000718282620001ae565b5050506001600160a01b038116620000a357604051631e4fbdf760e01b81526000600482015260240160405180910390fd5b620000ae81620000b5565b506200027a565b600680546001600160a01b038381166001600160a01b0319831681179093556040519116919082907f8be0079c531659141344cd1fd0a4f28419497f9722a3daafe3b4186f6b6457e090600090a35050565b634e487b7160e01b600052604160045260246000fd5b600181811c908216806200013257607f821691505b6020821081036200015357634e487b7160e01b600052602260045260246000fd5b50919050565b601f821115620001a9576000816000526020600020601f850160051c81016020861015620001845750805b601f850160051c820191505b81811015620001a55782815560010162000190565b5050505b505050565b81516001600160401b03811115620001ca57620001ca62000107565b620001e281620001db84546200011d565b8462000159565b602080601f8311600181146200021a5760008415620002015750858301515b600019600386901b1c1916600185901b178555620001a5565b600085815260208120601f198616915b828110156200024b578886015182559484019460019091019084016200022a565b50858210156200026a5787850151600019600388901b60f8161c191681555b5050505050600190811b01905550565b6113b0806200028a6000396000f3fe608060405234801561001057600080fd5b506004361061012c5760003560e01c8063704b6c02116100ad578063a22cb46511610071578063a22cb4651461026b578063b88d4fde1461027e578063c87b56dd14610291578063e985e9c5146102a4578063f2fde38b146102b757600080fd5b8063704b6c021461022457806370a0823114610237578063715018a61461024a5780638da5cb5b1461025257806395d89b411461026357600080fd5b8063252498a2116100f4578063252498a2146101c15780632986c0e5146101d457806342842e0e146101eb57806343508b05146101fe5780636352211e1461021157600080fd5b806301ffc9a71461013157806306fdde0314610159578063081812fc1461016e578063095ea7b31461019957806323b872dd146101ae575b600080fd5b61014461013f366004610e2c565b6102ca565b60405190151581526020015b60405180910390f35b61016161031c565b6040516101509190610ea0565b61018161017c366004610eb3565b6103ae565b6040516001600160a01b039091168152602001610150565b6101ac6101a7366004610ee8565b6103d7565b005b6101ac6101bc366004610f12565b6103e6565b6101ac6101cf366004610fda565b610476565b6101dd60085481565b604051908152602001610150565b6101ac6101f9366004610f12565b61048a565b6101ac61020c366004610ee8565b6104aa565b61018161021f366004610eb3565b61050a565b6101ac610232366004611023565b610515565b6101dd610245366004611023565b61053f565b6101ac610587565b6006546001600160a01b0316610181565b61016161059b565b6101ac61027936600461103e565b6105aa565b6101ac61028c36600461107a565b6105b5565b61016161029f366004610eb3565b6105cd565b6101446102b23660046110f6565b610673565b6101ac6102c5366004611023565b6106a1565b60006001600160e01b031982166380ac58cd60e01b14806102fb57506001600160e01b03198216635b5e139f60e01b145b8061031657506301ffc9a760e01b6001600160e01b03198316145b92915050565b60606000805461032b90611129565b80601f016020809104026020016040519081016040528092919081815260200182805461035790611129565b80156103a45780601f10610379576101008083540402835291602001916103a4565b820191906000526020600020905b81548152906001019060200180831161038757829003601f168201915b5050505050905090565b60006103b9826106df565b506000828152600460205260409020546001600160a01b0316610316565b6103e2828233610718565b5050565b6001600160a01b03821661041557604051633250574960e11b8152600060048201526024015b60405180910390fd5b6000610422838333610725565b9050836001600160a01b0316816001600160a01b031614610470576040516364283d7b60e01b81526001600160a01b038086166004830152602482018490528216604482015260640161040c565b50505050565b61047e61081e565b60096103e282826111ab565b6104a5838383604051806020016040528060008152506105b5565b505050565b6007546001600160a01b03163314806104cd57506006546001600160a01b031633145b6104d657600080fd5b60005b818110156104a5576104ed8360085461084b565b600880549060006104fd83611281565b90915550506001016104d9565b6000610316826106df565b61051d61081e565b600780546001600160a01b0319166001600160a01b0392909216919091179055565b60006001600160a01b03821661056b576040516322718ad960e21b81526000600482015260240161040c565b506001600160a01b031660009081526003602052604090205490565b61058f61081e565b61059960006108b0565b565b60606001805461032b90611129565b6103e2338383610902565b6105c08484846103e6565b61047033858585856109a1565b60606105d8826106df565b5060006105e660c8846112b0565b905060006105f560c8856112c4565b9050600081156106115761060a8360016112d8565b9050610614565b50815b600061061e610acc565b9050600081511161063e5760405180602001604052806000815250610669565b8061064883610adb565b6040516020016106599291906112eb565b6040516020818303038152906040525b9695505050505050565b6001600160a01b03918216600090815260056020908152604080832093909416825291909152205460ff1690565b6106a961081e565b6001600160a01b0381166106d357604051631e4fbdf760e01b81526000600482015260240161040c565b6106dc816108b0565b50565b6000818152600260205260408120546001600160a01b03168061031657604051637e27328960e01b81526004810184905260240161040c565b6104a58383836001610b6e565b6000828152600260205260408120546001600160a01b039081169083161561075257610752818486610c74565b6001600160a01b038116156107905761076f600085600080610b6e565b6001600160a01b038116600090815260036020526040902080546000190190555b6001600160a01b038516156107bf576001600160a01b0385166000908152600360205260409020805460010190555b60008481526002602052604080822080546001600160a01b0319166001600160a01b0389811691821790925591518793918516917fddf252ad1be2c89b69c2b068fc378daa952ba7f163c4a11628f55a4df523b3ef91a4949350505050565b6006546001600160a01b031633146105995760405163118cdaa760e01b815233600482015260240161040c565b6001600160a01b03821661087557604051633250574960e11b81526000600482015260240161040c565b600061088383836000610725565b90506001600160a01b038116156104a5576040516339e3563760e11b81526000600482015260240161040c565b600680546001600160a01b038381166001600160a01b0319831681179093556040519116919082907f8be0079c531659141344cd1fd0a4f28419497f9722a3daafe3b4186f6b6457e090600090a35050565b6001600160a01b03821661093457604051630b61174360e31b81526001600160a01b038316600482015260240161040c565b6001600160a01b03838116600081815260056020908152604080832094871680845294825291829020805460ff191686151590811790915591519182527f17307eab39ab6107e8899845ad3d59bd9653f200f220920489ca2b5937696c31910160405180910390a3505050565b6001600160a01b0383163b15610ac557604051630a85bd0160e11b81526001600160a01b0384169063150b7a02906109e390889088908790879060040161132a565b6020604051808303816000875af1925050508015610a1e575060408051601f3d908101601f19168201909252610a1b9181019061135d565b60015b610a87573d808015610a4c576040519150601f19603f3d011682016040523d82523d6000602084013e610a51565b606091505b508051600003610a7f57604051633250574960e11b81526001600160a01b038516600482015260240161040c565b805181602001fd5b6001600160e01b03198116630a85bd0160e11b14610ac357604051633250574960e11b81526001600160a01b038516600482015260240161040c565b505b5050505050565b60606009805461032b90611129565b60606000610ae883610cd8565b600101905060008167ffffffffffffffff811115610b0857610b08610f4e565b6040519080825280601f01601f191660200182016040528015610b32576020820181803683370190505b5090508181016020015b600019016f181899199a1a9b1b9c1cb0b131b232b360811b600a86061a8153600a8504945084610b3c57509392505050565b8080610b8257506001600160a01b03821615155b15610c44576000610b92846106df565b90506001600160a01b03831615801590610bbe5750826001600160a01b0316816001600160a01b031614155b8015610bd15750610bcf8184610673565b155b15610bfa5760405163a9fbf51f60e01b81526001600160a01b038416600482015260240161040c565b8115610c425783856001600160a01b0316826001600160a01b03167f8c5be1e5ebec7d5bd14f71427d1e84f3dd0314c0f7b2291e5b200ac8c7c3b92560405160405180910390a45b505b5050600090815260046020526040902080546001600160a01b0319166001600160a01b0392909216919091179055565b610c7f838383610db0565b6104a5576001600160a01b038316610cad57604051637e27328960e01b81526004810182905260240161040c565b60405163177e802f60e01b81526001600160a01b03831660048201526024810182905260440161040c565b60008072184f03e93ff9f4daa797ed6e38ed64bf6a1f0160401b8310610d175772184f03e93ff9f4daa797ed6e38ed64bf6a1f0160401b830492506040015b6d04ee2d6d415b85acef81000000008310610d43576d04ee2d6d415b85acef8100000000830492506020015b662386f26fc100008310610d6157662386f26fc10000830492506010015b6305f5e1008310610d79576305f5e100830492506008015b6127108310610d8d57612710830492506004015b60648310610d9f576064830492506002015b600a83106103165760010192915050565b60006001600160a01b03831615801590610e0e5750826001600160a01b0316846001600160a01b03161480610dea5750610dea8484610673565b80610e0e57506000828152600460205260409020546001600160a01b038481169116145b949350505050565b6001600160e01b0319811681146106dc57600080fd5b600060208284031215610e3e57600080fd5b8135610e4981610e16565b9392505050565b60005b83811015610e6b578181015183820152602001610e53565b50506000910152565b60008151808452610e8c816020860160208601610e50565b601f01601f19169290920160200192915050565b602081526000610e496020830184610e74565b600060208284031215610ec557600080fd5b5035919050565b80356001600160a01b0381168114610ee357600080fd5b919050565b60008060408385031215610efb57600080fd5b610f0483610ecc565b946020939093013593505050565b600080600060608486031215610f2757600080fd5b610f3084610ecc565b9250610f3e60208501610ecc565b9150604084013590509250925092565b634e487b7160e01b600052604160045260246000fd5b600067ffffffffffffffff80841115610f7f57610f7f610f4e565b604051601f8501601f19908116603f01168101908282118183101715610fa757610fa7610f4e565b81604052809350858152868686011115610fc057600080fd5b858560208301376000602087830101525050509392505050565b600060208284031215610fec57600080fd5b813567ffffffffffffffff81111561100357600080fd5b8201601f8101841361101457600080fd5b610e0e84823560208401610f64565b60006020828403121561103557600080fd5b610e4982610ecc565b6000806040838503121561105157600080fd5b61105a83610ecc565b91506020830135801515811461106f57600080fd5b809150509250929050565b6000806000806080858703121561109057600080fd5b61109985610ecc565b93506110a760208601610ecc565b925060408501359150606085013567ffffffffffffffff8111156110ca57600080fd5b8501601f810187136110db57600080fd5b6110ea87823560208401610f64565b91505092959194509250565b6000806040838503121561110957600080fd5b61111283610ecc565b915061112060208401610ecc565b90509250929050565b600181811c9082168061113d57607f821691505b60208210810361115d57634e487b7160e01b600052602260045260246000fd5b50919050565b601f8211156104a5576000816000526020600020601f850160051c8101602086101561118c5750805b601f850160051c820191505b81811015610ac357828155600101611198565b815167ffffffffffffffff8111156111c5576111c5610f4e565b6111d9816111d38454611129565b84611163565b602080601f83116001811461120e57600084156111f65750858301515b600019600386901b1c1916600185901b178555610ac3565b600085815260208120601f198616915b8281101561123d5788860151825594840194600190910190840161121e565b508582101561125b5787850151600019600388901b60f8161c191681555b5050505050600190811b01905550565b634e487b7160e01b600052601160045260246000fd5b6000600182016112935761129361126b565b5060010190565b634e487b7160e01b600052601260045260246000fd5b6000826112bf576112bf61129a565b500490565b6000826112d3576112d361129a565b500690565b808201808211156103165761031661126b565b600083516112fd818460208801610e50565b835190830190611311818360208801610e50565b64173539b7b760d91b9101908152600501949350505050565b6001600160a01b038581168252841660208201526040810183905260806060820181905260009061066990830184610e74565b60006020828403121561136f57600080fd5b8151610e4981610e1656fea2646970667358221220318ec835f89a85cca6018d946b5e095378d2df8f1614b9a73a060616da43a39d64736f6c63430008180033","linkReferences":{}},"methodIdentifiers":{"approve(address,uint256)":"095ea7b3","balanceOf(address)":"70a08231","batchMint(address,uint256)":"43508b05","getApproved(uint256)":"081812fc","index()":"2986c0e5","isApprovedForAll(address,address)":"e985e9c5","name()":"06fdde03","owner()":"8da5cb5b","ownerOf(uint256)":"6352211e","renounceOwnership()":"715018a6","safeTransferFrom(address,address,uint256)":"42842e0e","safeTransferFrom(address,address,uint256,bytes)":"b88d4fde","setAdmin(address)":"704b6c02","setApprovalForAll(address,bool)":"a22cb465","setUrl(string)":"252498a2","supportsInterface(bytes4)":"01ffc9a7","symbol()":"95d89b41","tokenURI(uint256)":"c87b56dd","transferFrom(address,address,uint256)":"23b872dd","transferOwnership(address)":"f2fde38b"},"id":58}