{"abi":[{"type":"receive","stateMutability":"payable"},{"type":"function","name":"SIGN_TYPEHASH","inputs":[],"outputs":[{"name":"","type":"bytes32","internalType":"bytes32"}],"stateMutability":"view"},{"type":"function","name":"UPGRADE_INTERFACE_VERSION","inputs":[],"outputs":[{"name":"","type":"string","internalType":"string"}],"stateMutability":"view"},{"type":"function","name":"admin","inputs":[],"outputs":[{"name":"","type":"address","internalType":"address"}],"stateMutability":"view"},{"type":"function","name":"cfArt","inputs":[],"outputs":[{"name":"","type":"address","internalType":"address"}],"stateMutability":"view"},{"type":"function","name":"checkerSignMsgSignature","inputs":[{"name":"_msg","type":"tuple","internalType":"struct SignatureInfo.SignMessage","components":[{"name":"orderNum","type":"string","internalType":"string"},{"name":"orderMark","type":"string","internalType":"string"},{"name":"token","type":"address","internalType":"address"},{"name":"recipient","type":"address","internalType":"address"},{"name":"amount","type":"uint256","internalType":"uint256"},{"name":"nonce","type":"uint256","internalType":"uint256"},{"name":"deadline","type":"uint256","internalType":"uint256"},{"name":"v","type":"uint8","internalType":"uint8"},{"name":"r","type":"bytes32","internalType":"bytes32"},{"name":"s","type":"bytes32","internalType":"bytes32"}]}],"outputs":[{"name":"","type":"bool","internalType":"bool"}],"stateMutability":"view"},{"type":"function","name":"deposit","inputs":[{"name":"orderNum","type":"string","internalType":"string"},{"name":"orderMark","type":"string","internalType":"string"},{"name":"token","type":"address","internalType":"address"},{"name":"amount","type":"uint256","internalType":"uint256"}],"outputs":[],"stateMutability":"nonpayable"},{"type":"function","name":"depositETH","inputs":[{"name":"orderNum","type":"string","internalType":"string"},{"name":"orderMark","type":"string","internalType":"string"},{"name":"amount","type":"uint256","internalType":"uint256"}],"outputs":[],"stateMutability":"payable"},{"type":"function","name":"doaminSeparator","inputs":[],"outputs":[{"name":"","type":"bytes32","internalType":"bytes32"}],"stateMutability":"view"},{"type":"function","name":"eip712Domain","inputs":[],"outputs":[{"name":"fields","type":"bytes1","internalType":"bytes1"},{"name":"name","type":"string","internalType":"string"},{"name":"version","type":"string","internalType":"string"},{"name":"chainId","type":"uint256","internalType":"uint256"},{"name":"verifyingContract","type":"address","internalType":"address"},{"name":"salt","type":"bytes32","internalType":"bytes32"},{"name":"extensions","type":"uint256[]","internalType":"uint256[]"}],"stateMutability":"view"},{"type":"function","name":"getPayment","inputs":[{"name":"amountNFT","type":"uint256","internalType":"uint256"}],"outputs":[{"name":"","type":"uint256","internalType":"uint256"}],"stateMutability":"pure"},{"type":"function","name":"getSignMsgHash","inputs":[{"name":"_msg","type":"tuple","internalType":"struct SignatureInfo.SignMessage","components":[{"name":"orderNum","type":"string","internalType":"string"},{"name":"orderMark","type":"string","internalType":"string"},{"name":"token","type":"address","internalType":"address"},{"name":"recipient","type":"address","internalType":"address"},{"name":"amount","type":"uint256","internalType":"uint256"},{"name":"nonce","type":"uint256","internalType":"uint256"},{"name":"deadline","type":"uint256","internalType":"uint256"},{"name":"v","type":"uint8","internalType":"uint8"},{"name":"r","type":"bytes32","internalType":"bytes32"},{"name":"s","type":"bytes32","internalType":"bytes32"}]}],"outputs":[{"name":"","type":"bytes32","internalType":"bytes32"}],"stateMutability":"view"},{"type":"function","name":"getSignMsgHashAndStructHash","inputs":[{"name":"_msg","type":"tuple","internalType":"struct SignatureInfo.SignMessage","components":[{"name":"orderNum","type":"string","internalType":"string"},{"name":"orderMark","type":"string","internalType":"string"},{"name":"token","type":"address","internalType":"address"},{"name":"recipient","type":"address","internalType":"address"},{"name":"amount","type":"uint256","internalType":"uint256"},{"name":"nonce","type":"uint256","internalType":"uint256"},{"name":"deadline","type":"uint256","internalType":"uint256"},{"name":"v","type":"uint8","internalType":"uint8"},{"name":"r","type":"bytes32","internalType":"bytes32"},{"name":"s","type":"bytes32","internalType":"bytes32"}]}],"outputs":[{"name":"includeDomain","type":"bytes32","internalType":"bytes32"},{"name":"dataHash","type":"bytes32","internalType":"bytes32"}],"stateMutability":"view"},{"type":"function","name":"getTokenPrice","inputs":[{"name":"_token","type":"address","internalType":"address"}],"outputs":[{"name":"","type":"uint256","internalType":"uint256"}],"stateMutability":"view"},{"type":"function","name":"initialize","inputs":[{"name":"_admin","type":"address","internalType":"address"},{"name":"_cfArt","type":"address","internalType":"address"},{"name":"_usdt","type":"address","internalType":"address"},{"name":"_recipient","type":"address","internalType":"address"},{"name":"_uniswapV2Factory","type":"address","internalType":"address"},{"name":"_uniswapV2Router","type":"address","internalType":"address"}],"outputs":[],"stateMutability":"nonpayable"},{"type":"function","name":"isExcuted","inputs":[{"name":"","type":"string","internalType":"string"},{"name":"","type":"string","internalType":"string"}],"outputs":[{"name":"","type":"bool","internalType":"bool"}],"stateMutability":"view"},{"type":"function","name":"managerMint","inputs":[{"name":"mark","type":"string","internalType":"string"},{"name":"to","type":"address","internalType":"address"},{"name":"amount","type":"uint256","internalType":"uint256"}],"outputs":[],"stateMutability":"nonpayable"},{"type":"function","name":"managerWithdraw","inputs":[{"name":"token","type":"address","internalType":"address"},{"name":"to","type":"address","internalType":"address"},{"name":"amount","type":"uint256","internalType":"uint256"}],"outputs":[],"stateMutability":"nonpayable"},{"type":"function","name":"mintCfArt","inputs":[{"name":"mark","type":"string","internalType":"string"},{"name":"amount","type":"uint256","internalType":"uint256"}],"outputs":[],"stateMutability":"nonpayable"},{"type":"function","name":"mintERC20","inputs":[{"name":"_mark","type":"string","internalType":"string"},{"name":"_token","type":"address","internalType":"address"},{"name":"_recipient","type":"address","internalType":"address"},{"name":"_amount","type":"uint256","internalType":"uint256"}],"outputs":[],"stateMutability":"nonpayable"},{"type":"function","name":"mintERC20Result","inputs":[{"name":"","type":"string","internalType":"string"}],"outputs":[{"name":"","type":"bool","internalType":"bool"}],"stateMutability":"view"},{"type":"function","name":"nonce","inputs":[],"outputs":[{"name":"","type":"uint256","internalType":"uint256"}],"stateMutability":"view"},{"type":"function","name":"owner","inputs":[],"outputs":[{"name":"","type":"address","internalType":"address"}],"stateMutability":"view"},{"type":"function","name":"proxiableUUID","inputs":[],"outputs":[{"name":"","type":"bytes32","internalType":"bytes32"}],"stateMutability":"view"},{"type":"function","name":"purchase","inputs":[{"name":"user","type":"address","internalType":"address"},{"name":"amountUsdt","type":"uint256","internalType":"uint256"},{"name":"token","type":"address","internalType":"address"}],"outputs":[],"stateMutability":"nonpayable"},{"type":"function","name":"recipient","inputs":[],"outputs":[{"name":"","type":"address","internalType":"address"}],"stateMutability":"view"},{"type":"function","name":"renounceOwnership","inputs":[],"outputs":[],"stateMutability":"nonpayable"},{"type":"function","name":"setAdmin","inputs":[{"name":"_admin","type":"address","internalType":"address"}],"outputs":[],"stateMutability":"nonpayable"},{"type":"function","name":"setConfig","inputs":[{"name":"_cfArt","type":"address","internalType":"address"},{"name":"_usdt","type":"address","internalType":"address"},{"name":"_recipient","type":"address","internalType":"address"}],"outputs":[],"stateMutability":"nonpayable"},{"type":"function","name":"transferOwnership","inputs":[{"name":"newOwner","type":"address","internalType":"address"}],"outputs":[],"stateMutability":"nonpayable"},{"type":"function","name":"uniswapV2Factory","inputs":[],"outputs":[{"name":"","type":"address","internalType":"address"}],"stateMutability":"view"},{"type":"function","name":"uniswapV2Router","inputs":[],"outputs":[{"name":"","type":"address","internalType":"address"}],"stateMutability":"view"},{"type":"function","name":"upgradeToAndCall","inputs":[{"name":"newImplementation","type":"address","internalType":"address"},{"name":"data","type":"bytes","internalType":"bytes"}],"outputs":[],"stateMutability":"payable"},{"type":"function","name":"usdt","inputs":[],"outputs":[{"name":"","type":"address","internalType":"address"}],"stateMutability":"view"},{"type":"function","name":"withdrawWithSignature","inputs":[{"name":"_msg","type":"tuple","internalType":"struct SignatureInfo.SignMessage","components":[{"name":"orderNum","type":"string","internalType":"string"},{"name":"orderMark","type":"string","internalType":"string"},{"name":"token","type":"address","internalType":"address"},{"name":"recipient","type":"address","internalType":"address"},{"name":"amount","type":"uint256","internalType":"uint256"},{"name":"nonce","type":"uint256","internalType":"uint256"},{"name":"deadline","type":"uint256","internalType":"uint256"},{"name":"v","type":"uint8","internalType":"uint8"},{"name":"r","type":"bytes32","internalType":"bytes32"},{"name":"s","type":"bytes32","internalType":"bytes32"}]}],"outputs":[],"stateMutability":"nonpayable"},{"type":"event","name":"EIP712DomainChanged","inputs":[],"anonymous":false},{"type":"event","name":"Initialized","inputs":[{"name":"version","type":"uint64","indexed":false,"internalType":"uint64"}],"anonymous":false},{"type":"event","name":"Mint","inputs":[{"name":"orderMark","type":"string","indexed":false,"internalType":"string"},{"name":"token","type":"address","indexed":false,"internalType":"address"},{"name":"associateAddr","type":"address","indexed":false,"internalType":"address"},{"name":"amount","type":"uint256","indexed":false,"internalType":"uint256"},{"name":"usdt","type":"uint256","indexed":false,"internalType":"uint256"},{"name":"time","type":"uint256","indexed":false,"internalType":"uint256"}],"anonymous":false},{"type":"event","name":"OwnershipTransferred","inputs":[{"name":"previousOwner","type":"address","indexed":true,"internalType":"address"},{"name":"newOwner","type":"address","indexed":true,"internalType":"address"}],"anonymous":false},{"type":"event","name":"Recharge","inputs":[{"name":"orderNum","type":"string","indexed":false,"internalType":"string"},{"name":"orderMark","type":"string","indexed":false,"internalType":"string"},{"name":"token","type":"address","indexed":false,"internalType":"address"},{"name":"associateAddr","type":"address","indexed":false,"internalType":"address"},{"name":"amount","type":"uint256","indexed":false,"internalType":"uint256"},{"name":"time","type":"uint256","indexed":false,"internalType":"uint256"}],"anonymous":false},{"type":"event","name":"Upgraded","inputs":[{"name":"implementation","type":"address","indexed":true,"internalType":"address"}],"anonymous":false},{"type":"event","name":"Withdraw","inputs":[{"name":"orderNum","type":"string","indexed":false,"internalType":"string"},{"name":"orderMark","type":"string","indexed":false,"internalType":"string"},{"name":"token","type":"address","indexed":false,"internalType":"address"},{"name":"associateAddr","type":"address","indexed":false,"internalType":"address"},{"name":"amount","type":"uint256","indexed":false,"internalType":"uint256"},{"name":"nonce","type":"uint256","indexed":false,"internalType":"uint256"},{"name":"time","type":"uint256","indexed":false,"internalType":"uint256"}],"anonymous":false},{"type":"error","name":"AddressEmptyCode","inputs":[{"name":"target","type":"address","internalType":"address"}]},{"type":"error","name":"ECDSAInvalidSignature","inputs":[]},{"type":"error","name":"ECDSAInvalidSignatureLength","inputs":[{"name":"length","type":"uint256","internalType":"uint256"}]},{"type":"error","name":"ECDSAInvalidSignatureS","inputs":[{"name":"s","type":"bytes32","internalType":"bytes32"}]},{"type":"error","name":"ERC1967InvalidImplementation","inputs":[{"name":"implementation","type":"address","internalType":"address"}]},{"type":"error","name":"ERC1967NonPayable","inputs":[]},{"type":"error","name":"FailedCall","inputs":[]},{"type":"error","name":"InvalidInitialization","inputs":[]},{"type":"error","name":"NotInitializing","inputs":[]},{"type":"error","name":"OwnableInvalidOwner","inputs":[{"name":"owner","type":"address","internalType":"address"}]},{"type":"error","name":"OwnableUnauthorizedAccount","inputs":[{"name":"account","type":"address","internalType":"address"}]},{"type":"error","name":"UUPSUnauthorizedCallContext","inputs":[]},{"type":"error","name":"UUPSUnsupportedProxiableUUID","inputs":[{"name":"slot","type":"bytes32","internalType":"bytes32"}]}],"bytecode":{"object":"0x60a06040523060805234801561001457600080fd5b506080516130fe61003e600039600081816115640152818161158d01526118b201526130fe6000f3fe6080604052600436106101fd5760003560e01c806384b0196e1161010d578063c0987e45116100a0578063e37840661161006f578063e37840661461066b578063e778b9da1461068b578063f2fde38b146106a0578063f526cf4e146106c0578063f851a440146106e057600080fd5b8063c0987e45146105eb578063cc2a9a5b1461060b578063cdc09b4b1461062b578063d02641a01461064b57600080fd5b8063ad3cb1cc116100dc578063ad3cb1cc14610564578063affed0e0146105a2578063b370cdc8146105b8578063b5b40406146105d857600080fd5b806384b0196e146104d257806385160169146104fa5780638da5cb5b1461051a5780639753b68a1461052f57600080fd5b80634f1ef286116101905780635f5a5ac61161015f5780635f5a5ac61461040557806366d003ac1461045d578063704b6c021461047d578063715018a61461049d57806378125428146104b257600080fd5b80634f1ef2861461039d5780634fa5edae146103b057806352d1902d146103d057806359d0f713146103e557600080fd5b80632f1d14cb116101cc5780632f1d14cb146102d35780632f48ab7d146103035780633141e25b146103235780633280a8361461037d57600080fd5b80630eb9450f146102095780631694505e146102595780631f87ce351461029157806321d58beb146102b357600080fd5b3661020457005b600080fd5b34801561021557600080fd5b506102446102243660046125e6565b805160208183018101805160088252928201919093012091525460ff1681565b60405190151581526020015b60405180910390f35b34801561026557600080fd5b50600654610279906001600160a01b031681565b6040516001600160a01b039091168152602001610250565b34801561029d57600080fd5b506102b16102ac366004612636565b610700565b005b3480156102bf57600080fd5b50600254610279906001600160a01b031681565b3480156102df57600080fd5b506102f56000805160206130a983398151915281565b604051908152602001610250565b34801561030f57600080fd5b50600354610279906001600160a01b031681565b34801561032f57600080fd5b506102b161033e3660046126b1565b600280546001600160a01b039485166001600160a01b031991821617909155600380549385169382169390931790925560048054919093169116179055565b34801561038957600080fd5b506102f56103983660046126f4565b610761565b6102b16103ab36600461270d565b61077c565b3480156103bc57600080fd5b506102b16103cb36600461277f565b61079b565b3480156103dc57600080fd5b506102f56109d0565b3480156103f157600080fd5b50600554610279906001600160a01b031681565b34801561041157600080fd5b50610244610420366004612879565b8151602081840181018051600782529282019482019490942091909352815180830184018051928152908401929093019190912091525460ff1681565b34801561046957600080fd5b50600454610279906001600160a01b031681565b34801561048957600080fd5b506102b16104983660046128d2565b6109ed565b3480156104a957600080fd5b506102b1610a17565b3480156104be57600080fd5b506102f56104cd36600461277f565b610a2b565b3480156104de57600080fd5b506104e7610ae0565b604051610250979695949392919061293d565b34801561050657600080fd5b506102b16105153660046129d6565b610b8c565b34801561052657600080fd5b50610279610c2e565b34801561053b57600080fd5b5061054f61054a36600461277f565b610c5c565b60408051928352602083019190915201610250565b34801561057057600080fd5b50610595604051806040016040528060058152602001640352e302e360dc1b81525081565b6040516102509190612a2b565b3480156105ae57600080fd5b506102f560005481565b3480156105c457600080fd5b506102b16105d3366004612a3e565b610dab565b6102b16105e6366004612a94565b610e6c565b3480156105f757600080fd5b506102b1610606366004612b00565b610ef0565b34801561061757600080fd5b506102b1610626366004612b44565b610fd5565b34801561063757600080fd5b506102b1610646366004612bb8565b611197565b34801561065757600080fd5b506102f56106663660046128d2565b6111c8565b34801561067757600080fd5b506102b1610686366004612be4565b61120c565b34801561069757600080fd5b506102f5611399565b3480156106ac57600080fd5b506102b16106bb3660046128d2565b6113a8565b3480156106cc57600080fd5b506102446106db36600461277f565b6113e6565b3480156106ec57600080fd5b50600154610279906001600160a01b031681565b60045461071a90839033906001600160a01b031684611429565b7f37ec47367e2943752cea88f18c2c89ac619490dc86f310d8de772bc1907cb2a984848433854260405161075396959493929190612c17565b60405180910390a150505050565b600061077682681043561a8829300000612c81565b92915050565b610784611559565b61078d826115fe565b6107978282611606565b5050565b6000548160a00151146107e45760405162461bcd60e51b815260206004820152600c60248201526b2737b731b29032b93937b91760a11b60448201526064015b60405180910390fd5b428160c00151101561082a5760405162461bcd60e51b815260206004820152600f60248201526e2232b0b23634b7329032b93937b91760891b60448201526064016107db565b610833816113e6565b6108785760405162461bcd60e51b815260206004820152601660248201527521b432b1b59039b4b3b730ba3ab9329032b93937b91760511b60448201526064016107db565b60408101516001600160a01b0316156108a7576108a28160400151826060015183608001516116c3565b6108b9565b6108b9816060015182608001516117de565b6001600782600001516040516108cf9190612c98565b908152602001604051809103902082602001516040516108ef9190612c98565b90815260405160209181900382018120805460ff19169315159390931790925582015160019160079161092191612c98565b9081526040519081900360200181208351909161093e9190612c98565b908152604051908190036020019020805491151560ff1990921691909117905560008054908061096d83612cb4565b91905055507f3b1a9cf826ad103fcfd30c512e38e2c9580edc5e15a17292daabf70df85cf098816000015182602001518360400151846060015185608001518660a00151426040516109c59796959493929190612ccd565b60405180910390a150565b60006109da6118a7565b5060008051602061308983398151915290565b6109f56118f0565b600180546001600160a01b0319166001600160a01b0392909216919091179055565b610a1f611952565b610a296000611984565b565b60006107766000805160206130a98339815191528360000151604051602001610a549190612c98565b604051602081830303815290604052805190602001208460200151604051602001610a7f9190612c98565b604051602081830303815290604052805190602001208560400151866060015187608001518860a001518960c00151604051602001610ac5989796959493929190612d29565b604051602081830303815290604052805190602001206119f5565b600060608082808083816000805160206130698339815191528054909150158015610b0d57506001810154155b610b515760405162461bcd60e51b81526020600482015260156024820152741152540dcc4c8e88155b9a5b9a5d1a585b1a5e9959605a1b60448201526064016107db565b610b59611a22565b610b61611ae5565b60408051600080825260208201909252600f60f81b9c939b5091995046985030975095509350915050565b610b946118f0565b6040516340c10f1960e01b81526001600160a01b038381166004830152602482018390528416906340c10f1990604401600060405180830381600087803b158015610bde57600080fd5b505af1158015610bf2573d6000803e3d6000fd5b505050506001600885604051610c089190612c98565b908152604051908190036020019020805491151560ff1990921691909117905550505050565b7f9016d09d72d40fdae2fd8ceac6b6234c7706214fd39c1cd1e609a0528c199300546001600160a01b031690565b600080610cf76000805160206130a98339815191528460000151604051602001610c869190612c98565b604051602081830303815290604052805190602001208560200151604051602001610cb19190612c98565b604051602081830303815290604052805190602001208660400151876060015188608001518960a001518a60c00151604051602001610ac5989796959493929190612d29565b91506000805160206130a98339815191528360000151604051602001610d1d9190612c98565b604051602081830303815290604052805190602001208460200151604051602001610d489190612c98565b604051602081830303815290604052805190602001208560400151866060015187608001518860a001518960c00151604051602001610d8e989796959493929190612d29565b604051602081830303815290604052805190602001209050915091565b610db36118f0565b6002546040516343508b0560e01b81526001600160a01b03848116600483015260248201849052909116906343508b0590604401600060405180830381600087803b158015610e0157600080fd5b505af1158015610e15573d6000803e3d6000fd5b50506002546040517f1e91fd3ede467a086b683f0ef014823729a570a313850de1dcd1f07fe03e37c19350610e5f925086916001600160a01b031690869086906000904290612d69565b60405180910390a1505050565b80341015610eac5760405162461bcd60e51b815260206004820152600d60248201526c22b93937b91030b6b7bab73a1760991b60448201526064016107db565b610eb630826117de565b7f37ec47367e2943752cea88f18c2c89ac619490dc86f310d8de772bc1907cb2a983836000338542604051610e5f96959493929190612c17565b600354600454610f17916001600160a01b0390811691339116610f1285610761565b611429565b6002546040516343508b0560e01b8152336004820152602481018390526001600160a01b03909116906343508b0590604401600060405180830381600087803b158015610f6357600080fd5b505af1158015610f77573d6000803e3d6000fd5b50506002547f1e91fd3ede467a086b683f0ef014823729a570a313850de1dcd1f07fe03e37c192508491506001600160a01b03163384610fb681610761565b42604051610fc996959493929190612d69565b60405180910390a15050565b7ff0c57e16840df040f15088dc2f81fe391c3923bec73e23a9662efc9c229c6a008054600160401b810460ff1615906001600160401b031660008115801561101a5750825b90506000826001600160401b031660011480156110365750303b155b905081158015611044575080155b156110625760405163f92ee8a960e01b815260040160405180910390fd5b845467ffffffffffffffff19166001178555831561108c57845460ff60401b1916600160401b1785555b6110d16040518060400160405280600a8152602001692932b3bab630ba34b7b760b11b815250604051806040016040528060018152602001603160f81b815250611b24565b6110da33611b85565b6110e2611b8d565b600180546001600160a01b03199081166001600160a01b038e8116919091179092556002805482168d84161790556003805482168c84161790556004805482168b84161790556005805482168a841617905560068054909116918816919091179055831561118a57845460ff60401b19168555604051600181527fc7f505b2f371ae2175ee4913f4499e1f2633a7b5936321eed1cdaeb6115181d29060200160405180910390a15b5050505050505050505050565b61119f6118f0565b6001600160a01b038316156111be576111b98383836116c3565b505050565b6111b982826117de565b600554600354600091829182916111ed916001600160a01b0391821691879116611b95565b91509150611204670de0b6b3a76400008383611c6b565b949350505050565b6112146118f0565b60035461122c906001600160a01b0316843085611429565b60035460065460405163095ea7b360e01b81526001600160a01b0391821660048201526024810185905291169063095ea7b3906044016020604051808303816000875af1158015611281573d6000803e3d6000fd5b505050506040513d601f19601f820116820180604052508101906112a59190612db1565b50604080516002808252606082018352600092602083019080368337505060035482519293506001600160a01b0316918391506000906112e7576112e7612dd3565b60200260200101906001600160a01b031690816001600160a01b031681525050818160018151811061131b5761131b612dd3565b6001600160a01b039283166020918202929092010152600654604051635c11d79560e01b8152911690635c11d7959061136190869060009086908a904290600401612de9565b600060405180830381600087803b15801561137b57600080fd5b505af115801561138f573d6000803e3d6000fd5b5050505050505050565b60006113a3611d86565b905090565b6113b0611952565b6001600160a01b0381166113da57604051631e4fbdf760e01b8152600060048201526024016107db565b6113e381611984565b50565b6000806113f283610a2b565b90506000611410828560e00151866101000151876101200151611d90565b6001546001600160a01b03918216911614949350505050565b604080516001600160a01b0385811660248301528481166044830152606480830185905283518084039091018152608490920183526020820180516001600160e01b03166323b872dd60e01b179052915160009283929088169161148d9190612c98565b6000604051808303816000865af19150503d80600081146114ca576040519150601f19603f3d011682016040523d82523d6000602084013e6114cf565b606091505b50915091508180156114f95750805115806114f95750808060200190518101906114f99190612db1565b6115515760405162461bcd60e51b8152602060048201526024808201527f5472616e7366657248656c7065723a205452414e534645525f46524f4d5f46416044820152631253115160e21b60648201526084016107db565b505050505050565b306001600160a01b037f00000000000000000000000000000000000000000000000000000000000000001614806115e057507f00000000000000000000000000000000000000000000000000000000000000006001600160a01b03166115d4600080516020613089833981519152546001600160a01b031690565b6001600160a01b031614155b15610a295760405163703e46dd60e11b815260040160405180910390fd5b6113e3611952565b816001600160a01b03166352d1902d6040518163ffffffff1660e01b8152600401602060405180830381865afa925050508015611660575060408051601f3d908101601f1916820190925261165d91810190612e5c565b60015b61168857604051634c9c8ce360e01b81526001600160a01b03831660048201526024016107db565b60008051602061308983398151915281146116b957604051632a87526960e21b8152600481018290526024016107db565b6111b98383611dbe565b604080516001600160a01b038481166024830152604480830185905283518084039091018152606490920183526020820180516001600160e01b031663a9059cbb60e01b179052915160009283929087169161171f9190612c98565b6000604051808303816000865af19150503d806000811461175c576040519150601f19603f3d011682016040523d82523d6000602084013e611761565b606091505b509150915081801561178b57508051158061178b57508080602001905181019061178b9190612db1565b6117d75760405162461bcd60e51b815260206004820152601f60248201527f5472616e7366657248656c7065723a205452414e534645525f4641494c45440060448201526064016107db565b5050505050565b604080516000808252602082019092526001600160a01b0384169083906040516118089190612c98565b60006040518083038185875af1925050503d8060008114611845576040519150601f19603f3d011682016040523d82523d6000602084013e61184a565b606091505b50509050806111b95760405162461bcd60e51b815260206004820152602360248201527f5472616e7366657248656c7065723a204554485f5452414e534645525f46414960448201526213115160ea1b60648201526084016107db565b306001600160a01b037f00000000000000000000000000000000000000000000000000000000000000001614610a295760405163703e46dd60e11b815260040160405180910390fd5b6001546001600160a01b031633148061191857503361190d610c2e565b6001600160a01b0316145b610a295760405162461bcd60e51b815260206004820152600b60248201526a1393d517d411549513525560aa1b60448201526064016107db565b3361195b610c2e565b6001600160a01b031614610a295760405163118cdaa760e01b81523360048201526024016107db565b7f9016d09d72d40fdae2fd8ceac6b6234c7706214fd39c1cd1e609a0528c19930080546001600160a01b031981166001600160a01b03848116918217845560405192169182907f8be0079c531659141344cd1fd0a4f28419497f9722a3daafe3b4186f6b6457e090600090a3505050565b6000610776611a02611d86565b8360405161190160f01b8152600281019290925260228201526042902090565b7fa16a46d94261c7517cc8ff89f61c0ce93598e3c849801011dee649a6a557d102805460609160008051602061306983398151915291611a6190612e75565b80601f0160208091040260200160405190810160405280929190818152602001828054611a8d90612e75565b8015611ada5780601f10611aaf57610100808354040283529160200191611ada565b820191906000526020600020905b815481529060010190602001808311611abd57829003601f168201915b505050505091505090565b7fa16a46d94261c7517cc8ff89f61c0ce93598e3c849801011dee649a6a557d103805460609160008051602061306983398151915291611a6190612e75565b611b2c611e14565b6000805160206130698339815191527fa16a46d94261c7517cc8ff89f61c0ce93598e3c849801011dee649a6a557d102611b668482612ef7565b5060038101611b758382612ef7565b5060008082556001909101555050565b6113b0611e14565b610a29611e14565b6000806000611ba48585611e5d565b509050611bb2868686611f52565b50600080611bc1888888611f52565b6001600160a01b0316630902f1ac6040518163ffffffff1660e01b8152600401606060405180830381865afa158015611bfe573d6000803e3d6000fd5b505050506040513d601f19601f82011682018060405250810190611c229190612fcd565b506001600160701b031691506001600160701b03169150826001600160a01b0316876001600160a01b031614611c59578082611c5c565b81815b90999098509650505050505050565b6000808411611cce5760405162461bcd60e51b815260206004820152602960248201527f50616e63616b654c6962726172793a20494e53554646494349454e545f494e50604482015268155517d05353d5539560ba1b60648201526084016107db565b600083118015611cde5750600082115b611d395760405162461bcd60e51b815260206004820152602660248201527f50616e63616b654c6962726172793a20494e53554646494349454e545f4c495160448201526555494449545960d01b60648201526084016107db565b6000611d47856126f761202a565b90506000611d55828561202a565b90506000611d6f83611d698861271061202a565b90612091565b9050611d7b818361301d565b979650505050505050565b60006113a36120e6565b600080600080611da28888888861215a565b925092509250611db28282612229565b50909695505050505050565b611dc7826122e2565b6040516001600160a01b038316907fbc7cd75a20ee27fd9adebab32041f755214dbc6bffa90cc0225b39da2e5c2d3b90600090a2805115611e0c576111b98282612347565b6107976123bd565b7ff0c57e16840df040f15088dc2f81fe391c3923bec73e23a9662efc9c229c6a0054600160401b900460ff16610a2957604051631afcd79f60e31b815260040160405180910390fd5b600080826001600160a01b0316846001600160a01b031603611ecd5760405162461bcd60e51b815260206004820152602360248201527f50616e63616b654c6962726172793a204944454e544943414c5f41444452455360448201526253455360e81b60648201526084016107db565b826001600160a01b0316846001600160a01b031610611eed578284611ef0565b83835b90925090506001600160a01b038216611f4b5760405162461bcd60e51b815260206004820152601c60248201527f50616e63616b654c6962726172793a205a45524f5f414444524553530000000060448201526064016107db565b9250929050565b6000806000611f618585611e5d565b6040516bffffffffffffffffffffffff19606084811b8216602084015283901b16603482015291935091508690604801604051602081830303815290604052805190602001206040516020016120089291906001600160f81b0319815260609290921b6bffffffffffffffffffffffff1916600183015260158201527efb7f630766e6a796048ea87d01acd3068e8ff67d078148a3fa3f4a84f69bd5603582015260550190565b60408051601f1981840301815291905280516020909101209695505050505050565b600081158061204e575082826120408183612c81565b925061204c908361301d565b145b6107765760405162461bcd60e51b815260206004820152601460248201527364732d6d6174682d6d756c2d6f766572666c6f7760601b60448201526064016107db565b60008261209e838261303f565b91508110156107765760405162461bcd60e51b815260206004820152601460248201527364732d6d6174682d6164642d6f766572666c6f7760601b60448201526064016107db565b60007f8b73c3c69bb8fe3d512ecc4cf759cc79239f7b179b0ffacaa9a75d522b39400f6121116123dc565b612119612446565b60408051602081019490945283019190915260608201524660808201523060a082015260c00160405160208183030381529060405280519060200120905090565b600080807f7fffffffffffffffffffffffffffffff5d576e7357a4501ddfe92f46681b20a0841115612195575060009150600390508261221f565b604080516000808252602082018084528a905260ff891692820192909252606081018790526080810186905260019060a0016020604051602081039080840390855afa1580156121e9573d6000803e3d6000fd5b5050604051601f1901519150506001600160a01b0381166122155750600092506001915082905061221f565b9250600091508190505b9450945094915050565b600082600381111561223d5761223d613052565b03612246575050565b600182600381111561225a5761225a613052565b036122785760405163f645eedf60e01b815260040160405180910390fd5b600282600381111561228c5761228c613052565b036122ad5760405163fce698f760e01b8152600481018290526024016107db565b60038260038111156122c1576122c1613052565b03610797576040516335e2f38360e21b8152600481018290526024016107db565b806001600160a01b03163b60000361231857604051634c9c8ce360e01b81526001600160a01b03821660048201526024016107db565b60008051602061308983398151915280546001600160a01b0319166001600160a01b0392909216919091179055565b6060600080846001600160a01b0316846040516123649190612c98565b600060405180830381855af49150503d806000811461239f576040519150601f19603f3d011682016040523d82523d6000602084013e6123a4565b606091505b50915091506123b485838361248a565b95945050505050565b3415610a295760405163b398979f60e01b815260040160405180910390fd5b6000600080516020613069833981519152816123f6611a22565b80519091501561240e57805160209091012092915050565b8154801561241d579392505050565b7fc5d2460186f7233c927e7db2dcc703c0e500b653ca82273b7bfad8045d85a470935050505090565b600060008051602061306983398151915281612460611ae5565b80519091501561247857805160209091012092915050565b6001820154801561241d579392505050565b60608261249f5761249a826124e9565b6124e2565b81511580156124b657506001600160a01b0384163b155b156124df57604051639996b31560e01b81526001600160a01b03851660048201526024016107db565b50805b9392505050565b8051156124f95780518082602001fd5b60405163d6bda27560e01b815260040160405180910390fd5b634e487b7160e01b600052604160045260246000fd5b60405161014081016001600160401b038111828210171561254b5761254b612512565b60405290565b60006001600160401b038084111561256b5761256b612512565b604051601f8501601f19908116603f0116810190828211818310171561259357612593612512565b816040528093508581528686860111156125ac57600080fd5b858560208301376000602087830101525050509392505050565b600082601f8301126125d757600080fd5b6124e283833560208501612551565b6000602082840312156125f857600080fd5b81356001600160401b0381111561260e57600080fd5b611204848285016125c6565b80356001600160a01b038116811461263157600080fd5b919050565b6000806000806080858703121561264c57600080fd5b84356001600160401b038082111561266357600080fd5b61266f888389016125c6565b9550602087013591508082111561268557600080fd5b50612692878288016125c6565b9350506126a16040860161261a565b9396929550929360600135925050565b6000806000606084860312156126c657600080fd5b6126cf8461261a565b92506126dd6020850161261a565b91506126eb6040850161261a565b90509250925092565b60006020828403121561270657600080fd5b5035919050565b6000806040838503121561272057600080fd5b6127298361261a565b915060208301356001600160401b0381111561274457600080fd5b8301601f8101851361275557600080fd5b61276485823560208401612551565b9150509250929050565b803560ff8116811461263157600080fd5b60006020828403121561279157600080fd5b81356001600160401b03808211156127a857600080fd5b9083019061014082860312156127bd57600080fd5b6127c5612528565b8235828111156127d457600080fd5b6127e0878286016125c6565b8252506020830135828111156127f557600080fd5b612801878286016125c6565b6020830152506128136040840161261a565b60408201526128246060840161261a565b60608201526080830135608082015260a083013560a082015260c083013560c082015261285360e0840161276e565b60e082015261010083810135908201526101209283013592810192909252509392505050565b6000806040838503121561288c57600080fd5b82356001600160401b03808211156128a357600080fd5b6128af868387016125c6565b935060208501359150808211156128c557600080fd5b50612764858286016125c6565b6000602082840312156128e457600080fd5b6124e28261261a565b60005b838110156129085781810151838201526020016128f0565b50506000910152565b600081518084526129298160208601602086016128ed565b601f01601f19169290920160200192915050565b60ff60f81b881681526000602060e0602084015261295e60e084018a612911565b8381036040850152612970818a612911565b606085018990526001600160a01b038816608086015260a0850187905284810360c08601528551808252602080880193509091019060005b818110156129c4578351835292840192918401916001016129a8565b50909c9b505050505050505050505050565b600080600080608085870312156129ec57600080fd5b84356001600160401b03811115612a0257600080fd5b612a0e878288016125c6565b945050612a1d6020860161261a565b92506126a16040860161261a565b6020815260006124e26020830184612911565b600080600060608486031215612a5357600080fd5b83356001600160401b03811115612a6957600080fd5b612a75868287016125c6565b935050612a846020850161261a565b9150604084013590509250925092565b600080600060608486031215612aa957600080fd5b83356001600160401b0380821115612ac057600080fd5b612acc878388016125c6565b94506020860135915080821115612ae257600080fd5b50612aef868287016125c6565b925050604084013590509250925092565b60008060408385031215612b1357600080fd5b82356001600160401b03811115612b2957600080fd5b612b35858286016125c6565b95602094909401359450505050565b60008060008060008060c08789031215612b5d57600080fd5b612b668761261a565b9550612b746020880161261a565b9450612b826040880161261a565b9350612b906060880161261a565b9250612b9e6080880161261a565b9150612bac60a0880161261a565b90509295509295509295565b600080600060608486031215612bcd57600080fd5b612bd68461261a565b9250612a846020850161261a565b600080600060608486031215612bf957600080fd5b612c028461261a565b9250602084013591506126eb6040850161261a565b60c081526000612c2a60c0830189612911565b8281036020840152612c3c8189612911565b6001600160a01b03978816604085015295909616606083015250608081019290925260a0909101529392505050565b634e487b7160e01b600052601160045260246000fd5b808202811582820484141761077657610776612c6b565b60008251612caa8184602087016128ed565b9190910192915050565b600060018201612cc657612cc6612c6b565b5060010190565b60e081526000612ce060e083018a612911565b8281036020840152612cf2818a612911565b6001600160a01b03988916604085015296909716606083015250608081019390935260a083019190915260c0909101529392505050565b978852602088019690965260408701949094526001600160a01b0392831660608701529116608085015260a084015260c083015260e08201526101000190565b60c081526000612d7c60c0830189612911565b6001600160a01b0397881660208401529590961660408201526060810193909352608083019190915260a09091015292915050565b600060208284031215612dc357600080fd5b815180151581146124e257600080fd5b634e487b7160e01b600052603260045260246000fd5b600060a08201878352602087602085015260a0604085015281875180845260c08601915060208901935060005b81811015612e3b5784516001600160a01b031683529383019391830191600101612e16565b50506001600160a01b03969096166060850152505050608001529392505050565b600060208284031215612e6e57600080fd5b5051919050565b600181811c90821680612e8957607f821691505b602082108103612ea957634e487b7160e01b600052602260045260246000fd5b50919050565b601f8211156111b9576000816000526020600020601f850160051c81016020861015612ed85750805b601f850160051c820191505b8181101561155157828155600101612ee4565b81516001600160401b03811115612f1057612f10612512565b612f2481612f1e8454612e75565b84612eaf565b602080601f831160018114612f595760008415612f415750858301515b600019600386901b1c1916600185901b178555611551565b600085815260208120601f198616915b82811015612f8857888601518255948401946001909101908401612f69565b5085821015612fa65787850151600019600388901b60f8161c191681555b5050505050600190811b01905550565b80516001600160701b038116811461263157600080fd5b600080600060608486031215612fe257600080fd5b612feb84612fb6565b9250612ff960208501612fb6565b9150604084015163ffffffff8116811461301257600080fd5b809150509250925092565b60008261303a57634e487b7160e01b600052601260045260246000fd5b500490565b8082018082111561077657610776612c6b565b634e487b7160e01b600052602160045260246000fdfea16a46d94261c7517cc8ff89f61c0ce93598e3c849801011dee649a6a557d100360894a13ba1a3210667c828492db98dca3e2076cc3735a920a3ca505d382bbca411b26c4da7d943a039af4de2b469ac3f646c68209dd5c72fae2d126f322561a264697066735822122078900d2ef275399ab4af063683bbd3a3241db90f454720c7530a18e5ea446d0964736f6c63430008180033","linkReferences":{}},"methodIdentifiers":{"SIGN_TYPEHASH()":"2f1d14cb","UPGRADE_INTERFACE_VERSION()":"ad3cb1cc","admin()":"f851a440","cfArt()":"21d58beb","checkerSignMsgSignature((string,string,address,address,uint256,uint256,uint256,uint8,bytes32,bytes32))":"f526cf4e","deposit(string,string,address,uint256)":"1f87ce35","depositETH(string,string,uint256)":"b5b40406","doaminSeparator()":"e778b9da","eip712Domain()":"84b0196e","getPayment(uint256)":"3280a836","getSignMsgHash((string,string,address,address,uint256,uint256,uint256,uint8,bytes32,bytes32))":"78125428","getSignMsgHashAndStructHash((string,string,address,address,uint256,uint256,uint256,uint8,bytes32,bytes32))":"9753b68a","getTokenPrice(address)":"d02641a0","initialize(address,address,address,address,address,address)":"cc2a9a5b","isExcuted(string,string)":"5f5a5ac6","managerMint(string,address,uint256)":"b370cdc8","managerWithdraw(address,address,uint256)":"cdc09b4b","mintCfArt(string,uint256)":"c0987e45","mintERC20(string,address,address,uint256)":"85160169","mintERC20Result(string)":"0eb9450f","nonce()":"affed0e0","owner()":"8da5cb5b","proxiableUUID()":"52d1902d","purchase(address,uint256,address)":"e3784066","recipient()":"66d003ac","renounceOwnership()":"715018a6","setAdmin(address)":"704b6c02","setConfig(address,address,address)":"3141e25b","transferOwnership(address)":"f2fde38b","uniswapV2Factory()":"59d0f713","uniswapV2Router()":"1694505e","upgradeToAndCall(address,bytes)":"4f1ef286","usdt()":"2f48ab7d","withdrawWithSignature((string,string,address,address,uint256,uint256,uint256,uint8,bytes32,bytes32))":"4fa5edae"},"id":65}