{"abi":[{"type":"receive","stateMutability":"payable"},{"type":"function","name":"SIGN_TYPEHASH","inputs":[],"outputs":[{"name":"","type":"bytes32","internalType":"bytes32"}],"stateMutability":"view"},{"type":"function","name":"UPGRADE_INTERFACE_VERSION","inputs":[],"outputs":[{"name":"","type":"string","internalType":"string"}],"stateMutability":"view"},{"type":"function","name":"admin","inputs":[],"outputs":[{"name":"","type":"address","internalType":"address"}],"stateMutability":"view"},{"type":"function","name":"cfArt","inputs":[],"outputs":[{"name":"","type":"address","internalType":"address"}],"stateMutability":"view"},{"type":"function","name":"checkerSignMsgSignature","inputs":[{"name":"_msg","type":"tuple","internalType":"struct SignatureInfo.SignMessage","components":[{"name":"orderNum","type":"string","internalType":"string"},{"name":"orderMark","type":"string","internalType":"string"},{"name":"token","type":"address","internalType":"address"},{"name":"recipient","type":"address","internalType":"address"},{"name":"amount","type":"uint256","internalType":"uint256"},{"name":"nonce","type":"uint256","internalType":"uint256"},{"name":"deadline","type":"uint256","internalType":"uint256"},{"name":"v","type":"uint8","internalType":"uint8"},{"name":"r","type":"bytes32","internalType":"bytes32"},{"name":"s","type":"bytes32","internalType":"bytes32"}]}],"outputs":[{"name":"","type":"bool","internalType":"bool"}],"stateMutability":"view"},{"type":"function","name":"deposit","inputs":[{"name":"orderNum","type":"string","internalType":"string"},{"name":"orderMark","type":"string","internalType":"string"},{"name":"token","type":"address","internalType":"address"},{"name":"amount","type":"uint256","internalType":"uint256"}],"outputs":[],"stateMutability":"nonpayable"},{"type":"function","name":"depositETH","inputs":[{"name":"orderNum","type":"string","internalType":"string"},{"name":"orderMark","type":"string","internalType":"string"},{"name":"amount","type":"uint256","internalType":"uint256"}],"outputs":[],"stateMutability":"payable"},{"type":"function","name":"doaminSeparator","inputs":[],"outputs":[{"name":"","type":"bytes32","internalType":"bytes32"}],"stateMutability":"view"},{"type":"function","name":"eip712Domain","inputs":[],"outputs":[{"name":"fields","type":"bytes1","internalType":"bytes1"},{"name":"name","type":"string","internalType":"string"},{"name":"version","type":"string","internalType":"string"},{"name":"chainId","type":"uint256","internalType":"uint256"},{"name":"verifyingContract","type":"address","internalType":"address"},{"name":"salt","type":"bytes32","internalType":"bytes32"},{"name":"extensions","type":"uint256[]","internalType":"uint256[]"}],"stateMutability":"view"},{"type":"function","name":"getPayment","inputs":[{"name":"amountNFT","type":"uint256","internalType":"uint256"}],"outputs":[{"name":"","type":"uint256","internalType":"uint256"}],"stateMutability":"pure"},{"type":"function","name":"getSignMsgHash","inputs":[{"name":"_msg","type":"tuple","internalType":"struct SignatureInfo.SignMessage","components":[{"name":"orderNum","type":"string","internalType":"string"},{"name":"orderMark","type":"string","internalType":"string"},{"name":"token","type":"address","internalType":"address"},{"name":"recipient","type":"address","internalType":"address"},{"name":"amount","type":"uint256","internalType":"uint256"},{"name":"nonce","type":"uint256","internalType":"uint256"},{"name":"deadline","type":"uint256","internalType":"uint256"},{"name":"v","type":"uint8","internalType":"uint8"},{"name":"r","type":"bytes32","internalType":"bytes32"},{"name":"s","type":"bytes32","internalType":"bytes32"}]}],"outputs":[{"name":"","type":"bytes32","internalType":"bytes32"}],"stateMutability":"view"},{"type":"function","name":"getSignMsgHashAndStructHash","inputs":[{"name":"_msg","type":"tuple","internalType":"struct SignatureInfo.SignMessage","components":[{"name":"orderNum","type":"string","internalType":"string"},{"name":"orderMark","type":"string","internalType":"string"},{"name":"token","type":"address","internalType":"address"},{"name":"recipient","type":"address","internalType":"address"},{"name":"amount","type":"uint256","internalType":"uint256"},{"name":"nonce","type":"uint256","internalType":"uint256"},{"name":"deadline","type":"uint256","internalType":"uint256"},{"name":"v","type":"uint8","internalType":"uint8"},{"name":"r","type":"bytes32","internalType":"bytes32"},{"name":"s","type":"bytes32","internalType":"bytes32"}]}],"outputs":[{"name":"includeDomain","type":"bytes32","internalType":"bytes32"},{"name":"dataHash","type":"bytes32","internalType":"bytes32"}],"stateMutability":"view"},{"type":"function","name":"initialize","inputs":[{"name":"_admin","type":"address","internalType":"address"},{"name":"_cfArt","type":"address","internalType":"address"},{"name":"_usdt","type":"address","internalType":"address"},{"name":"_recipient","type":"address","internalType":"address"}],"outputs":[],"stateMutability":"nonpayable"},{"type":"function","name":"isExcuted","inputs":[{"name":"","type":"string","internalType":"string"},{"name":"","type":"string","internalType":"string"}],"outputs":[{"name":"","type":"bool","internalType":"bool"}],"stateMutability":"view"},{"type":"function","name":"managerMint","inputs":[{"name":"mark","type":"string","internalType":"string"},{"name":"to","type":"address","internalType":"address"},{"name":"amount","type":"uint256","internalType":"uint256"}],"outputs":[],"stateMutability":"nonpayable"},{"type":"function","name":"managerWithdraw","inputs":[{"name":"token","type":"address","internalType":"address"},{"name":"to","type":"address","internalType":"address"},{"name":"amount","type":"uint256","internalType":"uint256"}],"outputs":[],"stateMutability":"nonpayable"},{"type":"function","name":"mintCfArt","inputs":[{"name":"mark","type":"string","internalType":"string"},{"name":"amount","type":"uint256","internalType":"uint256"}],"outputs":[],"stateMutability":"nonpayable"},{"type":"function","name":"nonce","inputs":[],"outputs":[{"name":"","type":"uint256","internalType":"uint256"}],"stateMutability":"view"},{"type":"function","name":"owner","inputs":[],"outputs":[{"name":"","type":"address","internalType":"address"}],"stateMutability":"view"},{"type":"function","name":"proxiableUUID","inputs":[],"outputs":[{"name":"","type":"bytes32","internalType":"bytes32"}],"stateMutability":"view"},{"type":"function","name":"recipient","inputs":[],"outputs":[{"name":"","type":"address","internalType":"address"}],"stateMutability":"view"},{"type":"function","name":"renounceOwnership","inputs":[],"outputs":[],"stateMutability":"nonpayable"},{"type":"function","name":"setAdmin","inputs":[{"name":"_admin","type":"address","internalType":"address"}],"outputs":[],"stateMutability":"nonpayable"},{"type":"function","name":"setConfig","inputs":[{"name":"_cfArt","type":"address","internalType":"address"},{"name":"_usdt","type":"address","internalType":"address"},{"name":"_recipient","type":"address","internalType":"address"}],"outputs":[],"stateMutability":"nonpayable"},{"type":"function","name":"transferOwnership","inputs":[{"name":"newOwner","type":"address","internalType":"address"}],"outputs":[],"stateMutability":"nonpayable"},{"type":"function","name":"upgradeToAndCall","inputs":[{"name":"newImplementation","type":"address","internalType":"address"},{"name":"data","type":"bytes","internalType":"bytes"}],"outputs":[],"stateMutability":"payable"},{"type":"function","name":"usdt","inputs":[],"outputs":[{"name":"","type":"address","internalType":"address"}],"stateMutability":"view"},{"type":"function","name":"withdrawWithSignature","inputs":[{"name":"_msg","type":"tuple","internalType":"struct SignatureInfo.SignMessage","components":[{"name":"orderNum","type":"string","internalType":"string"},{"name":"orderMark","type":"string","internalType":"string"},{"name":"token","type":"address","internalType":"address"},{"name":"recipient","type":"address","internalType":"address"},{"name":"amount","type":"uint256","internalType":"uint256"},{"name":"nonce","type":"uint256","internalType":"uint256"},{"name":"deadline","type":"uint256","internalType":"uint256"},{"name":"v","type":"uint8","internalType":"uint8"},{"name":"r","type":"bytes32","internalType":"bytes32"},{"name":"s","type":"bytes32","internalType":"bytes32"}]}],"outputs":[],"stateMutability":"nonpayable"},{"type":"event","name":"EIP712DomainChanged","inputs":[],"anonymous":false},{"type":"event","name":"Initialized","inputs":[{"name":"version","type":"uint64","indexed":false,"internalType":"uint64"}],"anonymous":false},{"type":"event","name":"Mint","inputs":[{"name":"orderMark","type":"string","indexed":false,"internalType":"string"},{"name":"token","type":"address","indexed":false,"internalType":"address"},{"name":"associateAddr","type":"address","indexed":false,"internalType":"address"},{"name":"amount","type":"uint256","indexed":false,"internalType":"uint256"},{"name":"usdt","type":"uint256","indexed":false,"internalType":"uint256"},{"name":"time","type":"uint256","indexed":false,"internalType":"uint256"}],"anonymous":false},{"type":"event","name":"OwnershipTransferred","inputs":[{"name":"previousOwner","type":"address","indexed":true,"internalType":"address"},{"name":"newOwner","type":"address","indexed":true,"internalType":"address"}],"anonymous":false},{"type":"event","name":"Recharge","inputs":[{"name":"orderNum","type":"string","indexed":false,"internalType":"string"},{"name":"orderMark","type":"string","indexed":false,"internalType":"string"},{"name":"token","type":"address","indexed":false,"internalType":"address"},{"name":"associateAddr","type":"address","indexed":false,"internalType":"address"},{"name":"amount","type":"uint256","indexed":false,"internalType":"uint256"},{"name":"time","type":"uint256","indexed":false,"internalType":"uint256"}],"anonymous":false},{"type":"event","name":"Upgraded","inputs":[{"name":"implementation","type":"address","indexed":true,"internalType":"address"}],"anonymous":false},{"type":"event","name":"Withdraw","inputs":[{"name":"orderNum","type":"string","indexed":false,"internalType":"string"},{"name":"orderMark","type":"string","indexed":false,"internalType":"string"},{"name":"token","type":"address","indexed":false,"internalType":"address"},{"name":"associateAddr","type":"address","indexed":false,"internalType":"address"},{"name":"amount","type":"uint256","indexed":false,"internalType":"uint256"},{"name":"nonce","type":"uint256","indexed":false,"internalType":"uint256"},{"name":"time","type":"uint256","indexed":false,"internalType":"uint256"}],"anonymous":false},{"type":"error","name":"AddressEmptyCode","inputs":[{"name":"target","type":"address","internalType":"address"}]},{"type":"error","name":"ECDSAInvalidSignature","inputs":[]},{"type":"error","name":"ECDSAInvalidSignatureLength","inputs":[{"name":"length","type":"uint256","internalType":"uint256"}]},{"type":"error","name":"ECDSAInvalidSignatureS","inputs":[{"name":"s","type":"bytes32","internalType":"bytes32"}]},{"type":"error","name":"ERC1967InvalidImplementation","inputs":[{"name":"implementation","type":"address","internalType":"address"}]},{"type":"error","name":"ERC1967NonPayable","inputs":[]},{"type":"error","name":"FailedCall","inputs":[]},{"type":"error","name":"InvalidInitialization","inputs":[]},{"type":"error","name":"NotInitializing","inputs":[]},{"type":"error","name":"OwnableInvalidOwner","inputs":[{"name":"owner","type":"address","internalType":"address"}]},{"type":"error","name":"OwnableUnauthorizedAccount","inputs":[{"name":"account","type":"address","internalType":"address"}]},{"type":"error","name":"UUPSUnauthorizedCallContext","inputs":[]},{"type":"error","name":"UUPSUnsupportedProxiableUUID","inputs":[{"name":"slot","type":"bytes32","internalType":"bytes32"}]}],"bytecode":{"object":"0x60a06040523060805234801561001457600080fd5b5060805161269c61003e600039600081816111730152818161119c01526114c1015261269c6000f3fe6080604052600436106101bb5760003560e01c806384b0196e116100ec578063c0987e451161008a578063f2fde38b11610064578063f2fde38b14610563578063f526cf4e14610583578063f851a440146105a3578063f8c8765e146105c357600080fd5b8063c0987e451461050e578063cdc09b4b1461052e578063e778b9da1461054e57600080fd5b8063ad3cb1cc116100c6578063ad3cb1cc14610487578063affed0e0146104c5578063b370cdc8146104db578063b5b40406146104fb57600080fd5b806384b0196e146104155780638da5cb5b1461043d5780639753b68a1461045257600080fd5b80634fa5edae1161015957806366d003ac1161013357806366d003ac146103a0578063704b6c02146103c0578063715018a6146103e057806378125428146103f557600080fd5b80634fa5edae1461030357806352d1902d146103235780635f5a5ac61461033857600080fd5b80632f48ab7d116101955780632f48ab7d146102565780633141e25b146102765780633280a836146102d05780634f1ef286146102f057600080fd5b80631f87ce35146101c757806321d58beb146101e95780632f1d14cb1461022657600080fd5b366101c257005b600080fd5b3480156101d357600080fd5b506101e76101e2366004611d99565b6105e3565b005b3480156101f557600080fd5b50600254610209906001600160a01b031681565b6040516001600160a01b0390911681526020015b60405180910390f35b34801561023257600080fd5b5061024860008051602061264783398151915281565b60405190815260200161021d565b34801561026257600080fd5b50600354610209906001600160a01b031681565b34801561028257600080fd5b506101e7610291366004611e15565b600280546001600160a01b039485166001600160a01b031991821617909155600380549385169382169390931790925560048054919093169116179055565b3480156102dc57600080fd5b506102486102eb366004611e58565b610636565b6101e76102fe366004611e71565b610651565b34801561030f57600080fd5b506101e761031e366004611ee4565b610670565b34801561032f57600080fd5b50610248610856565b34801561034457600080fd5b50610390610353366004611fdf565b8151602081840181018051600582529282019482019490942091909352815180830184018051928152908401929093019190912091525460ff1681565b604051901515815260200161021d565b3480156103ac57600080fd5b50600454610209906001600160a01b031681565b3480156103cc57600080fd5b506101e76103db366004612039565b610873565b3480156103ec57600080fd5b506101e761089d565b34801561040157600080fd5b50610248610410366004611ee4565b6108b1565b34801561042157600080fd5b5061042a610966565b60405161021d97969594939291906120a4565b34801561044957600080fd5b50610209610a12565b34801561045e57600080fd5b5061047261046d366004611ee4565b610a40565b6040805192835260208301919091520161021d565b34801561049357600080fd5b506104b8604051806040016040528060058152602001640352e302e360dc1b81525081565b60405161021d919061213d565b3480156104d157600080fd5b5061024860005481565b3480156104e757600080fd5b506101e76104f6366004612150565b610b8f565b6101e76105093660046121a7565b610c50565b34801561051a57600080fd5b506101e7610529366004612214565b610cd4565b34801561053a57600080fd5b506101e7610549366004612259565b610dcd565b34801561055a57600080fd5b50610248610dfe565b34801561056f57600080fd5b506101e761057e366004612039565b610e0d565b34801561058f57600080fd5b5061039061059e366004611ee4565b610e4b565b3480156105af57600080fd5b50600154610209906001600160a01b031681565b3480156105cf57600080fd5b506101e76105de366004612285565b610e8e565b6105ef82333084611038565b7f37ec47367e2943752cea88f18c2c89ac619490dc86f310d8de772bc1907cb2a9848484338542604051610628969594939291906122d9565b60405180910390a150505050565b600061064b82681043561a8829300000612343565b92915050565b610659611168565b6106628261120d565b61066c8282611215565b5050565b6000548160a00151146106b95760405162461bcd60e51b815260206004820152600c60248201526b2737b731b29032b93937b91760a11b60448201526064015b60405180910390fd5b428160c0015110156106ff5760405162461bcd60e51b815260206004820152600f60248201526e2232b0b23634b7329032b93937b91760891b60448201526064016106b0565b61070881610e4b565b61074d5760405162461bcd60e51b815260206004820152601660248201527521b432b1b59039b4b3b730ba3ab9329032b93937b91760511b60448201526064016106b0565b60408101516001600160a01b03161561077c576107778160400151826060015183608001516112d2565b61078e565b61078e816060015182608001516113ed565b6001600582600001516040516107a4919061235a565b908152602001604051809103902082602001516040516107c4919061235a565b908152604051908190036020019020805491151560ff199092169190911790556000805490806107f383612376565b91905055507f3b1a9cf826ad103fcfd30c512e38e2c9580edc5e15a17292daabf70df85cf098816000015182602001518360400151846060015185608001518660a001514260405161084b979695949392919061238f565b60405180910390a150565b60006108606114b6565b5060008051602061262783398151915290565b61087b6114ff565b600180546001600160a01b0319166001600160a01b0392909216919091179055565b6108a5611561565b6108af6000611593565b565b600061064b60008051602061264783398151915283600001516040516020016108da919061235a565b604051602081830303815290604052805190602001208460200151604051602001610905919061235a565b604051602081830303815290604052805190602001208560400151866060015187608001518860a001518960c0015160405160200161094b9897969594939291906123eb565b60405160208183030381529060405280519060200120611604565b60006060808280808381600080516020612607833981519152805490915015801561099357506001810154155b6109d75760405162461bcd60e51b81526020600482015260156024820152741152540dcc4c8e88155b9a5b9a5d1a585b1a5e9959605a1b60448201526064016106b0565b6109df611631565b6109e76116f4565b60408051600080825260208201909252600f60f81b9c939b5091995046985030975095509350915050565b7f9016d09d72d40fdae2fd8ceac6b6234c7706214fd39c1cd1e609a0528c199300546001600160a01b031690565b600080610adb6000805160206126478339815191528460000151604051602001610a6a919061235a565b604051602081830303815290604052805190602001208560200151604051602001610a95919061235a565b604051602081830303815290604052805190602001208660400151876060015188608001518960a001518a60c0015160405160200161094b9897969594939291906123eb565b91506000805160206126478339815191528360000151604051602001610b01919061235a565b604051602081830303815290604052805190602001208460200151604051602001610b2c919061235a565b604051602081830303815290604052805190602001208560400151866060015187608001518860a001518960c00151604051602001610b729897969594939291906123eb565b604051602081830303815290604052805190602001209050915091565b610b976114ff565b6002546040516343508b0560e01b81526001600160a01b03848116600483015260248201849052909116906343508b0590604401600060405180830381600087803b158015610be557600080fd5b505af1158015610bf9573d6000803e3d6000fd5b50506002546040517f1e91fd3ede467a086b683f0ef014823729a570a313850de1dcd1f07fe03e37c19350610c43925086916001600160a01b03169086908690600090429061242b565b60405180910390a1505050565b80341015610c905760405162461bcd60e51b815260206004820152600d60248201526c22b93937b91030b6b7bab73a1760991b60448201526064016106b0565b610c9a30826113ed565b7f37ec47367e2943752cea88f18c2c89ac619490dc86f310d8de772bc1907cb2a983836000338542604051610c43969594939291906122d9565b600354600454610d05916001600160a01b0390811691339116610d0085681043561a8829300000612343565b611038565b6002546040516343508b0560e01b8152336004820152602481018390526001600160a01b03909116906343508b0590604401600060405180830381600087803b158015610d5157600080fd5b505af1158015610d65573d6000803e3d6000fd5b50506002547f1e91fd3ede467a086b683f0ef014823729a570a313850de1dcd1f07fe03e37c192508491506001600160a01b03163384610dae81681043561a8829300000612343565b42604051610dc19695949392919061242b565b60405180910390a15050565b610dd56114ff565b6001600160a01b03831615610df457610def8383836112d2565b505050565b610def82826113ed565b6000610e08611733565b905090565b610e15611561565b6001600160a01b038116610e3f57604051631e4fbdf760e01b8152600060048201526024016106b0565b610e4881611593565b50565b600080610e57836108b1565b90506000610e75828560e0015186610100015187610120015161173d565b6001546001600160a01b03918216911614949350505050565b7ff0c57e16840df040f15088dc2f81fe391c3923bec73e23a9662efc9c229c6a008054600160401b810460ff16159067ffffffffffffffff16600081158015610ed45750825b905060008267ffffffffffffffff166001148015610ef15750303b155b905081158015610eff575080155b15610f1d5760405163f92ee8a960e01b815260040160405180910390fd5b845467ffffffffffffffff191660011785558315610f4757845460ff60401b1916600160401b1785555b610f8c6040518060400160405280600a8152602001692932b3bab630ba34b7b760b11b815250604051806040016040528060018152602001603160f81b81525061176b565b610f95336117cc565b610f9d6117d4565b600180546001600160a01b03808c166001600160a01b031992831617909255600280548b8416908316179055600380548a84169083161790556004805492891692909116919091179055831561102d57845460ff60401b19168555604051600181527fc7f505b2f371ae2175ee4913f4499e1f2633a7b5936321eed1cdaeb6115181d29060200160405180910390a15b505050505050505050565b604080516001600160a01b0385811660248301528481166044830152606480830185905283518084039091018152608490920183526020820180516001600160e01b03166323b872dd60e01b179052915160009283929088169161109c919061235a565b6000604051808303816000865af19150503d80600081146110d9576040519150601f19603f3d011682016040523d82523d6000602084013e6110de565b606091505b50915091508180156111085750805115806111085750808060200190518101906111089190612473565b6111605760405162461bcd60e51b8152602060048201526024808201527f5472616e7366657248656c7065723a205452414e534645525f46524f4d5f46416044820152631253115160e21b60648201526084016106b0565b505050505050565b306001600160a01b037f00000000000000000000000000000000000000000000000000000000000000001614806111ef57507f00000000000000000000000000000000000000000000000000000000000000006001600160a01b03166111e3600080516020612627833981519152546001600160a01b031690565b6001600160a01b031614155b156108af5760405163703e46dd60e11b815260040160405180910390fd5b610e48611561565b816001600160a01b03166352d1902d6040518163ffffffff1660e01b8152600401602060405180830381865afa92505050801561126f575060408051601f3d908101601f1916820190925261126c91810190612495565b60015b61129757604051634c9c8ce360e01b81526001600160a01b03831660048201526024016106b0565b60008051602061262783398151915281146112c857604051632a87526960e21b8152600481018290526024016106b0565b610def83836117dc565b604080516001600160a01b038481166024830152604480830185905283518084039091018152606490920183526020820180516001600160e01b031663a9059cbb60e01b179052915160009283929087169161132e919061235a565b6000604051808303816000865af19150503d806000811461136b576040519150601f19603f3d011682016040523d82523d6000602084013e611370565b606091505b509150915081801561139a57508051158061139a57508080602001905181019061139a9190612473565b6113e65760405162461bcd60e51b815260206004820152601f60248201527f5472616e7366657248656c7065723a205452414e534645525f4641494c45440060448201526064016106b0565b5050505050565b604080516000808252602082019092526001600160a01b038416908390604051611417919061235a565b60006040518083038185875af1925050503d8060008114611454576040519150601f19603f3d011682016040523d82523d6000602084013e611459565b606091505b5050905080610def5760405162461bcd60e51b815260206004820152602360248201527f5472616e7366657248656c7065723a204554485f5452414e534645525f46414960448201526213115160ea1b60648201526084016106b0565b306001600160a01b037f000000000000000000000000000000000000000000000000000000000000000016146108af5760405163703e46dd60e11b815260040160405180910390fd5b6001546001600160a01b031633148061152757503361151c610a12565b6001600160a01b0316145b6108af5760405162461bcd60e51b815260206004820152600b60248201526a1393d517d411549513525560aa1b60448201526064016106b0565b3361156a610a12565b6001600160a01b0316146108af5760405163118cdaa760e01b81523360048201526024016106b0565b7f9016d09d72d40fdae2fd8ceac6b6234c7706214fd39c1cd1e609a0528c19930080546001600160a01b031981166001600160a01b03848116918217845560405192169182907f8be0079c531659141344cd1fd0a4f28419497f9722a3daafe3b4186f6b6457e090600090a3505050565b600061064b611611611733565b8360405161190160f01b8152600281019290925260228201526042902090565b7fa16a46d94261c7517cc8ff89f61c0ce93598e3c849801011dee649a6a557d102805460609160008051602061260783398151915291611670906124ae565b80601f016020809104026020016040519081016040528092919081815260200182805461169c906124ae565b80156116e95780601f106116be576101008083540402835291602001916116e9565b820191906000526020600020905b8154815290600101906020018083116116cc57829003601f168201915b505050505091505090565b7fa16a46d94261c7517cc8ff89f61c0ce93598e3c849801011dee649a6a557d103805460609160008051602061260783398151915291611670906124ae565b6000610e08611832565b60008060008061174f888888886118a6565b92509250925061175f8282611975565b50909695505050505050565b611773611a2e565b6000805160206126078339815191527fa16a46d94261c7517cc8ff89f61c0ce93598e3c849801011dee649a6a557d1026117ad8482612530565b50600381016117bc8382612530565b5060008082556001909101555050565b610e15611a2e565b6108af611a2e565b6117e582611a77565b6040516001600160a01b038316907fbc7cd75a20ee27fd9adebab32041f755214dbc6bffa90cc0225b39da2e5c2d3b90600090a280511561182a57610def8282611adc565b61066c611b52565b60007f8b73c3c69bb8fe3d512ecc4cf759cc79239f7b179b0ffacaa9a75d522b39400f61185d611b71565b611865611bdb565b60408051602081019490945283019190915260608201524660808201523060a082015260c00160405160208183030381529060405280519060200120905090565b600080807f7fffffffffffffffffffffffffffffff5d576e7357a4501ddfe92f46681b20a08411156118e1575060009150600390508261196b565b604080516000808252602082018084528a905260ff891692820192909252606081018790526080810186905260019060a0016020604051602081039080840390855afa158015611935573d6000803e3d6000fd5b5050604051601f1901519150506001600160a01b0381166119615750600092506001915082905061196b565b9250600091508190505b9450945094915050565b6000826003811115611989576119896125f0565b03611992575050565b60018260038111156119a6576119a66125f0565b036119c45760405163f645eedf60e01b815260040160405180910390fd5b60028260038111156119d8576119d86125f0565b036119f95760405163fce698f760e01b8152600481018290526024016106b0565b6003826003811115611a0d57611a0d6125f0565b0361066c576040516335e2f38360e21b8152600481018290526024016106b0565b7ff0c57e16840df040f15088dc2f81fe391c3923bec73e23a9662efc9c229c6a0054600160401b900460ff166108af57604051631afcd79f60e31b815260040160405180910390fd5b806001600160a01b03163b600003611aad57604051634c9c8ce360e01b81526001600160a01b03821660048201526024016106b0565b60008051602061262783398151915280546001600160a01b0319166001600160a01b0392909216919091179055565b6060600080846001600160a01b031684604051611af9919061235a565b600060405180830381855af49150503d8060008114611b34576040519150601f19603f3d011682016040523d82523d6000602084013e611b39565b606091505b5091509150611b49858383611c1f565b95945050505050565b34156108af5760405163b398979f60e01b815260040160405180910390fd5b600060008051602061260783398151915281611b8b611631565b805190915015611ba357805160209091012092915050565b81548015611bb2579392505050565b7fc5d2460186f7233c927e7db2dcc703c0e500b653ca82273b7bfad8045d85a470935050505090565b600060008051602061260783398151915281611bf56116f4565b805190915015611c0d57805160209091012092915050565b60018201548015611bb2579392505050565b606082611c3457611c2f82611c7e565b611c77565b8151158015611c4b57506001600160a01b0384163b155b15611c7457604051639996b31560e01b81526001600160a01b03851660048201526024016106b0565b50805b9392505050565b805115611c8e5780518082602001fd5b60405163d6bda27560e01b815260040160405180910390fd5b634e487b7160e01b600052604160045260246000fd5b604051610140810167ffffffffffffffff81118282101715611ce157611ce1611ca7565b60405290565b600067ffffffffffffffff80841115611d0257611d02611ca7565b604051601f8501601f19908116603f01168101908282118183101715611d2a57611d2a611ca7565b81604052809350858152868686011115611d4357600080fd5b858560208301376000602087830101525050509392505050565b600082601f830112611d6e57600080fd5b611c7783833560208501611ce7565b80356001600160a01b0381168114611d9457600080fd5b919050565b60008060008060808587031215611daf57600080fd5b843567ffffffffffffffff80821115611dc757600080fd5b611dd388838901611d5d565b95506020870135915080821115611de957600080fd5b50611df687828801611d5d565b935050611e0560408601611d7d565b9396929550929360600135925050565b600080600060608486031215611e2a57600080fd5b611e3384611d7d565b9250611e4160208501611d7d565b9150611e4f60408501611d7d565b90509250925092565b600060208284031215611e6a57600080fd5b5035919050565b60008060408385031215611e8457600080fd5b611e8d83611d7d565b9150602083013567ffffffffffffffff811115611ea957600080fd5b8301601f81018513611eba57600080fd5b611ec985823560208401611ce7565b9150509250929050565b803560ff81168114611d9457600080fd5b600060208284031215611ef657600080fd5b813567ffffffffffffffff80821115611f0e57600080fd5b908301906101408286031215611f2357600080fd5b611f2b611cbd565b823582811115611f3a57600080fd5b611f4687828601611d5d565b825250602083013582811115611f5b57600080fd5b611f6787828601611d5d565b602083015250611f7960408401611d7d565b6040820152611f8a60608401611d7d565b60608201526080830135608082015260a083013560a082015260c083013560c0820152611fb960e08401611ed3565b60e082015261010083810135908201526101209283013592810192909252509392505050565b60008060408385031215611ff257600080fd5b823567ffffffffffffffff8082111561200a57600080fd5b61201686838701611d5d565b9350602085013591508082111561202c57600080fd5b50611ec985828601611d5d565b60006020828403121561204b57600080fd5b611c7782611d7d565b60005b8381101561206f578181015183820152602001612057565b50506000910152565b60008151808452612090816020860160208601612054565b601f01601f19169290920160200192915050565b60ff60f81b881681526000602060e060208401526120c560e084018a612078565b83810360408501526120d7818a612078565b606085018990526001600160a01b038816608086015260a0850187905284810360c08601528551808252602080880193509091019060005b8181101561212b5783518352928401929184019160010161210f565b50909c9b505050505050505050505050565b602081526000611c776020830184612078565b60008060006060848603121561216557600080fd5b833567ffffffffffffffff81111561217c57600080fd5b61218886828701611d5d565b93505061219760208501611d7d565b9150604084013590509250925092565b6000806000606084860312156121bc57600080fd5b833567ffffffffffffffff808211156121d457600080fd5b6121e087838801611d5d565b945060208601359150808211156121f657600080fd5b5061220386828701611d5d565b925050604084013590509250925092565b6000806040838503121561222757600080fd5b823567ffffffffffffffff81111561223e57600080fd5b61224a85828601611d5d565b95602094909401359450505050565b60008060006060848603121561226e57600080fd5b61227784611d7d565b925061219760208501611d7d565b6000806000806080858703121561229b57600080fd5b6122a485611d7d565b93506122b260208601611d7d565b92506122c060408601611d7d565b91506122ce60608601611d7d565b905092959194509250565b60c0815260006122ec60c0830189612078565b82810360208401526122fe8189612078565b6001600160a01b03978816604085015295909616606083015250608081019290925260a0909101529392505050565b634e487b7160e01b600052601160045260246000fd5b808202811582820484141761064b5761064b61232d565b6000825161236c818460208701612054565b9190910192915050565b6000600182016123885761238861232d565b5060010190565b60e0815260006123a260e083018a612078565b82810360208401526123b4818a612078565b6001600160a01b03988916604085015296909716606083015250608081019390935260a083019190915260c0909101529392505050565b978852602088019690965260408701949094526001600160a01b0392831660608701529116608085015260a084015260c083015260e08201526101000190565b60c08152600061243e60c0830189612078565b6001600160a01b0397881660208401529590961660408201526060810193909352608083019190915260a09091015292915050565b60006020828403121561248557600080fd5b81518015158114611c7757600080fd5b6000602082840312156124a757600080fd5b5051919050565b600181811c908216806124c257607f821691505b6020821081036124e257634e487b7160e01b600052602260045260246000fd5b50919050565b601f821115610def576000816000526020600020601f850160051c810160208610156125115750805b601f850160051c820191505b818110156111605782815560010161251d565b815167ffffffffffffffff81111561254a5761254a611ca7565b61255e8161255884546124ae565b846124e8565b602080601f831160018114612593576000841561257b5750858301515b600019600386901b1c1916600185901b178555611160565b600085815260208120601f198616915b828110156125c2578886015182559484019460019091019084016125a3565b50858210156125e05787850151600019600388901b60f8161c191681555b5050505050600190811b01905550565b634e487b7160e01b600052602160045260246000fdfea16a46d94261c7517cc8ff89f61c0ce93598e3c849801011dee649a6a557d100360894a13ba1a3210667c828492db98dca3e2076cc3735a920a3ca505d382bbca411b26c4da7d943a039af4de2b469ac3f646c68209dd5c72fae2d126f322561a2646970667358221220b38d1fdcc1ebefa0a7f00ee114b43f21bedd14f1821fa737ff71486bd46680e764736f6c63430008180033","linkReferences":{}},"methodIdentifiers":{"SIGN_TYPEHASH()":"2f1d14cb","UPGRADE_INTERFACE_VERSION()":"ad3cb1cc","admin()":"f851a440","cfArt()":"21d58beb","checkerSignMsgSignature((string,string,address,address,uint256,uint256,uint256,uint8,bytes32,bytes32))":"f526cf4e","deposit(string,string,address,uint256)":"1f87ce35","depositETH(string,string,uint256)":"b5b40406","doaminSeparator()":"e778b9da","eip712Domain()":"84b0196e","getPayment(uint256)":"3280a836","getSignMsgHash((string,string,address,address,uint256,uint256,uint256,uint8,bytes32,bytes32))":"78125428","getSignMsgHashAndStructHash((string,string,address,address,uint256,uint256,uint256,uint8,bytes32,bytes32))":"9753b68a","initialize(address,address,address,address)":"f8c8765e","isExcuted(string,string)":"5f5a5ac6","managerMint(string,address,uint256)":"b370cdc8","managerWithdraw(address,address,uint256)":"cdc09b4b","mintCfArt(string,uint256)":"c0987e45","nonce()":"affed0e0","owner()":"8da5cb5b","proxiableUUID()":"52d1902d","recipient()":"66d003ac","renounceOwnership()":"715018a6","setAdmin(address)":"704b6c02","setConfig(address,address,address)":"3141e25b","transferOwnership(address)":"f2fde38b","upgradeToAndCall(address,bytes)":"4f1ef286","usdt()":"2f48ab7d","withdrawWithSignature((string,string,address,address,uint256,uint256,uint256,uint8,bytes32,bytes32))":"4fa5edae"},"id":59}