{"abi":[{"type":"receive","stateMutability":"payable"},{"type":"function","name":"SIGN_TYPEHASH","inputs":[],"outputs":[{"name":"","type":"bytes32","internalType":"bytes32"}],"stateMutability":"view"},{"type":"function","name":"UPGRADE_INTERFACE_VERSION","inputs":[],"outputs":[{"name":"","type":"string","internalType":"string"}],"stateMutability":"view"},{"type":"function","name":"admin","inputs":[],"outputs":[{"name":"","type":"address","internalType":"address"}],"stateMutability":"view"},{"type":"function","name":"cfArt","inputs":[],"outputs":[{"name":"","type":"address","internalType":"address"}],"stateMutability":"view"},{"type":"function","name":"checkerSignMsgSignature","inputs":[{"name":"_msg","type":"tuple","internalType":"struct SignatureInfo.SignMessage","components":[{"name":"orderNum","type":"string","internalType":"string"},{"name":"orderMark","type":"string","internalType":"string"},{"name":"token","type":"address","internalType":"address"},{"name":"recipient","type":"address","internalType":"address"},{"name":"amount","type":"uint256","internalType":"uint256"},{"name":"nonce","type":"uint256","internalType":"uint256"},{"name":"deadline","type":"uint256","internalType":"uint256"},{"name":"v","type":"uint8","internalType":"uint8"},{"name":"r","type":"bytes32","internalType":"bytes32"},{"name":"s","type":"bytes32","internalType":"bytes32"}]}],"outputs":[{"name":"","type":"bool","internalType":"bool"}],"stateMutability":"view"},{"type":"function","name":"deposit","inputs":[{"name":"orderNum","type":"string","internalType":"string"},{"name":"orderMark","type":"string","internalType":"string"},{"name":"token","type":"address","internalType":"address"},{"name":"amount","type":"uint256","internalType":"uint256"}],"outputs":[],"stateMutability":"nonpayable"},{"type":"function","name":"depositETH","inputs":[{"name":"orderNum","type":"string","internalType":"string"},{"name":"orderMark","type":"string","internalType":"string"},{"name":"amount","type":"uint256","internalType":"uint256"}],"outputs":[],"stateMutability":"payable"},{"type":"function","name":"doaminSeparator","inputs":[],"outputs":[{"name":"","type":"bytes32","internalType":"bytes32"}],"stateMutability":"view"},{"type":"function","name":"eip712Domain","inputs":[],"outputs":[{"name":"fields","type":"bytes1","internalType":"bytes1"},{"name":"name","type":"string","internalType":"string"},{"name":"version","type":"string","internalType":"string"},{"name":"chainId","type":"uint256","internalType":"uint256"},{"name":"verifyingContract","type":"address","internalType":"address"},{"name":"salt","type":"bytes32","internalType":"bytes32"},{"name":"extensions","type":"uint256[]","internalType":"uint256[]"}],"stateMutability":"view"},{"type":"function","name":"getPayment","inputs":[{"name":"amountNFT","type":"uint256","internalType":"uint256"}],"outputs":[{"name":"","type":"uint256","internalType":"uint256"}],"stateMutability":"pure"},{"type":"function","name":"getSignMsgHash","inputs":[{"name":"_msg","type":"tuple","internalType":"struct SignatureInfo.SignMessage","components":[{"name":"orderNum","type":"string","internalType":"string"},{"name":"orderMark","type":"string","internalType":"string"},{"name":"token","type":"address","internalType":"address"},{"name":"recipient","type":"address","internalType":"address"},{"name":"amount","type":"uint256","internalType":"uint256"},{"name":"nonce","type":"uint256","internalType":"uint256"},{"name":"deadline","type":"uint256","internalType":"uint256"},{"name":"v","type":"uint8","internalType":"uint8"},{"name":"r","type":"bytes32","internalType":"bytes32"},{"name":"s","type":"bytes32","internalType":"bytes32"}]}],"outputs":[{"name":"","type":"bytes32","internalType":"bytes32"}],"stateMutability":"view"},{"type":"function","name":"getSignMsgHashAndStructHash","inputs":[{"name":"_msg","type":"tuple","internalType":"struct SignatureInfo.SignMessage","components":[{"name":"orderNum","type":"string","internalType":"string"},{"name":"orderMark","type":"string","internalType":"string"},{"name":"token","type":"address","internalType":"address"},{"name":"recipient","type":"address","internalType":"address"},{"name":"amount","type":"uint256","internalType":"uint256"},{"name":"nonce","type":"uint256","internalType":"uint256"},{"name":"deadline","type":"uint256","internalType":"uint256"},{"name":"v","type":"uint8","internalType":"uint8"},{"name":"r","type":"bytes32","internalType":"bytes32"},{"name":"s","type":"bytes32","internalType":"bytes32"}]}],"outputs":[{"name":"includeDomain","type":"bytes32","internalType":"bytes32"},{"name":"dataHash","type":"bytes32","internalType":"bytes32"}],"stateMutability":"view"},{"type":"function","name":"getTokenPrice","inputs":[{"name":"_token","type":"address","internalType":"address"}],"outputs":[{"name":"","type":"uint256","internalType":"uint256"}],"stateMutability":"view"},{"type":"function","name":"initialize","inputs":[{"name":"_admin","type":"address","internalType":"address"},{"name":"_cfArt","type":"address","internalType":"address"},{"name":"_usdt","type":"address","internalType":"address"},{"name":"_recipient","type":"address","internalType":"address"},{"name":"_uniswapV2Factory","type":"address","internalType":"address"},{"name":"_uniswapV2Router","type":"address","internalType":"address"}],"outputs":[],"stateMutability":"nonpayable"},{"type":"function","name":"isExcuted","inputs":[{"name":"","type":"string","internalType":"string"},{"name":"","type":"string","internalType":"string"}],"outputs":[{"name":"","type":"bool","internalType":"bool"}],"stateMutability":"view"},{"type":"function","name":"managerMint","inputs":[{"name":"mark","type":"string","internalType":"string"},{"name":"to","type":"address","internalType":"address"},{"name":"amount","type":"uint256","internalType":"uint256"}],"outputs":[],"stateMutability":"nonpayable"},{"type":"function","name":"managerWithdraw","inputs":[{"name":"token","type":"address","internalType":"address"},{"name":"to","type":"address","internalType":"address"},{"name":"amount","type":"uint256","internalType":"uint256"}],"outputs":[],"stateMutability":"nonpayable"},{"type":"function","name":"mintCfArt","inputs":[{"name":"mark","type":"string","internalType":"string"},{"name":"amount","type":"uint256","internalType":"uint256"}],"outputs":[],"stateMutability":"nonpayable"},{"type":"function","name":"mintERC20","inputs":[{"name":"_mark","type":"string","internalType":"string"},{"name":"_token","type":"address","internalType":"address"},{"name":"_recipient","type":"address","internalType":"address"},{"name":"_amount","type":"uint256","internalType":"uint256"}],"outputs":[],"stateMutability":"nonpayable"},{"type":"function","name":"mintERC20Result","inputs":[{"name":"","type":"string","internalType":"string"}],"outputs":[{"name":"","type":"bool","internalType":"bool"}],"stateMutability":"view"},{"type":"function","name":"nonce","inputs":[],"outputs":[{"name":"","type":"uint256","internalType":"uint256"}],"stateMutability":"view"},{"type":"function","name":"owner","inputs":[],"outputs":[{"name":"","type":"address","internalType":"address"}],"stateMutability":"view"},{"type":"function","name":"proxiableUUID","inputs":[],"outputs":[{"name":"","type":"bytes32","internalType":"bytes32"}],"stateMutability":"view"},{"type":"function","name":"purchase","inputs":[{"name":"user","type":"address","internalType":"address"},{"name":"amountUsdt","type":"uint256","internalType":"uint256"},{"name":"token","type":"address","internalType":"address"}],"outputs":[],"stateMutability":"nonpayable"},{"type":"function","name":"recipient","inputs":[],"outputs":[{"name":"","type":"address","internalType":"address"}],"stateMutability":"view"},{"type":"function","name":"renounceOwnership","inputs":[],"outputs":[],"stateMutability":"nonpayable"},{"type":"function","name":"setAdmin","inputs":[{"name":"_admin","type":"address","internalType":"address"}],"outputs":[],"stateMutability":"nonpayable"},{"type":"function","name":"setConfig","inputs":[{"name":"_cfArt","type":"address","internalType":"address"},{"name":"_usdt","type":"address","internalType":"address"},{"name":"_recipient","type":"address","internalType":"address"}],"outputs":[],"stateMutability":"nonpayable"},{"type":"function","name":"transferOwnership","inputs":[{"name":"newOwner","type":"address","internalType":"address"}],"outputs":[],"stateMutability":"nonpayable"},{"type":"function","name":"uniswapV2Factory","inputs":[],"outputs":[{"name":"","type":"address","internalType":"address"}],"stateMutability":"view"},{"type":"function","name":"uniswapV2Router","inputs":[],"outputs":[{"name":"","type":"address","internalType":"address"}],"stateMutability":"view"},{"type":"function","name":"upgradeToAndCall","inputs":[{"name":"newImplementation","type":"address","internalType":"address"},{"name":"data","type":"bytes","internalType":"bytes"}],"outputs":[],"stateMutability":"payable"},{"type":"function","name":"usdt","inputs":[],"outputs":[{"name":"","type":"address","internalType":"address"}],"stateMutability":"view"},{"type":"function","name":"withdrawWithSignature","inputs":[{"name":"_msg","type":"tuple","internalType":"struct SignatureInfo.SignMessage","components":[{"name":"orderNum","type":"string","internalType":"string"},{"name":"orderMark","type":"string","internalType":"string"},{"name":"token","type":"address","internalType":"address"},{"name":"recipient","type":"address","internalType":"address"},{"name":"amount","type":"uint256","internalType":"uint256"},{"name":"nonce","type":"uint256","internalType":"uint256"},{"name":"deadline","type":"uint256","internalType":"uint256"},{"name":"v","type":"uint8","internalType":"uint8"},{"name":"r","type":"bytes32","internalType":"bytes32"},{"name":"s","type":"bytes32","internalType":"bytes32"}]}],"outputs":[],"stateMutability":"nonpayable"},{"type":"event","name":"EIP712DomainChanged","inputs":[],"anonymous":false},{"type":"event","name":"Initialized","inputs":[{"name":"version","type":"uint64","indexed":false,"internalType":"uint64"}],"anonymous":false},{"type":"event","name":"Mint","inputs":[{"name":"orderMark","type":"string","indexed":false,"internalType":"string"},{"name":"token","type":"address","indexed":false,"internalType":"address"},{"name":"associateAddr","type":"address","indexed":false,"internalType":"address"},{"name":"amount","type":"uint256","indexed":false,"internalType":"uint256"},{"name":"usdt","type":"uint256","indexed":false,"internalType":"uint256"},{"name":"time","type":"uint256","indexed":false,"internalType":"uint256"}],"anonymous":false},{"type":"event","name":"OwnershipTransferred","inputs":[{"name":"previousOwner","type":"address","indexed":true,"internalType":"address"},{"name":"newOwner","type":"address","indexed":true,"internalType":"address"}],"anonymous":false},{"type":"event","name":"Recharge","inputs":[{"name":"orderNum","type":"string","indexed":false,"internalType":"string"},{"name":"orderMark","type":"string","indexed":false,"internalType":"string"},{"name":"token","type":"address","indexed":false,"internalType":"address"},{"name":"associateAddr","type":"address","indexed":false,"internalType":"address"},{"name":"amount","type":"uint256","indexed":false,"internalType":"uint256"},{"name":"time","type":"uint256","indexed":false,"internalType":"uint256"}],"anonymous":false},{"type":"event","name":"Upgraded","inputs":[{"name":"implementation","type":"address","indexed":true,"internalType":"address"}],"anonymous":false},{"type":"event","name":"Withdraw","inputs":[{"name":"orderNum","type":"string","indexed":false,"internalType":"string"},{"name":"orderMark","type":"string","indexed":false,"internalType":"string"},{"name":"token","type":"address","indexed":false,"internalType":"address"},{"name":"associateAddr","type":"address","indexed":false,"internalType":"address"},{"name":"amount","type":"uint256","indexed":false,"internalType":"uint256"},{"name":"nonce","type":"uint256","indexed":false,"internalType":"uint256"},{"name":"time","type":"uint256","indexed":false,"internalType":"uint256"}],"anonymous":false},{"type":"error","name":"AddressEmptyCode","inputs":[{"name":"target","type":"address","internalType":"address"}]},{"type":"error","name":"ECDSAInvalidSignature","inputs":[]},{"type":"error","name":"ECDSAInvalidSignatureLength","inputs":[{"name":"length","type":"uint256","internalType":"uint256"}]},{"type":"error","name":"ECDSAInvalidSignatureS","inputs":[{"name":"s","type":"bytes32","internalType":"bytes32"}]},{"type":"error","name":"ERC1967InvalidImplementation","inputs":[{"name":"implementation","type":"address","internalType":"address"}]},{"type":"error","name":"ERC1967NonPayable","inputs":[]},{"type":"error","name":"FailedCall","inputs":[]},{"type":"error","name":"InvalidInitialization","inputs":[]},{"type":"error","name":"NotInitializing","inputs":[]},{"type":"error","name":"OwnableInvalidOwner","inputs":[{"name":"owner","type":"address","internalType":"address"}]},{"type":"error","name":"OwnableUnauthorizedAccount","inputs":[{"name":"account","type":"address","internalType":"address"}]},{"type":"error","name":"UUPSUnauthorizedCallContext","inputs":[]},{"type":"error","name":"UUPSUnsupportedProxiableUUID","inputs":[{"name":"slot","type":"bytes32","internalType":"bytes32"}]}],"bytecode":{"object":"0x60a06040523060805234801561001457600080fd5b506080516130a161003e6000396000818161150701528181611530015261185501526130a16000f3fe6080604052600436106101fd5760003560e01c806384b0196e1161010d578063c0987e45116100a0578063e37840661161006f578063e37840661461066b578063e778b9da1461068b578063f2fde38b146106a0578063f526cf4e146106c0578063f851a440146106e057600080fd5b8063c0987e45146105eb578063cc2a9a5b1461060b578063cdc09b4b1461062b578063d02641a01461064b57600080fd5b8063ad3cb1cc116100dc578063ad3cb1cc14610564578063affed0e0146105a2578063b370cdc8146105b8578063b5b40406146105d857600080fd5b806384b0196e146104d257806385160169146104fa5780638da5cb5b1461051a5780639753b68a1461052f57600080fd5b80634f1ef286116101905780635f5a5ac61161015f5780635f5a5ac61461040557806366d003ac1461045d578063704b6c021461047d578063715018a61461049d57806378125428146104b257600080fd5b80634f1ef2861461039d5780634fa5edae146103b057806352d1902d146103d057806359d0f713146103e557600080fd5b80632f1d14cb116101cc5780632f1d14cb146102d35780632f48ab7d146103035780633141e25b146103235780633280a8361461037d57600080fd5b80630eb9450f146102095780631694505e146102595780631f87ce351461029157806321d58beb146102b357600080fd5b3661020457005b600080fd5b34801561021557600080fd5b50610244610224366004612589565b805160208183018101805160088252928201919093012091525460ff1681565b60405190151581526020015b60405180910390f35b34801561026557600080fd5b50600654610279906001600160a01b031681565b6040516001600160a01b039091168152602001610250565b34801561029d57600080fd5b506102b16102ac3660046125d9565b610700565b005b3480156102bf57600080fd5b50600254610279906001600160a01b031681565b3480156102df57600080fd5b506102f560008051602061304c83398151915281565b604051908152602001610250565b34801561030f57600080fd5b50600354610279906001600160a01b031681565b34801561032f57600080fd5b506102b161033e366004612654565b600280546001600160a01b039485166001600160a01b031991821617909155600380549385169382169390931790925560048054919093169116179055565b34801561038957600080fd5b506102f5610398366004612697565b610753565b6102b16103ab3660046126b0565b61076e565b3480156103bc57600080fd5b506102b16103cb366004612722565b61078d565b3480156103dc57600080fd5b506102f5610973565b3480156103f157600080fd5b50600554610279906001600160a01b031681565b34801561041157600080fd5b5061024461042036600461281c565b8151602081840181018051600782529282019482019490942091909352815180830184018051928152908401929093019190912091525460ff1681565b34801561046957600080fd5b50600454610279906001600160a01b031681565b34801561048957600080fd5b506102b1610498366004612875565b610990565b3480156104a957600080fd5b506102b16109ba565b3480156104be57600080fd5b506102f56104cd366004612722565b6109ce565b3480156104de57600080fd5b506104e7610a83565b60405161025097969594939291906128e0565b34801561050657600080fd5b506102b1610515366004612979565b610b2f565b34801561052657600080fd5b50610279610bd1565b34801561053b57600080fd5b5061054f61054a366004612722565b610bff565b60408051928352602083019190915201610250565b34801561057057600080fd5b50610595604051806040016040528060058152602001640352e302e360dc1b81525081565b60405161025091906129ce565b3480156105ae57600080fd5b506102f560005481565b3480156105c457600080fd5b506102b16105d33660046129e1565b610d4e565b6102b16105e6366004612a37565b610e0f565b3480156105f757600080fd5b506102b1610606366004612aa3565b610e93565b34801561061757600080fd5b506102b1610626366004612ae7565b610f78565b34801561063757600080fd5b506102b1610646366004612b5b565b61113a565b34801561065757600080fd5b506102f5610666366004612875565b61116b565b34801561067757600080fd5b506102b1610686366004612b87565b6111af565b34801561069757600080fd5b506102f561133c565b3480156106ac57600080fd5b506102b16106bb366004612875565b61134b565b3480156106cc57600080fd5b506102446106db366004612722565b611389565b3480156106ec57600080fd5b50600154610279906001600160a01b031681565b61070c823330846113cc565b7f37ec47367e2943752cea88f18c2c89ac619490dc86f310d8de772bc1907cb2a984848433854260405161074596959493929190612bba565b60405180910390a150505050565b600061076882681043561a8829300000612c24565b92915050565b6107766114fc565b61077f826115a1565b61078982826115a9565b5050565b6000548160a00151146107d65760405162461bcd60e51b815260206004820152600c60248201526b2737b731b29032b93937b91760a11b60448201526064015b60405180910390fd5b428160c00151101561081c5760405162461bcd60e51b815260206004820152600f60248201526e2232b0b23634b7329032b93937b91760891b60448201526064016107cd565b61082581611389565b61086a5760405162461bcd60e51b815260206004820152601660248201527521b432b1b59039b4b3b730ba3ab9329032b93937b91760511b60448201526064016107cd565b60408101516001600160a01b03161561089957610894816040015182606001518360800151611666565b6108ab565b6108ab81606001518260800151611781565b6001600782600001516040516108c19190612c3b565b908152602001604051809103902082602001516040516108e19190612c3b565b908152604051908190036020019020805491151560ff1990921691909117905560008054908061091083612c57565b91905055507f3b1a9cf826ad103fcfd30c512e38e2c9580edc5e15a17292daabf70df85cf098816000015182602001518360400151846060015185608001518660a00151426040516109689796959493929190612c70565b60405180910390a150565b600061097d61184a565b5060008051602061302c83398151915290565b610998611893565b600180546001600160a01b0319166001600160a01b0392909216919091179055565b6109c26118f5565b6109cc6000611927565b565b600061076860008051602061304c83398151915283600001516040516020016109f79190612c3b565b604051602081830303815290604052805190602001208460200151604051602001610a229190612c3b565b604051602081830303815290604052805190602001208560400151866060015187608001518860a001518960c00151604051602001610a68989796959493929190612ccc565b60405160208183030381529060405280519060200120611998565b6000606080828080838160008051602061300c8339815191528054909150158015610ab057506001810154155b610af45760405162461bcd60e51b81526020600482015260156024820152741152540dcc4c8e88155b9a5b9a5d1a585b1a5e9959605a1b60448201526064016107cd565b610afc6119c5565b610b04611a88565b60408051600080825260208201909252600f60f81b9c939b5091995046985030975095509350915050565b610b37611893565b6040516340c10f1960e01b81526001600160a01b038381166004830152602482018390528416906340c10f1990604401600060405180830381600087803b158015610b8157600080fd5b505af1158015610b95573d6000803e3d6000fd5b505050506001600885604051610bab9190612c3b565b908152604051908190036020019020805491151560ff1990921691909117905550505050565b7f9016d09d72d40fdae2fd8ceac6b6234c7706214fd39c1cd1e609a0528c199300546001600160a01b031690565b600080610c9a60008051602061304c8339815191528460000151604051602001610c299190612c3b565b604051602081830303815290604052805190602001208560200151604051602001610c549190612c3b565b604051602081830303815290604052805190602001208660400151876060015188608001518960a001518a60c00151604051602001610a68989796959493929190612ccc565b915060008051602061304c8339815191528360000151604051602001610cc09190612c3b565b604051602081830303815290604052805190602001208460200151604051602001610ceb9190612c3b565b604051602081830303815290604052805190602001208560400151866060015187608001518860a001518960c00151604051602001610d31989796959493929190612ccc565b604051602081830303815290604052805190602001209050915091565b610d56611893565b6002546040516343508b0560e01b81526001600160a01b03848116600483015260248201849052909116906343508b0590604401600060405180830381600087803b158015610da457600080fd5b505af1158015610db8573d6000803e3d6000fd5b50506002546040517f1e91fd3ede467a086b683f0ef014823729a570a313850de1dcd1f07fe03e37c19350610e02925086916001600160a01b031690869086906000904290612d0c565b60405180910390a1505050565b80341015610e4f5760405162461bcd60e51b815260206004820152600d60248201526c22b93937b91030b6b7bab73a1760991b60448201526064016107cd565b610e593082611781565b7f37ec47367e2943752cea88f18c2c89ac619490dc86f310d8de772bc1907cb2a983836000338542604051610e0296959493929190612bba565b600354600454610eba916001600160a01b0390811691339116610eb585610753565b6113cc565b6002546040516343508b0560e01b8152336004820152602481018390526001600160a01b03909116906343508b0590604401600060405180830381600087803b158015610f0657600080fd5b505af1158015610f1a573d6000803e3d6000fd5b50506002547f1e91fd3ede467a086b683f0ef014823729a570a313850de1dcd1f07fe03e37c192508491506001600160a01b03163384610f5981610753565b42604051610f6c96959493929190612d0c565b60405180910390a15050565b7ff0c57e16840df040f15088dc2f81fe391c3923bec73e23a9662efc9c229c6a008054600160401b810460ff1615906001600160401b0316600081158015610fbd5750825b90506000826001600160401b03166001148015610fd95750303b155b905081158015610fe7575080155b156110055760405163f92ee8a960e01b815260040160405180910390fd5b845467ffffffffffffffff19166001178555831561102f57845460ff60401b1916600160401b1785555b6110746040518060400160405280600a8152602001692932b3bab630ba34b7b760b11b815250604051806040016040528060018152602001603160f81b815250611ac7565b61107d33611b28565b611085611b30565b600180546001600160a01b03199081166001600160a01b038e8116919091179092556002805482168d84161790556003805482168c84161790556004805482168b84161790556005805482168a841617905560068054909116918816919091179055831561112d57845460ff60401b19168555604051600181527fc7f505b2f371ae2175ee4913f4499e1f2633a7b5936321eed1cdaeb6115181d29060200160405180910390a15b5050505050505050505050565b611142611893565b6001600160a01b038316156111615761115c838383611666565b505050565b61115c8282611781565b60055460035460009182918291611190916001600160a01b0391821691879116611b38565b915091506111a7670de0b6b3a76400008383611c0e565b949350505050565b6111b7611893565b6003546111cf906001600160a01b03168430856113cc565b60035460065460405163095ea7b360e01b81526001600160a01b0391821660048201526024810185905291169063095ea7b3906044016020604051808303816000875af1158015611224573d6000803e3d6000fd5b505050506040513d601f19601f820116820180604052508101906112489190612d54565b50604080516002808252606082018352600092602083019080368337505060035482519293506001600160a01b03169183915060009061128a5761128a612d76565b60200260200101906001600160a01b031690816001600160a01b03168152505081816001815181106112be576112be612d76565b6001600160a01b039283166020918202929092010152600654604051635c11d79560e01b8152911690635c11d7959061130490869060009086908a904290600401612d8c565b600060405180830381600087803b15801561131e57600080fd5b505af1158015611332573d6000803e3d6000fd5b5050505050505050565b6000611346611d29565b905090565b6113536118f5565b6001600160a01b03811661137d57604051631e4fbdf760e01b8152600060048201526024016107cd565b61138681611927565b50565b600080611395836109ce565b905060006113b3828560e00151866101000151876101200151611d33565b6001546001600160a01b03918216911614949350505050565b604080516001600160a01b0385811660248301528481166044830152606480830185905283518084039091018152608490920183526020820180516001600160e01b03166323b872dd60e01b17905291516000928392908816916114309190612c3b565b6000604051808303816000865af19150503d806000811461146d576040519150601f19603f3d011682016040523d82523d6000602084013e611472565b606091505b509150915081801561149c57508051158061149c57508080602001905181019061149c9190612d54565b6114f45760405162461bcd60e51b8152602060048201526024808201527f5472616e7366657248656c7065723a205452414e534645525f46524f4d5f46416044820152631253115160e21b60648201526084016107cd565b505050505050565b306001600160a01b037f000000000000000000000000000000000000000000000000000000000000000016148061158357507f00000000000000000000000000000000000000000000000000000000000000006001600160a01b031661157760008051602061302c833981519152546001600160a01b031690565b6001600160a01b031614155b156109cc5760405163703e46dd60e11b815260040160405180910390fd5b6113866118f5565b816001600160a01b03166352d1902d6040518163ffffffff1660e01b8152600401602060405180830381865afa925050508015611603575060408051601f3d908101601f1916820190925261160091810190612dff565b60015b61162b57604051634c9c8ce360e01b81526001600160a01b03831660048201526024016107cd565b60008051602061302c833981519152811461165c57604051632a87526960e21b8152600481018290526024016107cd565b61115c8383611d61565b604080516001600160a01b038481166024830152604480830185905283518084039091018152606490920183526020820180516001600160e01b031663a9059cbb60e01b17905291516000928392908716916116c29190612c3b565b6000604051808303816000865af19150503d80600081146116ff576040519150601f19603f3d011682016040523d82523d6000602084013e611704565b606091505b509150915081801561172e57508051158061172e57508080602001905181019061172e9190612d54565b61177a5760405162461bcd60e51b815260206004820152601f60248201527f5472616e7366657248656c7065723a205452414e534645525f4641494c45440060448201526064016107cd565b5050505050565b604080516000808252602082019092526001600160a01b0384169083906040516117ab9190612c3b565b60006040518083038185875af1925050503d80600081146117e8576040519150601f19603f3d011682016040523d82523d6000602084013e6117ed565b606091505b505090508061115c5760405162461bcd60e51b815260206004820152602360248201527f5472616e7366657248656c7065723a204554485f5452414e534645525f46414960448201526213115160ea1b60648201526084016107cd565b306001600160a01b037f000000000000000000000000000000000000000000000000000000000000000016146109cc5760405163703e46dd60e11b815260040160405180910390fd5b6001546001600160a01b03163314806118bb5750336118b0610bd1565b6001600160a01b0316145b6109cc5760405162461bcd60e51b815260206004820152600b60248201526a1393d517d411549513525560aa1b60448201526064016107cd565b336118fe610bd1565b6001600160a01b0316146109cc5760405163118cdaa760e01b81523360048201526024016107cd565b7f9016d09d72d40fdae2fd8ceac6b6234c7706214fd39c1cd1e609a0528c19930080546001600160a01b031981166001600160a01b03848116918217845560405192169182907f8be0079c531659141344cd1fd0a4f28419497f9722a3daafe3b4186f6b6457e090600090a3505050565b60006107686119a5611d29565b8360405161190160f01b8152600281019290925260228201526042902090565b7fa16a46d94261c7517cc8ff89f61c0ce93598e3c849801011dee649a6a557d102805460609160008051602061300c83398151915291611a0490612e18565b80601f0160208091040260200160405190810160405280929190818152602001828054611a3090612e18565b8015611a7d5780601f10611a5257610100808354040283529160200191611a7d565b820191906000526020600020905b815481529060010190602001808311611a6057829003601f168201915b505050505091505090565b7fa16a46d94261c7517cc8ff89f61c0ce93598e3c849801011dee649a6a557d103805460609160008051602061300c83398151915291611a0490612e18565b611acf611db7565b60008051602061300c8339815191527fa16a46d94261c7517cc8ff89f61c0ce93598e3c849801011dee649a6a557d102611b098482612e9a565b5060038101611b188382612e9a565b5060008082556001909101555050565b611353611db7565b6109cc611db7565b6000806000611b478585611e00565b509050611b55868686611ef5565b50600080611b64888888611ef5565b6001600160a01b0316630902f1ac6040518163ffffffff1660e01b8152600401606060405180830381865afa158015611ba1573d6000803e3d6000fd5b505050506040513d601f19601f82011682018060405250810190611bc59190612f70565b506001600160701b031691506001600160701b03169150826001600160a01b0316876001600160a01b031614611bfc578082611bff565b81815b90999098509650505050505050565b6000808411611c715760405162461bcd60e51b815260206004820152602960248201527f50616e63616b654c6962726172793a20494e53554646494349454e545f494e50604482015268155517d05353d5539560ba1b60648201526084016107cd565b600083118015611c815750600082115b611cdc5760405162461bcd60e51b815260206004820152602660248201527f50616e63616b654c6962726172793a20494e53554646494349454e545f4c495160448201526555494449545960d01b60648201526084016107cd565b6000611cea856126f7611fcd565b90506000611cf88285611fcd565b90506000611d1283611d0c88612710611fcd565b90612034565b9050611d1e8183612fc0565b979650505050505050565b6000611346612089565b600080600080611d45888888886120fd565b925092509250611d5582826121cc565b50909695505050505050565b611d6a82612285565b6040516001600160a01b038316907fbc7cd75a20ee27fd9adebab32041f755214dbc6bffa90cc0225b39da2e5c2d3b90600090a2805115611daf5761115c82826122ea565b610789612360565b7ff0c57e16840df040f15088dc2f81fe391c3923bec73e23a9662efc9c229c6a0054600160401b900460ff166109cc57604051631afcd79f60e31b815260040160405180910390fd5b600080826001600160a01b0316846001600160a01b031603611e705760405162461bcd60e51b815260206004820152602360248201527f50616e63616b654c6962726172793a204944454e544943414c5f41444452455360448201526253455360e81b60648201526084016107cd565b826001600160a01b0316846001600160a01b031610611e90578284611e93565b83835b90925090506001600160a01b038216611eee5760405162461bcd60e51b815260206004820152601c60248201527f50616e63616b654c6962726172793a205a45524f5f414444524553530000000060448201526064016107cd565b9250929050565b6000806000611f048585611e00565b6040516bffffffffffffffffffffffff19606084811b8216602084015283901b1660348201529193509150869060480160405160208183030381529060405280519060200120604051602001611fab9291906001600160f81b0319815260609290921b6bffffffffffffffffffffffff1916600183015260158201527efb7f630766e6a796048ea87d01acd3068e8ff67d078148a3fa3f4a84f69bd5603582015260550190565b60408051601f1981840301815291905280516020909101209695505050505050565b6000811580611ff157508282611fe38183612c24565b9250611fef9083612fc0565b145b6107685760405162461bcd60e51b815260206004820152601460248201527364732d6d6174682d6d756c2d6f766572666c6f7760601b60448201526064016107cd565b6000826120418382612fe2565b91508110156107685760405162461bcd60e51b815260206004820152601460248201527364732d6d6174682d6164642d6f766572666c6f7760601b60448201526064016107cd565b60007f8b73c3c69bb8fe3d512ecc4cf759cc79239f7b179b0ffacaa9a75d522b39400f6120b461237f565b6120bc6123e9565b60408051602081019490945283019190915260608201524660808201523060a082015260c00160405160208183030381529060405280519060200120905090565b600080807f7fffffffffffffffffffffffffffffff5d576e7357a4501ddfe92f46681b20a084111561213857506000915060039050826121c2565b604080516000808252602082018084528a905260ff891692820192909252606081018790526080810186905260019060a0016020604051602081039080840390855afa15801561218c573d6000803e3d6000fd5b5050604051601f1901519150506001600160a01b0381166121b8575060009250600191508290506121c2565b9250600091508190505b9450945094915050565b60008260038111156121e0576121e0612ff5565b036121e9575050565b60018260038111156121fd576121fd612ff5565b0361221b5760405163f645eedf60e01b815260040160405180910390fd5b600282600381111561222f5761222f612ff5565b036122505760405163fce698f760e01b8152600481018290526024016107cd565b600382600381111561226457612264612ff5565b03610789576040516335e2f38360e21b8152600481018290526024016107cd565b806001600160a01b03163b6000036122bb57604051634c9c8ce360e01b81526001600160a01b03821660048201526024016107cd565b60008051602061302c83398151915280546001600160a01b0319166001600160a01b0392909216919091179055565b6060600080846001600160a01b0316846040516123079190612c3b565b600060405180830381855af49150503d8060008114612342576040519150601f19603f3d011682016040523d82523d6000602084013e612347565b606091505b509150915061235785838361242d565b95945050505050565b34156109cc5760405163b398979f60e01b815260040160405180910390fd5b600060008051602061300c833981519152816123996119c5565b8051909150156123b157805160209091012092915050565b815480156123c0579392505050565b7fc5d2460186f7233c927e7db2dcc703c0e500b653ca82273b7bfad8045d85a470935050505090565b600060008051602061300c83398151915281612403611a88565b80519091501561241b57805160209091012092915050565b600182015480156123c0579392505050565b6060826124425761243d8261248c565b612485565b815115801561245957506001600160a01b0384163b155b1561248257604051639996b31560e01b81526001600160a01b03851660048201526024016107cd565b50805b9392505050565b80511561249c5780518082602001fd5b60405163d6bda27560e01b815260040160405180910390fd5b634e487b7160e01b600052604160045260246000fd5b60405161014081016001600160401b03811182821017156124ee576124ee6124b5565b60405290565b60006001600160401b038084111561250e5761250e6124b5565b604051601f8501601f19908116603f01168101908282118183101715612536576125366124b5565b8160405280935085815286868601111561254f57600080fd5b858560208301376000602087830101525050509392505050565b600082601f83011261257a57600080fd5b612485838335602085016124f4565b60006020828403121561259b57600080fd5b81356001600160401b038111156125b157600080fd5b6111a784828501612569565b80356001600160a01b03811681146125d457600080fd5b919050565b600080600080608085870312156125ef57600080fd5b84356001600160401b038082111561260657600080fd5b61261288838901612569565b9550602087013591508082111561262857600080fd5b5061263587828801612569565b935050612644604086016125bd565b9396929550929360600135925050565b60008060006060848603121561266957600080fd5b612672846125bd565b9250612680602085016125bd565b915061268e604085016125bd565b90509250925092565b6000602082840312156126a957600080fd5b5035919050565b600080604083850312156126c357600080fd5b6126cc836125bd565b915060208301356001600160401b038111156126e757600080fd5b8301601f810185136126f857600080fd5b612707858235602084016124f4565b9150509250929050565b803560ff811681146125d457600080fd5b60006020828403121561273457600080fd5b81356001600160401b038082111561274b57600080fd5b90830190610140828603121561276057600080fd5b6127686124cb565b82358281111561277757600080fd5b61278387828601612569565b82525060208301358281111561279857600080fd5b6127a487828601612569565b6020830152506127b6604084016125bd565b60408201526127c7606084016125bd565b60608201526080830135608082015260a083013560a082015260c083013560c08201526127f660e08401612711565b60e082015261010083810135908201526101209283013592810192909252509392505050565b6000806040838503121561282f57600080fd5b82356001600160401b038082111561284657600080fd5b61285286838701612569565b9350602085013591508082111561286857600080fd5b5061270785828601612569565b60006020828403121561288757600080fd5b612485826125bd565b60005b838110156128ab578181015183820152602001612893565b50506000910152565b600081518084526128cc816020860160208601612890565b601f01601f19169290920160200192915050565b60ff60f81b881681526000602060e0602084015261290160e084018a6128b4565b8381036040850152612913818a6128b4565b606085018990526001600160a01b038816608086015260a0850187905284810360c08601528551808252602080880193509091019060005b818110156129675783518352928401929184019160010161294b565b50909c9b505050505050505050505050565b6000806000806080858703121561298f57600080fd5b84356001600160401b038111156129a557600080fd5b6129b187828801612569565b9450506129c0602086016125bd565b9250612644604086016125bd565b60208152600061248560208301846128b4565b6000806000606084860312156129f657600080fd5b83356001600160401b03811115612a0c57600080fd5b612a1886828701612569565b935050612a27602085016125bd565b9150604084013590509250925092565b600080600060608486031215612a4c57600080fd5b83356001600160401b0380821115612a6357600080fd5b612a6f87838801612569565b94506020860135915080821115612a8557600080fd5b50612a9286828701612569565b925050604084013590509250925092565b60008060408385031215612ab657600080fd5b82356001600160401b03811115612acc57600080fd5b612ad885828601612569565b95602094909401359450505050565b60008060008060008060c08789031215612b0057600080fd5b612b09876125bd565b9550612b17602088016125bd565b9450612b25604088016125bd565b9350612b33606088016125bd565b9250612b41608088016125bd565b9150612b4f60a088016125bd565b90509295509295509295565b600080600060608486031215612b7057600080fd5b612b79846125bd565b9250612a27602085016125bd565b600080600060608486031215612b9c57600080fd5b612ba5846125bd565b92506020840135915061268e604085016125bd565b60c081526000612bcd60c08301896128b4565b8281036020840152612bdf81896128b4565b6001600160a01b03978816604085015295909616606083015250608081019290925260a0909101529392505050565b634e487b7160e01b600052601160045260246000fd5b808202811582820484141761076857610768612c0e565b60008251612c4d818460208701612890565b9190910192915050565b600060018201612c6957612c69612c0e565b5060010190565b60e081526000612c8360e083018a6128b4565b8281036020840152612c95818a6128b4565b6001600160a01b03988916604085015296909716606083015250608081019390935260a083019190915260c0909101529392505050565b978852602088019690965260408701949094526001600160a01b0392831660608701529116608085015260a084015260c083015260e08201526101000190565b60c081526000612d1f60c08301896128b4565b6001600160a01b0397881660208401529590961660408201526060810193909352608083019190915260a09091015292915050565b600060208284031215612d6657600080fd5b8151801515811461248557600080fd5b634e487b7160e01b600052603260045260246000fd5b600060a08201878352602087602085015260a0604085015281875180845260c08601915060208901935060005b81811015612dde5784516001600160a01b031683529383019391830191600101612db9565b50506001600160a01b03969096166060850152505050608001529392505050565b600060208284031215612e1157600080fd5b5051919050565b600181811c90821680612e2c57607f821691505b602082108103612e4c57634e487b7160e01b600052602260045260246000fd5b50919050565b601f82111561115c576000816000526020600020601f850160051c81016020861015612e7b5750805b601f850160051c820191505b818110156114f457828155600101612e87565b81516001600160401b03811115612eb357612eb36124b5565b612ec781612ec18454612e18565b84612e52565b602080601f831160018114612efc5760008415612ee45750858301515b600019600386901b1c1916600185901b1785556114f4565b600085815260208120601f198616915b82811015612f2b57888601518255948401946001909101908401612f0c565b5085821015612f495787850151600019600388901b60f8161c191681555b5050505050600190811b01905550565b80516001600160701b03811681146125d457600080fd5b600080600060608486031215612f8557600080fd5b612f8e84612f59565b9250612f9c60208501612f59565b9150604084015163ffffffff81168114612fb557600080fd5b809150509250925092565b600082612fdd57634e487b7160e01b600052601260045260246000fd5b500490565b8082018082111561076857610768612c0e565b634e487b7160e01b600052602160045260246000fdfea16a46d94261c7517cc8ff89f61c0ce93598e3c849801011dee649a6a557d100360894a13ba1a3210667c828492db98dca3e2076cc3735a920a3ca505d382bbca411b26c4da7d943a039af4de2b469ac3f646c68209dd5c72fae2d126f322561a26469706673582212206cc459fc9542c8a73c2b8d6030e93d1df1d1a0da25c52ecb63995886c08d6e9f64736f6c63430008180033","linkReferences":{}},"methodIdentifiers":{"SIGN_TYPEHASH()":"2f1d14cb","UPGRADE_INTERFACE_VERSION()":"ad3cb1cc","admin()":"f851a440","cfArt()":"21d58beb","checkerSignMsgSignature((string,string,address,address,uint256,uint256,uint256,uint8,bytes32,bytes32))":"f526cf4e","deposit(string,string,address,uint256)":"1f87ce35","depositETH(string,string,uint256)":"b5b40406","doaminSeparator()":"e778b9da","eip712Domain()":"84b0196e","getPayment(uint256)":"3280a836","getSignMsgHash((string,string,address,address,uint256,uint256,uint256,uint8,bytes32,bytes32))":"78125428","getSignMsgHashAndStructHash((string,string,address,address,uint256,uint256,uint256,uint8,bytes32,bytes32))":"9753b68a","getTokenPrice(address)":"d02641a0","initialize(address,address,address,address,address,address)":"cc2a9a5b","isExcuted(string,string)":"5f5a5ac6","managerMint(string,address,uint256)":"b370cdc8","managerWithdraw(address,address,uint256)":"cdc09b4b","mintCfArt(string,uint256)":"c0987e45","mintERC20(string,address,address,uint256)":"85160169","mintERC20Result(string)":"0eb9450f","nonce()":"affed0e0","owner()":"8da5cb5b","proxiableUUID()":"52d1902d","purchase(address,uint256,address)":"e3784066","recipient()":"66d003ac","renounceOwnership()":"715018a6","setAdmin(address)":"704b6c02","setConfig(address,address,address)":"3141e25b","transferOwnership(address)":"f2fde38b","uniswapV2Factory()":"59d0f713","uniswapV2Router()":"1694505e","upgradeToAndCall(address,bytes)":"4f1ef286","usdt()":"2f48ab7d","withdrawWithSignature((string,string,address,address,uint256,uint256,uint256,uint8,bytes32,bytes32))":"4fa5edae"},"id":65}