{"abi":[{"type":"constructor","inputs":[],"stateMutability":"nonpayable"},{"type":"function","name":"USDT","inputs":[],"outputs":[{"name":"","type":"address","internalType":"address"}],"stateMutability":"view"}],"bytecode":{"object":"0x6080604052348015600e575f5ffd5b5060405163095ea7b360e01b81523360048201525f1960248201527355d398326f99059ff775485246999027b31979559063095ea7b3906044016020604051808303815f875af11580156063573d5f5f3e3d5ffd5b505050506040513d601f19601f8201168201806040525081019060859190608a565b5060ae565b5f602082840312156099575f5ffd5b8151801515811460a7575f5ffd5b9392505050565b6096806100ba5f395ff3fe6080604052348015600e575f5ffd5b50600436106026575f3560e01c8063c54e44eb14602a575b5f5ffd5b60447355d398326f99059ff775485246999027b319795581565b6040516001600160a01b03909116815260200160405180910390f3fea2646970667358221220df3def98c0669ea7f9d8709dd706cb7aa6062940d0a8ef016ca053fc9251457964736f6c634300081c0033","linkReferences":{}},"methodIdentifiers":{"USDT()":"c54e44eb"},"id":46}