{"abi":[{"type":"constructor","inputs":[{"name":"_name","type":"string","internalType":"string"},{"name":"_symbol","type":"string","internalType":"string"},{"name":"_initialRecipient","type":"address","internalType":"address"},{"name":"_exceedTaxWallet","type":"address","internalType":"address"}],"stateMutability":"nonpayable"},{"type":"function","name":"DEAD","inputs":[],"outputs":[{"name":"","type":"address","internalType":"address"}],"stateMutability":"view"},{"type":"function","name":"MAX_BUY_USDT","inputs":[],"outputs":[{"name":"","type":"uint256","internalType":"uint256"}],"stateMutability":"view"},{"type":"function","name":"MIN_ADD_LIQUIDITY","inputs":[],"outputs":[{"name":"","type":"uint256","internalType":"uint256"}],"stateMutability":"view"},{"type":"function","name":"MIN_LIQUIDITY","inputs":[],"outputs":[{"name":"","type":"uint256","internalType":"uint256"}],"stateMutability":"view"},{"type":"function","name":"MIN_PROCESS_AWARD","inputs":[],"outputs":[{"name":"","type":"uint256","internalType":"uint256"}],"stateMutability":"view"},{"type":"function","name":"USDT","inputs":[],"outputs":[{"name":"","type":"address","internalType":"address"}],"stateMutability":"view"},{"type":"function","name":"_safeSwapAndAdd","inputs":[],"outputs":[],"stateMutability":"nonpayable"},{"type":"function","name":"allowance","inputs":[{"name":"owner","type":"address","internalType":"address"},{"name":"spender","type":"address","internalType":"address"}],"outputs":[{"name":"","type":"uint256","internalType":"uint256"}],"stateMutability":"view"},{"type":"function","name":"approve","inputs":[{"name":"spender","type":"address","internalType":"address"},{"name":"amount","type":"uint256","internalType":"uint256"}],"outputs":[{"name":"","type":"bool","internalType":"bool"}],"stateMutability":"nonpayable"},{"type":"function","name":"atTheOpeningOrder","inputs":[],"outputs":[{"name":"","type":"uint256","internalType":"uint256"}],"stateMutability":"view"},{"type":"function","name":"balanceOf","inputs":[{"name":"account","type":"address","internalType":"address"}],"outputs":[{"name":"","type":"uint256","internalType":"uint256"}],"stateMutability":"view"},{"type":"function","name":"decimals","inputs":[],"outputs":[{"name":"","type":"uint8","internalType":"uint8"}],"stateMutability":"view"},{"type":"function","name":"decreaseAllowance","inputs":[{"name":"spender","type":"address","internalType":"address"},{"name":"subtractedValue","type":"uint256","internalType":"uint256"}],"outputs":[{"name":"","type":"bool","internalType":"bool"}],"stateMutability":"nonpayable"},{"type":"function","name":"exceedTaxWallet","inputs":[],"outputs":[{"name":"","type":"address","internalType":"address"}],"stateMutability":"view"},{"type":"function","name":"getAmountOutUSDT","inputs":[{"name":"tokenAmount","type":"uint256","internalType":"uint256"}],"outputs":[{"name":"","type":"uint256","internalType":"uint256"}],"stateMutability":"view"},{"type":"function","name":"getHolders","inputs":[],"outputs":[{"name":"","type":"address[]","internalType":"address[]"}],"stateMutability":"view"},{"type":"function","name":"getLpUsdtValue","inputs":[{"name":"lpAmount","type":"uint256","internalType":"uint256"}],"outputs":[{"name":"","type":"uint256","internalType":"uint256"}],"stateMutability":"view"},{"type":"function","name":"holders","inputs":[{"name":"","type":"uint256","internalType":"uint256"}],"outputs":[{"name":"","type":"address","internalType":"address"}],"stateMutability":"view"},{"type":"function","name":"increaseAllowance","inputs":[{"name":"spender","type":"address","internalType":"address"},{"name":"addedValue","type":"uint256","internalType":"uint256"}],"outputs":[{"name":"","type":"bool","internalType":"bool"}],"stateMutability":"nonpayable"},{"type":"function","name":"isExemptFromTax","inputs":[{"name":"","type":"address","internalType":"address"}],"outputs":[{"name":"","type":"bool","internalType":"bool"}],"stateMutability":"view"},{"type":"function","name":"lpOriginalOwner","inputs":[{"name":"","type":"address","internalType":"address"}],"outputs":[{"name":"","type":"address","internalType":"address"}],"stateMutability":"view"},{"type":"function","name":"mining","inputs":[],"outputs":[{"name":"","type":"address","internalType":"address"}],"stateMutability":"view"},{"type":"function","name":"mint","inputs":[{"name":"to","type":"address","internalType":"address"},{"name":"amount","type":"uint256","internalType":"uint256"}],"outputs":[],"stateMutability":"nonpayable"},{"type":"function","name":"name","inputs":[],"outputs":[{"name":"","type":"string","internalType":"string"}],"stateMutability":"view"},{"type":"function","name":"owner","inputs":[],"outputs":[{"name":"","type":"address","internalType":"address"}],"stateMutability":"view"},{"type":"function","name":"pancakePair","inputs":[],"outputs":[{"name":"","type":"address","internalType":"address"}],"stateMutability":"view"},{"type":"function","name":"pancakeRouter","inputs":[],"outputs":[{"name":"","type":"address","internalType":"contract IUniswapV2Router02"}],"stateMutability":"view"},{"type":"function","name":"process","inputs":[{"name":"isExchange","type":"bool","internalType":"bool"},{"name":"gas","type":"uint256","internalType":"uint256"}],"outputs":[],"stateMutability":"nonpayable"},{"type":"function","name":"receiveHelper","inputs":[],"outputs":[{"name":"","type":"address","internalType":"address"}],"stateMutability":"view"},{"type":"function","name":"renounceOwnership","inputs":[],"outputs":[],"stateMutability":"nonpayable"},{"type":"function","name":"setAtTheOpeningOrder","inputs":[],"outputs":[],"stateMutability":"nonpayable"},{"type":"function","name":"setExceedTaxWallet","inputs":[{"name":"_exceedTaxWallet","type":"address","internalType":"address"}],"outputs":[],"stateMutability":"nonpayable"},{"type":"function","name":"setLimitConfig","inputs":[{"name":"_minLiquidity","type":"uint256","internalType":"uint256"},{"name":"_minProcessAward","type":"uint256","internalType":"uint256"},{"name":"_minAddLiquidity","type":"uint256","internalType":"uint256"}],"outputs":[],"stateMutability":"nonpayable"},{"type":"function","name":"setMinLimit","inputs":[{"name":"_minLiquidity","type":"uint256","internalType":"uint256"},{"name":"_minAward","type":"uint256","internalType":"uint256"}],"outputs":[],"stateMutability":"nonpayable"},{"type":"function","name":"setMining","inputs":[{"name":"_mining","type":"address","internalType":"address"}],"outputs":[],"stateMutability":"nonpayable"},{"type":"function","name":"setSubscribeList","inputs":[{"name":"_addrs","type":"address[]","internalType":"address[]"},{"name":"_sub","type":"bool","internalType":"bool"}],"outputs":[],"stateMutability":"nonpayable"},{"type":"function","name":"setTaxExemption","inputs":[{"name":"_addrs","type":"address[]","internalType":"address[]"},{"name":"_exempt","type":"bool","internalType":"bool"}],"outputs":[],"stateMutability":"nonpayable"},{"type":"function","name":"subscribelist","inputs":[{"name":"","type":"address","internalType":"address"}],"outputs":[{"name":"","type":"bool","internalType":"bool"}],"stateMutability":"view"},{"type":"function","name":"symbol","inputs":[],"outputs":[{"name":"","type":"string","internalType":"string"}],"stateMutability":"view"},{"type":"function","name":"totalSupply","inputs":[],"outputs":[{"name":"","type":"uint256","internalType":"uint256"}],"stateMutability":"view"},{"type":"function","name":"transfer","inputs":[{"name":"to","type":"address","internalType":"address"},{"name":"amount","type":"uint256","internalType":"uint256"}],"outputs":[{"name":"","type":"bool","internalType":"bool"}],"stateMutability":"nonpayable"},{"type":"function","name":"transferFrom","inputs":[{"name":"from","type":"address","internalType":"address"},{"name":"to","type":"address","internalType":"address"},{"name":"amount","type":"uint256","internalType":"uint256"}],"outputs":[{"name":"","type":"bool","internalType":"bool"}],"stateMutability":"nonpayable"},{"type":"function","name":"transferOwnership","inputs":[{"name":"newOwner","type":"address","internalType":"address"}],"outputs":[],"stateMutability":"nonpayable"},{"type":"function","name":"txFee","inputs":[],"outputs":[{"name":"","type":"uint256","internalType":"uint256"}],"stateMutability":"view"},{"type":"function","name":"updateMyStatus","inputs":[],"outputs":[],"stateMutability":"nonpayable"},{"type":"event","name":"Approval","inputs":[{"name":"owner","type":"address","indexed":true,"internalType":"address"},{"name":"spender","type":"address","indexed":true,"internalType":"address"},{"name":"value","type":"uint256","indexed":false,"internalType":"uint256"}],"anonymous":false},{"type":"event","name":"DebugAddLiquidity","inputs":[{"name":"from","type":"address","indexed":false,"internalType":"address"},{"name":"to","type":"address","indexed":false,"internalType":"address"},{"name":"amount","type":"uint256","indexed":false,"internalType":"uint256"},{"name":"isAdd","type":"bool","indexed":false,"internalType":"bool"}],"anonymous":false},{"type":"event","name":"DebugDelLiquidity","inputs":[{"name":"from","type":"address","indexed":false,"internalType":"address"},{"name":"to","type":"address","indexed":false,"internalType":"address"},{"name":"amount","type":"uint256","indexed":false,"internalType":"uint256"},{"name":"isDel","type":"bool","indexed":false,"internalType":"bool"}],"anonymous":false},{"type":"event","name":"OwnershipTransferred","inputs":[{"name":"previousOwner","type":"address","indexed":true,"internalType":"address"},{"name":"newOwner","type":"address","indexed":true,"internalType":"address"}],"anonymous":false},{"type":"event","name":"Transfer","inputs":[{"name":"from","type":"address","indexed":true,"internalType":"address"},{"name":"to","type":"address","indexed":true,"internalType":"address"},{"name":"value","type":"uint256","indexed":false,"internalType":"uint256"}],"anonymous":false}],"bytecode":{"object":"0x60e06040526846791fc84e07d000006010556802b5e3af16b188000060115568056bc75e2d63100000601255348015610036575f5ffd5b5060405161375238038061375283398101604081905261005591610468565b838360036100638382610570565b5060046100708282610570565b50505061008961008461021c60201b60201c565b610220565b61009e826a52b7d2dcc80cd2e4000000610271565b7310ed43c718714eb63d5aa57b78b54704e256024e60808190526040805163c45a015560e01b8152905163c45a0155916004808201926020929091908290030181865afa1580156100f1573d5f5f3e3d5ffd5b505050506040513d601f19601f82011682018060405250810190610115919061062a565b6040516364e329cb60e11b81523060048201527355d398326f99059ff775485246999027b319795560248201526001600160a01b03919091169063c9c65396906044016020604051808303815f875af1158015610174573d5f5f3e3d5ffd5b505050506040513d601f19601f82011682018060405250810190610198919061062a565b6001600160a01b0390811660a052600b80546001600160a01b0319169183169190911790556101c5610332565b6001600160a01b0390811660c052919091165f908152600660205260408082208054600160ff199182168117909255308452828420805482168317905533845291909220805490911690911790555061066f915050565b3390565b600580546001600160a01b038381166001600160a01b0319831681179093556040519116919082907f8be0079c531659141344cd1fd0a4f28419497f9722a3daafe3b4186f6b6457e0905f90a35050565b6001600160a01b0382166102cb5760405162461bcd60e51b815260206004820152601f60248201527f45524332303a206d696e7420746f20746865207a65726f206164647265737300604482015260640160405180910390fd5b8060025f8282546102dc919061064a565b90915550506001600160a01b0382165f81815260208181526040808320805486019055518481527fddf252ad1be2c89b69c2b068fc378daa952ba7f163c4a11628f55a4df523b3ef910160405180910390a35050565b6040516001600160601b03193060601b1660208201525f9081906034016040516020818303038152906040528051906020012090505f60405180602001610378906103a3565b6020820181038252601f19601f820116604052509050818151602083015ff59250505090565b505050565b6101508061360283390190565b634e487b7160e01b5f52604160045260245ffd5b5f82601f8301126103d3575f5ffd5b81516001600160401b038111156103ec576103ec6103b0565b604051601f8201601f19908116603f011681016001600160401b038111828210171561041a5761041a6103b0565b604052818152838201602001851015610431575f5ffd5b8160208501602083015e5f918101602001919091529392505050565b80516001600160a01b0381168114610463575f5ffd5b919050565b5f5f5f5f6080858703121561047b575f5ffd5b84516001600160401b03811115610490575f5ffd5b61049c878288016103c4565b602087015190955090506001600160401b038111156104b9575f5ffd5b6104c5878288016103c4565b9350506104d46040860161044d565b91506104e26060860161044d565b905092959194509250565b600181811c9082168061050157607f821691505b60208210810361051f57634e487b7160e01b5f52602260045260245ffd5b50919050565b601f82111561039e57805f5260205f20601f840160051c8101602085101561054a5750805b601f840160051c820191505b81811015610569575f8155600101610556565b5050505050565b81516001600160401b03811115610589576105896103b0565b61059d8161059784546104ed565b84610525565b6020601f8211600181146105cf575f83156105b85750848201515b5f19600385901b1c1916600184901b178455610569565b5f84815260208120601f198516915b828110156105fe57878501518255602094850194600190920191016105de565b508482101561061b57868401515f19600387901b60f8161c191681555b50505050600190811b01905550565b5f6020828403121561063a575f5ffd5b6106438261044d565b9392505050565b8082018082111561066957634e487b7160e01b5f52601160045260245ffd5b92915050565b60805160a05160c051612ea561075d5f395f818161033e01528181610d3201528181610dd60152611d7401525f818161054d015281816107bb0152818161084d01528181610a1901528181610b400152818161150f0152818161154a015281816115d70152818161161a0152818161170401528181612013015281816121d60152818161226e015281816122f10152818161238601528181612413015281816124fd015281816125800152818161261701526127a801525f818161057401528181610f2501528181611d0501528181611d4101528181611dd501528181611e110152611ef40152612ea55ff3fe608060405234801561000f575f5ffd5b5060043610610276575f3560e01c8063662fac3911610156578063a457c2d7116100ca578063cf82046111610084578063cf820461146105ba578063dd62ed3e146105c3578063ec375408146105d6578063edb46daf146105e9578063ef10d56c146105fc578063f2fde38b14610604575f5ffd5b8063a457c2d714610522578063a9059cbb14610535578063b8c9d25c14610548578063c21ebd071461056f578063c54e44eb14610596578063cedddafe146105b1575f5ffd5b80637b2f3de41161011b5780637b2f3de4146104d357806383834550146104db57806386088e31146104ee5780638bae7634146105015780638da5cb5b1461050957806395d89b411461051a575f5ffd5b8063662fac39146104585780636df427621461046b57806370a082311461047b578063715018a6146104a3578063770cd1b8146104ab575f5ffd5b806323b872dd116101ed57806340c10f19116101b257806340c10f19146103d557806340f7bbc7146103e8578063423dbf5b1461040a5780634b28246d1461041d5780635fe8e7cc1461043057806363a184f514610445575f5ffd5b806323b872dd146103845780632a11ced0146103975780632e495fdd146103aa578063313ce567146103b357806339509351146103c2575f5ffd5b8063095ea7b31161023e578063095ea7b3146103135780631135d01a1461032657806311af88a414610339578063156444dd1461036057806318160ddd1461037357806321b77d631461037b575f5ffd5b806303fd2a451461027a5780630508c473146102a0578063060e7844146102b757806306fdde03146102e957806308aaa130146102fe575b5f5ffd5b61028361dead81565b6040516001600160a01b0390911681526020015b60405180910390f35b6102a960105481565b604051908152602001610297565b6102d96102c5366004612926565b60066020525f908152604090205460ff1681565b6040519015158152602001610297565b6102f1610617565b6040516102979190612948565b61031161030c36600461298a565b6106a7565b005b6102d9610321366004612a0c565b61078b565b610311610334366004612a36565b6107a4565b6102837f000000000000000000000000000000000000000000000000000000000000000081565b6102a961036e366004612a56565b6107b7565b6002546102a9565b6102a960115481565b6102d9610392366004612a6d565b6108f7565b6102836103a5366004612a56565b61091a565b6102a9600d5481565b60405160128152602001610297565b6102d96103d0366004612a0c565b610942565b6103116103e3366004612a0c565b610963565b6102d96103f6366004612926565b60076020525f908152604090205460ff1681565b610311610418366004612aab565b6109bb565b61031161042b366004612ad4565b6109d1565b610438610c53565b6040516102979190612b33565b600b54610283906001600160a01b031681565b600c54610283906001600160a01b031681565b6102a9681b1ae4d6e2ef50000081565b6102a9610489366004612926565b6001600160a01b03165f9081526020819052604090205490565b610311610cb2565b6102836104b9366004612926565b60086020525f90815260409020546001600160a01b031681565b610311610cc5565b6102a96104e9366004612a56565b610e7f565b6103116104fc366004612926565b610fc2565b610311611042565b6005546001600160a01b0316610283565b6102f1611050565b6102d9610530366004612a0c565b61105f565b6102d9610543366004612a0c565b6110d9565b6102837f000000000000000000000000000000000000000000000000000000000000000081565b6102837f000000000000000000000000000000000000000000000000000000000000000081565b6102837355d398326f99059ff775485246999027b319795581565b6102a960125481565b6102a9600e5481565b6102a96105d1366004612b45565b6110e6565b6103116105e436600461298a565b611110565b6103116105f7366004612926565b6111e9565b610311611269565b610311610612366004612926565b611272565b60606003805461062690612b7c565b80601f016020809104026020016040519081016040528092919081815260200182805461065290612b7c565b801561069d5780601f106106745761010080835404028352916020019161069d565b820191905f5260205f20905b81548152906001019060200180831161068057829003601f168201915b5050505050905090565b6106af6112eb565b5f5b82811015610785575f8484838181106106cc576106cc612bb4565b90506020020160208101906106e19190612926565b6001600160a01b03160361072b5760405162461bcd60e51b815260206004820152600c60248201526b5a45524f204144445245535360a01b60448201526064015b60405180910390fd5b8160065f86868581811061074157610741612bb4565b90506020020160208101906107569190612926565b6001600160a01b0316815260208101919091526040015f20805460ff19169115159190911790556001016106b1565b50505050565b5f33610798818585611345565b60019150505b92915050565b6107ac6112eb565b601191909155601055565b5f5f7f00000000000000000000000000000000000000000000000000000000000000006001600160a01b03166318160ddd6040518163ffffffff1660e01b8152600401602060405180830381865afa158015610815573d5f5f3e3d5ffd5b505050506040513d601f19601f820116820180604052508101906108399190612bc8565b9050805f0361084a57505f92915050565b5f7f00000000000000000000000000000000000000000000000000000000000000006001600160a01b0316630902f1ac6040518163ffffffff1660e01b8152600401606060405180830381865afa1580156108a7573d5f5f3e3d5ffd5b505050506040513d601f19601f820116820180604052508101906108cb9190612bfa565b50506001600160701b031690505f826108e48387612c4f565b6108ee9190612c66565b95945050505050565b5f33610904858285611468565b61090f8585856114da565b506001949350505050565b600a8181548110610929575f80fd5b5f918252602090912001546001600160a01b0316905081565b5f3361079881858561095483836110e6565b61095e9190612c85565b611345565b600c546001600160a01b031633146109ad5760405162461bcd60e51b815260206004820152600d60248201526c1393d508141154935255151151609a1b6044820152606401610722565b6109b782826119aa565b5050565b6109c36112eb565b601192909255601055601255565b333014610a0c5760405162461bcd60e51b81526020600482015260096024820152682327a92124a22222a760b91b6044820152606401610722565b8115610a16575050565b5f7f00000000000000000000000000000000000000000000000000000000000000006001600160a01b03166318160ddd6040518163ffffffff1660e01b8152600401602060405180830381865afa158015610a73573d5f5f3e3d5ffd5b505050506040513d601f19601f82011682018060405250810190610a979190612bc8565b600e54305f9081526020819052604081205492935091610ab79190612c98565b9050811580610ac7575060105481105b15610ad25750505050565b600a545f80805a90505b8683108015610aea57508382105b15610c495783600f5410610afd575f600f555b5f600a600f5481548110610b1357610b13612bb4565b5f9182526020822001546040516370a0823160e01b81526001600160a01b039182166004820181905293507f0000000000000000000000000000000000000000000000000000000000000000909116906370a0823190602401602060405180830381865afa158015610b87573d5f5f3e3d5ffd5b505050506040513d601f19601f82011682018060405250810190610bab9190612bc8565b90508015610c06575f88610bbf838a612c4f565b610bc99190612c66565b90505f81118015610bf45750600e54305f908152602081905260409020548291610bf291612c98565b115b15610c0457610c04308483611a67565b505b5a610c119084612c98565b610c1b9086612c85565b94505a600f80549194505f610c2f83612cab565b91905055508380610c3f90612cab565b9450505050610adc565b5050505050505050565b6060600a80548060200260200160405190810160405280929190818152602001828054801561069d57602002820191905f5260205f20905b81546001600160a01b03168152600190910190602001808311610c8b575050505050905090565b610cba6112eb565b610cc35f611c09565b565b333014610d005760405162461bcd60e51b81526020600482015260096024820152682327a92124a22222a760b91b6044820152606401610722565b5f6002600e54610d109190612c66565b9050610d1b81611c5a565b6040516370a0823160e01b81526001600160a01b037f00000000000000000000000000000000000000000000000000000000000000001660048201525f907355d398326f99059ff775485246999027b3197955906370a0823190602401602060405180830381865afa158015610d93573d5f5f3e3d5ffd5b505050506040513d601f19601f82011682018060405250810190610db79190612bc8565b905080156109b7576040516323b872dd60e01b81526001600160a01b037f0000000000000000000000000000000000000000000000000000000000000000166004820152306024820152604481018290527355d398326f99059ff775485246999027b3197955906323b872dd906064016020604051808303815f875af1158015610e43573d5f5f3e3d5ffd5b505050506040513d601f19601f82011682018060405250810190610e679190612cc3565b506109b782600e54610e799190612c98565b82611dcf565b6040805160028082526060820183525f92839291906020830190803683370190505090507355d398326f99059ff775485246999027b3197955815f81518110610eca57610eca612bb4565b60200260200101906001600160a01b031690816001600160a01b0316815250503081600181518110610efe57610efe612bb4565b6001600160a01b0392831660209182029290920101526040516307c0329d60e21b81525f917f00000000000000000000000000000000000000000000000000000000000000001690631f00ca7490610f5c9087908690600401612cf2565b5f60405180830381865afa158015610f76573d5f5f3e3d5ffd5b505050506040513d5f823e601f3d908101601f19168201604052610f9d9190810190612d12565b9050805f81518110610fb157610fb1612bb4565b602002602001015192505050919050565b610fca6112eb565b6001600160a01b0381166110205760405162461bcd60e51b815260206004820181905260248201527f457863656564207461782077616c6c65742063616e6e6f74206265207a65726f6044820152606401610722565b600b80546001600160a01b0319166001600160a01b0392909216919091179055565b61104a6112eb565b42600d55565b60606004805461062690612b7c565b5f338161106c82866110e6565b9050838110156110cc5760405162461bcd60e51b815260206004820152602560248201527f45524332303a2064656372656173656420616c6c6f77616e63652062656c6f77604482015264207a65726f60d81b6064820152608401610722565b61090f8286868403611345565b5f336107988185856114da565b6001600160a01b039182165f90815260016020908152604080832093909416825291909152205490565b6111186112eb565b5f5b82811015610785575f84848381811061113557611135612bb4565b905060200201602081019061114a9190612926565b6001600160a01b03160361118f5760405162461bcd60e51b815260206004820152600c60248201526b5a45524f204144445245535360a01b6044820152606401610722565b8160075f8686858181106111a5576111a5612bb4565b90506020020160208101906111ba9190612926565b6001600160a01b0316815260208101919091526040015f20805460ff191691151591909117905560010161111a565b6111f16112eb565b6001600160a01b0381166112475760405162461bcd60e51b815260206004820152601d60248201527f4d696e696e6720616464726573732063616e6e6f74206265207a65726f0000006044820152606401610722565b600c80546001600160a01b0319166001600160a01b0392909216919091179055565b610cc333611f6e565b61127a6112eb565b6001600160a01b0381166112df5760405162461bcd60e51b815260206004820152602660248201527f4f776e61626c653a206e6577206f776e657220697320746865207a65726f206160448201526564647265737360d01b6064820152608401610722565b6112e881611c09565b50565b6005546001600160a01b03163314610cc35760405162461bcd60e51b815260206004820181905260248201527f4f776e61626c653a2063616c6c6572206973206e6f7420746865206f776e65726044820152606401610722565b6001600160a01b0383166113a75760405162461bcd60e51b8152602060048201526024808201527f45524332303a20617070726f76652066726f6d20746865207a65726f206164646044820152637265737360e01b6064820152608401610722565b6001600160a01b0382166114085760405162461bcd60e51b815260206004820152602260248201527f45524332303a20617070726f766520746f20746865207a65726f206164647265604482015261737360f01b6064820152608401610722565b6001600160a01b038381165f8181526001602090815260408083209487168084529482529182902085905590518481527f8c5be1e5ebec7d5bd14f71427d1e84f3dd0314c0f7b2291e5b200ac8c7c3b925910160405180910390a3505050565b5f61147384846110e6565b90505f19811461078557818110156114cd5760405162461bcd60e51b815260206004820152601d60248201527f45524332303a20696e73756666696369656e7420616c6c6f77616e63650000006044820152606401610722565b6107858484848403611345565b6001600160a01b03831615806114f757506001600160a01b038216155b1561150c57611507838383611a67565b505050565b5f7f00000000000000000000000000000000000000000000000000000000000000006001600160a01b0316846001600160a01b0316148061157e57507f00000000000000000000000000000000000000000000000000000000000000006001600160a01b0316836001600160a01b0316145b6001600160a01b0385165f908152600660205260408120549192509060ff16806115bf57506001600160a01b0384165f9081526006602052604090205460ff165b90505f6115ca6121d0565b50905080801561160b57507f00000000000000000000000000000000000000000000000000000000000000006001600160a01b0316856001600160a01b0316145b1561169a5780801561164e57507f00000000000000000000000000000000000000000000000000000000000000006001600160a01b0316856001600160a01b0316145b1561169a576001600160a01b038681165f908152600860205260409020541661169a576001600160a01b0386165f81815260086020526040902080546001600160a01b03191690911790555b604080516001600160a01b0380891682528716602082015290810185905281151560608201527f3a9f91f89caaeaf7ee11f4188d3a8ae43f27b235f0ef9dc77692bc38acfcb75f9060800160405180910390a15f6116f66124f7565b5050905080801561173857507f00000000000000000000000000000000000000000000000000000000000000006001600160a01b0316876001600160a01b0316145b156117dc576001600160a01b0386165f9081526007602052604090205460ff16156117735761176a8661dead87611a67565b50505050505050565b6001600160a01b038087165f81815260086020526040902054909116146117dc5760405162461bcd60e51b815260206004820152601860248201527f4e6f74206f726967696e616c204c502070726f766964657200000000000000006044820152606401610722565b604080516001600160a01b03808a1682528816602082015290810186905281151560608201527fef7962504f9db7e085d52feee6eee96dfe3da4dbd4f541bd496a897fba8dfd079060800160405180910390a15f84801561183b575083155b15611864576103e861184d89886126dd565b6118579088612c4f565b6118619190612c66565b90505b8015611921575f6103e8611879886023612c4f565b6118839190612c66565b9050808211156118ae57600b546118ae908a906001600160a01b03166118a98486612c98565b611a67565b6118cd8961dead6103e86118c38b6005612c4f565b6118a99190612c66565b6118df893060646118c38b6003612c4f565b6118ee89896118a9858b612c98565b60646118fb886001612c4f565b6119059190612c66565b600e5f8282546119159190612c85565b9091555061192c915050565b61192c888888611a67565b84611939576119396128b0565b61194288611f6e565b61194b87611f6e565b604051634b28246d60e01b8152851515600482015261c35060248201523090634b28246d906044015f604051808303815f87803b15801561198a575f5ffd5b505af192505050801561199b575060015b15610c49575050505050505050565b6001600160a01b038216611a005760405162461bcd60e51b815260206004820152601f60248201527f45524332303a206d696e7420746f20746865207a65726f2061646472657373006044820152606401610722565b8060025f828254611a119190612c85565b90915550506001600160a01b0382165f81815260208181526040808320805486019055518481527fddf252ad1be2c89b69c2b068fc378daa952ba7f163c4a11628f55a4df523b3ef910160405180910390a35050565b6001600160a01b038316611acb5760405162461bcd60e51b815260206004820152602560248201527f45524332303a207472616e736665722066726f6d20746865207a65726f206164604482015264647265737360d81b6064820152608401610722565b6001600160a01b038216611b2d5760405162461bcd60e51b815260206004820152602360248201527f45524332303a207472616e7366657220746f20746865207a65726f206164647260448201526265737360e81b6064820152608401610722565b6001600160a01b0383165f9081526020819052604090205481811015611ba45760405162461bcd60e51b815260206004820152602660248201527f45524332303a207472616e7366657220616d6f756e7420657863656564732062604482015265616c616e636560d01b6064820152608401610722565b6001600160a01b038481165f81815260208181526040808320878703905593871680835291849020805487019055925185815290927fddf252ad1be2c89b69c2b068fc378daa952ba7f163c4a11628f55a4df523b3ef910160405180910390a3610785565b600580546001600160a01b038381166001600160a01b0319831681179093556040519116919082907f8be0079c531659141344cd1fd0a4f28419497f9722a3daafe3b4186f6b6457e0905f90a35050565b805f03611c645750565b6040805160028082526060820183525f9260208301908036833701905050905030815f81518110611c9757611c97612bb4565b60200260200101906001600160a01b031690816001600160a01b0316815250507355d398326f99059ff775485246999027b319795581600181518110611cdf57611cdf612bb4565b60200260200101906001600160a01b031690816001600160a01b031681525050611d2a307f000000000000000000000000000000000000000000000000000000000000000084611345565b604051635c11d79560e01b81526001600160a01b037f00000000000000000000000000000000000000000000000000000000000000001690635c11d79590611d9e9085905f9086907f0000000000000000000000000000000000000000000000000000000000000000904290600401612dda565b5f604051808303815f87803b158015611db5575f5ffd5b505af1158015611dc7573d5f5f3e3d5ffd5b505050505050565b611dfa307f000000000000000000000000000000000000000000000000000000000000000084611345565b60405163095ea7b360e01b81526001600160a01b037f0000000000000000000000000000000000000000000000000000000000000000166004820152602481018290527355d398326f99059ff775485246999027b31979559063095ea7b3906044016020604051808303815f875af1158015611e78573d5f5f3e3d5ffd5b505050506040513d601f19601f82011682018060405250810190611e9c9190612cc3565b5060405162e8e33760e81b81523060048201527355d398326f99059ff775485246999027b3197955602482015260448101839052606481018290525f6084820181905260a482015261dead60c48201524260e48201527f00000000000000000000000000000000000000000000000000000000000000006001600160a01b03169063e8e3370090610104016060604051808303815f875af1158015611f43573d5f5f3e3d5ffd5b505050506040513d601f19601f82011682018060405250810190611f679190612e15565b5050505050565b803b80151580611f8857506001600160a01b03821661dead145b15611f91575050565b6001600160a01b0382165f90815260096020526040812054600a5490919015801590611feb5750836001600160a01b0316600a8381548110611fd557611fd5612bb4565b5f918252602090912001546001600160a01b0316145b6040516370a0823160e01b81526001600160a01b0386811660048301529192505f9161207e917f0000000000000000000000000000000000000000000000000000000000000000909116906370a0823190602401602060405180830381865afa15801561205a573d5f5f3e3d5ffd5b505050506040513d601f19601f8201168201806040525081019061036e9190612bc8565b905060115481106120ef57816120ea57600a80546001600160a01b0387165f818152600960205260408120839055600183018455929092527fc65a7bb8d6351c1cf70c95a316cc6a92839c986682d98bc35f958f4883f9d2a80180546001600160a01b03191690911790555b611f67565b8115611f6757600a80545f919061210890600190612c98565b8154811061211857612118612bb4565b5f91825260209091200154600a80546001600160a01b03909216925082918690811061214657612146612bb4565b5f91825260208083209190910180546001600160a01b0319166001600160a01b039485161790559183168152600990915260409020849055600a80548061218f5761218f612e40565b5f828152602080822083015f1990810180546001600160a01b03191690559092019092556001600160a01b0388168252600990526040812055505050505050565b5f5f5f5f7f00000000000000000000000000000000000000000000000000000000000000006001600160a01b0316630902f1ac6040518163ffffffff1660e01b8152600401606060405180830381865afa158015612230573d5f5f3e3d5ffd5b505050506040513d601f19601f820116820180604052508101906122549190612bfa565b506001600160701b031691506001600160701b031691505f7f00000000000000000000000000000000000000000000000000000000000000006001600160a01b0316630dfe16816040518163ffffffff1660e01b8152600401602060405180830381865afa1580156122c8573d5f5f3e3d5ffd5b505050506040513d601f19601f820116820180604052508101906122ec9190612e54565b90505f7f00000000000000000000000000000000000000000000000000000000000000006001600160a01b031663d21220a76040518163ffffffff1660e01b8152600401602060405180830381865afa15801561234b573d5f5f3e3d5ffd5b505050506040513d601f19601f8201168201806040525081019061236f9190612e54565b6040516370a0823160e01b81526001600160a01b037f0000000000000000000000000000000000000000000000000000000000000000811660048301529192505f918416906370a0823190602401602060405180830381865afa1580156123d8573d5f5f3e3d5ffd5b505050506040513d601f19601f820116820180604052508101906123fc9190612bc8565b6040516370a0823160e01b81526001600160a01b037f0000000000000000000000000000000000000000000000000000000000000000811660048301529192505f918416906370a0823190602401602060405180830381865afa158015612465573d5f5f3e3d5ffd5b505050506040513d601f19601f820116820180604052508101906124899190612bc8565b90505f80306001600160a01b038716036124c557868311156124c0576124af8784612c98565b9050670de0b6b3a764000081101591505b6124e8565b878411156124e8576124d78885612c98565b9050670de0b6b3a764000081101591505b90999098509650505050505050565b5f5f5f5f7f00000000000000000000000000000000000000000000000000000000000000006001600160a01b0316630dfe16816040518163ffffffff1660e01b8152600401602060405180830381865afa158015612557573d5f5f3e3d5ffd5b505050506040513d601f19601f8201168201806040525081019061257b9190612e54565b90505f7f00000000000000000000000000000000000000000000000000000000000000006001600160a01b0316630902f1ac6040518163ffffffff1660e01b8152600401606060405180830381865afa1580156125da573d5f5f3e3d5ffd5b505050506040513d601f19601f820116820180604052508101906125fe9190612bfa565b50506040516370a0823160e01b81526001600160a01b037f0000000000000000000000000000000000000000000000000000000000000000811660048301526001600160701b039290921692505f918416906370a0823190602401602060405180830381865afa158015612674573d5f5f3e3d5ffd5b505050506040513d601f19601f820116820180604052508101906126989190612bc8565b90506001600160a01b03831630146126d557808211156126cf576126bc8183612c98565b93506509184e72a00084101595506126d5565b80821494505b505050909192565b5f5f600d54426126ed9190612c98565b9050600d545f03612777576001600160a01b0384165f9081526006602052604090205460ff166127775760405162461bcd60e51b815260206004820152602f60248201527f4f70656e696e67206e6f74207365742c206f6e6c79206578656d70742061646460448201526e3932b9b9b2b99031b0b710313abc9760891b6064820152608401610722565b61012c811080156127a057506001600160a01b0384165f9081526006602052604090205460ff16155b15612893575f7f00000000000000000000000000000000000000000000000000000000000000006001600160a01b03166318160ddd6040518163ffffffff1660e01b8152600401602060405180830381865afa158015612802573d5f5f3e3d5ffd5b505050506040513d601f19601f820116820180604052508101906128269190612bc8565b1115612893575f61283684610e7f565b9050681b1ae4d6e2ef5000008111156128915760405162461bcd60e51b815260206004820181905260248201527f50757263686173652065786365656473203530302055534454206c696d69742e6044820152606401610722565b505b61070881106128a657602391505061079e565b5060649392505050565b601254600e5410156128be57565b306001600160a01b0316637b2f3de46040518163ffffffff1660e01b81526004015f604051808303815f87803b1580156128f6575f5ffd5b505af1925050508015612907575060015b15610cc3575f600e55565b6001600160a01b03811681146112e8575f5ffd5b5f60208284031215612936575f5ffd5b813561294181612912565b9392505050565b602081525f82518060208401528060208501604085015e5f604082850101526040601f19601f83011684010191505092915050565b80151581146112e8575f5ffd5b5f5f5f6040848603121561299c575f5ffd5b833567ffffffffffffffff8111156129b2575f5ffd5b8401601f810186136129c2575f5ffd5b803567ffffffffffffffff8111156129d8575f5ffd5b8660208260051b84010111156129ec575f5ffd5b602091820194509250840135612a018161297d565b809150509250925092565b5f5f60408385031215612a1d575f5ffd5b8235612a2881612912565b946020939093013593505050565b5f5f60408385031215612a47575f5ffd5b50508035926020909101359150565b5f60208284031215612a66575f5ffd5b5035919050565b5f5f5f60608486031215612a7f575f5ffd5b8335612a8a81612912565b92506020840135612a9a81612912565b929592945050506040919091013590565b5f5f5f60608486031215612abd575f5ffd5b505081359360208301359350604090920135919050565b5f5f60408385031215612ae5575f5ffd5b8235612a288161297d565b5f8151808452602084019350602083015f5b82811015612b295781516001600160a01b0316865260209586019590910190600101612b02565b5093949350505050565b602081525f6129416020830184612af0565b5f5f60408385031215612b56575f5ffd5b8235612b6181612912565b91506020830135612b7181612912565b809150509250929050565b600181811c90821680612b9057607f821691505b602082108103612bae57634e487b7160e01b5f52602260045260245ffd5b50919050565b634e487b7160e01b5f52603260045260245ffd5b5f60208284031215612bd8575f5ffd5b5051919050565b80516001600160701b0381168114612bf5575f5ffd5b919050565b5f5f5f60608486031215612c0c575f5ffd5b612c1584612bdf565b9250612c2360208501612bdf565b9150604084015163ffffffff81168114612a01575f5ffd5b634e487b7160e01b5f52601160045260245ffd5b808202811582820484141761079e5761079e612c3b565b5f82612c8057634e487b7160e01b5f52601260045260245ffd5b500490565b8082018082111561079e5761079e612c3b565b8181038181111561079e5761079e612c3b565b5f60018201612cbc57612cbc612c3b565b5060010190565b5f60208284031215612cd3575f5ffd5b81516129418161297d565b634e487b7160e01b5f52604160045260245ffd5b828152604060208201525f612d0a6040830184612af0565b949350505050565b5f60208284031215612d22575f5ffd5b815167ffffffffffffffff811115612d38575f5ffd5b8201601f81018413612d48575f5ffd5b805167ffffffffffffffff811115612d6257612d62612cde565b8060051b604051601f19603f830116810181811067ffffffffffffffff82111715612d8f57612d8f612cde565b604052918252602081840181019290810187841115612dac575f5ffd5b6020850194505b83851015612dcf57845180825260209586019590935001612db3565b509695505050505050565b85815284602082015260a060408201525f612df860a0830186612af0565b6001600160a01b0394909416606083015250608001529392505050565b5f5f5f60608486031215612e27575f5ffd5b5050815160208301516040909301519094929350919050565b634e487b7160e01b5f52603160045260245ffd5b5f60208284031215612e64575f5ffd5b81516129418161291256fea26469706673582212206713f84dc9dd2178bbca16f7ec1e6fa8760febfec35f4a501f09d25a8eb20abd64736f6c634300081c00336080604052348015600e575f5ffd5b5060405163095ea7b360e01b81523360048201525f1960248201527355d398326f99059ff775485246999027b31979559063095ea7b3906044016020604051808303815f875af11580156063573d5f5f3e3d5ffd5b505050506040513d601f19601f8201168201806040525081019060859190608a565b5060ae565b5f602082840312156099575f5ffd5b8151801515811460a7575f5ffd5b9392505050565b6096806100ba5f395ff3fe6080604052348015600e575f5ffd5b50600436106026575f3560e01c8063c54e44eb14602a575b5f5ffd5b60447355d398326f99059ff775485246999027b319795581565b6040516001600160a01b03909116815260200160405180910390f3fea2646970667358221220f2267c15ea282b9f84acafa357f6cfb392432eb3b53fa6010c9b21c99675966164736f6c634300081c0033","linkReferences":{}},"methodIdentifiers":{"DEAD()":"03fd2a45","MAX_BUY_USDT()":"6df42762","MIN_ADD_LIQUIDITY()":"cedddafe","MIN_LIQUIDITY()":"21b77d63","MIN_PROCESS_AWARD()":"0508c473","USDT()":"c54e44eb","_safeSwapAndAdd()":"7b2f3de4","allowance(address,address)":"dd62ed3e","approve(address,uint256)":"095ea7b3","atTheOpeningOrder()":"2e495fdd","balanceOf(address)":"70a08231","decimals()":"313ce567","decreaseAllowance(address,uint256)":"a457c2d7","exceedTaxWallet()":"63a184f5","getAmountOutUSDT(uint256)":"83834550","getHolders()":"5fe8e7cc","getLpUsdtValue(uint256)":"156444dd","holders(uint256)":"2a11ced0","increaseAllowance(address,uint256)":"39509351","isExemptFromTax(address)":"060e7844","lpOriginalOwner(address)":"770cd1b8","mining()":"662fac39","mint(address,uint256)":"40c10f19","name()":"06fdde03","owner()":"8da5cb5b","pancakePair()":"b8c9d25c","pancakeRouter()":"c21ebd07","process(bool,uint256)":"4b28246d","receiveHelper()":"11af88a4","renounceOwnership()":"715018a6","setAtTheOpeningOrder()":"8bae7634","setExceedTaxWallet(address)":"86088e31","setLimitConfig(uint256,uint256,uint256)":"423dbf5b","setMinLimit(uint256,uint256)":"1135d01a","setMining(address)":"edb46daf","setSubscribeList(address[],bool)":"ec375408","setTaxExemption(address[],bool)":"08aaa130","subscribelist(address)":"40f7bbc7","symbol()":"95d89b41","totalSupply()":"18160ddd","transfer(address,uint256)":"a9059cbb","transferFrom(address,address,uint256)":"23b872dd","transferOwnership(address)":"f2fde38b","txFee()":"cf820461","updateMyStatus()":"ef10d56c"},"id":46}