{"abi":[{"type":"constructor","inputs":[{"name":"_name","type":"string","internalType":"string"},{"name":"_symbol","type":"string","internalType":"string"},{"name":"_initialRecipient","type":"address","internalType":"address"},{"name":"_exceedTaxWallet","type":"address","internalType":"address"}],"stateMutability":"nonpayable"},{"type":"function","name":"DEAD","inputs":[],"outputs":[{"name":"","type":"address","internalType":"address"}],"stateMutability":"view"},{"type":"function","name":"MAX_BUY_USDT","inputs":[],"outputs":[{"name":"","type":"uint256","internalType":"uint256"}],"stateMutability":"view"},{"type":"function","name":"MIN_ADD_LIQUIDITY","inputs":[],"outputs":[{"name":"","type":"uint256","internalType":"uint256"}],"stateMutability":"view"},{"type":"function","name":"MIN_LIQUIDITY","inputs":[],"outputs":[{"name":"","type":"uint256","internalType":"uint256"}],"stateMutability":"view"},{"type":"function","name":"MIN_PROCESS_AWARD","inputs":[],"outputs":[{"name":"","type":"uint256","internalType":"uint256"}],"stateMutability":"view"},{"type":"function","name":"USDT","inputs":[],"outputs":[{"name":"","type":"address","internalType":"address"}],"stateMutability":"view"},{"type":"function","name":"_safeSwapAndAdd","inputs":[],"outputs":[],"stateMutability":"nonpayable"},{"type":"function","name":"allowance","inputs":[{"name":"owner","type":"address","internalType":"address"},{"name":"spender","type":"address","internalType":"address"}],"outputs":[{"name":"","type":"uint256","internalType":"uint256"}],"stateMutability":"view"},{"type":"function","name":"approve","inputs":[{"name":"spender","type":"address","internalType":"address"},{"name":"amount","type":"uint256","internalType":"uint256"}],"outputs":[{"name":"","type":"bool","internalType":"bool"}],"stateMutability":"nonpayable"},{"type":"function","name":"atTheOpeningOrder","inputs":[],"outputs":[{"name":"","type":"uint256","internalType":"uint256"}],"stateMutability":"view"},{"type":"function","name":"balanceOf","inputs":[{"name":"account","type":"address","internalType":"address"}],"outputs":[{"name":"","type":"uint256","internalType":"uint256"}],"stateMutability":"view"},{"type":"function","name":"decimals","inputs":[],"outputs":[{"name":"","type":"uint8","internalType":"uint8"}],"stateMutability":"view"},{"type":"function","name":"decreaseAllowance","inputs":[{"name":"spender","type":"address","internalType":"address"},{"name":"subtractedValue","type":"uint256","internalType":"uint256"}],"outputs":[{"name":"","type":"bool","internalType":"bool"}],"stateMutability":"nonpayable"},{"type":"function","name":"exceedTaxWallet","inputs":[],"outputs":[{"name":"","type":"address","internalType":"address"}],"stateMutability":"view"},{"type":"function","name":"getAmountOutUSDT","inputs":[{"name":"tokenAmount","type":"uint256","internalType":"uint256"}],"outputs":[{"name":"","type":"uint256","internalType":"uint256"}],"stateMutability":"view"},{"type":"function","name":"getHolders","inputs":[],"outputs":[{"name":"","type":"address[]","internalType":"address[]"}],"stateMutability":"view"},{"type":"function","name":"getLpUsdtValue","inputs":[{"name":"lpAmount","type":"uint256","internalType":"uint256"}],"outputs":[{"name":"","type":"uint256","internalType":"uint256"}],"stateMutability":"view"},{"type":"function","name":"holders","inputs":[{"name":"","type":"uint256","internalType":"uint256"}],"outputs":[{"name":"","type":"address","internalType":"address"}],"stateMutability":"view"},{"type":"function","name":"increaseAllowance","inputs":[{"name":"spender","type":"address","internalType":"address"},{"name":"addedValue","type":"uint256","internalType":"uint256"}],"outputs":[{"name":"","type":"bool","internalType":"bool"}],"stateMutability":"nonpayable"},{"type":"function","name":"isExemptFromTax","inputs":[{"name":"","type":"address","internalType":"address"}],"outputs":[{"name":"","type":"bool","internalType":"bool"}],"stateMutability":"view"},{"type":"function","name":"lpOriginalOwner","inputs":[{"name":"","type":"address","internalType":"address"}],"outputs":[{"name":"","type":"address","internalType":"address"}],"stateMutability":"view"},{"type":"function","name":"mining","inputs":[],"outputs":[{"name":"","type":"address","internalType":"address"}],"stateMutability":"view"},{"type":"function","name":"mint","inputs":[{"name":"to","type":"address","internalType":"address"},{"name":"amount","type":"uint256","internalType":"uint256"}],"outputs":[],"stateMutability":"nonpayable"},{"type":"function","name":"name","inputs":[],"outputs":[{"name":"","type":"string","internalType":"string"}],"stateMutability":"view"},{"type":"function","name":"owner","inputs":[],"outputs":[{"name":"","type":"address","internalType":"address"}],"stateMutability":"view"},{"type":"function","name":"pancakePair","inputs":[],"outputs":[{"name":"","type":"address","internalType":"address"}],"stateMutability":"view"},{"type":"function","name":"pancakeRouter","inputs":[],"outputs":[{"name":"","type":"address","internalType":"contract IUniswapV2Router02"}],"stateMutability":"view"},{"type":"function","name":"process","inputs":[{"name":"isExchange","type":"bool","internalType":"bool"},{"name":"gas","type":"uint256","internalType":"uint256"}],"outputs":[],"stateMutability":"nonpayable"},{"type":"function","name":"receiveHelper","inputs":[],"outputs":[{"name":"","type":"address","internalType":"address"}],"stateMutability":"view"},{"type":"function","name":"renounceOwnership","inputs":[],"outputs":[],"stateMutability":"nonpayable"},{"type":"function","name":"setAtTheOpeningOrder","inputs":[],"outputs":[],"stateMutability":"nonpayable"},{"type":"function","name":"setExceedTaxWallet","inputs":[{"name":"_exceedTaxWallet","type":"address","internalType":"address"}],"outputs":[],"stateMutability":"nonpayable"},{"type":"function","name":"setLimitConfig","inputs":[{"name":"_minLiquidity","type":"uint256","internalType":"uint256"},{"name":"_minProcessAward","type":"uint256","internalType":"uint256"},{"name":"_minAddLiquidity","type":"uint256","internalType":"uint256"},{"name":"_maxBuyUsdt","type":"uint256","internalType":"uint256"}],"outputs":[],"stateMutability":"nonpayable"},{"type":"function","name":"setMining","inputs":[{"name":"_mining","type":"address","internalType":"address"}],"outputs":[],"stateMutability":"nonpayable"},{"type":"function","name":"setSubscribeList","inputs":[{"name":"_addrs","type":"address[]","internalType":"address[]"},{"name":"_sub","type":"bool","internalType":"bool"}],"outputs":[],"stateMutability":"nonpayable"},{"type":"function","name":"setTaxExemption","inputs":[{"name":"_addrs","type":"address[]","internalType":"address[]"},{"name":"_exempt","type":"bool","internalType":"bool"}],"outputs":[],"stateMutability":"nonpayable"},{"type":"function","name":"subscribelist","inputs":[{"name":"","type":"address","internalType":"address"}],"outputs":[{"name":"","type":"bool","internalType":"bool"}],"stateMutability":"view"},{"type":"function","name":"symbol","inputs":[],"outputs":[{"name":"","type":"string","internalType":"string"}],"stateMutability":"view"},{"type":"function","name":"totalSupply","inputs":[],"outputs":[{"name":"","type":"uint256","internalType":"uint256"}],"stateMutability":"view"},{"type":"function","name":"transfer","inputs":[{"name":"to","type":"address","internalType":"address"},{"name":"amount","type":"uint256","internalType":"uint256"}],"outputs":[{"name":"","type":"bool","internalType":"bool"}],"stateMutability":"nonpayable"},{"type":"function","name":"transferFrom","inputs":[{"name":"from","type":"address","internalType":"address"},{"name":"to","type":"address","internalType":"address"},{"name":"amount","type":"uint256","internalType":"uint256"}],"outputs":[{"name":"","type":"bool","internalType":"bool"}],"stateMutability":"nonpayable"},{"type":"function","name":"transferOwnership","inputs":[{"name":"newOwner","type":"address","internalType":"address"}],"outputs":[],"stateMutability":"nonpayable"},{"type":"function","name":"txFee","inputs":[],"outputs":[{"name":"","type":"uint256","internalType":"uint256"}],"stateMutability":"view"},{"type":"function","name":"updateMyStatus","inputs":[],"outputs":[],"stateMutability":"nonpayable"},{"type":"event","name":"Approval","inputs":[{"name":"owner","type":"address","indexed":true,"internalType":"address"},{"name":"spender","type":"address","indexed":true,"internalType":"address"},{"name":"value","type":"uint256","indexed":false,"internalType":"uint256"}],"anonymous":false},{"type":"event","name":"DebugAddLiquidity","inputs":[{"name":"from","type":"address","indexed":false,"internalType":"address"},{"name":"to","type":"address","indexed":false,"internalType":"address"},{"name":"amount","type":"uint256","indexed":false,"internalType":"uint256"},{"name":"isAdd","type":"bool","indexed":false,"internalType":"bool"}],"anonymous":false},{"type":"event","name":"DebugDelLiquidity","inputs":[{"name":"from","type":"address","indexed":false,"internalType":"address"},{"name":"to","type":"address","indexed":false,"internalType":"address"},{"name":"amount","type":"uint256","indexed":false,"internalType":"uint256"},{"name":"isDel","type":"bool","indexed":false,"internalType":"bool"}],"anonymous":false},{"type":"event","name":"OwnershipTransferred","inputs":[{"name":"previousOwner","type":"address","indexed":true,"internalType":"address"},{"name":"newOwner","type":"address","indexed":true,"internalType":"address"}],"anonymous":false},{"type":"event","name":"Transfer","inputs":[{"name":"from","type":"address","indexed":true,"internalType":"address"},{"name":"to","type":"address","indexed":true,"internalType":"address"},{"name":"value","type":"uint256","indexed":false,"internalType":"uint256"}],"anonymous":false}],"bytecode":{"object":"0x60e0604052681b1ae4d6e2ef5000006010556846791fc84e07d000006011556802b5e3af16b188000060125568056bc75e2d63100000601355348015610043575f5ffd5b5060405161375a38038061375a833981016040819052610062916104c8565b8383600361007083826105d0565b50600461007d82826105d0565b50505061009661009161028060201b60201c565b610284565b6100ab826a52b7d2dcc80cd2e40000006102d5565b7310ed43c718714eb63d5aa57b78b54704e256024e60808190526040805163c45a015560e01b8152905163c45a0155916004808201926020929091908290030181865afa1580156100fe573d5f5f3e3d5ffd5b505050506040513d601f19601f82011682018060405250810190610122919061068a565b6040516364e329cb60e11b81523060048201527355d398326f99059ff775485246999027b319795560248201526001600160a01b03919091169063c9c65396906044016020604051808303815f875af1158015610181573d5f5f3e3d5ffd5b505050506040513d601f19601f820116820180604052508101906101a5919061068a565b6001600160a01b0390811660a052600b80546001600160a01b0319169183169190911790556101d2610392565b6001600160a01b0390811660c05282165f908152600660205260408082208054600160ff199182168117909255308085528385208054831684179055338552929093208054909316179091557355d398326f99059ff775485246999027b3197955106102775760405162461bcd60e51b815260206004820152600f60248201526e496e76616c6964206164647265737360881b60448201526064015b60405180910390fd5b505050506106cf565b3390565b600580546001600160a01b038381166001600160a01b0319831681179093556040519116919082907f8be0079c531659141344cd1fd0a4f28419497f9722a3daafe3b4186f6b6457e0905f90a35050565b6001600160a01b03821661032b5760405162461bcd60e51b815260206004820152601f60248201527f45524332303a206d696e7420746f20746865207a65726f206164647265737300604482015260640161026e565b8060025f82825461033c91906106aa565b90915550506001600160a01b0382165f81815260208181526040808320805486019055518481527fddf252ad1be2c89b69c2b068fc378daa952ba7f163c4a11628f55a4df523b3ef910160405180910390a35050565b6040516001600160601b03193060601b1660208201525f9081906034016040516020818303038152906040528051906020012090505f604051806020016103d890610403565b6020820181038252601f19601f820116604052509050818151602083015ff59250505090565b505050565b6101508061360a83390190565b634e487b7160e01b5f52604160045260245ffd5b5f82601f830112610433575f5ffd5b81516001600160401b0381111561044c5761044c610410565b604051601f8201601f19908116603f011681016001600160401b038111828210171561047a5761047a610410565b604052818152838201602001851015610491575f5ffd5b8160208501602083015e5f918101602001919091529392505050565b80516001600160a01b03811681146104c3575f5ffd5b919050565b5f5f5f5f608085870312156104db575f5ffd5b84516001600160401b038111156104f0575f5ffd5b6104fc87828801610424565b602087015190955090506001600160401b03811115610519575f5ffd5b61052587828801610424565b935050610534604086016104ad565b9150610542606086016104ad565b905092959194509250565b600181811c9082168061056157607f821691505b60208210810361057f57634e487b7160e01b5f52602260045260245ffd5b50919050565b601f8211156103fe57805f5260205f20601f840160051c810160208510156105aa5750805b601f840160051c820191505b818110156105c9575f81556001016105b6565b5050505050565b81516001600160401b038111156105e9576105e9610410565b6105fd816105f7845461054d565b84610585565b6020601f82116001811461062f575f83156106185750848201515b5f19600385901b1c1916600184901b1784556105c9565b5f84815260208120601f198516915b8281101561065e578785015182556020948501946001909201910161063e565b508482101561067b57868401515f19600387901b60f8161c191681555b50505050600190811b01905550565b5f6020828403121561069a575f5ffd5b6106a3826104ad565b9392505050565b808201808211156106c957634e487b7160e01b5f52601160045260245ffd5b92915050565b60805160a05160c051612e4d6107bd5f395f818161032001528181610ce401528181610d880152611d3f01525f81816105280152818161078301528181610815015281816109cb01528181610af2015281816114dd01528181611518015281816115a5015281816115e8015281816116bd01528181611fde015281816121a101528181612239015281816122bc01528181612351015281816123de015281816124c80152818161254b015281816125e2015261277101525f818161054f01528181610ed701528181611cd001528181611d0c01528181611da001528181611ddc0152611ebf0152612e4d5ff3fe608060405234801561000f575f5ffd5b506004361061026b575f3560e01c806370a082311161014b578063b3416d78116100bf578063cf82046111610084578063cf82046114610595578063dd62ed3e1461059e578063ec375408146105b1578063edb46daf146105c4578063ef10d56c146105d7578063f2fde38b146105df575f5ffd5b8063b3416d7814610510578063b8c9d25c14610523578063c21ebd071461054a578063c54e44eb14610571578063cedddafe1461058c575f5ffd5b806386088e311161011057806386088e31146104b65780638bae7634146104c95780638da5cb5b146104d157806395d89b41146104e2578063a457c2d7146104ea578063a9059cbb146104fd575f5ffd5b806370a0823114610443578063715018a61461046b578063770cd1b8146104735780637b2f3de41461049b57806383834550146104a3575f5ffd5b80632a11ced0116101e257806340f7bbc7116101a757806340f7bbc7146103ca5780634b28246d146103ec5780635fe8e7cc146103ff57806363a184f514610414578063662fac39146104275780636df427621461043a575f5ffd5b80632a11ced0146103795780632e495fdd1461038c578063313ce5671461039557806339509351146103a457806340c10f19146103b7575f5ffd5b8063095ea7b311610233578063095ea7b31461030857806311af88a41461031b578063156444dd1461034257806318160ddd1461035557806321b77d631461035d57806323b872dd14610366575f5ffd5b806303fd2a451461026f5780630508c47314610295578063060e7844146102ac57806306fdde03146102de57806308aaa130146102f3575b5f5ffd5b61027861dead81565b6040516001600160a01b0390911681526020015b60405180910390f35b61029e60115481565b60405190815260200161028c565b6102ce6102ba3660046128e8565b60066020525f908152604090205460ff1681565b604051901515815260200161028c565b6102e66105f2565b60405161028c919061290a565b61030661030136600461294c565b610682565b005b6102ce6103163660046129ce565b610766565b6102787f000000000000000000000000000000000000000000000000000000000000000081565b61029e6103503660046129f8565b61077f565b60025461029e565b61029e60125481565b6102ce610374366004612a0f565b6108bf565b6102786103873660046129f8565b6108e2565b61029e600d5481565b6040516012815260200161028c565b6102ce6103b23660046129ce565b61090a565b6103066103c53660046129ce565b61092b565b6102ce6103d83660046128e8565b60076020525f908152604090205460ff1681565b6103066103fa366004612a4d565b610983565b610407610c05565b60405161028c9190612aac565b600b54610278906001600160a01b031681565b600c54610278906001600160a01b031681565b61029e60105481565b61029e6104513660046128e8565b6001600160a01b03165f9081526020819052604090205490565b610306610c64565b6102786104813660046128e8565b60086020525f90815260409020546001600160a01b031681565b610306610c77565b61029e6104b13660046129f8565b610e31565b6103066104c43660046128e8565b610f74565b610306610ff4565b6005546001600160a01b0316610278565b6102e6611002565b6102ce6104f83660046129ce565b611011565b6102ce61050b3660046129ce565b61108b565b61030661051e366004612abe565b611098565b6102787f000000000000000000000000000000000000000000000000000000000000000081565b6102787f000000000000000000000000000000000000000000000000000000000000000081565b6102787355d398326f99059ff775485246999027b319795581565b61029e60135481565b61029e600e5481565b61029e6105ac366004612aed565b6110b4565b6103066105bf36600461294c565b6110de565b6103066105d23660046128e8565b6111b7565b610306611237565b6103066105ed3660046128e8565b611240565b60606003805461060190612b24565b80601f016020809104026020016040519081016040528092919081815260200182805461062d90612b24565b80156106785780601f1061064f57610100808354040283529160200191610678565b820191905f5260205f20905b81548152906001019060200180831161065b57829003601f168201915b5050505050905090565b61068a6112b9565b5f5b82811015610760575f8484838181106106a7576106a7612b5c565b90506020020160208101906106bc91906128e8565b6001600160a01b0316036107065760405162461bcd60e51b815260206004820152600c60248201526b5a45524f204144445245535360a01b60448201526064015b60405180910390fd5b8160065f86868581811061071c5761071c612b5c565b905060200201602081019061073191906128e8565b6001600160a01b0316815260208101919091526040015f20805460ff191691151591909117905560010161068c565b50505050565b5f33610773818585611313565b60019150505b92915050565b5f5f7f00000000000000000000000000000000000000000000000000000000000000006001600160a01b03166318160ddd6040518163ffffffff1660e01b8152600401602060405180830381865afa1580156107dd573d5f5f3e3d5ffd5b505050506040513d601f19601f820116820180604052508101906108019190612b70565b9050805f0361081257505f92915050565b5f7f00000000000000000000000000000000000000000000000000000000000000006001600160a01b0316630902f1ac6040518163ffffffff1660e01b8152600401606060405180830381865afa15801561086f573d5f5f3e3d5ffd5b505050506040513d601f19601f820116820180604052508101906108939190612ba2565b50506001600160701b031690505f826108ac8387612bf7565b6108b69190612c0e565b95945050505050565b5f336108cc858285611436565b6108d78585856114a8565b506001949350505050565b600a81815481106108f1575f80fd5b5f918252602090912001546001600160a01b0316905081565b5f3361077381858561091c83836110b4565b6109269190612c2d565b611313565b600c546001600160a01b031633146109755760405162461bcd60e51b815260206004820152600d60248201526c1393d508141154935255151151609a1b60448201526064016106fd565b61097f8282611975565b5050565b3330146109be5760405162461bcd60e51b81526020600482015260096024820152682327a92124a22222a760b91b60448201526064016106fd565b81156109c8575050565b5f7f00000000000000000000000000000000000000000000000000000000000000006001600160a01b03166318160ddd6040518163ffffffff1660e01b8152600401602060405180830381865afa158015610a25573d5f5f3e3d5ffd5b505050506040513d601f19601f82011682018060405250810190610a499190612b70565b600e54305f9081526020819052604081205492935091610a699190612c40565b9050811580610a79575060115481105b15610a845750505050565b600a545f80805a90505b8683108015610a9c57508382105b15610bfb5783600f5410610aaf575f600f555b5f600a600f5481548110610ac557610ac5612b5c565b5f9182526020822001546040516370a0823160e01b81526001600160a01b039182166004820181905293507f0000000000000000000000000000000000000000000000000000000000000000909116906370a0823190602401602060405180830381865afa158015610b39573d5f5f3e3d5ffd5b505050506040513d601f19601f82011682018060405250810190610b5d9190612b70565b90508015610bb8575f88610b71838a612bf7565b610b7b9190612c0e565b90505f81118015610ba65750600e54305f908152602081905260409020548291610ba491612c40565b115b15610bb657610bb6308483611a32565b505b5a610bc39084612c40565b610bcd9086612c2d565b94505a600f80549194505f610be183612c53565b91905055508380610bf190612c53565b9450505050610a8e565b5050505050505050565b6060600a80548060200260200160405190810160405280929190818152602001828054801561067857602002820191905f5260205f20905b81546001600160a01b03168152600190910190602001808311610c3d575050505050905090565b610c6c6112b9565b610c755f611bd4565b565b333014610cb25760405162461bcd60e51b81526020600482015260096024820152682327a92124a22222a760b91b60448201526064016106fd565b5f6002600e54610cc29190612c0e565b9050610ccd81611c25565b6040516370a0823160e01b81526001600160a01b037f00000000000000000000000000000000000000000000000000000000000000001660048201525f907355d398326f99059ff775485246999027b3197955906370a0823190602401602060405180830381865afa158015610d45573d5f5f3e3d5ffd5b505050506040513d601f19601f82011682018060405250810190610d699190612b70565b9050801561097f576040516323b872dd60e01b81526001600160a01b037f0000000000000000000000000000000000000000000000000000000000000000166004820152306024820152604481018290527355d398326f99059ff775485246999027b3197955906323b872dd906064016020604051808303815f875af1158015610df5573d5f5f3e3d5ffd5b505050506040513d601f19601f82011682018060405250810190610e199190612c6b565b5061097f82600e54610e2b9190612c40565b82611d9a565b6040805160028082526060820183525f92839291906020830190803683370190505090507355d398326f99059ff775485246999027b3197955815f81518110610e7c57610e7c612b5c565b60200260200101906001600160a01b031690816001600160a01b0316815250503081600181518110610eb057610eb0612b5c565b6001600160a01b0392831660209182029290920101526040516307c0329d60e21b81525f917f00000000000000000000000000000000000000000000000000000000000000001690631f00ca7490610f0e9087908690600401612c9a565b5f60405180830381865afa158015610f28573d5f5f3e3d5ffd5b505050506040513d5f823e601f3d908101601f19168201604052610f4f9190810190612cba565b9050805f81518110610f6357610f63612b5c565b602002602001015192505050919050565b610f7c6112b9565b6001600160a01b038116610fd25760405162461bcd60e51b815260206004820181905260248201527f457863656564207461782077616c6c65742063616e6e6f74206265207a65726f60448201526064016106fd565b600b80546001600160a01b0319166001600160a01b0392909216919091179055565b610ffc6112b9565b42600d55565b60606004805461060190612b24565b5f338161101e82866110b4565b90508381101561107e5760405162461bcd60e51b815260206004820152602560248201527f45524332303a2064656372656173656420616c6c6f77616e63652062656c6f77604482015264207a65726f60d81b60648201526084016106fd565b6108d78286868403611313565b5f336107738185856114a8565b6110a06112b9565b601293909355601191909155601355601055565b6001600160a01b039182165f90815260016020908152604080832093909416825291909152205490565b6110e66112b9565b5f5b82811015610760575f84848381811061110357611103612b5c565b905060200201602081019061111891906128e8565b6001600160a01b03160361115d5760405162461bcd60e51b815260206004820152600c60248201526b5a45524f204144445245535360a01b60448201526064016106fd565b8160075f86868581811061117357611173612b5c565b905060200201602081019061118891906128e8565b6001600160a01b0316815260208101919091526040015f20805460ff19169115159190911790556001016110e8565b6111bf6112b9565b6001600160a01b0381166112155760405162461bcd60e51b815260206004820152601d60248201527f4d696e696e6720616464726573732063616e6e6f74206265207a65726f00000060448201526064016106fd565b600c80546001600160a01b0319166001600160a01b0392909216919091179055565b610c7533611f39565b6112486112b9565b6001600160a01b0381166112ad5760405162461bcd60e51b815260206004820152602660248201527f4f776e61626c653a206e6577206f776e657220697320746865207a65726f206160448201526564647265737360d01b60648201526084016106fd565b6112b681611bd4565b50565b6005546001600160a01b03163314610c755760405162461bcd60e51b815260206004820181905260248201527f4f776e61626c653a2063616c6c6572206973206e6f7420746865206f776e657260448201526064016106fd565b6001600160a01b0383166113755760405162461bcd60e51b8152602060048201526024808201527f45524332303a20617070726f76652066726f6d20746865207a65726f206164646044820152637265737360e01b60648201526084016106fd565b6001600160a01b0382166113d65760405162461bcd60e51b815260206004820152602260248201527f45524332303a20617070726f766520746f20746865207a65726f206164647265604482015261737360f01b60648201526084016106fd565b6001600160a01b038381165f8181526001602090815260408083209487168084529482529182902085905590518481527f8c5be1e5ebec7d5bd14f71427d1e84f3dd0314c0f7b2291e5b200ac8c7c3b925910160405180910390a3505050565b5f61144184846110b4565b90505f198114610760578181101561149b5760405162461bcd60e51b815260206004820152601d60248201527f45524332303a20696e73756666696369656e7420616c6c6f77616e636500000060448201526064016106fd565b6107608484848403611313565b6001600160a01b03831615806114c557506001600160a01b038216155b156114da576114d5838383611a32565b505050565b5f7f00000000000000000000000000000000000000000000000000000000000000006001600160a01b0316846001600160a01b0316148061154c57507f00000000000000000000000000000000000000000000000000000000000000006001600160a01b0316836001600160a01b0316145b6001600160a01b0385165f908152600660205260408120549192509060ff168061158d57506001600160a01b0384165f9081526006602052604090205460ff165b90505f61159861219b565b5090508080156115d957507f00000000000000000000000000000000000000000000000000000000000000006001600160a01b0316856001600160a01b0316145b156116685780801561161c57507f00000000000000000000000000000000000000000000000000000000000000006001600160a01b0316856001600160a01b0316145b15611668576001600160a01b038681165f9081526008602052604090205416611668576001600160a01b0386165f81815260086020526040902080546001600160a01b03191690911790555b604080516001600160a01b0380891682528716602082015290810185905281151560608201527f3a9f91f89caaeaf7ee11f4188d3a8ae43f27b235f0ef9dc77692bc38acfcb75f9060800160405180910390a17f00000000000000000000000000000000000000000000000000000000000000006001600160a01b0316866001600160a01b0316036117fb575f6116fd6124c2565b5050905080156117a6576001600160a01b0386165f9081526007602052604090205460ff161561173d576117348661dead87611a32565b50505050505050565b6001600160a01b038087165f81815260086020526040902054909116146117a65760405162461bcd60e51b815260206004820152601860248201527f4e6f74206f726967696e616c204c502070726f7669646572000000000000000060448201526064016106fd565b604080516001600160a01b03808a1682528816602082015290810186905281151560608201527fef7962504f9db7e085d52feee6eee96dfe3da4dbd4f541bd496a897fba8dfd079060800160405180910390a1505b5f838015611807575082155b15611830576103e861181988876126a6565b6118239087612bf7565b61182d9190612c0e565b90505b80156118ed575f6103e8611845876023612bf7565b61184f9190612c0e565b90508082111561187a57600b5461187a9089906001600160a01b03166118758486612c40565b611a32565b6118998861dead6103e861188f8a6005612bf7565b6118759190612c0e565b6118ab8830606461188f8a6003612bf7565b6118ba8888611875858a612c40565b60646118c7876001612bf7565b6118d19190612c0e565b600e5f8282546118e19190612c2d565b909155506118f8915050565b6118f8878787611a32565b8361190557611905612872565b61190e87611f39565b61191786611f39565b604051634b28246d60e01b8152841515600482015261c35060248201523090634b28246d906044015f604051808303815f87803b158015611956575f5ffd5b505af1925050508015611967575060015b156117345750505050505050565b6001600160a01b0382166119cb5760405162461bcd60e51b815260206004820152601f60248201527f45524332303a206d696e7420746f20746865207a65726f20616464726573730060448201526064016106fd565b8060025f8282546119dc9190612c2d565b90915550506001600160a01b0382165f81815260208181526040808320805486019055518481527fddf252ad1be2c89b69c2b068fc378daa952ba7f163c4a11628f55a4df523b3ef910160405180910390a35050565b6001600160a01b038316611a965760405162461bcd60e51b815260206004820152602560248201527f45524332303a207472616e736665722066726f6d20746865207a65726f206164604482015264647265737360d81b60648201526084016106fd565b6001600160a01b038216611af85760405162461bcd60e51b815260206004820152602360248201527f45524332303a207472616e7366657220746f20746865207a65726f206164647260448201526265737360e81b60648201526084016106fd565b6001600160a01b0383165f9081526020819052604090205481811015611b6f5760405162461bcd60e51b815260206004820152602660248201527f45524332303a207472616e7366657220616d6f756e7420657863656564732062604482015265616c616e636560d01b60648201526084016106fd565b6001600160a01b038481165f81815260208181526040808320878703905593871680835291849020805487019055925185815290927fddf252ad1be2c89b69c2b068fc378daa952ba7f163c4a11628f55a4df523b3ef910160405180910390a3610760565b600580546001600160a01b038381166001600160a01b0319831681179093556040519116919082907f8be0079c531659141344cd1fd0a4f28419497f9722a3daafe3b4186f6b6457e0905f90a35050565b805f03611c2f5750565b6040805160028082526060820183525f9260208301908036833701905050905030815f81518110611c6257611c62612b5c565b60200260200101906001600160a01b031690816001600160a01b0316815250507355d398326f99059ff775485246999027b319795581600181518110611caa57611caa612b5c565b60200260200101906001600160a01b031690816001600160a01b031681525050611cf5307f000000000000000000000000000000000000000000000000000000000000000084611313565b604051635c11d79560e01b81526001600160a01b037f00000000000000000000000000000000000000000000000000000000000000001690635c11d79590611d699085905f9086907f0000000000000000000000000000000000000000000000000000000000000000904290600401612d82565b5f604051808303815f87803b158015611d80575f5ffd5b505af1158015611d92573d5f5f3e3d5ffd5b505050505050565b611dc5307f000000000000000000000000000000000000000000000000000000000000000084611313565b60405163095ea7b360e01b81526001600160a01b037f0000000000000000000000000000000000000000000000000000000000000000166004820152602481018290527355d398326f99059ff775485246999027b31979559063095ea7b3906044016020604051808303815f875af1158015611e43573d5f5f3e3d5ffd5b505050506040513d601f19601f82011682018060405250810190611e679190612c6b565b5060405162e8e33760e81b81523060048201527355d398326f99059ff775485246999027b3197955602482015260448101839052606481018290525f6084820181905260a482015261dead60c48201524260e48201527f00000000000000000000000000000000000000000000000000000000000000006001600160a01b03169063e8e3370090610104016060604051808303815f875af1158015611f0e573d5f5f3e3d5ffd5b505050506040513d601f19601f82011682018060405250810190611f329190612dbd565b5050505050565b803b80151580611f5357506001600160a01b03821661dead145b15611f5c575050565b6001600160a01b0382165f90815260096020526040812054600a5490919015801590611fb65750836001600160a01b0316600a8381548110611fa057611fa0612b5c565b5f918252602090912001546001600160a01b0316145b6040516370a0823160e01b81526001600160a01b0386811660048301529192505f91612049917f0000000000000000000000000000000000000000000000000000000000000000909116906370a0823190602401602060405180830381865afa158015612025573d5f5f3e3d5ffd5b505050506040513d601f19601f820116820180604052508101906103509190612b70565b905060125481106120ba57816120b557600a80546001600160a01b0387165f818152600960205260408120839055600183018455929092527fc65a7bb8d6351c1cf70c95a316cc6a92839c986682d98bc35f958f4883f9d2a80180546001600160a01b03191690911790555b611f32565b8115611f3257600a80545f91906120d390600190612c40565b815481106120e3576120e3612b5c565b5f91825260209091200154600a80546001600160a01b03909216925082918690811061211157612111612b5c565b5f91825260208083209190910180546001600160a01b0319166001600160a01b039485161790559183168152600990915260409020849055600a80548061215a5761215a612de8565b5f828152602080822083015f1990810180546001600160a01b03191690559092019092556001600160a01b0388168252600990526040812055505050505050565b5f5f5f5f7f00000000000000000000000000000000000000000000000000000000000000006001600160a01b0316630902f1ac6040518163ffffffff1660e01b8152600401606060405180830381865afa1580156121fb573d5f5f3e3d5ffd5b505050506040513d601f19601f8201168201806040525081019061221f9190612ba2565b506001600160701b031691506001600160701b031691505f7f00000000000000000000000000000000000000000000000000000000000000006001600160a01b0316630dfe16816040518163ffffffff1660e01b8152600401602060405180830381865afa158015612293573d5f5f3e3d5ffd5b505050506040513d601f19601f820116820180604052508101906122b79190612dfc565b90505f7f00000000000000000000000000000000000000000000000000000000000000006001600160a01b031663d21220a76040518163ffffffff1660e01b8152600401602060405180830381865afa158015612316573d5f5f3e3d5ffd5b505050506040513d601f19601f8201168201806040525081019061233a9190612dfc565b6040516370a0823160e01b81526001600160a01b037f0000000000000000000000000000000000000000000000000000000000000000811660048301529192505f918416906370a0823190602401602060405180830381865afa1580156123a3573d5f5f3e3d5ffd5b505050506040513d601f19601f820116820180604052508101906123c79190612b70565b6040516370a0823160e01b81526001600160a01b037f0000000000000000000000000000000000000000000000000000000000000000811660048301529192505f918416906370a0823190602401602060405180830381865afa158015612430573d5f5f3e3d5ffd5b505050506040513d601f19601f820116820180604052508101906124549190612b70565b90505f80306001600160a01b03871603612490578683111561248b5761247a8784612c40565b9050670de0b6b3a764000081101591505b6124b3565b878411156124b3576124a28885612c40565b9050670de0b6b3a764000081101591505b90999098509650505050505050565b5f5f5f5f7f00000000000000000000000000000000000000000000000000000000000000006001600160a01b0316630dfe16816040518163ffffffff1660e01b8152600401602060405180830381865afa158015612522573d5f5f3e3d5ffd5b505050506040513d601f19601f820116820180604052508101906125469190612dfc565b90505f7f00000000000000000000000000000000000000000000000000000000000000006001600160a01b0316630902f1ac6040518163ffffffff1660e01b8152600401606060405180830381865afa1580156125a5573d5f5f3e3d5ffd5b505050506040513d601f19601f820116820180604052508101906125c99190612ba2565b50506040516370a0823160e01b81526001600160a01b037f0000000000000000000000000000000000000000000000000000000000000000811660048301526001600160701b039290921692505f918416906370a0823190602401602060405180830381865afa15801561263f573d5f5f3e3d5ffd5b505050506040513d601f19601f820116820180604052508101906126639190612b70565b90506001600160a01b038316301461269e5780821115612698576126878183612c40565b93506402540be4008411955061269e565b80821494505b505050909192565b5f5f600d54426126b69190612c40565b9050600d545f03612740576001600160a01b0384165f9081526006602052604090205460ff166127405760405162461bcd60e51b815260206004820152602f60248201527f4f70656e696e67206e6f74207365742c206f6e6c79206578656d70742061646460448201526e3932b9b9b2b99031b0b710313abc9760891b60648201526084016106fd565b61012c8110801561276957506001600160a01b0384165f9081526006602052604090205460ff16155b15612855575f7f00000000000000000000000000000000000000000000000000000000000000006001600160a01b03166318160ddd6040518163ffffffff1660e01b8152600401602060405180830381865afa1580156127cb573d5f5f3e3d5ffd5b505050506040513d601f19601f820116820180604052508101906127ef9190612b70565b1115612855575f6127ff84610e31565b90506010548111156128535760405162461bcd60e51b815260206004820181905260248201527f50757263686173652065786365656473203530302055534454206c696d69742e60448201526064016106fd565b505b6107088110612868576023915050610779565b5060649392505050565b601354600e54101561288057565b306001600160a01b0316637b2f3de46040518163ffffffff1660e01b81526004015f604051808303815f87803b1580156128b8575f5ffd5b505af19250505080156128c9575060015b15610c75575f600e55565b6001600160a01b03811681146112b6575f5ffd5b5f602082840312156128f8575f5ffd5b8135612903816128d4565b9392505050565b602081525f82518060208401528060208501604085015e5f604082850101526040601f19601f83011684010191505092915050565b80151581146112b6575f5ffd5b5f5f5f6040848603121561295e575f5ffd5b833567ffffffffffffffff811115612974575f5ffd5b8401601f81018613612984575f5ffd5b803567ffffffffffffffff81111561299a575f5ffd5b8660208260051b84010111156129ae575f5ffd5b6020918201945092508401356129c38161293f565b809150509250925092565b5f5f604083850312156129df575f5ffd5b82356129ea816128d4565b946020939093013593505050565b5f60208284031215612a08575f5ffd5b5035919050565b5f5f5f60608486031215612a21575f5ffd5b8335612a2c816128d4565b92506020840135612a3c816128d4565b929592945050506040919091013590565b5f5f60408385031215612a5e575f5ffd5b82356129ea8161293f565b5f8151808452602084019350602083015f5b82811015612aa25781516001600160a01b0316865260209586019590910190600101612a7b565b5093949350505050565b602081525f6129036020830184612a69565b5f5f5f5f60808587031215612ad1575f5ffd5b5050823594602084013594506040840135936060013592509050565b5f5f60408385031215612afe575f5ffd5b8235612b09816128d4565b91506020830135612b19816128d4565b809150509250929050565b600181811c90821680612b3857607f821691505b602082108103612b5657634e487b7160e01b5f52602260045260245ffd5b50919050565b634e487b7160e01b5f52603260045260245ffd5b5f60208284031215612b80575f5ffd5b5051919050565b80516001600160701b0381168114612b9d575f5ffd5b919050565b5f5f5f60608486031215612bb4575f5ffd5b612bbd84612b87565b9250612bcb60208501612b87565b9150604084015163ffffffff811681146129c3575f5ffd5b634e487b7160e01b5f52601160045260245ffd5b808202811582820484141761077957610779612be3565b5f82612c2857634e487b7160e01b5f52601260045260245ffd5b500490565b8082018082111561077957610779612be3565b8181038181111561077957610779612be3565b5f60018201612c6457612c64612be3565b5060010190565b5f60208284031215612c7b575f5ffd5b81516129038161293f565b634e487b7160e01b5f52604160045260245ffd5b828152604060208201525f612cb26040830184612a69565b949350505050565b5f60208284031215612cca575f5ffd5b815167ffffffffffffffff811115612ce0575f5ffd5b8201601f81018413612cf0575f5ffd5b805167ffffffffffffffff811115612d0a57612d0a612c86565b8060051b604051601f19603f830116810181811067ffffffffffffffff82111715612d3757612d37612c86565b604052918252602081840181019290810187841115612d54575f5ffd5b6020850194505b83851015612d7757845180825260209586019590935001612d5b565b509695505050505050565b85815284602082015260a060408201525f612da060a0830186612a69565b6001600160a01b0394909416606083015250608001529392505050565b5f5f5f60608486031215612dcf575f5ffd5b5050815160208301516040909301519094929350919050565b634e487b7160e01b5f52603160045260245ffd5b5f60208284031215612e0c575f5ffd5b8151612903816128d456fea26469706673582212209ad0a9029cd0a9bfb24eba24eddc2d4b6e77ee7e5d2530d25a3d12cc7653f1c864736f6c634300081c00336080604052348015600e575f5ffd5b5060405163095ea7b360e01b81523360048201525f1960248201527355d398326f99059ff775485246999027b31979559063095ea7b3906044016020604051808303815f875af11580156063573d5f5f3e3d5ffd5b505050506040513d601f19601f8201168201806040525081019060859190608a565b5060ae565b5f602082840312156099575f5ffd5b8151801515811460a7575f5ffd5b9392505050565b6096806100ba5f395ff3fe6080604052348015600e575f5ffd5b50600436106026575f3560e01c8063c54e44eb14602a575b5f5ffd5b60447355d398326f99059ff775485246999027b319795581565b6040516001600160a01b03909116815260200160405180910390f3fea26469706673582212208a71589c409d692807bd9854408bccef93d9431a3f19d1ae466b8745e008209164736f6c634300081c0033","linkReferences":{}},"methodIdentifiers":{"DEAD()":"03fd2a45","MAX_BUY_USDT()":"6df42762","MIN_ADD_LIQUIDITY()":"cedddafe","MIN_LIQUIDITY()":"21b77d63","MIN_PROCESS_AWARD()":"0508c473","USDT()":"c54e44eb","_safeSwapAndAdd()":"7b2f3de4","allowance(address,address)":"dd62ed3e","approve(address,uint256)":"095ea7b3","atTheOpeningOrder()":"2e495fdd","balanceOf(address)":"70a08231","decimals()":"313ce567","decreaseAllowance(address,uint256)":"a457c2d7","exceedTaxWallet()":"63a184f5","getAmountOutUSDT(uint256)":"83834550","getHolders()":"5fe8e7cc","getLpUsdtValue(uint256)":"156444dd","holders(uint256)":"2a11ced0","increaseAllowance(address,uint256)":"39509351","isExemptFromTax(address)":"060e7844","lpOriginalOwner(address)":"770cd1b8","mining()":"662fac39","mint(address,uint256)":"40c10f19","name()":"06fdde03","owner()":"8da5cb5b","pancakePair()":"b8c9d25c","pancakeRouter()":"c21ebd07","process(bool,uint256)":"4b28246d","receiveHelper()":"11af88a4","renounceOwnership()":"715018a6","setAtTheOpeningOrder()":"8bae7634","setExceedTaxWallet(address)":"86088e31","setLimitConfig(uint256,uint256,uint256,uint256)":"b3416d78","setMining(address)":"edb46daf","setSubscribeList(address[],bool)":"ec375408","setTaxExemption(address[],bool)":"08aaa130","subscribelist(address)":"40f7bbc7","symbol()":"95d89b41","totalSupply()":"18160ddd","transfer(address,uint256)":"a9059cbb","transferFrom(address,address,uint256)":"23b872dd","transferOwnership(address)":"f2fde38b","txFee()":"cf820461","updateMyStatus()":"ef10d56c"},"id":46}