{"abi":[{"type":"function","name":"UPGRADE_INTERFACE_VERSION","inputs":[],"outputs":[{"name":"","type":"string","internalType":"string"}],"stateMutability":"view"},{"type":"function","name":"best","inputs":[],"outputs":[{"name":"","type":"address","internalType":"address"}],"stateMutability":"view"},{"type":"function","name":"bindInviter","inputs":[{"name":"_inviter","type":"address","internalType":"address"}],"outputs":[],"stateMutability":"nonpayable"},{"type":"function","name":"claimAward","inputs":[{"name":"_amount","type":"uint256","internalType":"uint256"}],"outputs":[],"stateMutability":"nonpayable"},{"type":"function","name":"claimOrder","inputs":[{"name":"_orderIndex","type":"uint256","internalType":"uint256"}],"outputs":[],"stateMutability":"nonpayable"},{"type":"function","name":"emergencyWithdraw","inputs":[{"name":"token","type":"address","internalType":"address"},{"name":"to","type":"address","internalType":"address"}],"outputs":[],"stateMutability":"nonpayable"},{"type":"function","name":"expiredTime","inputs":[{"name":"","type":"uint8","internalType":"enum IStaking.Expired"}],"outputs":[{"name":"","type":"uint256","internalType":"uint256"}],"stateMutability":"view"},{"type":"function","name":"getOrderCountdown","inputs":[{"name":"_orderIndex","type":"uint256","internalType":"uint256"}],"outputs":[{"name":"","type":"uint256","internalType":"uint256"}],"stateMutability":"view"},{"type":"function","name":"getOrderRealTimeYield","inputs":[{"name":"_orderIndex","type":"uint256","internalType":"uint256"}],"outputs":[{"name":"","type":"uint256","internalType":"uint256"}],"stateMutability":"view"},{"type":"function","name":"getUserInfo","inputs":[{"name":"_user","type":"address","internalType":"address"}],"outputs":[{"name":"_inviter","type":"address","internalType":"address"},{"name":"_award","type":"uint256","internalType":"uint256"},{"name":"_validOrderIndexes","type":"uint256[]","internalType":"uint256[]"},{"name":"_allOrderIndexes","type":"uint256[]","internalType":"uint256[]"},{"name":"_invitees","type":"address[]","internalType":"address[]"},{"name":"_awardRecords","type":"tuple[]","internalType":"struct IStaking.AwardRecord[]","components":[{"name":"invitee","type":"address","internalType":"address"},{"name":"stakingAmount","type":"uint256","internalType":"uint256"},{"name":"awardAmount","type":"uint256","internalType":"uint256"},{"name":"awardTime","type":"uint256","internalType":"uint256"}]}],"stateMutability":"view"},{"type":"function","name":"index","inputs":[],"outputs":[{"name":"","type":"uint256","internalType":"uint256"}],"stateMutability":"view"},{"type":"function","name":"initialInviter","inputs":[],"outputs":[{"name":"","type":"address","internalType":"address"}],"stateMutability":"view"},{"type":"function","name":"initialize","inputs":[{"name":"_initialInviter","type":"address","internalType":"address"},{"name":"_love","type":"address","internalType":"address"},{"name":"_best","type":"address","internalType":"address"}],"outputs":[],"stateMutability":"nonpayable"},{"type":"function","name":"isValidInviter","inputs":[{"name":"_inviter","type":"address","internalType":"address"}],"outputs":[{"name":"","type":"bool","internalType":"bool"}],"stateMutability":"view"},{"type":"function","name":"love","inputs":[],"outputs":[{"name":"","type":"address","internalType":"address"}],"stateMutability":"view"},{"type":"function","name":"owner","inputs":[],"outputs":[{"name":"","type":"address","internalType":"address"}],"stateMutability":"view"},{"type":"function","name":"proxiableUUID","inputs":[],"outputs":[{"name":"","type":"bytes32","internalType":"bytes32"}],"stateMutability":"view"},{"type":"function","name":"redeem","inputs":[{"name":"_orderIndex","type":"uint256","internalType":"uint256"}],"outputs":[],"stateMutability":"nonpayable"},{"type":"function","name":"renounceOwnership","inputs":[],"outputs":[],"stateMutability":"nonpayable"},{"type":"function","name":"setConfig","inputs":[{"name":"_love","type":"address","internalType":"address"},{"name":"_best","type":"address","internalType":"address"}],"outputs":[],"stateMutability":"nonpayable"},{"type":"function","name":"staking","inputs":[{"name":"_expired","type":"uint8","internalType":"enum IStaking.Expired"},{"name":"_amountLove","type":"uint256","internalType":"uint256"}],"outputs":[],"stateMutability":"nonpayable"},{"type":"function","name":"stakingOrderInfo","inputs":[{"name":"","type":"uint256","internalType":"uint256"}],"outputs":[{"name":"expired","type":"uint8","internalType":"enum IStaking.Expired"},{"name":"holder","type":"address","internalType":"address"},{"name":"amount","type":"uint256","internalType":"uint256"},{"name":"stakingTime","type":"uint256","internalType":"uint256"},{"name":"extracted","type":"uint256","internalType":"uint256"},{"name":"isRedeemed","type":"bool","internalType":"bool"}],"stateMutability":"view"},{"type":"function","name":"transferOwnership","inputs":[{"name":"newOwner","type":"address","internalType":"address"}],"outputs":[],"stateMutability":"nonpayable"},{"type":"function","name":"upgradeToAndCall","inputs":[{"name":"newImplementation","type":"address","internalType":"address"},{"name":"data","type":"bytes","internalType":"bytes"}],"outputs":[],"stateMutability":"payable"},{"type":"function","name":"userInfo","inputs":[{"name":"","type":"address","internalType":"address"}],"outputs":[{"name":"inviter","type":"address","internalType":"address"},{"name":"award","type":"uint256","internalType":"uint256"}],"stateMutability":"view"},{"type":"function","name":"yieldRate","inputs":[{"name":"","type":"uint8","internalType":"enum IStaking.Expired"}],"outputs":[{"name":"","type":"uint256","internalType":"uint256"}],"stateMutability":"view"},{"type":"event","name":"Initialized","inputs":[{"name":"version","type":"uint64","indexed":false,"internalType":"uint64"}],"anonymous":false},{"type":"event","name":"OwnershipTransferred","inputs":[{"name":"previousOwner","type":"address","indexed":true,"internalType":"address"},{"name":"newOwner","type":"address","indexed":true,"internalType":"address"}],"anonymous":false},{"type":"event","name":"Upgraded","inputs":[{"name":"implementation","type":"address","indexed":true,"internalType":"address"}],"anonymous":false},{"type":"error","name":"AddressEmptyCode","inputs":[{"name":"target","type":"address","internalType":"address"}]},{"type":"error","name":"ERC1967InvalidImplementation","inputs":[{"name":"implementation","type":"address","internalType":"address"}]},{"type":"error","name":"ERC1967NonPayable","inputs":[]},{"type":"error","name":"FailedCall","inputs":[]},{"type":"error","name":"InvalidInitialization","inputs":[]},{"type":"error","name":"NotInitializing","inputs":[]},{"type":"error","name":"OwnableInvalidOwner","inputs":[{"name":"owner","type":"address","internalType":"address"}]},{"type":"error","name":"OwnableUnauthorizedAccount","inputs":[{"name":"account","type":"address","internalType":"address"}]},{"type":"error","name":"ReentrancyGuardReentrantCall","inputs":[]},{"type":"error","name":"UUPSUnauthorizedCallContext","inputs":[]},{"type":"error","name":"UUPSUnsupportedProxiableUUID","inputs":[{"name":"slot","type":"bytes32","internalType":"bytes32"}]}],"bytecode":{"object":"0x60a0604052306080523480156012575f5ffd5b5060015f556080516126ef61003d5f395f8181611aa201528181611acb0152611c0a01526126ef5ff3fe60806040526004361061017b575f3560e01c8063715018a6116100cd578063bb8498cf11610087578063d0940a5d11610062578063d0940a5d1461052e578063db006a751461054d578063dff532311461056c578063f2fde38b1461058b575f5ffd5b8063bb8498cf14610474578063c0c53b8b146104e4578063d07ebe7e14610503575f5ffd5b8063715018a61461037e5780638da5cb5b146103925780639d94c878146103ce578063a14a9f8f146103f9578063ad3cb1cc14610418578063b602024b14610455575f5ffd5b8063460728031161013857806352d1902d1161011357806352d1902d146102fb57806355a1883a1461030f5780636382d9ad1461032e5780636386c1c71461034d575f5ffd5b806346072803146102925780634e377201146102b15780634f1ef286146102e8575f5ffd5b806302318e531461017f57806308254f51146101b15780631959a002146101d25780632986c0e51461022f5780633a3f8239146102445780633cae51dc14610263575b5f5ffd5b34801561018a575f5ffd5b5061019e610199366004612200565b6105aa565b6040519081526020015b60405180910390f35b3480156101bc575f5ffd5b506101d06101cb366004612200565b61077f565b005b3480156101dd575f5ffd5b506102106101ec366004612232565b60046020525f9081526040902080546001909101546001600160a01b039091169082565b604080516001600160a01b0390931683526020830191909152016101a8565b34801561023a575f5ffd5b5061019e60085481565b34801561024f575f5ffd5b506101d061025e366004612200565b61083b565b34801561026e575f5ffd5b5061028261027d366004612232565b61097f565b60405190151581526020016101a8565b34801561029d575f5ffd5b506101d06102ac366004612259565b6109bf565b3480156102bc575f5ffd5b506005546102d0906001600160a01b031681565b6040516001600160a01b0390911681526020016101a8565b6101d06102f6366004612295565b610bc3565b348015610306575f5ffd5b5061019e610bde565b34801561031a575f5ffd5b5061019e610329366004612200565b610bf9565b348015610339575f5ffd5b506101d0610348366004612359565b610d60565b348015610358575f5ffd5b5061036c610367366004612232565b610e2c565b6040516101a896959493929190612420565b348015610389575f5ffd5b506101d0610fe2565b34801561039d575f5ffd5b507f9016d09d72d40fdae2fd8ceac6b6234c7706214fd39c1cd1e609a0528c199300546001600160a01b03166102d0565b3480156103d9575f5ffd5b5061019e6103e83660046124bb565b60026020525f908152604090205481565b348015610404575f5ffd5b506101d0610413366004612232565b610ff5565b348015610423575f5ffd5b50610448604051806040016040528060058152602001640352e302e360dc1b81525081565b6040516101a891906124d4565b348015610460575f5ffd5b506101d061046f366004612359565b61118f565b34801561047f575f5ffd5b506104d261048e366004612200565b600360208190525f91825260409091208054600182015460028301549383015460049093015460ff808416956101009094046001600160a01b031694929392911686565b6040516101a89695949392919061251d565b3480156104ef575f5ffd5b506101d06104fe366004612571565b611220565b34801561050e575f5ffd5b5061019e61051d3660046124bb565b60016020525f908152604090205481565b348015610539575f5ffd5b506007546102d0906001600160a01b031681565b348015610558575f5ffd5b506101d0610567366004612200565b611448565b348015610577575f5ffd5b506006546102d0906001600160a01b031681565b348015610596575f5ffd5b506101d06105a5366004612232565b6115da565b5f81815260036020526040808220815160c08101909252805483929190829060ff1660028111156105dd576105dd612509565b60028111156105ee576105ee612509565b815281546001600160a01b03610100909104811660208084019190915260018401546040840152600284015460608401526003840154608084015260049093015460ff16151560a09092019190915290820151919250166106865760405162461bcd60e51b815260206004820152600d60248201526c24b73b30b634b21037b93232b960991b60448201526064015b60405180910390fd5b5f60015f835f0151600281111561069f5761069f612509565b60028111156106b0576106b0612509565b81526020019081526020015f205490505f60025f845f015160028111156106d9576106d9612509565b60028111156106ea576106ea612509565b81526020019081526020015f205490505f81846040015161070b91906125c5565b90505f8460600151421161071f575f61072e565b606085015161072e90426125dc565b90508381111561073b5750825b5f8461074783856125c5565b61075191906125ef565b905085608001518111610764575f610773565b608086015161077390826125dc565b98975050505050505050565b610787611614565b335f90815260046020526040902060018101548211156107e95760405162461bcd60e51b815260206004820152601a60248201527f496e73756666696369656e742061776172642062616c616e6365000000000000604482015260640161067d565b81816001015f8282546107fc91906125dc565b909155505060065461082e906001600160a01b031633606461081f8660506125c5565b61082991906125ef565b61163c565b5061083860015f55565b50565b610843611614565b5f818152600360205260409020805461010090046001600160a01b031633146108a05760405162461bcd60e51b815260206004820152600f60248201526e2737ba1037b93232b91037bbb732b960891b604482015260640161067d565b600481015460ff16156108ee5760405162461bcd60e51b815260206004820152601660248201527513dc99195c88185b1c9958591e481c995919595b595960521b604482015260640161067d565b5f6108f8836105aa565b90505f811161093e5760405162461bcd60e51b81526020600482015260126024820152714e6f207969656c6420617661696c61626c6560701b604482015260640161067d565b80826003015f828254610951919061260e565b9091555050600754610974906001600160a01b031633606461081f8560506125c5565b505061083860015f55565b6005545f906001600160a01b039081169083160361099f57506001919050565b506001600160a01b03165f90815260046020526040902060020154151590565b6109c7611614565b335f908152600460205260409020546001600160a01b0316610a2b5760405162461bcd60e51b815260206004820152601d60248201527f506c656173652062696e6420616e20696e76697465722066697273742e000000604482015260640161067d565b5f8111610a7a5760405162461bcd60e51b815260206004820152601d60248201527f416d6f756e74206d7573742062652067726561746572207468616e2030000000604482015260640161067d565b600654610a92906001600160a01b0316333084611752565b60088054905f610aa183612621565b91905055505f6040518060c00160405280846002811115610ac457610ac4612509565b815233602080830182905260408084018790524260608501525f6080850181905260a09094018490529183526004815281832060088054600292830180546001818101835591885285882001919091559054855260039092529190922083518154949550859491939092849260ff191691908490811115610b4757610b47612509565b021790555060208201518154610100600160a81b0319166101006001600160a01b039092169190910217815560408201516001820155606082015160028201556080820151600382015560a0909101516004909101805460ff1916911515919091179055610bb5338361187d565b50610bbf60015f55565b5050565b610bcb611a97565b610bd482611b3b565b610bbf8282611b43565b5f610be7611bff565b505f51602061269a5f395f51905f5290565b5f81815260036020526040808220815160c08101909252805483929190829060ff166002811115610c2c57610c2c612509565b6002811115610c3d57610c3d612509565b815281546001600160a01b03610100909104811660208084019190915260018401546040840152600284015460608401526003840154608084015260049093015460ff16151560a0909201919091529082015191925016610cd05760405162461bcd60e51b815260206004820152600d60248201526c24b73b30b634b21037b93232b960991b604482015260640161067d565b5f60015f835f01516002811115610ce957610ce9612509565b6002811115610cfa57610cfa612509565b81526020019081526020015f205490505f818360600151610d1b919061260e565b90508042101580610d3e5750600283516002811115610d3c57610d3c612509565b145b15610d4d57505f949350505050565b610d5742826125dc565b95945050505050565b610d68611c48565b6001600160a01b038116610db25760405162461bcd60e51b8152602060048201526011602482015270125b9d985b1a59081c9958da5c1a595b9d607a1b604482015260640161067d565b6040516370a0823160e01b81523060048201525f906001600160a01b038416906370a0823190602401602060405180830381865afa158015610df6573d5f5f3e3d5ffd5b505050506040513d601f19601f82011682018060405250810190610e1a9190612639565b9050610e2783838361163c565b505050565b6001600160a01b038082165f908152600460209081526040808320815160a081018352815490951685526001810154858401526002810180548351818602810186018552818152959687966060968796879687968b96919492860193909190830182828015610eb857602002820191905f5260205f20905b815481526020019060010190808311610ea4575b5050505050815260200160038201805480602002602001604051908101604052809291908181526020018280548015610f1857602002820191905f5260205f20905b81546001600160a01b03168152600190910190602001808311610efa575b5050505050815260200160048201805480602002602001604051908101604052809291908181526020015f905b82821015610fa1575f848152602090819020604080516080810182526004860290920180546001600160a01b03168352600180820154848601526002820154928401929092526003015460608301529083529092019101610f45565b50505050815250509050805f0151965080602001519550806060015192508060800151915080604001519350610fd688611ca3565b94505091939550919395565b610fea611c48565b610ff35f611f50565b565b6001600160a01b038116331480159061101657506001600160a01b03811615155b6110715760405162461bcd60e51b815260206004820152602660248201527f43616e6e6f742062696e6420796f757273656c66206f7220307820617320696e6044820152653b34ba32b91760d11b606482015260840161067d565b335f908152600460205260409020546001600160a01b0316156110cf5760405162461bcd60e51b815260206004820152601660248201527524b73b34ba32b91030b63932b0b23c903137bab7321760511b604482015260640161067d565b6005546001600160a01b03828116911614611141576001600160a01b0381165f908152600460205260409020600201546111415760405162461bcd60e51b815260206004820152601360248201527224b73b34ba32b9103737ba1039ba30b5b2b21760691b604482015260640161067d565b335f81815260046020908152604080832080546001600160a01b039096166001600160a01b031996871681179091558352822060030180546001810182559083529120018054909216179055565b611197611c48565b6001600160a01b038216158015906111b757506001600160a01b03811615155b6111f25760405162461bcd60e51b815260206004820152600c60248201526b5a65726f206164647265737360a01b604482015260640161067d565b600680546001600160a01b039384166001600160a01b03199182161790915560078054929093169116179055565b5f611229611fc0565b805490915060ff600160401b820416159067ffffffffffffffff165f811580156112505750825b90505f8267ffffffffffffffff16600114801561126c5750303b155b90508115801561127a575080155b156112985760405163f92ee8a960e01b815260040160405180910390fd5b845467ffffffffffffffff1916600117855583156112c257845460ff60401b1916600160401b1785555b6112cb33611fea565b6112d3611ff2565b600580546001600160a01b038a81166001600160a01b031992831617909255600680548a8416908316179055600780549289169290911691909117905562278d007fa6eef7e35abe7026729641147f7915573c7e97b47efa546f5f6e3230263bcb4955624f1a007fcc69885fda6bcc1a4ace058b4a62bf5e179ea78fd58a1ccd71c22cc9b688792f556276a7007fd9d16d34ffb15ba3a3d852f0d403e2ce1d691fb54de27ac87cd2f993f3ec330f556002602081905260647fac33ff75c19e70fe83507db0d683fd3465c996598dc972688b7ace676c89077b5560dc7fe90b7bceb6e7df5418fb78d8ee546e97c83a08bbccc01a0644d599ccd2a7c2e0555f526101907f679795a0195a1b76cdebb7c51d74e058aee92919b8c3389af86ef24535e8a28c55831561143e57845460ff60401b19168555604051600181527fc7f505b2f371ae2175ee4913f4499e1f2633a7b5936321eed1cdaeb6115181d29060200160405180910390a15b5050505050505050565b611450611614565b5f818152600360205260409020805461010090046001600160a01b031633146114ad5760405162461bcd60e51b815260206004820152600f60248201526e2737ba1037b93232b91037bbb732b960891b604482015260640161067d565b600481015460ff16156114f55760405162461bcd60e51b815260206004820152601060248201526f105b1c9958591e481c995919595b595960821b604482015260640161067d565b6002815460ff16600281111561150d5761150d612509565b0361155a5760405162461bcd60e51b815260206004820152601b60248201527f43616e6e6f742072656465656d2039302d646179206f72646572730000000000604482015260640161067d565b5f611564836105aa565b60048301805460ff1916600117905560038301805491925082915f9061158b90849061260e565b909155505060065460018301546115b6916001600160a01b031690339060649061081f9060506125c5565b801561097457600754610974906001600160a01b031633606461081f8560506125c5565b6115e2611c48565b6001600160a01b03811661160b57604051631e4fbdf760e01b81525f600482015260240161067d565b61083881611f50565b60025f540361163657604051633ee5aeb560e01b815260040160405180910390fd5b60025f55565b604080516001600160a01b038481166024830152604480830185905283518084039091018152606490920183526020820180516001600160e01b031663a9059cbb60e01b17905291515f928392908716916116979190612650565b5f604051808303815f865af19150503d805f81146116d0576040519150601f19603f3d011682016040523d82523d5f602084013e6116d5565b606091505b50915091508180156116ff5750805115806116ff5750808060200190518101906116ff9190612666565b61174b5760405162461bcd60e51b815260206004820152601f60248201527f5472616e7366657248656c7065723a205452414e534645525f4641494c454400604482015260640161067d565b5050505050565b604080516001600160a01b0385811660248301528481166044830152606480830185905283518084039091018152608490920183526020820180516001600160e01b03166323b872dd60e01b17905291515f928392908816916117b59190612650565b5f604051808303815f865af19150503d805f81146117ee576040519150601f19603f3d011682016040523d82523d5f602084013e6117f3565b606091505b509150915081801561181d57508051158061181d57508080602001905181019061181d9190612666565b6118755760405162461bcd60e51b8152602060048201526024808201527f5472616e7366657248656c7065723a205452414e534645525f46524f4d5f46416044820152631253115160e21b606482015260840161067d565b505050505050565b6001600160a01b038083165f90815260046020526040902054168015610e275760646118aa8360086125c5565b6118b491906125ef565b6001600160a01b0382165f90815260046020526040812060010180549091906118de90849061260e565b90915550506001600160a01b038082165f9081526004602081815260409283902083516080810185529488168552908401869052019190810160646119248660086125c5565b61192e91906125ef565b8152426020918201528254600180820185555f9485528285208451600493840290910180546001600160a01b0319166001600160a01b039283161781558585015192810192909255604080860151600284015560609095015160039092019190915585811685529152912054168015611a915760646119ae8460056125c5565b6119b891906125ef565b6001600160a01b0382165f90815260046020526040812060010180549091906119e290849061260e565b90915550506001600160a01b038082165f908152600460208181526040928390208351608081018552948916855290840187905201919081016064611a288760056125c5565b611a3291906125ef565b8152426020918201528254600180820185555f94855293829020835160049092020180546001600160a01b0319166001600160a01b03909216919091178155908201519281019290925560408101516002830155606001516003909101555b50505050565b306001600160a01b037f0000000000000000000000000000000000000000000000000000000000000000161480611b1d57507f00000000000000000000000000000000000000000000000000000000000000006001600160a01b0316611b115f51602061269a5f395f51905f52546001600160a01b031690565b6001600160a01b031614155b15610ff35760405163703e46dd60e11b815260040160405180910390fd5b610838611c48565b816001600160a01b03166352d1902d6040518163ffffffff1660e01b8152600401602060405180830381865afa925050508015611b9d575060408051601f3d908101601f19168201909252611b9a91810190612639565b60015b611bc557604051634c9c8ce360e01b81526001600160a01b038316600482015260240161067d565b5f51602061269a5f395f51905f528114611bf557604051632a87526960e21b81526004810182905260240161067d565b610e278383611ffa565b306001600160a01b037f00000000000000000000000000000000000000000000000000000000000000001614610ff35760405163703e46dd60e11b815260040160405180910390fd5b33611c7a7f9016d09d72d40fdae2fd8ceac6b6234c7706214fd39c1cd1e609a0528c199300546001600160a01b031690565b6001600160a01b031614610ff35760405163118cdaa760e01b815233600482015260240161067d565b6001600160a01b038082165f908152600460209081526040808320815160a08101835281549095168552600181015485840152600281018054835181860281018601855281815260609795939486019390929190830182828015611d2457602002820191905f5260205f20905b815481526020019060010190808311611d10575b5050505050815260200160038201805480602002602001604051908101604052809291908181526020018280548015611d8457602002820191905f5260205f20905b81546001600160a01b03168152600190910190602001808311611d66575b5050505050815260200160048201805480602002602001604051908101604052809291908181526020015f905b82821015611e0d575f848152602090819020604080516080810182526004860290920180546001600160a01b03168352600180820154848601526002820154928401929092526003015460608301529083529092019101611db1565b505050915250506040810151519091505f805b82811015611e7e575f84604001518281518110611e3f57611e3f612685565b6020908102919091018101515f818152600390925260409091206004015490915060ff16611e755782611e7181612621565b9350505b50600101611e20565b505f8167ffffffffffffffff811115611e9957611e99612281565b604051908082528060200260200182016040528015611ec2578160200160208202803683370190505b5090505f805b84811015611f44575f86604001518281518110611ee757611ee7612685565b6020908102919091018101515f818152600390925260409091206004015490915060ff16611f3b5780848481518110611f2257611f22612685565b602090810291909101015282611f3781612621565b9350505b50600101611ec8565b50909695505050505050565b7f9016d09d72d40fdae2fd8ceac6b6234c7706214fd39c1cd1e609a0528c19930080546001600160a01b031981166001600160a01b03848116918217845560405192169182907f8be0079c531659141344cd1fd0a4f28419497f9722a3daafe3b4186f6b6457e0905f90a3505050565b5f807ff0c57e16840df040f15088dc2f81fe391c3923bec73e23a9662efc9c229c6a005b92915050565b6115e261204f565b610ff361204f565b61200382612074565b6040516001600160a01b038316907fbc7cd75a20ee27fd9adebab32041f755214dbc6bffa90cc0225b39da2e5c2d3b905f90a280511561204757610e2782826120d7565b610bbf612140565b61205761215f565b610ff357604051631afcd79f60e31b815260040160405180910390fd5b806001600160a01b03163b5f036120a957604051634c9c8ce360e01b81526001600160a01b038216600482015260240161067d565b5f51602061269a5f395f51905f5280546001600160a01b0319166001600160a01b0392909216919091179055565b60605f5f846001600160a01b0316846040516120f39190612650565b5f60405180830381855af49150503d805f811461212b576040519150601f19603f3d011682016040523d82523d5f602084013e612130565b606091505b5091509150610d57858383612178565b3415610ff35760405163b398979f60e01b815260040160405180910390fd5b5f612168611fc0565b54600160401b900460ff16919050565b60608261218d57612188826121d7565b6121d0565b81511580156121a457506001600160a01b0384163b155b156121cd57604051639996b31560e01b81526001600160a01b038516600482015260240161067d565b50805b9392505050565b8051156121e75780518082602001fd5b60405163d6bda27560e01b815260040160405180910390fd5b5f60208284031215612210575f5ffd5b5035919050565b80356001600160a01b038116811461222d575f5ffd5b919050565b5f60208284031215612242575f5ffd5b6121d082612217565b80356003811061222d575f5ffd5b5f5f6040838503121561226a575f5ffd5b6122738361224b565b946020939093013593505050565b634e487b7160e01b5f52604160045260245ffd5b5f5f604083850312156122a6575f5ffd5b6122af83612217565b9150602083013567ffffffffffffffff8111156122ca575f5ffd5b8301601f810185136122da575f5ffd5b803567ffffffffffffffff8111156122f4576122f4612281565b604051601f8201601f19908116603f0116810167ffffffffffffffff8111828210171561232357612323612281565b60405281815282820160200187101561233a575f5ffd5b816020840160208301375f602083830101528093505050509250929050565b5f5f6040838503121561236a575f5ffd5b61237383612217565b915061238160208401612217565b90509250929050565b5f8151808452602084019350602083015f5b828110156123ba57815186526020958601959091019060010161239c565b5093949350505050565b5f8151808452602084019350602083015f5b828110156123ba57815180516001600160a01b03168752602080820151818901526040808301519089015260609182015191880191909152608090960195909101906001016123d6565b60018060a01b038716815285602082015260c060408201525f61244660c083018761238a565b8281036060840152612458818761238a565b8381036080850152855180825260208088019350909101905f5b818110156124995783516001600160a01b0316835260209384019390920191600101612472565b505083810360a08501526124ad81866123c4565b9a9950505050505050505050565b5f602082840312156124cb575f5ffd5b6121d08261224b565b602081525f82518060208401528060208501604085015e5f604082850101526040601f19601f83011684010191505092915050565b634e487b7160e01b5f52602160045260245ffd5b60c081016003881061253d57634e487b7160e01b5f52602160045260245ffd5b9681526001600160a01b03959095166020860152604085019390935260608401919091526080830152151560a09091015290565b5f5f5f60608486031215612583575f5ffd5b61258c84612217565b925061259a60208501612217565b91506125a860408501612217565b90509250925092565b634e487b7160e01b5f52601160045260245ffd5b8082028115828204841417611fe457611fe46125b1565b81810381811115611fe457611fe46125b1565b5f8261260957634e487b7160e01b5f52601260045260245ffd5b500490565b80820180821115611fe457611fe46125b1565b5f60018201612632576126326125b1565b5060010190565b5f60208284031215612649575f5ffd5b5051919050565b5f82518060208501845e5f920191825250919050565b5f60208284031215612676575f5ffd5b815180151581146121d0575f5ffd5b634e487b7160e01b5f52603260045260245ffdfe360894a13ba1a3210667c828492db98dca3e2076cc3735a920a3ca505d382bbca264697066735822122053450240f5e733c765643fa69da823221132bc2cd57594e2050126143bb1db2064736f6c634300081c0033","linkReferences":{}},"methodIdentifiers":{"UPGRADE_INTERFACE_VERSION()":"ad3cb1cc","best()":"d0940a5d","bindInviter(address)":"a14a9f8f","claimAward(uint256)":"08254f51","claimOrder(uint256)":"3a3f8239","emergencyWithdraw(address,address)":"6382d9ad","expiredTime(uint8)":"d07ebe7e","getOrderCountdown(uint256)":"55a1883a","getOrderRealTimeYield(uint256)":"02318e53","getUserInfo(address)":"6386c1c7","index()":"2986c0e5","initialInviter()":"4e377201","initialize(address,address,address)":"c0c53b8b","isValidInviter(address)":"3cae51dc","love()":"dff53231","owner()":"8da5cb5b","proxiableUUID()":"52d1902d","redeem(uint256)":"db006a75","renounceOwnership()":"715018a6","setConfig(address,address)":"b602024b","staking(uint8,uint256)":"46072803","stakingOrderInfo(uint256)":"bb8498cf","transferOwnership(address)":"f2fde38b","upgradeToAndCall(address,bytes)":"4f1ef286","userInfo(address)":"1959a002","yieldRate(uint8)":"9d94c878"},"id":37}