{"abi":[{"type":"function","name":"UPGRADE_INTERFACE_VERSION","inputs":[],"outputs":[{"name":"","type":"string","internalType":"string"}],"stateMutability":"view"},{"type":"function","name":"best","inputs":[],"outputs":[{"name":"","type":"address","internalType":"address"}],"stateMutability":"view"},{"type":"function","name":"bindInviter","inputs":[{"name":"_inviter","type":"address","internalType":"address"}],"outputs":[],"stateMutability":"nonpayable"},{"type":"function","name":"claimAward","inputs":[{"name":"_amount","type":"uint256","internalType":"uint256"}],"outputs":[],"stateMutability":"nonpayable"},{"type":"function","name":"claimOrder","inputs":[{"name":"_orderIndex","type":"uint256","internalType":"uint256"}],"outputs":[],"stateMutability":"nonpayable"},{"type":"function","name":"emergencyWithdraw","inputs":[{"name":"token","type":"address","internalType":"address"},{"name":"to","type":"address","internalType":"address"}],"outputs":[],"stateMutability":"nonpayable"},{"type":"function","name":"expiredTime","inputs":[{"name":"","type":"uint8","internalType":"enum IStaking.Expired"}],"outputs":[{"name":"","type":"uint256","internalType":"uint256"}],"stateMutability":"view"},{"type":"function","name":"getOrderCountdown","inputs":[{"name":"_orderIndex","type":"uint256","internalType":"uint256"}],"outputs":[{"name":"","type":"uint256","internalType":"uint256"}],"stateMutability":"view"},{"type":"function","name":"getOrderRealTimeYield","inputs":[{"name":"_orderIndex","type":"uint256","internalType":"uint256"}],"outputs":[{"name":"","type":"uint256","internalType":"uint256"}],"stateMutability":"view"},{"type":"function","name":"getUserInfo","inputs":[{"name":"_user","type":"address","internalType":"address"}],"outputs":[{"name":"_inviter","type":"address","internalType":"address"},{"name":"_award","type":"uint256","internalType":"uint256"},{"name":"_grades","type":"uint256","internalType":"uint256"},{"name":"_validOrderIndexes","type":"uint256[]","internalType":"uint256[]"},{"name":"_allOrderIndexes","type":"uint256[]","internalType":"uint256[]"},{"name":"_invitees","type":"address[]","internalType":"address[]"},{"name":"_awardRecords","type":"tuple[]","internalType":"struct IStaking.AwardRecord[]","components":[{"name":"invitee","type":"address","internalType":"address"},{"name":"stakingAmount","type":"uint256","internalType":"uint256"},{"name":"awardAmount","type":"uint256","internalType":"uint256"},{"name":"awardTime","type":"uint256","internalType":"uint256"}]}],"stateMutability":"view"},{"type":"function","name":"index","inputs":[],"outputs":[{"name":"","type":"uint256","internalType":"uint256"}],"stateMutability":"view"},{"type":"function","name":"initialInviter","inputs":[],"outputs":[{"name":"","type":"address","internalType":"address"}],"stateMutability":"view"},{"type":"function","name":"initialize","inputs":[{"name":"_initialInviter","type":"address","internalType":"address"},{"name":"_love","type":"address","internalType":"address"},{"name":"_best","type":"address","internalType":"address"}],"outputs":[],"stateMutability":"nonpayable"},{"type":"function","name":"isValidInviter","inputs":[{"name":"_inviter","type":"address","internalType":"address"}],"outputs":[{"name":"","type":"bool","internalType":"bool"}],"stateMutability":"view"},{"type":"function","name":"love","inputs":[],"outputs":[{"name":"","type":"address","internalType":"address"}],"stateMutability":"view"},{"type":"function","name":"owner","inputs":[],"outputs":[{"name":"","type":"address","internalType":"address"}],"stateMutability":"view"},{"type":"function","name":"proxiableUUID","inputs":[],"outputs":[{"name":"","type":"bytes32","internalType":"bytes32"}],"stateMutability":"view"},{"type":"function","name":"redeem","inputs":[{"name":"_orderIndex","type":"uint256","internalType":"uint256"}],"outputs":[],"stateMutability":"nonpayable"},{"type":"function","name":"renounceOwnership","inputs":[],"outputs":[],"stateMutability":"nonpayable"},{"type":"function","name":"setConfig","inputs":[{"name":"_love","type":"address","internalType":"address"},{"name":"_best","type":"address","internalType":"address"}],"outputs":[],"stateMutability":"nonpayable"},{"type":"function","name":"staking","inputs":[{"name":"_expired","type":"uint8","internalType":"enum IStaking.Expired"},{"name":"_amountLove","type":"uint256","internalType":"uint256"}],"outputs":[],"stateMutability":"nonpayable"},{"type":"function","name":"stakingOrderInfo","inputs":[{"name":"","type":"uint256","internalType":"uint256"}],"outputs":[{"name":"expired","type":"uint8","internalType":"enum IStaking.Expired"},{"name":"holder","type":"address","internalType":"address"},{"name":"amount","type":"uint256","internalType":"uint256"},{"name":"stakingTime","type":"uint256","internalType":"uint256"},{"name":"extracted","type":"uint256","internalType":"uint256"},{"name":"isRedeemed","type":"bool","internalType":"bool"}],"stateMutability":"view"},{"type":"function","name":"transferOwnership","inputs":[{"name":"newOwner","type":"address","internalType":"address"}],"outputs":[],"stateMutability":"nonpayable"},{"type":"function","name":"upgradeToAndCall","inputs":[{"name":"newImplementation","type":"address","internalType":"address"},{"name":"data","type":"bytes","internalType":"bytes"}],"outputs":[],"stateMutability":"payable"},{"type":"function","name":"userInfo","inputs":[{"name":"","type":"address","internalType":"address"}],"outputs":[{"name":"inviter","type":"address","internalType":"address"},{"name":"award","type":"uint256","internalType":"uint256"},{"name":"grades","type":"uint256","internalType":"uint256"}],"stateMutability":"view"},{"type":"function","name":"yieldRate","inputs":[{"name":"","type":"uint8","internalType":"enum IStaking.Expired"}],"outputs":[{"name":"","type":"uint256","internalType":"uint256"}],"stateMutability":"view"},{"type":"event","name":"Initialized","inputs":[{"name":"version","type":"uint64","indexed":false,"internalType":"uint64"}],"anonymous":false},{"type":"event","name":"OwnershipTransferred","inputs":[{"name":"previousOwner","type":"address","indexed":true,"internalType":"address"},{"name":"newOwner","type":"address","indexed":true,"internalType":"address"}],"anonymous":false},{"type":"event","name":"Upgraded","inputs":[{"name":"implementation","type":"address","indexed":true,"internalType":"address"}],"anonymous":false},{"type":"error","name":"AddressEmptyCode","inputs":[{"name":"target","type":"address","internalType":"address"}]},{"type":"error","name":"ERC1967InvalidImplementation","inputs":[{"name":"implementation","type":"address","internalType":"address"}]},{"type":"error","name":"ERC1967NonPayable","inputs":[]},{"type":"error","name":"FailedCall","inputs":[]},{"type":"error","name":"InvalidInitialization","inputs":[]},{"type":"error","name":"NotInitializing","inputs":[]},{"type":"error","name":"OwnableInvalidOwner","inputs":[{"name":"owner","type":"address","internalType":"address"}]},{"type":"error","name":"OwnableUnauthorizedAccount","inputs":[{"name":"account","type":"address","internalType":"address"}]},{"type":"error","name":"ReentrancyGuardReentrantCall","inputs":[]},{"type":"error","name":"UUPSUnauthorizedCallContext","inputs":[]},{"type":"error","name":"UUPSUnsupportedProxiableUUID","inputs":[{"name":"slot","type":"bytes32","internalType":"bytes32"}]}],"bytecode":{"object":"0x60a0604052306080523480156012575f5ffd5b5060015f5560805161279b61003d5f395f8181611b3c01528181611b650152611ca4015261279b5ff3fe60806040526004361061017b575f3560e01c8063715018a6116100cd578063bb8498cf11610087578063d0940a5d11610062578063d0940a5d1461053b578063db006a751461055a578063dff5323114610579578063f2fde38b14610598575f5ffd5b8063bb8498cf14610481578063c0c53b8b146104f1578063d07ebe7e14610510575f5ffd5b8063715018a61461038b5780638da5cb5b1461039f5780639d94c878146103db578063a14a9f8f14610406578063ad3cb1cc14610425578063b602024b14610462575f5ffd5b8063460728031161013857806352d1902d1161011357806352d1902d1461030757806355a1883a1461031b5780636382d9ad1461033a5780636386c1c714610359575f5ffd5b8063460728031461029e5780634e377201146102bd5780634f1ef286146102f4575f5ffd5b806302318e531461017f57806308254f51146101b15780631959a002146101d25780632986c0e51461023b5780633a3f8239146102505780633cae51dc1461026f575b5f5ffd5b34801561018a575f5ffd5b5061019e6101993660046122a5565b6105b7565b6040519081526020015b60405180910390f35b3480156101bc575f5ffd5b506101d06101cb3660046122a5565b61078c565b005b3480156101dd575f5ffd5b506102166101ec3660046122d7565b60046020525f90815260409020805460018201546002909201546001600160a01b03909116919083565b604080516001600160a01b0390941684526020840192909252908201526060016101a8565b348015610246575f5ffd5b5061019e60085481565b34801561025b575f5ffd5b506101d061026a3660046122a5565b610848565b34801561027a575f5ffd5b5061028e6102893660046122d7565b61098c565b60405190151581526020016101a8565b3480156102a9575f5ffd5b506101d06102b83660046122fe565b6109cc565b3480156102c8575f5ffd5b506005546102dc906001600160a01b031681565b6040516001600160a01b0390911681526020016101a8565b6101d061030236600461233a565b610bcd565b348015610312575f5ffd5b5061019e610be8565b348015610326575f5ffd5b5061019e6103353660046122a5565b610c03565b348015610345575f5ffd5b506101d06103543660046123fe565b610d6a565b348015610364575f5ffd5b506103786103733660046122d7565b610e36565b6040516101a897969594939291906124c5565b348015610396575f5ffd5b506101d0611004565b3480156103aa575f5ffd5b507f9016d09d72d40fdae2fd8ceac6b6234c7706214fd39c1cd1e609a0528c199300546001600160a01b03166102dc565b3480156103e6575f5ffd5b5061019e6103f5366004612567565b60026020525f908152604090205481565b348015610411575f5ffd5b506101d06104203660046122d7565b611017565b348015610430575f5ffd5b50610455604051806040016040528060058152602001640352e302e360dc1b81525081565b6040516101a89190612580565b34801561046d575f5ffd5b506101d061047c3660046123fe565b6111b1565b34801561048c575f5ffd5b506104df61049b3660046122a5565b600360208190525f91825260409091208054600182015460028301549383015460049093015460ff808416956101009094046001600160a01b031694929392911686565b6040516101a8969594939291906125c9565b3480156104fc575f5ffd5b506101d061050b36600461261d565b611242565b34801561051b575f5ffd5b5061019e61052a366004612567565b60016020525f908152604090205481565b348015610546575f5ffd5b506007546102dc906001600160a01b031681565b348015610565575f5ffd5b506101d06105743660046122a5565b61146a565b348015610584575f5ffd5b506006546102dc906001600160a01b031681565b3480156105a3575f5ffd5b506101d06105b23660046122d7565b6115fc565b5f81815260036020526040808220815160c08101909252805483929190829060ff1660028111156105ea576105ea6125b5565b60028111156105fb576105fb6125b5565b815281546001600160a01b03610100909104811660208084019190915260018401546040840152600284015460608401526003840154608084015260049093015460ff16151560a09092019190915290820151919250166106935760405162461bcd60e51b815260206004820152600d60248201526c24b73b30b634b21037b93232b960991b60448201526064015b60405180910390fd5b5f60015f835f015160028111156106ac576106ac6125b5565b60028111156106bd576106bd6125b5565b81526020019081526020015f205490505f60025f845f015160028111156106e6576106e66125b5565b60028111156106f7576106f76125b5565b81526020019081526020015f205490505f8184604001516107189190612671565b90505f8460600151421161072c575f61073b565b606085015161073b9042612688565b9050838111156107485750825b5f846107548385612671565b61075e919061269b565b905085608001518111610771575f610780565b60808601516107809082612688565b98975050505050505050565b610794611636565b335f90815260046020526040902060018101548211156107f65760405162461bcd60e51b815260206004820152601a60248201527f496e73756666696369656e742061776172642062616c616e6365000000000000604482015260640161068a565b81816001015f8282546108099190612688565b909155505060065461083b906001600160a01b031633606461082c866050612671565b610836919061269b565b61165e565b5061084560015f55565b50565b610850611636565b5f818152600360205260409020805461010090046001600160a01b031633146108ad5760405162461bcd60e51b815260206004820152600f60248201526e2737ba1037b93232b91037bbb732b960891b604482015260640161068a565b600481015460ff16156108fb5760405162461bcd60e51b815260206004820152601660248201527513dc99195c88185b1c9958591e481c995919595b595960521b604482015260640161068a565b5f610905836105b7565b90505f811161094b5760405162461bcd60e51b81526020600482015260126024820152714e6f207969656c6420617661696c61626c6560701b604482015260640161068a565b80826003015f82825461095e91906126ba565b9091555050600754610981906001600160a01b031633606461082c856050612671565b505061084560015f55565b6005545f906001600160a01b03908116908316036109ac57506001919050565b506001600160a01b03165f90815260046020526040902060030154151590565b6109d4611636565b335f908152600460205260409020546001600160a01b0316610a385760405162461bcd60e51b815260206004820152601d60248201527f506c656173652062696e6420616e20696e76697465722066697273742e000000604482015260640161068a565b5f8111610a875760405162461bcd60e51b815260206004820152601d60248201527f416d6f756e74206d7573742062652067726561746572207468616e2030000000604482015260640161068a565b600654610a9f906001600160a01b0316333084611774565b60088054905f610aae836126cd565b91905055505f6040518060c00160405280846002811115610ad157610ad16125b5565b815233602080830182905260408084018790524260608501525f6080850181905260a0909401849052918352600481528183206008805460039283018054600181810183559188528588200191909155905485529152912082518154939450849391929091839160ff1990911690836002811115610b5157610b516125b5565b021790555060208201518154610100600160a81b0319166101006001600160a01b039092169190910217815560408201516001820155606082015160028201556080820151600382015560a0909101516004909101805460ff1916911515919091179055610bbf338361189f565b50610bc960015f55565b5050565b610bd5611b31565b610bde82611bd5565b610bc98282611bdd565b5f610bf1611c99565b505f5160206127465f395f51905f5290565b5f81815260036020526040808220815160c08101909252805483929190829060ff166002811115610c3657610c366125b5565b6002811115610c4757610c476125b5565b815281546001600160a01b03610100909104811660208084019190915260018401546040840152600284015460608401526003840154608084015260049093015460ff16151560a0909201919091529082015191925016610cda5760405162461bcd60e51b815260206004820152600d60248201526c24b73b30b634b21037b93232b960991b604482015260640161068a565b5f60015f835f01516002811115610cf357610cf36125b5565b6002811115610d0457610d046125b5565b81526020019081526020015f205490505f818360600151610d2591906126ba565b90508042101580610d485750600283516002811115610d4657610d466125b5565b145b15610d5757505f949350505050565b610d614282612688565b95945050505050565b610d72611ce2565b6001600160a01b038116610dbc5760405162461bcd60e51b8152602060048201526011602482015270125b9d985b1a59081c9958da5c1a595b9d607a1b604482015260640161068a565b6040516370a0823160e01b81523060048201525f906001600160a01b038416906370a0823190602401602060405180830381865afa158015610e00573d5f5f3e3d5ffd5b505050506040513d601f19601f82011682018060405250810190610e2491906126e5565b9050610e3183838361165e565b505050565b6001600160a01b038082165f908152600460209081526040808320815160c081018352815490951685526001810154858401526002810154858301526003810180548351818602810186019094528084529495869586956060958695869586958a95909492938588019390929190830182828015610ed157602002820191905f5260205f20905b815481526020019060010190808311610ebd575b5050505050815260200160048201805480602002602001604051908101604052809291908181526020018280548015610f3157602002820191905f5260205f20905b81546001600160a01b03168152600190910190602001808311610f13575b5050505050815260200160058201805480602002602001604051908101604052809291908181526020015f905b82821015610fba575f848152602090819020604080516080810182526004860290920180546001600160a01b03168352600180820154848601526002820154928401929092526003015460608301529083529092019101610f5e565b50505050815250509050805f015197508060200151965080604001519550806080015192508060a00151915080606001519350610ff689611d3d565b945050919395979092949650565b61100c611ce2565b6110155f611ff5565b565b6001600160a01b038116331480159061103857506001600160a01b03811615155b6110935760405162461bcd60e51b815260206004820152602660248201527f43616e6e6f742062696e6420796f757273656c66206f7220307820617320696e6044820152653b34ba32b91760d11b606482015260840161068a565b335f908152600460205260409020546001600160a01b0316156110f15760405162461bcd60e51b815260206004820152601660248201527524b73b34ba32b91030b63932b0b23c903137bab7321760511b604482015260640161068a565b6005546001600160a01b03828116911614611163576001600160a01b0381165f908152600460205260409020600301546111635760405162461bcd60e51b815260206004820152601360248201527224b73b34ba32b9103737ba1039ba30b5b2b21760691b604482015260640161068a565b335f81815260046020818152604080842080546001600160a01b039097166001600160a01b031997881681179091558452832090910180546001810182559083529120018054909216179055565b6111b9611ce2565b6001600160a01b038216158015906111d957506001600160a01b03811615155b6112145760405162461bcd60e51b815260206004820152600c60248201526b5a65726f206164647265737360a01b604482015260640161068a565b600680546001600160a01b039384166001600160a01b03199182161790915560078054929093169116179055565b5f61124b612065565b805490915060ff600160401b820416159067ffffffffffffffff165f811580156112725750825b90505f8267ffffffffffffffff16600114801561128e5750303b155b90508115801561129c575080155b156112ba5760405163f92ee8a960e01b815260040160405180910390fd5b845467ffffffffffffffff1916600117855583156112e457845460ff60401b1916600160401b1785555b6112ed3361208f565b6112f5612097565b600580546001600160a01b038a81166001600160a01b031992831617909255600680548a8416908316179055600780549289169290911691909117905562278d007fa6eef7e35abe7026729641147f7915573c7e97b47efa546f5f6e3230263bcb4955624f1a007fcc69885fda6bcc1a4ace058b4a62bf5e179ea78fd58a1ccd71c22cc9b688792f556276a7007fd9d16d34ffb15ba3a3d852f0d403e2ce1d691fb54de27ac87cd2f993f3ec330f556002602081905260647fac33ff75c19e70fe83507db0d683fd3465c996598dc972688b7ace676c89077b5560dc7fe90b7bceb6e7df5418fb78d8ee546e97c83a08bbccc01a0644d599ccd2a7c2e0555f526101907f679795a0195a1b76cdebb7c51d74e058aee92919b8c3389af86ef24535e8a28c55831561146057845460ff60401b19168555604051600181527fc7f505b2f371ae2175ee4913f4499e1f2633a7b5936321eed1cdaeb6115181d29060200160405180910390a15b5050505050505050565b611472611636565b5f818152600360205260409020805461010090046001600160a01b031633146114cf5760405162461bcd60e51b815260206004820152600f60248201526e2737ba1037b93232b91037bbb732b960891b604482015260640161068a565b600481015460ff16156115175760405162461bcd60e51b815260206004820152601060248201526f105b1c9958591e481c995919595b595960821b604482015260640161068a565b6002815460ff16600281111561152f5761152f6125b5565b0361157c5760405162461bcd60e51b815260206004820152601b60248201527f43616e6e6f742072656465656d2039302d646179206f72646572730000000000604482015260640161068a565b5f611586836105b7565b60048301805460ff1916600117905560038301805491925082915f906115ad9084906126ba565b909155505060065460018301546115d8916001600160a01b031690339060649061082c906050612671565b801561098157600754610981906001600160a01b031633606461082c856050612671565b611604611ce2565b6001600160a01b03811661162d57604051631e4fbdf760e01b81525f600482015260240161068a565b61084581611ff5565b60025f540361165857604051633ee5aeb560e01b815260040160405180910390fd5b60025f55565b604080516001600160a01b038481166024830152604480830185905283518084039091018152606490920183526020820180516001600160e01b031663a9059cbb60e01b17905291515f928392908716916116b991906126fc565b5f604051808303815f865af19150503d805f81146116f2576040519150601f19603f3d011682016040523d82523d5f602084013e6116f7565b606091505b50915091508180156117215750805115806117215750808060200190518101906117219190612712565b61176d5760405162461bcd60e51b815260206004820152601f60248201527f5472616e7366657248656c7065723a205452414e534645525f4641494c454400604482015260640161068a565b5050505050565b604080516001600160a01b0385811660248301528481166044830152606480830185905283518084039091018152608490920183526020820180516001600160e01b03166323b872dd60e01b17905291515f928392908816916117d791906126fc565b5f604051808303815f865af19150503d805f8114611810576040519150601f19603f3d011682016040523d82523d5f602084013e611815565b606091505b509150915081801561183f57508051158061183f57508080602001905181019061183f9190612712565b6118975760405162461bcd60e51b8152602060048201526024808201527f5472616e7366657248656c7065723a205452414e534645525f46524f4d5f46416044820152631253115160e21b606482015260840161068a565b505050505050565b6001600160a01b038083165f90815260046020526040902054168015610e31576001600160a01b0381165f90815260046020526040812060020180548492906118e99084906126ba565b90915550606490506118fc836008612671565b611906919061269b565b6001600160a01b0382165f90815260046020526040812060010180549091906119309084906126ba565b90915550506001600160a01b038082165f9081526004602090815260409182902082516080810184529387168452908301859052600501919081016064611978866008612671565b611982919061269b565b8152426020918201528254600180820185555f9485528285208451600493840290910180546001600160a01b0319166001600160a01b039283161781558585015192810192909255604080860151600284015560609095015160039092019190915585811685529152912054168015611b2b576001600160a01b0381165f9081526004602052604081206002018054859290611a1f9084906126ba565b9091555060649050611a32846005612671565b611a3c919061269b565b6001600160a01b0382165f9081526004602052604081206001018054909190611a669084906126ba565b9250508190555060045f826001600160a01b03166001600160a01b031681526020019081526020015f206005016040518060800160405280866001600160a01b031681526020018581526020016064866005611ac29190612671565b611acc919061269b565b8152426020918201528254600180820185555f94855293829020835160049092020180546001600160a01b0319166001600160a01b03909216919091178155908201519281019290925560408101516002830155606001516003909101555b50505050565b306001600160a01b037f0000000000000000000000000000000000000000000000000000000000000000161480611bb757507f00000000000000000000000000000000000000000000000000000000000000006001600160a01b0316611bab5f5160206127465f395f51905f52546001600160a01b031690565b6001600160a01b031614155b156110155760405163703e46dd60e11b815260040160405180910390fd5b610845611ce2565b816001600160a01b03166352d1902d6040518163ffffffff1660e01b8152600401602060405180830381865afa925050508015611c37575060408051601f3d908101601f19168201909252611c34918101906126e5565b60015b611c5f57604051634c9c8ce360e01b81526001600160a01b038316600482015260240161068a565b5f5160206127465f395f51905f528114611c8f57604051632a87526960e21b81526004810182905260240161068a565b610e31838361209f565b306001600160a01b037f000000000000000000000000000000000000000000000000000000000000000016146110155760405163703e46dd60e11b815260040160405180910390fd5b33611d147f9016d09d72d40fdae2fd8ceac6b6234c7706214fd39c1cd1e609a0528c199300546001600160a01b031690565b6001600160a01b0316146110155760405163118cdaa760e01b815233600482015260240161068a565b6001600160a01b038082165f908152600460209081526040808320815160c081018352815490951685526001810154858401526002810154858301526003810180548351818602810186019094528084526060969492938588019390929190830182828015611dc957602002820191905f5260205f20905b815481526020019060010190808311611db5575b5050505050815260200160048201805480602002602001604051908101604052809291908181526020018280548015611e2957602002820191905f5260205f20905b81546001600160a01b03168152600190910190602001808311611e0b575b5050505050815260200160058201805480602002602001604051908101604052809291908181526020015f905b82821015611eb2575f848152602090819020604080516080810182526004860290920180546001600160a01b03168352600180820154848601526002820154928401929092526003015460608301529083529092019101611e56565b505050915250506060810151519091505f805b82811015611f23575f84606001518281518110611ee457611ee4612731565b6020908102919091018101515f818152600390925260409091206004015490915060ff16611f1a5782611f16816126cd565b9350505b50600101611ec5565b505f8167ffffffffffffffff811115611f3e57611f3e612326565b604051908082528060200260200182016040528015611f67578160200160208202803683370190505b5090505f805b84811015611fe9575f86606001518281518110611f8c57611f8c612731565b6020908102919091018101515f818152600390925260409091206004015490915060ff16611fe05780848481518110611fc757611fc7612731565b602090810291909101015282611fdc816126cd565b9350505b50600101611f6d565b50909695505050505050565b7f9016d09d72d40fdae2fd8ceac6b6234c7706214fd39c1cd1e609a0528c19930080546001600160a01b031981166001600160a01b03848116918217845560405192169182907f8be0079c531659141344cd1fd0a4f28419497f9722a3daafe3b4186f6b6457e0905f90a3505050565b5f807ff0c57e16840df040f15088dc2f81fe391c3923bec73e23a9662efc9c229c6a005b92915050565b6116046120f4565b6110156120f4565b6120a882612119565b6040516001600160a01b038316907fbc7cd75a20ee27fd9adebab32041f755214dbc6bffa90cc0225b39da2e5c2d3b905f90a28051156120ec57610e31828261217c565b610bc96121e5565b6120fc612204565b61101557604051631afcd79f60e31b815260040160405180910390fd5b806001600160a01b03163b5f0361214e57604051634c9c8ce360e01b81526001600160a01b038216600482015260240161068a565b5f5160206127465f395f51905f5280546001600160a01b0319166001600160a01b0392909216919091179055565b60605f5f846001600160a01b03168460405161219891906126fc565b5f60405180830381855af49150503d805f81146121d0576040519150601f19603f3d011682016040523d82523d5f602084013e6121d5565b606091505b5091509150610d6185838361221d565b34156110155760405163b398979f60e01b815260040160405180910390fd5b5f61220d612065565b54600160401b900460ff16919050565b6060826122325761222d8261227c565b612275565b815115801561224957506001600160a01b0384163b155b1561227257604051639996b31560e01b81526001600160a01b038516600482015260240161068a565b50805b9392505050565b80511561228c5780518082602001fd5b60405163d6bda27560e01b815260040160405180910390fd5b5f602082840312156122b5575f5ffd5b5035919050565b80356001600160a01b03811681146122d2575f5ffd5b919050565b5f602082840312156122e7575f5ffd5b612275826122bc565b8035600381106122d2575f5ffd5b5f5f6040838503121561230f575f5ffd5b612318836122f0565b946020939093013593505050565b634e487b7160e01b5f52604160045260245ffd5b5f5f6040838503121561234b575f5ffd5b612354836122bc565b9150602083013567ffffffffffffffff81111561236f575f5ffd5b8301601f8101851361237f575f5ffd5b803567ffffffffffffffff81111561239957612399612326565b604051601f8201601f19908116603f0116810167ffffffffffffffff811182821017156123c8576123c8612326565b6040528181528282016020018710156123df575f5ffd5b816020840160208301375f602083830101528093505050509250929050565b5f5f6040838503121561240f575f5ffd5b612418836122bc565b9150612426602084016122bc565b90509250929050565b5f8151808452602084019350602083015f5b8281101561245f578151865260209586019590910190600101612441565b5093949350505050565b5f8151808452602084019350602083015f5b8281101561245f57815180516001600160a01b031687526020808201518189015260408083015190890152606091820151918801919091526080909601959091019060010161247b565b60018060a01b038816815286602082015285604082015260e060608201525f6124f160e083018761242f565b8281036080840152612503818761242f565b83810360a0850152855180825260208088019350909101905f5b818110156125445783516001600160a01b031683526020938401939092019160010161251d565b505083810360c08501526125588186612469565b9b9a5050505050505050505050565b5f60208284031215612577575f5ffd5b612275826122f0565b602081525f82518060208401528060208501604085015e5f604082850101526040601f19601f83011684010191505092915050565b634e487b7160e01b5f52602160045260245ffd5b60c08101600388106125e957634e487b7160e01b5f52602160045260245ffd5b9681526001600160a01b03959095166020860152604085019390935260608401919091526080830152151560a09091015290565b5f5f5f6060848603121561262f575f5ffd5b612638846122bc565b9250612646602085016122bc565b9150612654604085016122bc565b90509250925092565b634e487b7160e01b5f52601160045260245ffd5b80820281158282048414176120895761208961265d565b818103818111156120895761208961265d565b5f826126b557634e487b7160e01b5f52601260045260245ffd5b500490565b808201808211156120895761208961265d565b5f600182016126de576126de61265d565b5060010190565b5f602082840312156126f5575f5ffd5b5051919050565b5f82518060208501845e5f920191825250919050565b5f60208284031215612722575f5ffd5b81518015158114612275575f5ffd5b634e487b7160e01b5f52603260045260245ffdfe360894a13ba1a3210667c828492db98dca3e2076cc3735a920a3ca505d382bbca2646970667358221220edab2ab8ba8748a21b311e80835854b6d97f856a061d40469f6208d262bf19b264736f6c634300081c0033","linkReferences":{}},"methodIdentifiers":{"UPGRADE_INTERFACE_VERSION()":"ad3cb1cc","best()":"d0940a5d","bindInviter(address)":"a14a9f8f","claimAward(uint256)":"08254f51","claimOrder(uint256)":"3a3f8239","emergencyWithdraw(address,address)":"6382d9ad","expiredTime(uint8)":"d07ebe7e","getOrderCountdown(uint256)":"55a1883a","getOrderRealTimeYield(uint256)":"02318e53","getUserInfo(address)":"6386c1c7","index()":"2986c0e5","initialInviter()":"4e377201","initialize(address,address,address)":"c0c53b8b","isValidInviter(address)":"3cae51dc","love()":"dff53231","owner()":"8da5cb5b","proxiableUUID()":"52d1902d","redeem(uint256)":"db006a75","renounceOwnership()":"715018a6","setConfig(address,address)":"b602024b","staking(uint8,uint256)":"46072803","stakingOrderInfo(uint256)":"bb8498cf","transferOwnership(address)":"f2fde38b","upgradeToAndCall(address,bytes)":"4f1ef286","userInfo(address)":"1959a002","yieldRate(uint8)":"9d94c878"},"id":37}