{"abi":[{"type":"function","name":"UPGRADE_INTERFACE_VERSION","inputs":[],"outputs":[{"name":"","type":"string","internalType":"string"}],"stateMutability":"view"},{"type":"function","name":"best","inputs":[],"outputs":[{"name":"","type":"address","internalType":"address"}],"stateMutability":"view"},{"type":"function","name":"bindInviter","inputs":[{"name":"_inviter","type":"address","internalType":"address"}],"outputs":[],"stateMutability":"nonpayable"},{"type":"function","name":"claimAward","inputs":[{"name":"_amount","type":"uint256","internalType":"uint256"}],"outputs":[],"stateMutability":"nonpayable"},{"type":"function","name":"claimOrder","inputs":[{"name":"_orderIndex","type":"uint256","internalType":"uint256"}],"outputs":[],"stateMutability":"nonpayable"},{"type":"function","name":"expiredTime","inputs":[{"name":"","type":"uint8","internalType":"enum IStaking.Expired"}],"outputs":[{"name":"","type":"uint256","internalType":"uint256"}],"stateMutability":"view"},{"type":"function","name":"getOrderCountdown","inputs":[{"name":"_orderIndex","type":"uint256","internalType":"uint256"}],"outputs":[{"name":"","type":"uint256","internalType":"uint256"}],"stateMutability":"view"},{"type":"function","name":"getOrderRealTimeYield","inputs":[{"name":"_orderIndex","type":"uint256","internalType":"uint256"}],"outputs":[{"name":"","type":"uint256","internalType":"uint256"}],"stateMutability":"view"},{"type":"function","name":"getUserInfo","inputs":[{"name":"_user","type":"address","internalType":"address"}],"outputs":[{"name":"_inviter","type":"address","internalType":"address"},{"name":"_award","type":"uint256","internalType":"uint256"},{"name":"_validOrderIndexes","type":"uint256[]","internalType":"uint256[]"},{"name":"_allOrderIndexes","type":"uint256[]","internalType":"uint256[]"},{"name":"_invitees","type":"address[]","internalType":"address[]"},{"name":"_awardRecords","type":"tuple[]","internalType":"struct IStaking.AwardRecord[]","components":[{"name":"invitee","type":"address","internalType":"address"},{"name":"stakingAmount","type":"uint256","internalType":"uint256"},{"name":"awardAmount","type":"uint256","internalType":"uint256"},{"name":"awardTime","type":"uint256","internalType":"uint256"}]}],"stateMutability":"view"},{"type":"function","name":"index","inputs":[],"outputs":[{"name":"","type":"uint256","internalType":"uint256"}],"stateMutability":"view"},{"type":"function","name":"initialInviter","inputs":[],"outputs":[{"name":"","type":"address","internalType":"address"}],"stateMutability":"view"},{"type":"function","name":"initialize","inputs":[{"name":"_initialInviter","type":"address","internalType":"address"},{"name":"_love","type":"address","internalType":"address"},{"name":"_best","type":"address","internalType":"address"}],"outputs":[],"stateMutability":"nonpayable"},{"type":"function","name":"love","inputs":[],"outputs":[{"name":"","type":"address","internalType":"address"}],"stateMutability":"view"},{"type":"function","name":"owner","inputs":[],"outputs":[{"name":"","type":"address","internalType":"address"}],"stateMutability":"view"},{"type":"function","name":"proxiableUUID","inputs":[],"outputs":[{"name":"","type":"bytes32","internalType":"bytes32"}],"stateMutability":"view"},{"type":"function","name":"redeem","inputs":[{"name":"_orderIndex","type":"uint256","internalType":"uint256"}],"outputs":[],"stateMutability":"nonpayable"},{"type":"function","name":"renounceOwnership","inputs":[],"outputs":[],"stateMutability":"nonpayable"},{"type":"function","name":"setConfig","inputs":[{"name":"_love","type":"address","internalType":"address"},{"name":"_best","type":"address","internalType":"address"}],"outputs":[],"stateMutability":"nonpayable"},{"type":"function","name":"staking","inputs":[{"name":"_expired","type":"uint8","internalType":"enum IStaking.Expired"},{"name":"_amountLove","type":"uint256","internalType":"uint256"}],"outputs":[],"stateMutability":"nonpayable"},{"type":"function","name":"stakingOrderInfo","inputs":[{"name":"","type":"uint256","internalType":"uint256"}],"outputs":[{"name":"expired","type":"uint8","internalType":"enum IStaking.Expired"},{"name":"holder","type":"address","internalType":"address"},{"name":"amount","type":"uint256","internalType":"uint256"},{"name":"stakingTime","type":"uint256","internalType":"uint256"},{"name":"extracted","type":"uint256","internalType":"uint256"},{"name":"isRedeemed","type":"bool","internalType":"bool"}],"stateMutability":"view"},{"type":"function","name":"transferOwnership","inputs":[{"name":"newOwner","type":"address","internalType":"address"}],"outputs":[],"stateMutability":"nonpayable"},{"type":"function","name":"upgradeToAndCall","inputs":[{"name":"newImplementation","type":"address","internalType":"address"},{"name":"data","type":"bytes","internalType":"bytes"}],"outputs":[],"stateMutability":"payable"},{"type":"function","name":"userInfo","inputs":[{"name":"","type":"address","internalType":"address"}],"outputs":[{"name":"inviter","type":"address","internalType":"address"},{"name":"award","type":"uint256","internalType":"uint256"}],"stateMutability":"view"},{"type":"function","name":"yieldRate","inputs":[{"name":"","type":"uint8","internalType":"enum IStaking.Expired"}],"outputs":[{"name":"","type":"uint256","internalType":"uint256"}],"stateMutability":"view"},{"type":"event","name":"Initialized","inputs":[{"name":"version","type":"uint64","indexed":false,"internalType":"uint64"}],"anonymous":false},{"type":"event","name":"OwnershipTransferred","inputs":[{"name":"previousOwner","type":"address","indexed":true,"internalType":"address"},{"name":"newOwner","type":"address","indexed":true,"internalType":"address"}],"anonymous":false},{"type":"event","name":"Upgraded","inputs":[{"name":"implementation","type":"address","indexed":true,"internalType":"address"}],"anonymous":false},{"type":"error","name":"AddressEmptyCode","inputs":[{"name":"target","type":"address","internalType":"address"}]},{"type":"error","name":"ERC1967InvalidImplementation","inputs":[{"name":"implementation","type":"address","internalType":"address"}]},{"type":"error","name":"ERC1967NonPayable","inputs":[]},{"type":"error","name":"FailedCall","inputs":[]},{"type":"error","name":"InvalidInitialization","inputs":[]},{"type":"error","name":"NotInitializing","inputs":[]},{"type":"error","name":"OwnableInvalidOwner","inputs":[{"name":"owner","type":"address","internalType":"address"}]},{"type":"error","name":"OwnableUnauthorizedAccount","inputs":[{"name":"account","type":"address","internalType":"address"}]},{"type":"error","name":"ReentrancyGuardReentrantCall","inputs":[]},{"type":"error","name":"UUPSUnauthorizedCallContext","inputs":[]},{"type":"error","name":"UUPSUnsupportedProxiableUUID","inputs":[{"name":"slot","type":"bytes32","internalType":"bytes32"}]}],"bytecode":{"object":"0x60a0604052306080523480156012575f5ffd5b5060015f5560805161256261003d5f395f81816119150152818161193e0152611a7d01526125625ff3fe608060405260043610610147575f3560e01c80638da5cb5b116100b3578063c0c53b8b1161006d578063c0c53b8b14610462578063d07ebe7e14610481578063d0940a5d146104ac578063db006a75146104cb578063dff53231146104ea578063f2fde38b14610509575f5ffd5b80638da5cb5b146103105780639d94c8781461034c578063a14a9f8f14610377578063ad3cb1cc14610396578063b602024b146103d3578063bb8498cf146103f2575f5ffd5b80634e377201116101045780634e3772011461024e5780634f1ef2861461028557806352d1902d1461029857806355a1883a146102ac5780636386c1c7146102cb578063715018a6146102fc575f5ffd5b806302318e531461014b57806308254f511461017d5780631959a0021461019e5780632986c0e5146101fb5780633a3f823914610210578063460728031461022f575b5f5ffd5b348015610156575f5ffd5b5061016a610165366004612073565b610528565b6040519081526020015b60405180910390f35b348015610188575f5ffd5b5061019c610197366004612073565b6106fd565b005b3480156101a9575f5ffd5b506101dc6101b83660046120a5565b60046020525f9081526040902080546001909101546001600160a01b039091169082565b604080516001600160a01b039093168352602083019190915201610174565b348015610206575f5ffd5b5061016a60085481565b34801561021b575f5ffd5b5061019c61022a366004612073565b6107b9565b34801561023a575f5ffd5b5061019c6102493660046120cc565b6108fd565b348015610259575f5ffd5b5060055461026d906001600160a01b031681565b6040516001600160a01b039091168152602001610174565b61019c610293366004612108565b610b01565b3480156102a3575f5ffd5b5061016a610b1c565b3480156102b7575f5ffd5b5061016a6102c6366004612073565b610b37565b3480156102d6575f5ffd5b506102ea6102e53660046120a5565b610c9e565b60405161017496959493929190612262565b348015610307575f5ffd5b5061019c610e54565b34801561031b575f5ffd5b507f9016d09d72d40fdae2fd8ceac6b6234c7706214fd39c1cd1e609a0528c199300546001600160a01b031661026d565b348015610357575f5ffd5b5061016a6103663660046122fd565b60026020525f908152604090205481565b348015610382575f5ffd5b5061019c6103913660046120a5565b610e67565b3480156103a1575f5ffd5b506103c6604051806040016040528060058152602001640352e302e360dc1b81525081565b6040516101749190612316565b3480156103de575f5ffd5b5061019c6103ed36600461234b565b611001565b3480156103fd575f5ffd5b5061045061040c366004612073565b600360208190525f91825260409091208054600182015460028301549383015460049093015460ff808416956101009094046001600160a01b031694929392911686565b60405161017496959493929190612390565b34801561046d575f5ffd5b5061019c61047c3660046123e4565b611092565b34801561048c575f5ffd5b5061016a61049b3660046122fd565b60016020525f908152604090205481565b3480156104b7575f5ffd5b5060075461026d906001600160a01b031681565b3480156104d6575f5ffd5b5061019c6104e5366004612073565b6112ba565b3480156104f5575f5ffd5b5060065461026d906001600160a01b031681565b348015610514575f5ffd5b5061019c6105233660046120a5565b61144c565b5f81815260036020526040808220815160c08101909252805483929190829060ff16600281111561055b5761055b61237c565b600281111561056c5761056c61237c565b815281546001600160a01b03610100909104811660208084019190915260018401546040840152600284015460608401526003840154608084015260049093015460ff16151560a09092019190915290820151919250166106045760405162461bcd60e51b815260206004820152600d60248201526c24b73b30b634b21037b93232b960991b60448201526064015b60405180910390fd5b5f60015f835f0151600281111561061d5761061d61237c565b600281111561062e5761062e61237c565b81526020019081526020015f205490505f60025f845f015160028111156106575761065761237c565b60028111156106685761066861237c565b81526020019081526020015f205490505f8184604001516106899190612438565b90505f8460600151421161069d575f6106ac565b60608501516106ac904261244f565b9050838111156106b95750825b5f846106c58385612438565b6106cf9190612462565b9050856080015181116106e2575f6106f1565b60808601516106f1908261244f565b98975050505050505050565b610705611486565b335f90815260046020526040902060018101548211156107675760405162461bcd60e51b815260206004820152601a60248201527f496e73756666696369656e742061776172642062616c616e636500000000000060448201526064016105fb565b81816001015f82825461077a919061244f565b90915550506006546107ac906001600160a01b031633606461079d866050612438565b6107a79190612462565b6114ae565b506107b660015f55565b50565b6107c1611486565b5f818152600360205260409020805461010090046001600160a01b0316331461081e5760405162461bcd60e51b815260206004820152600f60248201526e2737ba1037b93232b91037bbb732b960891b60448201526064016105fb565b600481015460ff161561086c5760405162461bcd60e51b815260206004820152601660248201527513dc99195c88185b1c9958591e481c995919595b595960521b60448201526064016105fb565b5f61087683610528565b90505f81116108bc5760405162461bcd60e51b81526020600482015260126024820152714e6f207969656c6420617661696c61626c6560701b60448201526064016105fb565b80826003015f8282546108cf9190612481565b90915550506007546108f2906001600160a01b031633606461079d856050612438565b50506107b660015f55565b610905611486565b335f908152600460205260409020546001600160a01b03166109695760405162461bcd60e51b815260206004820152601d60248201527f506c656173652062696e6420616e20696e76697465722066697273742e00000060448201526064016105fb565b5f81116109b85760405162461bcd60e51b815260206004820152601d60248201527f416d6f756e74206d7573742062652067726561746572207468616e203000000060448201526064016105fb565b6006546109d0906001600160a01b03163330846115c4565b60088054905f6109df83612494565b91905055505f6040518060c00160405280846002811115610a0257610a0261237c565b815233602080830182905260408084018790524260608501525f6080850181905260a09094018490529183526004815281832060088054600292830180546001818101835591885285882001919091559054855260039092529190922083518154949550859491939092849260ff191691908490811115610a8557610a8561237c565b021790555060208201518154610100600160a81b0319166101006001600160a01b039092169190910217815560408201516001820155606082015160028201556080820151600382015560a0909101516004909101805460ff1916911515919091179055610af333836116ef565b50610afd60015f55565b5050565b610b0961190a565b610b12826119ae565b610afd82826119b6565b5f610b25611a72565b505f51602061250d5f395f51905f5290565b5f81815260036020526040808220815160c08101909252805483929190829060ff166002811115610b6a57610b6a61237c565b6002811115610b7b57610b7b61237c565b815281546001600160a01b03610100909104811660208084019190915260018401546040840152600284015460608401526003840154608084015260049093015460ff16151560a0909201919091529082015191925016610c0e5760405162461bcd60e51b815260206004820152600d60248201526c24b73b30b634b21037b93232b960991b60448201526064016105fb565b5f60015f835f01516002811115610c2757610c2761237c565b6002811115610c3857610c3861237c565b81526020019081526020015f205490505f818360600151610c599190612481565b90508042101580610c7c5750600283516002811115610c7a57610c7a61237c565b145b15610c8b57505f949350505050565b610c95428261244f565b95945050505050565b6001600160a01b038082165f908152600460209081526040808320815160a081018352815490951685526001810154858401526002810180548351818602810186018552818152959687966060968796879687968b96919492860193909190830182828015610d2a57602002820191905f5260205f20905b815481526020019060010190808311610d16575b5050505050815260200160038201805480602002602001604051908101604052809291908181526020018280548015610d8a57602002820191905f5260205f20905b81546001600160a01b03168152600190910190602001808311610d6c575b5050505050815260200160048201805480602002602001604051908101604052809291908181526020015f905b82821015610e13575f848152602090819020604080516080810182526004860290920180546001600160a01b03168352600180820154848601526002820154928401929092526003015460608301529083529092019101610db7565b50505050815250509050805f0151965080602001519550806060015192508060800151915080604001519350610e4888611abb565b94505091939550919395565b610e5c611d68565b610e655f611dc3565b565b6001600160a01b0381163314801590610e8857506001600160a01b03811615155b610ee35760405162461bcd60e51b815260206004820152602660248201527f43616e6e6f742062696e6420796f757273656c66206f7220307820617320696e6044820152653b34ba32b91760d11b60648201526084016105fb565b335f908152600460205260409020546001600160a01b031615610f415760405162461bcd60e51b815260206004820152601660248201527524b73b34ba32b91030b63932b0b23c903137bab7321760511b60448201526064016105fb565b6005546001600160a01b03828116911614610fb3576001600160a01b0381165f90815260046020526040902060020154610fb35760405162461bcd60e51b815260206004820152601360248201527224b73b34ba32b9103737ba1039ba30b5b2b21760691b60448201526064016105fb565b335f81815260046020908152604080832080546001600160a01b039096166001600160a01b031996871681179091558352822060030180546001810182559083529120018054909216179055565b611009611d68565b6001600160a01b0382161580159061102957506001600160a01b03811615155b6110645760405162461bcd60e51b815260206004820152600c60248201526b5a65726f206164647265737360a01b60448201526064016105fb565b600680546001600160a01b039384166001600160a01b03199182161790915560078054929093169116179055565b5f61109b611e33565b805490915060ff600160401b820416159067ffffffffffffffff165f811580156110c25750825b90505f8267ffffffffffffffff1660011480156110de5750303b155b9050811580156110ec575080155b1561110a5760405163f92ee8a960e01b815260040160405180910390fd5b845467ffffffffffffffff19166001178555831561113457845460ff60401b1916600160401b1785555b61113d33611e5d565b611145611e65565b600580546001600160a01b038a81166001600160a01b031992831617909255600680548a8416908316179055600780549289169290911691909117905562278d007fa6eef7e35abe7026729641147f7915573c7e97b47efa546f5f6e3230263bcb4955624f1a007fcc69885fda6bcc1a4ace058b4a62bf5e179ea78fd58a1ccd71c22cc9b688792f556276a7007fd9d16d34ffb15ba3a3d852f0d403e2ce1d691fb54de27ac87cd2f993f3ec330f556002602081905260647fac33ff75c19e70fe83507db0d683fd3465c996598dc972688b7ace676c89077b5560dc7fe90b7bceb6e7df5418fb78d8ee546e97c83a08bbccc01a0644d599ccd2a7c2e0555f526101907f679795a0195a1b76cdebb7c51d74e058aee92919b8c3389af86ef24535e8a28c5583156112b057845460ff60401b19168555604051600181527fc7f505b2f371ae2175ee4913f4499e1f2633a7b5936321eed1cdaeb6115181d29060200160405180910390a15b5050505050505050565b6112c2611486565b5f818152600360205260409020805461010090046001600160a01b0316331461131f5760405162461bcd60e51b815260206004820152600f60248201526e2737ba1037b93232b91037bbb732b960891b60448201526064016105fb565b600481015460ff16156113675760405162461bcd60e51b815260206004820152601060248201526f105b1c9958591e481c995919595b595960821b60448201526064016105fb565b6002815460ff16600281111561137f5761137f61237c565b036113cc5760405162461bcd60e51b815260206004820152601b60248201527f43616e6e6f742072656465656d2039302d646179206f7264657273000000000060448201526064016105fb565b5f6113d683610528565b60048301805460ff1916600117905560038301805491925082915f906113fd908490612481565b90915550506006546001830154611428916001600160a01b031690339060649061079d906050612438565b80156108f2576007546108f2906001600160a01b031633606461079d856050612438565b611454611d68565b6001600160a01b03811661147d57604051631e4fbdf760e01b81525f60048201526024016105fb565b6107b681611dc3565b60025f54036114a857604051633ee5aeb560e01b815260040160405180910390fd5b60025f55565b604080516001600160a01b038481166024830152604480830185905283518084039091018152606490920183526020820180516001600160e01b031663a9059cbb60e01b17905291515f9283929087169161150991906124ac565b5f604051808303815f865af19150503d805f8114611542576040519150601f19603f3d011682016040523d82523d5f602084013e611547565b606091505b509150915081801561157157508051158061157157508080602001905181019061157191906124c2565b6115bd5760405162461bcd60e51b815260206004820152601f60248201527f5472616e7366657248656c7065723a205452414e534645525f4641494c45440060448201526064016105fb565b5050505050565b604080516001600160a01b0385811660248301528481166044830152606480830185905283518084039091018152608490920183526020820180516001600160e01b03166323b872dd60e01b17905291515f9283929088169161162791906124ac565b5f604051808303815f865af19150503d805f8114611660576040519150601f19603f3d011682016040523d82523d5f602084013e611665565b606091505b509150915081801561168f57508051158061168f57508080602001905181019061168f91906124c2565b6116e75760405162461bcd60e51b8152602060048201526024808201527f5472616e7366657248656c7065723a205452414e534645525f46524f4d5f46416044820152631253115160e21b60648201526084016105fb565b505050505050565b6001600160a01b038083165f9081526004602052604090205416801561190557606461171c836008612438565b6117269190612462565b6001600160a01b0382165f9081526004602052604081206001018054909190611750908490612481565b90915550506001600160a01b038082165f908152600460208181526040928390208351608081018552948816855290840186905201919081016064611796866008612438565b6117a09190612462565b8152426020918201528254600180820185555f9485528285208451600493840290910180546001600160a01b0319166001600160a01b039283161781558585015192810192909255604080860151600284015560609095015160039092019190915585811685529152912054168015611903576064611820846005612438565b61182a9190612462565b6001600160a01b0382165f9081526004602052604081206001018054909190611854908490612481565b90915550506001600160a01b038082165f90815260046020818152604092839020835160808101855294891685529084018790520191908101606461189a876005612438565b6118a49190612462565b8152426020918201528254600180820185555f94855293829020835160049092020180546001600160a01b0319166001600160a01b03909216919091178155908201519281019290925560408101516002830155606001516003909101555b505b505050565b306001600160a01b037f000000000000000000000000000000000000000000000000000000000000000016148061199057507f00000000000000000000000000000000000000000000000000000000000000006001600160a01b03166119845f51602061250d5f395f51905f52546001600160a01b031690565b6001600160a01b031614155b15610e655760405163703e46dd60e11b815260040160405180910390fd5b6107b6611d68565b816001600160a01b03166352d1902d6040518163ffffffff1660e01b8152600401602060405180830381865afa925050508015611a10575060408051601f3d908101601f19168201909252611a0d918101906124e1565b60015b611a3857604051634c9c8ce360e01b81526001600160a01b03831660048201526024016105fb565b5f51602061250d5f395f51905f528114611a6857604051632a87526960e21b8152600481018290526024016105fb565b6119058383611e6d565b306001600160a01b037f00000000000000000000000000000000000000000000000000000000000000001614610e655760405163703e46dd60e11b815260040160405180910390fd5b6001600160a01b038082165f908152600460209081526040808320815160a08101835281549095168552600181015485840152600281018054835181860281018601855281815260609795939486019390929190830182828015611b3c57602002820191905f5260205f20905b815481526020019060010190808311611b28575b5050505050815260200160038201805480602002602001604051908101604052809291908181526020018280548015611b9c57602002820191905f5260205f20905b81546001600160a01b03168152600190910190602001808311611b7e575b5050505050815260200160048201805480602002602001604051908101604052809291908181526020015f905b82821015611c25575f848152602090819020604080516080810182526004860290920180546001600160a01b03168352600180820154848601526002820154928401929092526003015460608301529083529092019101611bc9565b505050915250506040810151519091505f805b82811015611c96575f84604001518281518110611c5757611c576124f8565b6020908102919091018101515f818152600390925260409091206004015490915060ff16611c8d5782611c8981612494565b9350505b50600101611c38565b505f8167ffffffffffffffff811115611cb157611cb16120f4565b604051908082528060200260200182016040528015611cda578160200160208202803683370190505b5090505f805b84811015611d5c575f86604001518281518110611cff57611cff6124f8565b6020908102919091018101515f818152600390925260409091206004015490915060ff16611d535780848481518110611d3a57611d3a6124f8565b602090810291909101015282611d4f81612494565b9350505b50600101611ce0565b50909695505050505050565b33611d9a7f9016d09d72d40fdae2fd8ceac6b6234c7706214fd39c1cd1e609a0528c199300546001600160a01b031690565b6001600160a01b031614610e655760405163118cdaa760e01b81523360048201526024016105fb565b7f9016d09d72d40fdae2fd8ceac6b6234c7706214fd39c1cd1e609a0528c19930080546001600160a01b031981166001600160a01b03848116918217845560405192169182907f8be0079c531659141344cd1fd0a4f28419497f9722a3daafe3b4186f6b6457e0905f90a3505050565b5f807ff0c57e16840df040f15088dc2f81fe391c3923bec73e23a9662efc9c229c6a005b92915050565b611454611ec2565b610e65611ec2565b611e7682611ee7565b6040516001600160a01b038316907fbc7cd75a20ee27fd9adebab32041f755214dbc6bffa90cc0225b39da2e5c2d3b905f90a2805115611eba576119058282611f4a565b610afd611fb3565b611eca611fd2565b610e6557604051631afcd79f60e31b815260040160405180910390fd5b806001600160a01b03163b5f03611f1c57604051634c9c8ce360e01b81526001600160a01b03821660048201526024016105fb565b5f51602061250d5f395f51905f5280546001600160a01b0319166001600160a01b0392909216919091179055565b60605f5f846001600160a01b031684604051611f6691906124ac565b5f60405180830381855af49150503d805f8114611f9e576040519150601f19603f3d011682016040523d82523d5f602084013e611fa3565b606091505b5091509150610c95858383611feb565b3415610e655760405163b398979f60e01b815260040160405180910390fd5b5f611fdb611e33565b54600160401b900460ff16919050565b60608261200057611ffb8261204a565b612043565b815115801561201757506001600160a01b0384163b155b1561204057604051639996b31560e01b81526001600160a01b03851660048201526024016105fb565b50805b9392505050565b80511561205a5780518082602001fd5b60405163d6bda27560e01b815260040160405180910390fd5b5f60208284031215612083575f5ffd5b5035919050565b80356001600160a01b03811681146120a0575f5ffd5b919050565b5f602082840312156120b5575f5ffd5b6120438261208a565b8035600381106120a0575f5ffd5b5f5f604083850312156120dd575f5ffd5b6120e6836120be565b946020939093013593505050565b634e487b7160e01b5f52604160045260245ffd5b5f5f60408385031215612119575f5ffd5b6121228361208a565b9150602083013567ffffffffffffffff81111561213d575f5ffd5b8301601f8101851361214d575f5ffd5b803567ffffffffffffffff811115612167576121676120f4565b604051601f8201601f19908116603f0116810167ffffffffffffffff81118282101715612196576121966120f4565b6040528181528282016020018710156121ad575f5ffd5b816020840160208301375f602083830101528093505050509250929050565b5f8151808452602084019350602083015f5b828110156121fc5781518652602095860195909101906001016121de565b5093949350505050565b5f8151808452602084019350602083015f5b828110156121fc57815180516001600160a01b0316875260208082015181890152604080830151908901526060918201519188019190915260809096019590910190600101612218565b60018060a01b038716815285602082015260c060408201525f61228860c08301876121cc565b828103606084015261229a81876121cc565b8381036080850152855180825260208088019350909101905f5b818110156122db5783516001600160a01b03168352602093840193909201916001016122b4565b505083810360a08501526122ef8186612206565b9a9950505050505050505050565b5f6020828403121561230d575f5ffd5b612043826120be565b602081525f82518060208401528060208501604085015e5f604082850101526040601f19601f83011684010191505092915050565b5f5f6040838503121561235c575f5ffd5b6123658361208a565b91506123736020840161208a565b90509250929050565b634e487b7160e01b5f52602160045260245ffd5b60c08101600388106123b057634e487b7160e01b5f52602160045260245ffd5b9681526001600160a01b03959095166020860152604085019390935260608401919091526080830152151560a09091015290565b5f5f5f606084860312156123f6575f5ffd5b6123ff8461208a565b925061240d6020850161208a565b915061241b6040850161208a565b90509250925092565b634e487b7160e01b5f52601160045260245ffd5b8082028115828204841417611e5757611e57612424565b81810381811115611e5757611e57612424565b5f8261247c57634e487b7160e01b5f52601260045260245ffd5b500490565b80820180821115611e5757611e57612424565b5f600182016124a5576124a5612424565b5060010190565b5f82518060208501845e5f920191825250919050565b5f602082840312156124d2575f5ffd5b81518015158114612043575f5ffd5b5f602082840312156124f1575f5ffd5b5051919050565b634e487b7160e01b5f52603260045260245ffdfe360894a13ba1a3210667c828492db98dca3e2076cc3735a920a3ca505d382bbca26469706673582212209e1eee705bcca946d2bb2a4b18b1fdaec528b1ca6764c354e44a0dbd9a8d343b64736f6c634300081c0033","linkReferences":{}},"methodIdentifiers":{"UPGRADE_INTERFACE_VERSION()":"ad3cb1cc","best()":"d0940a5d","bindInviter(address)":"a14a9f8f","claimAward(uint256)":"08254f51","claimOrder(uint256)":"3a3f8239","expiredTime(uint8)":"d07ebe7e","getOrderCountdown(uint256)":"55a1883a","getOrderRealTimeYield(uint256)":"02318e53","getUserInfo(address)":"6386c1c7","index()":"2986c0e5","initialInviter()":"4e377201","initialize(address,address,address)":"c0c53b8b","love()":"dff53231","owner()":"8da5cb5b","proxiableUUID()":"52d1902d","redeem(uint256)":"db006a75","renounceOwnership()":"715018a6","setConfig(address,address)":"b602024b","staking(uint8,uint256)":"46072803","stakingOrderInfo(uint256)":"bb8498cf","transferOwnership(address)":"f2fde38b","upgradeToAndCall(address,bytes)":"4f1ef286","userInfo(address)":"1959a002","yieldRate(uint8)":"9d94c878"},"id":30}