{"abi":[{"type":"function","name":"UPGRADE_INTERFACE_VERSION","inputs":[],"outputs":[{"name":"","type":"string","internalType":"string"}],"stateMutability":"view"},{"type":"function","name":"best","inputs":[],"outputs":[{"name":"","type":"address","internalType":"address"}],"stateMutability":"view"},{"type":"function","name":"bindInviter","inputs":[{"name":"_inviter","type":"address","internalType":"address"}],"outputs":[],"stateMutability":"nonpayable"},{"type":"function","name":"claimAward","inputs":[{"name":"_amount","type":"uint256","internalType":"uint256"}],"outputs":[],"stateMutability":"nonpayable"},{"type":"function","name":"claimOrder","inputs":[{"name":"_orderIndex","type":"uint256","internalType":"uint256"}],"outputs":[],"stateMutability":"nonpayable"},{"type":"function","name":"expiredTime","inputs":[{"name":"","type":"uint8","internalType":"enum IStaking.Expired"}],"outputs":[{"name":"","type":"uint256","internalType":"uint256"}],"stateMutability":"view"},{"type":"function","name":"getOrderCountdown","inputs":[{"name":"_orderIndex","type":"uint256","internalType":"uint256"}],"outputs":[{"name":"","type":"uint256","internalType":"uint256"}],"stateMutability":"view"},{"type":"function","name":"getOrderRealTimeYield","inputs":[{"name":"_orderIndex","type":"uint256","internalType":"uint256"}],"outputs":[{"name":"","type":"uint256","internalType":"uint256"}],"stateMutability":"view"},{"type":"function","name":"getUserInfo","inputs":[{"name":"_user","type":"address","internalType":"address"}],"outputs":[{"name":"_inviter","type":"address","internalType":"address"},{"name":"_award","type":"uint256","internalType":"uint256"},{"name":"_validOrderIndexes","type":"uint256[]","internalType":"uint256[]"},{"name":"_allOrderIndexes","type":"uint256[]","internalType":"uint256[]"},{"name":"_invitees","type":"address[]","internalType":"address[]"},{"name":"_awardRecords","type":"tuple[]","internalType":"struct IStaking.AwardRecord[]","components":[{"name":"invitee","type":"address","internalType":"address"},{"name":"stakingAmount","type":"uint256","internalType":"uint256"},{"name":"awardAmount","type":"uint256","internalType":"uint256"},{"name":"awardTime","type":"uint256","internalType":"uint256"}]}],"stateMutability":"view"},{"type":"function","name":"index","inputs":[],"outputs":[{"name":"","type":"uint256","internalType":"uint256"}],"stateMutability":"view"},{"type":"function","name":"initialInviter","inputs":[],"outputs":[{"name":"","type":"address","internalType":"address"}],"stateMutability":"view"},{"type":"function","name":"initialize","inputs":[{"name":"_initialInviter","type":"address","internalType":"address"},{"name":"_love","type":"address","internalType":"address"},{"name":"_best","type":"address","internalType":"address"}],"outputs":[],"stateMutability":"nonpayable"},{"type":"function","name":"love","inputs":[],"outputs":[{"name":"","type":"address","internalType":"address"}],"stateMutability":"view"},{"type":"function","name":"owner","inputs":[],"outputs":[{"name":"","type":"address","internalType":"address"}],"stateMutability":"view"},{"type":"function","name":"proxiableUUID","inputs":[],"outputs":[{"name":"","type":"bytes32","internalType":"bytes32"}],"stateMutability":"view"},{"type":"function","name":"redeem","inputs":[{"name":"_orderIndex","type":"uint256","internalType":"uint256"}],"outputs":[],"stateMutability":"nonpayable"},{"type":"function","name":"renounceOwnership","inputs":[],"outputs":[],"stateMutability":"nonpayable"},{"type":"function","name":"setConfig","inputs":[{"name":"_love","type":"address","internalType":"address"},{"name":"_best","type":"address","internalType":"address"}],"outputs":[],"stateMutability":"nonpayable"},{"type":"function","name":"staking","inputs":[{"name":"_expired","type":"uint8","internalType":"enum IStaking.Expired"},{"name":"_amountLove","type":"uint256","internalType":"uint256"}],"outputs":[],"stateMutability":"nonpayable"},{"type":"function","name":"stakingOrderInfo","inputs":[{"name":"","type":"uint256","internalType":"uint256"}],"outputs":[{"name":"expired","type":"uint8","internalType":"enum IStaking.Expired"},{"name":"holder","type":"address","internalType":"address"},{"name":"amount","type":"uint256","internalType":"uint256"},{"name":"stakingTime","type":"uint256","internalType":"uint256"},{"name":"extracted","type":"uint256","internalType":"uint256"},{"name":"isRedeemed","type":"bool","internalType":"bool"}],"stateMutability":"view"},{"type":"function","name":"transferOwnership","inputs":[{"name":"newOwner","type":"address","internalType":"address"}],"outputs":[],"stateMutability":"nonpayable"},{"type":"function","name":"upgradeToAndCall","inputs":[{"name":"newImplementation","type":"address","internalType":"address"},{"name":"data","type":"bytes","internalType":"bytes"}],"outputs":[],"stateMutability":"payable"},{"type":"function","name":"userInfo","inputs":[{"name":"","type":"address","internalType":"address"}],"outputs":[{"name":"inviter","type":"address","internalType":"address"},{"name":"award","type":"uint256","internalType":"uint256"}],"stateMutability":"view"},{"type":"function","name":"yieldRate","inputs":[{"name":"","type":"uint8","internalType":"enum IStaking.Expired"}],"outputs":[{"name":"","type":"uint256","internalType":"uint256"}],"stateMutability":"view"},{"type":"event","name":"Initialized","inputs":[{"name":"version","type":"uint64","indexed":false,"internalType":"uint64"}],"anonymous":false},{"type":"event","name":"OwnershipTransferred","inputs":[{"name":"previousOwner","type":"address","indexed":true,"internalType":"address"},{"name":"newOwner","type":"address","indexed":true,"internalType":"address"}],"anonymous":false},{"type":"event","name":"Upgraded","inputs":[{"name":"implementation","type":"address","indexed":true,"internalType":"address"}],"anonymous":false},{"type":"error","name":"AddressEmptyCode","inputs":[{"name":"target","type":"address","internalType":"address"}]},{"type":"error","name":"ERC1967InvalidImplementation","inputs":[{"name":"implementation","type":"address","internalType":"address"}]},{"type":"error","name":"ERC1967NonPayable","inputs":[]},{"type":"error","name":"FailedCall","inputs":[]},{"type":"error","name":"InvalidInitialization","inputs":[]},{"type":"error","name":"NotInitializing","inputs":[]},{"type":"error","name":"OwnableInvalidOwner","inputs":[{"name":"owner","type":"address","internalType":"address"}]},{"type":"error","name":"OwnableUnauthorizedAccount","inputs":[{"name":"account","type":"address","internalType":"address"}]},{"type":"error","name":"ReentrancyGuardReentrantCall","inputs":[]},{"type":"error","name":"UUPSUnauthorizedCallContext","inputs":[]},{"type":"error","name":"UUPSUnsupportedProxiableUUID","inputs":[{"name":"slot","type":"bytes32","internalType":"bytes32"}]}],"bytecode":{"object":"0x60a0604052306080523480156012575f5ffd5b5060015f5560805161253561003d5f395f81816118e8015281816119110152611a5001526125355ff3fe608060405260043610610147575f3560e01c80638da5cb5b116100b3578063c0c53b8b1161006d578063c0c53b8b14610462578063d07ebe7e14610481578063d0940a5d146104ac578063db006a75146104cb578063dff53231146104ea578063f2fde38b14610509575f5ffd5b80638da5cb5b146103105780639d94c8781461034c578063a14a9f8f14610377578063ad3cb1cc14610396578063b602024b146103d3578063bb8498cf146103f2575f5ffd5b80634e377201116101045780634e3772011461024e5780634f1ef2861461028557806352d1902d1461029857806355a1883a146102ac5780636386c1c7146102cb578063715018a6146102fc575f5ffd5b806302318e531461014b57806308254f511461017d5780631959a0021461019e5780632986c0e5146101fb5780633a3f823914610210578063460728031461022f575b5f5ffd5b348015610156575f5ffd5b5061016a610165366004612046565b610528565b6040519081526020015b60405180910390f35b348015610188575f5ffd5b5061019c610197366004612046565b6106fd565b005b3480156101a9575f5ffd5b506101dc6101b8366004612078565b60046020525f9081526040902080546001909101546001600160a01b039091169082565b604080516001600160a01b039093168352602083019190915201610174565b348015610206575f5ffd5b5061016a60085481565b34801561021b575f5ffd5b5061019c61022a366004612046565b6107a3565b34801561023a575f5ffd5b5061019c61024936600461209f565b6108e0565b348015610259575f5ffd5b5060055461026d906001600160a01b031681565b6040516001600160a01b039091168152602001610174565b61019c6102933660046120db565b610ae4565b3480156102a3575f5ffd5b5061016a610aff565b3480156102b7575f5ffd5b5061016a6102c6366004612046565b610b1a565b3480156102d6575f5ffd5b506102ea6102e5366004612078565b610c81565b60405161017496959493929190612235565b348015610307575f5ffd5b5061019c610e37565b34801561031b575f5ffd5b507f9016d09d72d40fdae2fd8ceac6b6234c7706214fd39c1cd1e609a0528c199300546001600160a01b031661026d565b348015610357575f5ffd5b5061016a6103663660046122d0565b60026020525f908152604090205481565b348015610382575f5ffd5b5061019c610391366004612078565b610e4a565b3480156103a1575f5ffd5b506103c6604051806040016040528060058152602001640352e302e360dc1b81525081565b60405161017491906122e9565b3480156103de575f5ffd5b5061019c6103ed36600461231e565b610fe4565b3480156103fd575f5ffd5b5061045061040c366004612046565b600360208190525f91825260409091208054600182015460028301549383015460049093015460ff808416956101009094046001600160a01b031694929392911686565b60405161017496959493929190612363565b34801561046d575f5ffd5b5061019c61047c3660046123b7565b611075565b34801561048c575f5ffd5b5061016a61049b3660046122d0565b60016020525f908152604090205481565b3480156104b7575f5ffd5b5060075461026d906001600160a01b031681565b3480156104d6575f5ffd5b5061019c6104e5366004612046565b61129d565b3480156104f5575f5ffd5b5060065461026d906001600160a01b031681565b348015610514575f5ffd5b5061019c610523366004612078565b61141f565b5f81815260036020526040808220815160c08101909252805483929190829060ff16600281111561055b5761055b61234f565b600281111561056c5761056c61234f565b815281546001600160a01b03610100909104811660208084019190915260018401546040840152600284015460608401526003840154608084015260049093015460ff16151560a09092019190915290820151919250166106045760405162461bcd60e51b815260206004820152600d60248201526c24b73b30b634b21037b93232b960991b60448201526064015b60405180910390fd5b5f60015f835f0151600281111561061d5761061d61234f565b600281111561062e5761062e61234f565b81526020019081526020015f205490505f60025f845f015160028111156106575761065761234f565b60028111156106685761066861234f565b81526020019081526020015f205490505f818460400151610689919061240b565b90505f8460600151421161069d575f6106ac565b60608501516106ac9042612422565b9050838111156106b95750825b5f846106c5838561240b565b6106cf9190612435565b9050856080015181116106e2575f6106f1565b60808601516106f19082612422565b98975050505050505050565b610705611459565b335f90815260046020526040902060018101548211156107675760405162461bcd60e51b815260206004820152601a60248201527f496e73756666696369656e742061776172642062616c616e636500000000000060448201526064016105fb565b81816001015f82825461077a9190612422565b9091555050600654610796906001600160a01b03163384611481565b506107a060015f55565b50565b6107ab611459565b5f818152600360205260409020805461010090046001600160a01b031633146108085760405162461bcd60e51b815260206004820152600f60248201526e2737ba1037b93232b91037bbb732b960891b60448201526064016105fb565b600481015460ff16156108565760405162461bcd60e51b815260206004820152601660248201527513dc99195c88185b1c9958591e481c995919595b595960521b60448201526064016105fb565b5f61086083610528565b90505f81116108a65760405162461bcd60e51b81526020600482015260126024820152714e6f207969656c6420617661696c61626c6560701b60448201526064016105fb565b80826003015f8282546108b99190612454565b90915550506007546108d5906001600160a01b03163383611481565b50506107a060015f55565b6108e8611459565b335f908152600460205260409020546001600160a01b031661094c5760405162461bcd60e51b815260206004820152601d60248201527f506c656173652062696e6420616e20696e76697465722066697273742e00000060448201526064016105fb565b5f811161099b5760405162461bcd60e51b815260206004820152601d60248201527f416d6f756e74206d7573742062652067726561746572207468616e203000000060448201526064016105fb565b6006546109b3906001600160a01b0316333084611597565b60088054905f6109c283612467565b91905055505f6040518060c001604052808460028111156109e5576109e561234f565b815233602080830182905260408084018790524260608501525f6080850181905260a09094018490529183526004815281832060088054600292830180546001818101835591885285882001919091559054855260039092529190922083518154949550859491939092849260ff191691908490811115610a6857610a6861234f565b021790555060208201518154610100600160a81b0319166101006001600160a01b039092169190910217815560408201516001820155606082015160028201556080820151600382015560a0909101516004909101805460ff1916911515919091179055610ad633836116c2565b50610ae060015f55565b5050565b610aec6118dd565b610af582611981565b610ae08282611989565b5f610b08611a45565b505f5160206124e05f395f51905f5290565b5f81815260036020526040808220815160c08101909252805483929190829060ff166002811115610b4d57610b4d61234f565b6002811115610b5e57610b5e61234f565b815281546001600160a01b03610100909104811660208084019190915260018401546040840152600284015460608401526003840154608084015260049093015460ff16151560a0909201919091529082015191925016610bf15760405162461bcd60e51b815260206004820152600d60248201526c24b73b30b634b21037b93232b960991b60448201526064016105fb565b5f60015f835f01516002811115610c0a57610c0a61234f565b6002811115610c1b57610c1b61234f565b81526020019081526020015f205490505f818360600151610c3c9190612454565b90508042101580610c5f5750600283516002811115610c5d57610c5d61234f565b145b15610c6e57505f949350505050565b610c784282612422565b95945050505050565b6001600160a01b038082165f908152600460209081526040808320815160a081018352815490951685526001810154858401526002810180548351818602810186018552818152959687966060968796879687968b96919492860193909190830182828015610d0d57602002820191905f5260205f20905b815481526020019060010190808311610cf9575b5050505050815260200160038201805480602002602001604051908101604052809291908181526020018280548015610d6d57602002820191905f5260205f20905b81546001600160a01b03168152600190910190602001808311610d4f575b5050505050815260200160048201805480602002602001604051908101604052809291908181526020015f905b82821015610df6575f848152602090819020604080516080810182526004860290920180546001600160a01b03168352600180820154848601526002820154928401929092526003015460608301529083529092019101610d9a565b50505050815250509050805f0151965080602001519550806060015192508060800151915080604001519350610e2b88611a8e565b94505091939550919395565b610e3f611d3b565b610e485f611d96565b565b6001600160a01b0381163314801590610e6b57506001600160a01b03811615155b610ec65760405162461bcd60e51b815260206004820152602660248201527f43616e6e6f742062696e6420796f757273656c66206f7220307820617320696e6044820152653b34ba32b91760d11b60648201526084016105fb565b335f908152600460205260409020546001600160a01b031615610f245760405162461bcd60e51b815260206004820152601660248201527524b73b34ba32b91030b63932b0b23c903137bab7321760511b60448201526064016105fb565b6005546001600160a01b03828116911614610f96576001600160a01b0381165f90815260046020526040902060020154610f965760405162461bcd60e51b815260206004820152601360248201527224b73b34ba32b9103737ba1039ba30b5b2b21760691b60448201526064016105fb565b335f81815260046020908152604080832080546001600160a01b039096166001600160a01b031996871681179091558352822060030180546001810182559083529120018054909216179055565b610fec611d3b565b6001600160a01b0382161580159061100c57506001600160a01b03811615155b6110475760405162461bcd60e51b815260206004820152600c60248201526b5a65726f206164647265737360a01b60448201526064016105fb565b600680546001600160a01b039384166001600160a01b03199182161790915560078054929093169116179055565b5f61107e611e06565b805490915060ff600160401b820416159067ffffffffffffffff165f811580156110a55750825b90505f8267ffffffffffffffff1660011480156110c15750303b155b9050811580156110cf575080155b156110ed5760405163f92ee8a960e01b815260040160405180910390fd5b845467ffffffffffffffff19166001178555831561111757845460ff60401b1916600160401b1785555b61112033611e30565b611128611e38565b600580546001600160a01b038a81166001600160a01b031992831617909255600680548a8416908316179055600780549289169290911691909117905562278d007fa6eef7e35abe7026729641147f7915573c7e97b47efa546f5f6e3230263bcb4955624f1a007fcc69885fda6bcc1a4ace058b4a62bf5e179ea78fd58a1ccd71c22cc9b688792f556276a7007fd9d16d34ffb15ba3a3d852f0d403e2ce1d691fb54de27ac87cd2f993f3ec330f556002602081905260647fac33ff75c19e70fe83507db0d683fd3465c996598dc972688b7ace676c89077b5560dc7fe90b7bceb6e7df5418fb78d8ee546e97c83a08bbccc01a0644d599ccd2a7c2e0555f526101907f679795a0195a1b76cdebb7c51d74e058aee92919b8c3389af86ef24535e8a28c55831561129357845460ff60401b19168555604051600181527fc7f505b2f371ae2175ee4913f4499e1f2633a7b5936321eed1cdaeb6115181d29060200160405180910390a15b5050505050505050565b6112a5611459565b5f818152600360205260409020805461010090046001600160a01b031633146113025760405162461bcd60e51b815260206004820152600f60248201526e2737ba1037b93232b91037bbb732b960891b60448201526064016105fb565b600481015460ff161561134a5760405162461bcd60e51b815260206004820152601060248201526f105b1c9958591e481c995919595b595960821b60448201526064016105fb565b6002815460ff1660028111156113625761136261234f565b036113af5760405162461bcd60e51b815260206004820152601b60248201527f43616e6e6f742072656465656d2039302d646179206f7264657273000000000060448201526064016105fb565b5f6113b983610528565b60048301805460ff1916600117905560038301805491925082915f906113e0908490612454565b90915550506006546001830154611402916001600160a01b0316903390611481565b80156108d5576007546108d5906001600160a01b03163383611481565b611427611d3b565b6001600160a01b03811661145057604051631e4fbdf760e01b81525f60048201526024016105fb565b6107a081611d96565b60025f540361147b57604051633ee5aeb560e01b815260040160405180910390fd5b60025f55565b604080516001600160a01b038481166024830152604480830185905283518084039091018152606490920183526020820180516001600160e01b031663a9059cbb60e01b17905291515f928392908716916114dc919061247f565b5f604051808303815f865af19150503d805f8114611515576040519150601f19603f3d011682016040523d82523d5f602084013e61151a565b606091505b50915091508180156115445750805115806115445750808060200190518101906115449190612495565b6115905760405162461bcd60e51b815260206004820152601f60248201527f5472616e7366657248656c7065723a205452414e534645525f4641494c45440060448201526064016105fb565b5050505050565b604080516001600160a01b0385811660248301528481166044830152606480830185905283518084039091018152608490920183526020820180516001600160e01b03166323b872dd60e01b17905291515f928392908816916115fa919061247f565b5f604051808303815f865af19150503d805f8114611633576040519150601f19603f3d011682016040523d82523d5f602084013e611638565b606091505b50915091508180156116625750805115806116625750808060200190518101906116629190612495565b6116ba5760405162461bcd60e51b8152602060048201526024808201527f5472616e7366657248656c7065723a205452414e534645525f46524f4d5f46416044820152631253115160e21b60648201526084016105fb565b505050505050565b6001600160a01b038083165f908152600460205260409020541680156118d85760646116ef83600861240b565b6116f99190612435565b6001600160a01b0382165f9081526004602052604081206001018054909190611723908490612454565b90915550506001600160a01b038082165f90815260046020818152604092839020835160808101855294881685529084018690520191908101606461176986600861240b565b6117739190612435565b8152426020918201528254600180820185555f9485528285208451600493840290910180546001600160a01b0319166001600160a01b0392831617815585850151928101929092556040808601516002840155606090950151600390920191909155858116855291529120541680156118d65760646117f384600561240b565b6117fd9190612435565b6001600160a01b0382165f9081526004602052604081206001018054909190611827908490612454565b90915550506001600160a01b038082165f90815260046020818152604092839020835160808101855294891685529084018790520191908101606461186d87600561240b565b6118779190612435565b8152426020918201528254600180820185555f94855293829020835160049092020180546001600160a01b0319166001600160a01b03909216919091178155908201519281019290925560408101516002830155606001516003909101555b505b505050565b306001600160a01b037f000000000000000000000000000000000000000000000000000000000000000016148061196357507f00000000000000000000000000000000000000000000000000000000000000006001600160a01b03166119575f5160206124e05f395f51905f52546001600160a01b031690565b6001600160a01b031614155b15610e485760405163703e46dd60e11b815260040160405180910390fd5b6107a0611d3b565b816001600160a01b03166352d1902d6040518163ffffffff1660e01b8152600401602060405180830381865afa9250505080156119e3575060408051601f3d908101601f191682019092526119e0918101906124b4565b60015b611a0b57604051634c9c8ce360e01b81526001600160a01b03831660048201526024016105fb565b5f5160206124e05f395f51905f528114611a3b57604051632a87526960e21b8152600481018290526024016105fb565b6118d88383611e40565b306001600160a01b037f00000000000000000000000000000000000000000000000000000000000000001614610e485760405163703e46dd60e11b815260040160405180910390fd5b6001600160a01b038082165f908152600460209081526040808320815160a08101835281549095168552600181015485840152600281018054835181860281018601855281815260609795939486019390929190830182828015611b0f57602002820191905f5260205f20905b815481526020019060010190808311611afb575b5050505050815260200160038201805480602002602001604051908101604052809291908181526020018280548015611b6f57602002820191905f5260205f20905b81546001600160a01b03168152600190910190602001808311611b51575b5050505050815260200160048201805480602002602001604051908101604052809291908181526020015f905b82821015611bf8575f848152602090819020604080516080810182526004860290920180546001600160a01b03168352600180820154848601526002820154928401929092526003015460608301529083529092019101611b9c565b505050915250506040810151519091505f805b82811015611c69575f84604001518281518110611c2a57611c2a6124cb565b6020908102919091018101515f818152600390925260409091206004015490915060ff16611c605782611c5c81612467565b9350505b50600101611c0b565b505f8167ffffffffffffffff811115611c8457611c846120c7565b604051908082528060200260200182016040528015611cad578160200160208202803683370190505b5090505f805b84811015611d2f575f86604001518281518110611cd257611cd26124cb565b6020908102919091018101515f818152600390925260409091206004015490915060ff16611d265780848481518110611d0d57611d0d6124cb565b602090810291909101015282611d2281612467565b9350505b50600101611cb3565b50909695505050505050565b33611d6d7f9016d09d72d40fdae2fd8ceac6b6234c7706214fd39c1cd1e609a0528c199300546001600160a01b031690565b6001600160a01b031614610e485760405163118cdaa760e01b81523360048201526024016105fb565b7f9016d09d72d40fdae2fd8ceac6b6234c7706214fd39c1cd1e609a0528c19930080546001600160a01b031981166001600160a01b03848116918217845560405192169182907f8be0079c531659141344cd1fd0a4f28419497f9722a3daafe3b4186f6b6457e0905f90a3505050565b5f807ff0c57e16840df040f15088dc2f81fe391c3923bec73e23a9662efc9c229c6a005b92915050565b611427611e95565b610e48611e95565b611e4982611eba565b6040516001600160a01b038316907fbc7cd75a20ee27fd9adebab32041f755214dbc6bffa90cc0225b39da2e5c2d3b905f90a2805115611e8d576118d88282611f1d565b610ae0611f86565b611e9d611fa5565b610e4857604051631afcd79f60e31b815260040160405180910390fd5b806001600160a01b03163b5f03611eef57604051634c9c8ce360e01b81526001600160a01b03821660048201526024016105fb565b5f5160206124e05f395f51905f5280546001600160a01b0319166001600160a01b0392909216919091179055565b60605f5f846001600160a01b031684604051611f39919061247f565b5f60405180830381855af49150503d805f8114611f71576040519150601f19603f3d011682016040523d82523d5f602084013e611f76565b606091505b5091509150610c78858383611fbe565b3415610e485760405163b398979f60e01b815260040160405180910390fd5b5f611fae611e06565b54600160401b900460ff16919050565b606082611fd357611fce8261201d565b612016565b8151158015611fea57506001600160a01b0384163b155b1561201357604051639996b31560e01b81526001600160a01b03851660048201526024016105fb565b50805b9392505050565b80511561202d5780518082602001fd5b60405163d6bda27560e01b815260040160405180910390fd5b5f60208284031215612056575f5ffd5b5035919050565b80356001600160a01b0381168114612073575f5ffd5b919050565b5f60208284031215612088575f5ffd5b6120168261205d565b803560038110612073575f5ffd5b5f5f604083850312156120b0575f5ffd5b6120b983612091565b946020939093013593505050565b634e487b7160e01b5f52604160045260245ffd5b5f5f604083850312156120ec575f5ffd5b6120f58361205d565b9150602083013567ffffffffffffffff811115612110575f5ffd5b8301601f81018513612120575f5ffd5b803567ffffffffffffffff81111561213a5761213a6120c7565b604051601f8201601f19908116603f0116810167ffffffffffffffff81118282101715612169576121696120c7565b604052818152828201602001871015612180575f5ffd5b816020840160208301375f602083830101528093505050509250929050565b5f8151808452602084019350602083015f5b828110156121cf5781518652602095860195909101906001016121b1565b5093949350505050565b5f8151808452602084019350602083015f5b828110156121cf57815180516001600160a01b03168752602080820151818901526040808301519089015260609182015191880191909152608090960195909101906001016121eb565b60018060a01b038716815285602082015260c060408201525f61225b60c083018761219f565b828103606084015261226d818761219f565b8381036080850152855180825260208088019350909101905f5b818110156122ae5783516001600160a01b0316835260209384019390920191600101612287565b505083810360a08501526122c281866121d9565b9a9950505050505050505050565b5f602082840312156122e0575f5ffd5b61201682612091565b602081525f82518060208401528060208501604085015e5f604082850101526040601f19601f83011684010191505092915050565b5f5f6040838503121561232f575f5ffd5b6123388361205d565b91506123466020840161205d565b90509250929050565b634e487b7160e01b5f52602160045260245ffd5b60c081016003881061238357634e487b7160e01b5f52602160045260245ffd5b9681526001600160a01b03959095166020860152604085019390935260608401919091526080830152151560a09091015290565b5f5f5f606084860312156123c9575f5ffd5b6123d28461205d565b92506123e06020850161205d565b91506123ee6040850161205d565b90509250925092565b634e487b7160e01b5f52601160045260245ffd5b8082028115828204841417611e2a57611e2a6123f7565b81810381811115611e2a57611e2a6123f7565b5f8261244f57634e487b7160e01b5f52601260045260245ffd5b500490565b80820180821115611e2a57611e2a6123f7565b5f60018201612478576124786123f7565b5060010190565b5f82518060208501845e5f920191825250919050565b5f602082840312156124a5575f5ffd5b81518015158114612016575f5ffd5b5f602082840312156124c4575f5ffd5b5051919050565b634e487b7160e01b5f52603260045260245ffdfe360894a13ba1a3210667c828492db98dca3e2076cc3735a920a3ca505d382bbca264697066735822122074e07c2dc195aa48dd29ed8a1e82ac649b4dfd940d9beb5908c075990350a43564736f6c634300081c0033","linkReferences":{}},"methodIdentifiers":{"UPGRADE_INTERFACE_VERSION()":"ad3cb1cc","best()":"d0940a5d","bindInviter(address)":"a14a9f8f","claimAward(uint256)":"08254f51","claimOrder(uint256)":"3a3f8239","expiredTime(uint8)":"d07ebe7e","getOrderCountdown(uint256)":"55a1883a","getOrderRealTimeYield(uint256)":"02318e53","getUserInfo(address)":"6386c1c7","index()":"2986c0e5","initialInviter()":"4e377201","initialize(address,address,address)":"c0c53b8b","love()":"dff53231","owner()":"8da5cb5b","proxiableUUID()":"52d1902d","redeem(uint256)":"db006a75","renounceOwnership()":"715018a6","setConfig(address,address)":"b602024b","staking(uint8,uint256)":"46072803","stakingOrderInfo(uint256)":"bb8498cf","transferOwnership(address)":"f2fde38b","upgradeToAndCall(address,bytes)":"4f1ef286","userInfo(address)":"1959a002","yieldRate(uint8)":"9d94c878"},"id":37}