{"abi":[{"type":"function","name":"deployTokenV2","inputs":[{"name":"_name","type":"string","internalType":"string"},{"name":"_symbol","type":"string","internalType":"string"},{"name":"_initialRecipient","type":"address","internalType":"address"},{"name":"_exceedTaxWallet","type":"address","internalType":"address"}],"outputs":[{"name":"","type":"address","internalType":"address"}],"stateMutability":"nonpayable"},{"type":"function","name":"deployedAddress","inputs":[],"outputs":[{"name":"","type":"address","internalType":"address"}],"stateMutability":"view"},{"type":"function","name":"predictAddress","inputs":[{"name":"_name","type":"string","internalType":"string"},{"name":"_symbol","type":"string","internalType":"string"},{"name":"_initialRecipient","type":"address","internalType":"address"},{"name":"_exceedTaxWallet","type":"address","internalType":"address"},{"name":"salt","type":"bytes32","internalType":"bytes32"}],"outputs":[{"name":"","type":"address","internalType":"address"}],"stateMutability":"view"},{"type":"function","name":"transferOwnership","inputs":[{"name":"newOwner","type":"address","internalType":"address"}],"outputs":[],"stateMutability":"nonpayable"},{"type":"function","name":"usdt","inputs":[],"outputs":[{"name":"","type":"address","internalType":"address"}],"stateMutability":"view"},{"type":"event","name":"TokenDeployed","inputs":[{"name":"tokenAddress","type":"address","indexed":true,"internalType":"address"},{"name":"salt","type":"bytes32","indexed":false,"internalType":"bytes32"}],"anonymous":false}],"bytecode":{"object":"0x6080604052348015600e575f5ffd5b50613df98061001c5f395ff3fe608060405234801561000f575f5ffd5b5060043610610055575f3560e01c80632f48ab7d146100595780638efc30f914610090578063b2229840146100a2578063f2fde38b146100b5578063fce7d7bc146100ca575b5f5ffd5b6100747355d398326f99059ff775485246999027b319795581565b6040516001600160a01b03909116815260200160405180910390f35b5f54610074906001600160a01b031681565b6100746100b036600461056d565b6100dd565b6100c86100c33660046105f9565b6100f5565b005b6100746100d8366004610619565b610151565b5f6100eb86868686866102d7565b9695505050505050565b5f5460405163f2fde38b60e01b81526001600160a01b0383811660048301529091169063f2fde38b906024015f604051808303815f87803b158015610138575f5ffd5b505af115801561014a573d5f5f3e3d5ffd5b5050505050565b5f808086815b6103e88110156101fa57818888888460405160200161017a9594939291906106b5565b60405160208183030381529060405280519060200120935061019f89898989886102d7565b92507355d398326f99059ff775485246999027b31979556001600160a01b038416116101fa57886101cf826103a1565b6040516020016101e09291906106fc565b60408051601f198184030181529190529150600101610157565b505f6040518060200161020c906104a6565b601f1982820381018352601f909101166040819052610235908b908b908b908b90602001610752565b60408051601f1981840301815290829052610253929160200161079b565b60405160208183030381529060405290505f848251602084015ff59050803b61027a575f5ffd5b5f80546001600160a01b0319166001600160a01b0383169081179091556040518681527f2e90ed431e23f7e363af7d2e69461e22b648cc99c034731f7f1fa247e74fcd649060200160405180910390a29998505050505050505050565b5f5f604051806020016102e9906104a6565b601f1982820381018352601f909101166040819052610312908990899089908990602001610752565b60408051601f1981840301815290829052610330929160200161079b565b60408051808303601f1901815282825280516020918201206001600160f81b0319828501523060601b6bffffffffffffffffffffffff191660218501526035840196909652605580840196909652815180840390960186526075909201905283519301929092209695505050505050565b6060815f036103c75750506040805180820190915260018152600360fc1b602082015290565b815f5b81156103f057806103da816107c3565b91506103e99050600a836107ef565b91506103ca565b5f8167ffffffffffffffff81111561040a5761040a6104b3565b6040519080825280601f01601f191660200182016040528015610434576020820181803683370190505b5090505b841561049e57610449600183610802565b9150610456600a8661081b565b61046190603061082e565b60f81b81838151811061047657610476610841565b60200101906001600160f81b03191690815f1a905350610497600a866107ef565b9450610438565b949350505050565b61356e8061085683390190565b634e487b7160e01b5f52604160045260245ffd5b5f82601f8301126104d6575f5ffd5b813567ffffffffffffffff8111156104f0576104f06104b3565b604051601f8201601f19908116603f0116810167ffffffffffffffff8111828210171561051f5761051f6104b3565b604052818152838201602001851015610536575f5ffd5b816020850160208301375f918101602001919091529392505050565b80356001600160a01b0381168114610568575f5ffd5b919050565b5f5f5f5f5f60a08688031215610581575f5ffd5b853567ffffffffffffffff811115610597575f5ffd5b6105a3888289016104c7565b955050602086013567ffffffffffffffff8111156105bf575f5ffd5b6105cb888289016104c7565b9450506105da60408701610552565b92506105e860608701610552565b949793965091946080013592915050565b5f60208284031215610609575f5ffd5b61061282610552565b9392505050565b5f5f5f5f6080858703121561062c575f5ffd5b843567ffffffffffffffff811115610642575f5ffd5b61064e878288016104c7565b945050602085013567ffffffffffffffff81111561066a575f5ffd5b610676878288016104c7565b93505061068560408601610552565b915061069360608601610552565b905092959194509250565b5f81518060208401855e5f93019283525090919050565b5f6106c96106c3838961069e565b8761069e565b6bffffffffffffffffffffffff19606096871b811682529490951b90931660148501525060288301525060480192915050565b5f610707828561069e565b605f60f81b815261071b600182018561069e565b95945050505050565b5f81518084528060208401602086015e5f602082860101526020601f19601f83011685010191505092915050565b608081525f6107646080830187610724565b82810360208401526107768187610724565b6001600160a01b03958616604085015293909416606090920191909152509392505050565b5f61049e6107a9838661069e565b8461069e565b634e487b7160e01b5f52601160045260245ffd5b5f600182016107d4576107d46107af565b5060010190565b634e487b7160e01b5f52601260045260245ffd5b5f826107fd576107fd6107db565b500490565b81810381811115610815576108156107af565b92915050565b5f82610829576108296107db565b500690565b80820180821115610815576108156107af565b634e487b7160e01b5f52603260045260245ffdfe60e0604052681b1ae4d6e2ef5000006010556846791fc84e07d000006011556802b5e3af16b188000060125568056bc75e2d63100000601355348015610043575f5ffd5b5060405161356e38038061356e833981016040819052610062916104c8565b8383600361007083826105d0565b50600461007d82826105d0565b50505061009661009161028060201b60201c565b610284565b6100ab826a52b7d2dcc80cd2e40000006102d5565b7310ed43c718714eb63d5aa57b78b54704e256024e60808190526040805163c45a015560e01b8152905163c45a0155916004808201926020929091908290030181865afa1580156100fe573d5f5f3e3d5ffd5b505050506040513d601f19601f82011682018060405250810190610122919061068a565b6040516364e329cb60e11b81523060048201527355d398326f99059ff775485246999027b319795560248201526001600160a01b03919091169063c9c65396906044016020604051808303815f875af1158015610181573d5f5f3e3d5ffd5b505050506040513d601f19601f820116820180604052508101906101a5919061068a565b6001600160a01b0390811660a052600b80546001600160a01b0319169183169190911790556101d2610392565b6001600160a01b0390811660c05282165f908152600660205260408082208054600160ff199182168117909255308085528385208054831684179055338552929093208054909316179091557355d398326f99059ff775485246999027b3197955106102775760405162461bcd60e51b815260206004820152600f60248201526e496e76616c6964206164647265737360881b60448201526064015b60405180910390fd5b505050506106cf565b3390565b600580546001600160a01b038381166001600160a01b0319831681179093556040519116919082907f8be0079c531659141344cd1fd0a4f28419497f9722a3daafe3b4186f6b6457e0905f90a35050565b6001600160a01b03821661032b5760405162461bcd60e51b815260206004820152601f60248201527f45524332303a206d696e7420746f20746865207a65726f206164647265737300604482015260640161026e565b8060025f82825461033c91906106aa565b90915550506001600160a01b0382165f81815260208181526040808320805486019055518481527fddf252ad1be2c89b69c2b068fc378daa952ba7f163c4a11628f55a4df523b3ef910160405180910390a35050565b6040516001600160601b03193060601b1660208201525f9081906034016040516020818303038152906040528051906020012090505f604051806020016103d890610403565b6020820181038252601f19601f820116604052509050818151602083015ff59250505090565b505050565b6101508061341e83390190565b634e487b7160e01b5f52604160045260245ffd5b5f82601f830112610433575f5ffd5b81516001600160401b0381111561044c5761044c610410565b604051601f8201601f19908116603f011681016001600160401b038111828210171561047a5761047a610410565b604052818152838201602001851015610491575f5ffd5b8160208501602083015e5f918101602001919091529392505050565b80516001600160a01b03811681146104c3575f5ffd5b919050565b5f5f5f5f608085870312156104db575f5ffd5b84516001600160401b038111156104f0575f5ffd5b6104fc87828801610424565b602087015190955090506001600160401b03811115610519575f5ffd5b61052587828801610424565b935050610534604086016104ad565b9150610542606086016104ad565b905092959194509250565b600181811c9082168061056157607f821691505b60208210810361057f57634e487b7160e01b5f52602260045260245ffd5b50919050565b601f8211156103fe57805f5260205f20601f840160051c810160208510156105aa5750805b601f840160051c820191505b818110156105c9575f81556001016105b6565b5050505050565b81516001600160401b038111156105e9576105e9610410565b6105fd816105f7845461054d565b84610585565b6020601f82116001811461062f575f83156106185750848201515b5f19600385901b1c1916600184901b1784556105c9565b5f84815260208120601f198516915b8281101561065e578785015182556020948501946001909201910161063e565b508482101561067b57868401515f19600387901b60f8161c191681555b50505050600190811b01905550565b5f6020828403121561069a575f5ffd5b6106a3826104ad565b9392505050565b808201808211156106c957634e487b7160e01b5f52601160045260245ffd5b92915050565b60805160a05160c051612c766107a85f395f818161032001528181610d9501528181610e390152611add01525f81816105280152818161078301528181610815015281816108c301528181610a7c01528181610ba301528181611525015281816115a80152818161163f01528181611d0c01528181611d4701528181611dc1015281816120c3015281816122f80152818161237b0152818161241201526125a101525f818161054f01528181610f8801528181611a6e01528181611aaa01528181611b3e01528181611b7a0152611c5d0152612c765ff3fe608060405234801561000f575f5ffd5b506004361061026b575f3560e01c806370a082311161014b578063b3416d78116100bf578063cf82046111610084578063cf82046114610595578063dd62ed3e1461059e578063ec375408146105b1578063edb46daf146105c4578063ef10d56c146105d7578063f2fde38b146105df575f5ffd5b8063b3416d7814610510578063b8c9d25c14610523578063c21ebd071461054a578063c54e44eb14610571578063cedddafe1461058c575f5ffd5b806386088e311161011057806386088e31146104b65780638bae7634146104c95780638da5cb5b146104d157806395d89b41146104e2578063a457c2d7146104ea578063a9059cbb146104fd575f5ffd5b806370a0823114610443578063715018a61461046b578063770cd1b8146104735780637b2f3de41461049b57806383834550146104a3575f5ffd5b80632a11ced0116101e257806340f7bbc7116101a757806340f7bbc7146103ca5780634b28246d146103ec5780635fe8e7cc146103ff57806363a184f514610414578063662fac39146104275780636df427621461043a575f5ffd5b80632a11ced0146103795780632e495fdd1461038c578063313ce5671461039557806339509351146103a457806340c10f19146103b7575f5ffd5b8063095ea7b311610233578063095ea7b31461030857806311af88a41461031b578063156444dd1461034257806318160ddd1461035557806321b77d631461035d57806323b872dd14610366575f5ffd5b806303fd2a451461026f5780630508c47314610295578063060e7844146102ac57806306fdde03146102de57806308aaa130146102f3575b5f5ffd5b61027861dead81565b6040516001600160a01b0390911681526020015b60405180910390f35b61029e60115481565b60405190815260200161028c565b6102ce6102ba366004612718565b60066020525f908152604090205460ff1681565b604051901515815260200161028c565b6102e66105f2565b60405161028c9190612733565b610306610301366004612775565b610682565b005b6102ce6103163660046127f7565b610766565b6102787f000000000000000000000000000000000000000000000000000000000000000081565b61029e610350366004612821565b61077f565b60025461029e565b61029e60125481565b6102ce610374366004612838565b6108bf565b610278610387366004612821565b610993565b61029e600d5481565b6040516012815260200161028c565b6102ce6103b23660046127f7565b6109bb565b6103066103c53660046127f7565b6109dc565b6102ce6103d8366004612718565b60076020525f908152604090205460ff1681565b6103066103fa366004612876565b610a34565b610407610cb6565b60405161028c91906128d5565b600b54610278906001600160a01b031681565b600c54610278906001600160a01b031681565b61029e60105481565b61029e610451366004612718565b6001600160a01b03165f9081526020819052604090205490565b610306610d15565b610278610481366004612718565b60086020525f90815260409020546001600160a01b031681565b610306610d28565b61029e6104b1366004612821565b610ee2565b6103066104c4366004612718565b611025565b6103066110a5565b6005546001600160a01b0316610278565b6102e66110b3565b6102ce6104f83660046127f7565b6110c2565b6102ce61050b3660046127f7565b611147565b61030661051e3660046128e7565b611154565b6102787f000000000000000000000000000000000000000000000000000000000000000081565b6102787f000000000000000000000000000000000000000000000000000000000000000081565b6102787355d398326f99059ff775485246999027b319795581565b61029e60135481565b61029e600e5481565b61029e6105ac366004612916565b611170565b6103066105bf366004612775565b61119a565b6103066105d2366004612718565b611273565b6103066112f3565b6103066105ed366004612718565b6112fc565b6060600380546106019061294d565b80601f016020809104026020016040519081016040528092919081815260200182805461062d9061294d565b80156106785780601f1061064f57610100808354040283529160200191610678565b820191905f5260205f20905b81548152906001019060200180831161065b57829003601f168201915b5050505050905090565b61068a611375565b5f5b82811015610760575f8484838181106106a7576106a7612985565b90506020020160208101906106bc9190612718565b6001600160a01b0316036107065760405162461bcd60e51b815260206004820152600c60248201526b5a45524f204144445245535360a01b60448201526064015b60405180910390fd5b8160065f86868581811061071c5761071c612985565b90506020020160208101906107319190612718565b6001600160a01b0316815260208101919091526040015f20805460ff191691151591909117905560010161068c565b50505050565b5f336107738185856113cf565b60019150505b92915050565b5f5f7f00000000000000000000000000000000000000000000000000000000000000006001600160a01b03166318160ddd6040518163ffffffff1660e01b8152600401602060405180830381865afa1580156107dd573d5f5f3e3d5ffd5b505050506040513d601f19601f820116820180604052508101906108019190612999565b9050805f0361081257505f92915050565b5f7f00000000000000000000000000000000000000000000000000000000000000006001600160a01b0316630902f1ac6040518163ffffffff1660e01b8152600401606060405180830381865afa15801561086f573d5f5f3e3d5ffd5b505050506040513d601f19601f8201168201806040525081019061089391906129cb565b50506001600160701b031690505f826108ac8387612a20565b6108b69190612a37565b95945050505050565b5f5f7f00000000000000000000000000000000000000000000000000000000000000006001600160a01b0316846001600160a01b031614801561090a57506001600160a01b03851615155b1561097d57610918336114f2565b509050801561097d576001600160a01b038581165f9081526008602052604090205416610968576001600160a01b0385165f81815260086020526040902080546001600160a01b03191690911790555b6109738585856116fb565b600191505061098c565b61098885858561189d565b9150505b9392505050565b600a81815481106109a2575f80fd5b5f918252602090912001546001600160a01b0316905081565b5f336107738185856109cd8383611170565b6109d79190612a56565b6113cf565b600c546001600160a01b03163314610a265760405162461bcd60e51b815260206004820152600d60248201526c1393d508141154935255151151609a1b60448201526064016106fd565b610a3082826118b5565b5050565b333014610a6f5760405162461bcd60e51b81526020600482015260096024820152682327a92124a22222a760b91b60448201526064016106fd565b8115610a79575050565b5f7f00000000000000000000000000000000000000000000000000000000000000006001600160a01b03166318160ddd6040518163ffffffff1660e01b8152600401602060405180830381865afa158015610ad6573d5f5f3e3d5ffd5b505050506040513d601f19601f82011682018060405250810190610afa9190612999565b600e54305f9081526020819052604081205492935091610b1a9190612a69565b9050811580610b2a575060115481105b15610b355750505050565b600a545f80805a90505b8683108015610b4d57508382105b15610cac5783600f5410610b60575f600f555b5f600a600f5481548110610b7657610b76612985565b5f9182526020822001546040516370a0823160e01b81526001600160a01b039182166004820181905293507f0000000000000000000000000000000000000000000000000000000000000000909116906370a0823190602401602060405180830381865afa158015610bea573d5f5f3e3d5ffd5b505050506040513d601f19601f82011682018060405250810190610c0e9190612999565b90508015610c69575f88610c22838a612a20565b610c2c9190612a37565b90505f81118015610c575750600e54305f908152602081905260409020548291610c5591612a69565b115b15610c6757610c673084836116fb565b505b5a610c749084612a69565b610c7e9086612a56565b94505a600f80549194505f610c9283612a7c565b91905055508380610ca290612a7c565b9450505050610b3f565b5050505050505050565b6060600a80548060200260200160405190810160405280929190818152602001828054801561067857602002820191905f5260205f20905b81546001600160a01b03168152600190910190602001808311610cee575050505050905090565b610d1d611375565b610d265f611972565b565b333014610d635760405162461bcd60e51b81526020600482015260096024820152682327a92124a22222a760b91b60448201526064016106fd565b5f6002600e54610d739190612a37565b9050610d7e816119c3565b6040516370a0823160e01b81526001600160a01b037f00000000000000000000000000000000000000000000000000000000000000001660048201525f907355d398326f99059ff775485246999027b3197955906370a0823190602401602060405180830381865afa158015610df6573d5f5f3e3d5ffd5b505050506040513d601f19601f82011682018060405250810190610e1a9190612999565b90508015610a30576040516323b872dd60e01b81526001600160a01b037f0000000000000000000000000000000000000000000000000000000000000000166004820152306024820152604481018290527355d398326f99059ff775485246999027b3197955906323b872dd906064016020604051808303815f875af1158015610ea6573d5f5f3e3d5ffd5b505050506040513d601f19601f82011682018060405250810190610eca9190612a94565b50610a3082600e54610edc9190612a69565b82611b38565b6040805160028082526060820183525f92839291906020830190803683370190505090507355d398326f99059ff775485246999027b3197955815f81518110610f2d57610f2d612985565b60200260200101906001600160a01b031690816001600160a01b0316815250503081600181518110610f6157610f61612985565b6001600160a01b0392831660209182029290920101526040516307c0329d60e21b81525f917f00000000000000000000000000000000000000000000000000000000000000001690631f00ca7490610fbf9087908690600401612ac3565b5f60405180830381865afa158015610fd9573d5f5f3e3d5ffd5b505050506040513d5f823e601f3d908101601f191682016040526110009190810190612ae3565b9050805f8151811061101457611014612985565b602002602001015192505050919050565b61102d611375565b6001600160a01b0381166110835760405162461bcd60e51b815260206004820181905260248201527f457863656564207461782077616c6c65742063616e6e6f74206265207a65726f60448201526064016106fd565b600b80546001600160a01b0319166001600160a01b0392909216919091179055565b6110ad611375565b42600d55565b6060600480546106019061294d565b5f33816110cf8286611170565b90508381101561112f5760405162461bcd60e51b815260206004820152602560248201527f45524332303a2064656372656173656420616c6c6f77616e63652062656c6f77604482015264207a65726f60d81b60648201526084016106fd565b61113c82868684036113cf565b506001949350505050565b5f33610773818585611cd7565b61115c611375565b601293909355601191909155601355601055565b6001600160a01b039182165f90815260016020908152604080832093909416825291909152205490565b6111a2611375565b5f5b82811015610760575f8484838181106111bf576111bf612985565b90506020020160208101906111d49190612718565b6001600160a01b0316036112195760405162461bcd60e51b815260206004820152600c60248201526b5a45524f204144445245535360a01b60448201526064016106fd565b8160075f86868581811061122f5761122f612985565b90506020020160208101906112449190612718565b6001600160a01b0316815260208101919091526040015f20805460ff19169115159190911790556001016111a4565b61127b611375565b6001600160a01b0381166112d15760405162461bcd60e51b815260206004820152601d60248201527f4d696e696e6720616464726573732063616e6e6f74206265207a65726f00000060448201526064016106fd565b600c80546001600160a01b0319166001600160a01b0392909216919091179055565b610d263361201e565b611304611375565b6001600160a01b0381166113695760405162461bcd60e51b815260206004820152602660248201527f4f776e61626c653a206e6577206f776e657220697320746865207a65726f206160448201526564647265737360d01b60648201526084016106fd565b61137281611972565b50565b6005546001600160a01b03163314610d265760405162461bcd60e51b815260206004820181905260248201527f4f776e61626c653a2063616c6c6572206973206e6f7420746865206f776e657260448201526064016106fd565b6001600160a01b0383166114315760405162461bcd60e51b8152602060048201526024808201527f45524332303a20617070726f76652066726f6d20746865207a65726f206164646044820152637265737360e01b60648201526084016106fd565b6001600160a01b0382166114925760405162461bcd60e51b815260206004820152602260248201527f45524332303a20617070726f766520746f20746865207a65726f206164647265604482015261737360f01b60648201526084016106fd565b6001600160a01b038381165f8181526001602090815260408083209487168084529482529182902085905590518481527f8c5be1e5ebec7d5bd14f71427d1e84f3dd0314c0f7b2291e5b200ac8c7c3b925910160405180910390a3505050565b5f806001600160a01b0383167310ed43c718714eb63d5aa57b78b54704e256024e1461152257505f928392509050565b5f7f00000000000000000000000000000000000000000000000000000000000000006001600160a01b0316630dfe16816040518163ffffffff1660e01b8152600401602060405180830381865afa15801561157f573d5f5f3e3d5ffd5b505050506040513d601f19601f820116820180604052508101906115a39190612bab565b90505f7f00000000000000000000000000000000000000000000000000000000000000006001600160a01b0316630902f1ac6040518163ffffffff1660e01b8152600401606060405180830381865afa158015611602573d5f5f3e3d5ffd5b505050506040513d601f19601f8201168201806040525081019061162691906129cb565b50506040516370a0823160e01b81526001600160a01b037f0000000000000000000000000000000000000000000000000000000000000000811660048301526001600160701b039290921692505f918416906370a0823190602401602060405180830381865afa15801561169c573d5f5f3e3d5ffd5b505050506040513d601f19601f820116820180604052508101906116c09190612999565b90506001600160a01b03831630146116f357818111156116f3576116e48282612a69565b9350655af3107a400084101594505b505050915091565b6001600160a01b03831661175f5760405162461bcd60e51b815260206004820152602560248201527f45524332303a207472616e736665722066726f6d20746865207a65726f206164604482015264647265737360d81b60648201526084016106fd565b6001600160a01b0382166117c15760405162461bcd60e51b815260206004820152602360248201527f45524332303a207472616e7366657220746f20746865207a65726f206164647260448201526265737360e81b60648201526084016106fd565b6001600160a01b0383165f90815260208190526040902054818110156118385760405162461bcd60e51b815260206004820152602660248201527f45524332303a207472616e7366657220616d6f756e7420657863656564732062604482015265616c616e636560d01b60648201526084016106fd565b6001600160a01b038481165f81815260208181526040808320878703905593871680835291849020805487019055925185815290927fddf252ad1be2c89b69c2b068fc378daa952ba7f163c4a11628f55a4df523b3ef910160405180910390a3610760565b5f336118aa858285612280565b61113c858585611cd7565b6001600160a01b03821661190b5760405162461bcd60e51b815260206004820152601f60248201527f45524332303a206d696e7420746f20746865207a65726f20616464726573730060448201526064016106fd565b8060025f82825461191c9190612a56565b90915550506001600160a01b0382165f81815260208181526040808320805486019055518481527fddf252ad1be2c89b69c2b068fc378daa952ba7f163c4a11628f55a4df523b3ef910160405180910390a35050565b600580546001600160a01b038381166001600160a01b0319831681179093556040519116919082907f8be0079c531659141344cd1fd0a4f28419497f9722a3daafe3b4186f6b6457e0905f90a35050565b805f036119cd5750565b6040805160028082526060820183525f9260208301908036833701905050905030815f81518110611a0057611a00612985565b60200260200101906001600160a01b031690816001600160a01b0316815250507355d398326f99059ff775485246999027b319795581600181518110611a4857611a48612985565b60200260200101906001600160a01b031690816001600160a01b031681525050611a93307f0000000000000000000000000000000000000000000000000000000000000000846113cf565b604051635c11d79560e01b81526001600160a01b037f00000000000000000000000000000000000000000000000000000000000000001690635c11d79590611b079085905f9086907f0000000000000000000000000000000000000000000000000000000000000000904290600401612bc6565b5f604051808303815f87803b158015611b1e575f5ffd5b505af1158015611b30573d5f5f3e3d5ffd5b505050505050565b611b63307f0000000000000000000000000000000000000000000000000000000000000000846113cf565b60405163095ea7b360e01b81526001600160a01b037f0000000000000000000000000000000000000000000000000000000000000000166004820152602481018290527355d398326f99059ff775485246999027b31979559063095ea7b3906044016020604051808303815f875af1158015611be1573d5f5f3e3d5ffd5b505050506040513d601f19601f82011682018060405250810190611c059190612a94565b5060405162e8e33760e81b81523060048201527355d398326f99059ff775485246999027b3197955602482015260448101839052606481018290525f6084820181905260a482015261dead60c48201524260e48201527f00000000000000000000000000000000000000000000000000000000000000006001600160a01b03169063e8e3370090610104016060604051808303815f875af1158015611cac573d5f5f3e3d5ffd5b505050506040513d601f19601f82011682018060405250810190611cd09190612c01565b5050505050565b6001600160a01b0383161580611cf457506001600160a01b038216155b15611d0957611d048383836116fb565b505050565b5f7f00000000000000000000000000000000000000000000000000000000000000006001600160a01b0316846001600160a01b03161480611d7b57507f00000000000000000000000000000000000000000000000000000000000000006001600160a01b0316836001600160a01b0316145b6001600160a01b0385165f908152600660205260408120549192509060ff1680611dbc57506001600160a01b0384165f9081526006602052604090205460ff165b90505f7f00000000000000000000000000000000000000000000000000000000000000006001600160a01b0316866001600160a01b031603611eac57611e006122f2565b50909150508015611eac576001600160a01b0385165f9081526007602052604090205460ff1615611e3857611b308661dead866116fb565b6001600160a01b038086165f8181526008602052604090205490911614611ea15760405162461bcd60e51b815260206004820152601860248201527f4e6f74206f726967696e616c204c502070726f7669646572000000000000000060448201526064016106fd565b611b308686866116fb565b5f838015611eb8575082155b15611ee1576103e8611eca88876124d6565b611ed49087612a20565b611ede9190612a37565b90505b8015611f9e575f6103e8611ef6876023612a20565b611f009190612a37565b905080821115611f2b57600b54611f2b9089906001600160a01b0316611f268486612a69565b6116fb565b611f4a8861dead6103e8611f408a6005612a20565b611f269190612a37565b611f5c88306064611f408a6003612a20565b611f6b8888611f26858a612a69565b6064611f78876001612a20565b611f829190612a37565b600e5f828254611f929190612a56565b90915550611fa9915050565b611fa98787876116fb565b83611fb657611fb66126a2565b611fbf8761201e565b611fc88661201e565b604051634b28246d60e01b8152841515600482015261c35060248201523090634b28246d906044015f604051808303815f87803b158015612007575f5ffd5b505af1925050508015610cac575050505050505050565b803b8015158061203857506001600160a01b03821661dead145b15612041575050565b6001600160a01b0382165f90815260096020526040812054600a549091901580159061209b5750836001600160a01b0316600a838154811061208557612085612985565b5f918252602090912001546001600160a01b0316145b6040516370a0823160e01b81526001600160a01b0386811660048301529192505f9161212e917f0000000000000000000000000000000000000000000000000000000000000000909116906370a0823190602401602060405180830381865afa15801561210a573d5f5f3e3d5ffd5b505050506040513d601f19601f820116820180604052508101906103509190612999565b9050601254811061219f578161219a57600a80546001600160a01b0387165f818152600960205260408120839055600183018455929092527fc65a7bb8d6351c1cf70c95a316cc6a92839c986682d98bc35f958f4883f9d2a80180546001600160a01b03191690911790555b611cd0565b8115611cd057600a80545f91906121b890600190612a69565b815481106121c8576121c8612985565b5f91825260209091200154600a80546001600160a01b0390921692508291869081106121f6576121f6612985565b5f91825260208083209190910180546001600160a01b0319166001600160a01b039485161790559183168152600990915260409020849055600a80548061223f5761223f612c2c565b5f828152602080822083015f1990810180546001600160a01b03191690559092019092556001600160a01b0388168252600990526040812055505050505050565b5f61228b8484611170565b90505f19811461076057818110156122e55760405162461bcd60e51b815260206004820152601d60248201527f45524332303a20696e73756666696369656e7420616c6c6f77616e636500000060448201526064016106fd565b61076084848484036113cf565b5f5f5f5f7f00000000000000000000000000000000000000000000000000000000000000006001600160a01b0316630dfe16816040518163ffffffff1660e01b8152600401602060405180830381865afa158015612352573d5f5f3e3d5ffd5b505050506040513d601f19601f820116820180604052508101906123769190612bab565b90505f7f00000000000000000000000000000000000000000000000000000000000000006001600160a01b0316630902f1ac6040518163ffffffff1660e01b8152600401606060405180830381865afa1580156123d5573d5f5f3e3d5ffd5b505050506040513d601f19601f820116820180604052508101906123f991906129cb565b50506040516370a0823160e01b81526001600160a01b037f0000000000000000000000000000000000000000000000000000000000000000811660048301526001600160701b039290921692505f918416906370a0823190602401602060405180830381865afa15801561246f573d5f5f3e3d5ffd5b505050506040513d601f19601f820116820180604052508101906124939190612999565b90506001600160a01b03831630146124ce57808211156124c8576124b78183612a69565b93506402540be400841195506124ce565b80821494505b505050909192565b5f5f600d54426124e69190612a69565b9050600d545f03612570576001600160a01b0384165f9081526006602052604090205460ff166125705760405162461bcd60e51b815260206004820152602f60248201527f4f70656e696e67206e6f74207365742c206f6e6c79206578656d70742061646460448201526e3932b9b9b2b99031b0b710313abc9760891b60648201526084016106fd565b61012c8110801561259957506001600160a01b0384165f9081526006602052604090205460ff16155b15612685575f7f00000000000000000000000000000000000000000000000000000000000000006001600160a01b03166318160ddd6040518163ffffffff1660e01b8152600401602060405180830381865afa1580156125fb573d5f5f3e3d5ffd5b505050506040513d601f19601f8201168201806040525081019061261f9190612999565b1115612685575f61262f84610ee2565b90506010548111156126835760405162461bcd60e51b815260206004820181905260248201527f50757263686173652065786365656473203530302055534454206c696d69742e60448201526064016106fd565b505b6107088110612698576023915050610779565b5060649392505050565b601354600e5410156126b057565b306001600160a01b0316637b2f3de46040518163ffffffff1660e01b81526004015f604051808303815f87803b1580156126e8575f5ffd5b505af19250505080156126f9575060015b15610d26575f600e55565b6001600160a01b0381168114611372575f5ffd5b5f60208284031215612728575f5ffd5b813561098c81612704565b602081525f82518060208401528060208501604085015e5f604082850101526040601f19601f83011684010191505092915050565b8015158114611372575f5ffd5b5f5f5f60408486031215612787575f5ffd5b833567ffffffffffffffff81111561279d575f5ffd5b8401601f810186136127ad575f5ffd5b803567ffffffffffffffff8111156127c3575f5ffd5b8660208260051b84010111156127d7575f5ffd5b6020918201945092508401356127ec81612768565b809150509250925092565b5f5f60408385031215612808575f5ffd5b823561281381612704565b946020939093013593505050565b5f60208284031215612831575f5ffd5b5035919050565b5f5f5f6060848603121561284a575f5ffd5b833561285581612704565b9250602084013561286581612704565b929592945050506040919091013590565b5f5f60408385031215612887575f5ffd5b823561281381612768565b5f8151808452602084019350602083015f5b828110156128cb5781516001600160a01b03168652602095860195909101906001016128a4565b5093949350505050565b602081525f61098c6020830184612892565b5f5f5f5f608085870312156128fa575f5ffd5b5050823594602084013594506040840135936060013592509050565b5f5f60408385031215612927575f5ffd5b823561293281612704565b9150602083013561294281612704565b809150509250929050565b600181811c9082168061296157607f821691505b60208210810361297f57634e487b7160e01b5f52602260045260245ffd5b50919050565b634e487b7160e01b5f52603260045260245ffd5b5f602082840312156129a9575f5ffd5b5051919050565b80516001600160701b03811681146129c6575f5ffd5b919050565b5f5f5f606084860312156129dd575f5ffd5b6129e6846129b0565b92506129f4602085016129b0565b9150604084015163ffffffff811681146127ec575f5ffd5b634e487b7160e01b5f52601160045260245ffd5b808202811582820484141761077957610779612a0c565b5f82612a5157634e487b7160e01b5f52601260045260245ffd5b500490565b8082018082111561077957610779612a0c565b8181038181111561077957610779612a0c565b5f60018201612a8d57612a8d612a0c565b5060010190565b5f60208284031215612aa4575f5ffd5b815161098c81612768565b634e487b7160e01b5f52604160045260245ffd5b828152604060208201525f612adb6040830184612892565b949350505050565b5f60208284031215612af3575f5ffd5b815167ffffffffffffffff811115612b09575f5ffd5b8201601f81018413612b19575f5ffd5b805167ffffffffffffffff811115612b3357612b33612aaf565b8060051b604051601f19603f830116810181811067ffffffffffffffff82111715612b6057612b60612aaf565b604052918252602081840181019290810187841115612b7d575f5ffd5b6020850194505b83851015612ba057845180825260209586019590935001612b84565b509695505050505050565b5f60208284031215612bbb575f5ffd5b815161098c81612704565b85815284602082015260a060408201525f612be460a0830186612892565b6001600160a01b0394909416606083015250608001529392505050565b5f5f5f60608486031215612c13575f5ffd5b5050815160208301516040909301519094929350919050565b634e487b7160e01b5f52603160045260245ffdfea2646970667358221220816beb02f9280c71d6d64a44e3f420228b3e6677a0b5cc0ef6e3d3d2b39dd5b664736f6c634300081c00336080604052348015600e575f5ffd5b5060405163095ea7b360e01b81523360048201525f1960248201527355d398326f99059ff775485246999027b31979559063095ea7b3906044016020604051808303815f875af11580156063573d5f5f3e3d5ffd5b505050506040513d601f19601f8201168201806040525081019060859190608a565b5060ae565b5f602082840312156099575f5ffd5b8151801515811460a7575f5ffd5b9392505050565b6096806100ba5f395ff3fe6080604052348015600e575f5ffd5b50600436106026575f3560e01c8063c54e44eb14602a575b5f5ffd5b60447355d398326f99059ff775485246999027b319795581565b6040516001600160a01b03909116815260200160405180910390f3fea26469706673582212208645f53f34e7f632eaa0da7964317670faee93c0fa62e91bd103b8fc05f1100b64736f6c634300081c0033a264697066735822122061c88193a412803bc19c2cd53d9b1924bf712f3ddbc40d5cc132795fac59749564736f6c634300081c0033","linkReferences":{}},"methodIdentifiers":{"deployTokenV2(string,string,address,address)":"fce7d7bc","deployedAddress()":"8efc30f9","predictAddress(string,string,address,address,bytes32)":"b2229840","transferOwnership(address)":"f2fde38b","usdt()":"2f48ab7d"},"id":44}