{"abi":[{"type":"function","name":"deployTokenV2","inputs":[{"name":"_name","type":"string","internalType":"string"},{"name":"_symbol","type":"string","internalType":"string"},{"name":"_initialRecipient","type":"address","internalType":"address"},{"name":"_exceedTaxWallet","type":"address","internalType":"address"}],"outputs":[{"name":"","type":"address","internalType":"address"}],"stateMutability":"nonpayable"},{"type":"function","name":"deployedAddress","inputs":[],"outputs":[{"name":"","type":"address","internalType":"address"}],"stateMutability":"view"},{"type":"function","name":"predictAddress","inputs":[{"name":"_name","type":"string","internalType":"string"},{"name":"_symbol","type":"string","internalType":"string"},{"name":"_initialRecipient","type":"address","internalType":"address"},{"name":"_exceedTaxWallet","type":"address","internalType":"address"},{"name":"salt","type":"bytes32","internalType":"bytes32"}],"outputs":[{"name":"","type":"address","internalType":"address"}],"stateMutability":"view"},{"type":"function","name":"transferOwnership","inputs":[{"name":"newOwner","type":"address","internalType":"address"}],"outputs":[],"stateMutability":"nonpayable"},{"type":"function","name":"usdt","inputs":[],"outputs":[{"name":"","type":"address","internalType":"address"}],"stateMutability":"view"},{"type":"event","name":"TokenDeployed","inputs":[{"name":"tokenAddress","type":"address","indexed":true,"internalType":"address"},{"name":"salt","type":"bytes32","indexed":false,"internalType":"bytes32"}],"anonymous":false}],"bytecode":{"object":"0x6080604052348015600e575f5ffd5b50613ddc8061001c5f395ff3fe608060405234801561000f575f5ffd5b5060043610610055575f3560e01c80632f48ab7d146100595780638efc30f914610090578063b2229840146100a2578063f2fde38b146100b5578063fce7d7bc146100ca575b5f5ffd5b6100747355d398326f99059ff775485246999027b319795581565b6040516001600160a01b03909116815260200160405180910390f35b5f54610074906001600160a01b031681565b6100746100b036600461056d565b6100dd565b6100c86100c33660046105f9565b6100f5565b005b6100746100d8366004610619565b610151565b5f6100eb86868686866102d7565b9695505050505050565b5f5460405163f2fde38b60e01b81526001600160a01b0383811660048301529091169063f2fde38b906024015f604051808303815f87803b158015610138575f5ffd5b505af115801561014a573d5f5f3e3d5ffd5b5050505050565b5f808086815b6103e88110156101fa57818888888460405160200161017a9594939291906106b5565b60405160208183030381529060405280519060200120935061019f89898989886102d7565b92507355d398326f99059ff775485246999027b31979556001600160a01b038416116101fa57886101cf826103a1565b6040516020016101e09291906106fc565b60408051601f198184030181529190529150600101610157565b505f6040518060200161020c906104a6565b601f1982820381018352601f909101166040819052610235908b908b908b908b90602001610752565b60408051601f1981840301815290829052610253929160200161079b565b60405160208183030381529060405290505f848251602084015ff59050803b61027a575f5ffd5b5f80546001600160a01b0319166001600160a01b0383169081179091556040518681527f2e90ed431e23f7e363af7d2e69461e22b648cc99c034731f7f1fa247e74fcd649060200160405180910390a29998505050505050505050565b5f5f604051806020016102e9906104a6565b601f1982820381018352601f909101166040819052610312908990899089908990602001610752565b60408051601f1981840301815290829052610330929160200161079b565b60408051808303601f1901815282825280516020918201206001600160f81b0319828501523060601b6bffffffffffffffffffffffff191660218501526035840196909652605580840196909652815180840390960186526075909201905283519301929092209695505050505050565b6060815f036103c75750506040805180820190915260018152600360fc1b602082015290565b815f5b81156103f057806103da816107c3565b91506103e99050600a836107ef565b91506103ca565b5f8167ffffffffffffffff81111561040a5761040a6104b3565b6040519080825280601f01601f191660200182016040528015610434576020820181803683370190505b5090505b841561049e57610449600183610802565b9150610456600a8661081b565b61046190603061082e565b60f81b81838151811061047657610476610841565b60200101906001600160f81b03191690815f1a905350610497600a866107ef565b9450610438565b949350505050565b6135518061085683390190565b634e487b7160e01b5f52604160045260245ffd5b5f82601f8301126104d6575f5ffd5b813567ffffffffffffffff8111156104f0576104f06104b3565b604051601f8201601f19908116603f0116810167ffffffffffffffff8111828210171561051f5761051f6104b3565b604052818152838201602001851015610536575f5ffd5b816020850160208301375f918101602001919091529392505050565b80356001600160a01b0381168114610568575f5ffd5b919050565b5f5f5f5f5f60a08688031215610581575f5ffd5b853567ffffffffffffffff811115610597575f5ffd5b6105a3888289016104c7565b955050602086013567ffffffffffffffff8111156105bf575f5ffd5b6105cb888289016104c7565b9450506105da60408701610552565b92506105e860608701610552565b949793965091946080013592915050565b5f60208284031215610609575f5ffd5b61061282610552565b9392505050565b5f5f5f5f6080858703121561062c575f5ffd5b843567ffffffffffffffff811115610642575f5ffd5b61064e878288016104c7565b945050602085013567ffffffffffffffff81111561066a575f5ffd5b610676878288016104c7565b93505061068560408601610552565b915061069360608601610552565b905092959194509250565b5f81518060208401855e5f93019283525090919050565b5f6106c96106c3838961069e565b8761069e565b6bffffffffffffffffffffffff19606096871b811682529490951b90931660148501525060288301525060480192915050565b5f610707828561069e565b605f60f81b815261071b600182018561069e565b95945050505050565b5f81518084528060208401602086015e5f602082860101526020601f19601f83011685010191505092915050565b608081525f6107646080830187610724565b82810360208401526107768187610724565b6001600160a01b03958616604085015293909416606090920191909152509392505050565b5f61049e6107a9838661069e565b8461069e565b634e487b7160e01b5f52601160045260245ffd5b5f600182016107d4576107d46107af565b5060010190565b634e487b7160e01b5f52601260045260245ffd5b5f826107fd576107fd6107db565b500490565b81810381811115610815576108156107af565b92915050565b5f82610829576108296107db565b500690565b80820180821115610815576108156107af565b634e487b7160e01b5f52603260045260245ffdfe60e0604052681b1ae4d6e2ef5000006010556846791fc84e07d000006011556802b5e3af16b188000060125568056bc75e2d63100000601355348015610043575f5ffd5b50604051613551380380613551833981016040819052610062916104c8565b8383600361007083826105d0565b50600461007d82826105d0565b50505061009661009161028060201b60201c565b610284565b6100ab826a52b7d2dcc80cd2e40000006102d5565b7310ed43c718714eb63d5aa57b78b54704e256024e60808190526040805163c45a015560e01b8152905163c45a0155916004808201926020929091908290030181865afa1580156100fe573d5f5f3e3d5ffd5b505050506040513d601f19601f82011682018060405250810190610122919061068a565b6040516364e329cb60e11b81523060048201527355d398326f99059ff775485246999027b319795560248201526001600160a01b03919091169063c9c65396906044016020604051808303815f875af1158015610181573d5f5f3e3d5ffd5b505050506040513d601f19601f820116820180604052508101906101a5919061068a565b6001600160a01b0390811660a052600b80546001600160a01b0319169183169190911790556101d2610392565b6001600160a01b0390811660c05282165f908152600660205260408082208054600160ff199182168117909255308085528385208054831684179055338552929093208054909316179091557355d398326f99059ff775485246999027b3197955106102775760405162461bcd60e51b815260206004820152600f60248201526e496e76616c6964206164647265737360881b60448201526064015b60405180910390fd5b505050506106cf565b3390565b600580546001600160a01b038381166001600160a01b0319831681179093556040519116919082907f8be0079c531659141344cd1fd0a4f28419497f9722a3daafe3b4186f6b6457e0905f90a35050565b6001600160a01b03821661032b5760405162461bcd60e51b815260206004820152601f60248201527f45524332303a206d696e7420746f20746865207a65726f206164647265737300604482015260640161026e565b8060025f82825461033c91906106aa565b90915550506001600160a01b0382165f81815260208181526040808320805486019055518481527fddf252ad1be2c89b69c2b068fc378daa952ba7f163c4a11628f55a4df523b3ef910160405180910390a35050565b6040516001600160601b03193060601b1660208201525f9081906034016040516020818303038152906040528051906020012090505f604051806020016103d890610403565b6020820181038252601f19601f820116604052509050818151602083015ff59250505090565b505050565b6101508061340183390190565b634e487b7160e01b5f52604160045260245ffd5b5f82601f830112610433575f5ffd5b81516001600160401b0381111561044c5761044c610410565b604051601f8201601f19908116603f011681016001600160401b038111828210171561047a5761047a610410565b604052818152838201602001851015610491575f5ffd5b8160208501602083015e5f918101602001919091529392505050565b80516001600160a01b03811681146104c3575f5ffd5b919050565b5f5f5f5f608085870312156104db575f5ffd5b84516001600160401b038111156104f0575f5ffd5b6104fc87828801610424565b602087015190955090506001600160401b03811115610519575f5ffd5b61052587828801610424565b935050610534604086016104ad565b9150610542606086016104ad565b905092959194509250565b600181811c9082168061056157607f821691505b60208210810361057f57634e487b7160e01b5f52602260045260245ffd5b50919050565b601f8211156103fe57805f5260205f20601f840160051c810160208510156105aa5750805b601f840160051c820191505b818110156105c9575f81556001016105b6565b5050505050565b81516001600160401b038111156105e9576105e9610410565b6105fd816105f7845461054d565b84610585565b6020601f82116001811461062f575f83156106185750848201515b5f19600385901b1c1916600184901b1784556105c9565b5f84815260208120601f198516915b8281101561065e578785015182556020948501946001909201910161063e565b508482101561067b57868401515f19600387901b60f8161c191681555b50505050600190811b01905550565b5f6020828403121561069a575f5ffd5b6106a3826104ad565b9392505050565b808201808211156106c957634e487b7160e01b5f52601160045260245ffd5b92915050565b60805160a05160c051612c596107a85f395f818161032001528181610ce401528181610d880152611c7101525f81816105280152818161078301528181610815015281816109cb01528181610af2015281816114dd01528181611518015281816115920152818161163801528181611f08015281816120f80152818161217b01528181612212015281816122d401528181612357015281816123ee015261257d01525f818161054f01528181610ed701528181611c0201528181611c3e01528181611cca01528181611d060152611de90152612c595ff3fe608060405234801561000f575f5ffd5b506004361061026b575f3560e01c806370a082311161014b578063b3416d78116100bf578063cf82046111610084578063cf82046114610595578063dd62ed3e1461059e578063ec375408146105b1578063edb46daf146105c4578063ef10d56c146105d7578063f2fde38b146105df575f5ffd5b8063b3416d7814610510578063b8c9d25c14610523578063c21ebd071461054a578063c54e44eb14610571578063cedddafe1461058c575f5ffd5b806386088e311161011057806386088e31146104b65780638bae7634146104c95780638da5cb5b146104d157806395d89b41146104e2578063a457c2d7146104ea578063a9059cbb146104fd575f5ffd5b806370a0823114610443578063715018a61461046b578063770cd1b8146104735780637b2f3de41461049b57806383834550146104a3575f5ffd5b80632a11ced0116101e257806340f7bbc7116101a757806340f7bbc7146103ca5780634b28246d146103ec5780635fe8e7cc146103ff57806363a184f514610414578063662fac39146104275780636df427621461043a575f5ffd5b80632a11ced0146103795780632e495fdd1461038c578063313ce5671461039557806339509351146103a457806340c10f19146103b7575f5ffd5b8063095ea7b311610233578063095ea7b31461030857806311af88a41461031b578063156444dd1461034257806318160ddd1461035557806321b77d631461035d57806323b872dd14610366575f5ffd5b806303fd2a451461026f5780630508c47314610295578063060e7844146102ac57806306fdde03146102de57806308aaa130146102f3575b5f5ffd5b61027861dead81565b6040516001600160a01b0390911681526020015b60405180910390f35b61029e60115481565b60405190815260200161028c565b6102ce6102ba3660046126f4565b60066020525f908152604090205460ff1681565b604051901515815260200161028c565b6102e66105f2565b60405161028c9190612716565b610306610301366004612758565b610682565b005b6102ce6103163660046127da565b610766565b6102787f000000000000000000000000000000000000000000000000000000000000000081565b61029e610350366004612804565b61077f565b60025461029e565b61029e60125481565b6102ce61037436600461281b565b6108bf565b610278610387366004612804565b6108e2565b61029e600d5481565b6040516012815260200161028c565b6102ce6103b23660046127da565b61090a565b6103066103c53660046127da565b61092b565b6102ce6103d83660046126f4565b60076020525f908152604090205460ff1681565b6103066103fa366004612859565b610983565b610407610c05565b60405161028c91906128b8565b600b54610278906001600160a01b031681565b600c54610278906001600160a01b031681565b61029e60105481565b61029e6104513660046126f4565b6001600160a01b03165f9081526020819052604090205490565b610306610c64565b6102786104813660046126f4565b60086020525f90815260409020546001600160a01b031681565b610306610c77565b61029e6104b1366004612804565b610e31565b6103066104c43660046126f4565b610f74565b610306610ff4565b6005546001600160a01b0316610278565b6102e6611002565b6102ce6104f83660046127da565b611011565b6102ce61050b3660046127da565b61108b565b61030661051e3660046128ca565b611098565b6102787f000000000000000000000000000000000000000000000000000000000000000081565b6102787f000000000000000000000000000000000000000000000000000000000000000081565b6102787355d398326f99059ff775485246999027b319795581565b61029e60135481565b61029e600e5481565b61029e6105ac3660046128f9565b6110b4565b6103066105bf366004612758565b6110de565b6103066105d23660046126f4565b6111b7565b610306611237565b6103066105ed3660046126f4565b611240565b60606003805461060190612930565b80601f016020809104026020016040519081016040528092919081815260200182805461062d90612930565b80156106785780601f1061064f57610100808354040283529160200191610678565b820191905f5260205f20905b81548152906001019060200180831161065b57829003601f168201915b5050505050905090565b61068a6112b9565b5f5b82811015610760575f8484838181106106a7576106a7612968565b90506020020160208101906106bc91906126f4565b6001600160a01b0316036107065760405162461bcd60e51b815260206004820152600c60248201526b5a45524f204144445245535360a01b60448201526064015b60405180910390fd5b8160065f86868581811061071c5761071c612968565b905060200201602081019061073191906126f4565b6001600160a01b0316815260208101919091526040015f20805460ff191691151591909117905560010161068c565b50505050565b5f33610773818585611313565b60019150505b92915050565b5f5f7f00000000000000000000000000000000000000000000000000000000000000006001600160a01b03166318160ddd6040518163ffffffff1660e01b8152600401602060405180830381865afa1580156107dd573d5f5f3e3d5ffd5b505050506040513d601f19601f82011682018060405250810190610801919061297c565b9050805f0361081257505f92915050565b5f7f00000000000000000000000000000000000000000000000000000000000000006001600160a01b0316630902f1ac6040518163ffffffff1660e01b8152600401606060405180830381865afa15801561086f573d5f5f3e3d5ffd5b505050506040513d601f19601f8201168201806040525081019061089391906129ae565b50506001600160701b031690505f826108ac8387612a03565b6108b69190612a1a565b95945050505050565b5f336108cc858285611436565b6108d78585856114a8565b506001949350505050565b600a81815481106108f1575f80fd5b5f918252602090912001546001600160a01b0316905081565b5f3361077381858561091c83836110b4565b6109269190612a39565b611313565b600c546001600160a01b031633146109755760405162461bcd60e51b815260206004820152600d60248201526c1393d508141154935255151151609a1b60448201526064016106fd565b61097f82826118a7565b5050565b3330146109be5760405162461bcd60e51b81526020600482015260096024820152682327a92124a22222a760b91b60448201526064016106fd565b81156109c8575050565b5f7f00000000000000000000000000000000000000000000000000000000000000006001600160a01b03166318160ddd6040518163ffffffff1660e01b8152600401602060405180830381865afa158015610a25573d5f5f3e3d5ffd5b505050506040513d601f19601f82011682018060405250810190610a49919061297c565b600e54305f9081526020819052604081205492935091610a699190612a4c565b9050811580610a79575060115481105b15610a845750505050565b600a545f80805a90505b8683108015610a9c57508382105b15610bfb5783600f5410610aaf575f600f555b5f600a600f5481548110610ac557610ac5612968565b5f9182526020822001546040516370a0823160e01b81526001600160a01b039182166004820181905293507f0000000000000000000000000000000000000000000000000000000000000000909116906370a0823190602401602060405180830381865afa158015610b39573d5f5f3e3d5ffd5b505050506040513d601f19601f82011682018060405250810190610b5d919061297c565b90508015610bb8575f88610b71838a612a03565b610b7b9190612a1a565b90505f81118015610ba65750600e54305f908152602081905260409020548291610ba491612a4c565b115b15610bb657610bb6308483611964565b505b5a610bc39084612a4c565b610bcd9086612a39565b94505a600f80549194505f610be183612a5f565b91905055508380610bf190612a5f565b9450505050610a8e565b5050505050505050565b6060600a80548060200260200160405190810160405280929190818152602001828054801561067857602002820191905f5260205f20905b81546001600160a01b03168152600190910190602001808311610c3d575050505050905090565b610c6c6112b9565b610c755f611b06565b565b333014610cb25760405162461bcd60e51b81526020600482015260096024820152682327a92124a22222a760b91b60448201526064016106fd565b5f6002600e54610cc29190612a1a565b9050610ccd81611b57565b6040516370a0823160e01b81526001600160a01b037f00000000000000000000000000000000000000000000000000000000000000001660048201525f907355d398326f99059ff775485246999027b3197955906370a0823190602401602060405180830381865afa158015610d45573d5f5f3e3d5ffd5b505050506040513d601f19601f82011682018060405250810190610d69919061297c565b9050801561097f576040516323b872dd60e01b81526001600160a01b037f0000000000000000000000000000000000000000000000000000000000000000166004820152306024820152604481018290527355d398326f99059ff775485246999027b3197955906323b872dd906064016020604051808303815f875af1158015610df5573d5f5f3e3d5ffd5b505050506040513d601f19601f82011682018060405250810190610e199190612a77565b5061097f82600e54610e2b9190612a4c565b82611cc4565b6040805160028082526060820183525f92839291906020830190803683370190505090507355d398326f99059ff775485246999027b3197955815f81518110610e7c57610e7c612968565b60200260200101906001600160a01b031690816001600160a01b0316815250503081600181518110610eb057610eb0612968565b6001600160a01b0392831660209182029290920101526040516307c0329d60e21b81525f917f00000000000000000000000000000000000000000000000000000000000000001690631f00ca7490610f0e9087908690600401612aa6565b5f60405180830381865afa158015610f28573d5f5f3e3d5ffd5b505050506040513d5f823e601f3d908101601f19168201604052610f4f9190810190612ac6565b9050805f81518110610f6357610f63612968565b602002602001015192505050919050565b610f7c6112b9565b6001600160a01b038116610fd25760405162461bcd60e51b815260206004820181905260248201527f457863656564207461782077616c6c65742063616e6e6f74206265207a65726f60448201526064016106fd565b600b80546001600160a01b0319166001600160a01b0392909216919091179055565b610ffc6112b9565b42600d55565b60606004805461060190612930565b5f338161101e82866110b4565b90508381101561107e5760405162461bcd60e51b815260206004820152602560248201527f45524332303a2064656372656173656420616c6c6f77616e63652062656c6f77604482015264207a65726f60d81b60648201526084016106fd565b6108d78286868403611313565b5f336107738185856114a8565b6110a06112b9565b601293909355601191909155601355601055565b6001600160a01b039182165f90815260016020908152604080832093909416825291909152205490565b6110e66112b9565b5f5b82811015610760575f84848381811061110357611103612968565b905060200201602081019061111891906126f4565b6001600160a01b03160361115d5760405162461bcd60e51b815260206004820152600c60248201526b5a45524f204144445245535360a01b60448201526064016106fd565b8160075f86868581811061117357611173612968565b905060200201602081019061118891906126f4565b6001600160a01b0316815260208101919091526040015f20805460ff19169115159190911790556001016110e8565b6111bf6112b9565b6001600160a01b0381166112155760405162461bcd60e51b815260206004820152601d60248201527f4d696e696e6720616464726573732063616e6e6f74206265207a65726f00000060448201526064016106fd565b600c80546001600160a01b0319166001600160a01b0392909216919091179055565b610c7533611e63565b6112486112b9565b6001600160a01b0381166112ad5760405162461bcd60e51b815260206004820152602660248201527f4f776e61626c653a206e6577206f776e657220697320746865207a65726f206160448201526564647265737360d01b60648201526084016106fd565b6112b681611b06565b50565b6005546001600160a01b03163314610c755760405162461bcd60e51b815260206004820181905260248201527f4f776e61626c653a2063616c6c6572206973206e6f7420746865206f776e657260448201526064016106fd565b6001600160a01b0383166113755760405162461bcd60e51b8152602060048201526024808201527f45524332303a20617070726f76652066726f6d20746865207a65726f206164646044820152637265737360e01b60648201526084016106fd565b6001600160a01b0382166113d65760405162461bcd60e51b815260206004820152602260248201527f45524332303a20617070726f766520746f20746865207a65726f206164647265604482015261737360f01b60648201526084016106fd565b6001600160a01b038381165f8181526001602090815260408083209487168084529482529182902085905590518481527f8c5be1e5ebec7d5bd14f71427d1e84f3dd0314c0f7b2291e5b200ac8c7c3b925910160405180910390a3505050565b5f61144184846110b4565b90505f198114610760578181101561149b5760405162461bcd60e51b815260206004820152601d60248201527f45524332303a20696e73756666696369656e7420616c6c6f77616e636500000060448201526064016106fd565b6107608484848403611313565b6001600160a01b03831615806114c557506001600160a01b038216155b156114da576114d5838383611964565b505050565b5f7f00000000000000000000000000000000000000000000000000000000000000006001600160a01b0316846001600160a01b0316148061154c57507f00000000000000000000000000000000000000000000000000000000000000006001600160a01b0316836001600160a01b0316145b6001600160a01b0385165f908152600660205260408120549192509060ff168061158d57506001600160a01b0384165f9081526006602052604090205460ff165b90505f7f00000000000000000000000000000000000000000000000000000000000000006001600160a01b0316856001600160a01b031603611635576115d2336120c5565b5090508015611635576001600160a01b038681165f9081526008602052604090205416611622576001600160a01b0386165f81815260086020526040902080546001600160a01b03191690911790555b61162d868686611964565b505050505050565b5f7f00000000000000000000000000000000000000000000000000000000000000006001600160a01b0316876001600160a01b03160361172c576116776122ce565b5090915050801561172c576001600160a01b0386165f9081526007602052604090205460ff16156116b8576116af8761dead87611964565b50505050505050565b6001600160a01b038087165f81815260086020526040902054909116146117215760405162461bcd60e51b815260206004820152601860248201527f4e6f74206f726967696e616c204c502070726f7669646572000000000000000060448201526064016106fd565b6116af878787611964565b5f848015611738575083155b15611761576103e861174a89886124b2565b6117549088612a03565b61175e9190612a1a565b90505b801561181e575f6103e8611776886023612a03565b6117809190612a1a565b9050808211156117ab57600b546117ab908a906001600160a01b03166117a68486612a4c565b611964565b6117ca8961dead6103e86117c08b6005612a03565b6117a69190612a1a565b6117dc893060646117c08b6003612a03565b6117eb89896117a6858b612a4c565b60646117f8886001612a03565b6118029190612a1a565b600e5f8282546118129190612a39565b90915550611829915050565b611829888888611964565b846118365761183661267e565b61183f88611e63565b61184887611e63565b604051634b28246d60e01b8152851515600482015261c35060248201523090634b28246d906044015f604051808303815f87803b158015611887575f5ffd5b505af1925050508015611898575060015b15610bfb575050505050505050565b6001600160a01b0382166118fd5760405162461bcd60e51b815260206004820152601f60248201527f45524332303a206d696e7420746f20746865207a65726f20616464726573730060448201526064016106fd565b8060025f82825461190e9190612a39565b90915550506001600160a01b0382165f81815260208181526040808320805486019055518481527fddf252ad1be2c89b69c2b068fc378daa952ba7f163c4a11628f55a4df523b3ef910160405180910390a35050565b6001600160a01b0383166119c85760405162461bcd60e51b815260206004820152602560248201527f45524332303a207472616e736665722066726f6d20746865207a65726f206164604482015264647265737360d81b60648201526084016106fd565b6001600160a01b038216611a2a5760405162461bcd60e51b815260206004820152602360248201527f45524332303a207472616e7366657220746f20746865207a65726f206164647260448201526265737360e81b60648201526084016106fd565b6001600160a01b0383165f9081526020819052604090205481811015611aa15760405162461bcd60e51b815260206004820152602660248201527f45524332303a207472616e7366657220616d6f756e7420657863656564732062604482015265616c616e636560d01b60648201526084016106fd565b6001600160a01b038481165f81815260208181526040808320878703905593871680835291849020805487019055925185815290927fddf252ad1be2c89b69c2b068fc378daa952ba7f163c4a11628f55a4df523b3ef910160405180910390a3610760565b600580546001600160a01b038381166001600160a01b0319831681179093556040519116919082907f8be0079c531659141344cd1fd0a4f28419497f9722a3daafe3b4186f6b6457e0905f90a35050565b805f03611b615750565b6040805160028082526060820183525f9260208301908036833701905050905030815f81518110611b9457611b94612968565b60200260200101906001600160a01b031690816001600160a01b0316815250507355d398326f99059ff775485246999027b319795581600181518110611bdc57611bdc612968565b60200260200101906001600160a01b031690816001600160a01b031681525050611c27307f000000000000000000000000000000000000000000000000000000000000000084611313565b604051635c11d79560e01b81526001600160a01b037f00000000000000000000000000000000000000000000000000000000000000001690635c11d79590611c9b9085905f9086907f0000000000000000000000000000000000000000000000000000000000000000904290600401612b8e565b5f604051808303815f87803b158015611cb2575f5ffd5b505af115801561162d573d5f5f3e3d5ffd5b611cef307f000000000000000000000000000000000000000000000000000000000000000084611313565b60405163095ea7b360e01b81526001600160a01b037f0000000000000000000000000000000000000000000000000000000000000000166004820152602481018290527355d398326f99059ff775485246999027b31979559063095ea7b3906044016020604051808303815f875af1158015611d6d573d5f5f3e3d5ffd5b505050506040513d601f19601f82011682018060405250810190611d919190612a77565b5060405162e8e33760e81b81523060048201527355d398326f99059ff775485246999027b3197955602482015260448101839052606481018290525f6084820181905260a482015261dead60c48201524260e48201527f00000000000000000000000000000000000000000000000000000000000000006001600160a01b03169063e8e3370090610104016060604051808303815f875af1158015611e38573d5f5f3e3d5ffd5b505050506040513d601f19601f82011682018060405250810190611e5c9190612bc9565b5050505050565b803b80151580611e7d57506001600160a01b03821661dead145b15611e86575050565b6001600160a01b0382165f90815260096020526040812054600a5490919015801590611ee05750836001600160a01b0316600a8381548110611eca57611eca612968565b5f918252602090912001546001600160a01b0316145b6040516370a0823160e01b81526001600160a01b0386811660048301529192505f91611f73917f0000000000000000000000000000000000000000000000000000000000000000909116906370a0823190602401602060405180830381865afa158015611f4f573d5f5f3e3d5ffd5b505050506040513d601f19601f82011682018060405250810190610350919061297c565b90506012548110611fe45781611fdf57600a80546001600160a01b0387165f818152600960205260408120839055600183018455929092527fc65a7bb8d6351c1cf70c95a316cc6a92839c986682d98bc35f958f4883f9d2a80180546001600160a01b03191690911790555b611e5c565b8115611e5c57600a80545f9190611ffd90600190612a4c565b8154811061200d5761200d612968565b5f91825260209091200154600a80546001600160a01b03909216925082918690811061203b5761203b612968565b5f91825260208083209190910180546001600160a01b0319166001600160a01b039485161790559183168152600990915260409020849055600a80548061208457612084612bf4565b5f828152602080822083015f1990810180546001600160a01b03191690559092019092556001600160a01b0388168252600990526040812055505050505050565b5f806001600160a01b0383167310ed43c718714eb63d5aa57b78b54704e256024e146120f557505f928392509050565b5f7f00000000000000000000000000000000000000000000000000000000000000006001600160a01b0316630dfe16816040518163ffffffff1660e01b8152600401602060405180830381865afa158015612152573d5f5f3e3d5ffd5b505050506040513d601f19601f820116820180604052508101906121769190612c08565b90505f7f00000000000000000000000000000000000000000000000000000000000000006001600160a01b0316630902f1ac6040518163ffffffff1660e01b8152600401606060405180830381865afa1580156121d5573d5f5f3e3d5ffd5b505050506040513d601f19601f820116820180604052508101906121f991906129ae565b50506040516370a0823160e01b81526001600160a01b037f0000000000000000000000000000000000000000000000000000000000000000811660048301526001600160701b039290921692505f918416906370a0823190602401602060405180830381865afa15801561226f573d5f5f3e3d5ffd5b505050506040513d601f19601f82011682018060405250810190612293919061297c565b90506001600160a01b03831630146122c657818111156122c6576122b78282612a4c565b9350655af3107a400084101594505b505050915091565b5f5f5f5f7f00000000000000000000000000000000000000000000000000000000000000006001600160a01b0316630dfe16816040518163ffffffff1660e01b8152600401602060405180830381865afa15801561232e573d5f5f3e3d5ffd5b505050506040513d601f19601f820116820180604052508101906123529190612c08565b90505f7f00000000000000000000000000000000000000000000000000000000000000006001600160a01b0316630902f1ac6040518163ffffffff1660e01b8152600401606060405180830381865afa1580156123b1573d5f5f3e3d5ffd5b505050506040513d601f19601f820116820180604052508101906123d591906129ae565b50506040516370a0823160e01b81526001600160a01b037f0000000000000000000000000000000000000000000000000000000000000000811660048301526001600160701b039290921692505f918416906370a0823190602401602060405180830381865afa15801561244b573d5f5f3e3d5ffd5b505050506040513d601f19601f8201168201806040525081019061246f919061297c565b90506001600160a01b03831630146124aa57808211156124a4576124938183612a4c565b93506402540be400841195506124aa565b80821494505b505050909192565b5f5f600d54426124c29190612a4c565b9050600d545f0361254c576001600160a01b0384165f9081526006602052604090205460ff1661254c5760405162461bcd60e51b815260206004820152602f60248201527f4f70656e696e67206e6f74207365742c206f6e6c79206578656d70742061646460448201526e3932b9b9b2b99031b0b710313abc9760891b60648201526084016106fd565b61012c8110801561257557506001600160a01b0384165f9081526006602052604090205460ff16155b15612661575f7f00000000000000000000000000000000000000000000000000000000000000006001600160a01b03166318160ddd6040518163ffffffff1660e01b8152600401602060405180830381865afa1580156125d7573d5f5f3e3d5ffd5b505050506040513d601f19601f820116820180604052508101906125fb919061297c565b1115612661575f61260b84610e31565b905060105481111561265f5760405162461bcd60e51b815260206004820181905260248201527f50757263686173652065786365656473203530302055534454206c696d69742e60448201526064016106fd565b505b6107088110612674576023915050610779565b5060649392505050565b601354600e54101561268c57565b306001600160a01b0316637b2f3de46040518163ffffffff1660e01b81526004015f604051808303815f87803b1580156126c4575f5ffd5b505af19250505080156126d5575060015b15610c75575f600e55565b6001600160a01b03811681146112b6575f5ffd5b5f60208284031215612704575f5ffd5b813561270f816126e0565b9392505050565b602081525f82518060208401528060208501604085015e5f604082850101526040601f19601f83011684010191505092915050565b80151581146112b6575f5ffd5b5f5f5f6040848603121561276a575f5ffd5b833567ffffffffffffffff811115612780575f5ffd5b8401601f81018613612790575f5ffd5b803567ffffffffffffffff8111156127a6575f5ffd5b8660208260051b84010111156127ba575f5ffd5b6020918201945092508401356127cf8161274b565b809150509250925092565b5f5f604083850312156127eb575f5ffd5b82356127f6816126e0565b946020939093013593505050565b5f60208284031215612814575f5ffd5b5035919050565b5f5f5f6060848603121561282d575f5ffd5b8335612838816126e0565b92506020840135612848816126e0565b929592945050506040919091013590565b5f5f6040838503121561286a575f5ffd5b82356127f68161274b565b5f8151808452602084019350602083015f5b828110156128ae5781516001600160a01b0316865260209586019590910190600101612887565b5093949350505050565b602081525f61270f6020830184612875565b5f5f5f5f608085870312156128dd575f5ffd5b5050823594602084013594506040840135936060013592509050565b5f5f6040838503121561290a575f5ffd5b8235612915816126e0565b91506020830135612925816126e0565b809150509250929050565b600181811c9082168061294457607f821691505b60208210810361296257634e487b7160e01b5f52602260045260245ffd5b50919050565b634e487b7160e01b5f52603260045260245ffd5b5f6020828403121561298c575f5ffd5b5051919050565b80516001600160701b03811681146129a9575f5ffd5b919050565b5f5f5f606084860312156129c0575f5ffd5b6129c984612993565b92506129d760208501612993565b9150604084015163ffffffff811681146127cf575f5ffd5b634e487b7160e01b5f52601160045260245ffd5b8082028115828204841417610779576107796129ef565b5f82612a3457634e487b7160e01b5f52601260045260245ffd5b500490565b80820180821115610779576107796129ef565b81810381811115610779576107796129ef565b5f60018201612a7057612a706129ef565b5060010190565b5f60208284031215612a87575f5ffd5b815161270f8161274b565b634e487b7160e01b5f52604160045260245ffd5b828152604060208201525f612abe6040830184612875565b949350505050565b5f60208284031215612ad6575f5ffd5b815167ffffffffffffffff811115612aec575f5ffd5b8201601f81018413612afc575f5ffd5b805167ffffffffffffffff811115612b1657612b16612a92565b8060051b604051601f19603f830116810181811067ffffffffffffffff82111715612b4357612b43612a92565b604052918252602081840181019290810187841115612b60575f5ffd5b6020850194505b83851015612b8357845180825260209586019590935001612b67565b509695505050505050565b85815284602082015260a060408201525f612bac60a0830186612875565b6001600160a01b0394909416606083015250608001529392505050565b5f5f5f60608486031215612bdb575f5ffd5b5050815160208301516040909301519094929350919050565b634e487b7160e01b5f52603160045260245ffd5b5f60208284031215612c18575f5ffd5b815161270f816126e056fea2646970667358221220c6fb6d19672fbfec4f4d3aedea4aa46f7260134a0e83e424eb8523253f0988c964736f6c634300081c00336080604052348015600e575f5ffd5b5060405163095ea7b360e01b81523360048201525f1960248201527355d398326f99059ff775485246999027b31979559063095ea7b3906044016020604051808303815f875af11580156063573d5f5f3e3d5ffd5b505050506040513d601f19601f8201168201806040525081019060859190608a565b5060ae565b5f602082840312156099575f5ffd5b8151801515811460a7575f5ffd5b9392505050565b6096806100ba5f395ff3fe6080604052348015600e575f5ffd5b50600436106026575f3560e01c8063c54e44eb14602a575b5f5ffd5b60447355d398326f99059ff775485246999027b319795581565b6040516001600160a01b03909116815260200160405180910390f3fea2646970667358221220df3def98c0669ea7f9d8709dd706cb7aa6062940d0a8ef016ca053fc9251457964736f6c634300081c0033a264697066735822122009a3a481c31f8ab7d2872370e47a9451a82b83a4c96e0a24b03c11378ec6169264736f6c634300081c0033","linkReferences":{}},"methodIdentifiers":{"deployTokenV2(string,string,address,address)":"fce7d7bc","deployedAddress()":"8efc30f9","predictAddress(string,string,address,address,bytes32)":"b2229840","transferOwnership(address)":"f2fde38b","usdt()":"2f48ab7d"},"id":44}