{"abi":[{"type":"constructor","inputs":[{"name":"_name","type":"string","internalType":"string"},{"name":"_symbol","type":"string","internalType":"string"},{"name":"_initialRecipient","type":"address","internalType":"address"},{"name":"_exceedTaxWallet","type":"address","internalType":"address"}],"stateMutability":"nonpayable"},{"type":"function","name":"DEAD","inputs":[],"outputs":[{"name":"","type":"address","internalType":"address"}],"stateMutability":"view"},{"type":"function","name":"USDT","inputs":[],"outputs":[{"name":"","type":"address","internalType":"address"}],"stateMutability":"view"},{"type":"function","name":"_safeSwapAndAdd","inputs":[],"outputs":[],"stateMutability":"nonpayable"},{"type":"function","name":"allowance","inputs":[{"name":"owner","type":"address","internalType":"address"},{"name":"spender","type":"address","internalType":"address"}],"outputs":[{"name":"","type":"uint256","internalType":"uint256"}],"stateMutability":"view"},{"type":"function","name":"approve","inputs":[{"name":"spender","type":"address","internalType":"address"},{"name":"value","type":"uint256","internalType":"uint256"}],"outputs":[{"name":"","type":"bool","internalType":"bool"}],"stateMutability":"nonpayable"},{"type":"function","name":"balanceOf","inputs":[{"name":"account","type":"address","internalType":"address"}],"outputs":[{"name":"","type":"uint256","internalType":"uint256"}],"stateMutability":"view"},{"type":"function","name":"decimals","inputs":[],"outputs":[{"name":"","type":"uint8","internalType":"uint8"}],"stateMutability":"view"},{"type":"function","name":"exceedTaxWallet","inputs":[],"outputs":[{"name":"","type":"address","internalType":"address"}],"stateMutability":"view"},{"type":"function","name":"getAmountInToken","inputs":[{"name":"usdtAmount","type":"uint256","internalType":"uint256"}],"outputs":[{"name":"","type":"uint256","internalType":"uint256"}],"stateMutability":"view"},{"type":"function","name":"getAmountInUSDT","inputs":[{"name":"tokenAmount","type":"uint256","internalType":"uint256"}],"outputs":[{"name":"","type":"uint256","internalType":"uint256"}],"stateMutability":"view"},{"type":"function","name":"getAmountOutUSDT","inputs":[{"name":"tokenAmount","type":"uint256","internalType":"uint256"}],"outputs":[{"name":"","type":"uint256","internalType":"uint256"}],"stateMutability":"view"},{"type":"function","name":"getHolders","inputs":[],"outputs":[{"name":"","type":"address[]","internalType":"address[]"}],"stateMutability":"view"},{"type":"function","name":"holders","inputs":[{"name":"","type":"uint256","internalType":"uint256"}],"outputs":[{"name":"","type":"address","internalType":"address"}],"stateMutability":"view"},{"type":"function","name":"isExemptFromTax","inputs":[{"name":"","type":"address","internalType":"address"}],"outputs":[{"name":"","type":"bool","internalType":"bool"}],"stateMutability":"view"},{"type":"function","name":"mining","inputs":[],"outputs":[{"name":"","type":"address","internalType":"address"}],"stateMutability":"view"},{"type":"function","name":"mint","inputs":[{"name":"to","type":"address","internalType":"address"},{"name":"amount","type":"uint256","internalType":"uint256"}],"outputs":[],"stateMutability":"nonpayable"},{"type":"function","name":"name","inputs":[],"outputs":[{"name":"","type":"string","internalType":"string"}],"stateMutability":"view"},{"type":"function","name":"openingPoint","inputs":[],"outputs":[{"name":"","type":"uint256","internalType":"uint256"}],"stateMutability":"view"},{"type":"function","name":"owner","inputs":[],"outputs":[{"name":"","type":"address","internalType":"address"}],"stateMutability":"view"},{"type":"function","name":"pancakePair","inputs":[],"outputs":[{"name":"","type":"address","internalType":"address"}],"stateMutability":"view"},{"type":"function","name":"pancakeRouter","inputs":[],"outputs":[{"name":"","type":"address","internalType":"contract IPancakeRouter02"}],"stateMutability":"view"},{"type":"function","name":"receiveHelper","inputs":[],"outputs":[{"name":"","type":"address","internalType":"address"}],"stateMutability":"view"},{"type":"function","name":"renounceOwnership","inputs":[],"outputs":[],"stateMutability":"nonpayable"},{"type":"function","name":"setMining","inputs":[{"name":"_mining","type":"address","internalType":"address"}],"outputs":[],"stateMutability":"nonpayable"},{"type":"function","name":"setTaxExemption","inputs":[{"name":"_addrs","type":"address[]","internalType":"address[]"},{"name":"_exempt","type":"bool","internalType":"bool"}],"outputs":[],"stateMutability":"nonpayable"},{"type":"function","name":"symbol","inputs":[],"outputs":[{"name":"","type":"string","internalType":"string"}],"stateMutability":"view"},{"type":"function","name":"totalSupply","inputs":[],"outputs":[{"name":"","type":"uint256","internalType":"uint256"}],"stateMutability":"view"},{"type":"function","name":"transfer","inputs":[{"name":"to","type":"address","internalType":"address"},{"name":"value","type":"uint256","internalType":"uint256"}],"outputs":[{"name":"","type":"bool","internalType":"bool"}],"stateMutability":"nonpayable"},{"type":"function","name":"transferFrom","inputs":[{"name":"from","type":"address","internalType":"address"},{"name":"to","type":"address","internalType":"address"},{"name":"value","type":"uint256","internalType":"uint256"}],"outputs":[{"name":"","type":"bool","internalType":"bool"}],"stateMutability":"nonpayable"},{"type":"function","name":"transferOwnership","inputs":[{"name":"newOwner","type":"address","internalType":"address"}],"outputs":[],"stateMutability":"nonpayable"},{"type":"function","name":"txFee","inputs":[],"outputs":[{"name":"","type":"uint256","internalType":"uint256"}],"stateMutability":"view"},{"type":"function","name":"updateMyStatus","inputs":[],"outputs":[],"stateMutability":"nonpayable"},{"type":"function","name":"usdtCost","inputs":[{"name":"","type":"address","internalType":"address"}],"outputs":[{"name":"","type":"uint256","internalType":"uint256"}],"stateMutability":"view"},{"type":"event","name":"Approval","inputs":[{"name":"owner","type":"address","indexed":true,"internalType":"address"},{"name":"spender","type":"address","indexed":true,"internalType":"address"},{"name":"value","type":"uint256","indexed":false,"internalType":"uint256"}],"anonymous":false},{"type":"event","name":"DebugHolder","inputs":[{"name":"user","type":"address","indexed":false,"internalType":"address"},{"name":"amount","type":"uint256","indexed":false,"internalType":"uint256"}],"anonymous":false},{"type":"event","name":"OwnershipTransferred","inputs":[{"name":"previousOwner","type":"address","indexed":true,"internalType":"address"},{"name":"newOwner","type":"address","indexed":true,"internalType":"address"}],"anonymous":false},{"type":"event","name":"Transfer","inputs":[{"name":"from","type":"address","indexed":true,"internalType":"address"},{"name":"to","type":"address","indexed":true,"internalType":"address"},{"name":"value","type":"uint256","indexed":false,"internalType":"uint256"}],"anonymous":false},{"type":"error","name":"ERC20InsufficientAllowance","inputs":[{"name":"spender","type":"address","internalType":"address"},{"name":"allowance","type":"uint256","internalType":"uint256"},{"name":"needed","type":"uint256","internalType":"uint256"}]},{"type":"error","name":"ERC20InsufficientBalance","inputs":[{"name":"sender","type":"address","internalType":"address"},{"name":"balance","type":"uint256","internalType":"uint256"},{"name":"needed","type":"uint256","internalType":"uint256"}]},{"type":"error","name":"ERC20InvalidApprover","inputs":[{"name":"approver","type":"address","internalType":"address"}]},{"type":"error","name":"ERC20InvalidReceiver","inputs":[{"name":"receiver","type":"address","internalType":"address"}]},{"type":"error","name":"ERC20InvalidSender","inputs":[{"name":"sender","type":"address","internalType":"address"}]},{"type":"error","name":"ERC20InvalidSpender","inputs":[{"name":"spender","type":"address","internalType":"address"}]},{"type":"error","name":"OwnableInvalidOwner","inputs":[{"name":"owner","type":"address","internalType":"address"}]},{"type":"error","name":"OwnableUnauthorizedAccount","inputs":[{"name":"account","type":"address","internalType":"address"}]}],"bytecode":{"object":"0x60e060405234801561000f575f5ffd5b50604051613b66380380613b6683398101604081905261002e916111f0565b338484600361003d83826112f8565b50600461004a82826112f8565b5050506001600160a01b03811661007b57604051631e4fbdf760e01b81525f60048201526024015b60405180910390fd5b6100848161021b565b507310ed43c718714eb63d5aa57b78b54704e256024e6080526100b2826a52b7d2dcc80cd2e400000061026c565b6080516001600160a01b031663c45a01556040518163ffffffff1660e01b8152600401602060405180830381865afa1580156100f0573d5f5f3e3d5ffd5b505050506040513d601f19601f8201168201806040525081019061011491906113b2565b6040516364e329cb60e11b81523060048201527355d398326f99059ff775485246999027b319795560248201526001600160a01b03919091169063c9c65396906044016020604051808303815f875af1158015610173573d5f5f3e3d5ffd5b505050506040513d601f19601f8201168201806040525081019061019791906113b2565b6001600160a01b0390811660a052600d80546001600160a01b0319169183169190911790556101c46102a4565b6001600160a01b0390811660c052919091165f908152600760205260408082208054600160ff1991821681179092553084528284208054821683179055338452919092208054909116909117905550611598915050565b600580546001600160a01b038381166001600160a01b0319831681179093556040519116919082907f8be0079c531659141344cd1fd0a4f28419497f9722a3daafe3b4186f6b6457e0905f90a35050565b6001600160a01b0382166102955760405163ec442f0560e01b81525f6004820152602401610072565b6102a05f8383610310565b5050565b6040516001600160601b03193060601b1660208201525f9081906034016040516020818303038152906040528051906020012090505f604051806020016102ea90611119565b6020820181038252601f19601f820116604052509050818151602083015ff59250505090565b60a0516001600160a01b03161580159061032a5750600b54155b801561039657505f60a0516001600160a01b03166318160ddd6040518163ffffffff1660e01b8152600401602060405180830381865afa158015610370573d5f5f3e3d5ffd5b505050506040513d601f19601f8201168201806040525081019061039491906113cb565b115b156103a05742600b555b6001600160a01b03831615806103bd57506001600160a01b038216155b156103d2576103cd8383836105a4565b505050565b5f60a0516001600160a01b0316846001600160a01b03161480610408575060a0516001600160a01b0316836001600160a01b0316145b6001600160a01b0385165f908152600760205260408120549192509060ff168061044957506001600160a01b0384165f9081526007602052604090205460ff165b9050825f806104598888856106ca565b905080156104785761046b81876113f6565b92506104788830836105a4565b831580156104835750845b156104a95760646104926108bc565b61049c908861140f565b6104a69190611426565b91505b8115610564575f60646104bd88600361140f565b6104c79190611426565b9050808311156104f257600d546104f2908a906001600160a01b03166104ed84876113f6565b6105a4565b61050e893060646105048b600261140f565b6104ed9190611426565b6105228961dead60646105048b600161140f565b61053189896104ed86886113f6565b606461053e88600261140f565b6105489190611426565b600a5f8282546105589190611445565b9091555061056f915050565b61056f8888856105a4565b8461057c5761057c6108ea565b61058588610954565b61058e87610954565b61059a8561c350610b96565b5050505050505050565b6001600160a01b0383166105ce578060025f8282546105c39190611445565b9091555061063e9050565b6001600160a01b0383165f90815260208190526040902054818110156106205760405163391434e360e21b81526001600160a01b03851660048201526024810182905260448101839052606401610072565b6001600160a01b0384165f9081526020819052604090209082900390555b6001600160a01b03821661065a57600280548290039055610678565b6001600160a01b0382165f9081526020819052604090208054820190555b816001600160a01b0316836001600160a01b03167fddf252ad1be2c89b69c2b068fc378daa952ba7f163c4a11628f55a4df523b3ef836040516106bd91815260200190565b60405180910390a3505050565b60a0515f906001600160a01b03161580610743575060a0516001600160a01b03166318160ddd6040518163ffffffff1660e01b8152600401602060405180830381865afa15801561071d573d5f5f3e3d5ffd5b505050506040513d601f19601f8201168201806040525081019061074191906113cb565b155b1561074f57505f6108b5565b6001600160a01b0384165f9081526007602052604090205460ff168061078c57506001600160a01b0383165f9081526007602052604090205460ff165b1561079857505f6108b5565b60a0516001600160a01b0316846001600160a01b0316036107fb575f6107bd83610d9b565b905080156107f2576001600160a01b0384165f90815260066020526040812080548392906107ec908490611445565b90915550505b5f9150506108b5565b60a0516001600160a01b0316836001600160a01b0316036108b2575f61082083610ec3565b6001600160a01b0386165f90815260066020526040902054909150801580159061084957508082115b15610897575f61085982846113f6565b90505f606461086983600a61140f565b6108739190611426565b90505f61087f82610fe7565b905080156108935794506108b59350505050565b5050505b50506001600160a01b0384165f908152600660205260408120555b505f5b9392505050565b5f5f600b54426108cc91906113f6565b905061070881106108de5760036108e1565b600a5b60ff1691505090565b68056bc75e2d63100000600a5410156108ff57565b306001600160a01b0316637b2f3de46040518163ffffffff1660e01b81526004015f604051808303815f87803b158015610937575f5ffd5b505af1925050508015610948575060015b15610952575f600a555b565b803b8015158061096e57506001600160a01b03821661dead145b15610977575050565b6001600160a01b0382165f90815260086020526040812054600954909190158015906109d15750836001600160a01b0316600983815481106109bb576109bb611458565b5f918252602090912001546001600160a01b0316145b60a0516040516370a0823160e01b81526001600160a01b038781166004830152929350678ac7230489e8000092909116906370a0823190602401602060405180830381865afa158015610a26573d5f5f3e3d5ffd5b505050506040513d601f19601f82011682018060405250810190610a4a91906113cb565b10610ab55780610ab057600980546001600160a01b0386165f818152600860205260408120839055600183018455929092527f6e1540171b6c0c960b71a7020d9f60077f6af931a8bbf590da0223dacf75c7af0180546001600160a01b03191690911790555b610b90565b8015610b9057600980545f9190610ace906001906113f6565b81548110610ade57610ade611458565b5f91825260209091200154600980546001600160a01b039092169250829185908110610b0c57610b0c611458565b5f91825260208083209190910180546001600160a01b0319166001600160a01b0394851617905591831681526008909152604090208390556009805480610b5557610b5561146c565b5f828152602080822083015f1990810180546001600160a01b03191690559092019092556001600160a01b0387168252600890526040812055505b50505050565b8115610ba0575050565b5f60a0516001600160a01b03166318160ddd6040518163ffffffff1660e01b8152600401602060405180830381865afa158015610bdf573d5f5f3e3d5ffd5b505050506040513d601f19601f82011682018060405250810190610c0391906113cb565b90505f600a54610c18306110ff60201b60201c565b610c2291906113f6565b9050811580610c385750670de0b6b3a764000081105b15610c435750505050565b6009545f80805a90505b8683108015610c5b57508382105b1561059a5783600c5410610c6e575f600c555b5f6009600c5481548110610c8457610c84611458565b5f91825260208220015460a0516040516370a0823160e01b81526001600160a01b039283166004820181905294509116906370a0823190602401602060405180830381865afa158015610cd9573d5f5f3e3d5ffd5b505050506040513d601f19601f82011682018060405250810190610cfd91906113cb565b90508015610d58575f88610d11838a61140f565b610d1b9190611426565b90505f81118015610d465750600a54305f908152602081905260409020548291610d44916113f6565b115b15610d5657610d563084836105a4565b505b5a610d6390846113f6565b610d6d9086611445565b94505a600c80549194505f610d8183611480565b91905055508380610d9190611480565b9450505050610c4d565b6040805160028082526060820183525f92839291906020830190803683370190505090507355d398326f99059ff775485246999027b3197955815f81518110610de657610de6611458565b60200260200101906001600160a01b031690816001600160a01b0316815250503081600181518110610e1a57610e1a611458565b6001600160a01b0392831660209182029290920101526080516040516307c0329d60e21b81525f929190911690631f00ca7490610e5d9087908690600401611498565b5f60405180830381865afa158015610e77573d5f5f3e3d5ffd5b505050506040513d5f823e601f3d908101601f19168201604052610e9e91908101906114ee565b9050805f81518110610eb257610eb2611458565b602002602001015192505050919050565b6040805160028082526060820183525f928392919060208301908036833701905050905030815f81518110610efa57610efa611458565b60200260200101906001600160a01b031690816001600160a01b0316815250507355d398326f99059ff775485246999027b319795581600181518110610f4257610f42611458565b6001600160a01b03928316602091820292909201015260805160405163d06ca61f60e01b81525f92919091169063d06ca61f90610f859087908690600401611498565b5f60405180830381865afa158015610f9f573d5f5f3e3d5ffd5b505050506040513d5f823e601f3d908101601f19168201604052610fc691908101906114ee565b90508060018251610fd791906113f6565b81518110610eb257610eb2611458565b6040805160028082526060820183525f92839291906020830190803683370190505090507355d398326f99059ff775485246999027b3197955815f8151811061103257611032611458565b60200260200101906001600160a01b031690816001600160a01b031681525050308160018151811061106657611066611458565b6001600160a01b0392831660209182029290920101526080516040516307c0329d60e21b81525f929190911690631f00ca74906110a99087908690600401611498565b5f60405180830381865afa1580156110c3573d5f5f3e3d5ffd5b505050506040513d5f823e601f3d908101601f191682016040526110ea91908101906114ee565b905080600181518110610eb257610eb2611458565b6001600160a01b03165f9081526020819052604090205490565b61015080613a1683390190565b634e487b7160e01b5f52604160045260245ffd5b604051601f8201601f191681016001600160401b038111828210171561116257611162611126565b604052919050565b5f82601f830112611179575f5ffd5b81516001600160401b0381111561119257611192611126565b6111a5601f8201601f191660200161113a565b8181528460208386010111156111b9575f5ffd5b8160208501602083015e5f918101602001919091529392505050565b80516001600160a01b03811681146111eb575f5ffd5b919050565b5f5f5f5f60808587031215611203575f5ffd5b84516001600160401b03811115611218575f5ffd5b6112248782880161116a565b602087015190955090506001600160401b03811115611241575f5ffd5b61124d8782880161116a565b93505061125c604086016111d5565b915061126a606086016111d5565b905092959194509250565b600181811c9082168061128957607f821691505b6020821081036112a757634e487b7160e01b5f52602260045260245ffd5b50919050565b601f8211156103cd57805f5260205f20601f840160051c810160208510156112d25750805b601f840160051c820191505b818110156112f1575f81556001016112de565b5050505050565b81516001600160401b0381111561131157611311611126565b6113258161131f8454611275565b846112ad565b6020601f821160018114611357575f83156113405750848201515b5f19600385901b1c1916600184901b1784556112f1565b5f84815260208120601f198516915b828110156113865787850151825560209485019460019092019101611366565b50848210156113a357868401515f19600387901b60f8161c191681555b50505050600190811b01905550565b5f602082840312156113c2575f5ffd5b6108b5826111d5565b5f602082840312156113db575f5ffd5b5051919050565b634e487b7160e01b5f52601160045260245ffd5b81810381811115611409576114096113e2565b92915050565b8082028115828204841417611409576114096113e2565b5f8261144057634e487b7160e01b5f52601260045260245ffd5b500490565b80820180821115611409576114096113e2565b634e487b7160e01b5f52603260045260245ffd5b634e487b7160e01b5f52603160045260245ffd5b5f60018201611491576114916113e2565b5060010190565b5f60408201848352604060208401528084518083526060850191506020860192505f5b818110156114e25783516001600160a01b03168352602093840193909201916001016114bb565b50909695505050505050565b5f602082840312156114fe575f5ffd5b81516001600160401b03811115611513575f5ffd5b8201601f81018413611523575f5ffd5b80516001600160401b0381111561153c5761153c611126565b8060051b61154c6020820161113a565b91825260208184018101929081019087841115611567575f5ffd5b6020850194505b8385101561158d5784518083526020958601959093509091019061156e565b979650505050505050565b60805160a05160c0516123ba61165c5f395f818161029001528181610939015281816109dd015261107901525f81816104110152818161131c015281816115a4015281816115e40152818161169e015281816116d9015281816119d201528181611a0301528181611ada01528181611b5b01528181611cdb0152611e0801525f8181610438015281816107bc01528181610b2c01528181610c6b0152818161100a01528181611046015281816110da0152818161111601526111f901526123ba5ff3fe608060405234801561000f575f5ffd5b50600436106101f2575f3560e01c806370a0823111610114578063a9059cbb116100a9578063cf82046111610079578063cf82046114610475578063dd62ed3e1461047e578063edb46daf146104b6578063ef10d56c146104c9578063f2fde38b146104d1575f5ffd5b8063a9059cbb146103f9578063b8c9d25c1461040c578063c21ebd0714610433578063c54e44eb1461045a575f5ffd5b806389e750ec116100e457806389e750ec146103c45780638da5cb5b146103d757806395d89b41146103e8578063a0f854d8146103f0575f5ffd5b806370a0823114610379578063715018a6146103a15780637b2f3de4146103a957806383834550146103b1575f5ffd5b80632a11ced01161018a5780635fe8e7cc1161015a5780635fe8e7cc1461031f57806363a184f514610334578063662fac391461034757806366aad19f1461035a575f5ffd5b80632a11ced0146102d7578063313ce567146102ea57806340c10f19146102f9578063574e09d91461030c575f5ffd5b8063095ea7b3116101c5578063095ea7b31461027857806311af88a41461028b57806318160ddd146102b257806323b872dd146102c4575f5ffd5b806303fd2a45146101f6578063060e78441461021c57806306fdde031461024e57806308aaa13014610263575b5f5ffd5b6101ff61dead81565b6040516001600160a01b0390911681526020015b60405180910390f35b61023e61022a366004611f2c565b60076020525f908152604090205460ff1681565b6040519015158152602001610213565b6102566104e4565b6040516102139190611f45565b610276610271366004611f87565b610574565b005b61023e610286366004612009565b610658565b6101ff7f000000000000000000000000000000000000000000000000000000000000000081565b6002545b604051908152602001610213565b61023e6102d2366004612031565b610671565b6101ff6102e536600461206b565b610696565b60405160128152602001610213565b610276610307366004612009565b6106be565b6102b661031a36600461206b565b610716565b61032761085a565b60405161021391906120c5565b600d546101ff906001600160a01b031681565b600e546101ff906001600160a01b031681565b6102b6610368366004611f2c565b60066020525f908152604090205481565b6102b6610387366004611f2c565b6001600160a01b03165f9081526020819052604090205490565b6102766108b9565b6102766108cc565b6102b66103bf36600461206b565b610a86565b6102b66103d236600461206b565b610bc5565b6005546001600160a01b03166101ff565b610256610cf7565b6102b6600b5481565b61023e610407366004612009565b610d06565b6101ff7f000000000000000000000000000000000000000000000000000000000000000081565b6101ff7f000000000000000000000000000000000000000000000000000000000000000081565b6101ff7355d398326f99059ff775485246999027b319795581565b6102b6600a5481565b6102b661048c3660046120d7565b6001600160a01b039182165f90815260016020908152604080832093909416825291909152205490565b6102766104c4366004611f2c565b610d13565b610276610d82565b6102766104df366004611f2c565b610d8b565b6060600380546104f390612108565b80601f016020809104026020016040519081016040528092919081815260200182805461051f90612108565b801561056a5780601f106105415761010080835404028352916020019161056a565b820191905f5260205f20905b81548152906001019060200180831161054d57829003601f168201915b5050505050905090565b61057c610dc8565b5f5b82811015610652575f84848381811061059957610599612140565b90506020020160208101906105ae9190611f2c565b6001600160a01b0316036105f85760405162461bcd60e51b815260206004820152600c60248201526b5a45524f204144445245535360a01b60448201526064015b60405180910390fd5b8160075f86868581811061060e5761060e612140565b90506020020160208101906106239190611f2c565b6001600160a01b0316815260208101919091526040015f20805460ff191691151591909117905560010161057e565b50505050565b5f33610665818585610df5565b60019150505b92915050565b5f3361067e858285610e07565b610689858585610e7d565b60019150505b9392505050565b600981815481106106a5575f80fd5b5f918252602090912001546001600160a01b0316905081565b600e546001600160a01b031633146107085760405162461bcd60e51b815260206004820152600d60248201526c1393d508141154935255151151609a1b60448201526064016105ef565b6107128282610eda565b5050565b6040805160028082526060820183525f92839291906020830190803683370190505090507355d398326f99059ff775485246999027b3197955815f8151811061076157610761612140565b60200260200101906001600160a01b031690816001600160a01b031681525050308160018151811061079557610795612140565b6001600160a01b0392831660209182029290920101526040516307c0329d60e21b81525f917f00000000000000000000000000000000000000000000000000000000000000001690631f00ca74906107f39087908690600401612168565b5f60405180830381865afa15801561080d573d5f5f3e3d5ffd5b505050506040513d5f823e601f3d908101601f191682016040526108349190810190612188565b90508060018151811061084957610849612140565b602002602001015192505050919050565b6060600980548060200260200160405190810160405280929190818152602001828054801561056a57602002820191905f5260205f20905b81546001600160a01b03168152600190910190602001808311610892575050505050905090565b6108c1610dc8565b6108ca5f610f0e565b565b3330146109075760405162461bcd60e51b81526020600482015260096024820152682327a92124a22222a760b91b60448201526064016105ef565b5f6002600a546109179190612264565b905061092281610f5f565b6040516370a0823160e01b81526001600160a01b037f00000000000000000000000000000000000000000000000000000000000000001660048201525f907355d398326f99059ff775485246999027b3197955906370a0823190602401602060405180830381865afa15801561099a573d5f5f3e3d5ffd5b505050506040513d601f19601f820116820180604052508101906109be9190612283565b90508015610712576040516323b872dd60e01b81526001600160a01b037f0000000000000000000000000000000000000000000000000000000000000000166004820152306024820152604481018290527355d398326f99059ff775485246999027b3197955906323b872dd906064016020604051808303815f875af1158015610a4a573d5f5f3e3d5ffd5b505050506040513d601f19601f82011682018060405250810190610a6e919061229a565b5061071282600a54610a8091906122b5565b826110d4565b6040805160028082526060820183525f928392919060208301908036833701905050905030815f81518110610abd57610abd612140565b60200260200101906001600160a01b031690816001600160a01b0316815250507355d398326f99059ff775485246999027b319795581600181518110610b0557610b05612140565b6001600160a01b03928316602091820292909201015260405163d06ca61f60e01b81525f917f0000000000000000000000000000000000000000000000000000000000000000169063d06ca61f90610b639087908690600401612168565b5f60405180830381865afa158015610b7d573d5f5f3e3d5ffd5b505050506040513d5f823e601f3d908101601f19168201604052610ba49190810190612188565b90508060018251610bb591906122b5565b8151811061084957610849612140565b6040805160028082526060820183525f92839291906020830190803683370190505090507355d398326f99059ff775485246999027b3197955815f81518110610c1057610c10612140565b60200260200101906001600160a01b031690816001600160a01b0316815250503081600181518110610c4457610c44612140565b6001600160a01b0392831660209182029290920101526040516307c0329d60e21b81525f917f00000000000000000000000000000000000000000000000000000000000000001690631f00ca7490610ca29087908690600401612168565b5f60405180830381865afa158015610cbc573d5f5f3e3d5ffd5b505050506040513d5f823e601f3d908101601f19168201604052610ce39190810190612188565b9050805f8151811061084957610849612140565b6060600480546104f390612108565b5f33610665818585610e7d565b610d1b610dc8565b6001600160a01b038116610d605760405162461bcd60e51b815260206004820152600c60248201526b5a45524f204144445245535360a01b60448201526064016105ef565b600e80546001600160a01b0319166001600160a01b0392909216919091179055565b6108ca33611273565b610d93610dc8565b6001600160a01b038116610dbc57604051631e4fbdf760e01b81525f60048201526024016105ef565b610dc581610f0e565b50565b6005546001600160a01b031633146108ca5760405163118cdaa760e01b81523360048201526024016105ef565b610e0283838360016114d0565b505050565b6001600160a01b038381165f908152600160209081526040808320938616835292905220545f198110156106525781811015610e6f57604051637dc7a0d960e11b81526001600160a01b038416600482015260248101829052604481018390526064016105ef565b61065284848484035f6114d0565b6001600160a01b038316610ea657604051634b637e8f60e11b81525f60048201526024016105ef565b6001600160a01b038216610ecf5760405163ec442f0560e01b81525f60048201526024016105ef565b610e028383836115a2565b6001600160a01b038216610f035760405163ec442f0560e01b81525f60048201526024016105ef565b6107125f83836115a2565b600580546001600160a01b038381166001600160a01b0319831681179093556040519116919082907f8be0079c531659141344cd1fd0a4f28419497f9722a3daafe3b4186f6b6457e0905f90a35050565b805f03610f695750565b6040805160028082526060820183525f9260208301908036833701905050905030815f81518110610f9c57610f9c612140565b60200260200101906001600160a01b031690816001600160a01b0316815250507355d398326f99059ff775485246999027b319795581600181518110610fe457610fe4612140565b60200260200101906001600160a01b031690816001600160a01b03168152505061102f307f000000000000000000000000000000000000000000000000000000000000000084610df5565b604051635c11d79560e01b81526001600160a01b037f00000000000000000000000000000000000000000000000000000000000000001690635c11d795906110a39085905f9086907f00000000000000000000000000000000000000000000000000000000000000009042906004016122c8565b5f604051808303815f87803b1580156110ba575f5ffd5b505af11580156110cc573d5f5f3e3d5ffd5b505050505050565b6110ff307f000000000000000000000000000000000000000000000000000000000000000084610df5565b60405163095ea7b360e01b81526001600160a01b037f0000000000000000000000000000000000000000000000000000000000000000166004820152602481018290527355d398326f99059ff775485246999027b31979559063095ea7b3906044016020604051808303815f875af115801561117d573d5f5f3e3d5ffd5b505050506040513d601f19601f820116820180604052508101906111a1919061229a565b5060405162e8e33760e81b81523060048201527355d398326f99059ff775485246999027b3197955602482015260448101839052606481018290525f6084820181905260a482015261dead60c48201524260e48201527f00000000000000000000000000000000000000000000000000000000000000006001600160a01b03169063e8e3370090610104016060604051808303815f875af1158015611248573d5f5f3e3d5ffd5b505050506040513d601f19601f8201168201806040525081019061126c9190612303565b5050505050565b803b8015158061128d57506001600160a01b03821661dead145b15611296575050565b6001600160a01b0382165f90815260086020526040812054600954909190158015906112f05750836001600160a01b0316600983815481106112da576112da612140565b5f918252602090912001546001600160a01b0316145b6040516370a0823160e01b81526001600160a01b038681166004830152919250678ac7230489e80000917f000000000000000000000000000000000000000000000000000000000000000016906370a0823190602401602060405180830381865afa158015611361573d5f5f3e3d5ffd5b505050506040513d601f19601f820116820180604052508101906113859190612283565b106113f057806113eb57600980546001600160a01b0386165f818152600860205260408120839055600183018455929092527f6e1540171b6c0c960b71a7020d9f60077f6af931a8bbf590da0223dacf75c7af0180546001600160a01b03191690911790555b610652565b801561065257600980545f9190611409906001906122b5565b8154811061141957611419612140565b5f91825260209091200154600980546001600160a01b03909216925082918590811061144757611447612140565b5f91825260208083209190910180546001600160a01b0319166001600160a01b03948516179055918316815260089091526040902083905560098054806114905761149061232e565b5f828152602080822083015f1990810180546001600160a01b03191690559092019092556001600160a01b03871682526008905260408120555050505050565b6001600160a01b0384166114f95760405163e602df0560e01b81525f60048201526024016105ef565b6001600160a01b03831661152257604051634a1406b160e11b81525f60048201526024016105ef565b6001600160a01b038085165f908152600160209081526040808320938716835292905220829055801561065257826001600160a01b0316846001600160a01b03167f8c5be1e5ebec7d5bd14f71427d1e84f3dd0314c0f7b2291e5b200ac8c7c3b9258460405161159491815260200190565b60405180910390a350505050565b7f00000000000000000000000000000000000000000000000000000000000000006001600160a01b0316158015906115da5750600b54155b801561166457505f7f00000000000000000000000000000000000000000000000000000000000000006001600160a01b03166318160ddd6040518163ffffffff1660e01b8152600401602060405180830381865afa15801561163e573d5f5f3e3d5ffd5b505050506040513d601f19601f820116820180604052508101906116629190612283565b115b1561166e5742600b555b6001600160a01b038316158061168b57506001600160a01b038216155b1561169b57610e028383836118a9565b5f7f00000000000000000000000000000000000000000000000000000000000000006001600160a01b0316846001600160a01b0316148061170d57507f00000000000000000000000000000000000000000000000000000000000000006001600160a01b0316836001600160a01b0316145b6001600160a01b0385165f908152600760205260408120549192509060ff168061174e57506001600160a01b0384165f9081526007602052604090205460ff165b9050825f8061175e8888856119cf565b9050801561177d5761177081876122b5565b925061177d8830836118a9565b831580156117885750845b156117ae576064611797611c37565b6117a19088612342565b6117ab9190612264565b91505b8115611869575f60646117c2886003612342565b6117cc9190612264565b9050808311156117f757600d546117f7908a906001600160a01b03166117f284876122b5565b6118a9565b611813893060646118098b6002612342565b6117f29190612264565b6118278961dead60646118098b6001612342565b61183689896117f286886122b5565b6064611843886002612342565b61184d9190612264565b600a5f82825461185d9190612359565b90915550611874915050565b6118748888856118a9565b8461188157611881611c65565b61188a88611273565b61189387611273565b61189f8561c350611cce565b5050505050505050565b6001600160a01b0383166118d3578060025f8282546118c89190612359565b909155506119439050565b6001600160a01b0383165f90815260208190526040902054818110156119255760405163391434e360e21b81526001600160a01b038516600482015260248101829052604481018390526064016105ef565b6001600160a01b0384165f9081526020819052604090209082900390555b6001600160a01b03821661195f5760028054829003905561197d565b6001600160a01b0382165f9081526020819052604090208054820190555b816001600160a01b0316836001600160a01b03167fddf252ad1be2c89b69c2b068fc378daa952ba7f163c4a11628f55a4df523b3ef836040516119c291815260200190565b60405180910390a3505050565b5f7f00000000000000000000000000000000000000000000000000000000000000006001600160a01b03161580611a8357507f00000000000000000000000000000000000000000000000000000000000000006001600160a01b03166318160ddd6040518163ffffffff1660e01b8152600401602060405180830381865afa158015611a5d573d5f5f3e3d5ffd5b505050506040513d601f19601f82011682018060405250810190611a819190612283565b155b15611a8f57505f61068f565b6001600160a01b0384165f9081526007602052604090205460ff1680611acc57506001600160a01b0383165f9081526007602052604090205460ff165b15611ad857505f61068f565b7f00000000000000000000000000000000000000000000000000000000000000006001600160a01b0316846001600160a01b031603611b59575f611b1b83610bc5565b90508015611b50576001600160a01b0384165f9081526006602052604081208054839290611b4a908490612359565b90915550505b5f91505061068f565b7f00000000000000000000000000000000000000000000000000000000000000006001600160a01b0316836001600160a01b031603611c2e575f611b9c83610a86565b6001600160a01b0386165f908152600660205260409020549091508015801590611bc557508082115b15611c13575f611bd582846122b5565b90505f6064611be583600a612342565b611bef9190612264565b90505f611bfb82610716565b90508015611c0f57945061068f9350505050565b5050505b50506001600160a01b0384165f908152600660205260408120555b505f9392505050565b5f5f600b5442611c4791906122b5565b90506107088110611c59576003611c5c565b600a5b60ff1691505090565b68056bc75e2d63100000600a541015611c7a57565b306001600160a01b0316637b2f3de46040518163ffffffff1660e01b81526004015f604051808303815f87803b158015611cb2575f5ffd5b505af1925050508015611cc3575060015b156108ca575f600a55565b8115611cd8575050565b5f7f00000000000000000000000000000000000000000000000000000000000000006001600160a01b03166318160ddd6040518163ffffffff1660e01b8152600401602060405180830381865afa158015611d35573d5f5f3e3d5ffd5b505050506040513d601f19601f82011682018060405250810190611d599190612283565b600a54305f9081526020819052604081205492935091611d7991906122b5565b9050811580611d8f5750670de0b6b3a764000081105b15611d9a5750505050565b6009545f80805a90505b8683108015611db257508382105b1561189f5783600c5410611dc5575f600c555b5f6009600c5481548110611ddb57611ddb612140565b5f9182526020822001546040516370a0823160e01b81526001600160a01b039182166004820181905293507f0000000000000000000000000000000000000000000000000000000000000000909116906370a0823190602401602060405180830381865afa158015611e4f573d5f5f3e3d5ffd5b505050506040513d601f19601f82011682018060405250810190611e739190612283565b90508015611ece575f88611e87838a612342565b611e919190612264565b90505f81118015611ebc5750600a54305f908152602081905260409020548291611eba916122b5565b115b15611ecc57611ecc3084836118a9565b505b5a611ed990846122b5565b611ee39086612359565b94505a600c80549194505f611ef78361236c565b91905055508380611f079061236c565b9450505050611da4565b80356001600160a01b0381168114611f27575f5ffd5b919050565b5f60208284031215611f3c575f5ffd5b61068f82611f11565b602081525f82518060208401528060208501604085015e5f604082850101526040601f19601f83011684010191505092915050565b8015158114610dc5575f5ffd5b5f5f5f60408486031215611f99575f5ffd5b833567ffffffffffffffff811115611faf575f5ffd5b8401601f81018613611fbf575f5ffd5b803567ffffffffffffffff811115611fd5575f5ffd5b8660208260051b8401011115611fe9575f5ffd5b602091820194509250840135611ffe81611f7a565b809150509250925092565b5f5f6040838503121561201a575f5ffd5b61202383611f11565b946020939093013593505050565b5f5f5f60608486031215612043575f5ffd5b61204c84611f11565b925061205a60208501611f11565b929592945050506040919091013590565b5f6020828403121561207b575f5ffd5b5035919050565b5f8151808452602084019350602083015f5b828110156120bb5781516001600160a01b0316865260209586019590910190600101612094565b5093949350505050565b602081525f61068f6020830184612082565b5f5f604083850312156120e8575f5ffd5b6120f183611f11565b91506120ff60208401611f11565b90509250929050565b600181811c9082168061211c57607f821691505b60208210810361213a57634e487b7160e01b5f52602260045260245ffd5b50919050565b634e487b7160e01b5f52603260045260245ffd5b634e487b7160e01b5f52604160045260245ffd5b828152604060208201525f6121806040830184612082565b949350505050565b5f60208284031215612198575f5ffd5b815167ffffffffffffffff8111156121ae575f5ffd5b8201601f810184136121be575f5ffd5b805167ffffffffffffffff8111156121d8576121d8612154565b8060051b604051601f19603f830116810181811067ffffffffffffffff8211171561220557612205612154565b604052918252602081840181019290810187841115612222575f5ffd5b6020850194505b8385101561224557845180825260209586019590935001612229565b509695505050505050565b634e487b7160e01b5f52601160045260245ffd5b5f8261227e57634e487b7160e01b5f52601260045260245ffd5b500490565b5f60208284031215612293575f5ffd5b5051919050565b5f602082840312156122aa575f5ffd5b815161068f81611f7a565b8181038181111561066b5761066b612250565b85815284602082015260a060408201525f6122e660a0830186612082565b6001600160a01b0394909416606083015250608001529392505050565b5f5f5f60608486031215612315575f5ffd5b5050815160208301516040909301519094929350919050565b634e487b7160e01b5f52603160045260245ffd5b808202811582820484141761066b5761066b612250565b8082018082111561066b5761066b612250565b5f6001820161237d5761237d612250565b506001019056fea2646970667358221220571d73f739b00b2e59e25ee0027222b4df13111af555359ea70245438a35c65664736f6c634300081c00336080604052348015600e575f5ffd5b5060405163095ea7b360e01b81523360048201525f1960248201527355d398326f99059ff775485246999027b31979559063095ea7b3906044016020604051808303815f875af11580156063573d5f5f3e3d5ffd5b505050506040513d601f19601f8201168201806040525081019060859190608a565b5060ae565b5f602082840312156099575f5ffd5b8151801515811460a7575f5ffd5b9392505050565b6096806100ba5f395ff3fe6080604052348015600e575f5ffd5b50600436106026575f3560e01c8063c54e44eb14602a575b5f5ffd5b60447355d398326f99059ff775485246999027b319795581565b6040516001600160a01b03909116815260200160405180910390f3fea26469706673582212200485490b23f0d919570d605176b1f3aa37447d14cc9fe02a99dec6bda8d6454c64736f6c634300081c0033","linkReferences":{}},"methodIdentifiers":{"DEAD()":"03fd2a45","USDT()":"c54e44eb","_safeSwapAndAdd()":"7b2f3de4","allowance(address,address)":"dd62ed3e","approve(address,uint256)":"095ea7b3","balanceOf(address)":"70a08231","decimals()":"313ce567","exceedTaxWallet()":"63a184f5","getAmountInToken(uint256)":"574e09d9","getAmountInUSDT(uint256)":"89e750ec","getAmountOutUSDT(uint256)":"83834550","getHolders()":"5fe8e7cc","holders(uint256)":"2a11ced0","isExemptFromTax(address)":"060e7844","mining()":"662fac39","mint(address,uint256)":"40c10f19","name()":"06fdde03","openingPoint()":"a0f854d8","owner()":"8da5cb5b","pancakePair()":"b8c9d25c","pancakeRouter()":"c21ebd07","receiveHelper()":"11af88a4","renounceOwnership()":"715018a6","setMining(address)":"edb46daf","setTaxExemption(address[],bool)":"08aaa130","symbol()":"95d89b41","totalSupply()":"18160ddd","transfer(address,uint256)":"a9059cbb","transferFrom(address,address,uint256)":"23b872dd","transferOwnership(address)":"f2fde38b","txFee()":"cf820461","updateMyStatus()":"ef10d56c","usdtCost(address)":"66aad19f"},"id":41}