{"abi":[{"type":"receive","stateMutability":"payable"},{"type":"function","name":"DEAD","inputs":[],"outputs":[{"name":"","type":"address","internalType":"address"}],"stateMutability":"view"},{"type":"function","name":"UPGRADE_INTERFACE_VERSION","inputs":[],"outputs":[{"name":"","type":"string","internalType":"string"}],"stateMutability":"view"},{"type":"function","name":"WBNB","inputs":[],"outputs":[{"name":"","type":"address","internalType":"address"}],"stateMutability":"view"},{"type":"function","name":"bnbRecipient","inputs":[],"outputs":[{"name":"","type":"address","internalType":"address"}],"stateMutability":"view"},{"type":"function","name":"funders","inputs":[{"name":"","type":"uint256","internalType":"uint256"}],"outputs":[{"name":"","type":"address","internalType":"address"}],"stateMutability":"view"},{"type":"function","name":"getExpirationTime","inputs":[{"name":"user","type":"address","internalType":"address"}],"outputs":[{"name":"expirationTime","type":"uint256","internalType":"uint256"}],"stateMutability":"view"},{"type":"function","name":"getFunders","inputs":[],"outputs":[{"name":"","type":"address[]","internalType":"address[]"}],"stateMutability":"view"},{"type":"function","name":"getRaiseAmount","inputs":[{"name":"funder","type":"address","internalType":"address"}],"outputs":[{"name":"","type":"uint256","internalType":"uint256"}],"stateMutability":"view"},{"type":"function","name":"getUnlockedAmount","inputs":[{"name":"user","type":"address","internalType":"address"}],"outputs":[{"name":"unlockedAmount","type":"uint256","internalType":"uint256"}],"stateMutability":"view"},{"type":"function","name":"holderInfo","inputs":[{"name":"","type":"address","internalType":"address"}],"outputs":[{"name":"liquidityAmount","type":"uint256","internalType":"uint256"},{"name":"lockTime","type":"uint256","internalType":"uint256"}],"stateMutability":"view"},{"type":"function","name":"initialize","inputs":[{"name":"_lpToken","type":"address","internalType":"address"},{"name":"_token","type":"address","internalType":"address"},{"name":"_lockOwner","type":"address","internalType":"address"},{"name":"_bnbRecipient","type":"address","internalType":"address"}],"outputs":[],"stateMutability":"nonpayable"},{"type":"function","name":"lockLiquidity","inputs":[{"name":"mark","type":"string","internalType":"string"},{"name":"users","type":"address[]","internalType":"address[]"},{"name":"amounts","type":"uint256[]","internalType":"uint256[]"}],"outputs":[],"stateMutability":"nonpayable"},{"type":"function","name":"lockOwner","inputs":[],"outputs":[{"name":"","type":"address","internalType":"address"}],"stateMutability":"view"},{"type":"function","name":"lpToken","inputs":[],"outputs":[{"name":"","type":"address","internalType":"address"}],"stateMutability":"view"},{"type":"function","name":"owner","inputs":[],"outputs":[{"name":"","type":"address","internalType":"address"}],"stateMutability":"view"},{"type":"function","name":"proxiableUUID","inputs":[],"outputs":[{"name":"","type":"bytes32","internalType":"bytes32"}],"stateMutability":"view"},{"type":"function","name":"raiseAmount","inputs":[{"name":"","type":"address","internalType":"address"}],"outputs":[{"name":"","type":"uint256","internalType":"uint256"}],"stateMutability":"view"},{"type":"function","name":"raiseFunds","inputs":[],"outputs":[],"stateMutability":"payable"},{"type":"function","name":"renounceOwnership","inputs":[],"outputs":[],"stateMutability":"nonpayable"},{"type":"function","name":"token","inputs":[],"outputs":[{"name":"","type":"address","internalType":"address"}],"stateMutability":"view"},{"type":"function","name":"transferOwnership","inputs":[{"name":"newOwner","type":"address","internalType":"address"}],"outputs":[],"stateMutability":"nonpayable"},{"type":"function","name":"uniswapV2Router","inputs":[],"outputs":[{"name":"","type":"address","internalType":"address"}],"stateMutability":"view"},{"type":"function","name":"unlockLiquidity","inputs":[],"outputs":[],"stateMutability":"nonpayable"},{"type":"function","name":"upgradeToAndCall","inputs":[{"name":"newImplementation","type":"address","internalType":"address"},{"name":"data","type":"bytes","internalType":"bytes"}],"outputs":[],"stateMutability":"payable"},{"type":"event","name":"FundsRaised","inputs":[{"name":"sender","type":"address","indexed":false,"internalType":"address"},{"name":"amount","type":"uint256","indexed":false,"internalType":"uint256"}],"anonymous":false},{"type":"event","name":"Initialized","inputs":[{"name":"version","type":"uint64","indexed":false,"internalType":"uint64"}],"anonymous":false},{"type":"event","name":"LockLiquidityCreated","inputs":[{"name":"mark","type":"string","indexed":false,"internalType":"string"},{"name":"length","type":"uint256","indexed":false,"internalType":"uint256"}],"anonymous":false},{"type":"event","name":"OwnershipTransferred","inputs":[{"name":"previousOwner","type":"address","indexed":true,"internalType":"address"},{"name":"newOwner","type":"address","indexed":true,"internalType":"address"}],"anonymous":false},{"type":"event","name":"Upgraded","inputs":[{"name":"implementation","type":"address","indexed":true,"internalType":"address"}],"anonymous":false},{"type":"error","name":"AddressEmptyCode","inputs":[{"name":"target","type":"address","internalType":"address"}]},{"type":"error","name":"ERC1967InvalidImplementation","inputs":[{"name":"implementation","type":"address","internalType":"address"}]},{"type":"error","name":"ERC1967NonPayable","inputs":[]},{"type":"error","name":"FailedCall","inputs":[]},{"type":"error","name":"InvalidInitialization","inputs":[]},{"type":"error","name":"NotInitializing","inputs":[]},{"type":"error","name":"OwnableInvalidOwner","inputs":[{"name":"owner","type":"address","internalType":"address"}]},{"type":"error","name":"OwnableUnauthorizedAccount","inputs":[{"name":"account","type":"address","internalType":"address"}]},{"type":"error","name":"ReentrancyGuardReentrantCall","inputs":[]},{"type":"error","name":"UUPSUnauthorizedCallContext","inputs":[]},{"type":"error","name":"UUPSUnsupportedProxiableUUID","inputs":[{"name":"slot","type":"bytes32","internalType":"bytes32"}]}],"bytecode":{"object":"0x60a0604052306080523480156012575f5ffd5b5060015f5560805161193161003d5f395f8181610b6d01528181610b960152610cda01526119315ff3fe60806040526004361061014a575f3560e01c8063715018a6116100b3578063cc5147391161006d578063cc514739146103e1578063dc0d3dff14610415578063ea63a04414610434578063f2fde38b14610455578063f8c8765e14610474578063fc0c546a14610493575f5ffd5b8063715018a6146103065780638a36ca171461031a5780638da5cb5b146103395780638dd95002146103755780639c0e78241461039c578063ad3cb1cc146103a4575f5ffd5b806352d1902d1161010457806352d1902d1461023a5780635fcbd2851461024e57806369cd61be1461026d5780636b54acd91461028c5780636c48ba95146102a05780636d1d59a8146102bf575f5ffd5b806303fd2a45146101555780631694505e146101875780632b5fef2f146101ae578063420d4a02146101db57806345d68230146101fa5780634f1ef28614610225575f5ffd5b3661015157005b5f5ffd5b348015610160575f5ffd5b5061016a61dead81565b6040516001600160a01b0390911681526020015b60405180910390f35b348015610192575f5ffd5b5061016a7310ed43c718714eb63d5aa57b78b54704e256024e81565b3480156101b9575f5ffd5b506101cd6101c836600461148c565b6104b2565b60405190815260200161017e565b3480156101e6575f5ffd5b506101cd6101f536600461148c565b610555565b348015610205575f5ffd5b506101cd61021436600461148c565b60076020525f908152604090205481565b610238610233366004611543565b61059f565b005b348015610245575f5ffd5b506101cd6105be565b348015610259575f5ffd5b5060025461016a906001600160a01b031681565b348015610278575f5ffd5b5060045461016a906001600160a01b031681565b348015610297575f5ffd5b506102386105d9565b3480156102ab575f5ffd5b506102386102ba36600461162e565b610680565b3480156102ca575f5ffd5b506102f16102d936600461148c565b600160208190525f9182526040909120805491015482565b6040805192835260208301919091520161017e565b348015610311575f5ffd5b50610238610806565b348015610325575f5ffd5b5060055461016a906001600160a01b031681565b348015610344575f5ffd5b507f9016d09d72d40fdae2fd8ceac6b6234c7706214fd39c1cd1e609a0528c199300546001600160a01b031661016a565b348015610380575f5ffd5b5061016a73bb4cdb9cbd36b01bd1cbaebf2de08d9173bc095c81565b610238610817565b3480156103af575f5ffd5b506103d4604051806040016040528060058152602001640352e302e360dc1b81525081565b60405161017e919061175b565b3480156103ec575f5ffd5b506101cd6103fb36600461148c565b6001600160a01b03165f9081526007602052604090205490565b348015610420575f5ffd5b5061016a61042f36600461176d565b61093a565b34801561043f575f5ffd5b50610448610962565b60405161017e9190611784565b348015610460575f5ffd5b5061023861046f36600461148c565b6109c2565b34801561047f575f5ffd5b5061023861048e3660046117cf565b6109ff565b34801561049e575f5ffd5b5060035461016a906001600160a01b031681565b6001600160a01b0381165f908152600160208181526040808420815180830190925280548252909201549082018190526104ef9062278d00611834565b4210156105175742816020015162278d0061050a9190611834565b6105149190611847565b91505b602081015161052890610e10611834565b42101561054f57428160200151610e106105429190611834565b61054c9190611847565b91505b50919050565b6001600160a01b0381165f908152600160208181526040808420815180830190925280548252909201549082018190526105929062278d00611834565b421061054f575192915050565b6105a7610b62565b6105b082610c06565b6105ba8282610c0e565b5050565b5f6105c7610ccf565b505f5160206118dc5f395f51905f5290565b6105e1610d18565b335f90815260016020526040902080546106395760405162461bcd60e51b81526020600482015260146024820152734e6f7420656e6f756768206c697175696469747960601b60448201526064015b60405180910390fd5b5f61064333610555565b111561065c5761065733825f01545f610d40565b61066b565b61066b33825f01546001610d40565b5f80825560019091015561067e60015f55565b565b6004546001600160a01b031633146106cf5760405162461bcd60e51b81526020600482015260126024820152712737ba103a3432903637b1b59037bbb732b960711b6044820152606401610630565b5f5b82518110156107c6575f6001600160a01b03168382815181106106f6576106f661185a565b60200260200101516001600160a01b0316146107be5781818151811061071e5761071e61185a565b602002602001015160015f85848151811061073b5761073b61185a565b60200260200101516001600160a01b03166001600160a01b031681526020019081526020015f205f015f8282546107729190611834565b925050819055504260015f85848151811061078f5761078f61185a565b60200260200101516001600160a01b03166001600160a01b031681526020019081526020015f20600101819055505b6001016106d1565b507f4998215289a29e7b4458dce7275b4ea783c97f8f07244de3bf93bd8783a3a5ac8383516040516107f992919061186e565b60405180910390a1505050565b61080e610f9f565b61067e5f610ffa565b6702c68af0bb14000034101580156108375750678ac7230489e800003411155b6108835760405162461bcd60e51b815260206004820152601d60248201527f416d6f756e74206d7573742062652067726561746572207468616e20300000006044820152606401610630565b600554610899906001600160a01b03163461106a565b335f90815260076020526040812080543492906108b7908490611834565b9091555050600680546001810182555f919091527ff652222313e28459528d920b65115c16c04f3efc82aaedc97be59f3f377c0d3f0180546001600160a01b03191633908117909155604080519182523460208301527ff8239f64d70f7d5b55f929c553aa473b195e54359bf5cd325d04fc7e45de6dc2910160405180910390a1565b60068181548110610949575f80fd5b5f918252602090912001546001600160a01b0316905081565b606060068054806020026020016040519081016040528092919081815260200182805480156109b857602002820191905f5260205f20905b81546001600160a01b0316815260019091019060200180831161099a575b5050505050905090565b6109ca610f9f565b6001600160a01b0381166109f357604051631e4fbdf760e01b81525f6004820152602401610630565b6109fc81610ffa565b50565b7ff0c57e16840df040f15088dc2f81fe391c3923bec73e23a9662efc9c229c6a008054600160401b810460ff16159067ffffffffffffffff165f81158015610a445750825b90505f8267ffffffffffffffff166001148015610a605750303b155b905081158015610a6e575080155b15610a8c5760405163f92ee8a960e01b815260040160405180910390fd5b845467ffffffffffffffff191660011785558315610ab657845460ff60401b1916600160401b1785555b610abf3361112f565b610ac7611137565b600580546001600160a01b038089166001600160a01b031992831617909255600280548c8416908316179055600380548b841690831617905560048054928a16929091169190911790558315610b5757845460ff60401b19168555604051600181527fc7f505b2f371ae2175ee4913f4499e1f2633a7b5936321eed1cdaeb6115181d29060200160405180910390a15b505050505050505050565b306001600160a01b037f0000000000000000000000000000000000000000000000000000000000000000161480610be857507f00000000000000000000000000000000000000000000000000000000000000006001600160a01b0316610bdc5f5160206118dc5f395f51905f52546001600160a01b031690565b6001600160a01b031614155b1561067e5760405163703e46dd60e11b815260040160405180910390fd5b6109fc610f9f565b816001600160a01b03166352d1902d6040518163ffffffff1660e01b8152600401602060405180830381865afa925050508015610c68575060408051601f3d908101601f19168201909252610c659181019061188f565b60015b610c9057604051634c9c8ce360e01b81526001600160a01b0383166004820152602401610630565b5f5160206118dc5f395f51905f528114610cc057604051632a87526960e21b815260048101829052602401610630565b610cca838361113f565b505050565b306001600160a01b037f0000000000000000000000000000000000000000000000000000000000000000161461067e5760405163703e46dd60e11b815260040160405180910390fd5b60025f5403610d3a57604051633ee5aeb560e01b815260040160405180910390fd5b60025f55565b60025460405163095ea7b360e01b81527310ed43c718714eb63d5aa57b78b54704e256024e6004820152602481018490526001600160a01b039091169063095ea7b3906044016020604051808303815f875af1158015610da2573d5f5f3e3d5ffd5b505050506040513d601f19601f82011682018060405250810190610dc691906118a6565b506003546040516370a0823160e01b81523060048201525f916001600160a01b0316906370a0823190602401602060405180830381865afa158015610e0d573d5f5f3e3d5ffd5b505050506040513d601f19601f82011682018060405250810190610e31919061188f565b60035460405163af2979eb60e01b81526001600160a01b039091166004820152602481018590525f60448201819052606482018190523060848301524260a48301529192507310ed43c718714eb63d5aa57b78b54704e256024e9063af2979eb9060c4016020604051808303815f875af1158015610eb1573d5f5f3e3d5ffd5b505050506040513d601f19601f82011682018060405250810190610ed5919061188f565b6003546040516370a0823160e01b81523060048201529192505f916001600160a01b03909116906370a0823190602401602060405180830381865afa158015610f20573d5f5f3e3d5ffd5b505050506040513d601f19601f82011682018060405250810190610f44919061188f565b905083610f7057600354610f6b906001600160a01b031687610f668685611847565b611194565b610f8d565b600354610f8d906001600160a01b031661dead610f668685611847565b610f97868361106a565b505050505050565b33610fd17f9016d09d72d40fdae2fd8ceac6b6234c7706214fd39c1cd1e609a0528c199300546001600160a01b031690565b6001600160a01b03161461067e5760405163118cdaa760e01b8152336004820152602401610630565b7f9016d09d72d40fdae2fd8ceac6b6234c7706214fd39c1cd1e609a0528c19930080546001600160a01b031981166001600160a01b03848116918217845560405192169182907f8be0079c531659141344cd1fd0a4f28419497f9722a3daafe3b4186f6b6457e0905f90a3505050565b604080515f808252602082019092526001600160a01b03841690839060405161109391906118c5565b5f6040518083038185875af1925050503d805f81146110cd576040519150601f19603f3d011682016040523d82523d5f602084013e6110d2565b606091505b5050905080610cca5760405162461bcd60e51b815260206004820152602360248201527f5472616e7366657248656c7065723a204554485f5452414e534645525f46414960448201526213115160ea1b6064820152608401610630565b6109ca6112aa565b61067e6112aa565b611148826112f3565b6040516001600160a01b038316907fbc7cd75a20ee27fd9adebab32041f755214dbc6bffa90cc0225b39da2e5c2d3b905f90a280511561118c57610cca8282611356565b6105ba6113ca565b604080516001600160a01b038481166024830152604480830185905283518084039091018152606490920183526020820180516001600160e01b031663a9059cbb60e01b17905291515f928392908716916111ef91906118c5565b5f604051808303815f865af19150503d805f8114611228576040519150601f19603f3d011682016040523d82523d5f602084013e61122d565b606091505b509150915081801561125757508051158061125757508080602001905181019061125791906118a6565b6112a35760405162461bcd60e51b815260206004820152601f60248201527f5472616e7366657248656c7065723a205452414e534645525f4641494c4544006044820152606401610630565b5050505050565b7ff0c57e16840df040f15088dc2f81fe391c3923bec73e23a9662efc9c229c6a0054600160401b900460ff1661067e57604051631afcd79f60e31b815260040160405180910390fd5b806001600160a01b03163b5f0361132857604051634c9c8ce360e01b81526001600160a01b0382166004820152602401610630565b5f5160206118dc5f395f51905f5280546001600160a01b0319166001600160a01b0392909216919091179055565b60605f5f846001600160a01b03168460405161137291906118c5565b5f60405180830381855af49150503d805f81146113aa576040519150601f19603f3d011682016040523d82523d5f602084013e6113af565b606091505b50915091506113bf8583836113e9565b925050505b92915050565b341561067e5760405163b398979f60e01b815260040160405180910390fd5b6060826113fe576113f982611448565b611441565b815115801561141557506001600160a01b0384163b155b1561143e57604051639996b31560e01b81526001600160a01b0385166004820152602401610630565b50805b9392505050565b8051156114585780518082602001fd5b60405163d6bda27560e01b815260040160405180910390fd5b80356001600160a01b0381168114611487575f5ffd5b919050565b5f6020828403121561149c575f5ffd5b61144182611471565b634e487b7160e01b5f52604160045260245ffd5b604051601f8201601f1916810167ffffffffffffffff811182821017156114e2576114e26114a5565b604052919050565b5f5f67ffffffffffffffff841115611504576115046114a5565b50601f8301601f1916602001611519816114b9565b91505082815283838301111561152d575f5ffd5b828260208301375f602084830101529392505050565b5f5f60408385031215611554575f5ffd5b61155d83611471565b9150602083013567ffffffffffffffff811115611578575f5ffd5b8301601f81018513611588575f5ffd5b611597858235602084016114ea565b9150509250929050565b5f67ffffffffffffffff8211156115ba576115ba6114a5565b5060051b60200190565b5f82601f8301126115d3575f5ffd5b81356115e66115e1826115a1565b6114b9565b8082825260208201915060208360051b860101925085831115611607575f5ffd5b602085015b8381101561162457803583526020928301920161160c565b5095945050505050565b5f5f5f60608486031215611640575f5ffd5b833567ffffffffffffffff811115611656575f5ffd5b8401601f81018613611666575f5ffd5b611675868235602084016114ea565b935050602084013567ffffffffffffffff811115611691575f5ffd5b8401601f810186136116a1575f5ffd5b80356116af6115e1826115a1565b8082825260208201915060208360051b8501019250888311156116d0575f5ffd5b6020840193505b828410156116f9576116e884611471565b8252602093840193909101906116d7565b9450505050604084013567ffffffffffffffff811115611717575f5ffd5b611723868287016115c4565b9150509250925092565b5f81518084528060208401602086015e5f602082860101526020601f19601f83011685010191505092915050565b602081525f611441602083018461172d565b5f6020828403121561177d575f5ffd5b5035919050565b602080825282518282018190525f918401906040840190835b818110156117c45783516001600160a01b031683526020938401939092019160010161179d565b509095945050505050565b5f5f5f5f608085870312156117e2575f5ffd5b6117eb85611471565b93506117f960208601611471565b925061180760408601611471565b915061181560608601611471565b905092959194509250565b634e487b7160e01b5f52601160045260245ffd5b808201808211156113c4576113c4611820565b818103818111156113c4576113c4611820565b634e487b7160e01b5f52603260045260245ffd5b604081525f611880604083018561172d565b90508260208301529392505050565b5f6020828403121561189f575f5ffd5b5051919050565b5f602082840312156118b6575f5ffd5b81518015158114611441575f5ffd5b5f82518060208501845e5f92019182525091905056fe360894a13ba1a3210667c828492db98dca3e2076cc3735a920a3ca505d382bbca2646970667358221220e3017b97be8d717549c77a77e76cd63c340fcd28c1c08a3d4fc4b5ac90c8458c64736f6c634300081c0033","linkReferences":{}},"methodIdentifiers":{"DEAD()":"03fd2a45","UPGRADE_INTERFACE_VERSION()":"ad3cb1cc","WBNB()":"8dd95002","bnbRecipient()":"8a36ca17","funders(uint256)":"dc0d3dff","getExpirationTime(address)":"2b5fef2f","getFunders()":"ea63a044","getRaiseAmount(address)":"cc514739","getUnlockedAmount(address)":"420d4a02","holderInfo(address)":"6d1d59a8","initialize(address,address,address,address)":"f8c8765e","lockLiquidity(string,address[],uint256[])":"6c48ba95","lockOwner()":"69cd61be","lpToken()":"5fcbd285","owner()":"8da5cb5b","proxiableUUID()":"52d1902d","raiseAmount(address)":"45d68230","raiseFunds()":"9c0e7824","renounceOwnership()":"715018a6","token()":"fc0c546a","transferOwnership(address)":"f2fde38b","uniswapV2Router()":"1694505e","unlockLiquidity()":"6b54acd9","upgradeToAndCall(address,bytes)":"4f1ef286"},"id":40}