{"abi":[{"type":"receive","stateMutability":"payable"},{"type":"function","name":"DEAD","inputs":[],"outputs":[{"name":"","type":"address","internalType":"address"}],"stateMutability":"view"},{"type":"function","name":"UPGRADE_INTERFACE_VERSION","inputs":[],"outputs":[{"name":"","type":"string","internalType":"string"}],"stateMutability":"view"},{"type":"function","name":"WBNB","inputs":[],"outputs":[{"name":"","type":"address","internalType":"address"}],"stateMutability":"view"},{"type":"function","name":"bnbRecipient","inputs":[],"outputs":[{"name":"","type":"address","internalType":"address"}],"stateMutability":"view"},{"type":"function","name":"funders","inputs":[{"name":"","type":"uint256","internalType":"uint256"}],"outputs":[{"name":"","type":"address","internalType":"address"}],"stateMutability":"view"},{"type":"function","name":"getExpirationTime","inputs":[{"name":"user","type":"address","internalType":"address"}],"outputs":[{"name":"expirationTime","type":"uint256","internalType":"uint256"}],"stateMutability":"view"},{"type":"function","name":"getFunders","inputs":[],"outputs":[{"name":"","type":"address[]","internalType":"address[]"}],"stateMutability":"view"},{"type":"function","name":"getRaiseAmount","inputs":[{"name":"funder","type":"address","internalType":"address"}],"outputs":[{"name":"","type":"uint256","internalType":"uint256"}],"stateMutability":"view"},{"type":"function","name":"getUnlockedAmount","inputs":[{"name":"user","type":"address","internalType":"address"}],"outputs":[{"name":"unlockedAmount","type":"uint256","internalType":"uint256"}],"stateMutability":"view"},{"type":"function","name":"holderInfo","inputs":[{"name":"","type":"address","internalType":"address"}],"outputs":[{"name":"liquidityAmount","type":"uint256","internalType":"uint256"},{"name":"lockTime","type":"uint256","internalType":"uint256"}],"stateMutability":"view"},{"type":"function","name":"initialize","inputs":[{"name":"_lpToken","type":"address","internalType":"address"},{"name":"_token","type":"address","internalType":"address"},{"name":"_lockOwner","type":"address","internalType":"address"},{"name":"_bnbRecipient","type":"address","internalType":"address"}],"outputs":[],"stateMutability":"nonpayable"},{"type":"function","name":"lockLiquidity","inputs":[{"name":"mark","type":"string","internalType":"string"},{"name":"users","type":"address[]","internalType":"address[]"},{"name":"amounts","type":"uint256[]","internalType":"uint256[]"}],"outputs":[],"stateMutability":"nonpayable"},{"type":"function","name":"lockOwner","inputs":[],"outputs":[{"name":"","type":"address","internalType":"address"}],"stateMutability":"view"},{"type":"function","name":"lpToken","inputs":[],"outputs":[{"name":"","type":"address","internalType":"address"}],"stateMutability":"view"},{"type":"function","name":"owner","inputs":[],"outputs":[{"name":"","type":"address","internalType":"address"}],"stateMutability":"view"},{"type":"function","name":"proxiableUUID","inputs":[],"outputs":[{"name":"","type":"bytes32","internalType":"bytes32"}],"stateMutability":"view"},{"type":"function","name":"raiseAmount","inputs":[{"name":"","type":"address","internalType":"address"}],"outputs":[{"name":"","type":"uint256","internalType":"uint256"}],"stateMutability":"view"},{"type":"function","name":"raiseFunds","inputs":[],"outputs":[],"stateMutability":"payable"},{"type":"function","name":"renounceOwnership","inputs":[],"outputs":[],"stateMutability":"nonpayable"},{"type":"function","name":"token","inputs":[],"outputs":[{"name":"","type":"address","internalType":"address"}],"stateMutability":"view"},{"type":"function","name":"transferOwnership","inputs":[{"name":"newOwner","type":"address","internalType":"address"}],"outputs":[],"stateMutability":"nonpayable"},{"type":"function","name":"uniswapV2Router","inputs":[],"outputs":[{"name":"","type":"address","internalType":"address"}],"stateMutability":"view"},{"type":"function","name":"unlockLiquidity","inputs":[],"outputs":[],"stateMutability":"nonpayable"},{"type":"function","name":"upgradeToAndCall","inputs":[{"name":"newImplementation","type":"address","internalType":"address"},{"name":"data","type":"bytes","internalType":"bytes"}],"outputs":[],"stateMutability":"payable"},{"type":"event","name":"FundsRaised","inputs":[{"name":"sender","type":"address","indexed":false,"internalType":"address"},{"name":"amount","type":"uint256","indexed":false,"internalType":"uint256"}],"anonymous":false},{"type":"event","name":"Initialized","inputs":[{"name":"version","type":"uint64","indexed":false,"internalType":"uint64"}],"anonymous":false},{"type":"event","name":"LockLiquidityCreated","inputs":[{"name":"mark","type":"string","indexed":false,"internalType":"string"},{"name":"length","type":"uint256","indexed":false,"internalType":"uint256"}],"anonymous":false},{"type":"event","name":"OwnershipTransferred","inputs":[{"name":"previousOwner","type":"address","indexed":true,"internalType":"address"},{"name":"newOwner","type":"address","indexed":true,"internalType":"address"}],"anonymous":false},{"type":"event","name":"Upgraded","inputs":[{"name":"implementation","type":"address","indexed":true,"internalType":"address"}],"anonymous":false},{"type":"error","name":"AddressEmptyCode","inputs":[{"name":"target","type":"address","internalType":"address"}]},{"type":"error","name":"ERC1967InvalidImplementation","inputs":[{"name":"implementation","type":"address","internalType":"address"}]},{"type":"error","name":"ERC1967NonPayable","inputs":[]},{"type":"error","name":"FailedCall","inputs":[]},{"type":"error","name":"InvalidInitialization","inputs":[]},{"type":"error","name":"NotInitializing","inputs":[]},{"type":"error","name":"OwnableInvalidOwner","inputs":[{"name":"owner","type":"address","internalType":"address"}]},{"type":"error","name":"OwnableUnauthorizedAccount","inputs":[{"name":"account","type":"address","internalType":"address"}]},{"type":"error","name":"ReentrancyGuardReentrantCall","inputs":[]},{"type":"error","name":"UUPSUnauthorizedCallContext","inputs":[]},{"type":"error","name":"UUPSUnsupportedProxiableUUID","inputs":[{"name":"slot","type":"bytes32","internalType":"bytes32"}]}],"bytecode":{"object":"0x60a0604052306080523480156012575f5ffd5b5060015f556080516118f961003d5f395f8181610b3501528181610b5e0152610ca201526118f95ff3fe60806040526004361061014a575f3560e01c8063715018a6116100b3578063cc5147391161006d578063cc514739146103e1578063dc0d3dff14610415578063ea63a04414610434578063f2fde38b14610455578063f8c8765e14610474578063fc0c546a14610493575f5ffd5b8063715018a6146103065780638a36ca171461031a5780638da5cb5b146103395780638dd95002146103755780639c0e78241461039c578063ad3cb1cc146103a4575f5ffd5b806352d1902d1161010457806352d1902d1461023a5780635fcbd2851461024e57806369cd61be1461026d5780636b54acd91461028c5780636c48ba95146102a05780636d1d59a8146102bf575f5ffd5b806303fd2a45146101555780631694505e146101875780632b5fef2f146101ae578063420d4a02146101db57806345d68230146101fa5780634f1ef28614610225575f5ffd5b3661015157005b5f5ffd5b348015610160575f5ffd5b5061016a61dead81565b6040516001600160a01b0390911681526020015b60405180910390f35b348015610192575f5ffd5b5061016a7310ed43c718714eb63d5aa57b78b54704e256024e81565b3480156101b9575f5ffd5b506101cd6101c8366004611454565b6104b2565b60405190815260200161017e565b3480156101e6575f5ffd5b506101cd6101f5366004611454565b61051d565b348015610205575f5ffd5b506101cd610214366004611454565b60076020525f908152604090205481565b61023861023336600461150b565b610567565b005b348015610245575f5ffd5b506101cd610586565b348015610259575f5ffd5b5060025461016a906001600160a01b031681565b348015610278575f5ffd5b5060045461016a906001600160a01b031681565b348015610297575f5ffd5b506102386105a1565b3480156102ab575f5ffd5b506102386102ba3660046115f6565b610648565b3480156102ca575f5ffd5b506102f16102d9366004611454565b600160208190525f9182526040909120805491015482565b6040805192835260208301919091520161017e565b348015610311575f5ffd5b506102386107ce565b348015610325575f5ffd5b5060055461016a906001600160a01b031681565b348015610344575f5ffd5b507f9016d09d72d40fdae2fd8ceac6b6234c7706214fd39c1cd1e609a0528c199300546001600160a01b031661016a565b348015610380575f5ffd5b5061016a73bb4cdb9cbd36b01bd1cbaebf2de08d9173bc095c81565b6102386107df565b3480156103af575f5ffd5b506103d4604051806040016040528060058152602001640352e302e360dc1b81525081565b60405161017e9190611723565b3480156103ec575f5ffd5b506101cd6103fb366004611454565b6001600160a01b03165f9081526007602052604090205490565b348015610420575f5ffd5b5061016a61042f366004611735565b610902565b34801561043f575f5ffd5b5061044861092a565b60405161017e919061174c565b348015610460575f5ffd5b5061023861046f366004611454565b61098a565b34801561047f575f5ffd5b5061023861048e366004611797565b6109c7565b34801561049e575f5ffd5b5060035461016a906001600160a01b031681565b6001600160a01b0381165f908152600160208181526040808420815180830190925280548252909201549082018190526104ef9062278d006117fc565b4210156105175742816020015162278d0061050a91906117fc565b610514919061180f565b91505b50919050565b6001600160a01b0381165f9081526001602081815260408084208151808301909252805482529092015490820181905261055a9062278d006117fc565b4210610517575192915050565b61056f610b2a565b61057882610bce565b6105828282610bd6565b5050565b5f61058f610c97565b505f5160206118a45f395f51905f5290565b6105a9610ce0565b335f90815260016020526040902080546106015760405162461bcd60e51b81526020600482015260146024820152734e6f7420656e6f756768206c697175696469747960601b60448201526064015b60405180910390fd5b5f61060b3361051d565b11156106245761061f33825f01545f610d08565b610633565b61063333825f01546001610d08565b5f80825560019091015561064660015f55565b565b6004546001600160a01b031633146106975760405162461bcd60e51b81526020600482015260126024820152712737ba103a3432903637b1b59037bbb732b960711b60448201526064016105f8565b5f5b825181101561078e575f6001600160a01b03168382815181106106be576106be611822565b60200260200101516001600160a01b031614610786578181815181106106e6576106e6611822565b602002602001015160015f85848151811061070357610703611822565b60200260200101516001600160a01b03166001600160a01b031681526020019081526020015f205f015f82825461073a91906117fc565b925050819055504260015f85848151811061075757610757611822565b60200260200101516001600160a01b03166001600160a01b031681526020019081526020015f20600101819055505b600101610699565b507f4998215289a29e7b4458dce7275b4ea783c97f8f07244de3bf93bd8783a3a5ac8383516040516107c1929190611836565b60405180910390a1505050565b6107d6610f67565b6106465f610fc2565b6702c68af0bb14000034101580156107ff5750678ac7230489e800003411155b61084b5760405162461bcd60e51b815260206004820152601d60248201527f416d6f756e74206d7573742062652067726561746572207468616e203000000060448201526064016105f8565b600554610861906001600160a01b031634611032565b335f908152600760205260408120805434929061087f9084906117fc565b9091555050600680546001810182555f919091527ff652222313e28459528d920b65115c16c04f3efc82aaedc97be59f3f377c0d3f0180546001600160a01b03191633908117909155604080519182523460208301527ff8239f64d70f7d5b55f929c553aa473b195e54359bf5cd325d04fc7e45de6dc2910160405180910390a1565b60068181548110610911575f80fd5b5f918252602090912001546001600160a01b0316905081565b6060600680548060200260200160405190810160405280929190818152602001828054801561098057602002820191905f5260205f20905b81546001600160a01b03168152600190910190602001808311610962575b5050505050905090565b610992610f67565b6001600160a01b0381166109bb57604051631e4fbdf760e01b81525f60048201526024016105f8565b6109c481610fc2565b50565b7ff0c57e16840df040f15088dc2f81fe391c3923bec73e23a9662efc9c229c6a008054600160401b810460ff16159067ffffffffffffffff165f81158015610a0c5750825b90505f8267ffffffffffffffff166001148015610a285750303b155b905081158015610a36575080155b15610a545760405163f92ee8a960e01b815260040160405180910390fd5b845467ffffffffffffffff191660011785558315610a7e57845460ff60401b1916600160401b1785555b610a87336110f7565b610a8f6110ff565b600580546001600160a01b038089166001600160a01b031992831617909255600280548c8416908316179055600380548b841690831617905560048054928a16929091169190911790558315610b1f57845460ff60401b19168555604051600181527fc7f505b2f371ae2175ee4913f4499e1f2633a7b5936321eed1cdaeb6115181d29060200160405180910390a15b505050505050505050565b306001600160a01b037f0000000000000000000000000000000000000000000000000000000000000000161480610bb057507f00000000000000000000000000000000000000000000000000000000000000006001600160a01b0316610ba45f5160206118a45f395f51905f52546001600160a01b031690565b6001600160a01b031614155b156106465760405163703e46dd60e11b815260040160405180910390fd5b6109c4610f67565b816001600160a01b03166352d1902d6040518163ffffffff1660e01b8152600401602060405180830381865afa925050508015610c30575060408051601f3d908101601f19168201909252610c2d91810190611857565b60015b610c5857604051634c9c8ce360e01b81526001600160a01b03831660048201526024016105f8565b5f5160206118a45f395f51905f528114610c8857604051632a87526960e21b8152600481018290526024016105f8565b610c928383611107565b505050565b306001600160a01b037f000000000000000000000000000000000000000000000000000000000000000016146106465760405163703e46dd60e11b815260040160405180910390fd5b60025f5403610d0257604051633ee5aeb560e01b815260040160405180910390fd5b60025f55565b60025460405163095ea7b360e01b81527310ed43c718714eb63d5aa57b78b54704e256024e6004820152602481018490526001600160a01b039091169063095ea7b3906044016020604051808303815f875af1158015610d6a573d5f5f3e3d5ffd5b505050506040513d601f19601f82011682018060405250810190610d8e919061186e565b506003546040516370a0823160e01b81523060048201525f916001600160a01b0316906370a0823190602401602060405180830381865afa158015610dd5573d5f5f3e3d5ffd5b505050506040513d601f19601f82011682018060405250810190610df99190611857565b60035460405163af2979eb60e01b81526001600160a01b039091166004820152602481018590525f60448201819052606482018190523060848301524260a48301529192507310ed43c718714eb63d5aa57b78b54704e256024e9063af2979eb9060c4016020604051808303815f875af1158015610e79573d5f5f3e3d5ffd5b505050506040513d601f19601f82011682018060405250810190610e9d9190611857565b6003546040516370a0823160e01b81523060048201529192505f916001600160a01b03909116906370a0823190602401602060405180830381865afa158015610ee8573d5f5f3e3d5ffd5b505050506040513d601f19601f82011682018060405250810190610f0c9190611857565b905083610f3857600354610f33906001600160a01b031687610f2e868561180f565b61115c565b610f55565b600354610f55906001600160a01b031661dead610f2e868561180f565b610f5f8683611032565b505050505050565b33610f997f9016d09d72d40fdae2fd8ceac6b6234c7706214fd39c1cd1e609a0528c199300546001600160a01b031690565b6001600160a01b0316146106465760405163118cdaa760e01b81523360048201526024016105f8565b7f9016d09d72d40fdae2fd8ceac6b6234c7706214fd39c1cd1e609a0528c19930080546001600160a01b031981166001600160a01b03848116918217845560405192169182907f8be0079c531659141344cd1fd0a4f28419497f9722a3daafe3b4186f6b6457e0905f90a3505050565b604080515f808252602082019092526001600160a01b03841690839060405161105b919061188d565b5f6040518083038185875af1925050503d805f8114611095576040519150601f19603f3d011682016040523d82523d5f602084013e61109a565b606091505b5050905080610c925760405162461bcd60e51b815260206004820152602360248201527f5472616e7366657248656c7065723a204554485f5452414e534645525f46414960448201526213115160ea1b60648201526084016105f8565b610992611272565b610646611272565b611110826112bb565b6040516001600160a01b038316907fbc7cd75a20ee27fd9adebab32041f755214dbc6bffa90cc0225b39da2e5c2d3b905f90a280511561115457610c92828261131e565b610582611392565b604080516001600160a01b038481166024830152604480830185905283518084039091018152606490920183526020820180516001600160e01b031663a9059cbb60e01b17905291515f928392908716916111b7919061188d565b5f604051808303815f865af19150503d805f81146111f0576040519150601f19603f3d011682016040523d82523d5f602084013e6111f5565b606091505b509150915081801561121f57508051158061121f57508080602001905181019061121f919061186e565b61126b5760405162461bcd60e51b815260206004820152601f60248201527f5472616e7366657248656c7065723a205452414e534645525f4641494c45440060448201526064016105f8565b5050505050565b7ff0c57e16840df040f15088dc2f81fe391c3923bec73e23a9662efc9c229c6a0054600160401b900460ff1661064657604051631afcd79f60e31b815260040160405180910390fd5b806001600160a01b03163b5f036112f057604051634c9c8ce360e01b81526001600160a01b03821660048201526024016105f8565b5f5160206118a45f395f51905f5280546001600160a01b0319166001600160a01b0392909216919091179055565b60605f5f846001600160a01b03168460405161133a919061188d565b5f60405180830381855af49150503d805f8114611372576040519150601f19603f3d011682016040523d82523d5f602084013e611377565b606091505b50915091506113878583836113b1565b925050505b92915050565b34156106465760405163b398979f60e01b815260040160405180910390fd5b6060826113c6576113c182611410565b611409565b81511580156113dd57506001600160a01b0384163b155b1561140657604051639996b31560e01b81526001600160a01b03851660048201526024016105f8565b50805b9392505050565b8051156114205780518082602001fd5b60405163d6bda27560e01b815260040160405180910390fd5b80356001600160a01b038116811461144f575f5ffd5b919050565b5f60208284031215611464575f5ffd5b61140982611439565b634e487b7160e01b5f52604160045260245ffd5b604051601f8201601f1916810167ffffffffffffffff811182821017156114aa576114aa61146d565b604052919050565b5f5f67ffffffffffffffff8411156114cc576114cc61146d565b50601f8301601f19166020016114e181611481565b9150508281528383830111156114f5575f5ffd5b828260208301375f602084830101529392505050565b5f5f6040838503121561151c575f5ffd5b61152583611439565b9150602083013567ffffffffffffffff811115611540575f5ffd5b8301601f81018513611550575f5ffd5b61155f858235602084016114b2565b9150509250929050565b5f67ffffffffffffffff8211156115825761158261146d565b5060051b60200190565b5f82601f83011261159b575f5ffd5b81356115ae6115a982611569565b611481565b8082825260208201915060208360051b8601019250858311156115cf575f5ffd5b602085015b838110156115ec5780358352602092830192016115d4565b5095945050505050565b5f5f5f60608486031215611608575f5ffd5b833567ffffffffffffffff81111561161e575f5ffd5b8401601f8101861361162e575f5ffd5b61163d868235602084016114b2565b935050602084013567ffffffffffffffff811115611659575f5ffd5b8401601f81018613611669575f5ffd5b80356116776115a982611569565b8082825260208201915060208360051b850101925088831115611698575f5ffd5b6020840193505b828410156116c1576116b084611439565b82526020938401939091019061169f565b9450505050604084013567ffffffffffffffff8111156116df575f5ffd5b6116eb8682870161158c565b9150509250925092565b5f81518084528060208401602086015e5f602082860101526020601f19601f83011685010191505092915050565b602081525f61140960208301846116f5565b5f60208284031215611745575f5ffd5b5035919050565b602080825282518282018190525f918401906040840190835b8181101561178c5783516001600160a01b0316835260209384019390920191600101611765565b509095945050505050565b5f5f5f5f608085870312156117aa575f5ffd5b6117b385611439565b93506117c160208601611439565b92506117cf60408601611439565b91506117dd60608601611439565b905092959194509250565b634e487b7160e01b5f52601160045260245ffd5b8082018082111561138c5761138c6117e8565b8181038181111561138c5761138c6117e8565b634e487b7160e01b5f52603260045260245ffd5b604081525f61184860408301856116f5565b90508260208301529392505050565b5f60208284031215611867575f5ffd5b5051919050565b5f6020828403121561187e575f5ffd5b81518015158114611409575f5ffd5b5f82518060208501845e5f92019182525091905056fe360894a13ba1a3210667c828492db98dca3e2076cc3735a920a3ca505d382bbca264697066735822122016760059628addd8d0940d1de1e910a19fa5bf1a028aed211286a99e5082bd3064736f6c634300081c0033","linkReferences":{}},"methodIdentifiers":{"DEAD()":"03fd2a45","UPGRADE_INTERFACE_VERSION()":"ad3cb1cc","WBNB()":"8dd95002","bnbRecipient()":"8a36ca17","funders(uint256)":"dc0d3dff","getExpirationTime(address)":"2b5fef2f","getFunders()":"ea63a044","getRaiseAmount(address)":"cc514739","getUnlockedAmount(address)":"420d4a02","holderInfo(address)":"6d1d59a8","initialize(address,address,address,address)":"f8c8765e","lockLiquidity(string,address[],uint256[])":"6c48ba95","lockOwner()":"69cd61be","lpToken()":"5fcbd285","owner()":"8da5cb5b","proxiableUUID()":"52d1902d","raiseAmount(address)":"45d68230","raiseFunds()":"9c0e7824","renounceOwnership()":"715018a6","token()":"fc0c546a","transferOwnership(address)":"f2fde38b","uniswapV2Router()":"1694505e","unlockLiquidity()":"6b54acd9","upgradeToAndCall(address,bytes)":"4f1ef286"},"id":40}