{"abi":[{"type":"receive","stateMutability":"payable"},{"type":"function","name":"DEAD","inputs":[],"outputs":[{"name":"","type":"address","internalType":"address"}],"stateMutability":"view"},{"type":"function","name":"UPGRADE_INTERFACE_VERSION","inputs":[],"outputs":[{"name":"","type":"string","internalType":"string"}],"stateMutability":"view"},{"type":"function","name":"WBNB","inputs":[],"outputs":[{"name":"","type":"address","internalType":"address"}],"stateMutability":"view"},{"type":"function","name":"bnbRecipient","inputs":[],"outputs":[{"name":"","type":"address","internalType":"address"}],"stateMutability":"view"},{"type":"function","name":"funders","inputs":[{"name":"","type":"uint256","internalType":"uint256"}],"outputs":[{"name":"","type":"address","internalType":"address"}],"stateMutability":"view"},{"type":"function","name":"getExpirationTime","inputs":[{"name":"user","type":"address","internalType":"address"}],"outputs":[{"name":"expirationTime","type":"uint256","internalType":"uint256"}],"stateMutability":"view"},{"type":"function","name":"getFunders","inputs":[],"outputs":[{"name":"","type":"address[]","internalType":"address[]"}],"stateMutability":"view"},{"type":"function","name":"getRaiseAmount","inputs":[{"name":"funder","type":"address","internalType":"address"}],"outputs":[{"name":"","type":"uint256","internalType":"uint256"}],"stateMutability":"view"},{"type":"function","name":"getUnlockedAmount","inputs":[{"name":"user","type":"address","internalType":"address"}],"outputs":[{"name":"unlockedAmount","type":"uint256","internalType":"uint256"}],"stateMutability":"view"},{"type":"function","name":"holderInfo","inputs":[{"name":"","type":"address","internalType":"address"}],"outputs":[{"name":"liquidityAmount","type":"uint256","internalType":"uint256"},{"name":"lockTime","type":"uint256","internalType":"uint256"}],"stateMutability":"view"},{"type":"function","name":"initialize","inputs":[{"name":"_lpToken","type":"address","internalType":"address"},{"name":"_token","type":"address","internalType":"address"},{"name":"_lockOwner","type":"address","internalType":"address"},{"name":"_bnbRecipient","type":"address","internalType":"address"}],"outputs":[],"stateMutability":"nonpayable"},{"type":"function","name":"lockLiquidity","inputs":[{"name":"mark","type":"string","internalType":"string"},{"name":"users","type":"address[]","internalType":"address[]"},{"name":"amounts","type":"uint256[]","internalType":"uint256[]"}],"outputs":[],"stateMutability":"nonpayable"},{"type":"function","name":"lockOwner","inputs":[],"outputs":[{"name":"","type":"address","internalType":"address"}],"stateMutability":"view"},{"type":"function","name":"lpToken","inputs":[],"outputs":[{"name":"","type":"address","internalType":"address"}],"stateMutability":"view"},{"type":"function","name":"owner","inputs":[],"outputs":[{"name":"","type":"address","internalType":"address"}],"stateMutability":"view"},{"type":"function","name":"proxiableUUID","inputs":[],"outputs":[{"name":"","type":"bytes32","internalType":"bytes32"}],"stateMutability":"view"},{"type":"function","name":"raiseAmount","inputs":[{"name":"","type":"address","internalType":"address"}],"outputs":[{"name":"","type":"uint256","internalType":"uint256"}],"stateMutability":"view"},{"type":"function","name":"raiseFunds","inputs":[],"outputs":[],"stateMutability":"payable"},{"type":"function","name":"renounceOwnership","inputs":[],"outputs":[],"stateMutability":"nonpayable"},{"type":"function","name":"setAddress","inputs":[{"name":"_token","type":"address","internalType":"address"},{"name":"_lpToken","type":"address","internalType":"address"},{"name":"_bnbRecipient","type":"address","internalType":"address"},{"name":"_lockOwner","type":"address","internalType":"address"}],"outputs":[],"stateMutability":"nonpayable"},{"type":"function","name":"token","inputs":[],"outputs":[{"name":"","type":"address","internalType":"address"}],"stateMutability":"view"},{"type":"function","name":"transferOwnership","inputs":[{"name":"newOwner","type":"address","internalType":"address"}],"outputs":[],"stateMutability":"nonpayable"},{"type":"function","name":"uniswapV2Router","inputs":[],"outputs":[{"name":"","type":"address","internalType":"address"}],"stateMutability":"view"},{"type":"function","name":"unlockLiquidity","inputs":[],"outputs":[],"stateMutability":"nonpayable"},{"type":"function","name":"upgradeToAndCall","inputs":[{"name":"newImplementation","type":"address","internalType":"address"},{"name":"data","type":"bytes","internalType":"bytes"}],"outputs":[],"stateMutability":"payable"},{"type":"event","name":"FundsRaised","inputs":[{"name":"sender","type":"address","indexed":false,"internalType":"address"},{"name":"amount","type":"uint256","indexed":false,"internalType":"uint256"}],"anonymous":false},{"type":"event","name":"Initialized","inputs":[{"name":"version","type":"uint64","indexed":false,"internalType":"uint64"}],"anonymous":false},{"type":"event","name":"LockLiquidityCreated","inputs":[{"name":"mark","type":"string","indexed":false,"internalType":"string"},{"name":"length","type":"uint256","indexed":false,"internalType":"uint256"}],"anonymous":false},{"type":"event","name":"OwnershipTransferred","inputs":[{"name":"previousOwner","type":"address","indexed":true,"internalType":"address"},{"name":"newOwner","type":"address","indexed":true,"internalType":"address"}],"anonymous":false},{"type":"event","name":"Upgraded","inputs":[{"name":"implementation","type":"address","indexed":true,"internalType":"address"}],"anonymous":false},{"type":"error","name":"AddressEmptyCode","inputs":[{"name":"target","type":"address","internalType":"address"}]},{"type":"error","name":"ERC1967InvalidImplementation","inputs":[{"name":"implementation","type":"address","internalType":"address"}]},{"type":"error","name":"ERC1967NonPayable","inputs":[]},{"type":"error","name":"FailedCall","inputs":[]},{"type":"error","name":"InvalidInitialization","inputs":[]},{"type":"error","name":"NotInitializing","inputs":[]},{"type":"error","name":"OwnableInvalidOwner","inputs":[{"name":"owner","type":"address","internalType":"address"}]},{"type":"error","name":"OwnableUnauthorizedAccount","inputs":[{"name":"account","type":"address","internalType":"address"}]},{"type":"error","name":"ReentrancyGuardReentrantCall","inputs":[]},{"type":"error","name":"UUPSUnauthorizedCallContext","inputs":[]},{"type":"error","name":"UUPSUnsupportedProxiableUUID","inputs":[{"name":"slot","type":"bytes32","internalType":"bytes32"}]}],"bytecode":{"object":"0x60a0604052306080523480156012575f5ffd5b5060015f556080516119ca61003d5f395f8181610be901528181610c120152610d5601526119ca5ff3fe608060405260043610610164575f3560e01c8063715018a6116100cd578063ad3cb1cc11610087578063ea63a04411610062578063ea63a0441461046d578063f2fde38b1461048e578063f8c8765e146104ad578063fc0c546a146104cc575f5ffd5b8063ad3cb1cc146103dd578063cc5147391461041a578063dc0d3dff1461044e575f5ffd5b8063715018a6146103205780638a36ca17146103345780638da5cb5b146103535780638dd950021461038f5780639608088c146103b65780639c0e7824146103d5575f5ffd5b806352d1902d1161011e57806352d1902d146102545780635fcbd2851461026857806369cd61be146102875780636b54acd9146102a65780636c48ba95146102ba5780636d1d59a8146102d9575f5ffd5b806303fd2a451461016f5780631694505e146101a15780632b5fef2f146101c8578063420d4a02146101f557806345d68230146102145780634f1ef2861461023f575f5ffd5b3661016b57005b5f5ffd5b34801561017a575f5ffd5b5061018461dead81565b6040516001600160a01b0390911681526020015b60405180910390f35b3480156101ac575f5ffd5b506101847310ed43c718714eb63d5aa57b78b54704e256024e81565b3480156101d3575f5ffd5b506101e76101e2366004611525565b6104eb565b604051908152602001610198565b348015610200575f5ffd5b506101e761020f366004611525565b61058e565b34801561021f575f5ffd5b506101e761022e366004611525565b60076020525f908152604090205481565b61025261024d3660046115dc565b6105d8565b005b34801561025f575f5ffd5b506101e76105f7565b348015610273575f5ffd5b50600254610184906001600160a01b031681565b348015610292575f5ffd5b50600454610184906001600160a01b031681565b3480156102b1575f5ffd5b50610252610612565b3480156102c5575f5ffd5b506102526102d43660046116c7565b6106b9565b3480156102e4575f5ffd5b5061030b6102f3366004611525565b600160208190525f9182526040909120805491015482565b60408051928352602083019190915201610198565b34801561032b575f5ffd5b5061025261083f565b34801561033f575f5ffd5b50600554610184906001600160a01b031681565b34801561035e575f5ffd5b507f9016d09d72d40fdae2fd8ceac6b6234c7706214fd39c1cd1e609a0528c199300546001600160a01b0316610184565b34801561039a575f5ffd5b5061018473bb4cdb9cbd36b01bd1cbaebf2de08d9173bc095c81565b3480156103c1575f5ffd5b506102526103d03660046117c6565b610850565b6102526108a8565b3480156103e8575f5ffd5b5061040d604051806040016040528060058152602001640352e302e360dc1b81525081565b6040516101989190611845565b348015610425575f5ffd5b506101e7610434366004611525565b6001600160a01b03165f9081526007602052604090205490565b348015610459575f5ffd5b50610184610468366004611857565b6109cb565b348015610478575f5ffd5b506104816109f3565b604051610198919061186e565b348015610499575f5ffd5b506102526104a8366004611525565b610a53565b3480156104b8575f5ffd5b506102526104c73660046117c6565b610a90565b3480156104d7575f5ffd5b50600354610184906001600160a01b031681565b6001600160a01b0381165f908152600160208181526040808420815180830190925280548252909201549082018190526105289062278d006118cd565b4210156105505742816020015162278d0061054391906118cd565b61054d91906118e0565b91505b602081015161056190610e106118cd565b42101561058857428160200151610e1061057b91906118cd565b61058591906118e0565b91505b50919050565b6001600160a01b0381165f908152600160208181526040808420815180830190925280548252909201549082018190526105cb9062278d006118cd565b4210610588575192915050565b6105e0610bde565b6105e982610c82565b6105f38282610c8a565b5050565b5f610600610d4b565b505f5160206119755f395f51905f5290565b61061a610d94565b335f90815260016020526040902080546106725760405162461bcd60e51b81526020600482015260146024820152734e6f7420656e6f756768206c697175696469747960601b60448201526064015b60405180910390fd5b5f61067c3361058e565b11156106955761069033825f01545f610dbc565b6106a4565b6106a433825f01546001610dbc565b5f8082556001909101556106b760015f55565b565b6004546001600160a01b031633146107085760405162461bcd60e51b81526020600482015260126024820152712737ba103a3432903637b1b59037bbb732b960711b6044820152606401610669565b5f5b82518110156107ff575f6001600160a01b031683828151811061072f5761072f6118f3565b60200260200101516001600160a01b0316146107f757818181518110610757576107576118f3565b602002602001015160015f858481518110610774576107746118f3565b60200260200101516001600160a01b03166001600160a01b031681526020019081526020015f205f015f8282546107ab91906118cd565b925050819055504260015f8584815181106107c8576107c86118f3565b60200260200101516001600160a01b03166001600160a01b031681526020019081526020015f20600101819055505b60010161070a565b507f4998215289a29e7b4458dce7275b4ea783c97f8f07244de3bf93bd8783a3a5ac838351604051610832929190611907565b60405180910390a1505050565b61084761101b565b6106b75f611076565b61085861101b565b600380546001600160a01b039586166001600160a01b0319918216179091556002805494861694821694909417909355600580549285169284169290921790915560048054919093169116179055565b6702c68af0bb14000034101580156108c85750678ac7230489e800003411155b6109145760405162461bcd60e51b815260206004820152601d60248201527f416d6f756e74206d7573742062652067726561746572207468616e20300000006044820152606401610669565b60055461092a906001600160a01b0316346110e6565b335f90815260076020526040812080543492906109489084906118cd565b9091555050600680546001810182555f919091527ff652222313e28459528d920b65115c16c04f3efc82aaedc97be59f3f377c0d3f0180546001600160a01b03191633908117909155604080519182523460208301527ff8239f64d70f7d5b55f929c553aa473b195e54359bf5cd325d04fc7e45de6dc2910160405180910390a1565b600681815481106109da575f80fd5b5f918252602090912001546001600160a01b0316905081565b60606006805480602002602001604051908101604052809291908181526020018280548015610a4957602002820191905f5260205f20905b81546001600160a01b03168152600190910190602001808311610a2b575b5050505050905090565b610a5b61101b565b6001600160a01b038116610a8457604051631e4fbdf760e01b81525f6004820152602401610669565b610a8d81611076565b50565b5f610a996111ab565b805490915060ff600160401b820416159067ffffffffffffffff165f81158015610ac05750825b90505f8267ffffffffffffffff166001148015610adc5750303b155b905081158015610aea575080155b15610b085760405163f92ee8a960e01b815260040160405180910390fd5b845467ffffffffffffffff191660011785558315610b3257845460ff60401b1916600160401b1785555b610b3b336111d5565b610b436111dd565b600580546001600160a01b038089166001600160a01b031992831617909255600280548c8416908316179055600380548b841690831617905560048054928a16929091169190911790558315610bd357845460ff60401b19168555604051600181527fc7f505b2f371ae2175ee4913f4499e1f2633a7b5936321eed1cdaeb6115181d29060200160405180910390a15b505050505050505050565b306001600160a01b037f0000000000000000000000000000000000000000000000000000000000000000161480610c6457507f00000000000000000000000000000000000000000000000000000000000000006001600160a01b0316610c585f5160206119755f395f51905f52546001600160a01b031690565b6001600160a01b031614155b156106b75760405163703e46dd60e11b815260040160405180910390fd5b610a8d61101b565b816001600160a01b03166352d1902d6040518163ffffffff1660e01b8152600401602060405180830381865afa925050508015610ce4575060408051601f3d908101601f19168201909252610ce191810190611928565b60015b610d0c57604051634c9c8ce360e01b81526001600160a01b0383166004820152602401610669565b5f5160206119755f395f51905f528114610d3c57604051632a87526960e21b815260048101829052602401610669565b610d4683836111e5565b505050565b306001600160a01b037f000000000000000000000000000000000000000000000000000000000000000016146106b75760405163703e46dd60e11b815260040160405180910390fd5b60025f5403610db657604051633ee5aeb560e01b815260040160405180910390fd5b60025f55565b60025460405163095ea7b360e01b81527310ed43c718714eb63d5aa57b78b54704e256024e6004820152602481018490526001600160a01b039091169063095ea7b3906044016020604051808303815f875af1158015610e1e573d5f5f3e3d5ffd5b505050506040513d601f19601f82011682018060405250810190610e42919061193f565b506003546040516370a0823160e01b81523060048201525f916001600160a01b0316906370a0823190602401602060405180830381865afa158015610e89573d5f5f3e3d5ffd5b505050506040513d601f19601f82011682018060405250810190610ead9190611928565b60035460405163af2979eb60e01b81526001600160a01b039091166004820152602481018590525f60448201819052606482018190523060848301524260a48301529192507310ed43c718714eb63d5aa57b78b54704e256024e9063af2979eb9060c4016020604051808303815f875af1158015610f2d573d5f5f3e3d5ffd5b505050506040513d601f19601f82011682018060405250810190610f519190611928565b6003546040516370a0823160e01b81523060048201529192505f916001600160a01b03909116906370a0823190602401602060405180830381865afa158015610f9c573d5f5f3e3d5ffd5b505050506040513d601f19601f82011682018060405250810190610fc09190611928565b905083610fec57600354610fe7906001600160a01b031687610fe286856118e0565b61123a565b611009565b600354611009906001600160a01b031661dead610fe286856118e0565b61101386836110e6565b505050505050565b3361104d7f9016d09d72d40fdae2fd8ceac6b6234c7706214fd39c1cd1e609a0528c199300546001600160a01b031690565b6001600160a01b0316146106b75760405163118cdaa760e01b8152336004820152602401610669565b7f9016d09d72d40fdae2fd8ceac6b6234c7706214fd39c1cd1e609a0528c19930080546001600160a01b031981166001600160a01b03848116918217845560405192169182907f8be0079c531659141344cd1fd0a4f28419497f9722a3daafe3b4186f6b6457e0905f90a3505050565b604080515f808252602082019092526001600160a01b03841690839060405161110f919061195e565b5f6040518083038185875af1925050503d805f8114611149576040519150601f19603f3d011682016040523d82523d5f602084013e61114e565b606091505b5050905080610d465760405162461bcd60e51b815260206004820152602360248201527f5472616e7366657248656c7065723a204554485f5452414e534645525f46414960448201526213115160ea1b6064820152608401610669565b5f807ff0c57e16840df040f15088dc2f81fe391c3923bec73e23a9662efc9c229c6a005b92915050565b610a5b611350565b6106b7611350565b6111ee82611375565b6040516001600160a01b038316907fbc7cd75a20ee27fd9adebab32041f755214dbc6bffa90cc0225b39da2e5c2d3b905f90a280511561123257610d4682826113d8565b6105f361144a565b604080516001600160a01b038481166024830152604480830185905283518084039091018152606490920183526020820180516001600160e01b031663a9059cbb60e01b17905291515f92839290871691611295919061195e565b5f604051808303815f865af19150503d805f81146112ce576040519150601f19603f3d011682016040523d82523d5f602084013e6112d3565b606091505b50915091508180156112fd5750805115806112fd5750808060200190518101906112fd919061193f565b6113495760405162461bcd60e51b815260206004820152601f60248201527f5472616e7366657248656c7065723a205452414e534645525f4641494c4544006044820152606401610669565b5050505050565b611358611469565b6106b757604051631afcd79f60e31b815260040160405180910390fd5b806001600160a01b03163b5f036113aa57604051634c9c8ce360e01b81526001600160a01b0382166004820152602401610669565b5f5160206119755f395f51905f5280546001600160a01b0319166001600160a01b0392909216919091179055565b60605f5f846001600160a01b0316846040516113f4919061195e565b5f60405180830381855af49150503d805f811461142c576040519150601f19603f3d011682016040523d82523d5f602084013e611431565b606091505b5091509150611441858383611482565b95945050505050565b34156106b75760405163b398979f60e01b815260040160405180910390fd5b5f6114726111ab565b54600160401b900460ff16919050565b60608261149757611492826114e1565b6114da565b81511580156114ae57506001600160a01b0384163b155b156114d757604051639996b31560e01b81526001600160a01b0385166004820152602401610669565b50805b9392505050565b8051156114f15780518082602001fd5b60405163d6bda27560e01b815260040160405180910390fd5b80356001600160a01b0381168114611520575f5ffd5b919050565b5f60208284031215611535575f5ffd5b6114da8261150a565b634e487b7160e01b5f52604160045260245ffd5b604051601f8201601f1916810167ffffffffffffffff8111828210171561157b5761157b61153e565b604052919050565b5f5f67ffffffffffffffff84111561159d5761159d61153e565b50601f8301601f19166020016115b281611552565b9150508281528383830111156115c6575f5ffd5b828260208301375f602084830101529392505050565b5f5f604083850312156115ed575f5ffd5b6115f68361150a565b9150602083013567ffffffffffffffff811115611611575f5ffd5b8301601f81018513611621575f5ffd5b61163085823560208401611583565b9150509250929050565b5f67ffffffffffffffff8211156116535761165361153e565b5060051b60200190565b5f82601f83011261166c575f5ffd5b813561167f61167a8261163a565b611552565b8082825260208201915060208360051b8601019250858311156116a0575f5ffd5b602085015b838110156116bd5780358352602092830192016116a5565b5095945050505050565b5f5f5f606084860312156116d9575f5ffd5b833567ffffffffffffffff8111156116ef575f5ffd5b8401601f810186136116ff575f5ffd5b61170e86823560208401611583565b935050602084013567ffffffffffffffff81111561172a575f5ffd5b8401601f8101861361173a575f5ffd5b803561174861167a8261163a565b8082825260208201915060208360051b850101925088831115611769575f5ffd5b6020840193505b82841015611792576117818461150a565b825260209384019390910190611770565b9450505050604084013567ffffffffffffffff8111156117b0575f5ffd5b6117bc8682870161165d565b9150509250925092565b5f5f5f5f608085870312156117d9575f5ffd5b6117e28561150a565b93506117f06020860161150a565b92506117fe6040860161150a565b915061180c6060860161150a565b905092959194509250565b5f81518084528060208401602086015e5f602082860101526020601f19601f83011685010191505092915050565b602081525f6114da6020830184611817565b5f60208284031215611867575f5ffd5b5035919050565b602080825282518282018190525f918401906040840190835b818110156118ae5783516001600160a01b0316835260209384019390920191600101611887565b509095945050505050565b634e487b7160e01b5f52601160045260245ffd5b808201808211156111cf576111cf6118b9565b818103818111156111cf576111cf6118b9565b634e487b7160e01b5f52603260045260245ffd5b604081525f6119196040830185611817565b90508260208301529392505050565b5f60208284031215611938575f5ffd5b5051919050565b5f6020828403121561194f575f5ffd5b815180151581146114da575f5ffd5b5f82518060208501845e5f92019182525091905056fe360894a13ba1a3210667c828492db98dca3e2076cc3735a920a3ca505d382bbca2646970667358221220a2aeac49859d4805745f2eedcfc746ba0d0d60b742926d70fb5be70960b3aa3164736f6c634300081c0033","linkReferences":{}},"methodIdentifiers":{"DEAD()":"03fd2a45","UPGRADE_INTERFACE_VERSION()":"ad3cb1cc","WBNB()":"8dd95002","bnbRecipient()":"8a36ca17","funders(uint256)":"dc0d3dff","getExpirationTime(address)":"2b5fef2f","getFunders()":"ea63a044","getRaiseAmount(address)":"cc514739","getUnlockedAmount(address)":"420d4a02","holderInfo(address)":"6d1d59a8","initialize(address,address,address,address)":"f8c8765e","lockLiquidity(string,address[],uint256[])":"6c48ba95","lockOwner()":"69cd61be","lpToken()":"5fcbd285","owner()":"8da5cb5b","proxiableUUID()":"52d1902d","raiseAmount(address)":"45d68230","raiseFunds()":"9c0e7824","renounceOwnership()":"715018a6","setAddress(address,address,address,address)":"9608088c","token()":"fc0c546a","transferOwnership(address)":"f2fde38b","uniswapV2Router()":"1694505e","unlockLiquidity()":"6b54acd9","upgradeToAndCall(address,bytes)":"4f1ef286"},"id":41}