{"abi":[{"type":"constructor","inputs":[{"name":"tokenOwner","type":"address","internalType":"address"}],"stateMutability":"nonpayable"},{"type":"receive","stateMutability":"payable"},{"type":"function","name":"_isExcludedFromFees","inputs":[{"name":"","type":"address","internalType":"address"}],"outputs":[{"name":"","type":"bool","internalType":"bool"}],"stateMutability":"view"},{"type":"function","name":"_isPairs","inputs":[{"name":"","type":"address","internalType":"address"}],"outputs":[{"name":"","type":"bool","internalType":"bool"}],"stateMutability":"view"},{"type":"function","name":"_userMintEndTime","inputs":[{"name":"","type":"address","internalType":"address"}],"outputs":[{"name":"","type":"uint256","internalType":"uint256"}],"stateMutability":"view"},{"type":"function","name":"_userMintOverAmount","inputs":[{"name":"","type":"address","internalType":"address"}],"outputs":[{"name":"","type":"uint256","internalType":"uint256"}],"stateMutability":"view"},{"type":"function","name":"_userMintSpeed","inputs":[{"name":"","type":"address","internalType":"address"}],"outputs":[{"name":"","type":"uint256","internalType":"uint256"}],"stateMutability":"view"},{"type":"function","name":"_userMintStartTime","inputs":[{"name":"","type":"address","internalType":"address"}],"outputs":[{"name":"","type":"uint256","internalType":"uint256"}],"stateMutability":"view"},{"type":"function","name":"_userMintTotalAmount","inputs":[{"name":"","type":"address","internalType":"address"}],"outputs":[{"name":"","type":"uint256","internalType":"uint256"}],"stateMutability":"view"},{"type":"function","name":"_userShareMintNumber","inputs":[{"name":"","type":"address","internalType":"address"}],"outputs":[{"name":"","type":"uint256","internalType":"uint256"}],"stateMutability":"view"},{"type":"function","name":"addOtherPair","inputs":[{"name":"pairaddress","type":"address","internalType":"address"},{"name":"value","type":"bool","internalType":"bool"}],"outputs":[],"stateMutability":"nonpayable"},{"type":"function","name":"allowance","inputs":[{"name":"owner","type":"address","internalType":"address"},{"name":"spender","type":"address","internalType":"address"}],"outputs":[{"name":"","type":"uint256","internalType":"uint256"}],"stateMutability":"view"},{"type":"function","name":"approve","inputs":[{"name":"spender","type":"address","internalType":"address"},{"name":"amount","type":"uint256","internalType":"uint256"}],"outputs":[{"name":"","type":"bool","internalType":"bool"}],"stateMutability":"nonpayable"},{"type":"function","name":"balanceOf","inputs":[{"name":"account","type":"address","internalType":"address"}],"outputs":[{"name":"","type":"uint256","internalType":"uint256"}],"stateMutability":"view"},{"type":"function","name":"buyFee","inputs":[],"outputs":[{"name":"","type":"uint256","internalType":"uint256"}],"stateMutability":"view"},{"type":"function","name":"changeSwapFee","inputs":[{"name":"_buyFee","type":"uint256","internalType":"uint256"},{"name":"_sellFee","type":"uint256","internalType":"uint256"}],"outputs":[],"stateMutability":"nonpayable"},{"type":"function","name":"decimals","inputs":[],"outputs":[{"name":"","type":"uint8","internalType":"uint8"}],"stateMutability":"view"},{"type":"function","name":"decreaseAllowance","inputs":[{"name":"spender","type":"address","internalType":"address"},{"name":"subtractedValue","type":"uint256","internalType":"uint256"}],"outputs":[{"name":"","type":"bool","internalType":"bool"}],"stateMutability":"nonpayable"},{"type":"function","name":"excludeFromFees","inputs":[{"name":"account","type":"address","internalType":"address"},{"name":"excluded","type":"bool","internalType":"bool"}],"outputs":[],"stateMutability":"nonpayable"},{"type":"function","name":"excludeFromFeesUsers","inputs":[{"name":"accounts","type":"address[]","internalType":"address[]"},{"name":"excluded","type":"bool","internalType":"bool"}],"outputs":[],"stateMutability":"nonpayable"},{"type":"function","name":"getLpBalanceByUsdt","inputs":[{"name":"usdtAmount","type":"uint256","internalType":"uint256"}],"outputs":[{"name":"","type":"uint256","internalType":"uint256"},{"name":"","type":"uint256","internalType":"uint256"}],"stateMutability":"view"},{"type":"function","name":"getUserMintAmount","inputs":[{"name":"user","type":"address","internalType":"address"}],"outputs":[{"name":"","type":"uint256","internalType":"uint256"}],"stateMutability":"view"},{"type":"function","name":"getUserMintShareRewardLevel","inputs":[{"name":"user","type":"address","internalType":"address"}],"outputs":[{"name":"","type":"uint256","internalType":"uint256"}],"stateMutability":"view"},{"type":"function","name":"increaseAllowance","inputs":[{"name":"spender","type":"address","internalType":"address"},{"name":"addedValue","type":"uint256","internalType":"uint256"}],"outputs":[{"name":"","type":"bool","internalType":"bool"}],"stateMutability":"nonpayable"},{"type":"function","name":"isMint","inputs":[],"outputs":[{"name":"","type":"bool","internalType":"bool"}],"stateMutability":"view"},{"type":"function","name":"name","inputs":[],"outputs":[{"name":"","type":"string","internalType":"string"}],"stateMutability":"view"},{"type":"function","name":"owner","inputs":[],"outputs":[{"name":"","type":"address","internalType":"address"}],"stateMutability":"view"},{"type":"function","name":"perparInviter","inputs":[{"name":"","type":"address","internalType":"address"}],"outputs":[{"name":"","type":"address","internalType":"address"}],"stateMutability":"view"},{"type":"function","name":"renounceOwnership","inputs":[],"outputs":[],"stateMutability":"nonpayable"},{"type":"function","name":"rescueToken","inputs":[{"name":"tokenAddress","type":"address","internalType":"address"},{"name":"tokens","type":"uint256","internalType":"uint256"}],"outputs":[{"name":"","type":"bool","internalType":"bool"}],"stateMutability":"payable"},{"type":"function","name":"reward","inputs":[],"outputs":[{"name":"","type":"address","internalType":"contract UsdtReward"}],"stateMutability":"view"},{"type":"function","name":"sellFee","inputs":[],"outputs":[{"name":"","type":"uint256","internalType":"uint256"}],"stateMutability":"view"},{"type":"function","name":"setExcludedFromFeesVip","inputs":[{"name":"pairaddress","type":"address","internalType":"address"},{"name":"value","type":"bool","internalType":"bool"}],"outputs":[],"stateMutability":"nonpayable"},{"type":"function","name":"setStartTime","inputs":[{"name":"_startTime","type":"uint256","internalType":"uint256"}],"outputs":[],"stateMutability":"nonpayable"},{"type":"function","name":"startTime","inputs":[],"outputs":[{"name":"","type":"uint256","internalType":"uint256"}],"stateMutability":"view"},{"type":"function","name":"symbol","inputs":[],"outputs":[{"name":"","type":"string","internalType":"string"}],"stateMutability":"view"},{"type":"function","name":"totalSupply","inputs":[],"outputs":[{"name":"","type":"uint256","internalType":"uint256"}],"stateMutability":"view"},{"type":"function","name":"transfer","inputs":[{"name":"recipient","type":"address","internalType":"address"},{"name":"amount","type":"uint256","internalType":"uint256"}],"outputs":[{"name":"","type":"bool","internalType":"bool"}],"stateMutability":"nonpayable"},{"type":"function","name":"transferFrom","inputs":[{"name":"sender","type":"address","internalType":"address"},{"name":"recipient","type":"address","internalType":"address"},{"name":"amount","type":"uint256","internalType":"uint256"}],"outputs":[{"name":"","type":"bool","internalType":"bool"}],"stateMutability":"nonpayable"},{"type":"function","name":"transferOwnership","inputs":[{"name":"newOwner","type":"address","internalType":"address"}],"outputs":[],"stateMutability":"nonpayable"},{"type":"function","name":"uniswapV2Pair","inputs":[],"outputs":[{"name":"","type":"address","internalType":"address"}],"stateMutability":"view"},{"type":"function","name":"userMintToken","inputs":[],"outputs":[],"stateMutability":"nonpayable"},{"type":"event","name":"Approval","inputs":[{"name":"owner","type":"address","indexed":true,"internalType":"address"},{"name":"spender","type":"address","indexed":true,"internalType":"address"},{"name":"value","type":"uint256","indexed":false,"internalType":"uint256"}],"anonymous":false},{"type":"event","name":"Transfer","inputs":[{"name":"from","type":"address","indexed":true,"internalType":"address"},{"name":"to","type":"address","indexed":true,"internalType":"address"},{"name":"value","type":"uint256","indexed":false,"internalType":"uint256"}],"anonymous":false}],"bytecode":{"object":"0x6080604052600d80546001600160a01b031990811661dead17909155600e805482167310ed43c718714eb63d5aa57b78b54704e256024e179055600f805482167355d398326f99059ff775485246999027b319795517905560108054821673b41e79b9ae1e57546a3d4cafe3b04eed72df5b88908117909155601180548316821790556012805490921617905562015180601955601e601a819055601b819055805460ff191660011790553480156100b5575f5ffd5b50604051613c01380380613c018339810160408190526100d491610843565b604051806040016040528060058152602001643a37b5b2b760d91b815250604051806040016040528060058152602001643a37b5b2b760d91b8152505f61011f6105bf60201b60201c565b5f80546001600160a01b0319166001600160a01b039290921691909117905550600461014b8382610900565b5060056101588282610900565b5050600f54306001600160a01b039091161090506101a65760405162461bcd60e51b8152602060048201526006602482015265081cdb585b1b60d21b60448201526064015b60405180910390fd5b600e546040805163c45a015560e01b815290516001600160a01b03909216915f91839163c45a0155916004808201926020929091908290030181865afa1580156101f2573d5f5f3e3d5ffd5b505050506040513d601f19601f820116820180604052508101906102169190610843565b600f546040516364e329cb60e11b81523060048201526001600160a01b03918216602482015291169063c9c65396906044016020604051808303815f875af1158015610264573d5f5f3e3d5ffd5b505050506040513d601f19601f820116820180604052508101906102889190610843565b600e549091506102be9030906001600160a01b03167a184f03e93ff9f4daa797ed6e38ed64bf6a1f0100000000000000006105c3565b600e546102f19084906001600160a01b03167a184f03e93ff9f4daa797ed6e38ed64bf6a1f0100000000000000006105c3565b600f54600980546001600160a01b0319166001600160a01b03928316908117909155600e5460405163095ea7b360e01b8152921660048301527a184f03e93ff9f4daa797ed6e38ed64bf6a1f01000000000000000060248301529063095ea7b3906044016020604051808303815f875af1158015610371573d5f5f3e3d5ffd5b505050506040513d601f19601f8201168201806040525081019061039591906109ba565b50600f546040516001600160a01b03909116906103b190610836565b6001600160a01b039091168152602001604051809103905ff0801580156103da573d5f5f3e3d5ffd5b50600b80546001600160a01b03199081166001600160a01b0393841617909155600a80548216848416908117909155600780548316868516179055600c80548316821790556008805483168785161781555f918252601560209081526040808420805460ff1990811660019081179092553086526014909352818520805484168217905584548716855281852080548416821790559254861684528084208054831684179055600d5486168452832080549091169091179055546006805491909316911617905569d3c21bcecceda100000060178190556a52b7d2dcc80cd2e40000006018556104cb9084906106e6565b6017546016556105b7602760205260147fb6915e519d5f9dd23c62986e48578ddfa8cde5c92608222904fd87ad04df4ffd55600f7fd74efdfd87f35d7ac3f29a209600d84a995d8b95ea0c046120a5173a31595f1e8190557f5ca855eeae1b488fa0b99cc3fd0c088edeb325d8687640f29b9dab5e07b5eace55600a7f12ebf64f2a0ad325ddc0592e499dea0c98eba245e9af669ce9f50d9d1af3e3968190557f34e2af96da1cac9cb50a806a3aad4d91058b3dbaa206afbb3bdcdbdf82c6b68781905560135f527f90b49f31c6d8205a48fbde90d02e5cf29a43e3656912808fb62b40c84031598f55565b5050506109f8565b3390565b6001600160a01b0383166106255760405162461bcd60e51b8152602060048201526024808201527f45524332303a20617070726f76652066726f6d20746865207a65726f206164646044820152637265737360e01b606482015260840161019d565b6001600160a01b0382166106865760405162461bcd60e51b815260206004820152602260248201527f45524332303a20617070726f766520746f20746865207a65726f206164647265604482015261737360f01b606482015260840161019d565b6001600160a01b038381165f8181526002602090815260408083209487168084529482529182902085905590518481527f8c5be1e5ebec7d5bd14f71427d1e84f3dd0314c0f7b2291e5b200ac8c7c3b925910160405180910390a3505050565b6001600160a01b03821661073c5760405162461bcd60e51b815260206004820152601f60248201527f45524332303a206d696e7420746f20746865207a65726f206164647265737300604482015260640161019d565b60035461074990826107cf565b6003556001600160a01b0382165f9081526001602052604090205461076e90826107cf565b6001600160a01b0383165f818152600160205260408082209390935591519091907fddf252ad1be2c89b69c2b068fc378daa952ba7f163c4a11628f55a4df523b3ef906107be9085815260200190565b60405180910390a35050565b505050565b5f806107db83856109d9565b90508381101561082d5760405162461bcd60e51b815260206004820152601b60248201527f536166654d6174683a206164646974696f6e206f766572666c6f770000000000604482015260640161019d565b90505b92915050565b61022f806139d283390190565b5f60208284031215610853575f5ffd5b81516001600160a01b038116811461082d575f5ffd5b634e487b7160e01b5f52604160045260245ffd5b600181811c9082168061089157607f821691505b6020821081036108af57634e487b7160e01b5f52602260045260245ffd5b50919050565b601f8211156107ca57805f5260205f20601f840160051c810160208510156108da5750805b601f840160051c820191505b818110156108f9575f81556001016108e6565b5050505050565b81516001600160401b0381111561091957610919610869565b61092d81610927845461087d565b846108b5565b6020601f82116001811461095f575f83156109485750848201515b5f19600385901b1c1916600184901b1784556108f9565b5f84815260208120601f198516915b8281101561098e578785015182556020948501946001909201910161096e565b50848210156109ab57868401515f19600387901b60f8161c191681555b50505050600190811b01905550565b5f602082840312156109ca575f5ffd5b8151801515811461082d575f5ffd5b8082018082111561083057634e487b7160e01b5f52601160045260245ffd5b612fcd80610a055f395ff3fe608060405260043610610236575f3560e01c8063715018a611610129578063a8a908be116100a8578063e0bf7fd11161006d578063e0bf7fd1146106ee578063e72583e51461071c578063ec6e62ac14610747578063f2fde38b14610766578063f424039414610785575f5ffd5b8063a8a908be14610616578063a9059cbb14610641578063c024666814610660578063c6b2ea501461067f578063dd62ed3e146106aa575f5ffd5b80638da5cb5b116100ee5780638da5cb5b1461058957806395d89b41146105a5578063a457c2d7146105b9578063a5115a3a146105d8578063a66a9590146105f7575f5ffd5b8063715018a6146104e8578063744a1c22146104fc57806378e979251461051b5780638982503d146105305780638a06d2061461055e575f5ffd5b806333b3f944116101b557806349bd5a5e1161017a57806349bd5a5e146104425780634a21f0da146104615780635e06b2ec1461048b57806370a08231146104aa578063713310f8146104c9575f5ffd5b806333b3f944146103c357806333f3d628146103dc57806339509351146103ef5780633e0a322d1461040e578063470624021461042d575f5ffd5b806323ee7b75116101fb57806323ee7b75146103175780632b14ca561461034b5780632c6975df146103605780632ea12a6b14610374578063313ce567146103a8575f5ffd5b806306fdde031461024a578063095ea7b31461027457806318160ddd146102a3578063228cb733146102c157806323b872dd146102f8575f5ffd5b3661024657610244326107b0565b005b5f5ffd5b348015610255575f5ffd5b5061025e6108a8565b60405161026b91906129a4565b60405180910390f35b34801561027f575f5ffd5b5061029361028e366004612a00565b610938565b604051901515815260200161026b565b3480156102ae575f5ffd5b506003545b60405190815260200161026b565b3480156102cc575f5ffd5b50600b546102e0906001600160a01b031681565b6040516001600160a01b03909116815260200161026b565b348015610303575f5ffd5b50610293610312366004612a2a565b61094e565b348015610322575f5ffd5b506102e0610331366004612a68565b60246020525f90815260409020546001600160a01b031681565b348015610356575f5ffd5b506102b3601b5481565b34801561036b575f5ffd5b506102446109b6565b34801561037f575f5ffd5b5061039361038e366004612a83565b6109c1565b6040805192835260208301919091520161026b565b3480156103b3575f5ffd5b506040516012815260200161026b565b3480156103ce575f5ffd5b50601e546102939060ff1681565b6102936103ea366004612a00565b610b06565b3480156103fa575f5ffd5b50610293610409366004612a00565b610bfe565b348015610419575f5ffd5b50610244610428366004612a83565b610c33565b348015610438575f5ffd5b506102b3601a5481565b34801561044d575f5ffd5b50600c546102e0906001600160a01b031681565b34801561046c575f5ffd5b506102b361047b366004612a68565b602080525f908152604090205481565b348015610496575f5ffd5b506102446104a5366004612a9a565b610c61565b3480156104b5575f5ffd5b506102b36104c4366004612a68565b610c95565b3480156104d4575f5ffd5b506102b36104e3366004612a68565b610ceb565b3480156104f3575f5ffd5b50610244610d6f565b348015610507575f5ffd5b50610244610516366004612ad2565b610da9565b348015610526575f5ffd5b506102b360165481565b34801561053b575f5ffd5b5061029361054a366004612a68565b60156020525f908152604090205460ff1681565b348015610569575f5ffd5b506102b3610578366004612a68565b601f6020525f908152604090205481565b348015610594575f5ffd5b505f546001600160a01b03166102e0565b3480156105b0575f5ffd5b5061025e610dfc565b3480156105c4575f5ffd5b506102936105d3366004612a00565b610e0b565b3480156105e3575f5ffd5b506102446105f2366004612b1d565b610e58565b348015610602575f5ffd5b506102b3610611366004612a68565b610ee0565b348015610621575f5ffd5b506102b3610630366004612a68565b60226020525f908152604090205481565b34801561064c575f5ffd5b5061029361065b366004612a00565b610fd1565b34801561066b575f5ffd5b5061024461067a366004612ad2565b610fdd565b34801561068a575f5ffd5b506102b3610699366004612a68565b60236020525f908152604090205481565b3480156106b5575f5ffd5b506102b36106c4366004612bfa565b6001600160a01b039182165f90815260026020908152604080832093909416825291909152205490565b3480156106f9575f5ffd5b50610293610708366004612a68565b60136020525f908152604090205460ff1681565b348015610727575f5ffd5b506102b3610736366004612a68565b60216020525f908152604090205481565b348015610752575f5ffd5b50610244610761366004612ad2565b611030565b348015610771575f5ffd5b50610244610780366004612a68565b611083565b348015610790575f5ffd5b506102b361079f366004612a68565b60266020525f908152604090205481565b5f6107ba82610ceb565b9050801561088c575f6107cd8383611132565b6001600160a01b0384165f908152602360205260409020549091506107f29082611188565b6001600160a01b0384165f90815260236020908152604080832084905560229091529020540361088a576001600160a01b038084165f9081526025602090815260408083205490931680835260269091529190205415610888576001600160a01b0381165f9081526026602052604090205461086f9060016111e6565b6001600160a01b0382165f908152602660205260409020555b505b505b506001600160a01b03165f908152601f60205260409020429055565b6060600480546108b790612c26565b80601f01602080910402602001604051908101604052809291908181526020018280546108e390612c26565b801561092e5780601f106109055761010080835404028352916020019161092e565b820191905f5260205f20905b81548152906001019060200180831161091157829003601f168201915b5050505050905090565b5f610944338484611227565b5060015b92915050565b5f61095b3385858561134b565b6109ac84336109a785604051806060016040528060288152602001612f4b602891396001600160a01b038a165f908152600260209081526040808320338452909152902054919061154b565b611227565b5060019392505050565b6109bf336107b0565b565b5f5f5f600a5f9054906101000a90046001600160a01b03166001600160a01b03166318160ddd6040518163ffffffff1660e01b8152600401602060405180830381865afa158015610a14573d5f5f3e3d5ffd5b505050506040513d601f19601f82011682018060405250810190610a389190612c5e565b90505f5f600c5f9054906101000a90046001600160a01b03166001600160a01b0316630902f1ac6040518163ffffffff1660e01b8152600401606060405180830381865afa158015610a8c573d5f5f3e3d5ffd5b505050506040513d601f19601f82011682018060405250810190610ab09190612c8b565b506001600160701b0391821693501690505f610ae66103f4610ae06103e8610ada87818a8e61157a565b906115f8565b9061157a565b90505f610af785610ada848661157a565b91989197509095505050505050565b5f67016345785d8a0000341015610b4c5760405162461bcd60e51b815260206004820152600560248201526476616c756560d81b60448201526064015b60405180910390fd5b6006546040516001600160a01b03909116904780156108fc02915f818181858888f19350505050158015610b82573d5f5f3e3d5ffd5b5060065460405163a9059cbb60e01b81526001600160a01b039182166004820152602481018490529084169063a9059cbb906044016020604051808303815f875af1158015610bd3573d5f5f3e3d5ffd5b505050506040513d601f19601f82011682018060405250810190610bf79190612cd7565b9392505050565b335f8181526002602090815260408083206001600160a01b038716845290915281205490916109449185906109a79086611188565b5f546001600160a01b03163314610c5c5760405162461bcd60e51b8152600401610b4390612cf2565b601655565b5f546001600160a01b03163314610c8a5760405162461bcd60e51b8152600401610b4390612cf2565b601a91909155601b55565b600c545f906001600160a01b0390811690831603610cce576001600160a01b0382165f9081526001602052604090205480610948575f5ffd5b6001600160a01b0382165f90815260016020526040902054610948565b6001600160a01b0381165f90815260208052604081205442811115610d0d5750425b6001600160a01b0383165f908152601f6020526040902054818110610d3557505f9392505050565b5f610d4083836111e6565b6001600160a01b0386165f90815260216020526040902054909150610d6690829061157a565b95945050505050565b5f546001600160a01b03163314610d985760405162461bcd60e51b8152600401610b4390612cf2565b5f80546001600160a01b0319169055565b5f546001600160a01b03163314610dd25760405162461bcd60e51b8152600401610b4390612cf2565b6001600160a01b03919091165f908152601560205260409020805460ff1916911515919091179055565b6060600580546108b790612c26565b5f61094433846109a785604051806060016040528060258152602001612f7360259139335f9081526002602090815260408083206001600160a01b038d168452909152902054919061154b565b5f546001600160a01b03163314610e815760405162461bcd60e51b8152600401610b4390612cf2565b5f5b8251811015610edb578160135f858481518110610ea257610ea2612d27565b6020908102919091018101516001600160a01b031682528101919091526040015f20805460ff1916911515919091179055600101610e83565b505050565b6001600160a01b0381165f90815260266020526040812054600611610f0757506013919050565b6001600160a01b0382165f90815260266020526040902054600611610f2e5750600f919050565b6001600160a01b0382165f90815260266020526040902054600411610f555750600b919050565b6001600160a01b0382165f90815260266020526040902054600311610f7c57506007919050565b6001600160a01b0382165f90815260266020526040902054600211610fa357506004919050565b6001600160a01b0382165f90815260266020526040902054600111610fca57506001919050565b505f919050565b5f610944338484611639565b5f546001600160a01b031633146110065760405162461bcd60e51b8152600401610b4390612cf2565b6001600160a01b03919091165f908152601360205260409020805460ff1916911515919091179055565b5f546001600160a01b031633146110595760405162461bcd60e51b8152600401610b4390612cf2565b6001600160a01b03919091165f908152601460205260409020805460ff1916911515919091179055565b5f546001600160a01b031633146110ac5760405162461bcd60e51b8152600401610b4390612cf2565b6001600160a01b0381166111115760405162461bcd60e51b815260206004820152602660248201527f4f776e61626c653a206e6577206f776e657220697320746865207a65726f206160448201526564647265737360d01b6064820152608401610b43565b5f80546001600160a01b0319166001600160a01b0392909216919091179055565b601e545f9060ff1615611180575f61115561114c60035490565b601854906111e6565b90508083111561116d57601e805460ff191690559150815b6111778484611d93565b82915050610948565b505f92915050565b5f806111948385612d4f565b905083811015610bf75760405162461bcd60e51b815260206004820152601b60248201527f536166654d6174683a206164646974696f6e206f766572666c6f7700000000006044820152606401610b43565b5f610bf783836040518060400160405280601e81526020017f536166654d6174683a207375627472616374696f6e206f766572666c6f77000081525061154b565b6001600160a01b0383166112895760405162461bcd60e51b8152602060048201526024808201527f45524332303a20617070726f76652066726f6d20746865207a65726f206164646044820152637265737360e01b6064820152608401610b43565b6001600160a01b0382166112ea5760405162461bcd60e51b815260206004820152602260248201527f45524332303a20617070726f766520746f20746865207a65726f206164647265604482015261737360f01b6064820152608401610b43565b6001600160a01b038381165f8181526002602090815260408083209487168084529482529182902085905590518481527f8c5be1e5ebec7d5bd14f71427d1e84f3dd0314c0f7b2291e5b200ac8c7c3b92591015b60405180910390a3505050565b6001600160a01b0383166113715760405162461bcd60e51b8152600401610b4390612d62565b6001600160a01b0382166113975760405162461bcd60e51b8152600401610b4390612da7565b826001600160a01b0316826001600160a01b0316036113c85760405162461bcd60e51b8152600401610b4390612dea565b6001600160a01b0384166113ee5760405162461bcd60e51b8152600401610b4390612dea565b6001600160a01b0383165f9081526014602052604090205460ff168061142b57506001600160a01b0382165f9081526014602052604090205460ff165b156114405761143b838383611e77565b611545565b426016541180156114685750600c546001600160a01b03165f90815260016020526040902054155b15611486576008546001600160a01b03848116911614611486575f5ffd5b600c546001600160a01b039081169083160361153a575f5f6114a786611f80565b915091508115611537575f5f6114bc836109c1565b9150915084811061153457326001600160a01b038816146114e657600d546001600160a01b031695505b6001600160a01b0387165f908152601d60205260409020546115089083611188565b6001600160a01b0388165f908152601d602052604090205561152b878787611e77565b50505050611545565b50505b50505b611545838383611639565b50505050565b5f818484111561156e5760405162461bcd60e51b8152600401610b4391906129a4565b505f610d668486612e2d565b5f825f0361158957505f610948565b5f6115948385612e40565b9050826115a18583612e57565b14610bf75760405162461bcd60e51b815260206004820152602160248201527f536166654d6174683a206d756c7469706c69636174696f6e206f766572666c6f6044820152607760f81b6064820152608401610b43565b5f610bf783836040518060400160405280601a81526020017f536166654d6174683a206469766973696f6e206279207a65726f00000000000081525061214b565b6001600160a01b03831661165f5760405162461bcd60e51b8152600401610b4390612d62565b6001600160a01b0382166116855760405162461bcd60e51b8152600401610b4390612da7565b826001600160a01b0316826001600160a01b0316036116b65760405162461bcd60e51b8152600401610b4390612dea565b806116d5846001600160a01b03165f9081526001602052604090205490565b10156117125760405162461bcd60e51b815260206004820152600c60248201526b30b6b7bab73a1032b93937b960a11b6044820152606401610b43565b323314801561172e5750600d546001600160a01b038381169116145b801561174357506802b5e3af16b18800008110155b8015611758575068a2a15d09519be000008111155b156117cb5761177783306117726008610ae08660646115f8565b611e77565b600d546117999084906001600160a01b0316611772605c610ae08660646115f8565b6117b2836117ad6008610ae08560646115f8565b612177565b610edb836117c6605c610ae08560646115f8565b612236565b6117d4326107b0565b600c545f906001600160a01b038581169116148015906117fa57506117f883610c95565b155b801561181d57506001600160a01b038381165f9081526024602052604090205416155b8015611831575067016345785d8a00008210155b6001600160a01b0385165f9081526014602052604090205490915060ff168061187157506001600160a01b0383165f9081526014602052604090205460ff165b1561188157611545848484611e77565b600c546001600160a01b0390811690851603611957575f5f5f6118a261230d565b92509250925082156119395760165442906118bf9061012c611188565b106118dc5760405162461bcd60e51b8152600401610b4390612e76565b5f6118e6826109c1565b506001600160a01b0388165f908152601d602052604090205490915061190c90826111e6565b6001600160a01b0388165f908152601d602052604090205561192f888888611e77565b5050505050505050565b81156119535761194a873087611e77565b50505050505050565b5050505b6001600160a01b0384165f9081526015602052604090205460ff1615611b67576001600160a01b0383165f9081526013602052604090205460ff16156119ca5760165442906119a8906102586111e6565b106119c55760405162461bcd60e51b8152600401610b4390612e76565b6119eb565b42601654106119eb5760405162461bcd60e51b8152600401610b4390612e76565b6001600160a01b0383165f9081526015602052604090205460ff1615611a3e5760405162461bcd60e51b81526020600482015260086024820152673a379032b93937b960c11b6044820152606401610b43565b5f611a476124bf565b915050611a6a8530611772601a54610ae06103e8896115f890919063ffffffff16565b611a89601a546103e8611a7d9190612e2d565b610ae0856103e86115f8565b9250828111611ac65760405162461bcd60e51b8152602060048201526009602482015268189d5e505b5bdd5b9d60ba1b6044820152606401610b43565b6016544290611ad7906102586111e6565b1015611b61576001600160a01b0384165f908152601c6020526040902054611aff9084611188565b6001600160a01b0385165f908152601c60205260409020819055681b1ae4d6e2ef5000001015611b615760405162461bcd60e51b815260206004820152600d60248201526c1d5cd95c909d5e505b5bdd5b9d609a1b6044820152606401610b43565b50611c79565b6001600160a01b0383165f9081526015602052604090205460ff1615611c79574260165410611ba85760405162461bcd60e51b8152600401610b4390612e76565b6001600160a01b0384165f9081526015602052604090205460ff1615611bfb5760405162461bcd60e51b81526020600482015260086024820152673a379032b93937b960c11b6044820152606401610b43565b6001600160a01b0384165f908152600160205260409020548203611c3057611c2d620f423f610ae084620f42406115f8565b91505b611c508430611772601b54610ae06103e8886115f890919063ffffffff16565b611c6f601b546103e8611c639190612e2d565b610ae0846103e86115f8565b9150611c7961266f565b611c84848484611e77565b808015611c9957506001600160a01b03841632145b15611cd0576001600160a01b038381165f90815260246020526040902080546001600160a01b031916918616919091179055611545565b600c545f906001600160a01b03868116911614801590611d0b57506001600160a01b038581165f908152602460205260409020548116908516145b8015611d2e57506001600160a01b038581165f9081526025602052604090205416155b8015611d42575067016345785d8a00008310155b9050808015611d5957506001600160a01b03851632145b15611d8c576001600160a01b038581165f90815260256020526040902080546001600160a01b0319169186169190911790555b5050505050565b6001600160a01b038216611de95760405162461bcd60e51b815260206004820152601f60248201527f45524332303a206d696e7420746f20746865207a65726f2061646472657373006044820152606401610b43565b600354611df69082611188565b6003556001600160a01b0382165f90815260016020526040902054611e1b9082611188565b6001600160a01b0383165f818152600160205260408082209390935591519091907fddf252ad1be2c89b69c2b068fc378daa952ba7f163c4a11628f55a4df523b3ef90611e6b9085815260200190565b60405180910390a35050565b6001600160a01b038316611e9d5760405162461bcd60e51b8152600401610b4390612d62565b6001600160a01b038216611ec35760405162461bcd60e51b8152600401610b4390612da7565b611eff81604051806060016040528060268152602001612f25602691396001600160a01b0386165f90815260016020526040902054919061154b565b6001600160a01b038085165f908152600160205260408082209390935590841681522054611f2d9082611188565b6001600160a01b038084165f8181526001602052604090819020939093559151908516907fddf252ad1be2c89b69c2b068fc378daa952ba7f163c4a11628f55a4df523b3ef9061133e9085815260200190565b5f806001600160a01b0383167310ed43c718714eb63d5aa57b78b54704e256024e14611fb057505f928392509050565b600c5460408051630dfe168160e01b815290515f926001600160a01b031691630dfe16819160048083019260209291908290030181865afa158015611ff7573d5f5f3e3d5ffd5b505050506040513d601f19601f8201168201806040525081019061201b9190612e99565b90505f600c5f9054906101000a90046001600160a01b03166001600160a01b0316630902f1ac6040518163ffffffff1660e01b8152600401606060405180830381865afa15801561206e573d5f5f3e3d5ffd5b505050506040513d601f19601f820116820180604052508101906120929190612c8b565b5050600c546040516370a0823160e01b81526001600160a01b0391821660048201526001600160701b039290921692505f91908416906370a0823190602401602060405180830381865afa1580156120ec573d5f5f3e3d5ffd5b505050506040513d601f19601f820116820180604052508101906121109190612c5e565b90506001600160a01b03831630146121435781811115612143576121348282612e2d565b93506509184e72a00084101594505b505050915091565b5f818361216b5760405162461bcd60e51b8152600401610b4391906129a4565b505f610d668486612e57565b815f828160015b601481101561220f576001600160a01b039485165f9081526025602052604090205490941693841561220f575f8181526027602052604090205415612207576121c685610ee0565b9350808410612207575f818152602760205260409020546121ed90610ae0886103e86115f8565b91506121fa308684611e77565b61220483836111e6565b92505b60010161217e565b50811561222e5760125461222e9030906001600160a01b031684611e77565b505050505050565b61223f826107b0565b6122706122526087610ae08460646115f8565b6001600160a01b0384165f9081526022602052604090205490611188565b6001600160a01b0383165f9081526022602081815260408084208590556023825283205491905290916122a2916111e6565b90506122bd60195460646122b69190612e40565b82906115f8565b6001600160a01b0384165f908152602160205260409020556019546122ee906122e7906064612e40565b4290611188565b6001600160a01b039093165f9081526020805260409020929092555050565b5f5f5f5f600c5f9054906101000a90046001600160a01b03166001600160a01b0316630dfe16816040518163ffffffff1660e01b8152600401602060405180830381865afa158015612361573d5f5f3e3d5ffd5b505050506040513d601f19601f820116820180604052508101906123859190612e99565b90505f600c5f9054906101000a90046001600160a01b03166001600160a01b0316630902f1ac6040518163ffffffff1660e01b8152600401606060405180830381865afa1580156123d8573d5f5f3e3d5ffd5b505050506040513d601f19601f820116820180604052508101906123fc9190612c8b565b5050600c546040516370a0823160e01b81526001600160a01b0391821660048201526001600160701b039290921692505f91908416906370a0823190602401602060405180830381865afa158015612456573d5f5f3e3d5ffd5b505050506040513d601f19601f8201168201806040525081019061247a9190612c5e565b90506001600160a01b03831630146124b757808211156124b15761249e8183612e2d565b93506509184e72a00084101595506124b7565b80821494505b505050909192565b5f5f5f600c5f9054906101000a90046001600160a01b03166001600160a01b0316630dfe16816040518163ffffffff1660e01b8152600401602060405180830381865afa158015612512573d5f5f3e3d5ffd5b505050506040513d601f19601f820116820180604052508101906125369190612e99565b90505f5f600c5f9054906101000a90046001600160a01b03166001600160a01b0316630902f1ac6040518163ffffffff1660e01b8152600401606060405180830381865afa15801561258a573d5f5f3e3d5ffd5b505050506040513d601f19601f820116820180604052508101906125ae9190612c8b565b50600c546040516370a0823160e01b81526001600160a01b0391821660048201526001600160701b0393841695509190921692505f918516906370a0823190602401602060405180830381865afa15801561260b573d5f5f3e3d5ffd5b505050506040513d601f19601f8201168201806040525081019061262f9190612c5e565b905082811115612662575f6126448483612e2d565b90508061265585610ada838761157a565b9650965050505050509091565b505f958695509350505050565b600c546001600160a01b03165f908152600160205260408082205430835291205461269c82610fa06115f8565b811061284f576126ab81612853565b6009546040516370a0823160e01b81523060048201525f916001600160a01b0316906370a0823190602401602060405180830381865afa1580156126f1573d5f5f3e3d5ffd5b505050506040513d601f19601f820116820180604052508101906127159190612c5e565b90506402540be400811115610edb576009546010546001600160a01b039182169163a9059cbb911661274d6001610ae08660036115f8565b6040516001600160e01b031960e085901b1681526001600160a01b03909216600483015260248201526044016020604051808303815f875af1158015612795573d5f5f3e3d5ffd5b505050506040513d601f19601f820116820180604052508101906127b99190612cd7565b506009546011546001600160a01b039182169163a9059cbb91166127e36002610ae08660036115f8565b6040516001600160e01b031960e085901b1681526001600160a01b03909216600483015260248201526044016020604051808303815f875af115801561282b573d5f5f3e3d5ffd5b505050506040513d601f19601f820116820180604052508101906115459190612cd7565b5050565b6040805160028082526060820183525f9260208301908036833701905050905030815f8151811061288657612886612d27565b6001600160a01b039283166020918202929092010152600f548251911690829060019081106128b7576128b7612d27565b6001600160a01b039283166020918202929092010152600754600b54604051635c11d79560e01b815291831692635c11d795926129029287925f928892909116904290600401612eb4565b5f604051808303815f87803b158015612919575f5ffd5b505af115801561292b573d5f5f3e3d5ffd5b50505050600b5f9054906101000a90046001600160a01b03166001600160a01b0316633ccfd60b6040518163ffffffff1660e01b81526004016020604051808303815f875af1158015612980573d5f5f3e3d5ffd5b505050506040513d601f19601f82011682018060405250810190610edb9190612cd7565b602081525f82518060208401528060208501604085015e5f604082850101526040601f19601f83011684010191505092915050565b6001600160a01b03811681146129ed575f5ffd5b50565b80356129fb816129d9565b919050565b5f5f60408385031215612a11575f5ffd5b8235612a1c816129d9565b946020939093013593505050565b5f5f5f60608486031215612a3c575f5ffd5b8335612a47816129d9565b92506020840135612a57816129d9565b929592945050506040919091013590565b5f60208284031215612a78575f5ffd5b8135610bf7816129d9565b5f60208284031215612a93575f5ffd5b5035919050565b5f5f60408385031215612aab575f5ffd5b50508035926020909101359150565b80151581146129ed575f5ffd5b80356129fb81612aba565b5f5f60408385031215612ae3575f5ffd5b8235612aee816129d9565b91506020830135612afe81612aba565b809150509250929050565b634e487b7160e01b5f52604160045260245ffd5b5f5f60408385031215612b2e575f5ffd5b823567ffffffffffffffff811115612b44575f5ffd5b8301601f81018513612b54575f5ffd5b803567ffffffffffffffff811115612b6e57612b6e612b09565b8060051b604051601f19603f830116810181811067ffffffffffffffff82111715612b9b57612b9b612b09565b604052918252602081840181019290810188841115612bb8575f5ffd5b6020850194505b83851015612bde57612bd0856129f0565b815260209485019401612bbf565b509450612bf19250505060208401612ac7565b90509250929050565b5f5f60408385031215612c0b575f5ffd5b8235612c16816129d9565b91506020830135612afe816129d9565b600181811c90821680612c3a57607f821691505b602082108103612c5857634e487b7160e01b5f52602260045260245ffd5b50919050565b5f60208284031215612c6e575f5ffd5b5051919050565b80516001600160701b03811681146129fb575f5ffd5b5f5f5f60608486031215612c9d575f5ffd5b612ca684612c75565b9250612cb460208501612c75565b9150604084015163ffffffff81168114612ccc575f5ffd5b809150509250925092565b5f60208284031215612ce7575f5ffd5b8151610bf781612aba565b6020808252818101527f4f776e61626c653a2063616c6c6572206973206e6f7420746865206f776e6572604082015260600190565b634e487b7160e01b5f52603260045260245ffd5b634e487b7160e01b5f52601160045260245ffd5b8082018082111561094857610948612d3b565b60208082526025908201527f45524332303a207472616e736665722066726f6d20746865207a65726f206164604082015264647265737360d81b606082015260800190565b60208082526023908201527f45524332303a207472616e7366657220746f20746865207a65726f206164647260408201526265737360e81b606082015260800190565b60208082526023908201527f45524332303a207472616e7366657220746f207468652073616d65206164647260408201526265737360e81b606082015260800190565b8181038181111561094857610948612d3b565b808202811582820484141761094857610948612d3b565b5f82612e7157634e487b7160e01b5f52601260045260245ffd5b500490565b602080825260099082015268737461727454696d6560b81b604082015260600190565b5f60208284031215612ea9575f5ffd5b8151610bf7816129d9565b5f60a0820187835286602084015260a0604084015280865180835260c0850191506020880192505f5b81811015612f045783516001600160a01b0316835260209384019390920191600101612edd565b50506001600160a01b03959095166060840152505060800152939250505056fe45524332303a207472616e7366657220616d6f756e7420657863656564732062616c616e636545524332303a207472616e7366657220616d6f756e74206578636565647320616c6c6f77616e636545524332303a2064656372656173656420616c6c6f77616e63652062656c6f77207a65726fa2646970667358221220a6b66435563b76694a431a446e3c04422bfac66371e2697fc03191e5e2920c9b64736f6c634300081c00336080604052348015600e575f5ffd5b5060405161022f38038061022f833981016040819052602b91604e565b5f80546001600160a01b0319166001600160a01b03929092169190911790556079565b5f60208284031215605d575f5ffd5b81516001600160a01b03811681146072575f5ffd5b9392505050565b6101a9806100865f395ff3fe608060405234801561000f575f5ffd5b5060043610610029575f3560e01c80633ccfd60b1461002d575b5f5ffd5b610035610049565b604051901515815260200160405180910390f35b5f80546040516370a0823160e01b815230600482015282916001600160a01b0316906370a0823190602401602060405180830381865afa15801561008f573d5f5f3e3d5ffd5b505050506040513d601f19601f820116820180604052508101906100b39190610136565b9050801561012e575f5460405163a9059cbb60e01b8152336004820152602481018390526001600160a01b039091169063a9059cbb906044016020604051808303815f875af1158015610108573d5f5f3e3d5ffd5b505050506040513d601f19601f8201168201806040525081019061012c919061014d565b505b600191505090565b5f60208284031215610146575f5ffd5b5051919050565b5f6020828403121561015d575f5ffd5b8151801515811461016c575f5ffd5b939250505056fea2646970667358221220f55a608b630ab2bddfcc3258790eb90986349be380c6167b8975ccda3c8f4a4464736f6c634300081c0033","linkReferences":{}},"methodIdentifiers":{"_isExcludedFromFees(address)":"e0bf7fd1","_isPairs(address)":"8982503d","_userMintEndTime(address)":"4a21f0da","_userMintOverAmount(address)":"c6b2ea50","_userMintSpeed(address)":"e72583e5","_userMintStartTime(address)":"8a06d206","_userMintTotalAmount(address)":"a8a908be","_userShareMintNumber(address)":"f4240394","addOtherPair(address,bool)":"744a1c22","allowance(address,address)":"dd62ed3e","approve(address,uint256)":"095ea7b3","balanceOf(address)":"70a08231","buyFee()":"47062402","changeSwapFee(uint256,uint256)":"5e06b2ec","decimals()":"313ce567","decreaseAllowance(address,uint256)":"a457c2d7","excludeFromFees(address,bool)":"c0246668","excludeFromFeesUsers(address[],bool)":"a5115a3a","getLpBalanceByUsdt(uint256)":"2ea12a6b","getUserMintAmount(address)":"713310f8","getUserMintShareRewardLevel(address)":"a66a9590","increaseAllowance(address,uint256)":"39509351","isMint()":"33b3f944","name()":"06fdde03","owner()":"8da5cb5b","perparInviter(address)":"23ee7b75","renounceOwnership()":"715018a6","rescueToken(address,uint256)":"33f3d628","reward()":"228cb733","sellFee()":"2b14ca56","setExcludedFromFeesVip(address,bool)":"ec6e62ac","setStartTime(uint256)":"3e0a322d","startTime()":"78e97925","symbol()":"95d89b41","totalSupply()":"18160ddd","transfer(address,uint256)":"a9059cbb","transferFrom(address,address,uint256)":"23b872dd","transferOwnership(address)":"f2fde38b","uniswapV2Pair()":"49bd5a5e","userMintToken()":"2c6975df"},"id":48}