{"abi":[{"type":"receive","stateMutability":"payable"},{"type":"function","name":"MIN_STAKE","inputs":[],"outputs":[{"name":"","type":"uint256","internalType":"uint256"}],"stateMutability":"view"},{"type":"function","name":"UPGRADE_INTERFACE_VERSION","inputs":[],"outputs":[{"name":"","type":"string","internalType":"string"}],"stateMutability":"view"},{"type":"function","name":"admin","inputs":[],"outputs":[{"name":"","type":"address","internalType":"address"}],"stateMutability":"view"},{"type":"function","name":"agiToken","inputs":[],"outputs":[{"name":"","type":"address","internalType":"address"}],"stateMutability":"view"},{"type":"function","name":"aniToken","inputs":[],"outputs":[{"name":"","type":"address","internalType":"address"}],"stateMutability":"view"},{"type":"function","name":"claimEarnings","inputs":[{"name":"orderId","type":"uint256","internalType":"uint256"}],"outputs":[],"stateMutability":"nonpayable"},{"type":"function","name":"emergencyWithdraw","inputs":[],"outputs":[],"stateMutability":"nonpayable"},{"type":"function","name":"emergencyWithdrawToken","inputs":[{"name":"token","type":"address","internalType":"address"},{"name":"amount","type":"uint256","internalType":"uint256"}],"outputs":[],"stateMutability":"nonpayable"},{"type":"function","name":"getActiveOrderIndexes","inputs":[{"name":"user","type":"address","internalType":"address"}],"outputs":[{"name":"","type":"uint256[]","internalType":"uint256[]"}],"stateMutability":"view"},{"type":"function","name":"getOrderCountdown","inputs":[{"name":"orderId","type":"uint256","internalType":"uint256"}],"outputs":[{"name":"","type":"uint256","internalType":"uint256"}],"stateMutability":"view"},{"type":"function","name":"getOrderPending","inputs":[{"name":"orderId","type":"uint256","internalType":"uint256"}],"outputs":[{"name":"","type":"uint256","internalType":"uint256"}],"stateMutability":"view"},{"type":"function","name":"getUserActiveStakedAmount","inputs":[{"name":"user","type":"address","internalType":"address"}],"outputs":[{"name":"","type":"uint256","internalType":"uint256"}],"stateMutability":"view"},{"type":"function","name":"getUserPending","inputs":[{"name":"user","type":"address","internalType":"address"}],"outputs":[{"name":"","type":"uint256","internalType":"uint256"}],"stateMutability":"view"},{"type":"function","name":"initialize","inputs":[{"name":"_aniToken","type":"address","internalType":"address"},{"name":"_agiToken","type":"address","internalType":"address"},{"name":"_admin","type":"address","internalType":"address"}],"outputs":[],"stateMutability":"nonpayable"},{"type":"function","name":"nextOrderId","inputs":[],"outputs":[{"name":"","type":"uint256","internalType":"uint256"}],"stateMutability":"view"},{"type":"function","name":"owner","inputs":[],"outputs":[{"name":"","type":"address","internalType":"address"}],"stateMutability":"view"},{"type":"function","name":"perTokenPerSecondFP","inputs":[{"name":"","type":"uint8","internalType":"enum Staking.Period"}],"outputs":[{"name":"","type":"uint256","internalType":"uint256"}],"stateMutability":"view"},{"type":"function","name":"periodSeconds","inputs":[{"name":"","type":"uint8","internalType":"enum Staking.Period"}],"outputs":[{"name":"","type":"uint256","internalType":"uint256"}],"stateMutability":"view"},{"type":"function","name":"proxiableUUID","inputs":[],"outputs":[{"name":"","type":"bytes32","internalType":"bytes32"}],"stateMutability":"view"},{"type":"function","name":"renounceOwnership","inputs":[],"outputs":[],"stateMutability":"nonpayable"},{"type":"function","name":"stake","inputs":[{"name":"amount","type":"uint256","internalType":"uint256"},{"name":"period","type":"uint8","internalType":"enum Staking.Period"}],"outputs":[],"stateMutability":"nonpayable"},{"type":"function","name":"stakingOrderInfo","inputs":[{"name":"","type":"uint256","internalType":"uint256"}],"outputs":[{"name":"holder","type":"address","internalType":"address"},{"name":"aniAmount","type":"uint256","internalType":"uint256"},{"name":"stakingTime","type":"uint256","internalType":"uint256"},{"name":"withdrawnEarnings","type":"uint256","internalType":"uint256"},{"name":"period","type":"uint8","internalType":"enum Staking.Period"},{"name":"extracted","type":"bool","internalType":"bool"}],"stateMutability":"view"},{"type":"function","name":"stakingOrdersIds","inputs":[{"name":"","type":"address","internalType":"address"},{"name":"","type":"uint256","internalType":"uint256"}],"outputs":[{"name":"","type":"uint256","internalType":"uint256"}],"stateMutability":"view"},{"type":"function","name":"transferOwnership","inputs":[{"name":"newOwner","type":"address","internalType":"address"}],"outputs":[],"stateMutability":"nonpayable"},{"type":"function","name":"upgradeToAndCall","inputs":[{"name":"newImplementation","type":"address","internalType":"address"},{"name":"data","type":"bytes","internalType":"bytes"}],"outputs":[],"stateMutability":"payable"},{"type":"function","name":"withdraw","inputs":[{"name":"orderId","type":"uint256","internalType":"uint256"}],"outputs":[],"stateMutability":"nonpayable"},{"type":"event","name":"Claimed","inputs":[{"name":"user","type":"address","indexed":true,"internalType":"address"},{"name":"orderId","type":"uint256","indexed":true,"internalType":"uint256"},{"name":"amount","type":"uint256","indexed":false,"internalType":"uint256"}],"anonymous":false},{"type":"event","name":"Initialized","inputs":[{"name":"version","type":"uint64","indexed":false,"internalType":"uint64"}],"anonymous":false},{"type":"event","name":"OwnershipTransferred","inputs":[{"name":"previousOwner","type":"address","indexed":true,"internalType":"address"},{"name":"newOwner","type":"address","indexed":true,"internalType":"address"}],"anonymous":false},{"type":"event","name":"Staked","inputs":[{"name":"user","type":"address","indexed":true,"internalType":"address"},{"name":"orderId","type":"uint256","indexed":true,"internalType":"uint256"},{"name":"amount","type":"uint256","indexed":false,"internalType":"uint256"},{"name":"period","type":"uint8","indexed":false,"internalType":"enum Staking.Period"}],"anonymous":false},{"type":"event","name":"Upgraded","inputs":[{"name":"implementation","type":"address","indexed":true,"internalType":"address"}],"anonymous":false},{"type":"event","name":"Withdrawn","inputs":[{"name":"user","type":"address","indexed":true,"internalType":"address"},{"name":"orderId","type":"uint256","indexed":true,"internalType":"uint256"},{"name":"principalAmount","type":"uint256","indexed":false,"internalType":"uint256"}],"anonymous":false},{"type":"error","name":"AddressEmptyCode","inputs":[{"name":"target","type":"address","internalType":"address"}]},{"type":"error","name":"ERC1967InvalidImplementation","inputs":[{"name":"implementation","type":"address","internalType":"address"}]},{"type":"error","name":"ERC1967NonPayable","inputs":[]},{"type":"error","name":"FailedCall","inputs":[]},{"type":"error","name":"InvalidInitialization","inputs":[]},{"type":"error","name":"NotInitializing","inputs":[]},{"type":"error","name":"OwnableInvalidOwner","inputs":[{"name":"owner","type":"address","internalType":"address"}]},{"type":"error","name":"OwnableUnauthorizedAccount","inputs":[{"name":"account","type":"address","internalType":"address"}]},{"type":"error","name":"ReentrancyGuardReentrantCall","inputs":[]},{"type":"error","name":"UUPSUnauthorizedCallContext","inputs":[]},{"type":"error","name":"UUPSUnsupportedProxiableUUID","inputs":[{"name":"slot","type":"bytes32","internalType":"bytes32"}]}],"bytecode":{"object":"0x60a0604052306080523480156012575f5ffd5b5060015f556080516120a961003d5f395f81816117da01528181611803015261194701526120a95ff3fe60806040526004361061017e575f3560e01c806374d26e12116100cd578063bb8498cf11610087578063db2e21bc11610062578063db2e21bc146104d8578063df28e8a3146104ec578063f2fde38b14610517578063f851a44014610536575f5ffd5b8063bb8498cf1461042b578063c0c53b8b1461049c578063cb1c2b5c146104bb575f5ffd5b806374d26e12146103365780638b2ecc19146103555780638da5cb5b14610374578063958404fb146103b0578063a4c3b091146103cf578063ad3cb1cc146103ee575f5ffd5b80634f1ef28611610138578063658bb54311610113578063658bb543146102945780636d7022ba146102cb5780636eb4030c146102f6578063715018a614610322575f5ffd5b80634f1ef2861461024e57806352d1902d1461026157806355a1883a14610275575f5ffd5b806310087fb114610189578063123cf5d6146101aa5780631477b0f2146101dc57806324b1babf146101fb5780632a58b3301461021a5780632e1a7d4d1461022f575f5ffd5b3661018557005b5f5ffd5b348015610194575f5ffd5b506101a86101a3366004611ca9565b610555565b005b3480156101b5575f5ffd5b506101c96101c4366004611ce9565b6107af565b6040519081526020015b60405180910390f35b3480156101e7575f5ffd5b506101c96101f6366004611ce9565b610839565b348015610206575f5ffd5b506101a8610215366004611d02565b610893565b348015610225575f5ffd5b506101c960075481565b34801561023a575f5ffd5b506101a8610249366004611d02565b6109c5565b6101a861025c366004611d2d565b610c1f565b34801561026c575f5ffd5b506101c9610c3a565b348015610280575f5ffd5b506101c961028f366004611d02565b610c55565b34801561029f575f5ffd5b506006546102b3906001600160a01b031681565b6040516001600160a01b0390911681526020016101d3565b3480156102d6575f5ffd5b506101c96102e5366004611df1565b60046020525f908152604090205481565b348015610301575f5ffd5b50610315610310366004611ce9565b610cd3565b6040516101d39190611e0a565b34801561032d575f5ffd5b506101a8610e21565b348015610341575f5ffd5b506101c9610350366004611e41565b610e34565b348015610360575f5ffd5b506005546102b3906001600160a01b031681565b34801561037f575f5ffd5b507f9016d09d72d40fdae2fd8ceac6b6234c7706214fd39c1cd1e609a0528c199300546001600160a01b03166102b3565b3480156103bb575f5ffd5b506101c96103ca366004611d02565b610e5f565b3480156103da575f5ffd5b506101a86103e9366004611e41565b610e6f565b3480156103f9575f5ffd5b5061041e604051806040016040528060058152602001640352e302e360dc1b81525081565b6040516101d39190611e69565b348015610436575f5ffd5b5061048a610445366004611d02565b600160208190525f9182526040909120805491810154600282015460038301546004909301546001600160a01b03909416939192909160ff8082169161010090041686565b6040516101d396959493929190611ed2565b3480156104a7575f5ffd5b506101a86104b6366004611f17565b610ed1565b3480156104c6575f5ffd5b506101c969021e19e0c9bab240000081565b3480156104e3575f5ffd5b506101a861126b565b3480156104f7575f5ffd5b506101c9610506366004611df1565b60036020525f908152604090205481565b348015610522575f5ffd5b506101a8610531366004611ce9565b6113d9565b348015610541575f5ffd5b506008546102b3906001600160a01b031681565b61055d611413565b69021e19e0c9bab24000008210156105bc5760405162461bcd60e51b815260206004820152601860248201527f7374616b65206174206c6561737420313030303020414e49000000000000000060448201526064015b60405180910390fd5b60045f8260058111156105d1576105d1611e9e565b60058111156105e2576105e2611e9e565b81526020019081526020015f20545f0361062f5760405162461bcd60e51b815260206004820152600e60248201526d1a5b9d985b1a59081c195c9a5bd960921b60448201526064016105b3565b600554610647906001600160a01b031633308561143b565b5f60075490506040518060c00160405280336001600160a01b031681526020018481526020014281526020015f815260200183600581111561068b5761068b611e9e565b81525f60209182018190528381526001808352604091829020845181546001600160a01b0319166001600160a01b0390911617815592840151838201559083015160028301556060830151600383015560808301516004830180549192909160ff19169083600581111561070157610701611e9e565b021790555060a09190910151600490910180549115156101000261ff0019909216919091179055335f9081526002602090815260408220805460018101825590835290822001829055600780549161075883611f6b565b919050555080336001600160a01b03167f11046f741396910185536955c79ec22a76d04229d188bc13962f8331b81008a98585604051610799929190611f83565b60405180910390a3506107ab60015f55565b5050565b6001600160a01b0381165f90815260026020526040812081805b8254811015610831575f60015f8584815481106107e8576107e8611f97565b905f5260205f20015481526020019081526020015f2090508060040160019054906101000a900460ff166108285760018101546108259084611fab565b92505b506001016107c9565b509392505050565b6001600160a01b0381165f90815260026020526040812081805b82548110156108315761087f83828154811061087157610871611f97565b905f5260205f200154611566565b6108899083611fab565b9150600101610853565b61089b611413565b5f8181526001602052604090205481906001600160a01b031633146108f45760405162461bcd60e51b815260206004820152600f60248201526e3737ba1037b93232b91037bbb732b960891b60448201526064016105b3565b5f6108fe83611566565b90505f81116109445760405162461bcd60e51b81526020600482015260126024820152716e6f2070656e64696e67207265776172647360701b60448201526064016105b3565b5f8381526001602052604081206003018054839290610964908490611fab565b9091555050600654610980906001600160a01b031633836116b9565b604051818152839033907f987d620f307ff6b94d58743cb7a7509f24071586a77759b77c2d4e29f75a2f9a9060200160405180910390a350506109c260015f55565b50565b6109cd611413565b5f8181526001602052604090205481906001600160a01b03163314610a265760405162461bcd60e51b815260206004820152600f60248201526e3737ba1037b93232b91037bbb732b960891b60448201526064016105b3565b5f8281526001602052604090206004810154610100900460ff1615610a815760405162461bcd60e51b815260206004820152601160248201527030b63932b0b23c903bb4ba34323930bbb760791b60448201526064016105b3565b6004818101545f9190829060ff166005811115610aa057610aa0611e9e565b6005811115610ab157610ab1611e9e565b81526020019081526020015f20548260020154610ace9190611fab565b905080421015610b125760405162461bcd60e51b815260206004820152600f60248201526e1b9bdd081b585d1d5c9959081e595d608a1b60448201526064016105b3565b5f610b1c85611566565b90508015610b9a5780836003015f828254610b379190611fab565b90915550506006548354610b58916001600160a01b039081169116836116b9565b825460405182815286916001600160a01b0316907f987d620f307ff6b94d58743cb7a7509f24071586a77759b77c2d4e29f75a2f9a9060200160405180910390a35b60048301805461ff00191661010017905560055483546001850154610bcc926001600160a01b039081169216906116b9565b8254600184015460405190815286916001600160a01b0316907f92ccf450a286a957af52509bc1c9939d1a6a481783e142e41e2499f0bb66ebc69060200160405180910390a3505050506109c260015f55565b610c276117cf565b610c3082611873565b6107ab828261187b565b5f610c4361193c565b505f5160206120545f395f51905f5290565b5f818152600160205260408120600480820154839190829060ff166005811115610c8157610c81611e9e565b6005811115610c9257610c92611e9e565b81526020019081526020015f20548260020154610caf9190611fab565b9050804210610cc157505f9392505050565b610ccb4282611fbe565b949350505050565b6001600160a01b0381165f908152600260205260408120606091805b8254811015610d4e5760015f848381548110610d0d57610d0d611f97565b905f5260205f20015481526020019081526020015f2060040160019054906101000a900460ff16610d465781610d4281611f6b565b9250505b600101610cef565b505f8167ffffffffffffffff811115610d6957610d69611d19565b604051908082528060200260200182016040528015610d92578160200160208202803683370190505b5090505f805b8454811015610e16575f858281548110610db457610db4611f97565b5f918252602080832090910154808352600190915260409091206004015490915060ff61010090910416610e0d57808484610dee81611f6b565b955081518110610e0057610e00611f97565b6020026020010181815250505b50600101610d98565b509095945050505050565b610e29611985565b610e325f6119e0565b565b6002602052815f5260405f208181548110610e4d575f80fd5b905f5260205f20015f91509150505481565b5f610e6982611566565b92915050565b610e77611413565b6008546001600160a01b03163314610ebd5760405162461bcd60e51b81526020600482015260096024820152683737ba1030b236b4b760b91b60448201526064016105b3565b610ec88233836116b9565b6107ab60015f55565b5f610eda611a50565b805490915060ff600160401b820416159067ffffffffffffffff165f81158015610f015750825b90505f8267ffffffffffffffff166001148015610f1d5750303b155b905081158015610f2b575080155b15610f495760405163f92ee8a960e01b815260040160405180910390fd5b845467ffffffffffffffff191660011785558315610f7357845460ff60401b1916600160401b1785555b610f7c33611a78565b610f84611a80565b600580546001600160a01b038a81166001600160a01b0319928316178355600680548b831690841617905560088054918a169190921617905560016007556004602052620151807fabd6e7cb50984ff9c2f3e18a2660c3353dadf4e3291deeb275dae2cd1e44fe0581905562093a807f91da3fd0782e51c6b3986e9e672fd566868e71f3dbc2d6c2cd6fbb3e361af2a75562278d007f2e174c10e159ea99b867ce3205125c24a42d128804e4070ed6fcc8cc98166aa0556276a7007f1a1e6821cde7d0159c0d293177871e09677b4e42307c7db3ba94f8648a5a050f555f919091526301e133807f04cde762ef08b6b6c5ded8e8c4c0b3f4e5c9ad7342c88fcc93681b4588b73f055567016345785d8a000090670186cc6acd4b000090670214e8348c4f0000906702c68af0bb140000906704db732547630000906110cb61271087611fd1565b6110d59190611fd1565b60015f5260036020527fa15bc60c955c405d20d9149c709e2460f1c2d9a497496a7f46004d1772c3054c556201518061111061271086611fd1565b61111a9190611fd1565b60025f5260036020527fc3a24b0501bd2c13a7e57f2db4369ec4c223447539fc0724a9d55ac4a06ebd4d556201518061115561271085611fd1565b61115f9190611fd1565b60035f8190526020527fcbc4e5fb02c3d1de23a9f1e014b4d2ee5aeaea9505df5e855c9210bf472495af556201518061119a61271084611fd1565b6111a49190611fd1565b60045f5260036020527f83ec6a1f0257b830b5e016457c9cf1435391bf56cc98f369a58a54fe9377246555620151806111df61271083611fd1565b6111e99190611fd1565b60055f5260036020527f405aad32e1adbac89bb7f176e338b8fc6e994ca210c9bb7bdca249b4659422505550508615925061126191505057845460ff60401b19168555604051600181527fc7f505b2f371ae2175ee4913f4499e1f2633a7b5936321eed1cdaeb6115181d29060200160405180910390a15b5050505050505050565b611273611413565b6008546001600160a01b031633146112b95760405162461bcd60e51b81526020600482015260096024820152683737ba1030b236b4b760b91b60448201526064016105b3565b6005546040516370a0823160e01b81523060048201525f916001600160a01b0316906370a0823190602401602060405180830381865afa1580156112ff573d5f5f3e3d5ffd5b505050506040513d601f19601f820116820180604052508101906113239190611ff0565b6006546040516370a0823160e01b81523060048201529192505f916001600160a01b03909116906370a0823190602401602060405180830381865afa15801561136e573d5f5f3e3d5ffd5b505050506040513d601f19601f820116820180604052508101906113929190611ff0565b905081156113b1576005546113b1906001600160a01b031633846116b9565b80156113ce576006546113ce906001600160a01b031633836116b9565b5050610e3260015f55565b6113e1611985565b6001600160a01b03811661140a57604051631e4fbdf760e01b81525f60048201526024016105b3565b6109c2816119e0565b60025f540361143557604051633ee5aeb560e01b815260040160405180910390fd5b60025f55565b604080516001600160a01b0385811660248301528481166044830152606480830185905283518084039091018152608490920183526020820180516001600160e01b03166323b872dd60e01b17905291515f9283929088169161149e9190612007565b5f604051808303815f865af19150503d805f81146114d7576040519150601f19603f3d011682016040523d82523d5f602084013e6114dc565b606091505b5091509150818015611506575080511580611506575080806020019051810190611506919061201d565b61155e5760405162461bcd60e51b8152602060048201526024808201527f5472616e7366657248656c7065723a205452414e534645525f46524f4d5f46416044820152631253115160e21b60648201526084016105b3565b505050505050565b5f818152600160208190526040822090810154820361158757505f92915050565b60028101546004808301545f9190829060ff1660058111156115ab576115ab611e9e565b60058111156115bc576115bc611e9e565b81526020019081526020015f205490505f81836115d99190611fab565b90508242828111156115e85750815b8181116115fc57505f979650505050505050565b5f6116078383611fbe565b60048801549091505f90600390829060ff16600581111561162a5761162a611e9e565b600581111561163b5761163b611e9e565b81526020019081526020015f205490505f670de0b6b3a7640000828a60010154611665919061203c565b61166f9190611fd1565b90505f61167c848361203c565b90508960030154811161169a57505f9b9a5050505050505050505050565b60038a01546116a99082611fbe565b9c9b505050505050505050505050565b604080516001600160a01b038481166024830152604480830185905283518084039091018152606490920183526020820180516001600160e01b031663a9059cbb60e01b17905291515f928392908716916117149190612007565b5f604051808303815f865af19150503d805f811461174d576040519150601f19603f3d011682016040523d82523d5f602084013e611752565b606091505b509150915081801561177c57508051158061177c57508080602001905181019061177c919061201d565b6117c85760405162461bcd60e51b815260206004820152601f60248201527f5472616e7366657248656c7065723a205452414e534645525f4641494c45440060448201526064016105b3565b5050505050565b306001600160a01b037f000000000000000000000000000000000000000000000000000000000000000016148061185557507f00000000000000000000000000000000000000000000000000000000000000006001600160a01b03166118495f5160206120545f395f51905f52546001600160a01b031690565b6001600160a01b031614155b15610e325760405163703e46dd60e11b815260040160405180910390fd5b6109c2611985565b816001600160a01b03166352d1902d6040518163ffffffff1660e01b8152600401602060405180830381865afa9250505080156118d5575060408051601f3d908101601f191682019092526118d291810190611ff0565b60015b6118fd57604051634c9c8ce360e01b81526001600160a01b03831660048201526024016105b3565b5f5160206120545f395f51905f52811461192d57604051632a87526960e21b8152600481018290526024016105b3565b6119378383611a88565b505050565b306001600160a01b037f00000000000000000000000000000000000000000000000000000000000000001614610e325760405163703e46dd60e11b815260040160405180910390fd5b336119b77f9016d09d72d40fdae2fd8ceac6b6234c7706214fd39c1cd1e609a0528c199300546001600160a01b031690565b6001600160a01b031614610e325760405163118cdaa760e01b81523360048201526024016105b3565b7f9016d09d72d40fdae2fd8ceac6b6234c7706214fd39c1cd1e609a0528c19930080546001600160a01b031981166001600160a01b03848116918217845560405192169182907f8be0079c531659141344cd1fd0a4f28419497f9722a3daafe3b4186f6b6457e0905f90a3505050565b5f807ff0c57e16840df040f15088dc2f81fe391c3923bec73e23a9662efc9c229c6a00610e69565b6113e1611add565b610e32611add565b611a9182611b02565b6040516001600160a01b038316907fbc7cd75a20ee27fd9adebab32041f755214dbc6bffa90cc0225b39da2e5c2d3b905f90a2805115611ad5576119378282611b65565b6107ab611bd7565b611ae5611bf6565b610e3257604051631afcd79f60e31b815260040160405180910390fd5b806001600160a01b03163b5f03611b3757604051634c9c8ce360e01b81526001600160a01b03821660048201526024016105b3565b5f5160206120545f395f51905f5280546001600160a01b0319166001600160a01b0392909216919091179055565b60605f5f846001600160a01b031684604051611b819190612007565b5f60405180830381855af49150503d805f8114611bb9576040519150601f19603f3d011682016040523d82523d5f602084013e611bbe565b606091505b5091509150611bce858383611c0f565b95945050505050565b3415610e325760405163b398979f60e01b815260040160405180910390fd5b5f611bff611a50565b54600160401b900460ff16919050565b606082611c2457611c1f82611c6e565b611c67565b8151158015611c3b57506001600160a01b0384163b155b15611c6457604051639996b31560e01b81526001600160a01b03851660048201526024016105b3565b50805b9392505050565b805115611c7d57805160208201fd5b60405163d6bda27560e01b815260040160405180910390fd5b803560068110611ca4575f5ffd5b919050565b5f5f60408385031215611cba575f5ffd5b82359150611cca60208401611c96565b90509250929050565b80356001600160a01b0381168114611ca4575f5ffd5b5f60208284031215611cf9575f5ffd5b611c6782611cd3565b5f60208284031215611d12575f5ffd5b5035919050565b634e487b7160e01b5f52604160045260245ffd5b5f5f60408385031215611d3e575f5ffd5b611d4783611cd3565b9150602083013567ffffffffffffffff811115611d62575f5ffd5b8301601f81018513611d72575f5ffd5b803567ffffffffffffffff811115611d8c57611d8c611d19565b604051601f8201601f19908116603f0116810167ffffffffffffffff81118282101715611dbb57611dbb611d19565b604052818152828201602001871015611dd2575f5ffd5b816020840160208301375f602083830101528093505050509250929050565b5f60208284031215611e01575f5ffd5b611c6782611c96565b602080825282518282018190525f918401906040840190835b81811015610e16578351835260209384019390920191600101611e23565b5f5f60408385031215611e52575f5ffd5b611e5b83611cd3565b946020939093013593505050565b602081525f82518060208401528060208501604085015e5f604082850101526040601f19601f83011684010191505092915050565b634e487b7160e01b5f52602160045260245ffd5b60068110611ece57634e487b7160e01b5f52602160045260245ffd5b9052565b6001600160a01b038716815260208101869052604081018590526060810184905260c08101611f046080830185611eb2565b82151560a0830152979650505050505050565b5f5f5f60608486031215611f29575f5ffd5b611f3284611cd3565b9250611f4060208501611cd3565b9150611f4e60408501611cd3565b90509250925092565b634e487b7160e01b5f52601160045260245ffd5b5f60018201611f7c57611f7c611f57565b5060010190565b82815260408101611c676020830184611eb2565b634e487b7160e01b5f52603260045260245ffd5b80820180821115610e6957610e69611f57565b81810381811115610e6957610e69611f57565b5f82611feb57634e487b7160e01b5f52601260045260245ffd5b500490565b5f60208284031215612000575f5ffd5b5051919050565b5f82518060208501845e5f920191825250919050565b5f6020828403121561202d575f5ffd5b81518015158114611c67575f5ffd5b8082028115828204841417610e6957610e69611f5756fe360894a13ba1a3210667c828492db98dca3e2076cc3735a920a3ca505d382bbca2646970667358221220cfe261915eaa557dc0de3142beec303290cf86db4b3cc25b65b845f199a93fad64736f6c634300081c0033","linkReferences":{}},"methodIdentifiers":{"MIN_STAKE()":"cb1c2b5c","UPGRADE_INTERFACE_VERSION()":"ad3cb1cc","admin()":"f851a440","agiToken()":"658bb543","aniToken()":"8b2ecc19","claimEarnings(uint256)":"24b1babf","emergencyWithdraw()":"db2e21bc","emergencyWithdrawToken(address,uint256)":"a4c3b091","getActiveOrderIndexes(address)":"6eb4030c","getOrderCountdown(uint256)":"55a1883a","getOrderPending(uint256)":"958404fb","getUserActiveStakedAmount(address)":"123cf5d6","getUserPending(address)":"1477b0f2","initialize(address,address,address)":"c0c53b8b","nextOrderId()":"2a58b330","owner()":"8da5cb5b","perTokenPerSecondFP(uint8)":"df28e8a3","periodSeconds(uint8)":"6d7022ba","proxiableUUID()":"52d1902d","renounceOwnership()":"715018a6","stake(uint256,uint8)":"10087fb1","stakingOrderInfo(uint256)":"bb8498cf","stakingOrdersIds(address,uint256)":"74d26e12","transferOwnership(address)":"f2fde38b","upgradeToAndCall(address,bytes)":"4f1ef286","withdraw(uint256)":"2e1a7d4d"},"id":36}