{"abi":[{"type":"function","name":"BASE","inputs":[],"outputs":[{"name":"","type":"uint256","internalType":"uint256"}],"stateMutability":"view"},{"type":"function","name":"DEAD","inputs":[],"outputs":[{"name":"","type":"address","internalType":"address"}],"stateMutability":"view"},{"type":"function","name":"REWARD_RATE","inputs":[],"outputs":[{"name":"","type":"uint256","internalType":"uint256"}],"stateMutability":"view"},{"type":"function","name":"STAKE_PERIOD","inputs":[],"outputs":[{"name":"","type":"uint256","internalType":"uint256"}],"stateMutability":"view"},{"type":"function","name":"UPGRADE_INTERFACE_VERSION","inputs":[],"outputs":[{"name":"","type":"string","internalType":"string"}],"stateMutability":"view"},{"type":"function","name":"USDT","inputs":[],"outputs":[{"name":"","type":"address","internalType":"address"}],"stateMutability":"view"},{"type":"function","name":"award","inputs":[{"name":"","type":"address","internalType":"address"}],"outputs":[{"name":"","type":"uint256","internalType":"uint256"}],"stateMutability":"view"},{"type":"function","name":"bindInviter","inputs":[{"name":"_inviter","type":"address","internalType":"address"}],"outputs":[],"stateMutability":"nonpayable"},{"type":"function","name":"claimAward","inputs":[{"name":"amount","type":"uint256","internalType":"uint256"}],"outputs":[],"stateMutability":"nonpayable"},{"type":"function","name":"claimOrder","inputs":[{"name":"orderIndex","type":"uint256","internalType":"uint256"}],"outputs":[],"stateMutability":"nonpayable"},{"type":"function","name":"getAmountOut","inputs":[{"name":"token0","type":"address","internalType":"address"},{"name":"token1","type":"address","internalType":"address"},{"name":"token0Amount","type":"uint256","internalType":"uint256"}],"outputs":[{"name":"","type":"uint256","internalType":"uint256"}],"stateMutability":"view"},{"type":"function","name":"getOrderCountdown","inputs":[{"name":"orderIndex","type":"uint256","internalType":"uint256"}],"outputs":[{"name":"","type":"uint256","internalType":"uint256"}],"stateMutability":"view"},{"type":"function","name":"getOrderRealTimeYield","inputs":[{"name":"orderIndex","type":"uint256","internalType":"uint256"}],"outputs":[{"name":"","type":"uint256","internalType":"uint256"}],"stateMutability":"view"},{"type":"function","name":"getQuoteAmount","inputs":[{"name":"amountToken","type":"uint256","internalType":"uint256"}],"outputs":[{"name":"amountUsdt","type":"uint256","internalType":"uint256"}],"stateMutability":"view"},{"type":"function","name":"getUserInfo","inputs":[{"name":"_user","type":"address","internalType":"address"}],"outputs":[{"name":"_inviter","type":"address","internalType":"address"},{"name":"_award","type":"uint256","internalType":"uint256"},{"name":"_usdtValue","type":"uint256","internalType":"uint256"},{"name":"_level","type":"uint8","internalType":"enum IMiningV1.Level"},{"name":"_validOrderIndexes","type":"uint256[]","internalType":"uint256[]"},{"name":"_orderIndexes","type":"uint256[]","internalType":"uint256[]"},{"name":"_invitees","type":"address[]","internalType":"address[]"},{"name":"_awardRecords","type":"tuple[]","internalType":"struct IMiningV1.AwardRecord[]","components":[{"name":"invitee","type":"address","internalType":"address"},{"name":"stakingAmount","type":"uint256","internalType":"uint256"},{"name":"awardAmount","type":"uint256","internalType":"uint256"},{"name":"awardTime","type":"uint256","internalType":"uint256"},{"name":"isLevelAward","type":"bool","internalType":"bool"}]}],"stateMutability":"view"},{"type":"function","name":"getUserRealTimeYield","inputs":[{"name":"userAddr","type":"address","internalType":"address"}],"outputs":[{"name":"total","type":"uint256","internalType":"uint256"}],"stateMutability":"view"},{"type":"function","name":"getUserValidStakingAmount","inputs":[{"name":"userAddr","type":"address","internalType":"address"}],"outputs":[{"name":"totalAmount","type":"uint256","internalType":"uint256"}],"stateMutability":"view"},{"type":"function","name":"getUserValidStakingAmountForUsdt","inputs":[{"name":"userAddr","type":"address","internalType":"address"}],"outputs":[{"name":"totalUsdt","type":"uint256","internalType":"uint256"}],"stateMutability":"view"},{"type":"function","name":"getValidOrderIndexes","inputs":[{"name":"_user","type":"address","internalType":"address"}],"outputs":[{"name":"","type":"uint256[]","internalType":"uint256[]"}],"stateMutability":"view"},{"type":"function","name":"index","inputs":[],"outputs":[{"name":"","type":"uint256","internalType":"uint256"}],"stateMutability":"view"},{"type":"function","name":"initialize","inputs":[{"name":"_token","type":"address","internalType":"address"},{"name":"_lp","type":"address","internalType":"address"}],"outputs":[],"stateMutability":"nonpayable"},{"type":"function","name":"invitePerformance","inputs":[{"name":"","type":"address","internalType":"address"}],"outputs":[{"name":"","type":"uint256","internalType":"uint256"}],"stateMutability":"view"},{"type":"function","name":"inviter","inputs":[{"name":"","type":"address","internalType":"address"}],"outputs":[{"name":"","type":"address","internalType":"address"}],"stateMutability":"view"},{"type":"function","name":"level","inputs":[{"name":"","type":"address","internalType":"address"}],"outputs":[{"name":"","type":"uint8","internalType":"enum IMiningV1.Level"}],"stateMutability":"view"},{"type":"function","name":"liquidityAmount","inputs":[{"name":"","type":"address","internalType":"address"}],"outputs":[{"name":"","type":"uint256","internalType":"uint256"}],"stateMutability":"view"},{"type":"function","name":"lp","inputs":[],"outputs":[{"name":"","type":"address","internalType":"address"}],"stateMutability":"view"},{"type":"function","name":"owner","inputs":[],"outputs":[{"name":"","type":"address","internalType":"address"}],"stateMutability":"view"},{"type":"function","name":"proxiableUUID","inputs":[],"outputs":[{"name":"","type":"bytes32","internalType":"bytes32"}],"stateMutability":"view"},{"type":"function","name":"renounceOwnership","inputs":[],"outputs":[],"stateMutability":"nonpayable"},{"type":"function","name":"setConfig","inputs":[{"name":"_token","type":"address","internalType":"address"},{"name":"_lp","type":"address","internalType":"address"}],"outputs":[],"stateMutability":"nonpayable"},{"type":"function","name":"staking","inputs":[{"name":"amountToken","type":"uint256","internalType":"uint256"}],"outputs":[],"stateMutability":"nonpayable"},{"type":"function","name":"stakingOrderInfo","inputs":[{"name":"","type":"uint256","internalType":"uint256"}],"outputs":[{"name":"holder","type":"address","internalType":"address"},{"name":"amount","type":"uint256","internalType":"uint256"},{"name":"stakingTime","type":"uint256","internalType":"uint256"},{"name":"isExtracted","type":"bool","internalType":"bool"}],"stateMutability":"view"},{"type":"function","name":"stakingOrders","inputs":[{"name":"","type":"uint256","internalType":"uint256"}],"outputs":[{"name":"holder","type":"address","internalType":"address"},{"name":"amount","type":"uint256","internalType":"uint256"},{"name":"stakingTime","type":"uint256","internalType":"uint256"},{"name":"isExtracted","type":"bool","internalType":"bool"}],"stateMutability":"view"},{"type":"function","name":"token","inputs":[],"outputs":[{"name":"","type":"address","internalType":"address"}],"stateMutability":"view"},{"type":"function","name":"transferOwnership","inputs":[{"name":"newOwner","type":"address","internalType":"address"}],"outputs":[],"stateMutability":"nonpayable"},{"type":"function","name":"uniswapV2Factory","inputs":[],"outputs":[{"name":"","type":"address","internalType":"address"}],"stateMutability":"view"},{"type":"function","name":"uniswapV2Router","inputs":[],"outputs":[{"name":"","type":"address","internalType":"address"}],"stateMutability":"view"},{"type":"function","name":"upgradeToAndCall","inputs":[{"name":"newImplementation","type":"address","internalType":"address"},{"name":"data","type":"bytes","internalType":"bytes"}],"outputs":[],"stateMutability":"payable"},{"type":"event","name":"Initialized","inputs":[{"name":"version","type":"uint64","indexed":false,"internalType":"uint64"}],"anonymous":false},{"type":"event","name":"OwnershipTransferred","inputs":[{"name":"previousOwner","type":"address","indexed":true,"internalType":"address"},{"name":"newOwner","type":"address","indexed":true,"internalType":"address"}],"anonymous":false},{"type":"event","name":"Upgraded","inputs":[{"name":"implementation","type":"address","indexed":true,"internalType":"address"}],"anonymous":false},{"type":"error","name":"AddressEmptyCode","inputs":[{"name":"target","type":"address","internalType":"address"}]},{"type":"error","name":"ERC1967InvalidImplementation","inputs":[{"name":"implementation","type":"address","internalType":"address"}]},{"type":"error","name":"ERC1967NonPayable","inputs":[]},{"type":"error","name":"FailedCall","inputs":[]},{"type":"error","name":"InvalidInitialization","inputs":[]},{"type":"error","name":"NotInitializing","inputs":[]},{"type":"error","name":"OwnableInvalidOwner","inputs":[{"name":"owner","type":"address","internalType":"address"}]},{"type":"error","name":"OwnableUnauthorizedAccount","inputs":[{"name":"account","type":"address","internalType":"address"}]},{"type":"error","name":"ReentrancyGuardReentrantCall","inputs":[]},{"type":"error","name":"UUPSUnauthorizedCallContext","inputs":[]},{"type":"error","name":"UUPSUnsupportedProxiableUUID","inputs":[{"name":"slot","type":"bytes32","internalType":"bytes32"}]}],"bytecode":{"object":"0x60a0604052306080523480156012575f5ffd5b5060015f5560805161272d61003d5f395f8181611bd901528181611c020152611d46015261272d5ff3fe60806040526004361061021c575f3560e01c80636386c1c71161011e578063b602024b116100a8578063ec342ad01161006d578063ec342ad014610705578063ee8f0b7a1461071a578063f2fde38b1461074e578063fbdd25e41461076d578063fc0c546a14610798575f5ffd5b8063b602024b14610621578063bb8498cf14610640578063c54e44eb1461068d578063d41b6db6146106b4578063dd4b1823146106ef575f5ffd5b8063789574d4116100ee578063789574d41461051f5780638da5cb5b1461056a578063a14a9f8f146105a6578063abf194a0146105c5578063ad3cb1cc146105e4575f5ffd5b80636386c1c71461049a578063666b0dab146104cd57806370a8302a146104ec578063715018a61461050b575f5ffd5b806335e344f2116101aa5780634f1ef2861161016f5780634f1ef2861461041857806352d1902d1461042b57806355a1883a1461043f5780635997bb371461045e57806359d0f71314610473575f5ffd5b806335e344f2146103645780633a3f82391461038f5780633fd004d7146103ae578063485cc955146103da5780634aa06652146103f9575f5ffd5b80631694505e116101f05780631694505e146102cb5780631dbb2a22146102f25780632986c0e5146103115780632a75d5f414610326578063313c06a014610345575f5ffd5b80622ff0071461022057806302318e531461025e57806303fd2a451461027d57806308254f51146102aa575b5f5ffd5b34801561022b575f5ffd5b5061024b61023a366004612191565b60036020525f908152604090205481565b6040519081526020015b60405180910390f35b348015610269575f5ffd5b5061024b6102783660046121aa565b6107b7565b348015610288575f5ffd5b5061029261dead81565b6040516001600160a01b039091168152602001610255565b3480156102b5575f5ffd5b506102c96102c43660046121aa565b610885565b005b3480156102d6575f5ffd5b506102927310ed43c718714eb63d5aa57b78b54704e256024e81565b3480156102fd575f5ffd5b506102c961030c3660046121aa565b610973565b34801561031c575f5ffd5b5061024b600d5481565b348015610331575f5ffd5b5061024b6103403660046121aa565b610b47565b348015610350575f5ffd5b50600c54610292906001600160a01b031681565b34801561036f575f5ffd5b5061024b61037e366004612191565b600a6020525f908152604090205481565b34801561039a575f5ffd5b506102c96103a93660046121aa565b610b7a565b3480156103b9575f5ffd5b506103cd6103c8366004612191565b610cab565b60405161025591906121fb565b3480156103e5575f5ffd5b506102c96103f436600461220d565b610e1b565b348015610404575f5ffd5b5061024b61041336600461223e565b610f51565b6102c96104263660046122bd565b611079565b348015610436575f5ffd5b5061024b611094565b34801561044a575f5ffd5b5061024b6104593660046121aa565b6110af565b348015610469575f5ffd5b5061024b610bb881565b34801561047e575f5ffd5b5061029273ca143ce32fe78f1f7019d7d551a6402fc5350c7381565b3480156104a5575f5ffd5b506104b96104b4366004612191565b611140565b6040516102559897969594939291906123cf565b3480156104d8575f5ffd5b5061024b6104e7366004612191565b611312565b3480156104f7575f5ffd5b5061024b610506366004612191565b6113b3565b348015610516575f5ffd5b506102c96113e3565b34801561052a575f5ffd5b5061053e6105393660046121aa565b6113f6565b604080516001600160a01b03909516855260208501939093529183015215156060820152608001610255565b348015610575575f5ffd5b507f9016d09d72d40fdae2fd8ceac6b6234c7706214fd39c1cd1e609a0528c199300546001600160a01b0316610292565b3480156105b1575f5ffd5b506102c96105c0366004612191565b61143b565b3480156105d0575f5ffd5b5061024b6105df366004612191565b611517565b3480156105ef575f5ffd5b50610614604051806040016040528060058152602001640352e302e360dc1b81525081565b60405161025591906124b5565b34801561062c575f5ffd5b506102c961063b36600461220d565b6115a9565b34801561064b575f5ffd5b5061053e61065a3660046121aa565b60086020525f908152604090208054600182015460028301546003909301546001600160a01b0390921692909160ff1684565b348015610698575f5ffd5b506102927355d398326f99059ff775485246999027b319795581565b3480156106bf575f5ffd5b506106e26106ce366004612191565b60046020525f908152604090205460ff1681565b60405161025591906124ea565b3480156106fa575f5ffd5b5061024b62278d0081565b348015610710575f5ffd5b5061024b61271081565b348015610725575f5ffd5b50610292610734366004612191565b60016020525f90815260409020546001600160a01b031681565b348015610759575f5ffd5b506102c9610768366004612191565b611624565b348015610778575f5ffd5b5061024b610787366004612191565b60026020525f908152604090205481565b3480156107a3575f5ffd5b50600b54610292906001600160a01b031681565b5f818152600860209081526040808320815160808101835281546001600160a01b0316815260018201549381018490526002820154928101929092526003015460ff16151560608201529082906127109061081590610bb89061250c565b61081f9190612523565b826020015161082e9190612542565b90505f82604001514211610842575f610851565b60408301516108519042612555565b905062278d00811061086557509392505050565b61087262278d0083612523565b61087c908261250c565b95945050505050565b61088d61165e565b335f908152600260205260409020548111156108e55760405162461bcd60e51b815260206004820152601260248201527127379030bbb0b932103a379031b630b4b69760711b60448201526064015b60405180910390fd5b335f9081526002602052604081208054839290610903908490612555565b9091555050600b546040516340c10f1960e01b8152336004820152602481018390526001600160a01b03909116906340c10f19906044015f604051808303815f87803b158015610951575f5ffd5b505af1158015610963573d5f5f3e3d5ffd5b5050505061097060015f55565b50565b600b5461098d906001600160a01b03163361dead84611686565b60408051608081018252338082526020808301858152428486019081525f606086018181526009805460018181018355918452885160049091027f6e1540171b6c0c960b71a7020d9f60077f6af931a8bbf590da0223dacf75c7af810180546001600160a01b039384166001600160a01b03199182161790915587517f6e1540171b6c0c960b71a7020d9f60077f6af931a8bbf590da0223dacf75c7b083015586517f6e1540171b6c0c960b71a7020d9f60077f6af931a8bbf590da0223dacf75c7b183015584517f6e1540171b6c0c960b71a7020d9f60077f6af931a8bbf590da0223dacf75c7b2909201805492151560ff19938416179055600d8054875260088a528c87208c51815490861690841617815598518986015596516002890155935160039790970180549715159790911696909617909555868352600586528883208454815480840183559185528785209091015586835280865288832054909416825260068552968120805493840181558152928320909101805490951690921790935580549192610b2083612568565b9190505550610b2f33836117b1565b610b3933836118e0565b610b433383611a7d565b5050565b600b545f90610b74906001600160a01b03167355d398326f99059ff775485246999027b319795584610f51565b92915050565b610b8261165e565b5f81815260086020526040902080546001600160a01b03163314610bdf5760405162461bcd60e51b81526020600482015260146024820152732737ba103a34329037b93232b91037bbb732b91760611b60448201526064016108dc565b600381015460ff1615610c275760405162461bcd60e51b815260206004820152601060248201526f20b63932b0b23c9031b630b4b6b2b21760811b60448201526064016108dc565b5f610c31836107b7565b60038301805460ff19166001179055600b546040516340c10f1960e01b8152336004820152602481018390529192506001600160a01b0316906340c10f19906044015f604051808303815f87803b158015610c8a575f5ffd5b505af1158015610c9c573d5f5f3e3d5ffd5b50505050505061097060015f55565b6001600160a01b0381165f90815260056020526040812054606091805b82811015610d38576001600160a01b0385165f908152600560205260408120805483908110610cf957610cf9612580565b5f918252602080832090910154808352600890915260409091206003015490915060ff16610d2f5782610d2b81612568565b9350505b50600101610cc8565b505f8167ffffffffffffffff811115610d5357610d53612278565b604051908082528060200260200182016040528015610d7c578160200160208202803683370190505b5090505f805b84811015610e10576001600160a01b0387165f908152600560205260408120805483908110610db357610db3612580565b5f918252602080832090910154808352600890915260409091206003015490915060ff16610e075780848481518110610dee57610dee612580565b602090810291909101015282610e0381612568565b9350505b50600101610d82565b509095945050505050565b5f610e24611b96565b805490915060ff600160401b820416159067ffffffffffffffff165f81158015610e4b5750825b90505f8267ffffffffffffffff166001148015610e675750303b155b905081158015610e75575080155b15610e935760405163f92ee8a960e01b815260040160405180910390fd5b845467ffffffffffffffff191660011785558315610ebd57845460ff60401b1916600160401b1785555b610ec633611bbe565b610ece611bc6565b600b80546001600160a01b03808a166001600160a01b031992831617909255600c8054928916929091169190911790555f600d558315610f4857845460ff60401b19168555604051600181527fc7f505b2f371ae2175ee4913f4499e1f2633a7b5936321eed1cdaeb6115181d29060200160405180910390a15b50505050505050565b6040805160028082526060820183525f928392919060208301908036833701905050905084815f81518110610f8857610f88612580565b60200260200101906001600160a01b031690816001600160a01b0316815250508381600181518110610fbc57610fbc612580565b6001600160a01b039092166020928302919091019091015260405163d06ca61f60e01b81525f907310ed43c718714eb63d5aa57b78b54704e256024e9063d06ca61f9061100f9087908690600401612594565b5f60405180830381865afa158015611029573d5f5f3e3d5ffd5b505050506040513d5f823e601f3d908101601f1916820160405261105091908101906125ac565b90508060018151811061106557611065612580565b6020026020010151925050505b9392505050565b611081611bce565b61108a82611c72565b610b438282611c7a565b5f61109d611d3b565b505f5160206126d85f395f51905f5290565b5f818152600860209081526040808320815160808101835281546001600160a01b0316815260018201549381019390935260028101549183018290526003015460ff161515606083015282904211611107575f611116565b60408201516111169042612555565b905062278d00811061112b57505f9392505050565b6111388162278d00612555565b949350505050565b6001600160a01b038082165f908152600160209081526040808320546002835281842054600384528285205460048552838620546006865295849020805485518188028101880190965280865293909716969195909460ff9091169360609384938493849392908301828280156111de57602002820191905f5260205f20905b81546001600160a01b031681526001909101906020018083116111c0575b5050505050915060055f8a6001600160a01b03166001600160a01b031681526020019081526020015f2080548060200260200160405190810160405280929190818152602001828054801561125057602002820191905f5260205f20905b81548152602001906001019080831161123c575b5050506001600160a01b038c165f90815260076020908152604080832080548251818502810185019093528083529699509095909450925084015b828210156112f6575f8481526020908190206040805160a0810182526005860290920180546001600160a01b0316835260018082015484860152600282015492840192909252600381015460608401526004015460ff1615156080830152908352909201910161128b565b50505050905061130589610cab565b9350919395975091939597565b6001600160a01b0381165f90815260056020526040812054815b818110156113ac576001600160a01b0384165f90815260056020526040812080548390811061135d5761135d612580565b5f918252602080832090910154808352600890915260409091206003015490915060ff166113a3575f818152600860205260409020600101546113a09085612542565b93505b5060010161132c565b5050919050565b600b545f90610b74906001600160a01b03167355d398326f99059ff775485246999027b319795561041385611312565b6113eb611d84565b6113f45f611ddf565b565b60098181548110611405575f80fd5b5f91825260209091206004909102018054600182015460028301546003909301546001600160a01b039092169350919060ff1684565b336001600160a01b038216036114935760405162461bcd60e51b815260206004820181905260248201527f43616e6e6f742062696e6420796f757273656c6620617320696e76697465722e60448201526064016108dc565b6001600160a01b0381166114e95760405162461bcd60e51b815260206004820152601f60248201527f496e76697465722063616e6e6f74206265207a65726f20616464726573732e0060448201526064016108dc565b335f90815260016020526040902080546001600160a01b0319166001600160a01b0392909216919091179055565b6001600160a01b0381165f90815260056020526040812054815b818110156113ac576001600160a01b0384165f90815260056020526040812080548390811061156257611562612580565b5f918252602080832090910154808352600890915260409091206003015490915060ff166115a057611593816107b7565b61159d9085612542565b93505b50600101611531565b6115b1611d84565b6001600160a01b0382166115f65760405162461bcd60e51b815260206004820152600c60248201526b5a65726f206164647265737360a01b60448201526064016108dc565b600b80546001600160a01b039384166001600160a01b031991821617909155600c8054929093169116179055565b61162c611d84565b6001600160a01b03811661165557604051631e4fbdf760e01b81525f60048201526024016108dc565b61097081611ddf565b60025f540361168057604051633ee5aeb560e01b815260040160405180910390fd5b60025f55565b604080516001600160a01b0385811660248301528481166044830152606480830185905283518084039091018152608490920183526020820180516001600160e01b03166323b872dd60e01b17905291515f928392908816916116e99190612654565b5f604051808303815f865af19150503d805f8114611722576040519150601f19603f3d011682016040523d82523d5f602084013e611727565b606091505b5091509150818015611751575080511580611751575080806020019051810190611751919061266a565b6117a95760405162461bcd60e51b8152602060048201526024808201527f5472616e7366657248656c7065723a205452414e534645525f46524f4d5f46416044820152631253115160e21b60648201526084016108dc565b505050505050565b6040805160a081018252612710815261138860208201526109c4918101919091526104e2606082015261027160808201528290620186a05f805b6005811015610f48576001600160a01b038086165f9081526001602052604090205416806118195750610f48565b6001600160a01b0381165f90815260056020526040902054925082158015906118635750611848826001612542565b6001600160a01b0382165f9081526006602052604090205410155b156118d6575f8486846005811061187c5761187c612580565b602002015161188b908a61250c565b6118959190612523565b6001600160a01b0383165f908152600260205260408120805492935083929091906118c1908490612542565b909155506118d49050828a8a845f611e4f565b505b94506001016117eb565b816127105f816118f185606461250c565b6118fb9190612523565b90505f611909600583612523565b90505f805b6001600160a01b03861615801590611929575060058160ff16105b15611a73576001600160a01b038087165f9081526001602052604090205416806119535750611a73565b6001600160a01b0381165f9081526004602052604081205460ff169081600581111561198157611981612362565b14611a6b575f600182600581111561199b5761199b612362565b6119a59190612689565b905060058160ff161080156119c557508060ff166001901b8560ff16165f145b15611a69575f805b8260ff168160ff1611611a25578060ff166001901b8760ff16165f03611a1357600160ff82161b9690961795611a038883612542565b915085611a0f816126a2565b9650505b80611a1d816126a2565b9150506119cd565b508015611a67576001600160a01b0384165f9081526002602052604081208054839290611a53908490612542565b90915550611a679050848d8d846001611e4f565b505b505b50955061190e565b5050505050505050565b80825b6001600160a01b03811615611b90576001600160a01b038082165f908152600160205260409020541680611ab45750611b90565b6001600160a01b0381165f9081526003602052604081208054859290611adb908490612542565b90915550506001600160a01b0381165f90815260036020526040812054611b0190611eee565b6001600160a01b0383165f9081526004602052604090205490915060ff166005811115611b3057611b30612362565b60ff16816005811115611b4557611b45612362565b60ff161115611b88576001600160a01b0382165f908152600460205260409020805482919060ff19166001836005811115611b8257611b82612362565b02179055505b509050611a80565b50505050565b5f807ff0c57e16840df040f15088dc2f81fe391c3923bec73e23a9662efc9c229c6a00610b74565b61162c611f78565b6113f4611f78565b306001600160a01b037f0000000000000000000000000000000000000000000000000000000000000000161480611c5457507f00000000000000000000000000000000000000000000000000000000000000006001600160a01b0316611c485f5160206126d85f395f51905f52546001600160a01b031690565b6001600160a01b031614155b156113f45760405163703e46dd60e11b815260040160405180910390fd5b610970611d84565b816001600160a01b03166352d1902d6040518163ffffffff1660e01b8152600401602060405180830381865afa925050508015611cd4575060408051601f3d908101601f19168201909252611cd1918101906126c0565b60015b611cfc57604051634c9c8ce360e01b81526001600160a01b03831660048201526024016108dc565b5f5160206126d85f395f51905f528114611d2c57604051632a87526960e21b8152600481018290526024016108dc565b611d368383611f9d565b505050565b306001600160a01b037f000000000000000000000000000000000000000000000000000000000000000016146113f45760405163703e46dd60e11b815260040160405180910390fd5b33611db67f9016d09d72d40fdae2fd8ceac6b6234c7706214fd39c1cd1e609a0528c199300546001600160a01b031690565b6001600160a01b0316146113f45760405163118cdaa760e01b81523360048201526024016108dc565b7f9016d09d72d40fdae2fd8ceac6b6234c7706214fd39c1cd1e609a0528c19930080546001600160a01b031981166001600160a01b03848116918217845560405192169182907f8be0079c531659141344cd1fd0a4f28419497f9722a3daafe3b4186f6b6457e0905f90a3505050565b6040805160a0810182526001600160a01b03958616815260208082019586528183019485524260608301908152931515608083019081529787165f90815260078252928320805460018082018355918552919093209151600590910290910180546001600160a01b0319169190961617855592519284019290925551600283015551600382015590516004909101805460ff1916911515919091179055565b5f69d3c21bcecceda10000008210611f0857506005919050565b6969e10de76676d08000008210611f2157506004919050565b692a5a058fc295ed0000008210611f3a57506003919050565b690a968163f0a57b4000008210611f5357506002919050565b69021e19e0c9bab24000008210611f6c57506001919050565b505f919050565b919050565b611f80611ff2565b6113f457604051631afcd79f60e31b815260040160405180910390fd5b611fa68261200b565b6040516001600160a01b038316907fbc7cd75a20ee27fd9adebab32041f755214dbc6bffa90cc0225b39da2e5c2d3b905f90a2805115611fea57611d36828261206e565b610b436120d7565b5f611ffb611b96565b54600160401b900460ff16919050565b806001600160a01b03163b5f0361204057604051634c9c8ce360e01b81526001600160a01b03821660048201526024016108dc565b5f5160206126d85f395f51905f5280546001600160a01b0319166001600160a01b0392909216919091179055565b60605f5f846001600160a01b03168460405161208a9190612654565b5f60405180830381855af49150503d805f81146120c2576040519150601f19603f3d011682016040523d82523d5f602084013e6120c7565b606091505b509150915061087c8583836120f6565b34156113f45760405163b398979f60e01b815260040160405180910390fd5b60608261210b5761210682612152565b611072565b815115801561212257506001600160a01b0384163b155b1561214b57604051639996b31560e01b81526001600160a01b03851660048201526024016108dc565b5080611072565b8051156121625780518082602001fd5b60405163d6bda27560e01b815260040160405180910390fd5b80356001600160a01b0381168114611f73575f5ffd5b5f602082840312156121a1575f5ffd5b6110728261217b565b5f602082840312156121ba575f5ffd5b5035919050565b5f8151808452602084019350602083015f5b828110156121f15781518652602095860195909101906001016121d3565b5093949350505050565b602081525f61107260208301846121c1565b5f5f6040838503121561221e575f5ffd5b6122278361217b565b91506122356020840161217b565b90509250929050565b5f5f5f60608486031215612250575f5ffd5b6122598461217b565b92506122676020850161217b565b929592945050506040919091013590565b634e487b7160e01b5f52604160045260245ffd5b604051601f8201601f1916810167ffffffffffffffff811182821017156122b5576122b5612278565b604052919050565b5f5f604083850312156122ce575f5ffd5b6122d78361217b565b9150602083013567ffffffffffffffff8111156122f2575f5ffd5b8301601f81018513612302575f5ffd5b803567ffffffffffffffff81111561231c5761231c612278565b61232f601f8201601f191660200161228c565b818152866020838501011115612343575f5ffd5b816020840160208301375f602083830101528093505050509250929050565b634e487b7160e01b5f52602160045260245ffd5b6006811061239257634e487b7160e01b5f52602160045260245ffd5b9052565b5f8151808452602084019350602083015f5b828110156121f15781516001600160a01b03168652602095860195909101906001016123a8565b6001600160a01b038916815260208101889052604081018790526123f66060820187612376565b61010060808201525f61240d6101008301876121c1565b82810360a084015261241f81876121c1565b905082810360c08401526124338186612396565b83810360e0850152845180825260208087019350909101905f5b818110156124a357835180516001600160a01b031684526020808201518186015260408083015190860152606080830151908601526080918201511515918501919091529093019260a09092019160010161244d565b50909c9b505050505050505050505050565b602081525f82518060208401528060208501604085015e5f604082850101526040601f19601f83011684010191505092915050565b60208101610b748284612376565b634e487b7160e01b5f52601160045260245ffd5b8082028115828204841417610b7457610b746124f8565b5f8261253d57634e487b7160e01b5f52601260045260245ffd5b500490565b80820180821115610b7457610b746124f8565b81810381811115610b7457610b746124f8565b5f60018201612579576125796124f8565b5060010190565b634e487b7160e01b5f52603260045260245ffd5b828152604060208201525f6111386040830184612396565b5f602082840312156125bc575f5ffd5b815167ffffffffffffffff8111156125d2575f5ffd5b8201601f810184136125e2575f5ffd5b805167ffffffffffffffff8111156125fc576125fc612278565b8060051b61260c6020820161228c565b91825260208184018101929081019087841115612627575f5ffd5b6020850194505b8385101561264957845182526020948501949091019061262e565b979650505050505050565b5f82518060208501845e5f920191825250919050565b5f6020828403121561267a575f5ffd5b81518015158114611072575f5ffd5b60ff8281168282160390811115610b7457610b746124f8565b5f60ff821660ff81036126b7576126b76124f8565b60010192915050565b5f602082840312156126d0575f5ffd5b505191905056fe360894a13ba1a3210667c828492db98dca3e2076cc3735a920a3ca505d382bbca2646970667358221220e99b7fe745f8c32a9d88fa62b28b0c1decce89fcba9ccff17dfb55230292f72764736f6c634300081c0033","linkReferences":{}},"methodIdentifiers":{"BASE()":"ec342ad0","DEAD()":"03fd2a45","REWARD_RATE()":"5997bb37","STAKE_PERIOD()":"dd4b1823","UPGRADE_INTERFACE_VERSION()":"ad3cb1cc","USDT()":"c54e44eb","award(address)":"fbdd25e4","bindInviter(address)":"a14a9f8f","claimAward(uint256)":"08254f51","claimOrder(uint256)":"3a3f8239","getAmountOut(address,address,uint256)":"4aa06652","getOrderCountdown(uint256)":"55a1883a","getOrderRealTimeYield(uint256)":"02318e53","getQuoteAmount(uint256)":"2a75d5f4","getUserInfo(address)":"6386c1c7","getUserRealTimeYield(address)":"abf194a0","getUserValidStakingAmount(address)":"666b0dab","getUserValidStakingAmountForUsdt(address)":"70a8302a","getValidOrderIndexes(address)":"3fd004d7","index()":"2986c0e5","initialize(address,address)":"485cc955","invitePerformance(address)":"002ff007","inviter(address)":"ee8f0b7a","level(address)":"d41b6db6","liquidityAmount(address)":"35e344f2","lp()":"313c06a0","owner()":"8da5cb5b","proxiableUUID()":"52d1902d","renounceOwnership()":"715018a6","setConfig(address,address)":"b602024b","staking(uint256)":"1dbb2a22","stakingOrderInfo(uint256)":"bb8498cf","stakingOrders(uint256)":"789574d4","token()":"fc0c546a","transferOwnership(address)":"f2fde38b","uniswapV2Factory()":"59d0f713","uniswapV2Router()":"1694505e","upgradeToAndCall(address,bytes)":"4f1ef286"},"id":42}