{
	"data": {
		"bytecode": {
			"linkReferences": {},
			"object": "6080604052348015600e575f80fd5b50612e5b8061001c5f395ff3fe608060405234801561000f575f80fd5b50600436106100b2575f3560e01c806359d0f7131161006f57806359d0f713146101a257806362d284b2146101c057806380565655146101ca5780639c8f9f23146101e6578063c54e44eb14610202578063fc0c546a14610220576100b2565b806303fd2a45146100b65780631694505e146100d4578063313c06a0146100f257806335e344f2146101105780634aa066521461014057806351c6590a14610170575b5f80fd5b6100be61023e565b6040516100cb9190611ce4565b60405180910390f35b6100dc610244565b6040516100e99190611ce4565b60405180910390f35b6100fa61025c565b6040516101079190611ce4565b60405180910390f35b61012a60048036038101906101259190611d38565b610281565b6040516101379190611d7b565b60405180910390f35b61015a60048036038101906101559190611dbe565b610296565b6040516101679190611d7b565b60405180910390f35b61018a60048036038101906101859190611e0e565b61043c565b60405161019993929190611e39565b60405180910390f35b6101aa6104d7565b6040516101b79190611ce4565b60405180910390f35b6101c86104ef565b005b6101e460048036038101906101df9190611e0e565b610602565b005b61020060048036038101906101fb9190611e0e565b6109e1565b005b61020a610b8f565b6040516102179190611ce4565b60405180910390f35b610228610ba7565b6040516102359190611ce4565b60405180910390f35b61dead81565b7310ed43c718714eb63d5aa57b78b54704e256024e81565b60015f9054906101000a900473ffffffffffffffffffffffffffffffffffffffff1681565b6002602052805f5260405f205f915090505481565b5f80600267ffffffffffffffff8111156102b3576102b2611e6e565b5b6040519080825280602002602001820160405280156102e15781602001602082028036833780820191505090505b50905084815f815181106102f8576102f7611e9b565b5b602002602001019073ffffffffffffffffffffffffffffffffffffffff16908173ffffffffffffffffffffffffffffffffffffffff1681525050838160018151811061034757610346611e9b565b5b602002602001019073ffffffffffffffffffffffffffffffffffffffff16908173ffffffffffffffffffffffffffffffffffffffff16815250505f7310ed43c718714eb63d5aa57b78b54704e256024e73ffffffffffffffffffffffffffffffffffffffff1663d06ca61f85846040518363ffffffff1660e01b81526004016103d1929190611f7f565b5f60405180830381865afa1580156103eb573d5f803e3d5ffd5b505050506040513d5f823e3d601f19601f8201168201806040525081019061041391906120e4565b90508060018151811061042957610428611e9b565b5b6020026020010151925050509392505050565b5f805f8061047e5f8054906101000a900473ffffffffffffffffffffffffffffffffffffffff167355d398326f99059ff775485246999027b319795587610296565b90506104c35f8054906101000a900473ffffffffffffffffffffffffffffffffffffffff167355d398326f99059ff775485246999027b319795587845f803342610bca565b809450819550829650505050509193909250565b73ca143ce32fe78f1f7019d7d551a6402fc5350c7381565b5f60025f3373ffffffffffffffffffffffffffffffffffffffff1673ffffffffffffffffffffffffffffffffffffffff1681526020019081526020015f205490505f8111610572576040517f08c379a000000000000000000000000000000000000000000000000000000000815260040161056990612185565b60405180910390fd5b5f60025f3373ffffffffffffffffffffffffffffffffffffffff1673ffffffffffffffffffffffffffffffffffffffff1681526020019081526020015f20819055505f806105bf83610cec565b915091505f8211156105eb576105ea7355d398326f99059ff775485246999027b31979553384610e02565b5b5f8111156105fd576105fc81610f32565b5b505050565b6106227355d398326f99059ff775485246999027b3197955333084610fd3565b5f6106617355d398326f99059ff775485246999027b31979555f8054906101000a900473ffffffffffffffffffffffffffffffffffffffff1684610296565b90505f8054906101000a900473ffffffffffffffffffffffffffffffffffffffff1673ffffffffffffffffffffffffffffffffffffffff166340c10f1930836040518363ffffffff1660e01b81526004016106bd9291906121a3565b5f604051808303815f87803b1580156106d4575f80fd5b505af11580156106e6573d5f803e3d5ffd5b505050507355d398326f99059ff775485246999027b319795573ffffffffffffffffffffffffffffffffffffffff1663095ea7b37310ed43c718714eb63d5aa57b78b54704e256024e846040518363ffffffff1660e01b815260040161074d9291906121a3565b6020604051808303815f875af1158015610769573d5f803e3d5ffd5b505050506040513d601f19601f8201168201806040525081019061078d91906121ff565b505f8054906101000a900473ffffffffffffffffffffffffffffffffffffffff1673ffffffffffffffffffffffffffffffffffffffff1663095ea7b37310ed43c718714eb63d5aa57b78b54704e256024e836040518363ffffffff1660e01b81526004016107fc9291906121a3565b6020604051808303815f875af1158015610818573d5f803e3d5ffd5b505050506040513d601f19601f8201168201806040525081019061083c91906121ff565b505f805f7310ed43c718714eb63d5aa57b78b54704e256024e73ffffffffffffffffffffffffffffffffffffffff1663e8e337005f8054906101000a900473ffffffffffffffffffffffffffffffffffffffff167355d398326f99059ff775485246999027b319795587895f8030426040518963ffffffff1660e01b81526004016108ce98979695949392919061226c565b6060604051808303815f875af11580156108ea573d5f803e3d5ffd5b505050506040513d601f19601f8201168201806040525081019061090e91906122e8565b9250925092508060025f3373ffffffffffffffffffffffffffffffffffffffff1673ffffffffffffffffffffffffffffffffffffffff1681526020019081526020015f205f8282546109609190612365565b925050819055508185111561099a576109997355d398326f99059ff775485246999027b31979553384886109949190612398565b610e02565b5b828411156109da576109d95f8054906101000a900473ffffffffffffffffffffffffffffffffffffffff1661dead85876109d49190612398565b610e02565b5b5050505050565b610a0e60015f9054906101000a900473ffffffffffffffffffffffffffffffffffffffff16333084610fd3565b60015f9054906101000a900473ffffffffffffffffffffffffffffffffffffffff1673ffffffffffffffffffffffffffffffffffffffff1663095ea7b37310ed43c718714eb63d5aa57b78b54704e256024e836040518363ffffffff1660e01b8152600401610a7e9291906121a3565b6020604051808303815f875af1158015610a9a573d5f803e3d5ffd5b505050506040513d601f19601f82011682018060405250810190610abe91906121ff565b507310ed43c718714eb63d5aa57b78b54704e256024e73ffffffffffffffffffffffffffffffffffffffff1663baa2abde7355d398326f99059ff775485246999027b31979555f8054906101000a900473ffffffffffffffffffffffffffffffffffffffff16845f8033426040518863ffffffff1660e01b8152600401610b4b97969594939291906123cb565b60408051808303815f875af1158015610b66573d5f803e3d5ffd5b505050506040513d601f19601f82011682018060405250810190610b8a9190612438565b505050565b7355d398326f99059ff775485246999027b319795581565b5f8054906101000a900473ffffffffffffffffffffffffffffffffffffffff1681565b5f805f8342811015610c11576040517f08c379a0000000000000000000000000000000000000000000000000000000008152600401610c08906124c0565b60405180910390fd5b610c1f8c8c8c8c8c8c611106565b80945081955050505f610c4773ca143ce32fe78f1f7019d7d551a6402fc5350c738e8e611384565b9050610c558d338388610fd3565b610c618c338387610fd3565b8073ffffffffffffffffffffffffffffffffffffffff16636a627842886040518263ffffffff1660e01b8152600401610c9a9190611ce4565b6020604051808303815f875af1158015610cb6573d5f803e3d5ffd5b505050506040513d601f19601f82011682018060405250810190610cda91906124de565b92505050985098509895505050505050565b5f80610d2e60015f9054906101000a900473ffffffffffffffffffffffffffffffffffffffff167310ed43c718714eb63d5aa57b78b54704e256024e856113f3565b7310ed43c718714eb63d5aa57b78b54704e256024e73ffffffffffffffffffffffffffffffffffffffff1663baa2abde7355d398326f99059ff775485246999027b31979555f8054906101000a900473ffffffffffffffffffffffffffffffffffffffff16865f8030426040518863ffffffff1660e01b8152600401610dba97969594939291906123cb565b60408051808303815f875af1158015610dd5573d5f803e3d5ffd5b505050506040513d601f19601f82011682018060405250810190610df99190612438565b91509150915091565b5f808473ffffffffffffffffffffffffffffffffffffffff1663a9059cbb8585604051602401610e339291906121a3565b6040516020818303038152906040529060e01b6020820180517bffffffffffffffffffffffffffffffffffffffffffffffffffffffff8381831617835250505050604051610e81919061255b565b5f604051808303815f865af19150503d805f8114610eba576040519150601f19603f3d011682016040523d82523d5f602084013e610ebf565b606091505b5091509150818015610eec57505f81511480610eeb575080806020019051810190610eea91906121ff565b5b5b610f2b576040517f08c379a0000000000000000000000000000000000000000000000000000000008152600401610f22906125bb565b60405180910390fd5b5050505050565b5f600282610f409190612606565b90505f8183610f4f9190612398565b9050610f7d5f8054906101000a900473ffffffffffffffffffffffffffffffffffffffff1661dead84610e02565b5f610f87826114f0565b90505f811115610fa057610f9b8282611812565b610fcd565b610fcc5f8054906101000a900473ffffffffffffffffffffffffffffffffffffffff1661dead84610e02565b5b50505050565b5f808573ffffffffffffffffffffffffffffffffffffffff166323b872dd86868660405160240161100693929190612636565b6040516020818303038152906040529060e01b6020820180517bffffffffffffffffffffffffffffffffffffffffffffffffffffffff8381831617835250505050604051611054919061255b565b5f604051808303815f865af19150503d805f811461108d576040519150601f19603f3d011682016040523d82523d5f602084013e611092565b606091505b50915091508180156110bf57505f815114806110be5750808060200190518101906110bd91906121ff565b5b5b6110fe576040517f08c379a00000000000000000000000000000000000000000000000000000000081526004016110f5906126db565b60405180910390fd5b505050505050565b5f805f73ffffffffffffffffffffffffffffffffffffffff1673ca143ce32fe78f1f7019d7d551a6402fc5350c7373ffffffffffffffffffffffffffffffffffffffff1663e6a439058a8a6040518363ffffffff1660e01b815260040161116e9291906126f9565b602060405180830381865afa158015611189573d5f803e3d5ffd5b505050506040513d601f19601f820116820180604052508101906111ad9190612734565b73ffffffffffffffffffffffffffffffffffffffff16036112595773ca143ce32fe78f1f7019d7d551a6402fc5350c7373ffffffffffffffffffffffffffffffffffffffff1663c9c6539689896040518363ffffffff1660e01b81526004016112179291906126f9565b6020604051808303815f875af1158015611233573d5f803e3d5ffd5b505050506040513d601f19601f820116820180604052508101906112579190612734565b505b5f8061127a73ca143ce32fe78f1f7019d7d551a6402fc5350c738b8b61195a565b915091505f8214801561128c57505f81145b156112a05787878094508195505050611377565b5f6112ac898484611a58565b905087811161130757858110156112f8576040517f08c379a00000000000000000000000000000000000000000000000000000000081526004016112ef906127cf565b60405180910390fd5b88818095508196505050611375565b5f611313898486611a58565b905089811115611326576113256127ed565b5b87811015611369576040517f08c379a00000000000000000000000000000000000000000000000000000000081526004016113609061288a565b60405180910390fd5b80898096508197505050505b505b5050965096945050505050565b5f805f6113918585611b0f565b915091508582826040516020016113a99291906128ed565b604051602081830303815290604052805190602001206040516020016113d09291906129de565b604051602081830303815290604052805190602001205f1c925050509392505050565b8273ffffffffffffffffffffffffffffffffffffffff1663095ea7b3835f6040518363ffffffff1660e01b815260040161142e929190612a1f565b6020604051808303815f875af115801561144a573d5f803e3d5ffd5b505050506040513d601f19601f8201168201806040525081019061146e91906121ff565b508273ffffffffffffffffffffffffffffffffffffffff1663095ea7b383836040518363ffffffff1660e01b81526004016114aa9291906121a3565b6020604051808303815f875af11580156114c6573d5f803e3d5ffd5b505050506040513d601f19601f820116820180604052508101906114ea91906121ff565b50505050565b5f808203611500575f905061180d565b61153e5f8054906101000a900473ffffffffffffffffffffffffffffffffffffffff167310ed43c718714eb63d5aa57b78b54704e256024e846113f3565b5f600267ffffffffffffffff81111561155a57611559611e6e565b5b6040519080825280602002602001820160405280156115885781602001602082028036833780820191505090505b5090505f8054906101000a900473ffffffffffffffffffffffffffffffffffffffff16815f815181106115be576115bd611e9b565b5b602002602001019073ffffffffffffffffffffffffffffffffffffffff16908173ffffffffffffffffffffffffffffffffffffffff16815250507355d398326f99059ff775485246999027b31979558160018151811061162157611620611e9b565b5b602002602001019073ffffffffffffffffffffffffffffffffffffffff16908173ffffffffffffffffffffffffffffffffffffffff16815250505f7355d398326f99059ff775485246999027b319795573ffffffffffffffffffffffffffffffffffffffff166370a08231306040518263ffffffff1660e01b81526004016116a99190611ce4565b602060405180830381865afa1580156116c4573d5f803e3d5ffd5b505050506040513d601f19601f820116820180604052508101906116e891906124de565b90507310ed43c718714eb63d5aa57b78b54704e256024e73ffffffffffffffffffffffffffffffffffffffff16635c11d795855f8530426040518663ffffffff1660e01b815260040161173f959493929190612a46565b5f604051808303815f87803b158015611756575f80fd5b505af1158015611768573d5f803e3d5ffd5b505050505f7355d398326f99059ff775485246999027b319795573ffffffffffffffffffffffffffffffffffffffff166370a08231306040518263ffffffff1660e01b81526004016117ba9190611ce4565b602060405180830381865afa1580156117d5573d5f803e3d5ffd5b505050506040513d601f19601f820116820180604052508101906117f991906124de565b905081816118079190612398565b93505050505b919050565b6118505f8054906101000a900473ffffffffffffffffffffffffffffffffffffffff167310ed43c718714eb63d5aa57b78b54704e256024e846113f3565b6118837355d398326f99059ff775485246999027b31979557310ed43c718714eb63d5aa57b78b54704e256024e836113f3565b7310ed43c718714eb63d5aa57b78b54704e256024e73ffffffffffffffffffffffffffffffffffffffff1663e8e337005f8054906101000a900473ffffffffffffffffffffffffffffffffffffffff167355d398326f99059ff775485246999027b319795585855f8061dead426040518963ffffffff1660e01b815260040161191398979695949392919061226c565b6060604051808303815f875af115801561192f573d5f803e3d5ffd5b505050506040513d601f19601f8201168201806040525081019061195391906122e8565b5050505050565b5f805f6119678585611b0f565b5090505f80611977888888611384565b73ffffffffffffffffffffffffffffffffffffffff16630902f1ac6040518163ffffffff1660e01b8152600401606060405180830381865afa1580156119bf573d5f803e3d5ffd5b505050506040513d601f19601f820116820180604052508101906119e39190612b1a565b506dffffffffffffffffffffffffffff1691506dffffffffffffffffffffffffffff1691508273ffffffffffffffffffffffffffffffffffffffff168773ffffffffffffffffffffffffffffffffffffffff1614611a42578082611a45565b81815b8095508196505050505050935093915050565b5f808411611a9b576040517f08c379a0000000000000000000000000000000000000000000000000000000008152600401611a9290612bda565b60405180910390fd5b5f83118015611aa957505f82115b611ae8576040517f08c379a0000000000000000000000000000000000000000000000000000000008152600401611adf90612c68565b60405180910390fd5b82611afc8386611c3990919063ffffffff16565b611b069190612606565b90509392505050565b5f808273ffffffffffffffffffffffffffffffffffffffff168473ffffffffffffffffffffffffffffffffffffffff1603611b7f576040517f08c379a0000000000000000000000000000000000000000000000000000000008152600401611b7690612cf6565b60405180910390fd5b8273ffffffffffffffffffffffffffffffffffffffff168473ffffffffffffffffffffffffffffffffffffffff1610611bb9578284611bbc565b83835b80925081935050505f73ffffffffffffffffffffffffffffffffffffffff168273ffffffffffffffffffffffffffffffffffffffff1603611c32576040517f08c379a0000000000000000000000000000000000000000000000000000000008152600401611c2990612d5e565b60405180910390fd5b9250929050565b5f80821480611c60575082828385611c519190612d7c565b925082611c5e9190612606565b145b611c9f576040517f08c379a0000000000000000000000000000000000000000000000000000000008152600401611c9690612e07565b60405180910390fd5b92915050565b5f73ffffffffffffffffffffffffffffffffffffffff82169050919050565b5f611cce82611ca5565b9050919050565b611cde81611cc4565b82525050565b5f602082019050611cf75f830184611cd5565b92915050565b5f604051905090565b5f80fd5b5f80fd5b611d1781611cc4565b8114611d21575f80fd5b50565b5f81359050611d3281611d0e565b92915050565b5f60208284031215611d4d57611d4c611d06565b5b5f611d5a84828501611d24565b91505092915050565b5f819050919050565b611d7581611d63565b82525050565b5f602082019050611d8e5f830184611d6c565b92915050565b611d9d81611d63565b8114611da7575f80fd5b50565b5f81359050611db881611d94565b92915050565b5f805f60608486031215611dd557611dd4611d06565b5b5f611de286828701611d24565b9350506020611df386828701611d24565b9250506040611e0486828701611daa565b9150509250925092565b5f60208284031215611e2357611e22611d06565b5b5f611e3084828501611daa565b91505092915050565b5f606082019050611e4c5f830186611d6c565b611e596020830185611d6c565b611e666040830184611d6c565b949350505050565b7f4e487b71000000000000000000000000000000000000000000000000000000005f52604160045260245ffd5b7f4e487b71000000000000000000000000000000000000000000000000000000005f52603260045260245ffd5b5f81519050919050565b5f82825260208201905092915050565b5f819050602082019050919050565b611efa81611cc4565b82525050565b5f611f0b8383611ef1565b60208301905092915050565b5f602082019050919050565b5f611f2d82611ec8565b611f378185611ed2565b9350611f4283611ee2565b805f5b83811015611f72578151611f598882611f00565b9750611f6483611f17565b925050600181019050611f45565b5085935050505092915050565b5f604082019050611f925f830185611d6c565b8181036020830152611fa48184611f23565b90509392505050565b5f80fd5b5f601f19601f8301169050919050565b611fca82611fb1565b810181811067ffffffffffffffff82111715611fe957611fe8611e6e565b5b80604052505050565b5f611ffb611cfd565b90506120078282611fc1565b919050565b5f67ffffffffffffffff82111561202657612025611e6e565b5b602082029050602081019050919050565b5f80fd5b5f8151905061204981611d94565b92915050565b5f61206161205c8461200c565b611ff2565b9050808382526020820190506020840283018581111561208457612083612037565b5b835b818110156120ad5780612099888261203b565b845260208401935050602081019050612086565b5050509392505050565b5f82601f8301126120cb576120ca611fad565b5b81516120db84826020860161204f565b91505092915050565b5f602082840312156120f9576120f8611d06565b5b5f82015167ffffffffffffffff81111561211657612115611d0a565b5b612122848285016120b7565b91505092915050565b5f82825260208201905092915050565b7f4e6f206c697175696469747920746f2072656d6f76652e0000000000000000005f82015250565b5f61216f60178361212b565b915061217a8261213b565b602082019050919050565b5f6020820190508181035f83015261219c81612163565b9050919050565b5f6040820190506121b65f830185611cd5565b6121c36020830184611d6c565b9392505050565b5f8115159050919050565b6121de816121ca565b81146121e8575f80fd5b50565b5f815190506121f9816121d5565b92915050565b5f6020828403121561221457612213611d06565b5b5f612221848285016121eb565b91505092915050565b5f819050919050565b5f819050919050565b5f61225661225161224c8461222a565b612233565b611d63565b9050919050565b6122668161223c565b82525050565b5f610100820190506122805f83018b611cd5565b61228d602083018a611cd5565b61229a6040830189611d6c565b6122a76060830188611d6c565b6122b4608083018761225d565b6122c160a083018661225d565b6122ce60c0830185611cd5565b6122db60e0830184611d6c565b9998505050505050505050565b5f805f606084860312156122ff576122fe611d06565b5b5f61230c8682870161203b565b935050602061231d8682870161203b565b925050604061232e8682870161203b565b9150509250925092565b7f4e487b71000000000000000000000000000000000000000000000000000000005f52601160045260245ffd5b5f61236f82611d63565b915061237a83611d63565b925082820190508082111561239257612391612338565b5b92915050565b5f6123a282611d63565b91506123ad83611d63565b92508282039050818111156123c5576123c4612338565b5b92915050565b5f60e0820190506123de5f83018a611cd5565b6123eb6020830189611cd5565b6123f86040830188611d6c565b612405606083018761225d565b612412608083018661225d565b61241f60a0830185611cd5565b61242c60c0830184611d6c565b98975050505050505050565b5f806040838503121561244e5761244d611d06565b5b5f61245b8582860161203b565b925050602061246c8582860161203b565b9150509250929050565b7f556e69737761705632526f757465723a204558504952454400000000000000005f82015250565b5f6124aa60188361212b565b91506124b582612476565b602082019050919050565b5f6020820190508181035f8301526124d78161249e565b9050919050565b5f602082840312156124f3576124f2611d06565b5b5f6125008482850161203b565b91505092915050565b5f81519050919050565b5f81905092915050565b8281835e5f83830152505050565b5f61253582612509565b61253f8185612513565b935061254f81856020860161251d565b80840191505092915050565b5f612566828461252b565b915081905092915050565b7f5472616e7366657248656c7065723a205452414e534645525f4641494c4544005f82015250565b5f6125a5601f8361212b565b91506125b082612571565b602082019050919050565b5f6020820190508181035f8301526125d281612599565b9050919050565b7f4e487b71000000000000000000000000000000000000000000000000000000005f52601260045260245ffd5b5f61261082611d63565b915061261b83611d63565b92508261262b5761262a6125d9565b5b828204905092915050565b5f6060820190506126495f830186611cd5565b6126566020830185611cd5565b6126636040830184611d6c565b949350505050565b7f5472616e7366657248656c7065723a205452414e534645525f46524f4d5f46415f8201527f494c454400000000000000000000000000000000000000000000000000000000602082015250565b5f6126c560248361212b565b91506126d08261266b565b604082019050919050565b5f6020820190508181035f8301526126f2816126b9565b9050919050565b5f60408201905061270c5f830185611cd5565b6127196020830184611cd5565b9392505050565b5f8151905061272e81611d0e565b92915050565b5f6020828403121561274957612748611d06565b5b5f61275684828501612720565b91505092915050565b7f556e69737761705632526f757465723a20494e53554646494349454e545f425f5f8201527f414d4f554e540000000000000000000000000000000000000000000000000000602082015250565b5f6127b960268361212b565b91506127c48261275f565b604082019050919050565b5f6020820190508181035f8301526127e6816127ad565b9050919050565b7f4e487b71000000000000000000000000000000000000000000000000000000005f52600160045260245ffd5b7f556e69737761705632526f757465723a20494e53554646494349454e545f415f5f8201527f414d4f554e540000000000000000000000000000000000000000000000000000602082015250565b5f61287460268361212b565b915061287f8261281a565b604082019050919050565b5f6020820190508181035f8301526128a181612868565b9050919050565b5f8160601b9050919050565b5f6128be826128a8565b9050919050565b5f6128cf826128b4565b9050919050565b6128e76128e282611cc4565b6128c5565b82525050565b5f6128f882856128d6565b60148201915061290882846128d6565b6014820191508190509392505050565b5f81905092915050565b7fff000000000000000000000000000000000000000000000000000000000000005f82015250565b5f612956600183612918565b915061296182612922565b600182019050919050565b5f819050919050565b5f819050919050565b61298f61298a8261296c565b612975565b82525050565b7efb7f630766e6a796048ea87d01acd3068e8ff67d078148a3fa3f4a84f69bd55f82015250565b5f6129c8602083612918565b91506129d382612995565b602082019050919050565b5f6129e88261294a565b91506129f482856128d6565b601482019150612a04828461297e565b602082019150612a13826129bc565b91508190509392505050565b5f604082019050612a325f830185611cd5565b612a3f602083018461225d565b9392505050565b5f60a082019050612a595f830188611d6c565b612a66602083018761225d565b8181036040830152612a788186611f23565b9050612a876060830185611cd5565b612a946080830184611d6c565b9695505050505050565b5f6dffffffffffffffffffffffffffff82169050919050565b612ac081612a9e565b8114612aca575f80fd5b50565b5f81519050612adb81612ab7565b92915050565b5f63ffffffff82169050919050565b612af981612ae1565b8114612b03575f80fd5b50565b5f81519050612b1481612af0565b92915050565b5f805f60608486031215612b3157612b30611d06565b5b5f612b3e86828701612acd565b9350506020612b4f86828701612acd565b9250506040612b6086828701612b06565b9150509250925092565b7f556e697377617056324c6962726172793a20494e53554646494349454e545f415f8201527f4d4f554e54000000000000000000000000000000000000000000000000000000602082015250565b5f612bc460258361212b565b9150612bcf82612b6a565b604082019050919050565b5f6020820190508181035f830152612bf181612bb8565b9050919050565b7f556e697377617056324c6962726172793a20494e53554646494349454e545f4c5f8201527f4951554944495459000000000000000000000000000000000000000000000000602082015250565b5f612c5260288361212b565b9150612c5d82612bf8565b604082019050919050565b5f6020820190508181035f830152612c7f81612c46565b9050919050565b7f556e697377617056324c6962726172793a204944454e544943414c5f414444525f8201527f4553534553000000000000000000000000000000000000000000000000000000602082015250565b5f612ce060258361212b565b9150612ceb82612c86565b604082019050919050565b5f6020820190508181035f830152612d0d81612cd4565b9050919050565b7f556e697377617056324c6962726172793a205a45524f5f4144445245535300005f82015250565b5f612d48601e8361212b565b9150612d5382612d14565b602082019050919050565b5f6020820190508181035f830152612d7581612d3c565b9050919050565b5f612d8682611d63565b9150612d9183611d63565b9250828202612d9f81611d63565b91508282048414831517612db657612db5612338565b5b5092915050565b7f64732d6d6174682d6d756c2d6f766572666c6f770000000000000000000000005f82015250565b5f612df160148361212b565b9150612dfc82612dbd565b602082019050919050565b5f6020820190508181035f830152612e1e81612de5565b905091905056fea2646970667358221220fb15e408d9cd9f9b6b7c4006a46494abfe6d8ef42ec0f59d94bc7cfab50d67e464736f6c634300081a0033",
			"opcodes": "PUSH1 0x80 PUSH1 0x40 MSTORE CALLVALUE DUP1 ISZERO PUSH1 0xE JUMPI PUSH0 DUP1 REVERT JUMPDEST POP PUSH2 0x2E5B DUP1 PUSH2 0x1C PUSH0 CODECOPY PUSH0 RETURN INVALID PUSH1 0x80 PUSH1 0x40 MSTORE CALLVALUE DUP1 ISZERO PUSH2 0xF JUMPI PUSH0 DUP1 REVERT JUMPDEST POP PUSH1 0x4 CALLDATASIZE LT PUSH2 0xB2 JUMPI PUSH0 CALLDATALOAD PUSH1 0xE0 SHR DUP1 PUSH4 0x59D0F713 GT PUSH2 0x6F JUMPI DUP1 PUSH4 0x59D0F713 EQ PUSH2 0x1A2 JUMPI DUP1 PUSH4 0x62D284B2 EQ PUSH2 0x1C0 JUMPI DUP1 PUSH4 0x80565655 EQ PUSH2 0x1CA JUMPI DUP1 PUSH4 0x9C8F9F23 EQ PUSH2 0x1E6 JUMPI DUP1 PUSH4 0xC54E44EB EQ PUSH2 0x202 JUMPI DUP1 PUSH4 0xFC0C546A EQ PUSH2 0x220 JUMPI PUSH2 0xB2 JUMP JUMPDEST DUP1 PUSH4 0x3FD2A45 EQ PUSH2 0xB6 JUMPI DUP1 PUSH4 0x1694505E EQ PUSH2 0xD4 JUMPI DUP1 PUSH4 0x313C06A0 EQ PUSH2 0xF2 JUMPI DUP1 PUSH4 0x35E344F2 EQ PUSH2 0x110 JUMPI DUP1 PUSH4 0x4AA06652 EQ PUSH2 0x140 JUMPI DUP1 PUSH4 0x51C6590A EQ PUSH2 0x170 JUMPI JUMPDEST PUSH0 DUP1 REVERT JUMPDEST PUSH2 0xBE PUSH2 0x23E JUMP JUMPDEST PUSH1 0x40 MLOAD PUSH2 0xCB SWAP2 SWAP1 PUSH2 0x1CE4 JUMP JUMPDEST PUSH1 0x40 MLOAD DUP1 SWAP2 SUB SWAP1 RETURN JUMPDEST PUSH2 0xDC PUSH2 0x244 JUMP JUMPDEST PUSH1 0x40 MLOAD PUSH2 0xE9 SWAP2 SWAP1 PUSH2 0x1CE4 JUMP JUMPDEST PUSH1 0x40 MLOAD DUP1 SWAP2 SUB SWAP1 RETURN JUMPDEST PUSH2 0xFA PUSH2 0x25C JUMP JUMPDEST PUSH1 0x40 MLOAD PUSH2 0x107 SWAP2 SWAP1 PUSH2 0x1CE4 JUMP JUMPDEST PUSH1 0x40 MLOAD DUP1 SWAP2 SUB SWAP1 RETURN JUMPDEST PUSH2 0x12A PUSH1 0x4 DUP1 CALLDATASIZE SUB DUP2 ADD SWAP1 PUSH2 0x125 SWAP2 SWAP1 PUSH2 0x1D38 JUMP JUMPDEST PUSH2 0x281 JUMP JUMPDEST PUSH1 0x40 MLOAD PUSH2 0x137 SWAP2 SWAP1 PUSH2 0x1D7B JUMP JUMPDEST PUSH1 0x40 MLOAD DUP1 SWAP2 SUB SWAP1 RETURN JUMPDEST PUSH2 0x15A PUSH1 0x4 DUP1 CALLDATASIZE SUB DUP2 ADD SWAP1 PUSH2 0x155 SWAP2 SWAP1 PUSH2 0x1DBE JUMP JUMPDEST PUSH2 0x296 JUMP JUMPDEST PUSH1 0x40 MLOAD PUSH2 0x167 SWAP2 SWAP1 PUSH2 0x1D7B JUMP JUMPDEST PUSH1 0x40 MLOAD DUP1 SWAP2 SUB SWAP1 RETURN JUMPDEST PUSH2 0x18A PUSH1 0x4 DUP1 CALLDATASIZE SUB DUP2 ADD SWAP1 PUSH2 0x185 SWAP2 SWAP1 PUSH2 0x1E0E JUMP JUMPDEST PUSH2 0x43C JUMP JUMPDEST PUSH1 0x40 MLOAD PUSH2 0x199 SWAP4 SWAP3 SWAP2 SWAP1 PUSH2 0x1E39 JUMP JUMPDEST PUSH1 0x40 MLOAD DUP1 SWAP2 SUB SWAP1 RETURN JUMPDEST PUSH2 0x1AA PUSH2 0x4D7 JUMP JUMPDEST PUSH1 0x40 MLOAD PUSH2 0x1B7 SWAP2 SWAP1 PUSH2 0x1CE4 JUMP JUMPDEST PUSH1 0x40 MLOAD DUP1 SWAP2 SUB SWAP1 RETURN JUMPDEST PUSH2 0x1C8 PUSH2 0x4EF JUMP JUMPDEST STOP JUMPDEST PUSH2 0x1E4 PUSH1 0x4 DUP1 CALLDATASIZE SUB DUP2 ADD SWAP1 PUSH2 0x1DF SWAP2 SWAP1 PUSH2 0x1E0E JUMP JUMPDEST PUSH2 0x602 JUMP JUMPDEST STOP JUMPDEST PUSH2 0x200 PUSH1 0x4 DUP1 CALLDATASIZE SUB DUP2 ADD SWAP1 PUSH2 0x1FB SWAP2 SWAP1 PUSH2 0x1E0E JUMP JUMPDEST PUSH2 0x9E1 JUMP JUMPDEST STOP JUMPDEST PUSH2 0x20A PUSH2 0xB8F JUMP JUMPDEST PUSH1 0x40 MLOAD PUSH2 0x217 SWAP2 SWAP1 PUSH2 0x1CE4 JUMP JUMPDEST PUSH1 0x40 MLOAD DUP1 SWAP2 SUB SWAP1 RETURN JUMPDEST PUSH2 0x228 PUSH2 0xBA7 JUMP JUMPDEST PUSH1 0x40 MLOAD PUSH2 0x235 SWAP2 SWAP1 PUSH2 0x1CE4 JUMP JUMPDEST PUSH1 0x40 MLOAD DUP1 SWAP2 SUB SWAP1 RETURN JUMPDEST PUSH2 0xDEAD DUP2 JUMP JUMPDEST PUSH20 0x10ED43C718714EB63D5AA57B78B54704E256024E DUP2 JUMP JUMPDEST PUSH1 0x1 PUSH0 SWAP1 SLOAD SWAP1 PUSH2 0x100 EXP SWAP1 DIV PUSH20 0xFFFFFFFFFFFFFFFFFFFFFFFFFFFFFFFFFFFFFFFF AND DUP2 JUMP JUMPDEST PUSH1 0x2 PUSH1 0x20 MSTORE DUP1 PUSH0 MSTORE PUSH1 0x40 PUSH0 KECCAK256 PUSH0 SWAP2 POP SWAP1 POP SLOAD DUP2 JUMP JUMPDEST PUSH0 DUP1 PUSH1 0x2 PUSH8 0xFFFFFFFFFFFFFFFF DUP2 GT ISZERO PUSH2 0x2B3 JUMPI PUSH2 0x2B2 PUSH2 0x1E6E JUMP JUMPDEST JUMPDEST PUSH1 0x40 MLOAD SWAP1 DUP1 DUP3 MSTORE DUP1 PUSH1 0x20 MUL PUSH1 0x20 ADD DUP3 ADD PUSH1 0x40 MSTORE DUP1 ISZERO PUSH2 0x2E1 JUMPI DUP2 PUSH1 0x20 ADD PUSH1 0x20 DUP3 MUL DUP1 CALLDATASIZE DUP4 CALLDATACOPY DUP1 DUP3 ADD SWAP2 POP POP SWAP1 POP JUMPDEST POP SWAP1 POP DUP5 DUP2 PUSH0 DUP2 MLOAD DUP2 LT PUSH2 0x2F8 JUMPI PUSH2 0x2F7 PUSH2 0x1E9B JUMP JUMPDEST JUMPDEST PUSH1 0x20 MUL PUSH1 0x20 ADD ADD SWAP1 PUSH20 0xFFFFFFFFFFFFFFFFFFFFFFFFFFFFFFFFFFFFFFFF AND SWAP1 DUP2 PUSH20 0xFFFFFFFFFFFFFFFFFFFFFFFFFFFFFFFFFFFFFFFF AND DUP2 MSTORE POP POP DUP4 DUP2 PUSH1 0x1 DUP2 MLOAD DUP2 LT PUSH2 0x347 JUMPI PUSH2 0x346 PUSH2 0x1E9B JUMP JUMPDEST JUMPDEST PUSH1 0x20 MUL PUSH1 0x20 ADD ADD SWAP1 PUSH20 0xFFFFFFFFFFFFFFFFFFFFFFFFFFFFFFFFFFFFFFFF AND SWAP1 DUP2 PUSH20 0xFFFFFFFFFFFFFFFFFFFFFFFFFFFFFFFFFFFFFFFF AND DUP2 MSTORE POP POP PUSH0 PUSH20 0x10ED43C718714EB63D5AA57B78B54704E256024E PUSH20 0xFFFFFFFFFFFFFFFFFFFFFFFFFFFFFFFFFFFFFFFF AND PUSH4 0xD06CA61F DUP6 DUP5 PUSH1 0x40 MLOAD DUP4 PUSH4 0xFFFFFFFF AND PUSH1 0xE0 SHL DUP2 MSTORE PUSH1 0x4 ADD PUSH2 0x3D1 SWAP3 SWAP2 SWAP1 PUSH2 0x1F7F JUMP JUMPDEST PUSH0 PUSH1 0x40 MLOAD DUP1 DUP4 SUB DUP2 DUP7 GAS STATICCALL ISZERO DUP1 ISZERO PUSH2 0x3EB JUMPI RETURNDATASIZE PUSH0 DUP1 RETURNDATACOPY RETURNDATASIZE PUSH0 REVERT JUMPDEST POP POP POP POP PUSH1 0x40 MLOAD RETURNDATASIZE PUSH0 DUP3 RETURNDATACOPY RETURNDATASIZE PUSH1 0x1F NOT PUSH1 0x1F DUP3 ADD AND DUP3 ADD DUP1 PUSH1 0x40 MSTORE POP DUP2 ADD SWAP1 PUSH2 0x413 SWAP2 SWAP1 PUSH2 0x20E4 JUMP JUMPDEST SWAP1 POP DUP1 PUSH1 0x1 DUP2 MLOAD DUP2 LT PUSH2 0x429 JUMPI PUSH2 0x428 PUSH2 0x1E9B JUMP JUMPDEST JUMPDEST PUSH1 0x20 MUL PUSH1 0x20 ADD ADD MLOAD SWAP3 POP POP POP SWAP4 SWAP3 POP POP POP JUMP JUMPDEST PUSH0 DUP1 PUSH0 DUP1 PUSH2 0x47E PUSH0 DUP1 SLOAD SWAP1 PUSH2 0x100 EXP SWAP1 DIV PUSH20 0xFFFFFFFFFFFFFFFFFFFFFFFFFFFFFFFFFFFFFFFF AND PUSH20 0x55D398326F99059FF775485246999027B3197955 DUP8 PUSH2 0x296 JUMP JUMPDEST SWAP1 POP PUSH2 0x4C3 PUSH0 DUP1 SLOAD SWAP1 PUSH2 0x100 EXP SWAP1 DIV PUSH20 0xFFFFFFFFFFFFFFFFFFFFFFFFFFFFFFFFFFFFFFFF AND PUSH20 0x55D398326F99059FF775485246999027B3197955 DUP8 DUP5 PUSH0 DUP1 CALLER TIMESTAMP PUSH2 0xBCA JUMP JUMPDEST DUP1 SWAP5 POP DUP2 SWAP6 POP DUP3 SWAP7 POP POP POP POP POP SWAP2 SWAP4 SWAP1 SWAP3 POP JUMP JUMPDEST PUSH20 0xCA143CE32FE78F1F7019D7D551A6402FC5350C73 DUP2 JUMP JUMPDEST PUSH0 PUSH1 0x2 PUSH0 CALLER PUSH20 0xFFFFFFFFFFFFFFFFFFFFFFFFFFFFFFFFFFFFFFFF AND PUSH20 0xFFFFFFFFFFFFFFFFFFFFFFFFFFFFFFFFFFFFFFFF AND DUP2 MSTORE PUSH1 0x20 ADD SWAP1 DUP2 MSTORE PUSH1 0x20 ADD PUSH0 KECCAK256 SLOAD SWAP1 POP PUSH0 DUP2 GT PUSH2 0x572 JUMPI PUSH1 0x40 MLOAD PUSH32 0x8C379A000000000000000000000000000000000000000000000000000000000 DUP2 MSTORE PUSH1 0x4 ADD PUSH2 0x569 SWAP1 PUSH2 0x2185 JUMP JUMPDEST PUSH1 0x40 MLOAD DUP1 SWAP2 SUB SWAP1 REVERT JUMPDEST PUSH0 PUSH1 0x2 PUSH0 CALLER PUSH20 0xFFFFFFFFFFFFFFFFFFFFFFFFFFFFFFFFFFFFFFFF AND PUSH20 0xFFFFFFFFFFFFFFFFFFFFFFFFFFFFFFFFFFFFFFFF AND DUP2 MSTORE PUSH1 0x20 ADD SWAP1 DUP2 MSTORE PUSH1 0x20 ADD PUSH0 KECCAK256 DUP2 SWAP1 SSTORE POP PUSH0 DUP1 PUSH2 0x5BF DUP4 PUSH2 0xCEC JUMP JUMPDEST SWAP2 POP SWAP2 POP PUSH0 DUP3 GT ISZERO PUSH2 0x5EB JUMPI PUSH2 0x5EA PUSH20 0x55D398326F99059FF775485246999027B3197955 CALLER DUP5 PUSH2 0xE02 JUMP JUMPDEST JUMPDEST PUSH0 DUP2 GT ISZERO PUSH2 0x5FD JUMPI PUSH2 0x5FC DUP2 PUSH2 0xF32 JUMP JUMPDEST JUMPDEST POP POP POP JUMP JUMPDEST PUSH2 0x622 PUSH20 0x55D398326F99059FF775485246999027B3197955 CALLER ADDRESS DUP5 PUSH2 0xFD3 JUMP JUMPDEST PUSH0 PUSH2 0x661 PUSH20 0x55D398326F99059FF775485246999027B3197955 PUSH0 DUP1 SLOAD SWAP1 PUSH2 0x100 EXP SWAP1 DIV PUSH20 0xFFFFFFFFFFFFFFFFFFFFFFFFFFFFFFFFFFFFFFFF AND DUP5 PUSH2 0x296 JUMP JUMPDEST SWAP1 POP PUSH0 DUP1 SLOAD SWAP1 PUSH2 0x100 EXP SWAP1 DIV PUSH20 0xFFFFFFFFFFFFFFFFFFFFFFFFFFFFFFFFFFFFFFFF AND PUSH20 0xFFFFFFFFFFFFFFFFFFFFFFFFFFFFFFFFFFFFFFFF AND PUSH4 0x40C10F19 ADDRESS DUP4 PUSH1 0x40 MLOAD DUP4 PUSH4 0xFFFFFFFF AND PUSH1 0xE0 SHL DUP2 MSTORE PUSH1 0x4 ADD PUSH2 0x6BD SWAP3 SWAP2 SWAP1 PUSH2 0x21A3 JUMP JUMPDEST PUSH0 PUSH1 0x40 MLOAD DUP1 DUP4 SUB DUP2 PUSH0 DUP8 DUP1 EXTCODESIZE ISZERO DUP1 ISZERO PUSH2 0x6D4 JUMPI PUSH0 DUP1 REVERT JUMPDEST POP GAS CALL ISZERO DUP1 ISZERO PUSH2 0x6E6 JUMPI RETURNDATASIZE PUSH0 DUP1 RETURNDATACOPY RETURNDATASIZE PUSH0 REVERT JUMPDEST POP POP POP POP PUSH20 0x55D398326F99059FF775485246999027B3197955 PUSH20 0xFFFFFFFFFFFFFFFFFFFFFFFFFFFFFFFFFFFFFFFF AND PUSH4 0x95EA7B3 PUSH20 0x10ED43C718714EB63D5AA57B78B54704E256024E DUP5 PUSH1 0x40 MLOAD DUP4 PUSH4 0xFFFFFFFF AND PUSH1 0xE0 SHL DUP2 MSTORE PUSH1 0x4 ADD PUSH2 0x74D SWAP3 SWAP2 SWAP1 PUSH2 0x21A3 JUMP JUMPDEST PUSH1 0x20 PUSH1 0x40 MLOAD DUP1 DUP4 SUB DUP2 PUSH0 DUP8 GAS CALL ISZERO DUP1 ISZERO PUSH2 0x769 JUMPI RETURNDATASIZE PUSH0 DUP1 RETURNDATACOPY RETURNDATASIZE PUSH0 REVERT JUMPDEST POP POP POP POP PUSH1 0x40 MLOAD RETURNDATASIZE PUSH1 0x1F NOT PUSH1 0x1F DUP3 ADD AND DUP3 ADD DUP1 PUSH1 0x40 MSTORE POP DUP2 ADD SWAP1 PUSH2 0x78D SWAP2 SWAP1 PUSH2 0x21FF JUMP JUMPDEST POP PUSH0 DUP1 SLOAD SWAP1 PUSH2 0x100 EXP SWAP1 DIV PUSH20 0xFFFFFFFFFFFFFFFFFFFFFFFFFFFFFFFFFFFFFFFF AND PUSH20 0xFFFFFFFFFFFFFFFFFFFFFFFFFFFFFFFFFFFFFFFF AND PUSH4 0x95EA7B3 PUSH20 0x10ED43C718714EB63D5AA57B78B54704E256024E DUP4 PUSH1 0x40 MLOAD DUP4 PUSH4 0xFFFFFFFF AND PUSH1 0xE0 SHL DUP2 MSTORE PUSH1 0x4 ADD PUSH2 0x7FC SWAP3 SWAP2 SWAP1 PUSH2 0x21A3 JUMP JUMPDEST PUSH1 0x20 PUSH1 0x40 MLOAD DUP1 DUP4 SUB DUP2 PUSH0 DUP8 GAS CALL ISZERO DUP1 ISZERO PUSH2 0x818 JUMPI RETURNDATASIZE PUSH0 DUP1 RETURNDATACOPY RETURNDATASIZE PUSH0 REVERT JUMPDEST POP POP POP POP PUSH1 0x40 MLOAD RETURNDATASIZE PUSH1 0x1F NOT PUSH1 0x1F DUP3 ADD AND DUP3 ADD DUP1 PUSH1 0x40 MSTORE POP DUP2 ADD SWAP1 PUSH2 0x83C SWAP2 SWAP1 PUSH2 0x21FF JUMP JUMPDEST POP PUSH0 DUP1 PUSH0 PUSH20 0x10ED43C718714EB63D5AA57B78B54704E256024E PUSH20 0xFFFFFFFFFFFFFFFFFFFFFFFFFFFFFFFFFFFFFFFF AND PUSH4 0xE8E33700 PUSH0 DUP1 SLOAD SWAP1 PUSH2 0x100 EXP SWAP1 DIV PUSH20 0xFFFFFFFFFFFFFFFFFFFFFFFFFFFFFFFFFFFFFFFF AND PUSH20 0x55D398326F99059FF775485246999027B3197955 DUP8 DUP10 PUSH0 DUP1 ADDRESS TIMESTAMP PUSH1 0x40 MLOAD DUP10 PUSH4 0xFFFFFFFF AND PUSH1 0xE0 SHL DUP2 MSTORE PUSH1 0x4 ADD PUSH2 0x8CE SWAP9 SWAP8 SWAP7 SWAP6 SWAP5 SWAP4 SWAP3 SWAP2 SWAP1 PUSH2 0x226C JUMP JUMPDEST PUSH1 0x60 PUSH1 0x40 MLOAD DUP1 DUP4 SUB DUP2 PUSH0 DUP8 GAS CALL ISZERO DUP1 ISZERO PUSH2 0x8EA JUMPI RETURNDATASIZE PUSH0 DUP1 RETURNDATACOPY RETURNDATASIZE PUSH0 REVERT JUMPDEST POP POP POP POP PUSH1 0x40 MLOAD RETURNDATASIZE PUSH1 0x1F NOT PUSH1 0x1F DUP3 ADD AND DUP3 ADD DUP1 PUSH1 0x40 MSTORE POP DUP2 ADD SWAP1 PUSH2 0x90E SWAP2 SWAP1 PUSH2 0x22E8 JUMP JUMPDEST SWAP3 POP SWAP3 POP SWAP3 POP DUP1 PUSH1 0x2 PUSH0 CALLER PUSH20 0xFFFFFFFFFFFFFFFFFFFFFFFFFFFFFFFFFFFFFFFF AND PUSH20 0xFFFFFFFFFFFFFFFFFFFFFFFFFFFFFFFFFFFFFFFF AND DUP2 MSTORE PUSH1 0x20 ADD SWAP1 DUP2 MSTORE PUSH1 0x20 ADD PUSH0 KECCAK256 PUSH0 DUP3 DUP3 SLOAD PUSH2 0x960 SWAP2 SWAP1 PUSH2 0x2365 JUMP JUMPDEST SWAP3 POP POP DUP2 SWAP1 SSTORE POP DUP2 DUP6 GT ISZERO PUSH2 0x99A JUMPI PUSH2 0x999 PUSH20 0x55D398326F99059FF775485246999027B3197955 CALLER DUP5 DUP9 PUSH2 0x994 SWAP2 SWAP1 PUSH2 0x2398 JUMP JUMPDEST PUSH2 0xE02 JUMP JUMPDEST JUMPDEST DUP3 DUP5 GT ISZERO PUSH2 0x9DA JUMPI PUSH2 0x9D9 PUSH0 DUP1 SLOAD SWAP1 PUSH2 0x100 EXP SWAP1 DIV PUSH20 0xFFFFFFFFFFFFFFFFFFFFFFFFFFFFFFFFFFFFFFFF AND PUSH2 0xDEAD DUP6 DUP8 PUSH2 0x9D4 SWAP2 SWAP1 PUSH2 0x2398 JUMP JUMPDEST PUSH2 0xE02 JUMP JUMPDEST JUMPDEST POP POP POP POP POP JUMP JUMPDEST PUSH2 0xA0E PUSH1 0x1 PUSH0 SWAP1 SLOAD SWAP1 PUSH2 0x100 EXP SWAP1 DIV PUSH20 0xFFFFFFFFFFFFFFFFFFFFFFFFFFFFFFFFFFFFFFFF AND CALLER ADDRESS DUP5 PUSH2 0xFD3 JUMP JUMPDEST PUSH1 0x1 PUSH0 SWAP1 SLOAD SWAP1 PUSH2 0x100 EXP SWAP1 DIV PUSH20 0xFFFFFFFFFFFFFFFFFFFFFFFFFFFFFFFFFFFFFFFF AND PUSH20 0xFFFFFFFFFFFFFFFFFFFFFFFFFFFFFFFFFFFFFFFF AND PUSH4 0x95EA7B3 PUSH20 0x10ED43C718714EB63D5AA57B78B54704E256024E DUP4 PUSH1 0x40 MLOAD DUP4 PUSH4 0xFFFFFFFF AND PUSH1 0xE0 SHL DUP2 MSTORE PUSH1 0x4 ADD PUSH2 0xA7E SWAP3 SWAP2 SWAP1 PUSH2 0x21A3 JUMP JUMPDEST PUSH1 0x20 PUSH1 0x40 MLOAD DUP1 DUP4 SUB DUP2 PUSH0 DUP8 GAS CALL ISZERO DUP1 ISZERO PUSH2 0xA9A JUMPI RETURNDATASIZE PUSH0 DUP1 RETURNDATACOPY RETURNDATASIZE PUSH0 REVERT JUMPDEST POP POP POP POP PUSH1 0x40 MLOAD RETURNDATASIZE PUSH1 0x1F NOT PUSH1 0x1F DUP3 ADD AND DUP3 ADD DUP1 PUSH1 0x40 MSTORE POP DUP2 ADD SWAP1 PUSH2 0xABE SWAP2 SWAP1 PUSH2 0x21FF JUMP JUMPDEST POP PUSH20 0x10ED43C718714EB63D5AA57B78B54704E256024E PUSH20 0xFFFFFFFFFFFFFFFFFFFFFFFFFFFFFFFFFFFFFFFF AND PUSH4 0xBAA2ABDE PUSH20 0x55D398326F99059FF775485246999027B3197955 PUSH0 DUP1 SLOAD SWAP1 PUSH2 0x100 EXP SWAP1 DIV PUSH20 0xFFFFFFFFFFFFFFFFFFFFFFFFFFFFFFFFFFFFFFFF AND DUP5 PUSH0 DUP1 CALLER TIMESTAMP PUSH1 0x40 MLOAD DUP9 PUSH4 0xFFFFFFFF AND PUSH1 0xE0 SHL DUP2 MSTORE PUSH1 0x4 ADD PUSH2 0xB4B SWAP8 SWAP7 SWAP6 SWAP5 SWAP4 SWAP3 SWAP2 SWAP1 PUSH2 0x23CB JUMP JUMPDEST PUSH1 0x40 DUP1 MLOAD DUP1 DUP4 SUB DUP2 PUSH0 DUP8 GAS CALL ISZERO DUP1 ISZERO PUSH2 0xB66 JUMPI RETURNDATASIZE PUSH0 DUP1 RETURNDATACOPY RETURNDATASIZE PUSH0 REVERT JUMPDEST POP POP POP POP PUSH1 0x40 MLOAD RETURNDATASIZE PUSH1 0x1F NOT PUSH1 0x1F DUP3 ADD AND DUP3 ADD DUP1 PUSH1 0x40 MSTORE POP DUP2 ADD SWAP1 PUSH2 0xB8A SWAP2 SWAP1 PUSH2 0x2438 JUMP JUMPDEST POP POP POP JUMP JUMPDEST PUSH20 0x55D398326F99059FF775485246999027B3197955 DUP2 JUMP JUMPDEST PUSH0 DUP1 SLOAD SWAP1 PUSH2 0x100 EXP SWAP1 DIV PUSH20 0xFFFFFFFFFFFFFFFFFFFFFFFFFFFFFFFFFFFFFFFF AND DUP2 JUMP JUMPDEST PUSH0 DUP1 PUSH0 DUP4 TIMESTAMP DUP2 LT ISZERO PUSH2 0xC11 JUMPI PUSH1 0x40 MLOAD PUSH32 0x8C379A000000000000000000000000000000000000000000000000000000000 DUP2 MSTORE PUSH1 0x4 ADD PUSH2 0xC08 SWAP1 PUSH2 0x24C0 JUMP JUMPDEST PUSH1 0x40 MLOAD DUP1 SWAP2 SUB SWAP1 REVERT JUMPDEST PUSH2 0xC1F DUP13 DUP13 DUP13 DUP13 DUP13 DUP13 PUSH2 0x1106 JUMP JUMPDEST DUP1 SWAP5 POP DUP2 SWAP6 POP POP POP PUSH0 PUSH2 0xC47 PUSH20 0xCA143CE32FE78F1F7019D7D551A6402FC5350C73 DUP15 DUP15 PUSH2 0x1384 JUMP JUMPDEST SWAP1 POP PUSH2 0xC55 DUP14 CALLER DUP4 DUP9 PUSH2 0xFD3 JUMP JUMPDEST PUSH2 0xC61 DUP13 CALLER DUP4 DUP8 PUSH2 0xFD3 JUMP JUMPDEST DUP1 PUSH20 0xFFFFFFFFFFFFFFFFFFFFFFFFFFFFFFFFFFFFFFFF AND PUSH4 0x6A627842 DUP9 PUSH1 0x40 MLOAD DUP3 PUSH4 0xFFFFFFFF AND PUSH1 0xE0 SHL DUP2 MSTORE PUSH1 0x4 ADD PUSH2 0xC9A SWAP2 SWAP1 PUSH2 0x1CE4 JUMP JUMPDEST PUSH1 0x20 PUSH1 0x40 MLOAD DUP1 DUP4 SUB DUP2 PUSH0 DUP8 GAS CALL ISZERO DUP1 ISZERO PUSH2 0xCB6 JUMPI RETURNDATASIZE PUSH0 DUP1 RETURNDATACOPY RETURNDATASIZE PUSH0 REVERT JUMPDEST POP POP POP POP PUSH1 0x40 MLOAD RETURNDATASIZE PUSH1 0x1F NOT PUSH1 0x1F DUP3 ADD AND DUP3 ADD DUP1 PUSH1 0x40 MSTORE POP DUP2 ADD SWAP1 PUSH2 0xCDA SWAP2 SWAP1 PUSH2 0x24DE JUMP JUMPDEST SWAP3 POP POP POP SWAP9 POP SWAP9 POP SWAP9 SWAP6 POP POP POP POP POP POP JUMP JUMPDEST PUSH0 DUP1 PUSH2 0xD2E PUSH1 0x1 PUSH0 SWAP1 SLOAD SWAP1 PUSH2 0x100 EXP SWAP1 DIV PUSH20 0xFFFFFFFFFFFFFFFFFFFFFFFFFFFFFFFFFFFFFFFF AND PUSH20 0x10ED43C718714EB63D5AA57B78B54704E256024E DUP6 PUSH2 0x13F3 JUMP JUMPDEST PUSH20 0x10ED43C718714EB63D5AA57B78B54704E256024E PUSH20 0xFFFFFFFFFFFFFFFFFFFFFFFFFFFFFFFFFFFFFFFF AND PUSH4 0xBAA2ABDE PUSH20 0x55D398326F99059FF775485246999027B3197955 PUSH0 DUP1 SLOAD SWAP1 PUSH2 0x100 EXP SWAP1 DIV PUSH20 0xFFFFFFFFFFFFFFFFFFFFFFFFFFFFFFFFFFFFFFFF AND DUP7 PUSH0 DUP1 ADDRESS TIMESTAMP PUSH1 0x40 MLOAD DUP9 PUSH4 0xFFFFFFFF AND PUSH1 0xE0 SHL DUP2 MSTORE PUSH1 0x4 ADD PUSH2 0xDBA SWAP8 SWAP7 SWAP6 SWAP5 SWAP4 SWAP3 SWAP2 SWAP1 PUSH2 0x23CB JUMP JUMPDEST PUSH1 0x40 DUP1 MLOAD DUP1 DUP4 SUB DUP2 PUSH0 DUP8 GAS CALL ISZERO DUP1 ISZERO PUSH2 0xDD5 JUMPI RETURNDATASIZE PUSH0 DUP1 RETURNDATACOPY RETURNDATASIZE PUSH0 REVERT JUMPDEST POP POP POP POP PUSH1 0x40 MLOAD RETURNDATASIZE PUSH1 0x1F NOT PUSH1 0x1F DUP3 ADD AND DUP3 ADD DUP1 PUSH1 0x40 MSTORE POP DUP2 ADD SWAP1 PUSH2 0xDF9 SWAP2 SWAP1 PUSH2 0x2438 JUMP JUMPDEST SWAP2 POP SWAP2 POP SWAP2 POP SWAP2 JUMP JUMPDEST PUSH0 DUP1 DUP5 PUSH20 0xFFFFFFFFFFFFFFFFFFFFFFFFFFFFFFFFFFFFFFFF AND PUSH4 0xA9059CBB DUP6 DUP6 PUSH1 0x40 MLOAD PUSH1 0x24 ADD PUSH2 0xE33 SWAP3 SWAP2 SWAP1 PUSH2 0x21A3 JUMP JUMPDEST PUSH1 0x40 MLOAD PUSH1 0x20 DUP2 DUP4 SUB SUB DUP2 MSTORE SWAP1 PUSH1 0x40 MSTORE SWAP1 PUSH1 0xE0 SHL PUSH1 0x20 DUP3 ADD DUP1 MLOAD PUSH28 0xFFFFFFFFFFFFFFFFFFFFFFFFFFFFFFFFFFFFFFFFFFFFFFFFFFFFFFFF DUP4 DUP2 DUP4 AND OR DUP4 MSTORE POP POP POP POP PUSH1 0x40 MLOAD PUSH2 0xE81 SWAP2 SWAP1 PUSH2 0x255B JUMP JUMPDEST PUSH0 PUSH1 0x40 MLOAD DUP1 DUP4 SUB DUP2 PUSH0 DUP7 GAS CALL SWAP2 POP POP RETURNDATASIZE DUP1 PUSH0 DUP2 EQ PUSH2 0xEBA JUMPI PUSH1 0x40 MLOAD SWAP2 POP PUSH1 0x1F NOT PUSH1 0x3F RETURNDATASIZE ADD AND DUP3 ADD PUSH1 0x40 MSTORE RETURNDATASIZE DUP3 MSTORE RETURNDATASIZE PUSH0 PUSH1 0x20 DUP5 ADD RETURNDATACOPY PUSH2 0xEBF JUMP JUMPDEST PUSH1 0x60 SWAP2 POP JUMPDEST POP SWAP2 POP SWAP2 POP DUP2 DUP1 ISZERO PUSH2 0xEEC JUMPI POP PUSH0 DUP2 MLOAD EQ DUP1 PUSH2 0xEEB JUMPI POP DUP1 DUP1 PUSH1 0x20 ADD SWAP1 MLOAD DUP2 ADD SWAP1 PUSH2 0xEEA SWAP2 SWAP1 PUSH2 0x21FF JUMP JUMPDEST JUMPDEST JUMPDEST PUSH2 0xF2B JUMPI PUSH1 0x40 MLOAD PUSH32 0x8C379A000000000000000000000000000000000000000000000000000000000 DUP2 MSTORE PUSH1 0x4 ADD PUSH2 0xF22 SWAP1 PUSH2 0x25BB JUMP JUMPDEST PUSH1 0x40 MLOAD DUP1 SWAP2 SUB SWAP1 REVERT JUMPDEST POP POP POP POP POP JUMP JUMPDEST PUSH0 PUSH1 0x2 DUP3 PUSH2 0xF40 SWAP2 SWAP1 PUSH2 0x2606 JUMP JUMPDEST SWAP1 POP PUSH0 DUP2 DUP4 PUSH2 0xF4F SWAP2 SWAP1 PUSH2 0x2398 JUMP JUMPDEST SWAP1 POP PUSH2 0xF7D PUSH0 DUP1 SLOAD SWAP1 PUSH2 0x100 EXP SWAP1 DIV PUSH20 0xFFFFFFFFFFFFFFFFFFFFFFFFFFFFFFFFFFFFFFFF AND PUSH2 0xDEAD DUP5 PUSH2 0xE02 JUMP JUMPDEST PUSH0 PUSH2 0xF87 DUP3 PUSH2 0x14F0 JUMP JUMPDEST SWAP1 POP PUSH0 DUP2 GT ISZERO PUSH2 0xFA0 JUMPI PUSH2 0xF9B DUP3 DUP3 PUSH2 0x1812 JUMP JUMPDEST PUSH2 0xFCD JUMP JUMPDEST PUSH2 0xFCC PUSH0 DUP1 SLOAD SWAP1 PUSH2 0x100 EXP SWAP1 DIV PUSH20 0xFFFFFFFFFFFFFFFFFFFFFFFFFFFFFFFFFFFFFFFF AND PUSH2 0xDEAD DUP5 PUSH2 0xE02 JUMP JUMPDEST JUMPDEST POP POP POP POP JUMP JUMPDEST PUSH0 DUP1 DUP6 PUSH20 0xFFFFFFFFFFFFFFFFFFFFFFFFFFFFFFFFFFFFFFFF AND PUSH4 0x23B872DD DUP7 DUP7 DUP7 PUSH1 0x40 MLOAD PUSH1 0x24 ADD PUSH2 0x1006 SWAP4 SWAP3 SWAP2 SWAP1 PUSH2 0x2636 JUMP JUMPDEST PUSH1 0x40 MLOAD PUSH1 0x20 DUP2 DUP4 SUB SUB DUP2 MSTORE SWAP1 PUSH1 0x40 MSTORE SWAP1 PUSH1 0xE0 SHL PUSH1 0x20 DUP3 ADD DUP1 MLOAD PUSH28 0xFFFFFFFFFFFFFFFFFFFFFFFFFFFFFFFFFFFFFFFFFFFFFFFFFFFFFFFF DUP4 DUP2 DUP4 AND OR DUP4 MSTORE POP POP POP POP PUSH1 0x40 MLOAD PUSH2 0x1054 SWAP2 SWAP1 PUSH2 0x255B JUMP JUMPDEST PUSH0 PUSH1 0x40 MLOAD DUP1 DUP4 SUB DUP2 PUSH0 DUP7 GAS CALL SWAP2 POP POP RETURNDATASIZE DUP1 PUSH0 DUP2 EQ PUSH2 0x108D JUMPI PUSH1 0x40 MLOAD SWAP2 POP PUSH1 0x1F NOT PUSH1 0x3F RETURNDATASIZE ADD AND DUP3 ADD PUSH1 0x40 MSTORE RETURNDATASIZE DUP3 MSTORE RETURNDATASIZE PUSH0 PUSH1 0x20 DUP5 ADD RETURNDATACOPY PUSH2 0x1092 JUMP JUMPDEST PUSH1 0x60 SWAP2 POP JUMPDEST POP SWAP2 POP SWAP2 POP DUP2 DUP1 ISZERO PUSH2 0x10BF JUMPI POP PUSH0 DUP2 MLOAD EQ DUP1 PUSH2 0x10BE JUMPI POP DUP1 DUP1 PUSH1 0x20 ADD SWAP1 MLOAD DUP2 ADD SWAP1 PUSH2 0x10BD SWAP2 SWAP1 PUSH2 0x21FF JUMP JUMPDEST JUMPDEST JUMPDEST PUSH2 0x10FE JUMPI PUSH1 0x40 MLOAD PUSH32 0x8C379A000000000000000000000000000000000000000000000000000000000 DUP2 MSTORE PUSH1 0x4 ADD PUSH2 0x10F5 SWAP1 PUSH2 0x26DB JUMP JUMPDEST PUSH1 0x40 MLOAD DUP1 SWAP2 SUB SWAP1 REVERT JUMPDEST POP POP POP POP POP POP JUMP JUMPDEST PUSH0 DUP1 PUSH0 PUSH20 0xFFFFFFFFFFFFFFFFFFFFFFFFFFFFFFFFFFFFFFFF AND PUSH20 0xCA143CE32FE78F1F7019D7D551A6402FC5350C73 PUSH20 0xFFFFFFFFFFFFFFFFFFFFFFFFFFFFFFFFFFFFFFFF AND PUSH4 0xE6A43905 DUP11 DUP11 PUSH1 0x40 MLOAD DUP4 PUSH4 0xFFFFFFFF AND PUSH1 0xE0 SHL DUP2 MSTORE PUSH1 0x4 ADD PUSH2 0x116E SWAP3 SWAP2 SWAP1 PUSH2 0x26F9 JUMP JUMPDEST PUSH1 0x20 PUSH1 0x40 MLOAD DUP1 DUP4 SUB DUP2 DUP7 GAS STATICCALL ISZERO DUP1 ISZERO PUSH2 0x1189 JUMPI RETURNDATASIZE PUSH0 DUP1 RETURNDATACOPY RETURNDATASIZE PUSH0 REVERT JUMPDEST POP POP POP POP PUSH1 0x40 MLOAD RETURNDATASIZE PUSH1 0x1F NOT PUSH1 0x1F DUP3 ADD AND DUP3 ADD DUP1 PUSH1 0x40 MSTORE POP DUP2 ADD SWAP1 PUSH2 0x11AD SWAP2 SWAP1 PUSH2 0x2734 JUMP JUMPDEST PUSH20 0xFFFFFFFFFFFFFFFFFFFFFFFFFFFFFFFFFFFFFFFF AND SUB PUSH2 0x1259 JUMPI PUSH20 0xCA143CE32FE78F1F7019D7D551A6402FC5350C73 PUSH20 0xFFFFFFFFFFFFFFFFFFFFFFFFFFFFFFFFFFFFFFFF AND PUSH4 0xC9C65396 DUP10 DUP10 PUSH1 0x40 MLOAD DUP4 PUSH4 0xFFFFFFFF AND PUSH1 0xE0 SHL DUP2 MSTORE PUSH1 0x4 ADD PUSH2 0x1217 SWAP3 SWAP2 SWAP1 PUSH2 0x26F9 JUMP JUMPDEST PUSH1 0x20 PUSH1 0x40 MLOAD DUP1 DUP4 SUB DUP2 PUSH0 DUP8 GAS CALL ISZERO DUP1 ISZERO PUSH2 0x1233 JUMPI RETURNDATASIZE PUSH0 DUP1 RETURNDATACOPY RETURNDATASIZE PUSH0 REVERT JUMPDEST POP POP POP POP PUSH1 0x40 MLOAD RETURNDATASIZE PUSH1 0x1F NOT PUSH1 0x1F DUP3 ADD AND DUP3 ADD DUP1 PUSH1 0x40 MSTORE POP DUP2 ADD SWAP1 PUSH2 0x1257 SWAP2 SWAP1 PUSH2 0x2734 JUMP JUMPDEST POP JUMPDEST PUSH0 DUP1 PUSH2 0x127A PUSH20 0xCA143CE32FE78F1F7019D7D551A6402FC5350C73 DUP12 DUP12 PUSH2 0x195A JUMP JUMPDEST SWAP2 POP SWAP2 POP PUSH0 DUP3 EQ DUP1 ISZERO PUSH2 0x128C JUMPI POP PUSH0 DUP2 EQ JUMPDEST ISZERO PUSH2 0x12A0 JUMPI DUP8 DUP8 DUP1 SWAP5 POP DUP2 SWAP6 POP POP POP PUSH2 0x1377 JUMP JUMPDEST PUSH0 PUSH2 0x12AC DUP10 DUP5 DUP5 PUSH2 0x1A58 JUMP JUMPDEST SWAP1 POP DUP8 DUP2 GT PUSH2 0x1307 JUMPI DUP6 DUP2 LT ISZERO PUSH2 0x12F8 JUMPI PUSH1 0x40 MLOAD PUSH32 0x8C379A000000000000000000000000000000000000000000000000000000000 DUP2 MSTORE PUSH1 0x4 ADD PUSH2 0x12EF SWAP1 PUSH2 0x27CF JUMP JUMPDEST PUSH1 0x40 MLOAD DUP1 SWAP2 SUB SWAP1 REVERT JUMPDEST DUP9 DUP2 DUP1 SWAP6 POP DUP2 SWAP7 POP POP POP PUSH2 0x1375 JUMP JUMPDEST PUSH0 PUSH2 0x1313 DUP10 DUP5 DUP7 PUSH2 0x1A58 JUMP JUMPDEST SWAP1 POP DUP10 DUP2 GT ISZERO PUSH2 0x1326 JUMPI PUSH2 0x1325 PUSH2 0x27ED JUMP JUMPDEST JUMPDEST DUP8 DUP2 LT ISZERO PUSH2 0x1369 JUMPI PUSH1 0x40 MLOAD PUSH32 0x8C379A000000000000000000000000000000000000000000000000000000000 DUP2 MSTORE PUSH1 0x4 ADD PUSH2 0x1360 SWAP1 PUSH2 0x288A JUMP JUMPDEST PUSH1 0x40 MLOAD DUP1 SWAP2 SUB SWAP1 REVERT JUMPDEST DUP1 DUP10 DUP1 SWAP7 POP DUP2 SWAP8 POP POP POP POP JUMPDEST POP JUMPDEST POP POP SWAP7 POP SWAP7 SWAP5 POP POP POP POP POP JUMP JUMPDEST PUSH0 DUP1 PUSH0 PUSH2 0x1391 DUP6 DUP6 PUSH2 0x1B0F JUMP JUMPDEST SWAP2 POP SWAP2 POP DUP6 DUP3 DUP3 PUSH1 0x40 MLOAD PUSH1 0x20 ADD PUSH2 0x13A9 SWAP3 SWAP2 SWAP1 PUSH2 0x28ED JUMP JUMPDEST PUSH1 0x40 MLOAD PUSH1 0x20 DUP2 DUP4 SUB SUB DUP2 MSTORE SWAP1 PUSH1 0x40 MSTORE DUP1 MLOAD SWAP1 PUSH1 0x20 ADD KECCAK256 PUSH1 0x40 MLOAD PUSH1 0x20 ADD PUSH2 0x13D0 SWAP3 SWAP2 SWAP1 PUSH2 0x29DE JUMP JUMPDEST PUSH1 0x40 MLOAD PUSH1 0x20 DUP2 DUP4 SUB SUB DUP2 MSTORE SWAP1 PUSH1 0x40 MSTORE DUP1 MLOAD SWAP1 PUSH1 0x20 ADD KECCAK256 PUSH0 SHR SWAP3 POP POP POP SWAP4 SWAP3 POP POP POP JUMP JUMPDEST DUP3 PUSH20 0xFFFFFFFFFFFFFFFFFFFFFFFFFFFFFFFFFFFFFFFF AND PUSH4 0x95EA7B3 DUP4 PUSH0 PUSH1 0x40 MLOAD DUP4 PUSH4 0xFFFFFFFF AND PUSH1 0xE0 SHL DUP2 MSTORE PUSH1 0x4 ADD PUSH2 0x142E SWAP3 SWAP2 SWAP1 PUSH2 0x2A1F JUMP JUMPDEST PUSH1 0x20 PUSH1 0x40 MLOAD DUP1 DUP4 SUB DUP2 PUSH0 DUP8 GAS CALL ISZERO DUP1 ISZERO PUSH2 0x144A JUMPI RETURNDATASIZE PUSH0 DUP1 RETURNDATACOPY RETURNDATASIZE PUSH0 REVERT JUMPDEST POP POP POP POP PUSH1 0x40 MLOAD RETURNDATASIZE PUSH1 0x1F NOT PUSH1 0x1F DUP3 ADD AND DUP3 ADD DUP1 PUSH1 0x40 MSTORE POP DUP2 ADD SWAP1 PUSH2 0x146E SWAP2 SWAP1 PUSH2 0x21FF JUMP JUMPDEST POP DUP3 PUSH20 0xFFFFFFFFFFFFFFFFFFFFFFFFFFFFFFFFFFFFFFFF AND PUSH4 0x95EA7B3 DUP4 DUP4 PUSH1 0x40 MLOAD DUP4 PUSH4 0xFFFFFFFF AND PUSH1 0xE0 SHL DUP2 MSTORE PUSH1 0x4 ADD PUSH2 0x14AA SWAP3 SWAP2 SWAP1 PUSH2 0x21A3 JUMP JUMPDEST PUSH1 0x20 PUSH1 0x40 MLOAD DUP1 DUP4 SUB DUP2 PUSH0 DUP8 GAS CALL ISZERO DUP1 ISZERO PUSH2 0x14C6 JUMPI RETURNDATASIZE PUSH0 DUP1 RETURNDATACOPY RETURNDATASIZE PUSH0 REVERT JUMPDEST POP POP POP POP PUSH1 0x40 MLOAD RETURNDATASIZE PUSH1 0x1F NOT PUSH1 0x1F DUP3 ADD AND DUP3 ADD DUP1 PUSH1 0x40 MSTORE POP DUP2 ADD SWAP1 PUSH2 0x14EA SWAP2 SWAP1 PUSH2 0x21FF JUMP JUMPDEST POP POP POP POP JUMP JUMPDEST PUSH0 DUP1 DUP3 SUB PUSH2 0x1500 JUMPI PUSH0 SWAP1 POP PUSH2 0x180D JUMP JUMPDEST PUSH2 0x153E PUSH0 DUP1 SLOAD SWAP1 PUSH2 0x100 EXP SWAP1 DIV PUSH20 0xFFFFFFFFFFFFFFFFFFFFFFFFFFFFFFFFFFFFFFFF AND PUSH20 0x10ED43C718714EB63D5AA57B78B54704E256024E DUP5 PUSH2 0x13F3 JUMP JUMPDEST PUSH0 PUSH1 0x2 PUSH8 0xFFFFFFFFFFFFFFFF DUP2 GT ISZERO PUSH2 0x155A JUMPI PUSH2 0x1559 PUSH2 0x1E6E JUMP JUMPDEST JUMPDEST PUSH1 0x40 MLOAD SWAP1 DUP1 DUP3 MSTORE DUP1 PUSH1 0x20 MUL PUSH1 0x20 ADD DUP3 ADD PUSH1 0x40 MSTORE DUP1 ISZERO PUSH2 0x1588 JUMPI DUP2 PUSH1 0x20 ADD PUSH1 0x20 DUP3 MUL DUP1 CALLDATASIZE DUP4 CALLDATACOPY DUP1 DUP3 ADD SWAP2 POP POP SWAP1 POP JUMPDEST POP SWAP1 POP PUSH0 DUP1 SLOAD SWAP1 PUSH2 0x100 EXP SWAP1 DIV PUSH20 0xFFFFFFFFFFFFFFFFFFFFFFFFFFFFFFFFFFFFFFFF AND DUP2 PUSH0 DUP2 MLOAD DUP2 LT PUSH2 0x15BE JUMPI PUSH2 0x15BD PUSH2 0x1E9B JUMP JUMPDEST JUMPDEST PUSH1 0x20 MUL PUSH1 0x20 ADD ADD SWAP1 PUSH20 0xFFFFFFFFFFFFFFFFFFFFFFFFFFFFFFFFFFFFFFFF AND SWAP1 DUP2 PUSH20 0xFFFFFFFFFFFFFFFFFFFFFFFFFFFFFFFFFFFFFFFF AND DUP2 MSTORE POP POP PUSH20 0x55D398326F99059FF775485246999027B3197955 DUP2 PUSH1 0x1 DUP2 MLOAD DUP2 LT PUSH2 0x1621 JUMPI PUSH2 0x1620 PUSH2 0x1E9B JUMP JUMPDEST JUMPDEST PUSH1 0x20 MUL PUSH1 0x20 ADD ADD SWAP1 PUSH20 0xFFFFFFFFFFFFFFFFFFFFFFFFFFFFFFFFFFFFFFFF AND SWAP1 DUP2 PUSH20 0xFFFFFFFFFFFFFFFFFFFFFFFFFFFFFFFFFFFFFFFF AND DUP2 MSTORE POP POP PUSH0 PUSH20 0x55D398326F99059FF775485246999027B3197955 PUSH20 0xFFFFFFFFFFFFFFFFFFFFFFFFFFFFFFFFFFFFFFFF AND PUSH4 0x70A08231 ADDRESS PUSH1 0x40 MLOAD DUP3 PUSH4 0xFFFFFFFF AND PUSH1 0xE0 SHL DUP2 MSTORE PUSH1 0x4 ADD PUSH2 0x16A9 SWAP2 SWAP1 PUSH2 0x1CE4 JUMP JUMPDEST PUSH1 0x20 PUSH1 0x40 MLOAD DUP1 DUP4 SUB DUP2 DUP7 GAS STATICCALL ISZERO DUP1 ISZERO PUSH2 0x16C4 JUMPI RETURNDATASIZE PUSH0 DUP1 RETURNDATACOPY RETURNDATASIZE PUSH0 REVERT JUMPDEST POP POP POP POP PUSH1 0x40 MLOAD RETURNDATASIZE PUSH1 0x1F NOT PUSH1 0x1F DUP3 ADD AND DUP3 ADD DUP1 PUSH1 0x40 MSTORE POP DUP2 ADD SWAP1 PUSH2 0x16E8 SWAP2 SWAP1 PUSH2 0x24DE JUMP JUMPDEST SWAP1 POP PUSH20 0x10ED43C718714EB63D5AA57B78B54704E256024E PUSH20 0xFFFFFFFFFFFFFFFFFFFFFFFFFFFFFFFFFFFFFFFF AND PUSH4 0x5C11D795 DUP6 PUSH0 DUP6 ADDRESS TIMESTAMP PUSH1 0x40 MLOAD DUP7 PUSH4 0xFFFFFFFF AND PUSH1 0xE0 SHL DUP2 MSTORE PUSH1 0x4 ADD PUSH2 0x173F SWAP6 SWAP5 SWAP4 SWAP3 SWAP2 SWAP1 PUSH2 0x2A46 JUMP JUMPDEST PUSH0 PUSH1 0x40 MLOAD DUP1 DUP4 SUB DUP2 PUSH0 DUP8 DUP1 EXTCODESIZE ISZERO DUP1 ISZERO PUSH2 0x1756 JUMPI PUSH0 DUP1 REVERT JUMPDEST POP GAS CALL ISZERO DUP1 ISZERO PUSH2 0x1768 JUMPI RETURNDATASIZE PUSH0 DUP1 RETURNDATACOPY RETURNDATASIZE PUSH0 REVERT JUMPDEST POP POP POP POP PUSH0 PUSH20 0x55D398326F99059FF775485246999027B3197955 PUSH20 0xFFFFFFFFFFFFFFFFFFFFFFFFFFFFFFFFFFFFFFFF AND PUSH4 0x70A08231 ADDRESS PUSH1 0x40 MLOAD DUP3 PUSH4 0xFFFFFFFF AND PUSH1 0xE0 SHL DUP2 MSTORE PUSH1 0x4 ADD PUSH2 0x17BA SWAP2 SWAP1 PUSH2 0x1CE4 JUMP JUMPDEST PUSH1 0x20 PUSH1 0x40 MLOAD DUP1 DUP4 SUB DUP2 DUP7 GAS STATICCALL ISZERO DUP1 ISZERO PUSH2 0x17D5 JUMPI RETURNDATASIZE PUSH0 DUP1 RETURNDATACOPY RETURNDATASIZE PUSH0 REVERT JUMPDEST POP POP POP POP PUSH1 0x40 MLOAD RETURNDATASIZE PUSH1 0x1F NOT PUSH1 0x1F DUP3 ADD AND DUP3 ADD DUP1 PUSH1 0x40 MSTORE POP DUP2 ADD SWAP1 PUSH2 0x17F9 SWAP2 SWAP1 PUSH2 0x24DE JUMP JUMPDEST SWAP1 POP DUP2 DUP2 PUSH2 0x1807 SWAP2 SWAP1 PUSH2 0x2398 JUMP JUMPDEST SWAP4 POP POP POP POP JUMPDEST SWAP2 SWAP1 POP JUMP JUMPDEST PUSH2 0x1850 PUSH0 DUP1 SLOAD SWAP1 PUSH2 0x100 EXP SWAP1 DIV PUSH20 0xFFFFFFFFFFFFFFFFFFFFFFFFFFFFFFFFFFFFFFFF AND PUSH20 0x10ED43C718714EB63D5AA57B78B54704E256024E DUP5 PUSH2 0x13F3 JUMP JUMPDEST PUSH2 0x1883 PUSH20 0x55D398326F99059FF775485246999027B3197955 PUSH20 0x10ED43C718714EB63D5AA57B78B54704E256024E DUP4 PUSH2 0x13F3 JUMP JUMPDEST PUSH20 0x10ED43C718714EB63D5AA57B78B54704E256024E PUSH20 0xFFFFFFFFFFFFFFFFFFFFFFFFFFFFFFFFFFFFFFFF AND PUSH4 0xE8E33700 PUSH0 DUP1 SLOAD SWAP1 PUSH2 0x100 EXP SWAP1 DIV PUSH20 0xFFFFFFFFFFFFFFFFFFFFFFFFFFFFFFFFFFFFFFFF AND PUSH20 0x55D398326F99059FF775485246999027B3197955 DUP6 DUP6 PUSH0 DUP1 PUSH2 0xDEAD TIMESTAMP PUSH1 0x40 MLOAD DUP10 PUSH4 0xFFFFFFFF AND PUSH1 0xE0 SHL DUP2 MSTORE PUSH1 0x4 ADD PUSH2 0x1913 SWAP9 SWAP8 SWAP7 SWAP6 SWAP5 SWAP4 SWAP3 SWAP2 SWAP1 PUSH2 0x226C JUMP JUMPDEST PUSH1 0x60 PUSH1 0x40 MLOAD DUP1 DUP4 SUB DUP2 PUSH0 DUP8 GAS CALL ISZERO DUP1 ISZERO PUSH2 0x192F JUMPI RETURNDATASIZE PUSH0 DUP1 RETURNDATACOPY RETURNDATASIZE PUSH0 REVERT JUMPDEST POP POP POP POP PUSH1 0x40 MLOAD RETURNDATASIZE PUSH1 0x1F NOT PUSH1 0x1F DUP3 ADD AND DUP3 ADD DUP1 PUSH1 0x40 MSTORE POP DUP2 ADD SWAP1 PUSH2 0x1953 SWAP2 SWAP1 PUSH2 0x22E8 JUMP JUMPDEST POP POP POP POP POP JUMP JUMPDEST PUSH0 DUP1 PUSH0 PUSH2 0x1967 DUP6 DUP6 PUSH2 0x1B0F JUMP JUMPDEST POP SWAP1 POP PUSH0 DUP1 PUSH2 0x1977 DUP9 DUP9 DUP9 PUSH2 0x1384 JUMP JUMPDEST PUSH20 0xFFFFFFFFFFFFFFFFFFFFFFFFFFFFFFFFFFFFFFFF AND PUSH4 0x902F1AC PUSH1 0x40 MLOAD DUP2 PUSH4 0xFFFFFFFF AND PUSH1 0xE0 SHL DUP2 MSTORE PUSH1 0x4 ADD PUSH1 0x60 PUSH1 0x40 MLOAD DUP1 DUP4 SUB DUP2 DUP7 GAS STATICCALL ISZERO DUP1 ISZERO PUSH2 0x19BF JUMPI RETURNDATASIZE PUSH0 DUP1 RETURNDATACOPY RETURNDATASIZE PUSH0 REVERT JUMPDEST POP POP POP POP PUSH1 0x40 MLOAD RETURNDATASIZE PUSH1 0x1F NOT PUSH1 0x1F DUP3 ADD AND DUP3 ADD DUP1 PUSH1 0x40 MSTORE POP DUP2 ADD SWAP1 PUSH2 0x19E3 SWAP2 SWAP1 PUSH2 0x2B1A JUMP JUMPDEST POP PUSH14 0xFFFFFFFFFFFFFFFFFFFFFFFFFFFF AND SWAP2 POP PUSH14 0xFFFFFFFFFFFFFFFFFFFFFFFFFFFF AND SWAP2 POP DUP3 PUSH20 0xFFFFFFFFFFFFFFFFFFFFFFFFFFFFFFFFFFFFFFFF AND DUP8 PUSH20 0xFFFFFFFFFFFFFFFFFFFFFFFFFFFFFFFFFFFFFFFF AND EQ PUSH2 0x1A42 JUMPI DUP1 DUP3 PUSH2 0x1A45 JUMP JUMPDEST DUP2 DUP2 JUMPDEST DUP1 SWAP6 POP DUP2 SWAP7 POP POP POP POP POP POP SWAP4 POP SWAP4 SWAP2 POP POP JUMP JUMPDEST PUSH0 DUP1 DUP5 GT PUSH2 0x1A9B JUMPI PUSH1 0x40 MLOAD PUSH32 0x8C379A000000000000000000000000000000000000000000000000000000000 DUP2 MSTORE PUSH1 0x4 ADD PUSH2 0x1A92 SWAP1 PUSH2 0x2BDA JUMP JUMPDEST PUSH1 0x40 MLOAD DUP1 SWAP2 SUB SWAP1 REVERT JUMPDEST PUSH0 DUP4 GT DUP1 ISZERO PUSH2 0x1AA9 JUMPI POP PUSH0 DUP3 GT JUMPDEST PUSH2 0x1AE8 JUMPI PUSH1 0x40 MLOAD PUSH32 0x8C379A000000000000000000000000000000000000000000000000000000000 DUP2 MSTORE PUSH1 0x4 ADD PUSH2 0x1ADF SWAP1 PUSH2 0x2C68 JUMP JUMPDEST PUSH1 0x40 MLOAD DUP1 SWAP2 SUB SWAP1 REVERT JUMPDEST DUP3 PUSH2 0x1AFC DUP4 DUP7 PUSH2 0x1C39 SWAP1 SWAP2 SWAP1 PUSH4 0xFFFFFFFF AND JUMP JUMPDEST PUSH2 0x1B06 SWAP2 SWAP1 PUSH2 0x2606 JUMP JUMPDEST SWAP1 POP SWAP4 SWAP3 POP POP POP JUMP JUMPDEST PUSH0 DUP1 DUP3 PUSH20 0xFFFFFFFFFFFFFFFFFFFFFFFFFFFFFFFFFFFFFFFF AND DUP5 PUSH20 0xFFFFFFFFFFFFFFFFFFFFFFFFFFFFFFFFFFFFFFFF AND SUB PUSH2 0x1B7F JUMPI PUSH1 0x40 MLOAD PUSH32 0x8C379A000000000000000000000000000000000000000000000000000000000 DUP2 MSTORE PUSH1 0x4 ADD PUSH2 0x1B76 SWAP1 PUSH2 0x2CF6 JUMP JUMPDEST PUSH1 0x40 MLOAD DUP1 SWAP2 SUB SWAP1 REVERT JUMPDEST DUP3 PUSH20 0xFFFFFFFFFFFFFFFFFFFFFFFFFFFFFFFFFFFFFFFF AND DUP5 PUSH20 0xFFFFFFFFFFFFFFFFFFFFFFFFFFFFFFFFFFFFFFFF AND LT PUSH2 0x1BB9 JUMPI DUP3 DUP5 PUSH2 0x1BBC JUMP JUMPDEST DUP4 DUP4 JUMPDEST DUP1 SWAP3 POP DUP2 SWAP4 POP POP POP PUSH0 PUSH20 0xFFFFFFFFFFFFFFFFFFFFFFFFFFFFFFFFFFFFFFFF AND DUP3 PUSH20 0xFFFFFFFFFFFFFFFFFFFFFFFFFFFFFFFFFFFFFFFF AND SUB PUSH2 0x1C32 JUMPI PUSH1 0x40 MLOAD PUSH32 0x8C379A000000000000000000000000000000000000000000000000000000000 DUP2 MSTORE PUSH1 0x4 ADD PUSH2 0x1C29 SWAP1 PUSH2 0x2D5E JUMP JUMPDEST PUSH1 0x40 MLOAD DUP1 SWAP2 SUB SWAP1 REVERT JUMPDEST SWAP3 POP SWAP3 SWAP1 POP JUMP JUMPDEST PUSH0 DUP1 DUP3 EQ DUP1 PUSH2 0x1C60 JUMPI POP DUP3 DUP3 DUP4 DUP6 PUSH2 0x1C51 SWAP2 SWAP1 PUSH2 0x2D7C JUMP JUMPDEST SWAP3 POP DUP3 PUSH2 0x1C5E SWAP2 SWAP1 PUSH2 0x2606 JUMP JUMPDEST EQ JUMPDEST PUSH2 0x1C9F JUMPI PUSH1 0x40 MLOAD PUSH32 0x8C379A000000000000000000000000000000000000000000000000000000000 DUP2 MSTORE PUSH1 0x4 ADD PUSH2 0x1C96 SWAP1 PUSH2 0x2E07 JUMP JUMPDEST PUSH1 0x40 MLOAD DUP1 SWAP2 SUB SWAP1 REVERT JUMPDEST SWAP3 SWAP2 POP POP JUMP JUMPDEST PUSH0 PUSH20 0xFFFFFFFFFFFFFFFFFFFFFFFFFFFFFFFFFFFFFFFF DUP3 AND SWAP1 POP SWAP2 SWAP1 POP JUMP JUMPDEST PUSH0 PUSH2 0x1CCE DUP3 PUSH2 0x1CA5 JUMP JUMPDEST SWAP1 POP SWAP2 SWAP1 POP JUMP JUMPDEST PUSH2 0x1CDE DUP2 PUSH2 0x1CC4 JUMP JUMPDEST DUP3 MSTORE POP POP JUMP JUMPDEST PUSH0 PUSH1 0x20 DUP3 ADD SWAP1 POP PUSH2 0x1CF7 PUSH0 DUP4 ADD DUP5 PUSH2 0x1CD5 JUMP JUMPDEST SWAP3 SWAP2 POP POP JUMP JUMPDEST PUSH0 PUSH1 0x40 MLOAD SWAP1 POP SWAP1 JUMP JUMPDEST PUSH0 DUP1 REVERT JUMPDEST PUSH0 DUP1 REVERT JUMPDEST PUSH2 0x1D17 DUP2 PUSH2 0x1CC4 JUMP JUMPDEST DUP2 EQ PUSH2 0x1D21 JUMPI PUSH0 DUP1 REVERT JUMPDEST POP JUMP JUMPDEST PUSH0 DUP2 CALLDATALOAD SWAP1 POP PUSH2 0x1D32 DUP2 PUSH2 0x1D0E JUMP JUMPDEST SWAP3 SWAP2 POP POP JUMP JUMPDEST PUSH0 PUSH1 0x20 DUP3 DUP5 SUB SLT ISZERO PUSH2 0x1D4D JUMPI PUSH2 0x1D4C PUSH2 0x1D06 JUMP JUMPDEST JUMPDEST PUSH0 PUSH2 0x1D5A DUP5 DUP3 DUP6 ADD PUSH2 0x1D24 JUMP JUMPDEST SWAP2 POP POP SWAP3 SWAP2 POP POP JUMP JUMPDEST PUSH0 DUP2 SWAP1 POP SWAP2 SWAP1 POP JUMP JUMPDEST PUSH2 0x1D75 DUP2 PUSH2 0x1D63 JUMP JUMPDEST DUP3 MSTORE POP POP JUMP JUMPDEST PUSH0 PUSH1 0x20 DUP3 ADD SWAP1 POP PUSH2 0x1D8E PUSH0 DUP4 ADD DUP5 PUSH2 0x1D6C JUMP JUMPDEST SWAP3 SWAP2 POP POP JUMP JUMPDEST PUSH2 0x1D9D DUP2 PUSH2 0x1D63 JUMP JUMPDEST DUP2 EQ PUSH2 0x1DA7 JUMPI PUSH0 DUP1 REVERT JUMPDEST POP JUMP JUMPDEST PUSH0 DUP2 CALLDATALOAD SWAP1 POP PUSH2 0x1DB8 DUP2 PUSH2 0x1D94 JUMP JUMPDEST SWAP3 SWAP2 POP POP JUMP JUMPDEST PUSH0 DUP1 PUSH0 PUSH1 0x60 DUP5 DUP7 SUB SLT ISZERO PUSH2 0x1DD5 JUMPI PUSH2 0x1DD4 PUSH2 0x1D06 JUMP JUMPDEST JUMPDEST PUSH0 PUSH2 0x1DE2 DUP7 DUP3 DUP8 ADD PUSH2 0x1D24 JUMP JUMPDEST SWAP4 POP POP PUSH1 0x20 PUSH2 0x1DF3 DUP7 DUP3 DUP8 ADD PUSH2 0x1D24 JUMP JUMPDEST SWAP3 POP POP PUSH1 0x40 PUSH2 0x1E04 DUP7 DUP3 DUP8 ADD PUSH2 0x1DAA JUMP JUMPDEST SWAP2 POP POP SWAP3 POP SWAP3 POP SWAP3 JUMP JUMPDEST PUSH0 PUSH1 0x20 DUP3 DUP5 SUB SLT ISZERO PUSH2 0x1E23 JUMPI PUSH2 0x1E22 PUSH2 0x1D06 JUMP JUMPDEST JUMPDEST PUSH0 PUSH2 0x1E30 DUP5 DUP3 DUP6 ADD PUSH2 0x1DAA JUMP JUMPDEST SWAP2 POP POP SWAP3 SWAP2 POP POP JUMP JUMPDEST PUSH0 PUSH1 0x60 DUP3 ADD SWAP1 POP PUSH2 0x1E4C PUSH0 DUP4 ADD DUP7 PUSH2 0x1D6C JUMP JUMPDEST PUSH2 0x1E59 PUSH1 0x20 DUP4 ADD DUP6 PUSH2 0x1D6C JUMP JUMPDEST PUSH2 0x1E66 PUSH1 0x40 DUP4 ADD DUP5 PUSH2 0x1D6C JUMP JUMPDEST SWAP5 SWAP4 POP POP POP POP JUMP JUMPDEST PUSH32 0x4E487B7100000000000000000000000000000000000000000000000000000000 PUSH0 MSTORE PUSH1 0x41 PUSH1 0x4 MSTORE PUSH1 0x24 PUSH0 REVERT JUMPDEST PUSH32 0x4E487B7100000000000000000000000000000000000000000000000000000000 PUSH0 MSTORE PUSH1 0x32 PUSH1 0x4 MSTORE PUSH1 0x24 PUSH0 REVERT JUMPDEST PUSH0 DUP2 MLOAD SWAP1 POP SWAP2 SWAP1 POP JUMP JUMPDEST PUSH0 DUP3 DUP3 MSTORE PUSH1 0x20 DUP3 ADD SWAP1 POP SWAP3 SWAP2 POP POP JUMP JUMPDEST PUSH0 DUP2 SWAP1 POP PUSH1 0x20 DUP3 ADD SWAP1 POP SWAP2 SWAP1 POP JUMP JUMPDEST PUSH2 0x1EFA DUP2 PUSH2 0x1CC4 JUMP JUMPDEST DUP3 MSTORE POP POP JUMP JUMPDEST PUSH0 PUSH2 0x1F0B DUP4 DUP4 PUSH2 0x1EF1 JUMP JUMPDEST PUSH1 0x20 DUP4 ADD SWAP1 POP SWAP3 SWAP2 POP POP JUMP JUMPDEST PUSH0 PUSH1 0x20 DUP3 ADD SWAP1 POP SWAP2 SWAP1 POP JUMP JUMPDEST PUSH0 PUSH2 0x1F2D DUP3 PUSH2 0x1EC8 JUMP JUMPDEST PUSH2 0x1F37 DUP2 DUP6 PUSH2 0x1ED2 JUMP JUMPDEST SWAP4 POP PUSH2 0x1F42 DUP4 PUSH2 0x1EE2 JUMP JUMPDEST DUP1 PUSH0 JUMPDEST DUP4 DUP2 LT ISZERO PUSH2 0x1F72 JUMPI DUP2 MLOAD PUSH2 0x1F59 DUP9 DUP3 PUSH2 0x1F00 JUMP JUMPDEST SWAP8 POP PUSH2 0x1F64 DUP4 PUSH2 0x1F17 JUMP JUMPDEST SWAP3 POP POP PUSH1 0x1 DUP2 ADD SWAP1 POP PUSH2 0x1F45 JUMP JUMPDEST POP DUP6 SWAP4 POP POP POP POP SWAP3 SWAP2 POP POP JUMP JUMPDEST PUSH0 PUSH1 0x40 DUP3 ADD SWAP1 POP PUSH2 0x1F92 PUSH0 DUP4 ADD DUP6 PUSH2 0x1D6C JUMP JUMPDEST DUP2 DUP2 SUB PUSH1 0x20 DUP4 ADD MSTORE PUSH2 0x1FA4 DUP2 DUP5 PUSH2 0x1F23 JUMP JUMPDEST SWAP1 POP SWAP4 SWAP3 POP POP POP JUMP JUMPDEST PUSH0 DUP1 REVERT JUMPDEST PUSH0 PUSH1 0x1F NOT PUSH1 0x1F DUP4 ADD AND SWAP1 POP SWAP2 SWAP1 POP JUMP JUMPDEST PUSH2 0x1FCA DUP3 PUSH2 0x1FB1 JUMP JUMPDEST DUP2 ADD DUP2 DUP2 LT PUSH8 0xFFFFFFFFFFFFFFFF DUP3 GT OR ISZERO PUSH2 0x1FE9 JUMPI PUSH2 0x1FE8 PUSH2 0x1E6E JUMP JUMPDEST JUMPDEST DUP1 PUSH1 0x40 MSTORE POP POP POP JUMP JUMPDEST PUSH0 PUSH2 0x1FFB PUSH2 0x1CFD JUMP JUMPDEST SWAP1 POP PUSH2 0x2007 DUP3 DUP3 PUSH2 0x1FC1 JUMP JUMPDEST SWAP2 SWAP1 POP JUMP JUMPDEST PUSH0 PUSH8 0xFFFFFFFFFFFFFFFF DUP3 GT ISZERO PUSH2 0x2026 JUMPI PUSH2 0x2025 PUSH2 0x1E6E JUMP JUMPDEST JUMPDEST PUSH1 0x20 DUP3 MUL SWAP1 POP PUSH1 0x20 DUP2 ADD SWAP1 POP SWAP2 SWAP1 POP JUMP JUMPDEST PUSH0 DUP1 REVERT JUMPDEST PUSH0 DUP2 MLOAD SWAP1 POP PUSH2 0x2049 DUP2 PUSH2 0x1D94 JUMP JUMPDEST SWAP3 SWAP2 POP POP JUMP JUMPDEST PUSH0 PUSH2 0x2061 PUSH2 0x205C DUP5 PUSH2 0x200C JUMP JUMPDEST PUSH2 0x1FF2 JUMP JUMPDEST SWAP1 POP DUP1 DUP4 DUP3 MSTORE PUSH1 0x20 DUP3 ADD SWAP1 POP PUSH1 0x20 DUP5 MUL DUP4 ADD DUP6 DUP2 GT ISZERO PUSH2 0x2084 JUMPI PUSH2 0x2083 PUSH2 0x2037 JUMP JUMPDEST JUMPDEST DUP4 JUMPDEST DUP2 DUP2 LT ISZERO PUSH2 0x20AD JUMPI DUP1 PUSH2 0x2099 DUP9 DUP3 PUSH2 0x203B JUMP JUMPDEST DUP5 MSTORE PUSH1 0x20 DUP5 ADD SWAP4 POP POP PUSH1 0x20 DUP2 ADD SWAP1 POP PUSH2 0x2086 JUMP JUMPDEST POP POP POP SWAP4 SWAP3 POP POP POP JUMP JUMPDEST PUSH0 DUP3 PUSH1 0x1F DUP4 ADD SLT PUSH2 0x20CB JUMPI PUSH2 0x20CA PUSH2 0x1FAD JUMP JUMPDEST JUMPDEST DUP2 MLOAD PUSH2 0x20DB DUP5 DUP3 PUSH1 0x20 DUP7 ADD PUSH2 0x204F JUMP JUMPDEST SWAP2 POP POP SWAP3 SWAP2 POP POP JUMP JUMPDEST PUSH0 PUSH1 0x20 DUP3 DUP5 SUB SLT ISZERO PUSH2 0x20F9 JUMPI PUSH2 0x20F8 PUSH2 0x1D06 JUMP JUMPDEST JUMPDEST PUSH0 DUP3 ADD MLOAD PUSH8 0xFFFFFFFFFFFFFFFF DUP2 GT ISZERO PUSH2 0x2116 JUMPI PUSH2 0x2115 PUSH2 0x1D0A JUMP JUMPDEST JUMPDEST PUSH2 0x2122 DUP5 DUP3 DUP6 ADD PUSH2 0x20B7 JUMP JUMPDEST SWAP2 POP POP SWAP3 SWAP2 POP POP JUMP JUMPDEST PUSH0 DUP3 DUP3 MSTORE PUSH1 0x20 DUP3 ADD SWAP1 POP SWAP3 SWAP2 POP POP JUMP JUMPDEST PUSH32 0x4E6F206C697175696469747920746F2072656D6F76652E000000000000000000 PUSH0 DUP3 ADD MSTORE POP JUMP JUMPDEST PUSH0 PUSH2 0x216F PUSH1 0x17 DUP4 PUSH2 0x212B JUMP JUMPDEST SWAP2 POP PUSH2 0x217A DUP3 PUSH2 0x213B JUMP JUMPDEST PUSH1 0x20 DUP3 ADD SWAP1 POP SWAP2 SWAP1 POP JUMP JUMPDEST PUSH0 PUSH1 0x20 DUP3 ADD SWAP1 POP DUP2 DUP2 SUB PUSH0 DUP4 ADD MSTORE PUSH2 0x219C DUP2 PUSH2 0x2163 JUMP JUMPDEST SWAP1 POP SWAP2 SWAP1 POP JUMP JUMPDEST PUSH0 PUSH1 0x40 DUP3 ADD SWAP1 POP PUSH2 0x21B6 PUSH0 DUP4 ADD DUP6 PUSH2 0x1CD5 JUMP JUMPDEST PUSH2 0x21C3 PUSH1 0x20 DUP4 ADD DUP5 PUSH2 0x1D6C JUMP JUMPDEST SWAP4 SWAP3 POP POP POP JUMP JUMPDEST PUSH0 DUP2 ISZERO ISZERO SWAP1 POP SWAP2 SWAP1 POP JUMP JUMPDEST PUSH2 0x21DE DUP2 PUSH2 0x21CA JUMP JUMPDEST DUP2 EQ PUSH2 0x21E8 JUMPI PUSH0 DUP1 REVERT JUMPDEST POP JUMP JUMPDEST PUSH0 DUP2 MLOAD SWAP1 POP PUSH2 0x21F9 DUP2 PUSH2 0x21D5 JUMP JUMPDEST SWAP3 SWAP2 POP POP JUMP JUMPDEST PUSH0 PUSH1 0x20 DUP3 DUP5 SUB SLT ISZERO PUSH2 0x2214 JUMPI PUSH2 0x2213 PUSH2 0x1D06 JUMP JUMPDEST JUMPDEST PUSH0 PUSH2 0x2221 DUP5 DUP3 DUP6 ADD PUSH2 0x21EB JUMP JUMPDEST SWAP2 POP POP SWAP3 SWAP2 POP POP JUMP JUMPDEST PUSH0 DUP2 SWAP1 POP SWAP2 SWAP1 POP JUMP JUMPDEST PUSH0 DUP2 SWAP1 POP SWAP2 SWAP1 POP JUMP JUMPDEST PUSH0 PUSH2 0x2256 PUSH2 0x2251 PUSH2 0x224C DUP5 PUSH2 0x222A JUMP JUMPDEST PUSH2 0x2233 JUMP JUMPDEST PUSH2 0x1D63 JUMP JUMPDEST SWAP1 POP SWAP2 SWAP1 POP JUMP JUMPDEST PUSH2 0x2266 DUP2 PUSH2 0x223C JUMP JUMPDEST DUP3 MSTORE POP POP JUMP JUMPDEST PUSH0 PUSH2 0x100 DUP3 ADD SWAP1 POP PUSH2 0x2280 PUSH0 DUP4 ADD DUP12 PUSH2 0x1CD5 JUMP JUMPDEST PUSH2 0x228D PUSH1 0x20 DUP4 ADD DUP11 PUSH2 0x1CD5 JUMP JUMPDEST PUSH2 0x229A PUSH1 0x40 DUP4 ADD DUP10 PUSH2 0x1D6C JUMP JUMPDEST PUSH2 0x22A7 PUSH1 0x60 DUP4 ADD DUP9 PUSH2 0x1D6C JUMP JUMPDEST PUSH2 0x22B4 PUSH1 0x80 DUP4 ADD DUP8 PUSH2 0x225D JUMP JUMPDEST PUSH2 0x22C1 PUSH1 0xA0 DUP4 ADD DUP7 PUSH2 0x225D JUMP JUMPDEST PUSH2 0x22CE PUSH1 0xC0 DUP4 ADD DUP6 PUSH2 0x1CD5 JUMP JUMPDEST PUSH2 0x22DB PUSH1 0xE0 DUP4 ADD DUP5 PUSH2 0x1D6C JUMP JUMPDEST SWAP10 SWAP9 POP POP POP POP POP POP POP POP POP JUMP JUMPDEST PUSH0 DUP1 PUSH0 PUSH1 0x60 DUP5 DUP7 SUB SLT ISZERO PUSH2 0x22FF JUMPI PUSH2 0x22FE PUSH2 0x1D06 JUMP JUMPDEST JUMPDEST PUSH0 PUSH2 0x230C DUP7 DUP3 DUP8 ADD PUSH2 0x203B JUMP JUMPDEST SWAP4 POP POP PUSH1 0x20 PUSH2 0x231D DUP7 DUP3 DUP8 ADD PUSH2 0x203B JUMP JUMPDEST SWAP3 POP POP PUSH1 0x40 PUSH2 0x232E DUP7 DUP3 DUP8 ADD PUSH2 0x203B JUMP JUMPDEST SWAP2 POP POP SWAP3 POP SWAP3 POP SWAP3 JUMP JUMPDEST PUSH32 0x4E487B7100000000000000000000000000000000000000000000000000000000 PUSH0 MSTORE PUSH1 0x11 PUSH1 0x4 MSTORE PUSH1 0x24 PUSH0 REVERT JUMPDEST PUSH0 PUSH2 0x236F DUP3 PUSH2 0x1D63 JUMP JUMPDEST SWAP2 POP PUSH2 0x237A DUP4 PUSH2 0x1D63 JUMP JUMPDEST SWAP3 POP DUP3 DUP3 ADD SWAP1 POP DUP1 DUP3 GT ISZERO PUSH2 0x2392 JUMPI PUSH2 0x2391 PUSH2 0x2338 JUMP JUMPDEST JUMPDEST SWAP3 SWAP2 POP POP JUMP JUMPDEST PUSH0 PUSH2 0x23A2 DUP3 PUSH2 0x1D63 JUMP JUMPDEST SWAP2 POP PUSH2 0x23AD DUP4 PUSH2 0x1D63 JUMP JUMPDEST SWAP3 POP DUP3 DUP3 SUB SWAP1 POP DUP2 DUP2 GT ISZERO PUSH2 0x23C5 JUMPI PUSH2 0x23C4 PUSH2 0x2338 JUMP JUMPDEST JUMPDEST SWAP3 SWAP2 POP POP JUMP JUMPDEST PUSH0 PUSH1 0xE0 DUP3 ADD SWAP1 POP PUSH2 0x23DE PUSH0 DUP4 ADD DUP11 PUSH2 0x1CD5 JUMP JUMPDEST PUSH2 0x23EB PUSH1 0x20 DUP4 ADD DUP10 PUSH2 0x1CD5 JUMP JUMPDEST PUSH2 0x23F8 PUSH1 0x40 DUP4 ADD DUP9 PUSH2 0x1D6C JUMP JUMPDEST PUSH2 0x2405 PUSH1 0x60 DUP4 ADD DUP8 PUSH2 0x225D JUMP JUMPDEST PUSH2 0x2412 PUSH1 0x80 DUP4 ADD DUP7 PUSH2 0x225D JUMP JUMPDEST PUSH2 0x241F PUSH1 0xA0 DUP4 ADD DUP6 PUSH2 0x1CD5 JUMP JUMPDEST PUSH2 0x242C PUSH1 0xC0 DUP4 ADD DUP5 PUSH2 0x1D6C JUMP JUMPDEST SWAP9 SWAP8 POP POP POP POP POP POP POP POP JUMP JUMPDEST PUSH0 DUP1 PUSH1 0x40 DUP4 DUP6 SUB SLT ISZERO PUSH2 0x244E JUMPI PUSH2 0x244D PUSH2 0x1D06 JUMP JUMPDEST JUMPDEST PUSH0 PUSH2 0x245B DUP6 DUP3 DUP7 ADD PUSH2 0x203B JUMP JUMPDEST SWAP3 POP POP PUSH1 0x20 PUSH2 0x246C DUP6 DUP3 DUP7 ADD PUSH2 0x203B JUMP JUMPDEST SWAP2 POP POP SWAP3 POP SWAP3 SWAP1 POP JUMP JUMPDEST PUSH32 0x556E69737761705632526F757465723A20455850495245440000000000000000 PUSH0 DUP3 ADD MSTORE POP JUMP JUMPDEST PUSH0 PUSH2 0x24AA PUSH1 0x18 DUP4 PUSH2 0x212B JUMP JUMPDEST SWAP2 POP PUSH2 0x24B5 DUP3 PUSH2 0x2476 JUMP JUMPDEST PUSH1 0x20 DUP3 ADD SWAP1 POP SWAP2 SWAP1 POP JUMP JUMPDEST PUSH0 PUSH1 0x20 DUP3 ADD SWAP1 POP DUP2 DUP2 SUB PUSH0 DUP4 ADD MSTORE PUSH2 0x24D7 DUP2 PUSH2 0x249E JUMP JUMPDEST SWAP1 POP SWAP2 SWAP1 POP JUMP JUMPDEST PUSH0 PUSH1 0x20 DUP3 DUP5 SUB SLT ISZERO PUSH2 0x24F3 JUMPI PUSH2 0x24F2 PUSH2 0x1D06 JUMP JUMPDEST JUMPDEST PUSH0 PUSH2 0x2500 DUP5 DUP3 DUP6 ADD PUSH2 0x203B JUMP JUMPDEST SWAP2 POP POP SWAP3 SWAP2 POP POP JUMP JUMPDEST PUSH0 DUP2 MLOAD SWAP1 POP SWAP2 SWAP1 POP JUMP JUMPDEST PUSH0 DUP2 SWAP1 POP SWAP3 SWAP2 POP POP JUMP JUMPDEST DUP3 DUP2 DUP4 MCOPY PUSH0 DUP4 DUP4 ADD MSTORE POP POP POP JUMP JUMPDEST PUSH0 PUSH2 0x2535 DUP3 PUSH2 0x2509 JUMP JUMPDEST PUSH2 0x253F DUP2 DUP6 PUSH2 0x2513 JUMP JUMPDEST SWAP4 POP PUSH2 0x254F DUP2 DUP6 PUSH1 0x20 DUP7 ADD PUSH2 0x251D JUMP JUMPDEST DUP1 DUP5 ADD SWAP2 POP POP SWAP3 SWAP2 POP POP JUMP JUMPDEST PUSH0 PUSH2 0x2566 DUP3 DUP5 PUSH2 0x252B JUMP JUMPDEST SWAP2 POP DUP2 SWAP1 POP SWAP3 SWAP2 POP POP JUMP JUMPDEST PUSH32 0x5472616E7366657248656C7065723A205452414E534645525F4641494C454400 PUSH0 DUP3 ADD MSTORE POP JUMP JUMPDEST PUSH0 PUSH2 0x25A5 PUSH1 0x1F DUP4 PUSH2 0x212B JUMP JUMPDEST SWAP2 POP PUSH2 0x25B0 DUP3 PUSH2 0x2571 JUMP JUMPDEST PUSH1 0x20 DUP3 ADD SWAP1 POP SWAP2 SWAP1 POP JUMP JUMPDEST PUSH0 PUSH1 0x20 DUP3 ADD SWAP1 POP DUP2 DUP2 SUB PUSH0 DUP4 ADD MSTORE PUSH2 0x25D2 DUP2 PUSH2 0x2599 JUMP JUMPDEST SWAP1 POP SWAP2 SWAP1 POP JUMP JUMPDEST PUSH32 0x4E487B7100000000000000000000000000000000000000000000000000000000 PUSH0 MSTORE PUSH1 0x12 PUSH1 0x4 MSTORE PUSH1 0x24 PUSH0 REVERT JUMPDEST PUSH0 PUSH2 0x2610 DUP3 PUSH2 0x1D63 JUMP JUMPDEST SWAP2 POP PUSH2 0x261B DUP4 PUSH2 0x1D63 JUMP JUMPDEST SWAP3 POP DUP3 PUSH2 0x262B JUMPI PUSH2 0x262A PUSH2 0x25D9 JUMP JUMPDEST JUMPDEST DUP3 DUP3 DIV SWAP1 POP SWAP3 SWAP2 POP POP JUMP JUMPDEST PUSH0 PUSH1 0x60 DUP3 ADD SWAP1 POP PUSH2 0x2649 PUSH0 DUP4 ADD DUP7 PUSH2 0x1CD5 JUMP JUMPDEST PUSH2 0x2656 PUSH1 0x20 DUP4 ADD DUP6 PUSH2 0x1CD5 JUMP JUMPDEST PUSH2 0x2663 PUSH1 0x40 DUP4 ADD DUP5 PUSH2 0x1D6C JUMP JUMPDEST SWAP5 SWAP4 POP POP POP POP JUMP JUMPDEST PUSH32 0x5472616E7366657248656C7065723A205452414E534645525F46524F4D5F4641 PUSH0 DUP3 ADD MSTORE PUSH32 0x494C454400000000000000000000000000000000000000000000000000000000 PUSH1 0x20 DUP3 ADD MSTORE POP JUMP JUMPDEST PUSH0 PUSH2 0x26C5 PUSH1 0x24 DUP4 PUSH2 0x212B JUMP JUMPDEST SWAP2 POP PUSH2 0x26D0 DUP3 PUSH2 0x266B JUMP JUMPDEST PUSH1 0x40 DUP3 ADD SWAP1 POP SWAP2 SWAP1 POP JUMP JUMPDEST PUSH0 PUSH1 0x20 DUP3 ADD SWAP1 POP DUP2 DUP2 SUB PUSH0 DUP4 ADD MSTORE PUSH2 0x26F2 DUP2 PUSH2 0x26B9 JUMP JUMPDEST SWAP1 POP SWAP2 SWAP1 POP JUMP JUMPDEST PUSH0 PUSH1 0x40 DUP3 ADD SWAP1 POP PUSH2 0x270C PUSH0 DUP4 ADD DUP6 PUSH2 0x1CD5 JUMP JUMPDEST PUSH2 0x2719 PUSH1 0x20 DUP4 ADD DUP5 PUSH2 0x1CD5 JUMP JUMPDEST SWAP4 SWAP3 POP POP POP JUMP JUMPDEST PUSH0 DUP2 MLOAD SWAP1 POP PUSH2 0x272E DUP2 PUSH2 0x1D0E JUMP JUMPDEST SWAP3 SWAP2 POP POP JUMP JUMPDEST PUSH0 PUSH1 0x20 DUP3 DUP5 SUB SLT ISZERO PUSH2 0x2749 JUMPI PUSH2 0x2748 PUSH2 0x1D06 JUMP JUMPDEST JUMPDEST PUSH0 PUSH2 0x2756 DUP5 DUP3 DUP6 ADD PUSH2 0x2720 JUMP JUMPDEST SWAP2 POP POP SWAP3 SWAP2 POP POP JUMP JUMPDEST PUSH32 0x556E69737761705632526F757465723A20494E53554646494349454E545F425F PUSH0 DUP3 ADD MSTORE PUSH32 0x414D4F554E540000000000000000000000000000000000000000000000000000 PUSH1 0x20 DUP3 ADD MSTORE POP JUMP JUMPDEST PUSH0 PUSH2 0x27B9 PUSH1 0x26 DUP4 PUSH2 0x212B JUMP JUMPDEST SWAP2 POP PUSH2 0x27C4 DUP3 PUSH2 0x275F JUMP JUMPDEST PUSH1 0x40 DUP3 ADD SWAP1 POP SWAP2 SWAP1 POP JUMP JUMPDEST PUSH0 PUSH1 0x20 DUP3 ADD SWAP1 POP DUP2 DUP2 SUB PUSH0 DUP4 ADD MSTORE PUSH2 0x27E6 DUP2 PUSH2 0x27AD JUMP JUMPDEST SWAP1 POP SWAP2 SWAP1 POP JUMP JUMPDEST PUSH32 0x4E487B7100000000000000000000000000000000000000000000000000000000 PUSH0 MSTORE PUSH1 0x1 PUSH1 0x4 MSTORE PUSH1 0x24 PUSH0 REVERT JUMPDEST PUSH32 0x556E69737761705632526F757465723A20494E53554646494349454E545F415F PUSH0 DUP3 ADD MSTORE PUSH32 0x414D4F554E540000000000000000000000000000000000000000000000000000 PUSH1 0x20 DUP3 ADD MSTORE POP JUMP JUMPDEST PUSH0 PUSH2 0x2874 PUSH1 0x26 DUP4 PUSH2 0x212B JUMP JUMPDEST SWAP2 POP PUSH2 0x287F DUP3 PUSH2 0x281A JUMP JUMPDEST PUSH1 0x40 DUP3 ADD SWAP1 POP SWAP2 SWAP1 POP JUMP JUMPDEST PUSH0 PUSH1 0x20 DUP3 ADD SWAP1 POP DUP2 DUP2 SUB PUSH0 DUP4 ADD MSTORE PUSH2 0x28A1 DUP2 PUSH2 0x2868 JUMP JUMPDEST SWAP1 POP SWAP2 SWAP1 POP JUMP JUMPDEST PUSH0 DUP2 PUSH1 0x60 SHL SWAP1 POP SWAP2 SWAP1 POP JUMP JUMPDEST PUSH0 PUSH2 0x28BE DUP3 PUSH2 0x28A8 JUMP JUMPDEST SWAP1 POP SWAP2 SWAP1 POP JUMP JUMPDEST PUSH0 PUSH2 0x28CF DUP3 PUSH2 0x28B4 JUMP JUMPDEST SWAP1 POP SWAP2 SWAP1 POP JUMP JUMPDEST PUSH2 0x28E7 PUSH2 0x28E2 DUP3 PUSH2 0x1CC4 JUMP JUMPDEST PUSH2 0x28C5 JUMP JUMPDEST DUP3 MSTORE POP POP JUMP JUMPDEST PUSH0 PUSH2 0x28F8 DUP3 DUP6 PUSH2 0x28D6 JUMP JUMPDEST PUSH1 0x14 DUP3 ADD SWAP2 POP PUSH2 0x2908 DUP3 DUP5 PUSH2 0x28D6 JUMP JUMPDEST PUSH1 0x14 DUP3 ADD SWAP2 POP DUP2 SWAP1 POP SWAP4 SWAP3 POP POP POP JUMP JUMPDEST PUSH0 DUP2 SWAP1 POP SWAP3 SWAP2 POP POP JUMP JUMPDEST PUSH32 0xFF00000000000000000000000000000000000000000000000000000000000000 PUSH0 DUP3 ADD MSTORE POP JUMP JUMPDEST PUSH0 PUSH2 0x2956 PUSH1 0x1 DUP4 PUSH2 0x2918 JUMP JUMPDEST SWAP2 POP PUSH2 0x2961 DUP3 PUSH2 0x2922 JUMP JUMPDEST PUSH1 0x1 DUP3 ADD SWAP1 POP SWAP2 SWAP1 POP JUMP JUMPDEST PUSH0 DUP2 SWAP1 POP SWAP2 SWAP1 POP JUMP JUMPDEST PUSH0 DUP2 SWAP1 POP SWAP2 SWAP1 POP JUMP JUMPDEST PUSH2 0x298F PUSH2 0x298A DUP3 PUSH2 0x296C JUMP JUMPDEST PUSH2 0x2975 JUMP JUMPDEST DUP3 MSTORE POP POP JUMP JUMPDEST PUSH31 0xFB7F630766E6A796048EA87D01ACD3068E8FF67D078148A3FA3F4A84F69BD5 PUSH0 DUP3 ADD MSTORE POP JUMP JUMPDEST PUSH0 PUSH2 0x29C8 PUSH1 0x20 DUP4 PUSH2 0x2918 JUMP JUMPDEST SWAP2 POP PUSH2 0x29D3 DUP3 PUSH2 0x2995 JUMP JUMPDEST PUSH1 0x20 DUP3 ADD SWAP1 POP SWAP2 SWAP1 POP JUMP JUMPDEST PUSH0 PUSH2 0x29E8 DUP3 PUSH2 0x294A JUMP JUMPDEST SWAP2 POP PUSH2 0x29F4 DUP3 DUP6 PUSH2 0x28D6 JUMP JUMPDEST PUSH1 0x14 DUP3 ADD SWAP2 POP PUSH2 0x2A04 DUP3 DUP5 PUSH2 0x297E JUMP JUMPDEST PUSH1 0x20 DUP3 ADD SWAP2 POP PUSH2 0x2A13 DUP3 PUSH2 0x29BC JUMP JUMPDEST SWAP2 POP DUP2 SWAP1 POP SWAP4 SWAP3 POP POP POP JUMP JUMPDEST PUSH0 PUSH1 0x40 DUP3 ADD SWAP1 POP PUSH2 0x2A32 PUSH0 DUP4 ADD DUP6 PUSH2 0x1CD5 JUMP JUMPDEST PUSH2 0x2A3F PUSH1 0x20 DUP4 ADD DUP5 PUSH2 0x225D JUMP JUMPDEST SWAP4 SWAP3 POP POP POP JUMP JUMPDEST PUSH0 PUSH1 0xA0 DUP3 ADD SWAP1 POP PUSH2 0x2A59 PUSH0 DUP4 ADD DUP9 PUSH2 0x1D6C JUMP JUMPDEST PUSH2 0x2A66 PUSH1 0x20 DUP4 ADD DUP8 PUSH2 0x225D JUMP JUMPDEST DUP2 DUP2 SUB PUSH1 0x40 DUP4 ADD MSTORE PUSH2 0x2A78 DUP2 DUP7 PUSH2 0x1F23 JUMP JUMPDEST SWAP1 POP PUSH2 0x2A87 PUSH1 0x60 DUP4 ADD DUP6 PUSH2 0x1CD5 JUMP JUMPDEST PUSH2 0x2A94 PUSH1 0x80 DUP4 ADD DUP5 PUSH2 0x1D6C JUMP JUMPDEST SWAP7 SWAP6 POP POP POP POP POP POP JUMP JUMPDEST PUSH0 PUSH14 0xFFFFFFFFFFFFFFFFFFFFFFFFFFFF DUP3 AND SWAP1 POP SWAP2 SWAP1 POP JUMP JUMPDEST PUSH2 0x2AC0 DUP2 PUSH2 0x2A9E JUMP JUMPDEST DUP2 EQ PUSH2 0x2ACA JUMPI PUSH0 DUP1 REVERT JUMPDEST POP JUMP JUMPDEST PUSH0 DUP2 MLOAD SWAP1 POP PUSH2 0x2ADB DUP2 PUSH2 0x2AB7 JUMP JUMPDEST SWAP3 SWAP2 POP POP JUMP JUMPDEST PUSH0 PUSH4 0xFFFFFFFF DUP3 AND SWAP1 POP SWAP2 SWAP1 POP JUMP JUMPDEST PUSH2 0x2AF9 DUP2 PUSH2 0x2AE1 JUMP JUMPDEST DUP2 EQ PUSH2 0x2B03 JUMPI PUSH0 DUP1 REVERT JUMPDEST POP JUMP JUMPDEST PUSH0 DUP2 MLOAD SWAP1 POP PUSH2 0x2B14 DUP2 PUSH2 0x2AF0 JUMP JUMPDEST SWAP3 SWAP2 POP POP JUMP JUMPDEST PUSH0 DUP1 PUSH0 PUSH1 0x60 DUP5 DUP7 SUB SLT ISZERO PUSH2 0x2B31 JUMPI PUSH2 0x2B30 PUSH2 0x1D06 JUMP JUMPDEST JUMPDEST PUSH0 PUSH2 0x2B3E DUP7 DUP3 DUP8 ADD PUSH2 0x2ACD JUMP JUMPDEST SWAP4 POP POP PUSH1 0x20 PUSH2 0x2B4F DUP7 DUP3 DUP8 ADD PUSH2 0x2ACD JUMP JUMPDEST SWAP3 POP POP PUSH1 0x40 PUSH2 0x2B60 DUP7 DUP3 DUP8 ADD PUSH2 0x2B06 JUMP JUMPDEST SWAP2 POP POP SWAP3 POP SWAP3 POP SWAP3 JUMP JUMPDEST PUSH32 0x556E697377617056324C6962726172793A20494E53554646494349454E545F41 PUSH0 DUP3 ADD MSTORE PUSH32 0x4D4F554E54000000000000000000000000000000000000000000000000000000 PUSH1 0x20 DUP3 ADD MSTORE POP JUMP JUMPDEST PUSH0 PUSH2 0x2BC4 PUSH1 0x25 DUP4 PUSH2 0x212B JUMP JUMPDEST SWAP2 POP PUSH2 0x2BCF DUP3 PUSH2 0x2B6A JUMP JUMPDEST PUSH1 0x40 DUP3 ADD SWAP1 POP SWAP2 SWAP1 POP JUMP JUMPDEST PUSH0 PUSH1 0x20 DUP3 ADD SWAP1 POP DUP2 DUP2 SUB PUSH0 DUP4 ADD MSTORE PUSH2 0x2BF1 DUP2 PUSH2 0x2BB8 JUMP JUMPDEST SWAP1 POP SWAP2 SWAP1 POP JUMP JUMPDEST PUSH32 0x556E697377617056324C6962726172793A20494E53554646494349454E545F4C PUSH0 DUP3 ADD MSTORE PUSH32 0x4951554944495459000000000000000000000000000000000000000000000000 PUSH1 0x20 DUP3 ADD MSTORE POP JUMP JUMPDEST PUSH0 PUSH2 0x2C52 PUSH1 0x28 DUP4 PUSH2 0x212B JUMP JUMPDEST SWAP2 POP PUSH2 0x2C5D DUP3 PUSH2 0x2BF8 JUMP JUMPDEST PUSH1 0x40 DUP3 ADD SWAP1 POP SWAP2 SWAP1 POP JUMP JUMPDEST PUSH0 PUSH1 0x20 DUP3 ADD SWAP1 POP DUP2 DUP2 SUB PUSH0 DUP4 ADD MSTORE PUSH2 0x2C7F DUP2 PUSH2 0x2C46 JUMP JUMPDEST SWAP1 POP SWAP2 SWAP1 POP JUMP JUMPDEST PUSH32 0x556E697377617056324C6962726172793A204944454E544943414C5F41444452 PUSH0 DUP3 ADD MSTORE PUSH32 0x4553534553000000000000000000000000000000000000000000000000000000 PUSH1 0x20 DUP3 ADD MSTORE POP JUMP JUMPDEST PUSH0 PUSH2 0x2CE0 PUSH1 0x25 DUP4 PUSH2 0x212B JUMP JUMPDEST SWAP2 POP PUSH2 0x2CEB DUP3 PUSH2 0x2C86 JUMP JUMPDEST PUSH1 0x40 DUP3 ADD SWAP1 POP SWAP2 SWAP1 POP JUMP JUMPDEST PUSH0 PUSH1 0x20 DUP3 ADD SWAP1 POP DUP2 DUP2 SUB PUSH0 DUP4 ADD MSTORE PUSH2 0x2D0D DUP2 PUSH2 0x2CD4 JUMP JUMPDEST SWAP1 POP SWAP2 SWAP1 POP JUMP JUMPDEST PUSH32 0x556E697377617056324C6962726172793A205A45524F5F414444524553530000 PUSH0 DUP3 ADD MSTORE POP JUMP JUMPDEST PUSH0 PUSH2 0x2D48 PUSH1 0x1E DUP4 PUSH2 0x212B JUMP JUMPDEST SWAP2 POP PUSH2 0x2D53 DUP3 PUSH2 0x2D14 JUMP JUMPDEST PUSH1 0x20 DUP3 ADD SWAP1 POP SWAP2 SWAP1 POP JUMP JUMPDEST PUSH0 PUSH1 0x20 DUP3 ADD SWAP1 POP DUP2 DUP2 SUB PUSH0 DUP4 ADD MSTORE PUSH2 0x2D75 DUP2 PUSH2 0x2D3C JUMP JUMPDEST SWAP1 POP SWAP2 SWAP1 POP JUMP JUMPDEST PUSH0 PUSH2 0x2D86 DUP3 PUSH2 0x1D63 JUMP JUMPDEST SWAP2 POP PUSH2 0x2D91 DUP4 PUSH2 0x1D63 JUMP JUMPDEST SWAP3 POP DUP3 DUP3 MUL PUSH2 0x2D9F DUP2 PUSH2 0x1D63 JUMP JUMPDEST SWAP2 POP DUP3 DUP3 DIV DUP5 EQ DUP4 ISZERO OR PUSH2 0x2DB6 JUMPI PUSH2 0x2DB5 PUSH2 0x2338 JUMP JUMPDEST JUMPDEST POP SWAP3 SWAP2 POP POP JUMP JUMPDEST PUSH32 0x64732D6D6174682D6D756C2D6F766572666C6F77000000000000000000000000 PUSH0 DUP3 ADD MSTORE POP JUMP JUMPDEST PUSH0 PUSH2 0x2DF1 PUSH1 0x14 DUP4 PUSH2 0x212B JUMP JUMPDEST SWAP2 POP PUSH2 0x2DFC DUP3 PUSH2 0x2DBD JUMP JUMPDEST PUSH1 0x20 DUP3 ADD SWAP1 POP SWAP2 SWAP1 POP JUMP JUMPDEST PUSH0 PUSH1 0x20 DUP3 ADD SWAP1 POP DUP2 DUP2 SUB PUSH0 DUP4 ADD MSTORE PUSH2 0x2E1E DUP2 PUSH2 0x2DE5 JUMP JUMPDEST SWAP1 POP SWAP2 SWAP1 POP JUMP INVALID LOG2 PUSH5 0x6970667358 0x22 SLT KECCAK256 0xFB ISZERO 0xE4 ADDMOD 0xD9 0xCD SWAP16 SWAP12 PUSH12 0x7C4006A46494ABFE6D8EF42E 0xC0 CREATE2 SWAP14 SWAP5 0xBC PUSH29 0xFAB50D67E464736F6C634300081A003300000000000000000000000000 "
		},
		"gasEstimates": {
			"creation": {
				"codeDepositCost": "2373400",
				"executionCost": "2543",
				"totalCost": "2375943"
			},
			"external": {
				"DEAD()": "374",
				"USDT()": "461",
				"addLiquidity(uint256)": "infinite",
				"getAmountOut(address,address,uint256)": "infinite",
				"liquidityAmount(address)": "2869",
				"lp()": "2553",
				"raisefunds(uint256)": "infinite",
				"removeLiquidity(uint256)": "infinite",
				"removeLiquidityOfRaiseFunds()": "infinite",
				"token()": "2615",
				"uniswapV2Factory()": "373",
				"uniswapV2Router()": "396"
			},
			"internal": {
				"_addLiquidity(address,address,uint256,uint256,uint256,uint256)": "infinite",
				"_addLiquidity(uint256,uint256)": "infinite",
				"_handleReceivedLiquidity(uint256)": "infinite",
				"_removeLiquidity(uint256)": "infinite",
				"_safeApprove(address,address,uint256)": "infinite",
				"_swapTokensForUSDT(uint256)": "infinite",
				"addLiquidity(address,address,uint256,uint256,uint256,uint256,address,uint256)": "infinite"
			}
		},
		"methodIdentifiers": {
			"DEAD()": "03fd2a45",
			"USDT()": "c54e44eb",
			"addLiquidity(uint256)": "51c6590a",
			"getAmountOut(address,address,uint256)": "4aa06652",
			"liquidityAmount(address)": "35e344f2",
			"lp()": "313c06a0",
			"raisefunds(uint256)": "80565655",
			"removeLiquidity(uint256)": "9c8f9f23",
			"removeLiquidityOfRaiseFunds()": "62d284b2",
			"token()": "fc0c546a",
			"uniswapV2Factory()": "59d0f713",
			"uniswapV2Router()": "1694505e"
		}
	},
	"abi": [
		{
			"inputs": [],
			"name": "DEAD",
			"outputs": [
				{
					"internalType": "address",
					"name": "",
					"type": "address"
				}
			],
			"stateMutability": "view",
			"type": "function"
		},
		{
			"inputs": [],
			"name": "USDT",
			"outputs": [
				{
					"internalType": "address",
					"name": "",
					"type": "address"
				}
			],
			"stateMutability": "view",
			"type": "function"
		},
		{
			"inputs": [
				{
					"internalType": "uint256",
					"name": "amountToken",
					"type": "uint256"
				}
			],
			"name": "addLiquidity",
			"outputs": [
				{
					"internalType": "uint256",
					"name": "_amountToken",
					"type": "uint256"
				},
				{
					"internalType": "uint256",
					"name": "_amountUsdt",
					"type": "uint256"
				},
				{
					"internalType": "uint256",
					"name": "_liquidityAmount",
					"type": "uint256"
				}
			],
			"stateMutability": "nonpayable",
			"type": "function"
		},
		{
			"inputs": [
				{
					"internalType": "address",
					"name": "token0",
					"type": "address"
				},
				{
					"internalType": "address",
					"name": "token1",
					"type": "address"
				},
				{
					"internalType": "uint256",
					"name": "token0Amount",
					"type": "uint256"
				}
			],
			"name": "getAmountOut",
			"outputs": [
				{
					"internalType": "uint256",
					"name": "",
					"type": "uint256"
				}
			],
			"stateMutability": "view",
			"type": "function"
		},
		{
			"inputs": [
				{
					"internalType": "address",
					"name": "",
					"type": "address"
				}
			],
			"name": "liquidityAmount",
			"outputs": [
				{
					"internalType": "uint256",
					"name": "",
					"type": "uint256"
				}
			],
			"stateMutability": "view",
			"type": "function"
		},
		{
			"inputs": [],
			"name": "lp",
			"outputs": [
				{
					"internalType": "address",
					"name": "",
					"type": "address"
				}
			],
			"stateMutability": "view",
			"type": "function"
		},
		{
			"inputs": [
				{
					"internalType": "uint256",
					"name": "amountUsdt",
					"type": "uint256"
				}
			],
			"name": "raisefunds",
			"outputs": [],
			"stateMutability": "nonpayable",
			"type": "function"
		},
		{
			"inputs": [
				{
					"internalType": "uint256",
					"name": "_liquidity",
					"type": "uint256"
				}
			],
			"name": "removeLiquidity",
			"outputs": [],
			"stateMutability": "nonpayable",
			"type": "function"
		},
		{
			"inputs": [],
			"name": "removeLiquidityOfRaiseFunds",
			"outputs": [],
			"stateMutability": "nonpayable",
			"type": "function"
		},
		{
			"inputs": [],
			"name": "token",
			"outputs": [
				{
					"internalType": "address",
					"name": "",
					"type": "address"
				}
			],
			"stateMutability": "view",
			"type": "function"
		},
		{
			"inputs": [],
			"name": "uniswapV2Factory",
			"outputs": [
				{
					"internalType": "address",
					"name": "",
					"type": "address"
				}
			],
			"stateMutability": "view",
			"type": "function"
		},
		{
			"inputs": [],
			"name": "uniswapV2Router",
			"outputs": [
				{
					"internalType": "address",
					"name": "",
					"type": "address"
				}
			],
			"stateMutability": "view",
			"type": "function"
		}
	]
}